{
  "_format": "hh-sol-artifact-1",
  "contractName": "Valist",
  "sourceName": "contracts/Valist.sol",
  "abi": [
    {
      "inputs": [
        {
          "internalType": "address",
          "name": "_trustedForwarder",
          "type": "address"
        }
      ],
      "stateMutability": "nonpayable",
      "type": "constructor"
    },
    {
      "anonymous": false,
      "inputs": [
        {
          "indexed": false,
          "internalType": "string",
          "name": "_teamName",
          "type": "string"
        },
        {
          "indexed": false,
          "internalType": "string",
          "name": "_projectName",
          "type": "string"
        },
        {
          "indexed": false,
          "internalType": "string",
          "name": "_metaURI",
          "type": "string"
        },
        {
          "indexed": false,
          "internalType": "address",
          "name": "_member",
          "type": "address"
        }
      ],
      "name": "ProjectCreated",
      "type": "event"
    },
    {
      "anonymous": false,
      "inputs": [
        {
          "indexed": false,
          "internalType": "string",
          "name": "_teamName",
          "type": "string"
        },
        {
          "indexed": false,
          "internalType": "string",
          "name": "_projectName",
          "type": "string"
        },
        {
          "indexed": false,
          "internalType": "address",
          "name": "_member",
          "type": "address"
        }
      ],
      "name": "ProjectMemberAdded",
      "type": "event"
    },
    {
      "anonymous": false,
      "inputs": [
        {
          "indexed": false,
          "internalType": "string",
          "name": "_teamName",
          "type": "string"
        },
        {
          "indexed": false,
          "internalType": "string",
          "name": "_projectName",
          "type": "string"
        },
        {
          "indexed": false,
          "internalType": "address",
          "name": "_member",
          "type": "address"
        }
      ],
      "name": "ProjectMemberRemoved",
      "type": "event"
    },
    {
      "anonymous": false,
      "inputs": [
        {
          "indexed": false,
          "internalType": "string",
          "name": "_teamName",
          "type": "string"
        },
        {
          "indexed": false,
          "internalType": "string",
          "name": "_projectName",
          "type": "string"
        },
        {
          "indexed": false,
          "internalType": "string",
          "name": "_metaURI",
          "type": "string"
        },
        {
          "indexed": false,
          "internalType": "address",
          "name": "_member",
          "type": "address"
        }
      ],
      "name": "ProjectUpdated",
      "type": "event"
    },
    {
      "anonymous": false,
      "inputs": [
        {
          "indexed": false,
          "internalType": "string",
          "name": "_teamName",
          "type": "string"
        },
        {
          "indexed": false,
          "internalType": "string",
          "name": "_projectName",
          "type": "string"
        },
        {
          "indexed": false,
          "internalType": "string",
          "name": "_releaseName",
          "type": "string"
        },
        {
          "indexed": false,
          "internalType": "address",
          "name": "_sender",
          "type": "address"
        }
      ],
      "name": "ReleaseApproved",
      "type": "event"
    },
    {
      "anonymous": false,
      "inputs": [
        {
          "indexed": false,
          "internalType": "string",
          "name": "_teamName",
          "type": "string"
        },
        {
          "indexed": false,
          "internalType": "string",
          "name": "_projectName",
          "type": "string"
        },
        {
          "indexed": false,
          "internalType": "string",
          "name": "_releaseName",
          "type": "string"
        },
        {
          "indexed": false,
          "internalType": "string",
          "name": "_metaURI",
          "type": "string"
        },
        {
          "indexed": false,
          "internalType": "address",
          "name": "_member",
          "type": "address"
        }
      ],
      "name": "ReleaseCreated",
      "type": "event"
    },
    {
      "anonymous": false,
      "inputs": [
        {
          "indexed": false,
          "internalType": "string",
          "name": "_teamName",
          "type": "string"
        },
        {
          "indexed": false,
          "internalType": "string",
          "name": "_projectName",
          "type": "string"
        },
        {
          "indexed": false,
          "internalType": "string",
          "name": "_releaseName",
          "type": "string"
        },
        {
          "indexed": false,
          "internalType": "address",
          "name": "_sender",
          "type": "address"
        }
      ],
      "name": "ReleaseRejected",
      "type": "event"
    },
    {
      "anonymous": false,
      "inputs": [
        {
          "indexed": false,
          "internalType": "string",
          "name": "_teamName",
          "type": "string"
        },
        {
          "indexed": false,
          "internalType": "string",
          "name": "_metaURI",
          "type": "string"
        },
        {
          "indexed": false,
          "internalType": "address",
          "name": "_sender",
          "type": "address"
        }
      ],
      "name": "TeamCreated",
      "type": "event"
    },
    {
      "anonymous": false,
      "inputs": [
        {
          "indexed": false,
          "internalType": "string",
          "name": "_teamName",
          "type": "string"
        },
        {
          "indexed": false,
          "internalType": "address",
          "name": "_member",
          "type": "address"
        }
      ],
      "name": "TeamMemberAdded",
      "type": "event"
    },
    {
      "anonymous": false,
      "inputs": [
        {
          "indexed": false,
          "internalType": "string",
          "name": "_teamName",
          "type": "string"
        },
        {
          "indexed": false,
          "internalType": "address",
          "name": "_member",
          "type": "address"
        }
      ],
      "name": "TeamMemberRemoved",
      "type": "event"
    },
    {
      "anonymous": false,
      "inputs": [
        {
          "indexed": false,
          "internalType": "string",
          "name": "_teamName",
          "type": "string"
        },
        {
          "indexed": false,
          "internalType": "string",
          "name": "_metaURI",
          "type": "string"
        },
        {
          "indexed": false,
          "internalType": "address",
          "name": "_member",
          "type": "address"
        }
      ],
      "name": "TeamUpdated",
      "type": "event"
    },
    {
      "inputs": [
        {
          "internalType": "string",
          "name": "_teamName",
          "type": "string"
        },
        {
          "internalType": "string",
          "name": "_projectName",
          "type": "string"
        },
        {
          "internalType": "address",
          "name": "_address",
          "type": "address"
        }
      ],
      "name": "addProjectMember",
      "outputs": [],
      "stateMutability": "nonpayable",
      "type": "function"
    },
    {
      "inputs": [
        {
          "internalType": "string",
          "name": "_teamName",
          "type": "string"
        },
        {
          "internalType": "address",
          "name": "_address",
          "type": "address"
        }
      ],
      "name": "addTeamMember",
      "outputs": [],
      "stateMutability": "nonpayable",
      "type": "function"
    },
    {
      "inputs": [
        {
          "internalType": "string",
          "name": "_teamName",
          "type": "string"
        },
        {
          "internalType": "string",
          "name": "_projectName",
          "type": "string"
        },
        {
          "internalType": "string",
          "name": "_releaseName",
          "type": "string"
        }
      ],
      "name": "approveRelease",
      "outputs": [],
      "stateMutability": "nonpayable",
      "type": "function"
    },
    {
      "inputs": [
        {
          "internalType": "string",
          "name": "_teamName",
          "type": "string"
        },
        {
          "internalType": "string",
          "name": "_projectName",
          "type": "string"
        },
        {
          "internalType": "string",
          "name": "_metaURI",
          "type": "string"
        },
        {
          "internalType": "address[]",
          "name": "_members",
          "type": "address[]"
        }
      ],
      "name": "createProject",
      "outputs": [],
      "stateMutability": "nonpayable",
      "type": "function"
    },
    {
      "inputs": [
        {
          "internalType": "string",
          "name": "_teamName",
          "type": "string"
        },
        {
          "internalType": "string",
          "name": "_projectName",
          "type": "string"
        },
        {
          "internalType": "string",
          "name": "_releaseName",
          "type": "string"
        },
        {
          "internalType": "string",
          "name": "_metaURI",
          "type": "string"
        }
      ],
      "name": "createRelease",
      "outputs": [],
      "stateMutability": "nonpayable",
      "type": "function"
    },
    {
      "inputs": [
        {
          "internalType": "string",
          "name": "_teamName",
          "type": "string"
        },
        {
          "internalType": "string",
          "name": "_metaURI",
          "type": "string"
        },
        {
          "internalType": "address[]",
          "name": "_members",
          "type": "address[]"
        }
      ],
      "name": "createTeam",
      "outputs": [],
      "stateMutability": "nonpayable",
      "type": "function"
    },
    {
      "inputs": [
        {
          "internalType": "string",
          "name": "_teamName",
          "type": "string"
        },
        {
          "internalType": "string",
          "name": "_projectName",
          "type": "string"
        }
      ],
      "name": "getLatestReleaseName",
      "outputs": [
        {
          "internalType": "string",
          "name": "",
          "type": "string"
        }
      ],
      "stateMutability": "view",
      "type": "function"
    },
    {
      "inputs": [
        {
          "internalType": "uint256",
          "name": "_teamID",
          "type": "uint256"
        },
        {
          "internalType": "string",
          "name": "_projectName",
          "type": "string"
        }
      ],
      "name": "getProjectID",
      "outputs": [
        {
          "internalType": "uint256",
          "name": "",
          "type": "uint256"
        }
      ],
      "stateMutability": "pure",
      "type": "function"
    },
    {
      "inputs": [
        {
          "internalType": "string",
          "name": "_teamName",
          "type": "string"
        },
        {
          "internalType": "string",
          "name": "_projectName",
          "type": "string"
        },
        {
          "internalType": "uint256",
          "name": "_page",
          "type": "uint256"
        },
        {
          "internalType": "uint256",
          "name": "_size",
          "type": "uint256"
        }
      ],
      "name": "getProjectMembers",
      "outputs": [
        {
          "internalType": "address[]",
          "name": "",
          "type": "address[]"
        }
      ],
      "stateMutability": "view",
      "type": "function"
    },
    {
      "inputs": [
        {
          "internalType": "string",
          "name": "_teamName",
          "type": "string"
        },
        {
          "internalType": "string",
          "name": "_projectName",
          "type": "string"
        }
      ],
      "name": "getProjectMetaURI",
      "outputs": [
        {
          "internalType": "string",
          "name": "",
          "type": "string"
        }
      ],
      "stateMutability": "view",
      "type": "function"
    },
    {
      "inputs": [
        {
          "internalType": "string",
          "name": "_teamName",
          "type": "string"
        },
        {
          "internalType": "uint256",
          "name": "_page",
          "type": "uint256"
        },
        {
          "internalType": "uint256",
          "name": "_size",
          "type": "uint256"
        }
      ],
      "name": "getProjectNames",
      "outputs": [
        {
          "internalType": "string[]",
          "name": "",
          "type": "string[]"
        }
      ],
      "stateMutability": "view",
      "type": "function"
    },
    {
      "inputs": [
        {
          "internalType": "string",
          "name": "_teamName",
          "type": "string"
        },
        {
          "internalType": "string",
          "name": "_projectName",
          "type": "string"
        },
        {
          "internalType": "string",
          "name": "_releaseName",
          "type": "string"
        },
        {
          "internalType": "uint256",
          "name": "_page",
          "type": "uint256"
        },
        {
          "internalType": "uint256",
          "name": "_size",
          "type": "uint256"
        }
      ],
      "name": "getReleaseApprovers",
      "outputs": [
        {
          "internalType": "address[]",
          "name": "",
          "type": "address[]"
        }
      ],
      "stateMutability": "view",
      "type": "function"
    },
    {
      "inputs": [
        {
          "internalType": "uint256",
          "name": "_projectID",
          "type": "uint256"
        },
        {
          "internalType": "string",
          "name": "_releaseName",
          "type": "string"
        }
      ],
      "name": "getReleaseID",
      "outputs": [
        {
          "internalType": "uint256",
          "name": "",
          "type": "uint256"
        }
      ],
      "stateMutability": "pure",
      "type": "function"
    },
    {
      "inputs": [
        {
          "internalType": "string",
          "name": "_teamName",
          "type": "string"
        },
        {
          "internalType": "string",
          "name": "_projectName",
          "type": "string"
        },
        {
          "internalType": "string",
          "name": "_releaseName",
          "type": "string"
        }
      ],
      "name": "getReleaseMetaURI",
      "outputs": [
        {
          "internalType": "string",
          "name": "",
          "type": "string"
        }
      ],
      "stateMutability": "view",
      "type": "function"
    },
    {
      "inputs": [
        {
          "internalType": "string",
          "name": "_teamName",
          "type": "string"
        },
        {
          "internalType": "string",
          "name": "_projectName",
          "type": "string"
        },
        {
          "internalType": "uint256",
          "name": "_page",
          "type": "uint256"
        },
        {
          "internalType": "uint256",
          "name": "_size",
          "type": "uint256"
        }
      ],
      "name": "getReleaseNames",
      "outputs": [
        {
          "internalType": "string[]",
          "name": "",
          "type": "string[]"
        }
      ],
      "stateMutability": "view",
      "type": "function"
    },
    {
      "inputs": [
        {
          "internalType": "string",
          "name": "_teamName",
          "type": "string"
        },
        {
          "internalType": "string",
          "name": "_projectName",
          "type": "string"
        },
        {
          "internalType": "string",
          "name": "_releaseName",
          "type": "string"
        },
        {
          "internalType": "uint256",
          "name": "_page",
          "type": "uint256"
        },
        {
          "internalType": "uint256",
          "name": "_size",
          "type": "uint256"
        }
      ],
      "name": "getReleaseRejectors",
      "outputs": [
        {
          "internalType": "address[]",
          "name": "",
          "type": "address[]"
        }
      ],
      "stateMutability": "view",
      "type": "function"
    },
    {
      "inputs": [
        {
          "internalType": "string",
          "name": "_teamName",
          "type": "string"
        }
      ],
      "name": "getTeamID",
      "outputs": [
        {
          "internalType": "uint256",
          "name": "",
          "type": "uint256"
        }
      ],
      "stateMutability": "view",
      "type": "function"
    },
    {
      "inputs": [
        {
          "internalType": "string",
          "name": "_teamName",
          "type": "string"
        },
        {
          "internalType": "uint256",
          "name": "_page",
          "type": "uint256"
        },
        {
          "internalType": "uint256",
          "name": "_size",
          "type": "uint256"
        }
      ],
      "name": "getTeamMembers",
      "outputs": [
        {
          "internalType": "address[]",
          "name": "",
          "type": "address[]"
        }
      ],
      "stateMutability": "view",
      "type": "function"
    },
    {
      "inputs": [
        {
          "internalType": "string",
          "name": "_teamName",
          "type": "string"
        }
      ],
      "name": "getTeamMetaURI",
      "outputs": [
        {
          "internalType": "string",
          "name": "",
          "type": "string"
        }
      ],
      "stateMutability": "view",
      "type": "function"
    },
    {
      "inputs": [
        {
          "internalType": "uint256",
          "name": "_page",
          "type": "uint256"
        },
        {
          "internalType": "uint256",
          "name": "_size",
          "type": "uint256"
        }
      ],
      "name": "getTeamNames",
      "outputs": [
        {
          "internalType": "string[]",
          "name": "",
          "type": "string[]"
        }
      ],
      "stateMutability": "view",
      "type": "function"
    },
    {
      "inputs": [
        {
          "internalType": "uint256",
          "name": "_projectID",
          "type": "uint256"
        },
        {
          "internalType": "address",
          "name": "_member",
          "type": "address"
        }
      ],
      "name": "isProjectMember",
      "outputs": [
        {
          "internalType": "bool",
          "name": "",
          "type": "bool"
        }
      ],
      "stateMutability": "view",
      "type": "function"
    },
    {
      "inputs": [
        {
          "internalType": "uint256",
          "name": "_teamID",
          "type": "uint256"
        },
        {
          "internalType": "address",
          "name": "_member",
          "type": "address"
        }
      ],
      "name": "isTeamMember",
      "outputs": [
        {
          "internalType": "bool",
          "name": "",
          "type": "bool"
        }
      ],
      "stateMutability": "view",
      "type": "function"
    },
    {
      "inputs": [
        {
          "internalType": "address",
          "name": "forwarder",
          "type": "address"
        }
      ],
      "name": "isTrustedForwarder",
      "outputs": [
        {
          "internalType": "bool",
          "name": "",
          "type": "bool"
        }
      ],
      "stateMutability": "view",
      "type": "function"
    },
    {
      "inputs": [
        {
          "internalType": "uint256",
          "name": "",
          "type": "uint256"
        }
      ],
      "name": "metaByID",
      "outputs": [
        {
          "internalType": "string",
          "name": "",
          "type": "string"
        }
      ],
      "stateMutability": "view",
      "type": "function"
    },
    {
      "inputs": [
        {
          "internalType": "string",
          "name": "_teamName",
          "type": "string"
        },
        {
          "internalType": "string",
          "name": "_projectName",
          "type": "string"
        },
        {
          "internalType": "string",
          "name": "_releaseName",
          "type": "string"
        }
      ],
      "name": "rejectRelease",
      "outputs": [],
      "stateMutability": "nonpayable",
      "type": "function"
    },
    {
      "inputs": [
        {
          "internalType": "string",
          "name": "_teamName",
          "type": "string"
        },
        {
          "internalType": "string",
          "name": "_projectName",
          "type": "string"
        },
        {
          "internalType": "address",
          "name": "_address",
          "type": "address"
        }
      ],
      "name": "removeProjectMember",
      "outputs": [],
      "stateMutability": "nonpayable",
      "type": "function"
    },
    {
      "inputs": [
        {
          "internalType": "string",
          "name": "_teamName",
          "type": "string"
        },
        {
          "internalType": "address",
          "name": "_address",
          "type": "address"
        }
      ],
      "name": "removeTeamMember",
      "outputs": [],
      "stateMutability": "nonpayable",
      "type": "function"
    },
    {
      "inputs": [
        {
          "internalType": "string",
          "name": "_teamName",
          "type": "string"
        },
        {
          "internalType": "string",
          "name": "_projectName",
          "type": "string"
        },
        {
          "internalType": "string",
          "name": "_metaURI",
          "type": "string"
        }
      ],
      "name": "setProjectMetaURI",
      "outputs": [],
      "stateMutability": "nonpayable",
      "type": "function"
    },
    {
      "inputs": [
        {
          "internalType": "string",
          "name": "_teamName",
          "type": "string"
        },
        {
          "internalType": "string",
          "name": "_metaURI",
          "type": "string"
        }
      ],
      "name": "setTeamMetaURI",
      "outputs": [],
      "stateMutability": "nonpayable",
      "type": "function"
    },
    {
      "inputs": [],
      "name": "versionRecipient",
      "outputs": [
        {
          "internalType": "string",
          "name": "",
          "type": "string"
        }
      ],
      "stateMutability": "view",
      "type": "function"
    }
  ],
  "bytecode": "0x60c060405260056080819052640322e322e360dc1b60a09081526200002891600691906200007f565b503480156200003657600080fd5b50604051620032b6380380620032b6833981016040819052620000599162000125565b600080546001600160a01b0319166001600160a01b039290921691909117905562000192565b8280546200008d9062000155565b90600052602060002090601f016020900481019282620000b15760008555620000fc565b82601f10620000cc57805160ff1916838001178555620000fc565b82800160010185558215620000fc579182015b82811115620000fc578251825591602001919060010190620000df565b506200010a9291506200010e565b5090565b5b808211156200010a57600081556001016200010f565b60006020828403121562000137578081fd5b81516001600160a01b03811681146200014e578182fd5b9392505050565b600181811c908216806200016a57607f821691505b602082108114156200018c57634e487b7160e01b600052602260045260246000fd5b50919050565b61311480620001a26000396000f3fe608060405234801561001057600080fd5b50600436106101da5760003560e01c806358f70006116101045780639fe1fb72116100a2578063baffd3da11610071578063baffd3da1461040a578063cfc5efac1461041d578063ecb0a33d14610430578063f8b249151461044357600080fd5b80639fe1fb72146103be578063a6a54ec5146103d1578063b1a5042b146103e4578063b1bc8c8d146103f757600080fd5b8063600c3911116100de578063600c39111461037257806381ded1501461038557806383dfd03e146103985780639e97c317146103ab57600080fd5b806358f70006146102075780635c5370961461034c5780635f36788e1461035f57600080fd5b806343417c061161017c5780634eec58a31161014b5780634eec58a3146102e45780634ff3ec601461030457806351de13bf14610317578063572b6c051461032a57600080fd5b806343417c061461029657806347566e4f146102b6578063486ff0cd146102c95780634ce72c75146102d157600080fd5b806311bc1ce0116101b857806311bc1ce01461023d578063172898181461025057806325ca6b03146102705780632aa2fd641461028357600080fd5b806301738281146101df578063052470f4146102075780630716dfa014610228575b600080fd5b6101f26101ed366004612c34565b610456565b60405190151581526020015b60405180910390f35b61021a610215366004612c56565b61047a565b6040519081526020016101fe565b61023b610236366004612a31565b6104be565b005b61023b61024b366004612911565b610689565b61026361025e366004612acc565b61077c565b6040516101fe9190612cfc565b61023b61027e366004612911565b6108e5565b61023b61029136600461281e565b610a02565b6102a96102a4366004612c1c565b610b2e565b6040516101fe9190612daa565b6102a96102c43660046127be565b610bc8565b6102a9610cdf565b6102636102df366004612b61565b610cec565b6102f76102f2366004612c90565b610e45565b6040516101fe9190612d49565b61023b61031236600461298a565b610fe9565b61023b6103253660046127be565b611194565b6101f261033836600461271f565b6000546001600160a01b0391821691161490565b61023b61035a36600461281e565b6112f7565b61023b61036d36600461288e565b61142b565b6101f2610380366004612c34565b611613565b61023b610393366004612773565b61162e565b6102f76103a6366004612b61565b611742565b6102a96103b9366004612911565b61191c565b6102a96103cc366004612739565b611a25565b6102f76103df366004612bd1565b611b63565b6102a96103f23660046127be565b611d6d565b610263610405366004612acc565b611e66565b61023b610418366004612911565b611fb6565b61026361042b366004612bd1565b612089565b61023b61043e366004612773565b6121f8565b61021a610451366004612739565b612314565b60008281526002602052604081206104719060010183612357565b90505b92915050565b600082828051906020012060405160200161049f929190918252602082015260400190565b60408051601f1981840301815291905280516020909101209392505050565b60008151116104e85760405162461bcd60e51b81526004016104df90612f36565b60405180910390fd5b60008351116105095760405162461bcd60e51b81526004016104df90612f5e565b600082511161052a5760405162461bcd60e51b81526004016104df90612f5e565b600061053585612314565b90506000610543828661047a565b90506000610551828661047a565b905061055f836101ed612379565b80610571575061057182610380612379565b6105af5760405162461bcd60e51b815260206004820152600f60248201526e32b93916b83937b516b6b2b6b132b960891b60448201526064016104df565b600081815260056020526040902080546105c89061305c565b1590506105e75760405162461bcd60e51b81526004016104df90612f0c565b6000818152600560209081526040909120855161060692870190612583565b50600082815260036020908152604082208054600181018255908352918190208751610639939190910191880190612583565b507f15fb1d214ed195f7210e450a416a0640362c37a0a2d2d0ab63481f967aae0e0087878787610667612379565b604051610678959493929190612e78565b60405180910390a150505050505050565b600061069484612314565b905060006106a2828561047a565b905060006106b0828561047a565b6000818152600560205260408120805492935090916106ce9061305c565b9050116106ed5760405162461bcd60e51b81526004016104df90612f86565b61070c6106f8612379565b60008381526004602052604090209061239f565b5061072f610718612379565b6000838152600460205260409020600201906123b4565b507fa70c9d49a7ef09401d07a7aad126689c097b80db50504ce9ba5ca8b6f6477fb886868661075c612379565b60405161076c9493929190612e25565b60405180910390a1505050505050565b6060600061078987612314565b90506000610797828861047a565b905060006107a5828861047a565b905060006107b38688613026565b905060006107c1878361300e565b60008481526004602052604090209091506107de906002016123c9565b8111156108025760008381526004602052604090206107ff906002016123c9565b90505b600061080e8383613045565b6001600160401b0381111561083357634e487b7160e01b600052604160045260246000fd5b60405190808252806020026020018201604052801561085c578160200160208202803683370190505b509050825b828110156108d557600085815260046020526040902061088490600201826123d3565b8261088f8684613045565b815181106108ad57634e487b7160e01b600052603260045260246000fd5b6001600160a01b03909216602092830291909101909101526108ce81613097565b9050610861565b509b9a5050505050505050505050565b60008151116109065760405162461bcd60e51b81526004016104df90612f36565b600061091184612314565b9050600061091f828561047a565b905061094361092c612379565b600084815260026020526040902060010190612357565b61095f5760405162461bcd60e51b81526004016104df90612fb5565b600081815260056020526040812080546109789061305c565b9050116109975760405162461bcd60e51b81526004016104df90612ee0565b600081815260056020908152604090912084516109b692860190612583565b507fd837747757bf732c911148d7c5825d52de171f849e76143eec98fa514e263c8a8585856109e3612379565b6040516109f39493929190612e25565b60405180910390a15050505050565b6000610a0d84612314565b90506000610a1b828561047a565b600081815260056020526040812080549293509091610a399061305c565b905011610a585760405162461bcd60e51b81526004016104df90612ee0565b610a6361092c612379565b1515600114610a845760405162461bcd60e51b81526004016104df90612fb5565b6000818152600360205260409020610a9f9060010184612357565b15610adf5760405162461bcd60e51b815260206004820152601060248201526f195c9c8b5b595b58995c8b595e1a5cdd60821b60448201526064016104df565b6000818152600360205260409020610afa906001018461239f565b507f8eb5dc57e01da32e2b98214d39ebdd82cd801d261855d5f84b868b5f140a29808585856040516109f393929190612de7565b60056020526000908152604090208054610b479061305c565b80601f0160208091040260200160405190810160405280929190818152602001828054610b739061305c565b8015610bc05780601f10610b9557610100808354040283529160200191610bc0565b820191906000526020600020905b815481529060010190602001808311610ba357829003601f168201915b505050505081565b60606000610bd584612314565b90506000610be3828561047a565b6000818152600360205260409020805491925090610c135760405162461bcd60e51b81526004016104df90612ee0565b80548190610c2390600190613045565b81548110610c4157634e487b7160e01b600052603260045260246000fd5b906000526020600020018054610c569061305c565b80601f0160208091040260200160405190810160405280929190818152602001828054610c829061305c565b8015610ccf5780601f10610ca457610100808354040283529160200191610ccf565b820191906000526020600020905b815481529060010190602001808311610cb257829003601f168201915b5050505050935050505092915050565b60068054610b479061305c565b60606000610cf986612314565b90506000610d07828761047a565b90506000610d158587613026565b90506000610d23868361300e565b6000848152600360205260409020909150610d40906001016123c9565b811115610d64576000838152600360205260409020610d61906001016123c9565b90505b6000610d708383613045565b6001600160401b03811115610d9557634e487b7160e01b600052604160045260246000fd5b604051908082528060200260200182016040528015610dbe578160200160208202803683370190505b509050825b82811015610e37576000858152600360205260409020610de690600101826123d3565b82610df18684613045565b81518110610e0f57634e487b7160e01b600052603260045260246000fd5b6001600160a01b0390921660209283029190910190910152610e3081613097565b9050610dc3565b509998505050505050505050565b60606000610e538385613026565b90506000610e61848361300e565b600154909150811115610e7357506001545b6000610e7f8383613045565b6001600160401b03811115610ea457634e487b7160e01b600052604160045260246000fd5b604051908082528060200260200182016040528015610ed757816020015b6060815260200190600190039081610ec25790505b509050825b82811015610fdf5760018181548110610f0557634e487b7160e01b600052603260045260246000fd5b906000526020600020018054610f1a9061305c565b80601f0160208091040260200160405190810160405280929190818152602001828054610f469061305c565b8015610f935780601f10610f6857610100808354040283529160200191610f93565b820191906000526020600020905b815481529060010190602001808311610f7657829003601f168201915b5050505050828583610fa59190613045565b81518110610fc357634e487b7160e01b600052603260045260246000fd5b602002602001018190525080610fd890613097565b9050610edc565b5095945050505050565b600082511161100a5760405162461bcd60e51b81526004016104df90612f36565b600083511161102b5760405162461bcd60e51b81526004016104df90612f5e565b600061103685612314565b90506000611044828661047a565b9050611052826101ed612379565b61106e5760405162461bcd60e51b81526004016104df90612fb5565b600081815260056020526040902080546110879061305c565b1590506110a65760405162461bcd60e51b81526004016104df90612f0c565b600081815260056020908152604090912085516110c592870190612583565b506000828152600260209081526040822080546001810182559083529181902087516110f8939190910191880190612583565b5060005b83518110156111675761115484828151811061112857634e487b7160e01b600052603260045260246000fd5b60200260200101516003600085815260200190815260200160002060010161239f90919063ffffffff16565b508061115f81613097565b9150506110fc565b507f11f7f07de1d35c43b47edd8a19e7f8208259cdf66344de81856c5bb7c798db2686868661075c612379565b60008151116111b55760405162461bcd60e51b81526004016104df90612f36565b60004683805190602001206040516020016111da929190918252602082015260400190565b6040516020818303038152906040528051906020012060001c9050611217611200612379565b600083815260026020526040902060010190612357565b6112335760405162461bcd60e51b81526004016104df90612fb5565b6000818152600560205260408120805461124c9061305c565b9050116112905760405162461bcd60e51b8152602060048201526012602482015271195c9c8b5d19585b4b5b9bdd0b595e1a5cdd60721b60448201526064016104df565b600081815260056020908152604090912083516112af92850190612583565b507f337efabade1b5802f3a562a44eb0b3222d30ad7717e865d76f4db7ecbea56e8083836112db612379565b6040516112ea93929190612de7565b60405180910390a1505050565b600061130284612314565b90506000611310828561047a565b60008181526005602052604081208054929350909161132e9061305c565b90501161134d5760405162461bcd60e51b81526004016104df90612ee0565b61135861092c612379565b15156001146113795760405162461bcd60e51b81526004016104df90612fb5565b60008181526003602052604090206113949060010184612357565b15156001146113dc5760405162461bcd60e51b8152602060048201526014602482015273195c9c8b5b595b58995c8b5b9bdd0b595e1a5cdd60621b60448201526064016104df565b60008181526003602052604090206113f790600101846123b4565b507f7bd4fdf0f1872366f33f1732f765696c1ec3ddccaa8c1f72095b58d8f411fa938585856040516109f393929190612de7565b600082511161144c5760405162461bcd60e51b81526004016104df90612f36565b600083511161146d5760405162461bcd60e51b81526004016104df90612f5e565b60008151116114b25760405162461bcd60e51b81526020600482015260116024820152706572722d656d7074792d6d656d6265727360781b60448201526064016104df565b60006114bd84612314565b60008181526005602052604090208054919250906114da9061305c565b1590506114f95760405162461bcd60e51b81526004016104df90612f0c565b6000818152600560209081526040909120845161151892860190612583565b50600180548082018255600091909152845161155b917fb10e2d527612073b26eecdfd717e6a320cf44b4afac2b0732d9fcbe2b7fa0cf601906020870190612583565b5060005b82518110156115ca576115b783828151811061158b57634e487b7160e01b600052603260045260246000fd5b60200260200101516002600085815260200190815260200160002060010161239f90919063ffffffff16565b50806115c281613097565b91505061155f565b507f234eb9d37ed58b55e52e99246bb2b0cebb55311292e5d3de44a6df95a9af250184846115f6612379565b60405161160593929190612de7565b60405180910390a150505050565b60008281526003602052604081206104719060010183612357565b6000468380519060200120604051602001611653929190918252602082015260400190565b6040516020818303038152906040528051906020012060001c9050611679611200612379565b151560011461169a5760405162461bcd60e51b81526004016104df90612fb5565b60008181526002602052604090206116b59060010183612357565b156116f55760405162461bcd60e51b815260206004820152601060248201526f195c9c8b5b595b58995c8b595e1a5cdd60821b60448201526064016104df565b6000818152600260205260409020611710906001018361239f565b507fb1ce9c84087af16e758e7041eec971f57c833f4127f64f742c5b0ee14e0537d283836040516112ea929190612dbd565b6060600061174f86612314565b9050600061175d828761047a565b9050600061176b8587613026565b90506000611779868361300e565b6000848152600360205260409020549091508111156117a357506000828152600360205260409020545b60006117af8383613045565b6001600160401b038111156117d457634e487b7160e01b600052604160045260246000fd5b60405190808252806020026020018201604052801561180757816020015b60608152602001906001900390816117f25790505b509050825b82811015610e3757600085815260036020526040902080548290811061184257634e487b7160e01b600052603260045260246000fd5b9060005260206000200180546118579061305c565b80601f01602080910402602001604051908101604052809291908181526020018280546118839061305c565b80156118d05780601f106118a5576101008083540402835291602001916118d0565b820191906000526020600020905b8154815290600101906020018083116118b357829003601f168201915b50505050508285836118e29190613045565b8151811061190057634e487b7160e01b600052603260045260246000fd5b60200260200101819052508061191590613097565b905061180c565b6060600061192985612314565b90506000611937828661047a565b90506000611945828661047a565b6000818152600560205260408120805492935090916119639061305c565b9050116119825760405162461bcd60e51b81526004016104df90612f86565b6000818152600560205260409020805461199b9061305c565b80601f01602080910402602001604051908101604052809291908181526020018280546119c79061305c565b8015611a145780601f106119e957610100808354040283529160200191611a14565b820191906000526020600020905b8154815290600101906020018083116119f757829003601f168201915b505050505093505050509392505050565b60606000468380519060200120604051602001611a4c929190918252602082015260400190565b60408051601f19818403018152918152815160209283012060008181526005909352908220805491935090611a809061305c565b905011611ac45760405162461bcd60e51b8152602060048201526012602482015271195c9c8b5d19585b4b5b9bdd0b595e1a5cdd60721b60448201526064016104df565b60008181526005602052604090208054611add9061305c565b80601f0160208091040260200160405190810160405280929190818152602001828054611b099061305c565b8015611b565780601f10611b2b57610100808354040283529160200191611b56565b820191906000526020600020905b815481529060010190602001808311611b3957829003601f168201915b5050505050915050919050565b60606000468580519060200120604051602001611b8a929190918252602082015260400190565b60408051601f19818403018152919052805160209091012090506000611bb08486613026565b90506000611bbe858361300e565b600084815260026020526040902054909150811115611be857506000828152600260205260409020545b6000611bf48383613045565b6001600160401b03811115611c1957634e487b7160e01b600052604160045260246000fd5b604051908082528060200260200182016040528015611c4c57816020015b6060815260200190600190039081611c375790505b509050825b82811015611d61576000858152600260205260409020805482908110611c8757634e487b7160e01b600052603260045260246000fd5b906000526020600020018054611c9c9061305c565b80601f0160208091040260200160405190810160405280929190818152602001828054611cc89061305c565b8015611d155780601f10611cea57610100808354040283529160200191611d15565b820191906000526020600020905b815481529060010190602001808311611cf857829003601f168201915b5050505050828583611d279190613045565b81518110611d4557634e487b7160e01b600052603260045260246000fd5b602002602001018190525080611d5a90613097565b9050611c51565b50979650505050505050565b60606000611d7a84612314565b90506000611d88828561047a565b600081815260056020526040812080549293509091611da69061305c565b905011611dc55760405162461bcd60e51b81526004016104df90612ee0565b60008181526005602052604090208054611dde9061305c565b80601f0160208091040260200160405190810160405280929190818152602001828054611e0a9061305c565b8015611e575780601f10611e2c57610100808354040283529160200191611e57565b820191906000526020600020905b815481529060010190602001808311611e3a57829003601f168201915b50505050509250505092915050565b60606000611e7387612314565b90506000611e81828861047a565b90506000611e8f828861047a565b90506000611e9d8688613026565b90506000611eab878361300e565b6000848152600460205260409020909150611ec5906123c9565b811115611ee6576000838152600460205260409020611ee3906123c9565b90505b6000611ef28383613045565b6001600160401b03811115611f1757634e487b7160e01b600052604160045260246000fd5b604051908082528060200260200182016040528015611f40578160200160208202803683370190505b509050825b828110156108d5576000858152600460205260409020611f6590826123d3565b82611f708684613045565b81518110611f8e57634e487b7160e01b600052603260045260246000fd5b6001600160a01b0390921660209283029190910190910152611faf81613097565b9050611f45565b6000611fc184612314565b90506000611fcf828561047a565b90506000611fdd828561047a565b600081815260056020526040812080549293509091611ffb9061305c565b90501161201a5760405162461bcd60e51b81526004016104df90612f86565b61203c612025612379565b60008381526004602052604090206002019061239f565b5061205c612048612379565b6000838152600460205260409020906123b4565b507f30ca79684c561b1b6fbda88d9779021eb510471ea1df05c10dc39c46d6ed94eb86868661075c612379565b606060004685805190602001206040516020016120b0929190918252602082015260400190565b60408051601f198184030181529190528051602090910120905060006120d68486613026565b905060006120e4858361300e565b6000848152600260205260409020909150612101906001016123c9565b811115612125576000838152600260205260409020612122906001016123c9565b90505b60006121318383613045565b6001600160401b0381111561215657634e487b7160e01b600052604160045260246000fd5b60405190808252806020026020018201604052801561217f578160200160208202803683370190505b509050825b82811015611d615760008581526002602052604090206121a790600101826123d3565b826121b28684613045565b815181106121d057634e487b7160e01b600052603260045260246000fd5b6001600160a01b03909216602092830291909101909101526121f181613097565b9050612184565b600046838051906020012060405160200161221d929190918252602082015260400190565b6040516020818303038152906040528051906020012060001c9050612243611200612379565b15156001146122645760405162461bcd60e51b81526004016104df90612fb5565b600081815260026020526040902061227f9060010183612357565b15156001146122c75760405162461bcd60e51b8152602060048201526014602482015273195c9c8b5b595b58995c8b5b9bdd0b595e1a5cdd60621b60448201526064016104df565b60008181526002602052604090206122e290600101836123b4565b507fbd84f6be96016aa1d03fd0c0ce516da6b2e352520bddd280c744c6c79a37851283836040516112ea929190612dbd565b6000468280519060200120604051602001612339929190918252602082015260400190565b60408051601f19818403018152919052805160209091012092915050565b6001600160a01b03811660009081526001830160205260408120541515610471565b600080546001600160a01b031633141561239a575060131936013560601c90565b503390565b6000610471836001600160a01b0384166123df565b6000610471836001600160a01b03841661242e565b6000610474825490565b6000610471838361254b565b600081815260018301602052604081205461242657508154600181810184556000848152602080822090930184905584548482528286019093526040902091909155610474565b506000610474565b60008181526001830160205260408120548015612541576000612452600183613045565b855490915060009061246690600190613045565b90508181146124e757600086600001828154811061249457634e487b7160e01b600052603260045260246000fd5b90600052602060002001549050808760000184815481106124c557634e487b7160e01b600052603260045260246000fd5b6000918252602080832090910192909255918252600188019052604090208390555b855486908061250657634e487b7160e01b600052603160045260246000fd5b600190038181906000526020600020016000905590558560010160008681526020019081526020016000206000905560019350505050610474565b6000915050610474565b600082600001828154811061257057634e487b7160e01b600052603260045260246000fd5b9060005260206000200154905092915050565b82805461258f9061305c565b90600052602060002090601f0160209004810192826125b157600085556125f7565b82601f106125ca57805160ff19168380011785556125f7565b828001600101855582156125f7579182015b828111156125f75782518255916020019190600101906125dc565b50612603929150612607565b5090565b5b808211156126035760008155600101612608565b80356001600160a01b038116811461263357600080fd5b919050565b600082601f830112612648578081fd5b813560206001600160401b03821115612663576126636130c8565b8160051b612672828201612fde565b83815282810190868401838801850189101561268c578687fd5b8693505b85841015611d61576126a18161261c565b835260019390930192918401918401612690565b600082601f8301126126c5578081fd5b81356001600160401b038111156126de576126de6130c8565b6126f1601f8201601f1916602001612fde565b818152846020838601011115612705578283fd5b816020850160208301379081016020019190915292915050565b600060208284031215612730578081fd5b6104718261261c565b60006020828403121561274a578081fd5b81356001600160401b0381111561275f578182fd5b61276b848285016126b5565b949350505050565b60008060408385031215612785578081fd5b82356001600160401b0381111561279a578182fd5b6127a6858286016126b5565b9250506127b56020840161261c565b90509250929050565b600080604083850312156127d0578182fd5b82356001600160401b03808211156127e6578384fd5b6127f2868387016126b5565b93506020850135915080821115612807578283fd5b50612814858286016126b5565b9150509250929050565b600080600060608486031215612832578081fd5b83356001600160401b0380821115612848578283fd5b612854878388016126b5565b94506020860135915080821115612869578283fd5b50612876868287016126b5565b9250506128856040850161261c565b90509250925092565b6000806000606084860312156128a2578283fd5b83356001600160401b03808211156128b8578485fd5b6128c4878388016126b5565b945060208601359150808211156128d9578384fd5b6128e5878388016126b5565b935060408601359150808211156128fa578283fd5b5061290786828701612638565b9150509250925092565b600080600060608486031215612925578283fd5b83356001600160401b038082111561293b578485fd5b612947878388016126b5565b9450602086013591508082111561295c578384fd5b612968878388016126b5565b9350604086013591508082111561297d578283fd5b50612907868287016126b5565b6000806000806080858703121561299f578081fd5b84356001600160401b03808211156129b5578283fd5b6129c1888389016126b5565b955060208701359150808211156129d6578283fd5b6129e2888389016126b5565b945060408701359150808211156129f7578283fd5b612a03888389016126b5565b93506060870135915080821115612a18578283fd5b50612a2587828801612638565b91505092959194509250565b60008060008060808587031215612a46578384fd5b84356001600160401b0380821115612a5c578586fd5b612a68888389016126b5565b95506020870135915080821115612a7d578485fd5b612a89888389016126b5565b94506040870135915080821115612a9e578384fd5b612aaa888389016126b5565b93506060870135915080821115612abf578283fd5b50612a25878288016126b5565b600080600080600060a08688031215612ae3578081fd5b85356001600160401b0380821115612af9578283fd5b612b0589838a016126b5565b96506020880135915080821115612b1a578283fd5b612b2689838a016126b5565b95506040880135915080821115612b3b578283fd5b50612b48888289016126b5565b9598949750949560608101359550608001359392505050565b60008060008060808587031215612b76578384fd5b84356001600160401b0380821115612b8c578586fd5b612b98888389016126b5565b95506020870135915080821115612bad578485fd5b50612bba878288016126b5565b949794965050505060408301359260600135919050565b600080600060608486031215612be5578081fd5b83356001600160401b03811115612bfa578182fd5b612c06868287016126b5565b9660208601359650604090950135949350505050565b600060208284031215612c2d578081fd5b5035919050565b60008060408385031215612c46578182fd5b823591506127b56020840161261c565b60008060408385031215612c68578182fd5b8235915060208301356001600160401b03811115612c84578182fd5b612814858286016126b5565b60008060408385031215612ca2578182fd5b50508035926020909101359150565b60008151808452815b81811015612cd657602081850181015186830182015201612cba565b81811115612ce75782602083870101525b50601f01601f19169290920160200192915050565b6020808252825182820181905260009190848201906040850190845b81811015612d3d5783516001600160a01b031683529284019291840191600101612d18565b50909695505050505050565b6000602080830181845280855180835260408601915060408160051b8701019250838701855b82811015612d9d57603f19888603018452612d8b858351612cb1565b94509285019290850190600101612d6f565b5092979650505050505050565b6020815260006104716020830184612cb1565b604081526000612dd06040830185612cb1565b905060018060a01b03831660208301529392505050565b606081526000612dfa6060830186612cb1565b8281036020840152612e0c8186612cb1565b91505060018060a01b0383166040830152949350505050565b608081526000612e386080830187612cb1565b8281036020840152612e4a8187612cb1565b90508281036040840152612e5e8186612cb1565b91505060018060a01b038316606083015295945050505050565b60a081526000612e8b60a0830188612cb1565b8281036020840152612e9d8188612cb1565b90508281036040840152612eb18187612cb1565b90508281036060840152612ec58186612cb1565b91505060018060a01b03831660808301529695505050505050565b602080825260129082015271195c9c8b5c1c9bda8b5b9bdd0b595e1a5cdd60721b604082015260600190565b60208082526010908201526f195c9c8b5b985b594b58db185a5b595960821b604082015260600190565b6020808252600e908201526d6572722d656d7074792d6d65746160901b604082015260600190565b6020808252600e908201526d6572722d656d7074792d6e616d6560901b604082015260600190565b602080825260159082015274195c9c8b5c995b19585cd94b5b9bdd0b595e1a5cdd605a1b604082015260600190565b6020808252600f908201526e32b93916ba32b0b696b6b2b6b132b960891b604082015260600190565b604051601f8201601f191681016001600160401b0381118282101715613006576130066130c8565b604052919050565b60008219821115613021576130216130b2565b500190565b6000816000190483118215151615613040576130406130b2565b500290565b600082821015613057576130576130b2565b500390565b600181811c9082168061307057607f821691505b6020821081141561309157634e487b7160e01b600052602260045260246000fd5b50919050565b60006000198214156130ab576130ab6130b2565b5060010190565b634e487b7160e01b600052601160045260246000fd5b634e487b7160e01b600052604160045260246000fdfea2646970667358221220c801e455e951c55f0506a0b8d464fe8fcd413522b8dada06c618989ebd099f0d64736f6c63430008040033",
  "linkReferences": {},
  "deployedLinkReferences": {}
}