{
  "_format": "hh-sol-artifact-1",
  "contractName": "Valist",
  "sourceName": "contracts/Valist.sol",
  "abi": [
    {
      "inputs": [
        {
          "internalType": "address",
          "name": "_trustedForwarder",
          "type": "address"
        }
      ],
      "stateMutability": "nonpayable",
      "type": "constructor"
    },
    {
      "anonymous": false,
      "inputs": [
        {
          "indexed": false,
          "internalType": "string",
          "name": "_teamName",
          "type": "string"
        },
        {
          "indexed": false,
          "internalType": "string",
          "name": "_projectName",
          "type": "string"
        },
        {
          "indexed": false,
          "internalType": "string",
          "name": "_metaURI",
          "type": "string"
        },
        {
          "indexed": false,
          "internalType": "address",
          "name": "_member",
          "type": "address"
        }
      ],
      "name": "ProjectCreated",
      "type": "event"
    },
    {
      "anonymous": false,
      "inputs": [
        {
          "indexed": false,
          "internalType": "string",
          "name": "_teamName",
          "type": "string"
        },
        {
          "indexed": false,
          "internalType": "string",
          "name": "_projectName",
          "type": "string"
        },
        {
          "indexed": false,
          "internalType": "address",
          "name": "_member",
          "type": "address"
        }
      ],
      "name": "ProjectMemberAdded",
      "type": "event"
    },
    {
      "anonymous": false,
      "inputs": [
        {
          "indexed": false,
          "internalType": "string",
          "name": "_teamName",
          "type": "string"
        },
        {
          "indexed": false,
          "internalType": "string",
          "name": "_projectName",
          "type": "string"
        },
        {
          "indexed": false,
          "internalType": "address",
          "name": "_member",
          "type": "address"
        }
      ],
      "name": "ProjectMemberRemoved",
      "type": "event"
    },
    {
      "anonymous": false,
      "inputs": [
        {
          "indexed": false,
          "internalType": "string",
          "name": "_teamName",
          "type": "string"
        },
        {
          "indexed": false,
          "internalType": "string",
          "name": "_projectName",
          "type": "string"
        },
        {
          "indexed": false,
          "internalType": "string",
          "name": "_metaURI",
          "type": "string"
        },
        {
          "indexed": false,
          "internalType": "address",
          "name": "_member",
          "type": "address"
        }
      ],
      "name": "ProjectUpdated",
      "type": "event"
    },
    {
      "anonymous": false,
      "inputs": [
        {
          "indexed": false,
          "internalType": "string",
          "name": "_teamName",
          "type": "string"
        },
        {
          "indexed": false,
          "internalType": "string",
          "name": "_projectName",
          "type": "string"
        },
        {
          "indexed": false,
          "internalType": "string",
          "name": "_releaseName",
          "type": "string"
        },
        {
          "indexed": false,
          "internalType": "address",
          "name": "_sender",
          "type": "address"
        }
      ],
      "name": "ReleaseApproved",
      "type": "event"
    },
    {
      "anonymous": false,
      "inputs": [
        {
          "indexed": false,
          "internalType": "string",
          "name": "_teamName",
          "type": "string"
        },
        {
          "indexed": false,
          "internalType": "string",
          "name": "_projectName",
          "type": "string"
        },
        {
          "indexed": false,
          "internalType": "string",
          "name": "_releaseName",
          "type": "string"
        },
        {
          "indexed": false,
          "internalType": "string",
          "name": "_metaURI",
          "type": "string"
        },
        {
          "indexed": false,
          "internalType": "address",
          "name": "_member",
          "type": "address"
        }
      ],
      "name": "ReleaseCreated",
      "type": "event"
    },
    {
      "anonymous": false,
      "inputs": [
        {
          "indexed": false,
          "internalType": "string",
          "name": "_teamName",
          "type": "string"
        },
        {
          "indexed": false,
          "internalType": "string",
          "name": "_projectName",
          "type": "string"
        },
        {
          "indexed": false,
          "internalType": "string",
          "name": "_releaseName",
          "type": "string"
        },
        {
          "indexed": false,
          "internalType": "address",
          "name": "_sender",
          "type": "address"
        }
      ],
      "name": "ReleaseRejected",
      "type": "event"
    },
    {
      "anonymous": false,
      "inputs": [
        {
          "indexed": false,
          "internalType": "string",
          "name": "_teamName",
          "type": "string"
        },
        {
          "indexed": false,
          "internalType": "string",
          "name": "_metaURI",
          "type": "string"
        },
        {
          "indexed": false,
          "internalType": "address",
          "name": "_sender",
          "type": "address"
        }
      ],
      "name": "TeamCreated",
      "type": "event"
    },
    {
      "anonymous": false,
      "inputs": [
        {
          "indexed": false,
          "internalType": "string",
          "name": "_teamName",
          "type": "string"
        },
        {
          "indexed": false,
          "internalType": "address",
          "name": "_member",
          "type": "address"
        }
      ],
      "name": "TeamMemberAdded",
      "type": "event"
    },
    {
      "anonymous": false,
      "inputs": [
        {
          "indexed": false,
          "internalType": "string",
          "name": "_teamName",
          "type": "string"
        },
        {
          "indexed": false,
          "internalType": "address",
          "name": "_member",
          "type": "address"
        }
      ],
      "name": "TeamMemberRemoved",
      "type": "event"
    },
    {
      "anonymous": false,
      "inputs": [
        {
          "indexed": false,
          "internalType": "string",
          "name": "_teamName",
          "type": "string"
        },
        {
          "indexed": false,
          "internalType": "string",
          "name": "_metaURI",
          "type": "string"
        },
        {
          "indexed": false,
          "internalType": "address",
          "name": "_member",
          "type": "address"
        }
      ],
      "name": "TeamUpdated",
      "type": "event"
    },
    {
      "inputs": [
        {
          "internalType": "string",
          "name": "_teamName",
          "type": "string"
        },
        {
          "internalType": "string",
          "name": "_projectName",
          "type": "string"
        },
        {
          "internalType": "address",
          "name": "_address",
          "type": "address"
        }
      ],
      "name": "addProjectMember",
      "outputs": [],
      "stateMutability": "nonpayable",
      "type": "function"
    },
    {
      "inputs": [
        {
          "internalType": "string",
          "name": "_teamName",
          "type": "string"
        },
        {
          "internalType": "address",
          "name": "_address",
          "type": "address"
        }
      ],
      "name": "addTeamMember",
      "outputs": [],
      "stateMutability": "nonpayable",
      "type": "function"
    },
    {
      "inputs": [
        {
          "internalType": "string",
          "name": "_teamName",
          "type": "string"
        },
        {
          "internalType": "string",
          "name": "_projectName",
          "type": "string"
        },
        {
          "internalType": "string",
          "name": "_releaseName",
          "type": "string"
        }
      ],
      "name": "approveRelease",
      "outputs": [],
      "stateMutability": "nonpayable",
      "type": "function"
    },
    {
      "inputs": [
        {
          "internalType": "string",
          "name": "_teamName",
          "type": "string"
        },
        {
          "internalType": "string",
          "name": "_projectName",
          "type": "string"
        },
        {
          "internalType": "string",
          "name": "_metaURI",
          "type": "string"
        },
        {
          "internalType": "address[]",
          "name": "_members",
          "type": "address[]"
        }
      ],
      "name": "createProject",
      "outputs": [],
      "stateMutability": "nonpayable",
      "type": "function"
    },
    {
      "inputs": [
        {
          "internalType": "string",
          "name": "_teamName",
          "type": "string"
        },
        {
          "internalType": "string",
          "name": "_projectName",
          "type": "string"
        },
        {
          "internalType": "string",
          "name": "_releaseName",
          "type": "string"
        },
        {
          "internalType": "string",
          "name": "_metaURI",
          "type": "string"
        }
      ],
      "name": "createRelease",
      "outputs": [],
      "stateMutability": "nonpayable",
      "type": "function"
    },
    {
      "inputs": [
        {
          "internalType": "string",
          "name": "_teamName",
          "type": "string"
        },
        {
          "internalType": "string",
          "name": "_metaURI",
          "type": "string"
        },
        {
          "internalType": "address[]",
          "name": "_members",
          "type": "address[]"
        }
      ],
      "name": "createTeam",
      "outputs": [],
      "stateMutability": "nonpayable",
      "type": "function"
    },
    {
      "inputs": [
        {
          "internalType": "string",
          "name": "_teamName",
          "type": "string"
        },
        {
          "internalType": "string",
          "name": "_projectName",
          "type": "string"
        }
      ],
      "name": "getLatestReleaseName",
      "outputs": [
        {
          "internalType": "string",
          "name": "",
          "type": "string"
        }
      ],
      "stateMutability": "view",
      "type": "function"
    },
    {
      "inputs": [
        {
          "internalType": "string",
          "name": "_teamName",
          "type": "string"
        },
        {
          "internalType": "string",
          "name": "_projectName",
          "type": "string"
        },
        {
          "internalType": "uint256",
          "name": "_page",
          "type": "uint256"
        },
        {
          "internalType": "uint256",
          "name": "_size",
          "type": "uint256"
        }
      ],
      "name": "getProjectMembers",
      "outputs": [
        {
          "internalType": "address[]",
          "name": "",
          "type": "address[]"
        }
      ],
      "stateMutability": "view",
      "type": "function"
    },
    {
      "inputs": [
        {
          "internalType": "string",
          "name": "_teamName",
          "type": "string"
        },
        {
          "internalType": "string",
          "name": "_projectName",
          "type": "string"
        }
      ],
      "name": "getProjectMetaURI",
      "outputs": [
        {
          "internalType": "string",
          "name": "",
          "type": "string"
        }
      ],
      "stateMutability": "view",
      "type": "function"
    },
    {
      "inputs": [
        {
          "internalType": "string",
          "name": "_teamName",
          "type": "string"
        },
        {
          "internalType": "uint256",
          "name": "_page",
          "type": "uint256"
        },
        {
          "internalType": "uint256",
          "name": "_size",
          "type": "uint256"
        }
      ],
      "name": "getProjectNames",
      "outputs": [
        {
          "internalType": "string[]",
          "name": "",
          "type": "string[]"
        }
      ],
      "stateMutability": "view",
      "type": "function"
    },
    {
      "inputs": [
        {
          "internalType": "string",
          "name": "_teamName",
          "type": "string"
        },
        {
          "internalType": "string",
          "name": "_projectName",
          "type": "string"
        },
        {
          "internalType": "string",
          "name": "_releaseName",
          "type": "string"
        },
        {
          "internalType": "uint256",
          "name": "_page",
          "type": "uint256"
        },
        {
          "internalType": "uint256",
          "name": "_size",
          "type": "uint256"
        }
      ],
      "name": "getReleaseApprovers",
      "outputs": [
        {
          "internalType": "address[]",
          "name": "",
          "type": "address[]"
        }
      ],
      "stateMutability": "view",
      "type": "function"
    },
    {
      "inputs": [
        {
          "internalType": "string",
          "name": "_teamName",
          "type": "string"
        },
        {
          "internalType": "string",
          "name": "_projectName",
          "type": "string"
        },
        {
          "internalType": "string",
          "name": "_releaseName",
          "type": "string"
        }
      ],
      "name": "getReleaseMetaURI",
      "outputs": [
        {
          "internalType": "string",
          "name": "",
          "type": "string"
        }
      ],
      "stateMutability": "view",
      "type": "function"
    },
    {
      "inputs": [
        {
          "internalType": "string",
          "name": "_teamName",
          "type": "string"
        },
        {
          "internalType": "string",
          "name": "_projectName",
          "type": "string"
        },
        {
          "internalType": "uint256",
          "name": "_page",
          "type": "uint256"
        },
        {
          "internalType": "uint256",
          "name": "_size",
          "type": "uint256"
        }
      ],
      "name": "getReleaseNames",
      "outputs": [
        {
          "internalType": "string[]",
          "name": "",
          "type": "string[]"
        }
      ],
      "stateMutability": "view",
      "type": "function"
    },
    {
      "inputs": [
        {
          "internalType": "string",
          "name": "_teamName",
          "type": "string"
        },
        {
          "internalType": "string",
          "name": "_projectName",
          "type": "string"
        },
        {
          "internalType": "string",
          "name": "_releaseName",
          "type": "string"
        },
        {
          "internalType": "uint256",
          "name": "_page",
          "type": "uint256"
        },
        {
          "internalType": "uint256",
          "name": "_size",
          "type": "uint256"
        }
      ],
      "name": "getReleaseRejectors",
      "outputs": [
        {
          "internalType": "address[]",
          "name": "",
          "type": "address[]"
        }
      ],
      "stateMutability": "view",
      "type": "function"
    },
    {
      "inputs": [
        {
          "internalType": "string",
          "name": "_teamName",
          "type": "string"
        },
        {
          "internalType": "uint256",
          "name": "_page",
          "type": "uint256"
        },
        {
          "internalType": "uint256",
          "name": "_size",
          "type": "uint256"
        }
      ],
      "name": "getTeamMembers",
      "outputs": [
        {
          "internalType": "address[]",
          "name": "",
          "type": "address[]"
        }
      ],
      "stateMutability": "view",
      "type": "function"
    },
    {
      "inputs": [
        {
          "internalType": "string",
          "name": "_teamName",
          "type": "string"
        }
      ],
      "name": "getTeamMetaURI",
      "outputs": [
        {
          "internalType": "string",
          "name": "",
          "type": "string"
        }
      ],
      "stateMutability": "view",
      "type": "function"
    },
    {
      "inputs": [
        {
          "internalType": "uint256",
          "name": "_page",
          "type": "uint256"
        },
        {
          "internalType": "uint256",
          "name": "_size",
          "type": "uint256"
        }
      ],
      "name": "getTeamNames",
      "outputs": [
        {
          "internalType": "string[]",
          "name": "",
          "type": "string[]"
        }
      ],
      "stateMutability": "view",
      "type": "function"
    },
    {
      "inputs": [
        {
          "internalType": "address",
          "name": "forwarder",
          "type": "address"
        }
      ],
      "name": "isTrustedForwarder",
      "outputs": [
        {
          "internalType": "bool",
          "name": "",
          "type": "bool"
        }
      ],
      "stateMutability": "view",
      "type": "function"
    },
    {
      "inputs": [
        {
          "internalType": "string",
          "name": "_teamName",
          "type": "string"
        },
        {
          "internalType": "string",
          "name": "_projectName",
          "type": "string"
        },
        {
          "internalType": "string",
          "name": "_releaseName",
          "type": "string"
        }
      ],
      "name": "rejectRelease",
      "outputs": [],
      "stateMutability": "nonpayable",
      "type": "function"
    },
    {
      "inputs": [
        {
          "internalType": "string",
          "name": "_teamName",
          "type": "string"
        },
        {
          "internalType": "string",
          "name": "_projectName",
          "type": "string"
        },
        {
          "internalType": "address",
          "name": "_address",
          "type": "address"
        }
      ],
      "name": "removeProjectMember",
      "outputs": [],
      "stateMutability": "nonpayable",
      "type": "function"
    },
    {
      "inputs": [
        {
          "internalType": "string",
          "name": "_teamName",
          "type": "string"
        },
        {
          "internalType": "address",
          "name": "_address",
          "type": "address"
        }
      ],
      "name": "removeTeamMember",
      "outputs": [],
      "stateMutability": "nonpayable",
      "type": "function"
    },
    {
      "inputs": [
        {
          "internalType": "string",
          "name": "_teamName",
          "type": "string"
        },
        {
          "internalType": "string",
          "name": "_projectName",
          "type": "string"
        },
        {
          "internalType": "string",
          "name": "_metaURI",
          "type": "string"
        }
      ],
      "name": "setProjectMetaURI",
      "outputs": [],
      "stateMutability": "nonpayable",
      "type": "function"
    },
    {
      "inputs": [
        {
          "internalType": "string",
          "name": "_teamName",
          "type": "string"
        },
        {
          "internalType": "string",
          "name": "_metaURI",
          "type": "string"
        }
      ],
      "name": "setTeamMetaURI",
      "outputs": [],
      "stateMutability": "nonpayable",
      "type": "function"
    },
    {
      "inputs": [],
      "name": "versionRecipient",
      "outputs": [
        {
          "internalType": "string",
          "name": "",
          "type": "string"
        }
      ],
      "stateMutability": "view",
      "type": "function"
    }
  ],
  "bytecode": "0x60c060405260056080819052640322e322e360dc1b60a09081526200002891600691906200007f565b503480156200003657600080fd5b50604051620035a8380380620035a8833981016040819052620000599162000125565b600080546001600160a01b0319166001600160a01b039290921691909117905562000192565b8280546200008d9062000155565b90600052602060002090601f016020900481019282620000b15760008555620000fc565b82601f10620000cc57805160ff1916838001178555620000fc565b82800160010185558215620000fc579182015b82811115620000fc578251825591602001919060010190620000df565b506200010a9291506200010e565b5090565b5b808211156200010a57600081556001016200010f565b60006020828403121562000137578081fd5b81516001600160a01b03811681146200014e578182fd5b9392505050565b600181811c908216806200016a57607f821691505b602082108114156200018c57634e487b7160e01b600052602260045260246000fd5b50919050565b61340680620001a26000396000f3fe608060405234801561001057600080fd5b50600436106101585760003560e01c80635c537096116100c3578063a6a54ec51161007c578063a6a54ec5146102f9578063b1a5042b1461030c578063b1bc8c8d1461031f578063baffd3da14610332578063cfc5efac14610345578063ecb0a33d1461035857600080fd5b80635c537096146102875780635f36788e1461029a57806381ded150146102ad57806383dfd03e146102c05780639e97c317146102d35780639fe1fb72146102e657600080fd5b8063486ff0cd11610115578063486ff0cd146101f45780634ce72c75146101fc5780634eec58a31461020f5780634ff3ec601461022f57806351de13bf14610242578063572b6c051461025557600080fd5b80630716dfa01461015d57806311bc1ce014610172578063172898181461018557806325ca6b03146101ae5780632aa2fd64146101c157806347566e4f146101d4575b600080fd5b61017061016b366004612d97565b61036b565b005b610170610180366004612c77565b61058c565b610198610193366004612e32565b6106e8565b6040516101a59190612fee565b60405180910390f35b6101706101bc366004612c77565b6108c7565b6101706101cf366004612b84565b610a32565b6101e76101e2366004612b24565b610bb0565b6040516101a5919061309c565b6101e7610d1a565b61019861020a366004612ec7565b610da8565b61022261021d366004612f82565b610f4f565b6040516101a5919061303b565b61017061023d366004612cf0565b6110f3565b610170610250366004612b24565b6112eb565b610277610263366004612a85565b6000546001600160a01b0391821691161490565b60405190151581526020016101a5565b610170610295366004612b84565b61144e565b6101706102a8366004612bf4565b6115d4565b6101706102bb366004612ad9565b6117ec565b6102226102ce366004612ec7565b611900565b6101e76102e1366004612c77565b611b28565b6101e76102f4366004612a9f565b611c9a565b610222610307366004612f37565b611dd8565b6101e761031a366004612b24565b611fe2565b61019861032d366004612e32565b61212d565b610170610340366004612c77565b6122f3565b610198610353366004612f37565b61242f565b610170610366366004612ad9565b61259e565b6000468580519060200120604051602001610390929190918252602082015260400190565b60408051808303601f19018152828252805160209182012087518883012091840181905291830152915060009060600160408051808303601f1901815282825280516020918201208751888301209184018190529183015291506000906060016040516020818303038152906040528051906020012060001c905061042d6104166126ba565b6000848152600360205260409020600101906126e0565b6104705760405162461bcd60e51b815260206004820152600f60248201526e32b93916b83937b516b6b2b6b132b960891b60448201526064015b60405180910390fd5b600081815260056020526040902080546104899061334e565b1590506104a85760405162461bcd60e51b8152600401610467906131fe565b60008451116104c95760405162461bcd60e51b815260040161046790613228565b60008551116104ea5760405162461bcd60e51b815260040161046790613250565b60008181526005602090815260409091208551610509928701906128e9565b5060008281526003602090815260408220805460018101825590835291819020875161053c9391909101918801906128e9565b507f15fb1d214ed195f7210e450a416a0640362c37a0a2d2d0ab63481f967aae0e008787878761056a6126ba565b60405161057b95949392919061316a565b60405180910390a150505050505050565b60004684805190602001206040516020016105b1929190918252602082015260400190565b60408051601f198184030181528282528051602091820120865187830120828501829052848401528251808503840181526060850184528051908301208651878401206080860182905260a0808701919091528451808703909101815260c090950184528451948301949094206000818152600590935292822080549195509061063a9061334e565b9050116106595760405162461bcd60e51b815260040161046790613278565b6106786106646126ba565b600083815260046020526040902090612705565b5061069b6106846126ba565b60008381526004602052604090206002019061271a565b507fa70c9d49a7ef09401d07a7aad126689c097b80db50504ce9ba5ca8b6f6477fb88686866106c86126ba565b6040516106d89493929190613117565b60405180910390a1505050505050565b6060600046878051906020012060405160200161070f929190918252602082015260400190565b60408051808303601f19018152828252805160209182012089518a83012091840181905291830152915060009060600160408051808303601f19018152828252805160209182012089518a83012091840181905291830152915060009060600160408051601f198184030181529190528051602090910120905060006107958688613318565b905060006107a38783613300565b60008481526004602052604090209091506107c09060020161272f565b8111156107e45760008381526004602052604090206107e19060020161272f565b90505b60006107f08383613337565b6001600160401b0381111561081557634e487b7160e01b600052604160045260246000fd5b60405190808252806020026020018201604052801561083e578160200160208202803683370190505b509050825b828110156108b75760008581526004602052604090206108669060020182612739565b826108718684613337565b8151811061088f57634e487b7160e01b600052603260045260246000fd5b6001600160a01b03909216602092830291909101909101526108b081613389565b9050610843565b509b9a5050505050505050505050565b60004684805190602001206040516020016108ec929190918252602082015260400190565b60408051601f198184030181528282528051602091820120865187830120828501829052848401528251808503840181526060909401909252825192019190912090915061095261093b6126ba565b6000848152600260205260409020600101906126e0565b61096e5760405162461bcd60e51b8152600401610467906132a7565b600081815260056020526040812080546109879061334e565b9050116109a65760405162461bcd60e51b8152600401610467906131d2565b60008351116109c75760405162461bcd60e51b815260040161046790613228565b600081815260056020908152604090912084516109e6928601906128e9565b507fd837747757bf732c911148d7c5825d52de171f849e76143eec98fa514e263c8a858585610a136126ba565b604051610a239493929190613117565b60405180910390a15050505050565b6000468480519060200120604051602001610a57929190918252602082015260400190565b60408051808303601f19018152828252805160209182012086518783012091840181905291830152915060009060600160408051601f19818403018152918152815160209283012060008181526005909352908220805491935090610abb9061334e565b905011610ada5760405162461bcd60e51b8152600401610467906131d2565b610ae561093b6126ba565b1515600114610b065760405162461bcd60e51b8152600401610467906132a7565b6000818152600360205260409020610b2190600101846126e0565b15610b615760405162461bcd60e51b815260206004820152601060248201526f195c9c8b5b595b58995c8b595e1a5cdd60821b6044820152606401610467565b6000818152600360205260409020610b7c9060010184612705565b507f8eb5dc57e01da32e2b98214d39ebdd82cd801d261855d5f84b868b5f140a2980858585604051610a23939291906130d9565b60606000468480519060200120604051602001610bd7929190918252602082015260400190565b60408051808303601f19018152828252805160209182012086518783012091840181905291830152915060009060600160408051601f198184030181529181528151602092830120600081815260039093529120805491925090610c4d5760405162461bcd60e51b8152600401610467906131d2565b80548190610c5d90600190613337565b81548110610c7b57634e487b7160e01b600052603260045260246000fd5b906000526020600020018054610c909061334e565b80601f0160208091040260200160405190810160405280929190818152602001828054610cbc9061334e565b8015610d095780601f10610cde57610100808354040283529160200191610d09565b820191906000526020600020905b815481529060010190602001808311610cec57829003601f168201915b505050505093505050505b92915050565b60068054610d279061334e565b80601f0160208091040260200160405190810160405280929190818152602001828054610d539061334e565b8015610da05780601f10610d7557610100808354040283529160200191610da0565b820191906000526020600020905b815481529060010190602001808311610d8357829003601f168201915b505050505081565b60606000468680519060200120604051602001610dcf929190918252602082015260400190565b60408051601f19818403018152828252805160209182012088518983012082850182905284840152825180850384018152606090940190925282519201919091209091506000610e1f8587613318565b90506000610e2d8683613300565b6000848152600360205260409020909150610e4a9060010161272f565b811115610e6e576000838152600360205260409020610e6b9060010161272f565b90505b6000610e7a8383613337565b6001600160401b03811115610e9f57634e487b7160e01b600052604160045260246000fd5b604051908082528060200260200182016040528015610ec8578160200160208202803683370190505b509050825b82811015610f41576000858152600360205260409020610ef09060010182612739565b82610efb8684613337565b81518110610f1957634e487b7160e01b600052603260045260246000fd5b6001600160a01b0390921660209283029190910190910152610f3a81613389565b9050610ecd565b509998505050505050505050565b60606000610f5d8385613318565b90506000610f6b8483613300565b600154909150811115610f7d57506001545b6000610f898383613337565b6001600160401b03811115610fae57634e487b7160e01b600052604160045260246000fd5b604051908082528060200260200182016040528015610fe157816020015b6060815260200190600190039081610fcc5790505b509050825b828110156110e9576001818154811061100f57634e487b7160e01b600052603260045260246000fd5b9060005260206000200180546110249061334e565b80601f01602080910402602001604051908101604052809291908181526020018280546110509061334e565b801561109d5780601f106110725761010080835404028352916020019161109d565b820191906000526020600020905b81548152906001019060200180831161108057829003601f168201915b50505050508285836110af9190613337565b815181106110cd57634e487b7160e01b600052603260045260246000fd5b6020026020010181905250806110e290613389565b9050610fe6565b5095945050505050565b6000468580519060200120604051602001611118929190918252602082015260400190565b60408051601f198184030181528282528051602091820120875188830120828501829052848401528251808503840181526060909401909252825192019190912090915061116761093b6126ba565b6111835760405162461bcd60e51b8152600401610467906132a7565b6000818152600560205260409020805461119c9061334e565b1590506111bb5760405162461bcd60e51b8152600401610467906131fe565b60008451116111dc5760405162461bcd60e51b815260040161046790613228565b60008551116111fd5760405162461bcd60e51b815260040161046790613250565b6000818152600560209081526040909120855161121c928701906128e9565b5060008281526002602090815260408220805460018101825590835291819020875161124f9391909101918801906128e9565b5060005b83518110156112be576112ab84828151811061127f57634e487b7160e01b600052603260045260246000fd5b60200260200101516003600085815260200190815260200160002060010161270590919063ffffffff16565b50806112b681613389565b915050611253565b507f11f7f07de1d35c43b47edd8a19e7f8208259cdf66344de81856c5bb7c798db268686866106c86126ba565b6000468380519060200120604051602001611310929190918252602082015260400190565b6040516020818303038152906040528051906020012060001c905061134d6113366126ba565b6000838152600260205260409020600101906126e0565b6113695760405162461bcd60e51b8152600401610467906132a7565b600081815260056020526040812080546113829061334e565b9050116113c65760405162461bcd60e51b8152602060048201526012602482015271195c9c8b5d19585b4b5b9bdd0b595e1a5cdd60721b6044820152606401610467565b60008251116113e75760405162461bcd60e51b815260040161046790613228565b60008181526005602090815260409091208351611406928501906128e9565b507f337efabade1b5802f3a562a44eb0b3222d30ad7717e865d76f4db7ecbea56e8083836114326126ba565b604051611441939291906130d9565b60405180910390a1505050565b6000468480519060200120604051602001611473929190918252602082015260400190565b60408051808303601f19018152828252805160209182012086518783012091840181905291830152915060009060600160408051601f198184030181529181528151602092830120600081815260059093529082208054919350906114d79061334e565b9050116114f65760405162461bcd60e51b8152600401610467906131d2565b61150161093b6126ba565b15156001146115225760405162461bcd60e51b8152600401610467906132a7565b600081815260036020526040902061153d90600101846126e0565b15156001146115855760405162461bcd60e51b8152602060048201526014602482015273195c9c8b5b595b58995c8b5b9bdd0b595e1a5cdd60621b6044820152606401610467565b60008181526003602052604090206115a0906001018461271a565b507f7bd4fdf0f1872366f33f1732f765696c1ec3ddccaa8c1f72095b58d8f411fa93858585604051610a23939291906130d9565b60004684805190602001206040516020016115f9929190918252602082015260400190565b60408051601f19818403018152918152815160209283012060008181526005909352912080549192509061162c9061334e565b15905061164b5760405162461bcd60e51b8152600401610467906131fe565b600083511161166c5760405162461bcd60e51b815260040161046790613228565b600084511161168d5760405162461bcd60e51b815260040161046790613250565b60008251116116d25760405162461bcd60e51b81526020600482015260116024820152706572722d656d7074792d6d656d6265727360781b6044820152606401610467565b600081815260056020908152604090912084516116f1928601906128e9565b506001805480820182556000919091528451611734917fb10e2d527612073b26eecdfd717e6a320cf44b4afac2b0732d9fcbe2b7fa0cf6019060208701906128e9565b5060005b82518110156117a35761179083828151811061176457634e487b7160e01b600052603260045260246000fd5b60200260200101516002600085815260200190815260200160002060010161270590919063ffffffff16565b508061179b81613389565b915050611738565b507f234eb9d37ed58b55e52e99246bb2b0cebb55311292e5d3de44a6df95a9af250184846117cf6126ba565b6040516117de939291906130d9565b60405180910390a150505050565b6000468380519060200120604051602001611811929190918252602082015260400190565b6040516020818303038152906040528051906020012060001c90506118376113366126ba565b15156001146118585760405162461bcd60e51b8152600401610467906132a7565b600081815260026020526040902061187390600101836126e0565b156118b35760405162461bcd60e51b815260206004820152601060248201526f195c9c8b5b595b58995c8b595e1a5cdd60821b6044820152606401610467565b60008181526002602052604090206118ce9060010183612705565b507fb1ce9c84087af16e758e7041eec971f57c833f4127f64f742c5b0ee14e0537d283836040516114419291906130af565b60606000468680519060200120604051602001611927929190918252602082015260400190565b60408051601f198184030181528282528051602091820120885189830120828501829052848401528251808503840181526060909401909252825192019190912090915060006119778587613318565b905060006119858683613300565b6000848152600360205260409020549091508111156119af57506000828152600360205260409020545b60006119bb8383613337565b6001600160401b038111156119e057634e487b7160e01b600052604160045260246000fd5b604051908082528060200260200182016040528015611a1357816020015b60608152602001906001900390816119fe5790505b509050825b82811015610f41576000858152600360205260409020805482908110611a4e57634e487b7160e01b600052603260045260246000fd5b906000526020600020018054611a639061334e565b80601f0160208091040260200160405190810160405280929190818152602001828054611a8f9061334e565b8015611adc5780601f10611ab157610100808354040283529160200191611adc565b820191906000526020600020905b815481529060010190602001808311611abf57829003601f168201915b5050505050828583611aee9190613337565b81518110611b0c57634e487b7160e01b600052603260045260246000fd5b602002602001018190525080611b2190613389565b9050611a18565b60606000468580519060200120604051602001611b4f929190918252602082015260400190565b60408051601f198184030181528282528051602091820120875188830120828501829052848401528251808503840181526060850184528051908301208751888401206080860182905260a0808701919091528451808703909101815260c0909501845284519483019490942060008181526005909352928220805491955090611bd89061334e565b905011611bf75760405162461bcd60e51b815260040161046790613278565b60008181526005602052604090208054611c109061334e565b80601f0160208091040260200160405190810160405280929190818152602001828054611c3c9061334e565b8015611c895780601f10611c5e57610100808354040283529160200191611c89565b820191906000526020600020905b815481529060010190602001808311611c6c57829003601f168201915b505050505093505050509392505050565b60606000468380519060200120604051602001611cc1929190918252602082015260400190565b60408051601f19818403018152918152815160209283012060008181526005909352908220805491935090611cf59061334e565b905011611d395760405162461bcd60e51b8152602060048201526012602482015271195c9c8b5d19585b4b5b9bdd0b595e1a5cdd60721b6044820152606401610467565b60008181526005602052604090208054611d529061334e565b80601f0160208091040260200160405190810160405280929190818152602001828054611d7e9061334e565b8015611dcb5780601f10611da057610100808354040283529160200191611dcb565b820191906000526020600020905b815481529060010190602001808311611dae57829003601f168201915b5050505050915050919050565b60606000468580519060200120604051602001611dff929190918252602082015260400190565b60408051601f19818403018152919052805160209091012090506000611e258486613318565b90506000611e338583613300565b600084815260026020526040902054909150811115611e5d57506000828152600260205260409020545b6000611e698383613337565b6001600160401b03811115611e8e57634e487b7160e01b600052604160045260246000fd5b604051908082528060200260200182016040528015611ec157816020015b6060815260200190600190039081611eac5790505b509050825b82811015611fd6576000858152600260205260409020805482908110611efc57634e487b7160e01b600052603260045260246000fd5b906000526020600020018054611f119061334e565b80601f0160208091040260200160405190810160405280929190818152602001828054611f3d9061334e565b8015611f8a5780601f10611f5f57610100808354040283529160200191611f8a565b820191906000526020600020905b815481529060010190602001808311611f6d57829003601f168201915b5050505050828583611f9c9190613337565b81518110611fba57634e487b7160e01b600052603260045260246000fd5b602002602001018190525080611fcf90613389565b9050611ec6565b50979650505050505050565b60606000468480519060200120604051602001612009929190918252602082015260400190565b60408051808303601f19018152828252805160209182012086518783012091840181905291830152915060009060600160408051601f1981840301815291815281516020928301206000818152600590935290822080549193509061206d9061334e565b90501161208c5760405162461bcd60e51b8152600401610467906131d2565b600081815260056020526040902080546120a59061334e565b80601f01602080910402602001604051908101604052809291908181526020018280546120d19061334e565b801561211e5780601f106120f35761010080835404028352916020019161211e565b820191906000526020600020905b81548152906001019060200180831161210157829003601f168201915b50505050509250505092915050565b60606000468780519060200120604051602001612154929190918252602082015260400190565b60408051808303601f19018152828252805160209182012089518a83012091840181905291830152915060009060600160408051808303601f19018152828252805160209182012089518a83012091840181905291830152915060009060600160408051601f198184030181529190528051602090910120905060006121da8688613318565b905060006121e88783613300565b60008481526004602052604090209091506122029061272f565b8111156122235760008381526004602052604090206122209061272f565b90505b600061222f8383613337565b6001600160401b0381111561225457634e487b7160e01b600052604160045260246000fd5b60405190808252806020026020018201604052801561227d578160200160208202803683370190505b509050825b828110156108b75760008581526004602052604090206122a29082612739565b826122ad8684613337565b815181106122cb57634e487b7160e01b600052603260045260246000fd5b6001600160a01b03909216602092830291909101909101526122ec81613389565b9050612282565b6000468480519060200120604051602001612318929190918252602082015260400190565b60408051601f198184030181528282528051602091820120865187830120828501829052848401528251808503840181526060850184528051908301208651878401206080860182905260a0808701919091528451808703909101815260c09095018452845194830194909420600081815260059093529282208054919550906123a19061334e565b9050116123c05760405162461bcd60e51b815260040161046790613278565b6123e26123cb6126ba565b600083815260046020526040902060020190612705565b506124026123ee6126ba565b60008381526004602052604090209061271a565b507f30ca79684c561b1b6fbda88d9779021eb510471ea1df05c10dc39c46d6ed94eb8686866106c86126ba565b60606000468580519060200120604051602001612456929190918252602082015260400190565b60408051601f1981840301815291905280516020909101209050600061247c8486613318565b9050600061248a8583613300565b60008481526002602052604090209091506124a79060010161272f565b8111156124cb5760008381526002602052604090206124c89060010161272f565b90505b60006124d78383613337565b6001600160401b038111156124fc57634e487b7160e01b600052604160045260246000fd5b604051908082528060200260200182016040528015612525578160200160208202803683370190505b509050825b82811015611fd657600085815260026020526040902061254d9060010182612739565b826125588684613337565b8151811061257657634e487b7160e01b600052603260045260246000fd5b6001600160a01b039092166020928302919091019091015261259781613389565b905061252a565b60004683805190602001206040516020016125c3929190918252602082015260400190565b6040516020818303038152906040528051906020012060001c90506125e96113366126ba565b151560011461260a5760405162461bcd60e51b8152600401610467906132a7565b600081815260026020526040902061262590600101836126e0565b151560011461266d5760405162461bcd60e51b8152602060048201526014602482015273195c9c8b5b595b58995c8b5b9bdd0b595e1a5cdd60621b6044820152606401610467565b6000818152600260205260409020612688906001018361271a565b507fbd84f6be96016aa1d03fd0c0ce516da6b2e352520bddd280c744c6c79a37851283836040516114419291906130af565b600080546001600160a01b03163314156126db575060131936013560601c90565b503390565b6001600160a01b038116600090815260018301602052604081205415155b9392505050565b60006126fe836001600160a01b038416612745565b60006126fe836001600160a01b038416612794565b6000610d14825490565b60006126fe83836128b1565b600081815260018301602052604081205461278c57508154600181810184556000848152602080822090930184905584548482528286019093526040902091909155610d14565b506000610d14565b600081815260018301602052604081205480156128a75760006127b8600183613337565b85549091506000906127cc90600190613337565b905081811461284d5760008660000182815481106127fa57634e487b7160e01b600052603260045260246000fd5b906000526020600020015490508087600001848154811061282b57634e487b7160e01b600052603260045260246000fd5b6000918252602080832090910192909255918252600188019052604090208390555b855486908061286c57634e487b7160e01b600052603160045260246000fd5b600190038181906000526020600020016000905590558560010160008681526020019081526020016000206000905560019350505050610d14565b6000915050610d14565b60008260000182815481106128d657634e487b7160e01b600052603260045260246000fd5b9060005260206000200154905092915050565b8280546128f59061334e565b90600052602060002090601f016020900481019282612917576000855561295d565b82601f1061293057805160ff191683800117855561295d565b8280016001018555821561295d579182015b8281111561295d578251825591602001919060010190612942565b5061296992915061296d565b5090565b5b80821115612969576000815560010161296e565b80356001600160a01b038116811461299957600080fd5b919050565b600082601f8301126129ae578081fd5b813560206001600160401b038211156129c9576129c96133ba565b8160051b6129d88282016132d0565b8381528281019086840183880185018910156129f2578687fd5b8693505b85841015611fd657612a0781612982565b8352600193909301929184019184016129f6565b600082601f830112612a2b578081fd5b81356001600160401b03811115612a4457612a446133ba565b612a57601f8201601f19166020016132d0565b818152846020838601011115612a6b578283fd5b816020850160208301379081016020019190915292915050565b600060208284031215612a96578081fd5b6126fe82612982565b600060208284031215612ab0578081fd5b81356001600160401b03811115612ac5578182fd5b612ad184828501612a1b565b949350505050565b60008060408385031215612aeb578081fd5b82356001600160401b03811115612b00578182fd5b612b0c85828601612a1b565b925050612b1b60208401612982565b90509250929050565b60008060408385031215612b36578182fd5b82356001600160401b0380821115612b4c578384fd5b612b5886838701612a1b565b93506020850135915080821115612b6d578283fd5b50612b7a85828601612a1b565b9150509250929050565b600080600060608486031215612b98578081fd5b83356001600160401b0380821115612bae578283fd5b612bba87838801612a1b565b94506020860135915080821115612bcf578283fd5b50612bdc86828701612a1b565b925050612beb60408501612982565b90509250925092565b600080600060608486031215612c08578283fd5b83356001600160401b0380821115612c1e578485fd5b612c2a87838801612a1b565b94506020860135915080821115612c3f578384fd5b612c4b87838801612a1b565b93506040860135915080821115612c60578283fd5b50612c6d8682870161299e565b9150509250925092565b600080600060608486031215612c8b578283fd5b83356001600160401b0380821115612ca1578485fd5b612cad87838801612a1b565b94506020860135915080821115612cc2578384fd5b612cce87838801612a1b565b93506040860135915080821115612ce3578283fd5b50612c6d86828701612a1b565b60008060008060808587031215612d05578081fd5b84356001600160401b0380821115612d1b578283fd5b612d2788838901612a1b565b95506020870135915080821115612d3c578283fd5b612d4888838901612a1b565b94506040870135915080821115612d5d578283fd5b612d6988838901612a1b565b93506060870135915080821115612d7e578283fd5b50612d8b8782880161299e565b91505092959194509250565b60008060008060808587031215612dac578384fd5b84356001600160401b0380821115612dc2578586fd5b612dce88838901612a1b565b95506020870135915080821115612de3578485fd5b612def88838901612a1b565b94506040870135915080821115612e04578384fd5b612e1088838901612a1b565b93506060870135915080821115612e25578283fd5b50612d8b87828801612a1b565b600080600080600060a08688031215612e49578081fd5b85356001600160401b0380821115612e5f578283fd5b612e6b89838a01612a1b565b96506020880135915080821115612e80578283fd5b612e8c89838a01612a1b565b95506040880135915080821115612ea1578283fd5b50612eae88828901612a1b565b9598949750949560608101359550608001359392505050565b60008060008060808587031215612edc578384fd5b84356001600160401b0380821115612ef2578586fd5b612efe88838901612a1b565b95506020870135915080821115612f13578485fd5b50612f2087828801612a1b565b949794965050505060408301359260600135919050565b600080600060608486031215612f4b578081fd5b83356001600160401b03811115612f60578182fd5b612f6c86828701612a1b565b9660208601359650604090950135949350505050565b60008060408385031215612f94578182fd5b50508035926020909101359150565b60008151808452815b81811015612fc857602081850181015186830182015201612fac565b81811115612fd95782602083870101525b50601f01601f19169290920160200192915050565b6020808252825182820181905260009190848201906040850190845b8181101561302f5783516001600160a01b03168352928401929184019160010161300a565b50909695505050505050565b6000602080830181845280855180835260408601915060408160051b8701019250838701855b8281101561308f57603f1988860301845261307d858351612fa3565b94509285019290850190600101613061565b5092979650505050505050565b6020815260006126fe6020830184612fa3565b6040815260006130c26040830185612fa3565b905060018060a01b03831660208301529392505050565b6060815260006130ec6060830186612fa3565b82810360208401526130fe8186612fa3565b91505060018060a01b0383166040830152949350505050565b60808152600061312a6080830187612fa3565b828103602084015261313c8187612fa3565b905082810360408401526131508186612fa3565b91505060018060a01b038316606083015295945050505050565b60a08152600061317d60a0830188612fa3565b828103602084015261318f8188612fa3565b905082810360408401526131a38187612fa3565b905082810360608401526131b78186612fa3565b91505060018060a01b03831660808301529695505050505050565b602080825260129082015271195c9c8b5c1c9bda8b5b9bdd0b595e1a5cdd60721b604082015260600190565b60208082526010908201526f195c9c8b5b985b594b58db185a5b595960821b604082015260600190565b6020808252600e908201526d6572722d656d7074792d6d65746160901b604082015260600190565b6020808252600e908201526d6572722d656d7074792d6e616d6560901b604082015260600190565b602080825260159082015274195c9c8b5c995b19585cd94b5b9bdd0b595e1a5cdd605a1b604082015260600190565b6020808252600f908201526e32b93916ba32b0b696b6b2b6b132b960891b604082015260600190565b604051601f8201601f191681016001600160401b03811182821017156132f8576132f86133ba565b604052919050565b60008219821115613313576133136133a4565b500190565b6000816000190483118215151615613332576133326133a4565b500290565b600082821015613349576133496133a4565b500390565b600181811c9082168061336257607f821691505b6020821081141561338357634e487b7160e01b600052602260045260246000fd5b50919050565b600060001982141561339d5761339d6133a4565b5060010190565b634e487b7160e01b600052601160045260246000fd5b634e487b7160e01b600052604160045260246000fdfea26469706673582212202df760e4293ba863dba4487fe26c7636551ae70ed282fe3dd112683e0e1db9c264736f6c63430008040033",
  "linkReferences": {},
  "deployedLinkReferences": {}
}