{
  "contracts/Valist.sol": {
    "Valist": {
      "abi": [
        {
          "inputs": [
            {
              "internalType": "address",
              "name": "_trustedForwarder",
              "type": "address"
            }
          ],
          "stateMutability": "nonpayable",
          "type": "constructor"
        },
        {
          "anonymous": false,
          "inputs": [
            {
              "indexed": false,
              "internalType": "string",
              "name": "_teamName",
              "type": "string"
            },
            {
              "indexed": false,
              "internalType": "string",
              "name": "_projectName",
              "type": "string"
            },
            {
              "indexed": false,
              "internalType": "string",
              "name": "_metaURI",
              "type": "string"
            },
            {
              "indexed": false,
              "internalType": "address",
              "name": "_member",
              "type": "address"
            }
          ],
          "name": "ProjectCreated",
          "type": "event"
        },
        {
          "anonymous": false,
          "inputs": [
            {
              "indexed": false,
              "internalType": "string",
              "name": "_teamName",
              "type": "string"
            },
            {
              "indexed": false,
              "internalType": "string",
              "name": "_projectName",
              "type": "string"
            },
            {
              "indexed": false,
              "internalType": "address",
              "name": "_member",
              "type": "address"
            }
          ],
          "name": "ProjectMemberAdded",
          "type": "event"
        },
        {
          "anonymous": false,
          "inputs": [
            {
              "indexed": false,
              "internalType": "string",
              "name": "_teamName",
              "type": "string"
            },
            {
              "indexed": false,
              "internalType": "string",
              "name": "_projectName",
              "type": "string"
            },
            {
              "indexed": false,
              "internalType": "address",
              "name": "_member",
              "type": "address"
            }
          ],
          "name": "ProjectMemberRemoved",
          "type": "event"
        },
        {
          "anonymous": false,
          "inputs": [
            {
              "indexed": false,
              "internalType": "string",
              "name": "_teamName",
              "type": "string"
            },
            {
              "indexed": false,
              "internalType": "string",
              "name": "_projectName",
              "type": "string"
            },
            {
              "indexed": false,
              "internalType": "string",
              "name": "_metaURI",
              "type": "string"
            },
            {
              "indexed": false,
              "internalType": "address",
              "name": "_member",
              "type": "address"
            }
          ],
          "name": "ProjectUpdated",
          "type": "event"
        },
        {
          "anonymous": false,
          "inputs": [
            {
              "indexed": false,
              "internalType": "string",
              "name": "_teamName",
              "type": "string"
            },
            {
              "indexed": false,
              "internalType": "string",
              "name": "_projectName",
              "type": "string"
            },
            {
              "indexed": false,
              "internalType": "string",
              "name": "_releaseName",
              "type": "string"
            },
            {
              "indexed": false,
              "internalType": "address",
              "name": "_sender",
              "type": "address"
            }
          ],
          "name": "ReleaseApproved",
          "type": "event"
        },
        {
          "anonymous": false,
          "inputs": [
            {
              "indexed": false,
              "internalType": "string",
              "name": "_teamName",
              "type": "string"
            },
            {
              "indexed": false,
              "internalType": "string",
              "name": "_projectName",
              "type": "string"
            },
            {
              "indexed": false,
              "internalType": "string",
              "name": "_releaseName",
              "type": "string"
            },
            {
              "indexed": false,
              "internalType": "string",
              "name": "_metaURI",
              "type": "string"
            },
            {
              "indexed": false,
              "internalType": "address",
              "name": "_member",
              "type": "address"
            }
          ],
          "name": "ReleaseCreated",
          "type": "event"
        },
        {
          "anonymous": false,
          "inputs": [
            {
              "indexed": false,
              "internalType": "string",
              "name": "_teamName",
              "type": "string"
            },
            {
              "indexed": false,
              "internalType": "string",
              "name": "_projectName",
              "type": "string"
            },
            {
              "indexed": false,
              "internalType": "string",
              "name": "_releaseName",
              "type": "string"
            },
            {
              "indexed": false,
              "internalType": "address",
              "name": "_sender",
              "type": "address"
            }
          ],
          "name": "ReleaseRejected",
          "type": "event"
        },
        {
          "anonymous": false,
          "inputs": [
            {
              "indexed": false,
              "internalType": "string",
              "name": "_teamName",
              "type": "string"
            },
            {
              "indexed": false,
              "internalType": "string",
              "name": "_metaURI",
              "type": "string"
            },
            {
              "indexed": false,
              "internalType": "address",
              "name": "_sender",
              "type": "address"
            }
          ],
          "name": "TeamCreated",
          "type": "event"
        },
        {
          "anonymous": false,
          "inputs": [
            {
              "indexed": false,
              "internalType": "string",
              "name": "_teamName",
              "type": "string"
            },
            {
              "indexed": false,
              "internalType": "address",
              "name": "_member",
              "type": "address"
            }
          ],
          "name": "TeamMemberAdded",
          "type": "event"
        },
        {
          "anonymous": false,
          "inputs": [
            {
              "indexed": false,
              "internalType": "string",
              "name": "_teamName",
              "type": "string"
            },
            {
              "indexed": false,
              "internalType": "address",
              "name": "_member",
              "type": "address"
            }
          ],
          "name": "TeamMemberRemoved",
          "type": "event"
        },
        {
          "anonymous": false,
          "inputs": [
            {
              "indexed": false,
              "internalType": "string",
              "name": "_teamName",
              "type": "string"
            },
            {
              "indexed": false,
              "internalType": "string",
              "name": "_metaURI",
              "type": "string"
            },
            {
              "indexed": false,
              "internalType": "address",
              "name": "_member",
              "type": "address"
            }
          ],
          "name": "TeamUpdated",
          "type": "event"
        },
        {
          "inputs": [
            {
              "internalType": "string",
              "name": "_teamName",
              "type": "string"
            },
            {
              "internalType": "string",
              "name": "_projectName",
              "type": "string"
            },
            {
              "internalType": "address",
              "name": "_address",
              "type": "address"
            }
          ],
          "name": "addProjectMember",
          "outputs": [],
          "stateMutability": "nonpayable",
          "type": "function"
        },
        {
          "inputs": [
            {
              "internalType": "string",
              "name": "_teamName",
              "type": "string"
            },
            {
              "internalType": "address",
              "name": "_address",
              "type": "address"
            }
          ],
          "name": "addTeamMember",
          "outputs": [],
          "stateMutability": "nonpayable",
          "type": "function"
        },
        {
          "inputs": [
            {
              "internalType": "string",
              "name": "_teamName",
              "type": "string"
            },
            {
              "internalType": "string",
              "name": "_projectName",
              "type": "string"
            },
            {
              "internalType": "string",
              "name": "_releaseName",
              "type": "string"
            }
          ],
          "name": "approveRelease",
          "outputs": [],
          "stateMutability": "nonpayable",
          "type": "function"
        },
        {
          "inputs": [
            {
              "internalType": "string",
              "name": "_teamName",
              "type": "string"
            },
            {
              "internalType": "string",
              "name": "_projectName",
              "type": "string"
            },
            {
              "internalType": "string",
              "name": "_metaURI",
              "type": "string"
            },
            {
              "internalType": "address[]",
              "name": "_members",
              "type": "address[]"
            }
          ],
          "name": "createProject",
          "outputs": [],
          "stateMutability": "nonpayable",
          "type": "function"
        },
        {
          "inputs": [
            {
              "internalType": "string",
              "name": "_teamName",
              "type": "string"
            },
            {
              "internalType": "string",
              "name": "_projectName",
              "type": "string"
            },
            {
              "internalType": "string",
              "name": "_releaseName",
              "type": "string"
            },
            {
              "internalType": "string",
              "name": "_metaURI",
              "type": "string"
            }
          ],
          "name": "createRelease",
          "outputs": [],
          "stateMutability": "nonpayable",
          "type": "function"
        },
        {
          "inputs": [
            {
              "internalType": "string",
              "name": "_teamName",
              "type": "string"
            },
            {
              "internalType": "string",
              "name": "_metaURI",
              "type": "string"
            },
            {
              "internalType": "address[]",
              "name": "_members",
              "type": "address[]"
            }
          ],
          "name": "createTeam",
          "outputs": [],
          "stateMutability": "nonpayable",
          "type": "function"
        },
        {
          "inputs": [
            {
              "internalType": "string",
              "name": "_teamName",
              "type": "string"
            },
            {
              "internalType": "string",
              "name": "_projectName",
              "type": "string"
            }
          ],
          "name": "getLatestReleaseName",
          "outputs": [
            {
              "internalType": "string",
              "name": "",
              "type": "string"
            }
          ],
          "stateMutability": "view",
          "type": "function"
        },
        {
          "inputs": [
            {
              "internalType": "string",
              "name": "_teamName",
              "type": "string"
            },
            {
              "internalType": "string",
              "name": "_projectName",
              "type": "string"
            },
            {
              "internalType": "uint256",
              "name": "_page",
              "type": "uint256"
            },
            {
              "internalType": "uint256",
              "name": "_size",
              "type": "uint256"
            }
          ],
          "name": "getProjectMembers",
          "outputs": [
            {
              "internalType": "address[]",
              "name": "",
              "type": "address[]"
            }
          ],
          "stateMutability": "view",
          "type": "function"
        },
        {
          "inputs": [
            {
              "internalType": "string",
              "name": "_teamName",
              "type": "string"
            },
            {
              "internalType": "string",
              "name": "_projectName",
              "type": "string"
            }
          ],
          "name": "getProjectMetaURI",
          "outputs": [
            {
              "internalType": "string",
              "name": "",
              "type": "string"
            }
          ],
          "stateMutability": "view",
          "type": "function"
        },
        {
          "inputs": [
            {
              "internalType": "string",
              "name": "_teamName",
              "type": "string"
            },
            {
              "internalType": "uint256",
              "name": "_page",
              "type": "uint256"
            },
            {
              "internalType": "uint256",
              "name": "_size",
              "type": "uint256"
            }
          ],
          "name": "getProjectNames",
          "outputs": [
            {
              "internalType": "string[]",
              "name": "",
              "type": "string[]"
            }
          ],
          "stateMutability": "view",
          "type": "function"
        },
        {
          "inputs": [
            {
              "internalType": "string",
              "name": "_teamName",
              "type": "string"
            },
            {
              "internalType": "string",
              "name": "_projectName",
              "type": "string"
            },
            {
              "internalType": "string",
              "name": "_releaseName",
              "type": "string"
            },
            {
              "internalType": "uint256",
              "name": "_page",
              "type": "uint256"
            },
            {
              "internalType": "uint256",
              "name": "_size",
              "type": "uint256"
            }
          ],
          "name": "getReleaseApprovers",
          "outputs": [
            {
              "internalType": "address[]",
              "name": "",
              "type": "address[]"
            }
          ],
          "stateMutability": "view",
          "type": "function"
        },
        {
          "inputs": [
            {
              "internalType": "string",
              "name": "_teamName",
              "type": "string"
            },
            {
              "internalType": "string",
              "name": "_projectName",
              "type": "string"
            },
            {
              "internalType": "string",
              "name": "_releaseName",
              "type": "string"
            }
          ],
          "name": "getReleaseMetaURI",
          "outputs": [
            {
              "internalType": "string",
              "name": "",
              "type": "string"
            }
          ],
          "stateMutability": "view",
          "type": "function"
        },
        {
          "inputs": [
            {
              "internalType": "string",
              "name": "_teamName",
              "type": "string"
            },
            {
              "internalType": "string",
              "name": "_projectName",
              "type": "string"
            },
            {
              "internalType": "uint256",
              "name": "_page",
              "type": "uint256"
            },
            {
              "internalType": "uint256",
              "name": "_size",
              "type": "uint256"
            }
          ],
          "name": "getReleaseNames",
          "outputs": [
            {
              "internalType": "string[]",
              "name": "",
              "type": "string[]"
            }
          ],
          "stateMutability": "view",
          "type": "function"
        },
        {
          "inputs": [
            {
              "internalType": "string",
              "name": "_teamName",
              "type": "string"
            },
            {
              "internalType": "string",
              "name": "_projectName",
              "type": "string"
            },
            {
              "internalType": "string",
              "name": "_releaseName",
              "type": "string"
            },
            {
              "internalType": "uint256",
              "name": "_page",
              "type": "uint256"
            },
            {
              "internalType": "uint256",
              "name": "_size",
              "type": "uint256"
            }
          ],
          "name": "getReleaseRejectors",
          "outputs": [
            {
              "internalType": "address[]",
              "name": "",
              "type": "address[]"
            }
          ],
          "stateMutability": "view",
          "type": "function"
        },
        {
          "inputs": [
            {
              "internalType": "string",
              "name": "_teamName",
              "type": "string"
            },
            {
              "internalType": "uint256",
              "name": "_page",
              "type": "uint256"
            },
            {
              "internalType": "uint256",
              "name": "_size",
              "type": "uint256"
            }
          ],
          "name": "getTeamMembers",
          "outputs": [
            {
              "internalType": "address[]",
              "name": "",
              "type": "address[]"
            }
          ],
          "stateMutability": "view",
          "type": "function"
        },
        {
          "inputs": [
            {
              "internalType": "string",
              "name": "_teamName",
              "type": "string"
            }
          ],
          "name": "getTeamMetaURI",
          "outputs": [
            {
              "internalType": "string",
              "name": "",
              "type": "string"
            }
          ],
          "stateMutability": "view",
          "type": "function"
        },
        {
          "inputs": [
            {
              "internalType": "uint256",
              "name": "_page",
              "type": "uint256"
            },
            {
              "internalType": "uint256",
              "name": "_size",
              "type": "uint256"
            }
          ],
          "name": "getTeamNames",
          "outputs": [
            {
              "internalType": "string[]",
              "name": "",
              "type": "string[]"
            }
          ],
          "stateMutability": "view",
          "type": "function"
        },
        {
          "inputs": [
            {
              "internalType": "address",
              "name": "forwarder",
              "type": "address"
            }
          ],
          "name": "isTrustedForwarder",
          "outputs": [
            {
              "internalType": "bool",
              "name": "",
              "type": "bool"
            }
          ],
          "stateMutability": "view",
          "type": "function"
        },
        {
          "inputs": [
            {
              "internalType": "string",
              "name": "_teamName",
              "type": "string"
            },
            {
              "internalType": "string",
              "name": "_projectName",
              "type": "string"
            },
            {
              "internalType": "string",
              "name": "_releaseName",
              "type": "string"
            }
          ],
          "name": "rejectRelease",
          "outputs": [],
          "stateMutability": "nonpayable",
          "type": "function"
        },
        {
          "inputs": [
            {
              "internalType": "string",
              "name": "_teamName",
              "type": "string"
            },
            {
              "internalType": "string",
              "name": "_projectName",
              "type": "string"
            },
            {
              "internalType": "address",
              "name": "_address",
              "type": "address"
            }
          ],
          "name": "removeProjectMember",
          "outputs": [],
          "stateMutability": "nonpayable",
          "type": "function"
        },
        {
          "inputs": [
            {
              "internalType": "string",
              "name": "_teamName",
              "type": "string"
            },
            {
              "internalType": "address",
              "name": "_address",
              "type": "address"
            }
          ],
          "name": "removeTeamMember",
          "outputs": [],
          "stateMutability": "nonpayable",
          "type": "function"
        },
        {
          "inputs": [
            {
              "internalType": "string",
              "name": "_teamName",
              "type": "string"
            },
            {
              "internalType": "string",
              "name": "_projectName",
              "type": "string"
            },
            {
              "internalType": "string",
              "name": "_metaURI",
              "type": "string"
            }
          ],
          "name": "setProjectMetaURI",
          "outputs": [],
          "stateMutability": "nonpayable",
          "type": "function"
        },
        {
          "inputs": [
            {
              "internalType": "string",
              "name": "_teamName",
              "type": "string"
            },
            {
              "internalType": "string",
              "name": "_metaURI",
              "type": "string"
            }
          ],
          "name": "setTeamMetaURI",
          "outputs": [],
          "stateMutability": "nonpayable",
          "type": "function"
        },
        {
          "inputs": [],
          "name": "versionRecipient",
          "outputs": [
            {
              "internalType": "string",
              "name": "",
              "type": "string"
            }
          ],
          "stateMutability": "view",
          "type": "function"
        }
      ],
      "evm": {
        "bytecode": {
          "linkReferences": {},
          "object": "60c060405260056080819052640322e322e360dc1b60a09081526200002891600691906200007f565b503480156200003657600080fd5b50604051620035a8380380620035a8833981016040819052620000599162000125565b600080546001600160a01b0319166001600160a01b039290921691909117905562000192565b8280546200008d9062000155565b90600052602060002090601f016020900481019282620000b15760008555620000fc565b82601f10620000cc57805160ff1916838001178555620000fc565b82800160010185558215620000fc579182015b82811115620000fc578251825591602001919060010190620000df565b506200010a9291506200010e565b5090565b5b808211156200010a57600081556001016200010f565b60006020828403121562000137578081fd5b81516001600160a01b03811681146200014e578182fd5b9392505050565b600181811c908216806200016a57607f821691505b602082108114156200018c57634e487b7160e01b600052602260045260246000fd5b50919050565b61340680620001a26000396000f3fe608060405234801561001057600080fd5b50600436106101585760003560e01c80635c537096116100c3578063a6a54ec51161007c578063a6a54ec5146102f9578063b1a5042b1461030c578063b1bc8c8d1461031f578063baffd3da14610332578063cfc5efac14610345578063ecb0a33d1461035857600080fd5b80635c537096146102875780635f36788e1461029a57806381ded150146102ad57806383dfd03e146102c05780639e97c317146102d35780639fe1fb72146102e657600080fd5b8063486ff0cd11610115578063486ff0cd146101f45780634ce72c75146101fc5780634eec58a31461020f5780634ff3ec601461022f57806351de13bf14610242578063572b6c051461025557600080fd5b80630716dfa01461015d57806311bc1ce014610172578063172898181461018557806325ca6b03146101ae5780632aa2fd64146101c157806347566e4f146101d4575b600080fd5b61017061016b366004612d97565b61036b565b005b610170610180366004612c77565b61058c565b610198610193366004612e32565b6106e8565b6040516101a59190612fee565b60405180910390f35b6101706101bc366004612c77565b6108c7565b6101706101cf366004612b84565b610a32565b6101e76101e2366004612b24565b610bb0565b6040516101a5919061309c565b6101e7610d1a565b61019861020a366004612ec7565b610da8565b61022261021d366004612f82565b610f4f565b6040516101a5919061303b565b61017061023d366004612cf0565b6110f3565b610170610250366004612b24565b6112eb565b610277610263366004612a85565b6000546001600160a01b0391821691161490565b60405190151581526020016101a5565b610170610295366004612b84565b61144e565b6101706102a8366004612bf4565b6115d4565b6101706102bb366004612ad9565b6117ec565b6102226102ce366004612ec7565b611900565b6101e76102e1366004612c77565b611b28565b6101e76102f4366004612a9f565b611c9a565b610222610307366004612f37565b611dd8565b6101e761031a366004612b24565b611fe2565b61019861032d366004612e32565b61212d565b610170610340366004612c77565b6122f3565b610198610353366004612f37565b61242f565b610170610366366004612ad9565b61259e565b6000468580519060200120604051602001610390929190918252602082015260400190565b60408051808303601f19018152828252805160209182012087518883012091840181905291830152915060009060600160408051808303601f1901815282825280516020918201208751888301209184018190529183015291506000906060016040516020818303038152906040528051906020012060001c905061042d6104166126ba565b6000848152600360205260409020600101906126e0565b6104705760405162461bcd60e51b815260206004820152600f60248201526e32b93916b83937b516b6b2b6b132b960891b60448201526064015b60405180910390fd5b600081815260056020526040902080546104899061334e565b1590506104a85760405162461bcd60e51b8152600401610467906131fe565b60008451116104c95760405162461bcd60e51b815260040161046790613228565b60008551116104ea5760405162461bcd60e51b815260040161046790613250565b60008181526005602090815260409091208551610509928701906128e9565b5060008281526003602090815260408220805460018101825590835291819020875161053c9391909101918801906128e9565b507f15fb1d214ed195f7210e450a416a0640362c37a0a2d2d0ab63481f967aae0e008787878761056a6126ba565b60405161057b95949392919061316a565b60405180910390a150505050505050565b60004684805190602001206040516020016105b1929190918252602082015260400190565b60408051601f198184030181528282528051602091820120865187830120828501829052848401528251808503840181526060850184528051908301208651878401206080860182905260a0808701919091528451808703909101815260c090950184528451948301949094206000818152600590935292822080549195509061063a9061334e565b9050116106595760405162461bcd60e51b815260040161046790613278565b6106786106646126ba565b600083815260046020526040902090612705565b5061069b6106846126ba565b60008381526004602052604090206002019061271a565b507fa70c9d49a7ef09401d07a7aad126689c097b80db50504ce9ba5ca8b6f6477fb88686866106c86126ba565b6040516106d89493929190613117565b60405180910390a1505050505050565b6060600046878051906020012060405160200161070f929190918252602082015260400190565b60408051808303601f19018152828252805160209182012089518a83012091840181905291830152915060009060600160408051808303601f19018152828252805160209182012089518a83012091840181905291830152915060009060600160408051601f198184030181529190528051602090910120905060006107958688613318565b905060006107a38783613300565b60008481526004602052604090209091506107c09060020161272f565b8111156107e45760008381526004602052604090206107e19060020161272f565b90505b60006107f08383613337565b6001600160401b0381111561081557634e487b7160e01b600052604160045260246000fd5b60405190808252806020026020018201604052801561083e578160200160208202803683370190505b509050825b828110156108b75760008581526004602052604090206108669060020182612739565b826108718684613337565b8151811061088f57634e487b7160e01b600052603260045260246000fd5b6001600160a01b03909216602092830291909101909101526108b081613389565b9050610843565b509b9a5050505050505050505050565b60004684805190602001206040516020016108ec929190918252602082015260400190565b60408051601f198184030181528282528051602091820120865187830120828501829052848401528251808503840181526060909401909252825192019190912090915061095261093b6126ba565b6000848152600260205260409020600101906126e0565b61096e5760405162461bcd60e51b8152600401610467906132a7565b600081815260056020526040812080546109879061334e565b9050116109a65760405162461bcd60e51b8152600401610467906131d2565b60008351116109c75760405162461bcd60e51b815260040161046790613228565b600081815260056020908152604090912084516109e6928601906128e9565b507fd837747757bf732c911148d7c5825d52de171f849e76143eec98fa514e263c8a858585610a136126ba565b604051610a239493929190613117565b60405180910390a15050505050565b6000468480519060200120604051602001610a57929190918252602082015260400190565b60408051808303601f19018152828252805160209182012086518783012091840181905291830152915060009060600160408051601f19818403018152918152815160209283012060008181526005909352908220805491935090610abb9061334e565b905011610ada5760405162461bcd60e51b8152600401610467906131d2565b610ae561093b6126ba565b1515600114610b065760405162461bcd60e51b8152600401610467906132a7565b6000818152600360205260409020610b2190600101846126e0565b15610b615760405162461bcd60e51b815260206004820152601060248201526f195c9c8b5b595b58995c8b595e1a5cdd60821b6044820152606401610467565b6000818152600360205260409020610b7c9060010184612705565b507f8eb5dc57e01da32e2b98214d39ebdd82cd801d261855d5f84b868b5f140a2980858585604051610a23939291906130d9565b60606000468480519060200120604051602001610bd7929190918252602082015260400190565b60408051808303601f19018152828252805160209182012086518783012091840181905291830152915060009060600160408051601f198184030181529181528151602092830120600081815260039093529120805491925090610c4d5760405162461bcd60e51b8152600401610467906131d2565b80548190610c5d90600190613337565b81548110610c7b57634e487b7160e01b600052603260045260246000fd5b906000526020600020018054610c909061334e565b80601f0160208091040260200160405190810160405280929190818152602001828054610cbc9061334e565b8015610d095780601f10610cde57610100808354040283529160200191610d09565b820191906000526020600020905b815481529060010190602001808311610cec57829003601f168201915b505050505093505050505b92915050565b60068054610d279061334e565b80601f0160208091040260200160405190810160405280929190818152602001828054610d539061334e565b8015610da05780601f10610d7557610100808354040283529160200191610da0565b820191906000526020600020905b815481529060010190602001808311610d8357829003601f168201915b505050505081565b60606000468680519060200120604051602001610dcf929190918252602082015260400190565b60408051601f19818403018152828252805160209182012088518983012082850182905284840152825180850384018152606090940190925282519201919091209091506000610e1f8587613318565b90506000610e2d8683613300565b6000848152600360205260409020909150610e4a9060010161272f565b811115610e6e576000838152600360205260409020610e6b9060010161272f565b90505b6000610e7a8383613337565b6001600160401b03811115610e9f57634e487b7160e01b600052604160045260246000fd5b604051908082528060200260200182016040528015610ec8578160200160208202803683370190505b509050825b82811015610f41576000858152600360205260409020610ef09060010182612739565b82610efb8684613337565b81518110610f1957634e487b7160e01b600052603260045260246000fd5b6001600160a01b0390921660209283029190910190910152610f3a81613389565b9050610ecd565b509998505050505050505050565b60606000610f5d8385613318565b90506000610f6b8483613300565b600154909150811115610f7d57506001545b6000610f898383613337565b6001600160401b03811115610fae57634e487b7160e01b600052604160045260246000fd5b604051908082528060200260200182016040528015610fe157816020015b6060815260200190600190039081610fcc5790505b509050825b828110156110e9576001818154811061100f57634e487b7160e01b600052603260045260246000fd5b9060005260206000200180546110249061334e565b80601f01602080910402602001604051908101604052809291908181526020018280546110509061334e565b801561109d5780601f106110725761010080835404028352916020019161109d565b820191906000526020600020905b81548152906001019060200180831161108057829003601f168201915b50505050508285836110af9190613337565b815181106110cd57634e487b7160e01b600052603260045260246000fd5b6020026020010181905250806110e290613389565b9050610fe6565b5095945050505050565b6000468580519060200120604051602001611118929190918252602082015260400190565b60408051601f198184030181528282528051602091820120875188830120828501829052848401528251808503840181526060909401909252825192019190912090915061116761093b6126ba565b6111835760405162461bcd60e51b8152600401610467906132a7565b6000818152600560205260409020805461119c9061334e565b1590506111bb5760405162461bcd60e51b8152600401610467906131fe565b60008451116111dc5760405162461bcd60e51b815260040161046790613228565b60008551116111fd5760405162461bcd60e51b815260040161046790613250565b6000818152600560209081526040909120855161121c928701906128e9565b5060008281526002602090815260408220805460018101825590835291819020875161124f9391909101918801906128e9565b5060005b83518110156112be576112ab84828151811061127f57634e487b7160e01b600052603260045260246000fd5b60200260200101516003600085815260200190815260200160002060010161270590919063ffffffff16565b50806112b681613389565b915050611253565b507f11f7f07de1d35c43b47edd8a19e7f8208259cdf66344de81856c5bb7c798db268686866106c86126ba565b6000468380519060200120604051602001611310929190918252602082015260400190565b6040516020818303038152906040528051906020012060001c905061134d6113366126ba565b6000838152600260205260409020600101906126e0565b6113695760405162461bcd60e51b8152600401610467906132a7565b600081815260056020526040812080546113829061334e565b9050116113c65760405162461bcd60e51b8152602060048201526012602482015271195c9c8b5d19585b4b5b9bdd0b595e1a5cdd60721b6044820152606401610467565b60008251116113e75760405162461bcd60e51b815260040161046790613228565b60008181526005602090815260409091208351611406928501906128e9565b507f337efabade1b5802f3a562a44eb0b3222d30ad7717e865d76f4db7ecbea56e8083836114326126ba565b604051611441939291906130d9565b60405180910390a1505050565b6000468480519060200120604051602001611473929190918252602082015260400190565b60408051808303601f19018152828252805160209182012086518783012091840181905291830152915060009060600160408051601f198184030181529181528151602092830120600081815260059093529082208054919350906114d79061334e565b9050116114f65760405162461bcd60e51b8152600401610467906131d2565b61150161093b6126ba565b15156001146115225760405162461bcd60e51b8152600401610467906132a7565b600081815260036020526040902061153d90600101846126e0565b15156001146115855760405162461bcd60e51b8152602060048201526014602482015273195c9c8b5b595b58995c8b5b9bdd0b595e1a5cdd60621b6044820152606401610467565b60008181526003602052604090206115a0906001018461271a565b507f7bd4fdf0f1872366f33f1732f765696c1ec3ddccaa8c1f72095b58d8f411fa93858585604051610a23939291906130d9565b60004684805190602001206040516020016115f9929190918252602082015260400190565b60408051601f19818403018152918152815160209283012060008181526005909352912080549192509061162c9061334e565b15905061164b5760405162461bcd60e51b8152600401610467906131fe565b600083511161166c5760405162461bcd60e51b815260040161046790613228565b600084511161168d5760405162461bcd60e51b815260040161046790613250565b60008251116116d25760405162461bcd60e51b81526020600482015260116024820152706572722d656d7074792d6d656d6265727360781b6044820152606401610467565b600081815260056020908152604090912084516116f1928601906128e9565b506001805480820182556000919091528451611734917fb10e2d527612073b26eecdfd717e6a320cf44b4afac2b0732d9fcbe2b7fa0cf6019060208701906128e9565b5060005b82518110156117a35761179083828151811061176457634e487b7160e01b600052603260045260246000fd5b60200260200101516002600085815260200190815260200160002060010161270590919063ffffffff16565b508061179b81613389565b915050611738565b507f234eb9d37ed58b55e52e99246bb2b0cebb55311292e5d3de44a6df95a9af250184846117cf6126ba565b6040516117de939291906130d9565b60405180910390a150505050565b6000468380519060200120604051602001611811929190918252602082015260400190565b6040516020818303038152906040528051906020012060001c90506118376113366126ba565b15156001146118585760405162461bcd60e51b8152600401610467906132a7565b600081815260026020526040902061187390600101836126e0565b156118b35760405162461bcd60e51b815260206004820152601060248201526f195c9c8b5b595b58995c8b595e1a5cdd60821b6044820152606401610467565b60008181526002602052604090206118ce9060010183612705565b507fb1ce9c84087af16e758e7041eec971f57c833f4127f64f742c5b0ee14e0537d283836040516114419291906130af565b60606000468680519060200120604051602001611927929190918252602082015260400190565b60408051601f198184030181528282528051602091820120885189830120828501829052848401528251808503840181526060909401909252825192019190912090915060006119778587613318565b905060006119858683613300565b6000848152600360205260409020549091508111156119af57506000828152600360205260409020545b60006119bb8383613337565b6001600160401b038111156119e057634e487b7160e01b600052604160045260246000fd5b604051908082528060200260200182016040528015611a1357816020015b60608152602001906001900390816119fe5790505b509050825b82811015610f41576000858152600360205260409020805482908110611a4e57634e487b7160e01b600052603260045260246000fd5b906000526020600020018054611a639061334e565b80601f0160208091040260200160405190810160405280929190818152602001828054611a8f9061334e565b8015611adc5780601f10611ab157610100808354040283529160200191611adc565b820191906000526020600020905b815481529060010190602001808311611abf57829003601f168201915b5050505050828583611aee9190613337565b81518110611b0c57634e487b7160e01b600052603260045260246000fd5b602002602001018190525080611b2190613389565b9050611a18565b60606000468580519060200120604051602001611b4f929190918252602082015260400190565b60408051601f198184030181528282528051602091820120875188830120828501829052848401528251808503840181526060850184528051908301208751888401206080860182905260a0808701919091528451808703909101815260c0909501845284519483019490942060008181526005909352928220805491955090611bd89061334e565b905011611bf75760405162461bcd60e51b815260040161046790613278565b60008181526005602052604090208054611c109061334e565b80601f0160208091040260200160405190810160405280929190818152602001828054611c3c9061334e565b8015611c895780601f10611c5e57610100808354040283529160200191611c89565b820191906000526020600020905b815481529060010190602001808311611c6c57829003601f168201915b505050505093505050509392505050565b60606000468380519060200120604051602001611cc1929190918252602082015260400190565b60408051601f19818403018152918152815160209283012060008181526005909352908220805491935090611cf59061334e565b905011611d395760405162461bcd60e51b8152602060048201526012602482015271195c9c8b5d19585b4b5b9bdd0b595e1a5cdd60721b6044820152606401610467565b60008181526005602052604090208054611d529061334e565b80601f0160208091040260200160405190810160405280929190818152602001828054611d7e9061334e565b8015611dcb5780601f10611da057610100808354040283529160200191611dcb565b820191906000526020600020905b815481529060010190602001808311611dae57829003601f168201915b5050505050915050919050565b60606000468580519060200120604051602001611dff929190918252602082015260400190565b60408051601f19818403018152919052805160209091012090506000611e258486613318565b90506000611e338583613300565b600084815260026020526040902054909150811115611e5d57506000828152600260205260409020545b6000611e698383613337565b6001600160401b03811115611e8e57634e487b7160e01b600052604160045260246000fd5b604051908082528060200260200182016040528015611ec157816020015b6060815260200190600190039081611eac5790505b509050825b82811015611fd6576000858152600260205260409020805482908110611efc57634e487b7160e01b600052603260045260246000fd5b906000526020600020018054611f119061334e565b80601f0160208091040260200160405190810160405280929190818152602001828054611f3d9061334e565b8015611f8a5780601f10611f5f57610100808354040283529160200191611f8a565b820191906000526020600020905b815481529060010190602001808311611f6d57829003601f168201915b5050505050828583611f9c9190613337565b81518110611fba57634e487b7160e01b600052603260045260246000fd5b602002602001018190525080611fcf90613389565b9050611ec6565b50979650505050505050565b60606000468480519060200120604051602001612009929190918252602082015260400190565b60408051808303601f19018152828252805160209182012086518783012091840181905291830152915060009060600160408051601f1981840301815291815281516020928301206000818152600590935290822080549193509061206d9061334e565b90501161208c5760405162461bcd60e51b8152600401610467906131d2565b600081815260056020526040902080546120a59061334e565b80601f01602080910402602001604051908101604052809291908181526020018280546120d19061334e565b801561211e5780601f106120f35761010080835404028352916020019161211e565b820191906000526020600020905b81548152906001019060200180831161210157829003601f168201915b50505050509250505092915050565b60606000468780519060200120604051602001612154929190918252602082015260400190565b60408051808303601f19018152828252805160209182012089518a83012091840181905291830152915060009060600160408051808303601f19018152828252805160209182012089518a83012091840181905291830152915060009060600160408051601f198184030181529190528051602090910120905060006121da8688613318565b905060006121e88783613300565b60008481526004602052604090209091506122029061272f565b8111156122235760008381526004602052604090206122209061272f565b90505b600061222f8383613337565b6001600160401b0381111561225457634e487b7160e01b600052604160045260246000fd5b60405190808252806020026020018201604052801561227d578160200160208202803683370190505b509050825b828110156108b75760008581526004602052604090206122a29082612739565b826122ad8684613337565b815181106122cb57634e487b7160e01b600052603260045260246000fd5b6001600160a01b03909216602092830291909101909101526122ec81613389565b9050612282565b6000468480519060200120604051602001612318929190918252602082015260400190565b60408051601f198184030181528282528051602091820120865187830120828501829052848401528251808503840181526060850184528051908301208651878401206080860182905260a0808701919091528451808703909101815260c09095018452845194830194909420600081815260059093529282208054919550906123a19061334e565b9050116123c05760405162461bcd60e51b815260040161046790613278565b6123e26123cb6126ba565b600083815260046020526040902060020190612705565b506124026123ee6126ba565b60008381526004602052604090209061271a565b507f30ca79684c561b1b6fbda88d9779021eb510471ea1df05c10dc39c46d6ed94eb8686866106c86126ba565b60606000468580519060200120604051602001612456929190918252602082015260400190565b60408051601f1981840301815291905280516020909101209050600061247c8486613318565b9050600061248a8583613300565b60008481526002602052604090209091506124a79060010161272f565b8111156124cb5760008381526002602052604090206124c89060010161272f565b90505b60006124d78383613337565b6001600160401b038111156124fc57634e487b7160e01b600052604160045260246000fd5b604051908082528060200260200182016040528015612525578160200160208202803683370190505b509050825b82811015611fd657600085815260026020526040902061254d9060010182612739565b826125588684613337565b8151811061257657634e487b7160e01b600052603260045260246000fd5b6001600160a01b039092166020928302919091019091015261259781613389565b905061252a565b60004683805190602001206040516020016125c3929190918252602082015260400190565b6040516020818303038152906040528051906020012060001c90506125e96113366126ba565b151560011461260a5760405162461bcd60e51b8152600401610467906132a7565b600081815260026020526040902061262590600101836126e0565b151560011461266d5760405162461bcd60e51b8152602060048201526014602482015273195c9c8b5b595b58995c8b5b9bdd0b595e1a5cdd60621b6044820152606401610467565b6000818152600260205260409020612688906001018361271a565b507fbd84f6be96016aa1d03fd0c0ce516da6b2e352520bddd280c744c6c79a37851283836040516114419291906130af565b600080546001600160a01b03163314156126db575060131936013560601c90565b503390565b6001600160a01b038116600090815260018301602052604081205415155b9392505050565b60006126fe836001600160a01b038416612745565b60006126fe836001600160a01b038416612794565b6000610d14825490565b60006126fe83836128b1565b600081815260018301602052604081205461278c57508154600181810184556000848152602080822090930184905584548482528286019093526040902091909155610d14565b506000610d14565b600081815260018301602052604081205480156128a75760006127b8600183613337565b85549091506000906127cc90600190613337565b905081811461284d5760008660000182815481106127fa57634e487b7160e01b600052603260045260246000fd5b906000526020600020015490508087600001848154811061282b57634e487b7160e01b600052603260045260246000fd5b6000918252602080832090910192909255918252600188019052604090208390555b855486908061286c57634e487b7160e01b600052603160045260246000fd5b600190038181906000526020600020016000905590558560010160008681526020019081526020016000206000905560019350505050610d14565b6000915050610d14565b60008260000182815481106128d657634e487b7160e01b600052603260045260246000fd5b9060005260206000200154905092915050565b8280546128f59061334e565b90600052602060002090601f016020900481019282612917576000855561295d565b82601f1061293057805160ff191683800117855561295d565b8280016001018555821561295d579182015b8281111561295d578251825591602001919060010190612942565b5061296992915061296d565b5090565b5b80821115612969576000815560010161296e565b80356001600160a01b038116811461299957600080fd5b919050565b600082601f8301126129ae578081fd5b813560206001600160401b038211156129c9576129c96133ba565b8160051b6129d88282016132d0565b8381528281019086840183880185018910156129f2578687fd5b8693505b85841015611fd657612a0781612982565b8352600193909301929184019184016129f6565b600082601f830112612a2b578081fd5b81356001600160401b03811115612a4457612a446133ba565b612a57601f8201601f19166020016132d0565b818152846020838601011115612a6b578283fd5b816020850160208301379081016020019190915292915050565b600060208284031215612a96578081fd5b6126fe82612982565b600060208284031215612ab0578081fd5b81356001600160401b03811115612ac5578182fd5b612ad184828501612a1b565b949350505050565b60008060408385031215612aeb578081fd5b82356001600160401b03811115612b00578182fd5b612b0c85828601612a1b565b925050612b1b60208401612982565b90509250929050565b60008060408385031215612b36578182fd5b82356001600160401b0380821115612b4c578384fd5b612b5886838701612a1b565b93506020850135915080821115612b6d578283fd5b50612b7a85828601612a1b565b9150509250929050565b600080600060608486031215612b98578081fd5b83356001600160401b0380821115612bae578283fd5b612bba87838801612a1b565b94506020860135915080821115612bcf578283fd5b50612bdc86828701612a1b565b925050612beb60408501612982565b90509250925092565b600080600060608486031215612c08578283fd5b83356001600160401b0380821115612c1e578485fd5b612c2a87838801612a1b565b94506020860135915080821115612c3f578384fd5b612c4b87838801612a1b565b93506040860135915080821115612c60578283fd5b50612c6d8682870161299e565b9150509250925092565b600080600060608486031215612c8b578283fd5b83356001600160401b0380821115612ca1578485fd5b612cad87838801612a1b565b94506020860135915080821115612cc2578384fd5b612cce87838801612a1b565b93506040860135915080821115612ce3578283fd5b50612c6d86828701612a1b565b60008060008060808587031215612d05578081fd5b84356001600160401b0380821115612d1b578283fd5b612d2788838901612a1b565b95506020870135915080821115612d3c578283fd5b612d4888838901612a1b565b94506040870135915080821115612d5d578283fd5b612d6988838901612a1b565b93506060870135915080821115612d7e578283fd5b50612d8b8782880161299e565b91505092959194509250565b60008060008060808587031215612dac578384fd5b84356001600160401b0380821115612dc2578586fd5b612dce88838901612a1b565b95506020870135915080821115612de3578485fd5b612def88838901612a1b565b94506040870135915080821115612e04578384fd5b612e1088838901612a1b565b93506060870135915080821115612e25578283fd5b50612d8b87828801612a1b565b600080600080600060a08688031215612e49578081fd5b85356001600160401b0380821115612e5f578283fd5b612e6b89838a01612a1b565b96506020880135915080821115612e80578283fd5b612e8c89838a01612a1b565b95506040880135915080821115612ea1578283fd5b50612eae88828901612a1b565b9598949750949560608101359550608001359392505050565b60008060008060808587031215612edc578384fd5b84356001600160401b0380821115612ef2578586fd5b612efe88838901612a1b565b95506020870135915080821115612f13578485fd5b50612f2087828801612a1b565b949794965050505060408301359260600135919050565b600080600060608486031215612f4b578081fd5b83356001600160401b03811115612f60578182fd5b612f6c86828701612a1b565b9660208601359650604090950135949350505050565b60008060408385031215612f94578182fd5b50508035926020909101359150565b60008151808452815b81811015612fc857602081850181015186830182015201612fac565b81811115612fd95782602083870101525b50601f01601f19169290920160200192915050565b6020808252825182820181905260009190848201906040850190845b8181101561302f5783516001600160a01b03168352928401929184019160010161300a565b50909695505050505050565b6000602080830181845280855180835260408601915060408160051b8701019250838701855b8281101561308f57603f1988860301845261307d858351612fa3565b94509285019290850190600101613061565b5092979650505050505050565b6020815260006126fe6020830184612fa3565b6040815260006130c26040830185612fa3565b905060018060a01b03831660208301529392505050565b6060815260006130ec6060830186612fa3565b82810360208401526130fe8186612fa3565b91505060018060a01b0383166040830152949350505050565b60808152600061312a6080830187612fa3565b828103602084015261313c8187612fa3565b905082810360408401526131508186612fa3565b91505060018060a01b038316606083015295945050505050565b60a08152600061317d60a0830188612fa3565b828103602084015261318f8188612fa3565b905082810360408401526131a38187612fa3565b905082810360608401526131b78186612fa3565b91505060018060a01b03831660808301529695505050505050565b602080825260129082015271195c9c8b5c1c9bda8b5b9bdd0b595e1a5cdd60721b604082015260600190565b60208082526010908201526f195c9c8b5b985b594b58db185a5b595960821b604082015260600190565b6020808252600e908201526d6572722d656d7074792d6d65746160901b604082015260600190565b6020808252600e908201526d6572722d656d7074792d6e616d6560901b604082015260600190565b602080825260159082015274195c9c8b5c995b19585cd94b5b9bdd0b595e1a5cdd605a1b604082015260600190565b6020808252600f908201526e32b93916ba32b0b696b6b2b6b132b960891b604082015260600190565b604051601f8201601f191681016001600160401b03811182821017156132f8576132f86133ba565b604052919050565b60008219821115613313576133136133a4565b500190565b6000816000190483118215151615613332576133326133a4565b500290565b600082821015613349576133496133a4565b500390565b600181811c9082168061336257607f821691505b6020821081141561338357634e487b7160e01b600052602260045260246000fd5b50919050565b600060001982141561339d5761339d6133a4565b5060010190565b634e487b7160e01b600052601160045260246000fd5b634e487b7160e01b600052604160045260246000fdfea26469706673582212202df760e4293ba863dba4487fe26c7636551ae70ed282fe3dd112683e0e1db9c264736f6c63430008040033",
          "opcodes": "PUSH1 0xC0 PUSH1 0x40 MSTORE PUSH1 0x5 PUSH1 0x80 DUP2 SWAP1 MSTORE PUSH5 0x322E322E3 PUSH1 0xDC SHL PUSH1 0xA0 SWAP1 DUP2 MSTORE PUSH3 0x28 SWAP2 PUSH1 0x6 SWAP2 SWAP1 PUSH3 0x7F JUMP JUMPDEST POP CALLVALUE DUP1 ISZERO PUSH3 0x36 JUMPI PUSH1 0x0 DUP1 REVERT JUMPDEST POP PUSH1 0x40 MLOAD PUSH3 0x35A8 CODESIZE SUB DUP1 PUSH3 0x35A8 DUP4 CODECOPY DUP2 ADD PUSH1 0x40 DUP2 SWAP1 MSTORE PUSH3 0x59 SWAP2 PUSH3 0x125 JUMP JUMPDEST PUSH1 0x0 DUP1 SLOAD PUSH1 0x1 PUSH1 0x1 PUSH1 0xA0 SHL SUB NOT AND PUSH1 0x1 PUSH1 0x1 PUSH1 0xA0 SHL SUB SWAP3 SWAP1 SWAP3 AND SWAP2 SWAP1 SWAP2 OR SWAP1 SSTORE PUSH3 0x192 JUMP JUMPDEST DUP3 DUP1 SLOAD PUSH3 0x8D SWAP1 PUSH3 0x155 JUMP JUMPDEST SWAP1 PUSH1 0x0 MSTORE PUSH1 0x20 PUSH1 0x0 KECCAK256 SWAP1 PUSH1 0x1F ADD PUSH1 0x20 SWAP1 DIV DUP2 ADD SWAP3 DUP3 PUSH3 0xB1 JUMPI PUSH1 0x0 DUP6 SSTORE PUSH3 0xFC JUMP JUMPDEST DUP3 PUSH1 0x1F LT PUSH3 0xCC JUMPI DUP1 MLOAD PUSH1 0xFF NOT AND DUP4 DUP1 ADD OR DUP6 SSTORE PUSH3 0xFC JUMP JUMPDEST DUP3 DUP1 ADD PUSH1 0x1 ADD DUP6 SSTORE DUP3 ISZERO PUSH3 0xFC JUMPI SWAP2 DUP3 ADD JUMPDEST DUP3 DUP2 GT ISZERO PUSH3 0xFC JUMPI DUP3 MLOAD DUP3 SSTORE SWAP2 PUSH1 0x20 ADD SWAP2 SWAP1 PUSH1 0x1 ADD SWAP1 PUSH3 0xDF JUMP JUMPDEST POP PUSH3 0x10A SWAP3 SWAP2 POP PUSH3 0x10E JUMP JUMPDEST POP SWAP1 JUMP JUMPDEST JUMPDEST DUP1 DUP3 GT ISZERO PUSH3 0x10A JUMPI PUSH1 0x0 DUP2 SSTORE PUSH1 0x1 ADD PUSH3 0x10F JUMP JUMPDEST PUSH1 0x0 PUSH1 0x20 DUP3 DUP5 SUB SLT ISZERO PUSH3 0x137 JUMPI DUP1 DUP2 REVERT JUMPDEST DUP2 MLOAD PUSH1 0x1 PUSH1 0x1 PUSH1 0xA0 SHL SUB DUP2 AND DUP2 EQ PUSH3 0x14E JUMPI DUP2 DUP3 REVERT JUMPDEST SWAP4 SWAP3 POP POP POP JUMP JUMPDEST PUSH1 0x1 DUP2 DUP2 SHR SWAP1 DUP3 AND DUP1 PUSH3 0x16A JUMPI PUSH1 0x7F DUP3 AND SWAP2 POP JUMPDEST PUSH1 0x20 DUP3 LT DUP2 EQ ISZERO PUSH3 0x18C JUMPI PUSH4 0x4E487B71 PUSH1 0xE0 SHL PUSH1 0x0 MSTORE PUSH1 0x22 PUSH1 0x4 MSTORE PUSH1 0x24 PUSH1 0x0 REVERT JUMPDEST POP SWAP2 SWAP1 POP JUMP JUMPDEST PUSH2 0x3406 DUP1 PUSH3 0x1A2 PUSH1 0x0 CODECOPY PUSH1 0x0 RETURN INVALID PUSH1 0x80 PUSH1 0x40 MSTORE CALLVALUE DUP1 ISZERO PUSH2 0x10 JUMPI PUSH1 0x0 DUP1 REVERT JUMPDEST POP PUSH1 0x4 CALLDATASIZE LT PUSH2 0x158 JUMPI PUSH1 0x0 CALLDATALOAD PUSH1 0xE0 SHR DUP1 PUSH4 0x5C537096 GT PUSH2 0xC3 JUMPI DUP1 PUSH4 0xA6A54EC5 GT PUSH2 0x7C JUMPI DUP1 PUSH4 0xA6A54EC5 EQ PUSH2 0x2F9 JUMPI DUP1 PUSH4 0xB1A5042B EQ PUSH2 0x30C JUMPI DUP1 PUSH4 0xB1BC8C8D EQ PUSH2 0x31F JUMPI DUP1 PUSH4 0xBAFFD3DA EQ PUSH2 0x332 JUMPI DUP1 PUSH4 0xCFC5EFAC EQ PUSH2 0x345 JUMPI DUP1 PUSH4 0xECB0A33D EQ PUSH2 0x358 JUMPI PUSH1 0x0 DUP1 REVERT JUMPDEST DUP1 PUSH4 0x5C537096 EQ PUSH2 0x287 JUMPI DUP1 PUSH4 0x5F36788E EQ PUSH2 0x29A JUMPI DUP1 PUSH4 0x81DED150 EQ PUSH2 0x2AD JUMPI DUP1 PUSH4 0x83DFD03E EQ PUSH2 0x2C0 JUMPI DUP1 PUSH4 0x9E97C317 EQ PUSH2 0x2D3 JUMPI DUP1 PUSH4 0x9FE1FB72 EQ PUSH2 0x2E6 JUMPI PUSH1 0x0 DUP1 REVERT JUMPDEST DUP1 PUSH4 0x486FF0CD GT PUSH2 0x115 JUMPI DUP1 PUSH4 0x486FF0CD EQ PUSH2 0x1F4 JUMPI DUP1 PUSH4 0x4CE72C75 EQ PUSH2 0x1FC JUMPI DUP1 PUSH4 0x4EEC58A3 EQ PUSH2 0x20F JUMPI DUP1 PUSH4 0x4FF3EC60 EQ PUSH2 0x22F JUMPI DUP1 PUSH4 0x51DE13BF EQ PUSH2 0x242 JUMPI DUP1 PUSH4 0x572B6C05 EQ PUSH2 0x255 JUMPI PUSH1 0x0 DUP1 REVERT JUMPDEST DUP1 PUSH4 0x716DFA0 EQ PUSH2 0x15D JUMPI DUP1 PUSH4 0x11BC1CE0 EQ PUSH2 0x172 JUMPI DUP1 PUSH4 0x17289818 EQ PUSH2 0x185 JUMPI DUP1 PUSH4 0x25CA6B03 EQ PUSH2 0x1AE JUMPI DUP1 PUSH4 0x2AA2FD64 EQ PUSH2 0x1C1 JUMPI DUP1 PUSH4 0x47566E4F EQ PUSH2 0x1D4 JUMPI JUMPDEST PUSH1 0x0 DUP1 REVERT JUMPDEST PUSH2 0x170 PUSH2 0x16B CALLDATASIZE PUSH1 0x4 PUSH2 0x2D97 JUMP JUMPDEST PUSH2 0x36B JUMP JUMPDEST STOP JUMPDEST PUSH2 0x170 PUSH2 0x180 CALLDATASIZE PUSH1 0x4 PUSH2 0x2C77 JUMP JUMPDEST PUSH2 0x58C JUMP JUMPDEST PUSH2 0x198 PUSH2 0x193 CALLDATASIZE PUSH1 0x4 PUSH2 0x2E32 JUMP JUMPDEST PUSH2 0x6E8 JUMP JUMPDEST PUSH1 0x40 MLOAD PUSH2 0x1A5 SWAP2 SWAP1 PUSH2 0x2FEE JUMP JUMPDEST PUSH1 0x40 MLOAD DUP1 SWAP2 SUB SWAP1 RETURN JUMPDEST PUSH2 0x170 PUSH2 0x1BC CALLDATASIZE PUSH1 0x4 PUSH2 0x2C77 JUMP JUMPDEST PUSH2 0x8C7 JUMP JUMPDEST PUSH2 0x170 PUSH2 0x1CF CALLDATASIZE PUSH1 0x4 PUSH2 0x2B84 JUMP JUMPDEST PUSH2 0xA32 JUMP JUMPDEST PUSH2 0x1E7 PUSH2 0x1E2 CALLDATASIZE PUSH1 0x4 PUSH2 0x2B24 JUMP JUMPDEST PUSH2 0xBB0 JUMP JUMPDEST PUSH1 0x40 MLOAD PUSH2 0x1A5 SWAP2 SWAP1 PUSH2 0x309C JUMP JUMPDEST PUSH2 0x1E7 PUSH2 0xD1A JUMP JUMPDEST PUSH2 0x198 PUSH2 0x20A CALLDATASIZE PUSH1 0x4 PUSH2 0x2EC7 JUMP JUMPDEST PUSH2 0xDA8 JUMP JUMPDEST PUSH2 0x222 PUSH2 0x21D CALLDATASIZE PUSH1 0x4 PUSH2 0x2F82 JUMP JUMPDEST PUSH2 0xF4F JUMP JUMPDEST PUSH1 0x40 MLOAD PUSH2 0x1A5 SWAP2 SWAP1 PUSH2 0x303B JUMP JUMPDEST PUSH2 0x170 PUSH2 0x23D CALLDATASIZE PUSH1 0x4 PUSH2 0x2CF0 JUMP JUMPDEST PUSH2 0x10F3 JUMP JUMPDEST PUSH2 0x170 PUSH2 0x250 CALLDATASIZE PUSH1 0x4 PUSH2 0x2B24 JUMP JUMPDEST PUSH2 0x12EB JUMP JUMPDEST PUSH2 0x277 PUSH2 0x263 CALLDATASIZE PUSH1 0x4 PUSH2 0x2A85 JUMP JUMPDEST PUSH1 0x0 SLOAD PUSH1 0x1 PUSH1 0x1 PUSH1 0xA0 SHL SUB SWAP2 DUP3 AND SWAP2 AND EQ SWAP1 JUMP JUMPDEST PUSH1 0x40 MLOAD SWAP1 ISZERO ISZERO DUP2 MSTORE PUSH1 0x20 ADD PUSH2 0x1A5 JUMP JUMPDEST PUSH2 0x170 PUSH2 0x295 CALLDATASIZE PUSH1 0x4 PUSH2 0x2B84 JUMP JUMPDEST PUSH2 0x144E JUMP JUMPDEST PUSH2 0x170 PUSH2 0x2A8 CALLDATASIZE PUSH1 0x4 PUSH2 0x2BF4 JUMP JUMPDEST PUSH2 0x15D4 JUMP JUMPDEST PUSH2 0x170 PUSH2 0x2BB CALLDATASIZE PUSH1 0x4 PUSH2 0x2AD9 JUMP JUMPDEST PUSH2 0x17EC JUMP JUMPDEST PUSH2 0x222 PUSH2 0x2CE CALLDATASIZE PUSH1 0x4 PUSH2 0x2EC7 JUMP JUMPDEST PUSH2 0x1900 JUMP JUMPDEST PUSH2 0x1E7 PUSH2 0x2E1 CALLDATASIZE PUSH1 0x4 PUSH2 0x2C77 JUMP JUMPDEST PUSH2 0x1B28 JUMP JUMPDEST PUSH2 0x1E7 PUSH2 0x2F4 CALLDATASIZE PUSH1 0x4 PUSH2 0x2A9F JUMP JUMPDEST PUSH2 0x1C9A JUMP JUMPDEST PUSH2 0x222 PUSH2 0x307 CALLDATASIZE PUSH1 0x4 PUSH2 0x2F37 JUMP JUMPDEST PUSH2 0x1DD8 JUMP JUMPDEST PUSH2 0x1E7 PUSH2 0x31A CALLDATASIZE PUSH1 0x4 PUSH2 0x2B24 JUMP JUMPDEST PUSH2 0x1FE2 JUMP JUMPDEST PUSH2 0x198 PUSH2 0x32D CALLDATASIZE PUSH1 0x4 PUSH2 0x2E32 JUMP JUMPDEST PUSH2 0x212D JUMP JUMPDEST PUSH2 0x170 PUSH2 0x340 CALLDATASIZE PUSH1 0x4 PUSH2 0x2C77 JUMP JUMPDEST PUSH2 0x22F3 JUMP JUMPDEST PUSH2 0x198 PUSH2 0x353 CALLDATASIZE PUSH1 0x4 PUSH2 0x2F37 JUMP JUMPDEST PUSH2 0x242F JUMP JUMPDEST PUSH2 0x170 PUSH2 0x366 CALLDATASIZE PUSH1 0x4 PUSH2 0x2AD9 JUMP JUMPDEST PUSH2 0x259E JUMP JUMPDEST PUSH1 0x0 CHAINID DUP6 DUP1 MLOAD SWAP1 PUSH1 0x20 ADD KECCAK256 PUSH1 0x40 MLOAD PUSH1 0x20 ADD PUSH2 0x390 SWAP3 SWAP2 SWAP1 SWAP2 DUP3 MSTORE PUSH1 0x20 DUP3 ADD MSTORE PUSH1 0x40 ADD SWAP1 JUMP JUMPDEST PUSH1 0x40 DUP1 MLOAD DUP1 DUP4 SUB PUSH1 0x1F NOT ADD DUP2 MSTORE DUP3 DUP3 MSTORE DUP1 MLOAD PUSH1 0x20 SWAP2 DUP3 ADD KECCAK256 DUP8 MLOAD DUP9 DUP4 ADD KECCAK256 SWAP2 DUP5 ADD DUP2 SWAP1 MSTORE SWAP2 DUP4 ADD MSTORE SWAP2 POP PUSH1 0x0 SWAP1 PUSH1 0x60 ADD PUSH1 0x40 DUP1 MLOAD DUP1 DUP4 SUB PUSH1 0x1F NOT ADD DUP2 MSTORE DUP3 DUP3 MSTORE DUP1 MLOAD PUSH1 0x20 SWAP2 DUP3 ADD KECCAK256 DUP8 MLOAD DUP9 DUP4 ADD KECCAK256 SWAP2 DUP5 ADD DUP2 SWAP1 MSTORE SWAP2 DUP4 ADD MSTORE SWAP2 POP PUSH1 0x0 SWAP1 PUSH1 0x60 ADD PUSH1 0x40 MLOAD PUSH1 0x20 DUP2 DUP4 SUB SUB DUP2 MSTORE SWAP1 PUSH1 0x40 MSTORE DUP1 MLOAD SWAP1 PUSH1 0x20 ADD KECCAK256 PUSH1 0x0 SHR SWAP1 POP PUSH2 0x42D PUSH2 0x416 PUSH2 0x26BA JUMP JUMPDEST PUSH1 0x0 DUP5 DUP2 MSTORE PUSH1 0x3 PUSH1 0x20 MSTORE PUSH1 0x40 SWAP1 KECCAK256 PUSH1 0x1 ADD SWAP1 PUSH2 0x26E0 JUMP JUMPDEST PUSH2 0x470 JUMPI PUSH1 0x40 MLOAD PUSH3 0x461BCD PUSH1 0xE5 SHL DUP2 MSTORE PUSH1 0x20 PUSH1 0x4 DUP3 ADD MSTORE PUSH1 0xF PUSH1 0x24 DUP3 ADD MSTORE PUSH15 0x32B93916B83937B516B6B2B6B132B9 PUSH1 0x89 SHL PUSH1 0x44 DUP3 ADD MSTORE PUSH1 0x64 ADD JUMPDEST PUSH1 0x40 MLOAD DUP1 SWAP2 SUB SWAP1 REVERT JUMPDEST PUSH1 0x0 DUP2 DUP2 MSTORE PUSH1 0x5 PUSH1 0x20 MSTORE PUSH1 0x40 SWAP1 KECCAK256 DUP1 SLOAD PUSH2 0x489 SWAP1 PUSH2 0x334E JUMP JUMPDEST ISZERO SWAP1 POP PUSH2 0x4A8 JUMPI PUSH1 0x40 MLOAD PUSH3 0x461BCD PUSH1 0xE5 SHL DUP2 MSTORE PUSH1 0x4 ADD PUSH2 0x467 SWAP1 PUSH2 0x31FE JUMP JUMPDEST PUSH1 0x0 DUP5 MLOAD GT PUSH2 0x4C9 JUMPI PUSH1 0x40 MLOAD PUSH3 0x461BCD PUSH1 0xE5 SHL DUP2 MSTORE PUSH1 0x4 ADD PUSH2 0x467 SWAP1 PUSH2 0x3228 JUMP JUMPDEST PUSH1 0x0 DUP6 MLOAD GT PUSH2 0x4EA JUMPI PUSH1 0x40 MLOAD PUSH3 0x461BCD PUSH1 0xE5 SHL DUP2 MSTORE PUSH1 0x4 ADD PUSH2 0x467 SWAP1 PUSH2 0x3250 JUMP JUMPDEST PUSH1 0x0 DUP2 DUP2 MSTORE PUSH1 0x5 PUSH1 0x20 SWAP1 DUP2 MSTORE PUSH1 0x40 SWAP1 SWAP2 KECCAK256 DUP6 MLOAD PUSH2 0x509 SWAP3 DUP8 ADD SWAP1 PUSH2 0x28E9 JUMP JUMPDEST POP PUSH1 0x0 DUP3 DUP2 MSTORE PUSH1 0x3 PUSH1 0x20 SWAP1 DUP2 MSTORE PUSH1 0x40 DUP3 KECCAK256 DUP1 SLOAD PUSH1 0x1 DUP2 ADD DUP3 SSTORE SWAP1 DUP4 MSTORE SWAP2 DUP2 SWAP1 KECCAK256 DUP8 MLOAD PUSH2 0x53C SWAP4 SWAP2 SWAP1 SWAP2 ADD SWAP2 DUP9 ADD SWAP1 PUSH2 0x28E9 JUMP JUMPDEST POP PUSH32 0x15FB1D214ED195F7210E450A416A0640362C37A0A2D2D0AB63481F967AAE0E00 DUP8 DUP8 DUP8 DUP8 PUSH2 0x56A PUSH2 0x26BA JUMP JUMPDEST PUSH1 0x40 MLOAD PUSH2 0x57B SWAP6 SWAP5 SWAP4 SWAP3 SWAP2 SWAP1 PUSH2 0x316A JUMP JUMPDEST PUSH1 0x40 MLOAD DUP1 SWAP2 SUB SWAP1 LOG1 POP POP POP POP POP POP POP JUMP JUMPDEST PUSH1 0x0 CHAINID DUP5 DUP1 MLOAD SWAP1 PUSH1 0x20 ADD KECCAK256 PUSH1 0x40 MLOAD PUSH1 0x20 ADD PUSH2 0x5B1 SWAP3 SWAP2 SWAP1 SWAP2 DUP3 MSTORE PUSH1 0x20 DUP3 ADD MSTORE PUSH1 0x40 ADD SWAP1 JUMP JUMPDEST PUSH1 0x40 DUP1 MLOAD PUSH1 0x1F NOT DUP2 DUP5 SUB ADD DUP2 MSTORE DUP3 DUP3 MSTORE DUP1 MLOAD PUSH1 0x20 SWAP2 DUP3 ADD KECCAK256 DUP7 MLOAD DUP8 DUP4 ADD KECCAK256 DUP3 DUP6 ADD DUP3 SWAP1 MSTORE DUP5 DUP5 ADD MSTORE DUP3 MLOAD DUP1 DUP6 SUB DUP5 ADD DUP2 MSTORE PUSH1 0x60 DUP6 ADD DUP5 MSTORE DUP1 MLOAD SWAP1 DUP4 ADD KECCAK256 DUP7 MLOAD DUP8 DUP5 ADD KECCAK256 PUSH1 0x80 DUP7 ADD DUP3 SWAP1 MSTORE PUSH1 0xA0 DUP1 DUP8 ADD SWAP2 SWAP1 SWAP2 MSTORE DUP5 MLOAD DUP1 DUP8 SUB SWAP1 SWAP2 ADD DUP2 MSTORE PUSH1 0xC0 SWAP1 SWAP6 ADD DUP5 MSTORE DUP5 MLOAD SWAP5 DUP4 ADD SWAP5 SWAP1 SWAP5 KECCAK256 PUSH1 0x0 DUP2 DUP2 MSTORE PUSH1 0x5 SWAP1 SWAP4 MSTORE SWAP3 DUP3 KECCAK256 DUP1 SLOAD SWAP2 SWAP6 POP SWAP1 PUSH2 0x63A SWAP1 PUSH2 0x334E JUMP JUMPDEST SWAP1 POP GT PUSH2 0x659 JUMPI PUSH1 0x40 MLOAD PUSH3 0x461BCD PUSH1 0xE5 SHL DUP2 MSTORE PUSH1 0x4 ADD PUSH2 0x467 SWAP1 PUSH2 0x3278 JUMP JUMPDEST PUSH2 0x678 PUSH2 0x664 PUSH2 0x26BA JUMP JUMPDEST PUSH1 0x0 DUP4 DUP2 MSTORE PUSH1 0x4 PUSH1 0x20 MSTORE PUSH1 0x40 SWAP1 KECCAK256 SWAP1 PUSH2 0x2705 JUMP JUMPDEST POP PUSH2 0x69B PUSH2 0x684 PUSH2 0x26BA JUMP JUMPDEST PUSH1 0x0 DUP4 DUP2 MSTORE PUSH1 0x4 PUSH1 0x20 MSTORE PUSH1 0x40 SWAP1 KECCAK256 PUSH1 0x2 ADD SWAP1 PUSH2 0x271A JUMP JUMPDEST POP PUSH32 0xA70C9D49A7EF09401D07A7AAD126689C097B80DB50504CE9BA5CA8B6F6477FB8 DUP7 DUP7 DUP7 PUSH2 0x6C8 PUSH2 0x26BA JUMP JUMPDEST PUSH1 0x40 MLOAD PUSH2 0x6D8 SWAP5 SWAP4 SWAP3 SWAP2 SWAP1 PUSH2 0x3117 JUMP JUMPDEST PUSH1 0x40 MLOAD DUP1 SWAP2 SUB SWAP1 LOG1 POP POP POP POP POP POP JUMP JUMPDEST PUSH1 0x60 PUSH1 0x0 CHAINID DUP8 DUP1 MLOAD SWAP1 PUSH1 0x20 ADD KECCAK256 PUSH1 0x40 MLOAD PUSH1 0x20 ADD PUSH2 0x70F SWAP3 SWAP2 SWAP1 SWAP2 DUP3 MSTORE PUSH1 0x20 DUP3 ADD MSTORE PUSH1 0x40 ADD SWAP1 JUMP JUMPDEST PUSH1 0x40 DUP1 MLOAD DUP1 DUP4 SUB PUSH1 0x1F NOT ADD DUP2 MSTORE DUP3 DUP3 MSTORE DUP1 MLOAD PUSH1 0x20 SWAP2 DUP3 ADD KECCAK256 DUP10 MLOAD DUP11 DUP4 ADD KECCAK256 SWAP2 DUP5 ADD DUP2 SWAP1 MSTORE SWAP2 DUP4 ADD MSTORE SWAP2 POP PUSH1 0x0 SWAP1 PUSH1 0x60 ADD PUSH1 0x40 DUP1 MLOAD DUP1 DUP4 SUB PUSH1 0x1F NOT ADD DUP2 MSTORE DUP3 DUP3 MSTORE DUP1 MLOAD PUSH1 0x20 SWAP2 DUP3 ADD KECCAK256 DUP10 MLOAD DUP11 DUP4 ADD KECCAK256 SWAP2 DUP5 ADD DUP2 SWAP1 MSTORE SWAP2 DUP4 ADD MSTORE SWAP2 POP PUSH1 0x0 SWAP1 PUSH1 0x60 ADD PUSH1 0x40 DUP1 MLOAD PUSH1 0x1F NOT DUP2 DUP5 SUB ADD DUP2 MSTORE SWAP2 SWAP1 MSTORE DUP1 MLOAD PUSH1 0x20 SWAP1 SWAP2 ADD KECCAK256 SWAP1 POP PUSH1 0x0 PUSH2 0x795 DUP7 DUP9 PUSH2 0x3318 JUMP JUMPDEST SWAP1 POP PUSH1 0x0 PUSH2 0x7A3 DUP8 DUP4 PUSH2 0x3300 JUMP JUMPDEST PUSH1 0x0 DUP5 DUP2 MSTORE PUSH1 0x4 PUSH1 0x20 MSTORE PUSH1 0x40 SWAP1 KECCAK256 SWAP1 SWAP2 POP PUSH2 0x7C0 SWAP1 PUSH1 0x2 ADD PUSH2 0x272F JUMP JUMPDEST DUP2 GT ISZERO PUSH2 0x7E4 JUMPI PUSH1 0x0 DUP4 DUP2 MSTORE PUSH1 0x4 PUSH1 0x20 MSTORE PUSH1 0x40 SWAP1 KECCAK256 PUSH2 0x7E1 SWAP1 PUSH1 0x2 ADD PUSH2 0x272F JUMP JUMPDEST SWAP1 POP JUMPDEST PUSH1 0x0 PUSH2 0x7F0 DUP4 DUP4 PUSH2 0x3337 JUMP JUMPDEST PUSH1 0x1 PUSH1 0x1 PUSH1 0x40 SHL SUB DUP2 GT ISZERO PUSH2 0x815 JUMPI PUSH4 0x4E487B71 PUSH1 0xE0 SHL PUSH1 0x0 MSTORE PUSH1 0x41 PUSH1 0x4 MSTORE PUSH1 0x24 PUSH1 0x0 REVERT JUMPDEST PUSH1 0x40 MLOAD SWAP1 DUP1 DUP3 MSTORE DUP1 PUSH1 0x20 MUL PUSH1 0x20 ADD DUP3 ADD PUSH1 0x40 MSTORE DUP1 ISZERO PUSH2 0x83E JUMPI DUP2 PUSH1 0x20 ADD PUSH1 0x20 DUP3 MUL DUP1 CALLDATASIZE DUP4 CALLDATACOPY ADD SWAP1 POP JUMPDEST POP SWAP1 POP DUP3 JUMPDEST DUP3 DUP2 LT ISZERO PUSH2 0x8B7 JUMPI PUSH1 0x0 DUP6 DUP2 MSTORE PUSH1 0x4 PUSH1 0x20 MSTORE PUSH1 0x40 SWAP1 KECCAK256 PUSH2 0x866 SWAP1 PUSH1 0x2 ADD DUP3 PUSH2 0x2739 JUMP JUMPDEST DUP3 PUSH2 0x871 DUP7 DUP5 PUSH2 0x3337 JUMP JUMPDEST DUP2 MLOAD DUP2 LT PUSH2 0x88F JUMPI PUSH4 0x4E487B71 PUSH1 0xE0 SHL PUSH1 0x0 MSTORE PUSH1 0x32 PUSH1 0x4 MSTORE PUSH1 0x24 PUSH1 0x0 REVERT JUMPDEST PUSH1 0x1 PUSH1 0x1 PUSH1 0xA0 SHL SUB SWAP1 SWAP3 AND PUSH1 0x20 SWAP3 DUP4 MUL SWAP2 SWAP1 SWAP2 ADD SWAP1 SWAP2 ADD MSTORE PUSH2 0x8B0 DUP2 PUSH2 0x3389 JUMP JUMPDEST SWAP1 POP PUSH2 0x843 JUMP JUMPDEST POP SWAP12 SWAP11 POP POP POP POP POP POP POP POP POP POP POP JUMP JUMPDEST PUSH1 0x0 CHAINID DUP5 DUP1 MLOAD SWAP1 PUSH1 0x20 ADD KECCAK256 PUSH1 0x40 MLOAD PUSH1 0x20 ADD PUSH2 0x8EC SWAP3 SWAP2 SWAP1 SWAP2 DUP3 MSTORE PUSH1 0x20 DUP3 ADD MSTORE PUSH1 0x40 ADD SWAP1 JUMP JUMPDEST PUSH1 0x40 DUP1 MLOAD PUSH1 0x1F NOT DUP2 DUP5 SUB ADD DUP2 MSTORE DUP3 DUP3 MSTORE DUP1 MLOAD PUSH1 0x20 SWAP2 DUP3 ADD KECCAK256 DUP7 MLOAD DUP8 DUP4 ADD KECCAK256 DUP3 DUP6 ADD DUP3 SWAP1 MSTORE DUP5 DUP5 ADD MSTORE DUP3 MLOAD DUP1 DUP6 SUB DUP5 ADD DUP2 MSTORE PUSH1 0x60 SWAP1 SWAP5 ADD SWAP1 SWAP3 MSTORE DUP3 MLOAD SWAP3 ADD SWAP2 SWAP1 SWAP2 KECCAK256 SWAP1 SWAP2 POP PUSH2 0x952 PUSH2 0x93B PUSH2 0x26BA JUMP JUMPDEST PUSH1 0x0 DUP5 DUP2 MSTORE PUSH1 0x2 PUSH1 0x20 MSTORE PUSH1 0x40 SWAP1 KECCAK256 PUSH1 0x1 ADD SWAP1 PUSH2 0x26E0 JUMP JUMPDEST PUSH2 0x96E JUMPI PUSH1 0x40 MLOAD PUSH3 0x461BCD PUSH1 0xE5 SHL DUP2 MSTORE PUSH1 0x4 ADD PUSH2 0x467 SWAP1 PUSH2 0x32A7 JUMP JUMPDEST PUSH1 0x0 DUP2 DUP2 MSTORE PUSH1 0x5 PUSH1 0x20 MSTORE PUSH1 0x40 DUP2 KECCAK256 DUP1 SLOAD PUSH2 0x987 SWAP1 PUSH2 0x334E JUMP JUMPDEST SWAP1 POP GT PUSH2 0x9A6 JUMPI PUSH1 0x40 MLOAD PUSH3 0x461BCD PUSH1 0xE5 SHL DUP2 MSTORE PUSH1 0x4 ADD PUSH2 0x467 SWAP1 PUSH2 0x31D2 JUMP JUMPDEST PUSH1 0x0 DUP4 MLOAD GT PUSH2 0x9C7 JUMPI PUSH1 0x40 MLOAD PUSH3 0x461BCD PUSH1 0xE5 SHL DUP2 MSTORE PUSH1 0x4 ADD PUSH2 0x467 SWAP1 PUSH2 0x3228 JUMP JUMPDEST PUSH1 0x0 DUP2 DUP2 MSTORE PUSH1 0x5 PUSH1 0x20 SWAP1 DUP2 MSTORE PUSH1 0x40 SWAP1 SWAP2 KECCAK256 DUP5 MLOAD PUSH2 0x9E6 SWAP3 DUP7 ADD SWAP1 PUSH2 0x28E9 JUMP JUMPDEST POP PUSH32 0xD837747757BF732C911148D7C5825D52DE171F849E76143EEC98FA514E263C8A DUP6 DUP6 DUP6 PUSH2 0xA13 PUSH2 0x26BA JUMP JUMPDEST PUSH1 0x40 MLOAD PUSH2 0xA23 SWAP5 SWAP4 SWAP3 SWAP2 SWAP1 PUSH2 0x3117 JUMP JUMPDEST PUSH1 0x40 MLOAD DUP1 SWAP2 SUB SWAP1 LOG1 POP POP POP POP POP JUMP JUMPDEST PUSH1 0x0 CHAINID DUP5 DUP1 MLOAD SWAP1 PUSH1 0x20 ADD KECCAK256 PUSH1 0x40 MLOAD PUSH1 0x20 ADD PUSH2 0xA57 SWAP3 SWAP2 SWAP1 SWAP2 DUP3 MSTORE PUSH1 0x20 DUP3 ADD MSTORE PUSH1 0x40 ADD SWAP1 JUMP JUMPDEST PUSH1 0x40 DUP1 MLOAD DUP1 DUP4 SUB PUSH1 0x1F NOT ADD DUP2 MSTORE DUP3 DUP3 MSTORE DUP1 MLOAD PUSH1 0x20 SWAP2 DUP3 ADD KECCAK256 DUP7 MLOAD DUP8 DUP4 ADD KECCAK256 SWAP2 DUP5 ADD DUP2 SWAP1 MSTORE SWAP2 DUP4 ADD MSTORE SWAP2 POP PUSH1 0x0 SWAP1 PUSH1 0x60 ADD PUSH1 0x40 DUP1 MLOAD PUSH1 0x1F NOT DUP2 DUP5 SUB ADD DUP2 MSTORE SWAP2 DUP2 MSTORE DUP2 MLOAD PUSH1 0x20 SWAP3 DUP4 ADD KECCAK256 PUSH1 0x0 DUP2 DUP2 MSTORE PUSH1 0x5 SWAP1 SWAP4 MSTORE SWAP1 DUP3 KECCAK256 DUP1 SLOAD SWAP2 SWAP4 POP SWAP1 PUSH2 0xABB SWAP1 PUSH2 0x334E JUMP JUMPDEST SWAP1 POP GT PUSH2 0xADA JUMPI PUSH1 0x40 MLOAD PUSH3 0x461BCD PUSH1 0xE5 SHL DUP2 MSTORE PUSH1 0x4 ADD PUSH2 0x467 SWAP1 PUSH2 0x31D2 JUMP JUMPDEST PUSH2 0xAE5 PUSH2 0x93B PUSH2 0x26BA JUMP JUMPDEST ISZERO ISZERO PUSH1 0x1 EQ PUSH2 0xB06 JUMPI PUSH1 0x40 MLOAD PUSH3 0x461BCD PUSH1 0xE5 SHL DUP2 MSTORE PUSH1 0x4 ADD PUSH2 0x467 SWAP1 PUSH2 0x32A7 JUMP JUMPDEST PUSH1 0x0 DUP2 DUP2 MSTORE PUSH1 0x3 PUSH1 0x20 MSTORE PUSH1 0x40 SWAP1 KECCAK256 PUSH2 0xB21 SWAP1 PUSH1 0x1 ADD DUP5 PUSH2 0x26E0 JUMP JUMPDEST ISZERO PUSH2 0xB61 JUMPI PUSH1 0x40 MLOAD PUSH3 0x461BCD PUSH1 0xE5 SHL DUP2 MSTORE PUSH1 0x20 PUSH1 0x4 DUP3 ADD MSTORE PUSH1 0x10 PUSH1 0x24 DUP3 ADD MSTORE PUSH16 0x195C9C8B5B595B58995C8B595E1A5CDD PUSH1 0x82 SHL PUSH1 0x44 DUP3 ADD MSTORE PUSH1 0x64 ADD PUSH2 0x467 JUMP JUMPDEST PUSH1 0x0 DUP2 DUP2 MSTORE PUSH1 0x3 PUSH1 0x20 MSTORE PUSH1 0x40 SWAP1 KECCAK256 PUSH2 0xB7C SWAP1 PUSH1 0x1 ADD DUP5 PUSH2 0x2705 JUMP JUMPDEST POP PUSH32 0x8EB5DC57E01DA32E2B98214D39EBDD82CD801D261855D5F84B868B5F140A2980 DUP6 DUP6 DUP6 PUSH1 0x40 MLOAD PUSH2 0xA23 SWAP4 SWAP3 SWAP2 SWAP1 PUSH2 0x30D9 JUMP JUMPDEST PUSH1 0x60 PUSH1 0x0 CHAINID DUP5 DUP1 MLOAD SWAP1 PUSH1 0x20 ADD KECCAK256 PUSH1 0x40 MLOAD PUSH1 0x20 ADD PUSH2 0xBD7 SWAP3 SWAP2 SWAP1 SWAP2 DUP3 MSTORE PUSH1 0x20 DUP3 ADD MSTORE PUSH1 0x40 ADD SWAP1 JUMP JUMPDEST PUSH1 0x40 DUP1 MLOAD DUP1 DUP4 SUB PUSH1 0x1F NOT ADD DUP2 MSTORE DUP3 DUP3 MSTORE DUP1 MLOAD PUSH1 0x20 SWAP2 DUP3 ADD KECCAK256 DUP7 MLOAD DUP8 DUP4 ADD KECCAK256 SWAP2 DUP5 ADD DUP2 SWAP1 MSTORE SWAP2 DUP4 ADD MSTORE SWAP2 POP PUSH1 0x0 SWAP1 PUSH1 0x60 ADD PUSH1 0x40 DUP1 MLOAD PUSH1 0x1F NOT DUP2 DUP5 SUB ADD DUP2 MSTORE SWAP2 DUP2 MSTORE DUP2 MLOAD PUSH1 0x20 SWAP3 DUP4 ADD KECCAK256 PUSH1 0x0 DUP2 DUP2 MSTORE PUSH1 0x3 SWAP1 SWAP4 MSTORE SWAP2 KECCAK256 DUP1 SLOAD SWAP2 SWAP3 POP SWAP1 PUSH2 0xC4D JUMPI PUSH1 0x40 MLOAD PUSH3 0x461BCD PUSH1 0xE5 SHL DUP2 MSTORE PUSH1 0x4 ADD PUSH2 0x467 SWAP1 PUSH2 0x31D2 JUMP JUMPDEST DUP1 SLOAD DUP2 SWAP1 PUSH2 0xC5D SWAP1 PUSH1 0x1 SWAP1 PUSH2 0x3337 JUMP JUMPDEST DUP2 SLOAD DUP2 LT PUSH2 0xC7B JUMPI PUSH4 0x4E487B71 PUSH1 0xE0 SHL PUSH1 0x0 MSTORE PUSH1 0x32 PUSH1 0x4 MSTORE PUSH1 0x24 PUSH1 0x0 REVERT JUMPDEST SWAP1 PUSH1 0x0 MSTORE PUSH1 0x20 PUSH1 0x0 KECCAK256 ADD DUP1 SLOAD PUSH2 0xC90 SWAP1 PUSH2 0x334E JUMP JUMPDEST DUP1 PUSH1 0x1F ADD PUSH1 0x20 DUP1 SWAP2 DIV MUL PUSH1 0x20 ADD PUSH1 0x40 MLOAD SWAP1 DUP2 ADD PUSH1 0x40 MSTORE DUP1 SWAP3 SWAP2 SWAP1 DUP2 DUP2 MSTORE PUSH1 0x20 ADD DUP3 DUP1 SLOAD PUSH2 0xCBC SWAP1 PUSH2 0x334E JUMP JUMPDEST DUP1 ISZERO PUSH2 0xD09 JUMPI DUP1 PUSH1 0x1F LT PUSH2 0xCDE JUMPI PUSH2 0x100 DUP1 DUP4 SLOAD DIV MUL DUP4 MSTORE SWAP2 PUSH1 0x20 ADD SWAP2 PUSH2 0xD09 JUMP JUMPDEST DUP3 ADD SWAP2 SWAP1 PUSH1 0x0 MSTORE PUSH1 0x20 PUSH1 0x0 KECCAK256 SWAP1 JUMPDEST DUP2 SLOAD DUP2 MSTORE SWAP1 PUSH1 0x1 ADD SWAP1 PUSH1 0x20 ADD DUP1 DUP4 GT PUSH2 0xCEC JUMPI DUP3 SWAP1 SUB PUSH1 0x1F AND DUP3 ADD SWAP2 JUMPDEST POP POP POP POP POP SWAP4 POP POP POP POP JUMPDEST SWAP3 SWAP2 POP POP JUMP JUMPDEST PUSH1 0x6 DUP1 SLOAD PUSH2 0xD27 SWAP1 PUSH2 0x334E JUMP JUMPDEST DUP1 PUSH1 0x1F ADD PUSH1 0x20 DUP1 SWAP2 DIV MUL PUSH1 0x20 ADD PUSH1 0x40 MLOAD SWAP1 DUP2 ADD PUSH1 0x40 MSTORE DUP1 SWAP3 SWAP2 SWAP1 DUP2 DUP2 MSTORE PUSH1 0x20 ADD DUP3 DUP1 SLOAD PUSH2 0xD53 SWAP1 PUSH2 0x334E JUMP JUMPDEST DUP1 ISZERO PUSH2 0xDA0 JUMPI DUP1 PUSH1 0x1F LT PUSH2 0xD75 JUMPI PUSH2 0x100 DUP1 DUP4 SLOAD DIV MUL DUP4 MSTORE SWAP2 PUSH1 0x20 ADD SWAP2 PUSH2 0xDA0 JUMP JUMPDEST DUP3 ADD SWAP2 SWAP1 PUSH1 0x0 MSTORE PUSH1 0x20 PUSH1 0x0 KECCAK256 SWAP1 JUMPDEST DUP2 SLOAD DUP2 MSTORE SWAP1 PUSH1 0x1 ADD SWAP1 PUSH1 0x20 ADD DUP1 DUP4 GT PUSH2 0xD83 JUMPI DUP3 SWAP1 SUB PUSH1 0x1F AND DUP3 ADD SWAP2 JUMPDEST POP POP POP POP POP DUP2 JUMP JUMPDEST PUSH1 0x60 PUSH1 0x0 CHAINID DUP7 DUP1 MLOAD SWAP1 PUSH1 0x20 ADD KECCAK256 PUSH1 0x40 MLOAD PUSH1 0x20 ADD PUSH2 0xDCF SWAP3 SWAP2 SWAP1 SWAP2 DUP3 MSTORE PUSH1 0x20 DUP3 ADD MSTORE PUSH1 0x40 ADD SWAP1 JUMP JUMPDEST PUSH1 0x40 DUP1 MLOAD PUSH1 0x1F NOT DUP2 DUP5 SUB ADD DUP2 MSTORE DUP3 DUP3 MSTORE DUP1 MLOAD PUSH1 0x20 SWAP2 DUP3 ADD KECCAK256 DUP9 MLOAD DUP10 DUP4 ADD KECCAK256 DUP3 DUP6 ADD DUP3 SWAP1 MSTORE DUP5 DUP5 ADD MSTORE DUP3 MLOAD DUP1 DUP6 SUB DUP5 ADD DUP2 MSTORE PUSH1 0x60 SWAP1 SWAP5 ADD SWAP1 SWAP3 MSTORE DUP3 MLOAD SWAP3 ADD SWAP2 SWAP1 SWAP2 KECCAK256 SWAP1 SWAP2 POP PUSH1 0x0 PUSH2 0xE1F DUP6 DUP8 PUSH2 0x3318 JUMP JUMPDEST SWAP1 POP PUSH1 0x0 PUSH2 0xE2D DUP7 DUP4 PUSH2 0x3300 JUMP JUMPDEST PUSH1 0x0 DUP5 DUP2 MSTORE PUSH1 0x3 PUSH1 0x20 MSTORE PUSH1 0x40 SWAP1 KECCAK256 SWAP1 SWAP2 POP PUSH2 0xE4A SWAP1 PUSH1 0x1 ADD PUSH2 0x272F JUMP JUMPDEST DUP2 GT ISZERO PUSH2 0xE6E JUMPI PUSH1 0x0 DUP4 DUP2 MSTORE PUSH1 0x3 PUSH1 0x20 MSTORE PUSH1 0x40 SWAP1 KECCAK256 PUSH2 0xE6B SWAP1 PUSH1 0x1 ADD PUSH2 0x272F JUMP JUMPDEST SWAP1 POP JUMPDEST PUSH1 0x0 PUSH2 0xE7A DUP4 DUP4 PUSH2 0x3337 JUMP JUMPDEST PUSH1 0x1 PUSH1 0x1 PUSH1 0x40 SHL SUB DUP2 GT ISZERO PUSH2 0xE9F JUMPI PUSH4 0x4E487B71 PUSH1 0xE0 SHL PUSH1 0x0 MSTORE PUSH1 0x41 PUSH1 0x4 MSTORE PUSH1 0x24 PUSH1 0x0 REVERT JUMPDEST PUSH1 0x40 MLOAD SWAP1 DUP1 DUP3 MSTORE DUP1 PUSH1 0x20 MUL PUSH1 0x20 ADD DUP3 ADD PUSH1 0x40 MSTORE DUP1 ISZERO PUSH2 0xEC8 JUMPI DUP2 PUSH1 0x20 ADD PUSH1 0x20 DUP3 MUL DUP1 CALLDATASIZE DUP4 CALLDATACOPY ADD SWAP1 POP JUMPDEST POP SWAP1 POP DUP3 JUMPDEST DUP3 DUP2 LT ISZERO PUSH2 0xF41 JUMPI PUSH1 0x0 DUP6 DUP2 MSTORE PUSH1 0x3 PUSH1 0x20 MSTORE PUSH1 0x40 SWAP1 KECCAK256 PUSH2 0xEF0 SWAP1 PUSH1 0x1 ADD DUP3 PUSH2 0x2739 JUMP JUMPDEST DUP3 PUSH2 0xEFB DUP7 DUP5 PUSH2 0x3337 JUMP JUMPDEST DUP2 MLOAD DUP2 LT PUSH2 0xF19 JUMPI PUSH4 0x4E487B71 PUSH1 0xE0 SHL PUSH1 0x0 MSTORE PUSH1 0x32 PUSH1 0x4 MSTORE PUSH1 0x24 PUSH1 0x0 REVERT JUMPDEST PUSH1 0x1 PUSH1 0x1 PUSH1 0xA0 SHL SUB SWAP1 SWAP3 AND PUSH1 0x20 SWAP3 DUP4 MUL SWAP2 SWAP1 SWAP2 ADD SWAP1 SWAP2 ADD MSTORE PUSH2 0xF3A DUP2 PUSH2 0x3389 JUMP JUMPDEST SWAP1 POP PUSH2 0xECD JUMP JUMPDEST POP SWAP10 SWAP9 POP POP POP POP POP POP POP POP POP JUMP JUMPDEST PUSH1 0x60 PUSH1 0x0 PUSH2 0xF5D DUP4 DUP6 PUSH2 0x3318 JUMP JUMPDEST SWAP1 POP PUSH1 0x0 PUSH2 0xF6B DUP5 DUP4 PUSH2 0x3300 JUMP JUMPDEST PUSH1 0x1 SLOAD SWAP1 SWAP2 POP DUP2 GT ISZERO PUSH2 0xF7D JUMPI POP PUSH1 0x1 SLOAD JUMPDEST PUSH1 0x0 PUSH2 0xF89 DUP4 DUP4 PUSH2 0x3337 JUMP JUMPDEST PUSH1 0x1 PUSH1 0x1 PUSH1 0x40 SHL SUB DUP2 GT ISZERO PUSH2 0xFAE JUMPI PUSH4 0x4E487B71 PUSH1 0xE0 SHL PUSH1 0x0 MSTORE PUSH1 0x41 PUSH1 0x4 MSTORE PUSH1 0x24 PUSH1 0x0 REVERT JUMPDEST PUSH1 0x40 MLOAD SWAP1 DUP1 DUP3 MSTORE DUP1 PUSH1 0x20 MUL PUSH1 0x20 ADD DUP3 ADD PUSH1 0x40 MSTORE DUP1 ISZERO PUSH2 0xFE1 JUMPI DUP2 PUSH1 0x20 ADD JUMPDEST PUSH1 0x60 DUP2 MSTORE PUSH1 0x20 ADD SWAP1 PUSH1 0x1 SWAP1 SUB SWAP1 DUP2 PUSH2 0xFCC JUMPI SWAP1 POP JUMPDEST POP SWAP1 POP DUP3 JUMPDEST DUP3 DUP2 LT ISZERO PUSH2 0x10E9 JUMPI PUSH1 0x1 DUP2 DUP2 SLOAD DUP2 LT PUSH2 0x100F JUMPI PUSH4 0x4E487B71 PUSH1 0xE0 SHL PUSH1 0x0 MSTORE PUSH1 0x32 PUSH1 0x4 MSTORE PUSH1 0x24 PUSH1 0x0 REVERT JUMPDEST SWAP1 PUSH1 0x0 MSTORE PUSH1 0x20 PUSH1 0x0 KECCAK256 ADD DUP1 SLOAD PUSH2 0x1024 SWAP1 PUSH2 0x334E JUMP JUMPDEST DUP1 PUSH1 0x1F ADD PUSH1 0x20 DUP1 SWAP2 DIV MUL PUSH1 0x20 ADD PUSH1 0x40 MLOAD SWAP1 DUP2 ADD PUSH1 0x40 MSTORE DUP1 SWAP3 SWAP2 SWAP1 DUP2 DUP2 MSTORE PUSH1 0x20 ADD DUP3 DUP1 SLOAD PUSH2 0x1050 SWAP1 PUSH2 0x334E JUMP JUMPDEST DUP1 ISZERO PUSH2 0x109D JUMPI DUP1 PUSH1 0x1F LT PUSH2 0x1072 JUMPI PUSH2 0x100 DUP1 DUP4 SLOAD DIV MUL DUP4 MSTORE SWAP2 PUSH1 0x20 ADD SWAP2 PUSH2 0x109D JUMP JUMPDEST DUP3 ADD SWAP2 SWAP1 PUSH1 0x0 MSTORE PUSH1 0x20 PUSH1 0x0 KECCAK256 SWAP1 JUMPDEST DUP2 SLOAD DUP2 MSTORE SWAP1 PUSH1 0x1 ADD SWAP1 PUSH1 0x20 ADD DUP1 DUP4 GT PUSH2 0x1080 JUMPI DUP3 SWAP1 SUB PUSH1 0x1F AND DUP3 ADD SWAP2 JUMPDEST POP POP POP POP POP DUP3 DUP6 DUP4 PUSH2 0x10AF SWAP2 SWAP1 PUSH2 0x3337 JUMP JUMPDEST DUP2 MLOAD DUP2 LT PUSH2 0x10CD JUMPI PUSH4 0x4E487B71 PUSH1 0xE0 SHL PUSH1 0x0 MSTORE PUSH1 0x32 PUSH1 0x4 MSTORE PUSH1 0x24 PUSH1 0x0 REVERT JUMPDEST PUSH1 0x20 MUL PUSH1 0x20 ADD ADD DUP2 SWAP1 MSTORE POP DUP1 PUSH2 0x10E2 SWAP1 PUSH2 0x3389 JUMP JUMPDEST SWAP1 POP PUSH2 0xFE6 JUMP JUMPDEST POP SWAP6 SWAP5 POP POP POP POP POP JUMP JUMPDEST PUSH1 0x0 CHAINID DUP6 DUP1 MLOAD SWAP1 PUSH1 0x20 ADD KECCAK256 PUSH1 0x40 MLOAD PUSH1 0x20 ADD PUSH2 0x1118 SWAP3 SWAP2 SWAP1 SWAP2 DUP3 MSTORE PUSH1 0x20 DUP3 ADD MSTORE PUSH1 0x40 ADD SWAP1 JUMP JUMPDEST PUSH1 0x40 DUP1 MLOAD PUSH1 0x1F NOT DUP2 DUP5 SUB ADD DUP2 MSTORE DUP3 DUP3 MSTORE DUP1 MLOAD PUSH1 0x20 SWAP2 DUP3 ADD KECCAK256 DUP8 MLOAD DUP9 DUP4 ADD KECCAK256 DUP3 DUP6 ADD DUP3 SWAP1 MSTORE DUP5 DUP5 ADD MSTORE DUP3 MLOAD DUP1 DUP6 SUB DUP5 ADD DUP2 MSTORE PUSH1 0x60 SWAP1 SWAP5 ADD SWAP1 SWAP3 MSTORE DUP3 MLOAD SWAP3 ADD SWAP2 SWAP1 SWAP2 KECCAK256 SWAP1 SWAP2 POP PUSH2 0x1167 PUSH2 0x93B PUSH2 0x26BA JUMP JUMPDEST PUSH2 0x1183 JUMPI PUSH1 0x40 MLOAD PUSH3 0x461BCD PUSH1 0xE5 SHL DUP2 MSTORE PUSH1 0x4 ADD PUSH2 0x467 SWAP1 PUSH2 0x32A7 JUMP JUMPDEST PUSH1 0x0 DUP2 DUP2 MSTORE PUSH1 0x5 PUSH1 0x20 MSTORE PUSH1 0x40 SWAP1 KECCAK256 DUP1 SLOAD PUSH2 0x119C SWAP1 PUSH2 0x334E JUMP JUMPDEST ISZERO SWAP1 POP PUSH2 0x11BB JUMPI PUSH1 0x40 MLOAD PUSH3 0x461BCD PUSH1 0xE5 SHL DUP2 MSTORE PUSH1 0x4 ADD PUSH2 0x467 SWAP1 PUSH2 0x31FE JUMP JUMPDEST PUSH1 0x0 DUP5 MLOAD GT PUSH2 0x11DC JUMPI PUSH1 0x40 MLOAD PUSH3 0x461BCD PUSH1 0xE5 SHL DUP2 MSTORE PUSH1 0x4 ADD PUSH2 0x467 SWAP1 PUSH2 0x3228 JUMP JUMPDEST PUSH1 0x0 DUP6 MLOAD GT PUSH2 0x11FD JUMPI PUSH1 0x40 MLOAD PUSH3 0x461BCD PUSH1 0xE5 SHL DUP2 MSTORE PUSH1 0x4 ADD PUSH2 0x467 SWAP1 PUSH2 0x3250 JUMP JUMPDEST PUSH1 0x0 DUP2 DUP2 MSTORE PUSH1 0x5 PUSH1 0x20 SWAP1 DUP2 MSTORE PUSH1 0x40 SWAP1 SWAP2 KECCAK256 DUP6 MLOAD PUSH2 0x121C SWAP3 DUP8 ADD SWAP1 PUSH2 0x28E9 JUMP JUMPDEST POP PUSH1 0x0 DUP3 DUP2 MSTORE PUSH1 0x2 PUSH1 0x20 SWAP1 DUP2 MSTORE PUSH1 0x40 DUP3 KECCAK256 DUP1 SLOAD PUSH1 0x1 DUP2 ADD DUP3 SSTORE SWAP1 DUP4 MSTORE SWAP2 DUP2 SWAP1 KECCAK256 DUP8 MLOAD PUSH2 0x124F SWAP4 SWAP2 SWAP1 SWAP2 ADD SWAP2 DUP9 ADD SWAP1 PUSH2 0x28E9 JUMP JUMPDEST POP PUSH1 0x0 JUMPDEST DUP4 MLOAD DUP2 LT ISZERO PUSH2 0x12BE JUMPI PUSH2 0x12AB DUP5 DUP3 DUP2 MLOAD DUP2 LT PUSH2 0x127F JUMPI PUSH4 0x4E487B71 PUSH1 0xE0 SHL PUSH1 0x0 MSTORE PUSH1 0x32 PUSH1 0x4 MSTORE PUSH1 0x24 PUSH1 0x0 REVERT JUMPDEST PUSH1 0x20 MUL PUSH1 0x20 ADD ADD MLOAD PUSH1 0x3 PUSH1 0x0 DUP6 DUP2 MSTORE PUSH1 0x20 ADD SWAP1 DUP2 MSTORE PUSH1 0x20 ADD PUSH1 0x0 KECCAK256 PUSH1 0x1 ADD PUSH2 0x2705 SWAP1 SWAP2 SWAP1 PUSH4 0xFFFFFFFF AND JUMP JUMPDEST POP DUP1 PUSH2 0x12B6 DUP2 PUSH2 0x3389 JUMP JUMPDEST SWAP2 POP POP PUSH2 0x1253 JUMP JUMPDEST POP PUSH32 0x11F7F07DE1D35C43B47EDD8A19E7F8208259CDF66344DE81856C5BB7C798DB26 DUP7 DUP7 DUP7 PUSH2 0x6C8 PUSH2 0x26BA JUMP JUMPDEST PUSH1 0x0 CHAINID DUP4 DUP1 MLOAD SWAP1 PUSH1 0x20 ADD KECCAK256 PUSH1 0x40 MLOAD PUSH1 0x20 ADD PUSH2 0x1310 SWAP3 SWAP2 SWAP1 SWAP2 DUP3 MSTORE PUSH1 0x20 DUP3 ADD MSTORE PUSH1 0x40 ADD SWAP1 JUMP JUMPDEST PUSH1 0x40 MLOAD PUSH1 0x20 DUP2 DUP4 SUB SUB DUP2 MSTORE SWAP1 PUSH1 0x40 MSTORE DUP1 MLOAD SWAP1 PUSH1 0x20 ADD KECCAK256 PUSH1 0x0 SHR SWAP1 POP PUSH2 0x134D PUSH2 0x1336 PUSH2 0x26BA JUMP JUMPDEST PUSH1 0x0 DUP4 DUP2 MSTORE PUSH1 0x2 PUSH1 0x20 MSTORE PUSH1 0x40 SWAP1 KECCAK256 PUSH1 0x1 ADD SWAP1 PUSH2 0x26E0 JUMP JUMPDEST PUSH2 0x1369 JUMPI PUSH1 0x40 MLOAD PUSH3 0x461BCD PUSH1 0xE5 SHL DUP2 MSTORE PUSH1 0x4 ADD PUSH2 0x467 SWAP1 PUSH2 0x32A7 JUMP JUMPDEST PUSH1 0x0 DUP2 DUP2 MSTORE PUSH1 0x5 PUSH1 0x20 MSTORE PUSH1 0x40 DUP2 KECCAK256 DUP1 SLOAD PUSH2 0x1382 SWAP1 PUSH2 0x334E JUMP JUMPDEST SWAP1 POP GT PUSH2 0x13C6 JUMPI PUSH1 0x40 MLOAD PUSH3 0x461BCD PUSH1 0xE5 SHL DUP2 MSTORE PUSH1 0x20 PUSH1 0x4 DUP3 ADD MSTORE PUSH1 0x12 PUSH1 0x24 DUP3 ADD MSTORE PUSH18 0x195C9C8B5D19585B4B5B9BDD0B595E1A5CDD PUSH1 0x72 SHL PUSH1 0x44 DUP3 ADD MSTORE PUSH1 0x64 ADD PUSH2 0x467 JUMP JUMPDEST PUSH1 0x0 DUP3 MLOAD GT PUSH2 0x13E7 JUMPI PUSH1 0x40 MLOAD PUSH3 0x461BCD PUSH1 0xE5 SHL DUP2 MSTORE PUSH1 0x4 ADD PUSH2 0x467 SWAP1 PUSH2 0x3228 JUMP JUMPDEST PUSH1 0x0 DUP2 DUP2 MSTORE PUSH1 0x5 PUSH1 0x20 SWAP1 DUP2 MSTORE PUSH1 0x40 SWAP1 SWAP2 KECCAK256 DUP4 MLOAD PUSH2 0x1406 SWAP3 DUP6 ADD SWAP1 PUSH2 0x28E9 JUMP JUMPDEST POP PUSH32 0x337EFABADE1B5802F3A562A44EB0B3222D30AD7717E865D76F4DB7ECBEA56E80 DUP4 DUP4 PUSH2 0x1432 PUSH2 0x26BA JUMP JUMPDEST PUSH1 0x40 MLOAD PUSH2 0x1441 SWAP4 SWAP3 SWAP2 SWAP1 PUSH2 0x30D9 JUMP JUMPDEST PUSH1 0x40 MLOAD DUP1 SWAP2 SUB SWAP1 LOG1 POP POP POP JUMP JUMPDEST PUSH1 0x0 CHAINID DUP5 DUP1 MLOAD SWAP1 PUSH1 0x20 ADD KECCAK256 PUSH1 0x40 MLOAD PUSH1 0x20 ADD PUSH2 0x1473 SWAP3 SWAP2 SWAP1 SWAP2 DUP3 MSTORE PUSH1 0x20 DUP3 ADD MSTORE PUSH1 0x40 ADD SWAP1 JUMP JUMPDEST PUSH1 0x40 DUP1 MLOAD DUP1 DUP4 SUB PUSH1 0x1F NOT ADD DUP2 MSTORE DUP3 DUP3 MSTORE DUP1 MLOAD PUSH1 0x20 SWAP2 DUP3 ADD KECCAK256 DUP7 MLOAD DUP8 DUP4 ADD KECCAK256 SWAP2 DUP5 ADD DUP2 SWAP1 MSTORE SWAP2 DUP4 ADD MSTORE SWAP2 POP PUSH1 0x0 SWAP1 PUSH1 0x60 ADD PUSH1 0x40 DUP1 MLOAD PUSH1 0x1F NOT DUP2 DUP5 SUB ADD DUP2 MSTORE SWAP2 DUP2 MSTORE DUP2 MLOAD PUSH1 0x20 SWAP3 DUP4 ADD KECCAK256 PUSH1 0x0 DUP2 DUP2 MSTORE PUSH1 0x5 SWAP1 SWAP4 MSTORE SWAP1 DUP3 KECCAK256 DUP1 SLOAD SWAP2 SWAP4 POP SWAP1 PUSH2 0x14D7 SWAP1 PUSH2 0x334E JUMP JUMPDEST SWAP1 POP GT PUSH2 0x14F6 JUMPI PUSH1 0x40 MLOAD PUSH3 0x461BCD PUSH1 0xE5 SHL DUP2 MSTORE PUSH1 0x4 ADD PUSH2 0x467 SWAP1 PUSH2 0x31D2 JUMP JUMPDEST PUSH2 0x1501 PUSH2 0x93B PUSH2 0x26BA JUMP JUMPDEST ISZERO ISZERO PUSH1 0x1 EQ PUSH2 0x1522 JUMPI PUSH1 0x40 MLOAD PUSH3 0x461BCD PUSH1 0xE5 SHL DUP2 MSTORE PUSH1 0x4 ADD PUSH2 0x467 SWAP1 PUSH2 0x32A7 JUMP JUMPDEST PUSH1 0x0 DUP2 DUP2 MSTORE PUSH1 0x3 PUSH1 0x20 MSTORE PUSH1 0x40 SWAP1 KECCAK256 PUSH2 0x153D SWAP1 PUSH1 0x1 ADD DUP5 PUSH2 0x26E0 JUMP JUMPDEST ISZERO ISZERO PUSH1 0x1 EQ PUSH2 0x1585 JUMPI PUSH1 0x40 MLOAD PUSH3 0x461BCD PUSH1 0xE5 SHL DUP2 MSTORE PUSH1 0x20 PUSH1 0x4 DUP3 ADD MSTORE PUSH1 0x14 PUSH1 0x24 DUP3 ADD MSTORE PUSH20 0x195C9C8B5B595B58995C8B5B9BDD0B595E1A5CDD PUSH1 0x62 SHL PUSH1 0x44 DUP3 ADD MSTORE PUSH1 0x64 ADD PUSH2 0x467 JUMP JUMPDEST PUSH1 0x0 DUP2 DUP2 MSTORE PUSH1 0x3 PUSH1 0x20 MSTORE PUSH1 0x40 SWAP1 KECCAK256 PUSH2 0x15A0 SWAP1 PUSH1 0x1 ADD DUP5 PUSH2 0x271A JUMP JUMPDEST POP PUSH32 0x7BD4FDF0F1872366F33F1732F765696C1EC3DDCCAA8C1F72095B58D8F411FA93 DUP6 DUP6 DUP6 PUSH1 0x40 MLOAD PUSH2 0xA23 SWAP4 SWAP3 SWAP2 SWAP1 PUSH2 0x30D9 JUMP JUMPDEST PUSH1 0x0 CHAINID DUP5 DUP1 MLOAD SWAP1 PUSH1 0x20 ADD KECCAK256 PUSH1 0x40 MLOAD PUSH1 0x20 ADD PUSH2 0x15F9 SWAP3 SWAP2 SWAP1 SWAP2 DUP3 MSTORE PUSH1 0x20 DUP3 ADD MSTORE PUSH1 0x40 ADD SWAP1 JUMP JUMPDEST PUSH1 0x40 DUP1 MLOAD PUSH1 0x1F NOT DUP2 DUP5 SUB ADD DUP2 MSTORE SWAP2 DUP2 MSTORE DUP2 MLOAD PUSH1 0x20 SWAP3 DUP4 ADD KECCAK256 PUSH1 0x0 DUP2 DUP2 MSTORE PUSH1 0x5 SWAP1 SWAP4 MSTORE SWAP2 KECCAK256 DUP1 SLOAD SWAP2 SWAP3 POP SWAP1 PUSH2 0x162C SWAP1 PUSH2 0x334E JUMP JUMPDEST ISZERO SWAP1 POP PUSH2 0x164B JUMPI PUSH1 0x40 MLOAD PUSH3 0x461BCD PUSH1 0xE5 SHL DUP2 MSTORE PUSH1 0x4 ADD PUSH2 0x467 SWAP1 PUSH2 0x31FE JUMP JUMPDEST PUSH1 0x0 DUP4 MLOAD GT PUSH2 0x166C JUMPI PUSH1 0x40 MLOAD PUSH3 0x461BCD PUSH1 0xE5 SHL DUP2 MSTORE PUSH1 0x4 ADD PUSH2 0x467 SWAP1 PUSH2 0x3228 JUMP JUMPDEST PUSH1 0x0 DUP5 MLOAD GT PUSH2 0x168D JUMPI PUSH1 0x40 MLOAD PUSH3 0x461BCD PUSH1 0xE5 SHL DUP2 MSTORE PUSH1 0x4 ADD PUSH2 0x467 SWAP1 PUSH2 0x3250 JUMP JUMPDEST PUSH1 0x0 DUP3 MLOAD GT PUSH2 0x16D2 JUMPI PUSH1 0x40 MLOAD PUSH3 0x461BCD PUSH1 0xE5 SHL DUP2 MSTORE PUSH1 0x20 PUSH1 0x4 DUP3 ADD MSTORE PUSH1 0x11 PUSH1 0x24 DUP3 ADD MSTORE PUSH17 0x6572722D656D7074792D6D656D62657273 PUSH1 0x78 SHL PUSH1 0x44 DUP3 ADD MSTORE PUSH1 0x64 ADD PUSH2 0x467 JUMP JUMPDEST PUSH1 0x0 DUP2 DUP2 MSTORE PUSH1 0x5 PUSH1 0x20 SWAP1 DUP2 MSTORE PUSH1 0x40 SWAP1 SWAP2 KECCAK256 DUP5 MLOAD PUSH2 0x16F1 SWAP3 DUP7 ADD SWAP1 PUSH2 0x28E9 JUMP JUMPDEST POP PUSH1 0x1 DUP1 SLOAD DUP1 DUP3 ADD DUP3 SSTORE PUSH1 0x0 SWAP2 SWAP1 SWAP2 MSTORE DUP5 MLOAD PUSH2 0x1734 SWAP2 PUSH32 0xB10E2D527612073B26EECDFD717E6A320CF44B4AFAC2B0732D9FCBE2B7FA0CF6 ADD SWAP1 PUSH1 0x20 DUP8 ADD SWAP1 PUSH2 0x28E9 JUMP JUMPDEST POP PUSH1 0x0 JUMPDEST DUP3 MLOAD DUP2 LT ISZERO PUSH2 0x17A3 JUMPI PUSH2 0x1790 DUP4 DUP3 DUP2 MLOAD DUP2 LT PUSH2 0x1764 JUMPI PUSH4 0x4E487B71 PUSH1 0xE0 SHL PUSH1 0x0 MSTORE PUSH1 0x32 PUSH1 0x4 MSTORE PUSH1 0x24 PUSH1 0x0 REVERT JUMPDEST PUSH1 0x20 MUL PUSH1 0x20 ADD ADD MLOAD PUSH1 0x2 PUSH1 0x0 DUP6 DUP2 MSTORE PUSH1 0x20 ADD SWAP1 DUP2 MSTORE PUSH1 0x20 ADD PUSH1 0x0 KECCAK256 PUSH1 0x1 ADD PUSH2 0x2705 SWAP1 SWAP2 SWAP1 PUSH4 0xFFFFFFFF AND JUMP JUMPDEST POP DUP1 PUSH2 0x179B DUP2 PUSH2 0x3389 JUMP JUMPDEST SWAP2 POP POP PUSH2 0x1738 JUMP JUMPDEST POP PUSH32 0x234EB9D37ED58B55E52E99246BB2B0CEBB55311292E5D3DE44A6DF95A9AF2501 DUP5 DUP5 PUSH2 0x17CF PUSH2 0x26BA JUMP JUMPDEST PUSH1 0x40 MLOAD PUSH2 0x17DE SWAP4 SWAP3 SWAP2 SWAP1 PUSH2 0x30D9 JUMP JUMPDEST PUSH1 0x40 MLOAD DUP1 SWAP2 SUB SWAP1 LOG1 POP POP POP POP JUMP JUMPDEST PUSH1 0x0 CHAINID DUP4 DUP1 MLOAD SWAP1 PUSH1 0x20 ADD KECCAK256 PUSH1 0x40 MLOAD PUSH1 0x20 ADD PUSH2 0x1811 SWAP3 SWAP2 SWAP1 SWAP2 DUP3 MSTORE PUSH1 0x20 DUP3 ADD MSTORE PUSH1 0x40 ADD SWAP1 JUMP JUMPDEST PUSH1 0x40 MLOAD PUSH1 0x20 DUP2 DUP4 SUB SUB DUP2 MSTORE SWAP1 PUSH1 0x40 MSTORE DUP1 MLOAD SWAP1 PUSH1 0x20 ADD KECCAK256 PUSH1 0x0 SHR SWAP1 POP PUSH2 0x1837 PUSH2 0x1336 PUSH2 0x26BA JUMP JUMPDEST ISZERO ISZERO PUSH1 0x1 EQ PUSH2 0x1858 JUMPI PUSH1 0x40 MLOAD PUSH3 0x461BCD PUSH1 0xE5 SHL DUP2 MSTORE PUSH1 0x4 ADD PUSH2 0x467 SWAP1 PUSH2 0x32A7 JUMP JUMPDEST PUSH1 0x0 DUP2 DUP2 MSTORE PUSH1 0x2 PUSH1 0x20 MSTORE PUSH1 0x40 SWAP1 KECCAK256 PUSH2 0x1873 SWAP1 PUSH1 0x1 ADD DUP4 PUSH2 0x26E0 JUMP JUMPDEST ISZERO PUSH2 0x18B3 JUMPI PUSH1 0x40 MLOAD PUSH3 0x461BCD PUSH1 0xE5 SHL DUP2 MSTORE PUSH1 0x20 PUSH1 0x4 DUP3 ADD MSTORE PUSH1 0x10 PUSH1 0x24 DUP3 ADD MSTORE PUSH16 0x195C9C8B5B595B58995C8B595E1A5CDD PUSH1 0x82 SHL PUSH1 0x44 DUP3 ADD MSTORE PUSH1 0x64 ADD PUSH2 0x467 JUMP JUMPDEST PUSH1 0x0 DUP2 DUP2 MSTORE PUSH1 0x2 PUSH1 0x20 MSTORE PUSH1 0x40 SWAP1 KECCAK256 PUSH2 0x18CE SWAP1 PUSH1 0x1 ADD DUP4 PUSH2 0x2705 JUMP JUMPDEST POP PUSH32 0xB1CE9C84087AF16E758E7041EEC971F57C833F4127F64F742C5B0EE14E0537D2 DUP4 DUP4 PUSH1 0x40 MLOAD PUSH2 0x1441 SWAP3 SWAP2 SWAP1 PUSH2 0x30AF JUMP JUMPDEST PUSH1 0x60 PUSH1 0x0 CHAINID DUP7 DUP1 MLOAD SWAP1 PUSH1 0x20 ADD KECCAK256 PUSH1 0x40 MLOAD PUSH1 0x20 ADD PUSH2 0x1927 SWAP3 SWAP2 SWAP1 SWAP2 DUP3 MSTORE PUSH1 0x20 DUP3 ADD MSTORE PUSH1 0x40 ADD SWAP1 JUMP JUMPDEST PUSH1 0x40 DUP1 MLOAD PUSH1 0x1F NOT DUP2 DUP5 SUB ADD DUP2 MSTORE DUP3 DUP3 MSTORE DUP1 MLOAD PUSH1 0x20 SWAP2 DUP3 ADD KECCAK256 DUP9 MLOAD DUP10 DUP4 ADD KECCAK256 DUP3 DUP6 ADD DUP3 SWAP1 MSTORE DUP5 DUP5 ADD MSTORE DUP3 MLOAD DUP1 DUP6 SUB DUP5 ADD DUP2 MSTORE PUSH1 0x60 SWAP1 SWAP5 ADD SWAP1 SWAP3 MSTORE DUP3 MLOAD SWAP3 ADD SWAP2 SWAP1 SWAP2 KECCAK256 SWAP1 SWAP2 POP PUSH1 0x0 PUSH2 0x1977 DUP6 DUP8 PUSH2 0x3318 JUMP JUMPDEST SWAP1 POP PUSH1 0x0 PUSH2 0x1985 DUP7 DUP4 PUSH2 0x3300 JUMP JUMPDEST PUSH1 0x0 DUP5 DUP2 MSTORE PUSH1 0x3 PUSH1 0x20 MSTORE PUSH1 0x40 SWAP1 KECCAK256 SLOAD SWAP1 SWAP2 POP DUP2 GT ISZERO PUSH2 0x19AF JUMPI POP PUSH1 0x0 DUP3 DUP2 MSTORE PUSH1 0x3 PUSH1 0x20 MSTORE PUSH1 0x40 SWAP1 KECCAK256 SLOAD JUMPDEST PUSH1 0x0 PUSH2 0x19BB DUP4 DUP4 PUSH2 0x3337 JUMP JUMPDEST PUSH1 0x1 PUSH1 0x1 PUSH1 0x40 SHL SUB DUP2 GT ISZERO PUSH2 0x19E0 JUMPI PUSH4 0x4E487B71 PUSH1 0xE0 SHL PUSH1 0x0 MSTORE PUSH1 0x41 PUSH1 0x4 MSTORE PUSH1 0x24 PUSH1 0x0 REVERT JUMPDEST PUSH1 0x40 MLOAD SWAP1 DUP1 DUP3 MSTORE DUP1 PUSH1 0x20 MUL PUSH1 0x20 ADD DUP3 ADD PUSH1 0x40 MSTORE DUP1 ISZERO PUSH2 0x1A13 JUMPI DUP2 PUSH1 0x20 ADD JUMPDEST PUSH1 0x60 DUP2 MSTORE PUSH1 0x20 ADD SWAP1 PUSH1 0x1 SWAP1 SUB SWAP1 DUP2 PUSH2 0x19FE JUMPI SWAP1 POP JUMPDEST POP SWAP1 POP DUP3 JUMPDEST DUP3 DUP2 LT ISZERO PUSH2 0xF41 JUMPI PUSH1 0x0 DUP6 DUP2 MSTORE PUSH1 0x3 PUSH1 0x20 MSTORE PUSH1 0x40 SWAP1 KECCAK256 DUP1 SLOAD DUP3 SWAP1 DUP2 LT PUSH2 0x1A4E JUMPI PUSH4 0x4E487B71 PUSH1 0xE0 SHL PUSH1 0x0 MSTORE PUSH1 0x32 PUSH1 0x4 MSTORE PUSH1 0x24 PUSH1 0x0 REVERT JUMPDEST SWAP1 PUSH1 0x0 MSTORE PUSH1 0x20 PUSH1 0x0 KECCAK256 ADD DUP1 SLOAD PUSH2 0x1A63 SWAP1 PUSH2 0x334E JUMP JUMPDEST DUP1 PUSH1 0x1F ADD PUSH1 0x20 DUP1 SWAP2 DIV MUL PUSH1 0x20 ADD PUSH1 0x40 MLOAD SWAP1 DUP2 ADD PUSH1 0x40 MSTORE DUP1 SWAP3 SWAP2 SWAP1 DUP2 DUP2 MSTORE PUSH1 0x20 ADD DUP3 DUP1 SLOAD PUSH2 0x1A8F SWAP1 PUSH2 0x334E JUMP JUMPDEST DUP1 ISZERO PUSH2 0x1ADC JUMPI DUP1 PUSH1 0x1F LT PUSH2 0x1AB1 JUMPI PUSH2 0x100 DUP1 DUP4 SLOAD DIV MUL DUP4 MSTORE SWAP2 PUSH1 0x20 ADD SWAP2 PUSH2 0x1ADC JUMP JUMPDEST DUP3 ADD SWAP2 SWAP1 PUSH1 0x0 MSTORE PUSH1 0x20 PUSH1 0x0 KECCAK256 SWAP1 JUMPDEST DUP2 SLOAD DUP2 MSTORE SWAP1 PUSH1 0x1 ADD SWAP1 PUSH1 0x20 ADD DUP1 DUP4 GT PUSH2 0x1ABF JUMPI DUP3 SWAP1 SUB PUSH1 0x1F AND DUP3 ADD SWAP2 JUMPDEST POP POP POP POP POP DUP3 DUP6 DUP4 PUSH2 0x1AEE SWAP2 SWAP1 PUSH2 0x3337 JUMP JUMPDEST DUP2 MLOAD DUP2 LT PUSH2 0x1B0C JUMPI PUSH4 0x4E487B71 PUSH1 0xE0 SHL PUSH1 0x0 MSTORE PUSH1 0x32 PUSH1 0x4 MSTORE PUSH1 0x24 PUSH1 0x0 REVERT JUMPDEST PUSH1 0x20 MUL PUSH1 0x20 ADD ADD DUP2 SWAP1 MSTORE POP DUP1 PUSH2 0x1B21 SWAP1 PUSH2 0x3389 JUMP JUMPDEST SWAP1 POP PUSH2 0x1A18 JUMP JUMPDEST PUSH1 0x60 PUSH1 0x0 CHAINID DUP6 DUP1 MLOAD SWAP1 PUSH1 0x20 ADD KECCAK256 PUSH1 0x40 MLOAD PUSH1 0x20 ADD PUSH2 0x1B4F SWAP3 SWAP2 SWAP1 SWAP2 DUP3 MSTORE PUSH1 0x20 DUP3 ADD MSTORE PUSH1 0x40 ADD SWAP1 JUMP JUMPDEST PUSH1 0x40 DUP1 MLOAD PUSH1 0x1F NOT DUP2 DUP5 SUB ADD DUP2 MSTORE DUP3 DUP3 MSTORE DUP1 MLOAD PUSH1 0x20 SWAP2 DUP3 ADD KECCAK256 DUP8 MLOAD DUP9 DUP4 ADD KECCAK256 DUP3 DUP6 ADD DUP3 SWAP1 MSTORE DUP5 DUP5 ADD MSTORE DUP3 MLOAD DUP1 DUP6 SUB DUP5 ADD DUP2 MSTORE PUSH1 0x60 DUP6 ADD DUP5 MSTORE DUP1 MLOAD SWAP1 DUP4 ADD KECCAK256 DUP8 MLOAD DUP9 DUP5 ADD KECCAK256 PUSH1 0x80 DUP7 ADD DUP3 SWAP1 MSTORE PUSH1 0xA0 DUP1 DUP8 ADD SWAP2 SWAP1 SWAP2 MSTORE DUP5 MLOAD DUP1 DUP8 SUB SWAP1 SWAP2 ADD DUP2 MSTORE PUSH1 0xC0 SWAP1 SWAP6 ADD DUP5 MSTORE DUP5 MLOAD SWAP5 DUP4 ADD SWAP5 SWAP1 SWAP5 KECCAK256 PUSH1 0x0 DUP2 DUP2 MSTORE PUSH1 0x5 SWAP1 SWAP4 MSTORE SWAP3 DUP3 KECCAK256 DUP1 SLOAD SWAP2 SWAP6 POP SWAP1 PUSH2 0x1BD8 SWAP1 PUSH2 0x334E JUMP JUMPDEST SWAP1 POP GT PUSH2 0x1BF7 JUMPI PUSH1 0x40 MLOAD PUSH3 0x461BCD PUSH1 0xE5 SHL DUP2 MSTORE PUSH1 0x4 ADD PUSH2 0x467 SWAP1 PUSH2 0x3278 JUMP JUMPDEST PUSH1 0x0 DUP2 DUP2 MSTORE PUSH1 0x5 PUSH1 0x20 MSTORE PUSH1 0x40 SWAP1 KECCAK256 DUP1 SLOAD PUSH2 0x1C10 SWAP1 PUSH2 0x334E JUMP JUMPDEST DUP1 PUSH1 0x1F ADD PUSH1 0x20 DUP1 SWAP2 DIV MUL PUSH1 0x20 ADD PUSH1 0x40 MLOAD SWAP1 DUP2 ADD PUSH1 0x40 MSTORE DUP1 SWAP3 SWAP2 SWAP1 DUP2 DUP2 MSTORE PUSH1 0x20 ADD DUP3 DUP1 SLOAD PUSH2 0x1C3C SWAP1 PUSH2 0x334E JUMP JUMPDEST DUP1 ISZERO PUSH2 0x1C89 JUMPI DUP1 PUSH1 0x1F LT PUSH2 0x1C5E JUMPI PUSH2 0x100 DUP1 DUP4 SLOAD DIV MUL DUP4 MSTORE SWAP2 PUSH1 0x20 ADD SWAP2 PUSH2 0x1C89 JUMP JUMPDEST DUP3 ADD SWAP2 SWAP1 PUSH1 0x0 MSTORE PUSH1 0x20 PUSH1 0x0 KECCAK256 SWAP1 JUMPDEST DUP2 SLOAD DUP2 MSTORE SWAP1 PUSH1 0x1 ADD SWAP1 PUSH1 0x20 ADD DUP1 DUP4 GT PUSH2 0x1C6C JUMPI DUP3 SWAP1 SUB PUSH1 0x1F AND DUP3 ADD SWAP2 JUMPDEST POP POP POP POP POP SWAP4 POP POP POP POP SWAP4 SWAP3 POP POP POP JUMP JUMPDEST PUSH1 0x60 PUSH1 0x0 CHAINID DUP4 DUP1 MLOAD SWAP1 PUSH1 0x20 ADD KECCAK256 PUSH1 0x40 MLOAD PUSH1 0x20 ADD PUSH2 0x1CC1 SWAP3 SWAP2 SWAP1 SWAP2 DUP3 MSTORE PUSH1 0x20 DUP3 ADD MSTORE PUSH1 0x40 ADD SWAP1 JUMP JUMPDEST PUSH1 0x40 DUP1 MLOAD PUSH1 0x1F NOT DUP2 DUP5 SUB ADD DUP2 MSTORE SWAP2 DUP2 MSTORE DUP2 MLOAD PUSH1 0x20 SWAP3 DUP4 ADD KECCAK256 PUSH1 0x0 DUP2 DUP2 MSTORE PUSH1 0x5 SWAP1 SWAP4 MSTORE SWAP1 DUP3 KECCAK256 DUP1 SLOAD SWAP2 SWAP4 POP SWAP1 PUSH2 0x1CF5 SWAP1 PUSH2 0x334E JUMP JUMPDEST SWAP1 POP GT PUSH2 0x1D39 JUMPI PUSH1 0x40 MLOAD PUSH3 0x461BCD PUSH1 0xE5 SHL DUP2 MSTORE PUSH1 0x20 PUSH1 0x4 DUP3 ADD MSTORE PUSH1 0x12 PUSH1 0x24 DUP3 ADD MSTORE PUSH18 0x195C9C8B5D19585B4B5B9BDD0B595E1A5CDD PUSH1 0x72 SHL PUSH1 0x44 DUP3 ADD MSTORE PUSH1 0x64 ADD PUSH2 0x467 JUMP JUMPDEST PUSH1 0x0 DUP2 DUP2 MSTORE PUSH1 0x5 PUSH1 0x20 MSTORE PUSH1 0x40 SWAP1 KECCAK256 DUP1 SLOAD PUSH2 0x1D52 SWAP1 PUSH2 0x334E JUMP JUMPDEST DUP1 PUSH1 0x1F ADD PUSH1 0x20 DUP1 SWAP2 DIV MUL PUSH1 0x20 ADD PUSH1 0x40 MLOAD SWAP1 DUP2 ADD PUSH1 0x40 MSTORE DUP1 SWAP3 SWAP2 SWAP1 DUP2 DUP2 MSTORE PUSH1 0x20 ADD DUP3 DUP1 SLOAD PUSH2 0x1D7E SWAP1 PUSH2 0x334E JUMP JUMPDEST DUP1 ISZERO PUSH2 0x1DCB JUMPI DUP1 PUSH1 0x1F LT PUSH2 0x1DA0 JUMPI PUSH2 0x100 DUP1 DUP4 SLOAD DIV MUL DUP4 MSTORE SWAP2 PUSH1 0x20 ADD SWAP2 PUSH2 0x1DCB JUMP JUMPDEST DUP3 ADD SWAP2 SWAP1 PUSH1 0x0 MSTORE PUSH1 0x20 PUSH1 0x0 KECCAK256 SWAP1 JUMPDEST DUP2 SLOAD DUP2 MSTORE SWAP1 PUSH1 0x1 ADD SWAP1 PUSH1 0x20 ADD DUP1 DUP4 GT PUSH2 0x1DAE JUMPI DUP3 SWAP1 SUB PUSH1 0x1F AND DUP3 ADD SWAP2 JUMPDEST POP POP POP POP POP SWAP2 POP POP SWAP2 SWAP1 POP JUMP JUMPDEST PUSH1 0x60 PUSH1 0x0 CHAINID DUP6 DUP1 MLOAD SWAP1 PUSH1 0x20 ADD KECCAK256 PUSH1 0x40 MLOAD PUSH1 0x20 ADD PUSH2 0x1DFF SWAP3 SWAP2 SWAP1 SWAP2 DUP3 MSTORE PUSH1 0x20 DUP3 ADD MSTORE PUSH1 0x40 ADD SWAP1 JUMP JUMPDEST PUSH1 0x40 DUP1 MLOAD PUSH1 0x1F NOT DUP2 DUP5 SUB ADD DUP2 MSTORE SWAP2 SWAP1 MSTORE DUP1 MLOAD PUSH1 0x20 SWAP1 SWAP2 ADD KECCAK256 SWAP1 POP PUSH1 0x0 PUSH2 0x1E25 DUP5 DUP7 PUSH2 0x3318 JUMP JUMPDEST SWAP1 POP PUSH1 0x0 PUSH2 0x1E33 DUP6 DUP4 PUSH2 0x3300 JUMP JUMPDEST PUSH1 0x0 DUP5 DUP2 MSTORE PUSH1 0x2 PUSH1 0x20 MSTORE PUSH1 0x40 SWAP1 KECCAK256 SLOAD SWAP1 SWAP2 POP DUP2 GT ISZERO PUSH2 0x1E5D JUMPI POP PUSH1 0x0 DUP3 DUP2 MSTORE PUSH1 0x2 PUSH1 0x20 MSTORE PUSH1 0x40 SWAP1 KECCAK256 SLOAD JUMPDEST PUSH1 0x0 PUSH2 0x1E69 DUP4 DUP4 PUSH2 0x3337 JUMP JUMPDEST PUSH1 0x1 PUSH1 0x1 PUSH1 0x40 SHL SUB DUP2 GT ISZERO PUSH2 0x1E8E JUMPI PUSH4 0x4E487B71 PUSH1 0xE0 SHL PUSH1 0x0 MSTORE PUSH1 0x41 PUSH1 0x4 MSTORE PUSH1 0x24 PUSH1 0x0 REVERT JUMPDEST PUSH1 0x40 MLOAD SWAP1 DUP1 DUP3 MSTORE DUP1 PUSH1 0x20 MUL PUSH1 0x20 ADD DUP3 ADD PUSH1 0x40 MSTORE DUP1 ISZERO PUSH2 0x1EC1 JUMPI DUP2 PUSH1 0x20 ADD JUMPDEST PUSH1 0x60 DUP2 MSTORE PUSH1 0x20 ADD SWAP1 PUSH1 0x1 SWAP1 SUB SWAP1 DUP2 PUSH2 0x1EAC JUMPI SWAP1 POP JUMPDEST POP SWAP1 POP DUP3 JUMPDEST DUP3 DUP2 LT ISZERO PUSH2 0x1FD6 JUMPI PUSH1 0x0 DUP6 DUP2 MSTORE PUSH1 0x2 PUSH1 0x20 MSTORE PUSH1 0x40 SWAP1 KECCAK256 DUP1 SLOAD DUP3 SWAP1 DUP2 LT PUSH2 0x1EFC JUMPI PUSH4 0x4E487B71 PUSH1 0xE0 SHL PUSH1 0x0 MSTORE PUSH1 0x32 PUSH1 0x4 MSTORE PUSH1 0x24 PUSH1 0x0 REVERT JUMPDEST SWAP1 PUSH1 0x0 MSTORE PUSH1 0x20 PUSH1 0x0 KECCAK256 ADD DUP1 SLOAD PUSH2 0x1F11 SWAP1 PUSH2 0x334E JUMP JUMPDEST DUP1 PUSH1 0x1F ADD PUSH1 0x20 DUP1 SWAP2 DIV MUL PUSH1 0x20 ADD PUSH1 0x40 MLOAD SWAP1 DUP2 ADD PUSH1 0x40 MSTORE DUP1 SWAP3 SWAP2 SWAP1 DUP2 DUP2 MSTORE PUSH1 0x20 ADD DUP3 DUP1 SLOAD PUSH2 0x1F3D SWAP1 PUSH2 0x334E JUMP JUMPDEST DUP1 ISZERO PUSH2 0x1F8A JUMPI DUP1 PUSH1 0x1F LT PUSH2 0x1F5F JUMPI PUSH2 0x100 DUP1 DUP4 SLOAD DIV MUL DUP4 MSTORE SWAP2 PUSH1 0x20 ADD SWAP2 PUSH2 0x1F8A JUMP JUMPDEST DUP3 ADD SWAP2 SWAP1 PUSH1 0x0 MSTORE PUSH1 0x20 PUSH1 0x0 KECCAK256 SWAP1 JUMPDEST DUP2 SLOAD DUP2 MSTORE SWAP1 PUSH1 0x1 ADD SWAP1 PUSH1 0x20 ADD DUP1 DUP4 GT PUSH2 0x1F6D JUMPI DUP3 SWAP1 SUB PUSH1 0x1F AND DUP3 ADD SWAP2 JUMPDEST POP POP POP POP POP DUP3 DUP6 DUP4 PUSH2 0x1F9C SWAP2 SWAP1 PUSH2 0x3337 JUMP JUMPDEST DUP2 MLOAD DUP2 LT PUSH2 0x1FBA JUMPI PUSH4 0x4E487B71 PUSH1 0xE0 SHL PUSH1 0x0 MSTORE PUSH1 0x32 PUSH1 0x4 MSTORE PUSH1 0x24 PUSH1 0x0 REVERT JUMPDEST PUSH1 0x20 MUL PUSH1 0x20 ADD ADD DUP2 SWAP1 MSTORE POP DUP1 PUSH2 0x1FCF SWAP1 PUSH2 0x3389 JUMP JUMPDEST SWAP1 POP PUSH2 0x1EC6 JUMP JUMPDEST POP SWAP8 SWAP7 POP POP POP POP POP POP POP JUMP JUMPDEST PUSH1 0x60 PUSH1 0x0 CHAINID DUP5 DUP1 MLOAD SWAP1 PUSH1 0x20 ADD KECCAK256 PUSH1 0x40 MLOAD PUSH1 0x20 ADD PUSH2 0x2009 SWAP3 SWAP2 SWAP1 SWAP2 DUP3 MSTORE PUSH1 0x20 DUP3 ADD MSTORE PUSH1 0x40 ADD SWAP1 JUMP JUMPDEST PUSH1 0x40 DUP1 MLOAD DUP1 DUP4 SUB PUSH1 0x1F NOT ADD DUP2 MSTORE DUP3 DUP3 MSTORE DUP1 MLOAD PUSH1 0x20 SWAP2 DUP3 ADD KECCAK256 DUP7 MLOAD DUP8 DUP4 ADD KECCAK256 SWAP2 DUP5 ADD DUP2 SWAP1 MSTORE SWAP2 DUP4 ADD MSTORE SWAP2 POP PUSH1 0x0 SWAP1 PUSH1 0x60 ADD PUSH1 0x40 DUP1 MLOAD PUSH1 0x1F NOT DUP2 DUP5 SUB ADD DUP2 MSTORE SWAP2 DUP2 MSTORE DUP2 MLOAD PUSH1 0x20 SWAP3 DUP4 ADD KECCAK256 PUSH1 0x0 DUP2 DUP2 MSTORE PUSH1 0x5 SWAP1 SWAP4 MSTORE SWAP1 DUP3 KECCAK256 DUP1 SLOAD SWAP2 SWAP4 POP SWAP1 PUSH2 0x206D SWAP1 PUSH2 0x334E JUMP JUMPDEST SWAP1 POP GT PUSH2 0x208C JUMPI PUSH1 0x40 MLOAD PUSH3 0x461BCD PUSH1 0xE5 SHL DUP2 MSTORE PUSH1 0x4 ADD PUSH2 0x467 SWAP1 PUSH2 0x31D2 JUMP JUMPDEST PUSH1 0x0 DUP2 DUP2 MSTORE PUSH1 0x5 PUSH1 0x20 MSTORE PUSH1 0x40 SWAP1 KECCAK256 DUP1 SLOAD PUSH2 0x20A5 SWAP1 PUSH2 0x334E JUMP JUMPDEST DUP1 PUSH1 0x1F ADD PUSH1 0x20 DUP1 SWAP2 DIV MUL PUSH1 0x20 ADD PUSH1 0x40 MLOAD SWAP1 DUP2 ADD PUSH1 0x40 MSTORE DUP1 SWAP3 SWAP2 SWAP1 DUP2 DUP2 MSTORE PUSH1 0x20 ADD DUP3 DUP1 SLOAD PUSH2 0x20D1 SWAP1 PUSH2 0x334E JUMP JUMPDEST DUP1 ISZERO PUSH2 0x211E JUMPI DUP1 PUSH1 0x1F LT PUSH2 0x20F3 JUMPI PUSH2 0x100 DUP1 DUP4 SLOAD DIV MUL DUP4 MSTORE SWAP2 PUSH1 0x20 ADD SWAP2 PUSH2 0x211E JUMP JUMPDEST DUP3 ADD SWAP2 SWAP1 PUSH1 0x0 MSTORE PUSH1 0x20 PUSH1 0x0 KECCAK256 SWAP1 JUMPDEST DUP2 SLOAD DUP2 MSTORE SWAP1 PUSH1 0x1 ADD SWAP1 PUSH1 0x20 ADD DUP1 DUP4 GT PUSH2 0x2101 JUMPI DUP3 SWAP1 SUB PUSH1 0x1F AND DUP3 ADD SWAP2 JUMPDEST POP POP POP POP POP SWAP3 POP POP POP SWAP3 SWAP2 POP POP JUMP JUMPDEST PUSH1 0x60 PUSH1 0x0 CHAINID DUP8 DUP1 MLOAD SWAP1 PUSH1 0x20 ADD KECCAK256 PUSH1 0x40 MLOAD PUSH1 0x20 ADD PUSH2 0x2154 SWAP3 SWAP2 SWAP1 SWAP2 DUP3 MSTORE PUSH1 0x20 DUP3 ADD MSTORE PUSH1 0x40 ADD SWAP1 JUMP JUMPDEST PUSH1 0x40 DUP1 MLOAD DUP1 DUP4 SUB PUSH1 0x1F NOT ADD DUP2 MSTORE DUP3 DUP3 MSTORE DUP1 MLOAD PUSH1 0x20 SWAP2 DUP3 ADD KECCAK256 DUP10 MLOAD DUP11 DUP4 ADD KECCAK256 SWAP2 DUP5 ADD DUP2 SWAP1 MSTORE SWAP2 DUP4 ADD MSTORE SWAP2 POP PUSH1 0x0 SWAP1 PUSH1 0x60 ADD PUSH1 0x40 DUP1 MLOAD DUP1 DUP4 SUB PUSH1 0x1F NOT ADD DUP2 MSTORE DUP3 DUP3 MSTORE DUP1 MLOAD PUSH1 0x20 SWAP2 DUP3 ADD KECCAK256 DUP10 MLOAD DUP11 DUP4 ADD KECCAK256 SWAP2 DUP5 ADD DUP2 SWAP1 MSTORE SWAP2 DUP4 ADD MSTORE SWAP2 POP PUSH1 0x0 SWAP1 PUSH1 0x60 ADD PUSH1 0x40 DUP1 MLOAD PUSH1 0x1F NOT DUP2 DUP5 SUB ADD DUP2 MSTORE SWAP2 SWAP1 MSTORE DUP1 MLOAD PUSH1 0x20 SWAP1 SWAP2 ADD KECCAK256 SWAP1 POP PUSH1 0x0 PUSH2 0x21DA DUP7 DUP9 PUSH2 0x3318 JUMP JUMPDEST SWAP1 POP PUSH1 0x0 PUSH2 0x21E8 DUP8 DUP4 PUSH2 0x3300 JUMP JUMPDEST PUSH1 0x0 DUP5 DUP2 MSTORE PUSH1 0x4 PUSH1 0x20 MSTORE PUSH1 0x40 SWAP1 KECCAK256 SWAP1 SWAP2 POP PUSH2 0x2202 SWAP1 PUSH2 0x272F JUMP JUMPDEST DUP2 GT ISZERO PUSH2 0x2223 JUMPI PUSH1 0x0 DUP4 DUP2 MSTORE PUSH1 0x4 PUSH1 0x20 MSTORE PUSH1 0x40 SWAP1 KECCAK256 PUSH2 0x2220 SWAP1 PUSH2 0x272F JUMP JUMPDEST SWAP1 POP JUMPDEST PUSH1 0x0 PUSH2 0x222F DUP4 DUP4 PUSH2 0x3337 JUMP JUMPDEST PUSH1 0x1 PUSH1 0x1 PUSH1 0x40 SHL SUB DUP2 GT ISZERO PUSH2 0x2254 JUMPI PUSH4 0x4E487B71 PUSH1 0xE0 SHL PUSH1 0x0 MSTORE PUSH1 0x41 PUSH1 0x4 MSTORE PUSH1 0x24 PUSH1 0x0 REVERT JUMPDEST PUSH1 0x40 MLOAD SWAP1 DUP1 DUP3 MSTORE DUP1 PUSH1 0x20 MUL PUSH1 0x20 ADD DUP3 ADD PUSH1 0x40 MSTORE DUP1 ISZERO PUSH2 0x227D JUMPI DUP2 PUSH1 0x20 ADD PUSH1 0x20 DUP3 MUL DUP1 CALLDATASIZE DUP4 CALLDATACOPY ADD SWAP1 POP JUMPDEST POP SWAP1 POP DUP3 JUMPDEST DUP3 DUP2 LT ISZERO PUSH2 0x8B7 JUMPI PUSH1 0x0 DUP6 DUP2 MSTORE PUSH1 0x4 PUSH1 0x20 MSTORE PUSH1 0x40 SWAP1 KECCAK256 PUSH2 0x22A2 SWAP1 DUP3 PUSH2 0x2739 JUMP JUMPDEST DUP3 PUSH2 0x22AD DUP7 DUP5 PUSH2 0x3337 JUMP JUMPDEST DUP2 MLOAD DUP2 LT PUSH2 0x22CB JUMPI PUSH4 0x4E487B71 PUSH1 0xE0 SHL PUSH1 0x0 MSTORE PUSH1 0x32 PUSH1 0x4 MSTORE PUSH1 0x24 PUSH1 0x0 REVERT JUMPDEST PUSH1 0x1 PUSH1 0x1 PUSH1 0xA0 SHL SUB SWAP1 SWAP3 AND PUSH1 0x20 SWAP3 DUP4 MUL SWAP2 SWAP1 SWAP2 ADD SWAP1 SWAP2 ADD MSTORE PUSH2 0x22EC DUP2 PUSH2 0x3389 JUMP JUMPDEST SWAP1 POP PUSH2 0x2282 JUMP JUMPDEST PUSH1 0x0 CHAINID DUP5 DUP1 MLOAD SWAP1 PUSH1 0x20 ADD KECCAK256 PUSH1 0x40 MLOAD PUSH1 0x20 ADD PUSH2 0x2318 SWAP3 SWAP2 SWAP1 SWAP2 DUP3 MSTORE PUSH1 0x20 DUP3 ADD MSTORE PUSH1 0x40 ADD SWAP1 JUMP JUMPDEST PUSH1 0x40 DUP1 MLOAD PUSH1 0x1F NOT DUP2 DUP5 SUB ADD DUP2 MSTORE DUP3 DUP3 MSTORE DUP1 MLOAD PUSH1 0x20 SWAP2 DUP3 ADD KECCAK256 DUP7 MLOAD DUP8 DUP4 ADD KECCAK256 DUP3 DUP6 ADD DUP3 SWAP1 MSTORE DUP5 DUP5 ADD MSTORE DUP3 MLOAD DUP1 DUP6 SUB DUP5 ADD DUP2 MSTORE PUSH1 0x60 DUP6 ADD DUP5 MSTORE DUP1 MLOAD SWAP1 DUP4 ADD KECCAK256 DUP7 MLOAD DUP8 DUP5 ADD KECCAK256 PUSH1 0x80 DUP7 ADD DUP3 SWAP1 MSTORE PUSH1 0xA0 DUP1 DUP8 ADD SWAP2 SWAP1 SWAP2 MSTORE DUP5 MLOAD DUP1 DUP8 SUB SWAP1 SWAP2 ADD DUP2 MSTORE PUSH1 0xC0 SWAP1 SWAP6 ADD DUP5 MSTORE DUP5 MLOAD SWAP5 DUP4 ADD SWAP5 SWAP1 SWAP5 KECCAK256 PUSH1 0x0 DUP2 DUP2 MSTORE PUSH1 0x5 SWAP1 SWAP4 MSTORE SWAP3 DUP3 KECCAK256 DUP1 SLOAD SWAP2 SWAP6 POP SWAP1 PUSH2 0x23A1 SWAP1 PUSH2 0x334E JUMP JUMPDEST SWAP1 POP GT PUSH2 0x23C0 JUMPI PUSH1 0x40 MLOAD PUSH3 0x461BCD PUSH1 0xE5 SHL DUP2 MSTORE PUSH1 0x4 ADD PUSH2 0x467 SWAP1 PUSH2 0x3278 JUMP JUMPDEST PUSH2 0x23E2 PUSH2 0x23CB PUSH2 0x26BA JUMP JUMPDEST PUSH1 0x0 DUP4 DUP2 MSTORE PUSH1 0x4 PUSH1 0x20 MSTORE PUSH1 0x40 SWAP1 KECCAK256 PUSH1 0x2 ADD SWAP1 PUSH2 0x2705 JUMP JUMPDEST POP PUSH2 0x2402 PUSH2 0x23EE PUSH2 0x26BA JUMP JUMPDEST PUSH1 0x0 DUP4 DUP2 MSTORE PUSH1 0x4 PUSH1 0x20 MSTORE PUSH1 0x40 SWAP1 KECCAK256 SWAP1 PUSH2 0x271A JUMP JUMPDEST POP PUSH32 0x30CA79684C561B1B6FBDA88D9779021EB510471EA1DF05C10DC39C46D6ED94EB DUP7 DUP7 DUP7 PUSH2 0x6C8 PUSH2 0x26BA JUMP JUMPDEST PUSH1 0x60 PUSH1 0x0 CHAINID DUP6 DUP1 MLOAD SWAP1 PUSH1 0x20 ADD KECCAK256 PUSH1 0x40 MLOAD PUSH1 0x20 ADD PUSH2 0x2456 SWAP3 SWAP2 SWAP1 SWAP2 DUP3 MSTORE PUSH1 0x20 DUP3 ADD MSTORE PUSH1 0x40 ADD SWAP1 JUMP JUMPDEST PUSH1 0x40 DUP1 MLOAD PUSH1 0x1F NOT DUP2 DUP5 SUB ADD DUP2 MSTORE SWAP2 SWAP1 MSTORE DUP1 MLOAD PUSH1 0x20 SWAP1 SWAP2 ADD KECCAK256 SWAP1 POP PUSH1 0x0 PUSH2 0x247C DUP5 DUP7 PUSH2 0x3318 JUMP JUMPDEST SWAP1 POP PUSH1 0x0 PUSH2 0x248A DUP6 DUP4 PUSH2 0x3300 JUMP JUMPDEST PUSH1 0x0 DUP5 DUP2 MSTORE PUSH1 0x2 PUSH1 0x20 MSTORE PUSH1 0x40 SWAP1 KECCAK256 SWAP1 SWAP2 POP PUSH2 0x24A7 SWAP1 PUSH1 0x1 ADD PUSH2 0x272F JUMP JUMPDEST DUP2 GT ISZERO PUSH2 0x24CB JUMPI PUSH1 0x0 DUP4 DUP2 MSTORE PUSH1 0x2 PUSH1 0x20 MSTORE PUSH1 0x40 SWAP1 KECCAK256 PUSH2 0x24C8 SWAP1 PUSH1 0x1 ADD PUSH2 0x272F JUMP JUMPDEST SWAP1 POP JUMPDEST PUSH1 0x0 PUSH2 0x24D7 DUP4 DUP4 PUSH2 0x3337 JUMP JUMPDEST PUSH1 0x1 PUSH1 0x1 PUSH1 0x40 SHL SUB DUP2 GT ISZERO PUSH2 0x24FC JUMPI PUSH4 0x4E487B71 PUSH1 0xE0 SHL PUSH1 0x0 MSTORE PUSH1 0x41 PUSH1 0x4 MSTORE PUSH1 0x24 PUSH1 0x0 REVERT JUMPDEST PUSH1 0x40 MLOAD SWAP1 DUP1 DUP3 MSTORE DUP1 PUSH1 0x20 MUL PUSH1 0x20 ADD DUP3 ADD PUSH1 0x40 MSTORE DUP1 ISZERO PUSH2 0x2525 JUMPI DUP2 PUSH1 0x20 ADD PUSH1 0x20 DUP3 MUL DUP1 CALLDATASIZE DUP4 CALLDATACOPY ADD SWAP1 POP JUMPDEST POP SWAP1 POP DUP3 JUMPDEST DUP3 DUP2 LT ISZERO PUSH2 0x1FD6 JUMPI PUSH1 0x0 DUP6 DUP2 MSTORE PUSH1 0x2 PUSH1 0x20 MSTORE PUSH1 0x40 SWAP1 KECCAK256 PUSH2 0x254D SWAP1 PUSH1 0x1 ADD DUP3 PUSH2 0x2739 JUMP JUMPDEST DUP3 PUSH2 0x2558 DUP7 DUP5 PUSH2 0x3337 JUMP JUMPDEST DUP2 MLOAD DUP2 LT PUSH2 0x2576 JUMPI PUSH4 0x4E487B71 PUSH1 0xE0 SHL PUSH1 0x0 MSTORE PUSH1 0x32 PUSH1 0x4 MSTORE PUSH1 0x24 PUSH1 0x0 REVERT JUMPDEST PUSH1 0x1 PUSH1 0x1 PUSH1 0xA0 SHL SUB SWAP1 SWAP3 AND PUSH1 0x20 SWAP3 DUP4 MUL SWAP2 SWAP1 SWAP2 ADD SWAP1 SWAP2 ADD MSTORE PUSH2 0x2597 DUP2 PUSH2 0x3389 JUMP JUMPDEST SWAP1 POP PUSH2 0x252A JUMP JUMPDEST PUSH1 0x0 CHAINID DUP4 DUP1 MLOAD SWAP1 PUSH1 0x20 ADD KECCAK256 PUSH1 0x40 MLOAD PUSH1 0x20 ADD PUSH2 0x25C3 SWAP3 SWAP2 SWAP1 SWAP2 DUP3 MSTORE PUSH1 0x20 DUP3 ADD MSTORE PUSH1 0x40 ADD SWAP1 JUMP JUMPDEST PUSH1 0x40 MLOAD PUSH1 0x20 DUP2 DUP4 SUB SUB DUP2 MSTORE SWAP1 PUSH1 0x40 MSTORE DUP1 MLOAD SWAP1 PUSH1 0x20 ADD KECCAK256 PUSH1 0x0 SHR SWAP1 POP PUSH2 0x25E9 PUSH2 0x1336 PUSH2 0x26BA JUMP JUMPDEST ISZERO ISZERO PUSH1 0x1 EQ PUSH2 0x260A JUMPI PUSH1 0x40 MLOAD PUSH3 0x461BCD PUSH1 0xE5 SHL DUP2 MSTORE PUSH1 0x4 ADD PUSH2 0x467 SWAP1 PUSH2 0x32A7 JUMP JUMPDEST PUSH1 0x0 DUP2 DUP2 MSTORE PUSH1 0x2 PUSH1 0x20 MSTORE PUSH1 0x40 SWAP1 KECCAK256 PUSH2 0x2625 SWAP1 PUSH1 0x1 ADD DUP4 PUSH2 0x26E0 JUMP JUMPDEST ISZERO ISZERO PUSH1 0x1 EQ PUSH2 0x266D JUMPI PUSH1 0x40 MLOAD PUSH3 0x461BCD PUSH1 0xE5 SHL DUP2 MSTORE PUSH1 0x20 PUSH1 0x4 DUP3 ADD MSTORE PUSH1 0x14 PUSH1 0x24 DUP3 ADD MSTORE PUSH20 0x195C9C8B5B595B58995C8B5B9BDD0B595E1A5CDD PUSH1 0x62 SHL PUSH1 0x44 DUP3 ADD MSTORE PUSH1 0x64 ADD PUSH2 0x467 JUMP JUMPDEST PUSH1 0x0 DUP2 DUP2 MSTORE PUSH1 0x2 PUSH1 0x20 MSTORE PUSH1 0x40 SWAP1 KECCAK256 PUSH2 0x2688 SWAP1 PUSH1 0x1 ADD DUP4 PUSH2 0x271A JUMP JUMPDEST POP PUSH32 0xBD84F6BE96016AA1D03FD0C0CE516DA6B2E352520BDDD280C744C6C79A378512 DUP4 DUP4 PUSH1 0x40 MLOAD PUSH2 0x1441 SWAP3 SWAP2 SWAP1 PUSH2 0x30AF JUMP JUMPDEST PUSH1 0x0 DUP1 SLOAD PUSH1 0x1 PUSH1 0x1 PUSH1 0xA0 SHL SUB AND CALLER EQ ISZERO PUSH2 0x26DB JUMPI POP PUSH1 0x13 NOT CALLDATASIZE ADD CALLDATALOAD PUSH1 0x60 SHR SWAP1 JUMP JUMPDEST POP CALLER SWAP1 JUMP JUMPDEST PUSH1 0x1 PUSH1 0x1 PUSH1 0xA0 SHL SUB DUP2 AND PUSH1 0x0 SWAP1 DUP2 MSTORE PUSH1 0x1 DUP4 ADD PUSH1 0x20 MSTORE PUSH1 0x40 DUP2 KECCAK256 SLOAD ISZERO ISZERO JUMPDEST SWAP4 SWAP3 POP POP POP JUMP JUMPDEST PUSH1 0x0 PUSH2 0x26FE DUP4 PUSH1 0x1 PUSH1 0x1 PUSH1 0xA0 SHL SUB DUP5 AND PUSH2 0x2745 JUMP JUMPDEST PUSH1 0x0 PUSH2 0x26FE DUP4 PUSH1 0x1 PUSH1 0x1 PUSH1 0xA0 SHL SUB DUP5 AND PUSH2 0x2794 JUMP JUMPDEST PUSH1 0x0 PUSH2 0xD14 DUP3 SLOAD SWAP1 JUMP JUMPDEST PUSH1 0x0 PUSH2 0x26FE DUP4 DUP4 PUSH2 0x28B1 JUMP JUMPDEST PUSH1 0x0 DUP2 DUP2 MSTORE PUSH1 0x1 DUP4 ADD PUSH1 0x20 MSTORE PUSH1 0x40 DUP2 KECCAK256 SLOAD PUSH2 0x278C JUMPI POP DUP2 SLOAD PUSH1 0x1 DUP2 DUP2 ADD DUP5 SSTORE PUSH1 0x0 DUP5 DUP2 MSTORE PUSH1 0x20 DUP1 DUP3 KECCAK256 SWAP1 SWAP4 ADD DUP5 SWAP1 SSTORE DUP5 SLOAD DUP5 DUP3 MSTORE DUP3 DUP7 ADD SWAP1 SWAP4 MSTORE PUSH1 0x40 SWAP1 KECCAK256 SWAP2 SWAP1 SWAP2 SSTORE PUSH2 0xD14 JUMP JUMPDEST POP PUSH1 0x0 PUSH2 0xD14 JUMP JUMPDEST PUSH1 0x0 DUP2 DUP2 MSTORE PUSH1 0x1 DUP4 ADD PUSH1 0x20 MSTORE PUSH1 0x40 DUP2 KECCAK256 SLOAD DUP1 ISZERO PUSH2 0x28A7 JUMPI PUSH1 0x0 PUSH2 0x27B8 PUSH1 0x1 DUP4 PUSH2 0x3337 JUMP JUMPDEST DUP6 SLOAD SWAP1 SWAP2 POP PUSH1 0x0 SWAP1 PUSH2 0x27CC SWAP1 PUSH1 0x1 SWAP1 PUSH2 0x3337 JUMP JUMPDEST SWAP1 POP DUP2 DUP2 EQ PUSH2 0x284D JUMPI PUSH1 0x0 DUP7 PUSH1 0x0 ADD DUP3 DUP2 SLOAD DUP2 LT PUSH2 0x27FA JUMPI PUSH4 0x4E487B71 PUSH1 0xE0 SHL PUSH1 0x0 MSTORE PUSH1 0x32 PUSH1 0x4 MSTORE PUSH1 0x24 PUSH1 0x0 REVERT JUMPDEST SWAP1 PUSH1 0x0 MSTORE PUSH1 0x20 PUSH1 0x0 KECCAK256 ADD SLOAD SWAP1 POP DUP1 DUP8 PUSH1 0x0 ADD DUP5 DUP2 SLOAD DUP2 LT PUSH2 0x282B JUMPI PUSH4 0x4E487B71 PUSH1 0xE0 SHL PUSH1 0x0 MSTORE PUSH1 0x32 PUSH1 0x4 MSTORE PUSH1 0x24 PUSH1 0x0 REVERT JUMPDEST PUSH1 0x0 SWAP2 DUP3 MSTORE PUSH1 0x20 DUP1 DUP4 KECCAK256 SWAP1 SWAP2 ADD SWAP3 SWAP1 SWAP3 SSTORE SWAP2 DUP3 MSTORE PUSH1 0x1 DUP9 ADD SWAP1 MSTORE PUSH1 0x40 SWAP1 KECCAK256 DUP4 SWAP1 SSTORE JUMPDEST DUP6 SLOAD DUP7 SWAP1 DUP1 PUSH2 0x286C JUMPI PUSH4 0x4E487B71 PUSH1 0xE0 SHL PUSH1 0x0 MSTORE PUSH1 0x31 PUSH1 0x4 MSTORE PUSH1 0x24 PUSH1 0x0 REVERT JUMPDEST PUSH1 0x1 SWAP1 SUB DUP2 DUP2 SWAP1 PUSH1 0x0 MSTORE PUSH1 0x20 PUSH1 0x0 KECCAK256 ADD PUSH1 0x0 SWAP1 SSTORE SWAP1 SSTORE DUP6 PUSH1 0x1 ADD PUSH1 0x0 DUP7 DUP2 MSTORE PUSH1 0x20 ADD SWAP1 DUP2 MSTORE PUSH1 0x20 ADD PUSH1 0x0 KECCAK256 PUSH1 0x0 SWAP1 SSTORE PUSH1 0x1 SWAP4 POP POP POP POP PUSH2 0xD14 JUMP JUMPDEST PUSH1 0x0 SWAP2 POP POP PUSH2 0xD14 JUMP JUMPDEST PUSH1 0x0 DUP3 PUSH1 0x0 ADD DUP3 DUP2 SLOAD DUP2 LT PUSH2 0x28D6 JUMPI PUSH4 0x4E487B71 PUSH1 0xE0 SHL PUSH1 0x0 MSTORE PUSH1 0x32 PUSH1 0x4 MSTORE PUSH1 0x24 PUSH1 0x0 REVERT JUMPDEST SWAP1 PUSH1 0x0 MSTORE PUSH1 0x20 PUSH1 0x0 KECCAK256 ADD SLOAD SWAP1 POP SWAP3 SWAP2 POP POP JUMP JUMPDEST DUP3 DUP1 SLOAD PUSH2 0x28F5 SWAP1 PUSH2 0x334E JUMP JUMPDEST SWAP1 PUSH1 0x0 MSTORE PUSH1 0x20 PUSH1 0x0 KECCAK256 SWAP1 PUSH1 0x1F ADD PUSH1 0x20 SWAP1 DIV DUP2 ADD SWAP3 DUP3 PUSH2 0x2917 JUMPI PUSH1 0x0 DUP6 SSTORE PUSH2 0x295D JUMP JUMPDEST DUP3 PUSH1 0x1F LT PUSH2 0x2930 JUMPI DUP1 MLOAD PUSH1 0xFF NOT AND DUP4 DUP1 ADD OR DUP6 SSTORE PUSH2 0x295D JUMP JUMPDEST DUP3 DUP1 ADD PUSH1 0x1 ADD DUP6 SSTORE DUP3 ISZERO PUSH2 0x295D JUMPI SWAP2 DUP3 ADD JUMPDEST DUP3 DUP2 GT ISZERO PUSH2 0x295D JUMPI DUP3 MLOAD DUP3 SSTORE SWAP2 PUSH1 0x20 ADD SWAP2 SWAP1 PUSH1 0x1 ADD SWAP1 PUSH2 0x2942 JUMP JUMPDEST POP PUSH2 0x2969 SWAP3 SWAP2 POP PUSH2 0x296D JUMP JUMPDEST POP SWAP1 JUMP JUMPDEST JUMPDEST DUP1 DUP3 GT ISZERO PUSH2 0x2969 JUMPI PUSH1 0x0 DUP2 SSTORE PUSH1 0x1 ADD PUSH2 0x296E JUMP JUMPDEST DUP1 CALLDATALOAD PUSH1 0x1 PUSH1 0x1 PUSH1 0xA0 SHL SUB DUP2 AND DUP2 EQ PUSH2 0x2999 JUMPI PUSH1 0x0 DUP1 REVERT JUMPDEST SWAP2 SWAP1 POP JUMP JUMPDEST PUSH1 0x0 DUP3 PUSH1 0x1F DUP4 ADD SLT PUSH2 0x29AE JUMPI DUP1 DUP2 REVERT JUMPDEST DUP2 CALLDATALOAD PUSH1 0x20 PUSH1 0x1 PUSH1 0x1 PUSH1 0x40 SHL SUB DUP3 GT ISZERO PUSH2 0x29C9 JUMPI PUSH2 0x29C9 PUSH2 0x33BA JUMP JUMPDEST DUP2 PUSH1 0x5 SHL PUSH2 0x29D8 DUP3 DUP3 ADD PUSH2 0x32D0 JUMP JUMPDEST DUP4 DUP2 MSTORE DUP3 DUP2 ADD SWAP1 DUP7 DUP5 ADD DUP4 DUP9 ADD DUP6 ADD DUP10 LT ISZERO PUSH2 0x29F2 JUMPI DUP7 DUP8 REVERT JUMPDEST DUP7 SWAP4 POP JUMPDEST DUP6 DUP5 LT ISZERO PUSH2 0x1FD6 JUMPI PUSH2 0x2A07 DUP2 PUSH2 0x2982 JUMP JUMPDEST DUP4 MSTORE PUSH1 0x1 SWAP4 SWAP1 SWAP4 ADD SWAP3 SWAP2 DUP5 ADD SWAP2 DUP5 ADD PUSH2 0x29F6 JUMP JUMPDEST PUSH1 0x0 DUP3 PUSH1 0x1F DUP4 ADD SLT PUSH2 0x2A2B JUMPI DUP1 DUP2 REVERT JUMPDEST DUP2 CALLDATALOAD PUSH1 0x1 PUSH1 0x1 PUSH1 0x40 SHL SUB DUP2 GT ISZERO PUSH2 0x2A44 JUMPI PUSH2 0x2A44 PUSH2 0x33BA JUMP JUMPDEST PUSH2 0x2A57 PUSH1 0x1F DUP3 ADD PUSH1 0x1F NOT AND PUSH1 0x20 ADD PUSH2 0x32D0 JUMP JUMPDEST DUP2 DUP2 MSTORE DUP5 PUSH1 0x20 DUP4 DUP7 ADD ADD GT ISZERO PUSH2 0x2A6B JUMPI DUP3 DUP4 REVERT JUMPDEST DUP2 PUSH1 0x20 DUP6 ADD PUSH1 0x20 DUP4 ADD CALLDATACOPY SWAP1 DUP2 ADD PUSH1 0x20 ADD SWAP2 SWAP1 SWAP2 MSTORE SWAP3 SWAP2 POP POP JUMP JUMPDEST PUSH1 0x0 PUSH1 0x20 DUP3 DUP5 SUB SLT ISZERO PUSH2 0x2A96 JUMPI DUP1 DUP2 REVERT JUMPDEST PUSH2 0x26FE DUP3 PUSH2 0x2982 JUMP JUMPDEST PUSH1 0x0 PUSH1 0x20 DUP3 DUP5 SUB SLT ISZERO PUSH2 0x2AB0 JUMPI DUP1 DUP2 REVERT JUMPDEST DUP2 CALLDATALOAD PUSH1 0x1 PUSH1 0x1 PUSH1 0x40 SHL SUB DUP2 GT ISZERO PUSH2 0x2AC5 JUMPI DUP2 DUP3 REVERT JUMPDEST PUSH2 0x2AD1 DUP5 DUP3 DUP6 ADD PUSH2 0x2A1B JUMP JUMPDEST SWAP5 SWAP4 POP POP POP POP JUMP JUMPDEST PUSH1 0x0 DUP1 PUSH1 0x40 DUP4 DUP6 SUB SLT ISZERO PUSH2 0x2AEB JUMPI DUP1 DUP2 REVERT JUMPDEST DUP3 CALLDATALOAD PUSH1 0x1 PUSH1 0x1 PUSH1 0x40 SHL SUB DUP2 GT ISZERO PUSH2 0x2B00 JUMPI DUP2 DUP3 REVERT JUMPDEST PUSH2 0x2B0C DUP6 DUP3 DUP7 ADD PUSH2 0x2A1B JUMP JUMPDEST SWAP3 POP POP PUSH2 0x2B1B PUSH1 0x20 DUP5 ADD PUSH2 0x2982 JUMP JUMPDEST SWAP1 POP SWAP3 POP SWAP3 SWAP1 POP JUMP JUMPDEST PUSH1 0x0 DUP1 PUSH1 0x40 DUP4 DUP6 SUB SLT ISZERO PUSH2 0x2B36 JUMPI DUP2 DUP3 REVERT JUMPDEST DUP3 CALLDATALOAD PUSH1 0x1 PUSH1 0x1 PUSH1 0x40 SHL SUB DUP1 DUP3 GT ISZERO PUSH2 0x2B4C JUMPI DUP4 DUP5 REVERT JUMPDEST PUSH2 0x2B58 DUP7 DUP4 DUP8 ADD PUSH2 0x2A1B JUMP JUMPDEST SWAP4 POP PUSH1 0x20 DUP6 ADD CALLDATALOAD SWAP2 POP DUP1 DUP3 GT ISZERO PUSH2 0x2B6D JUMPI DUP3 DUP4 REVERT JUMPDEST POP PUSH2 0x2B7A DUP6 DUP3 DUP7 ADD PUSH2 0x2A1B JUMP JUMPDEST SWAP2 POP POP SWAP3 POP SWAP3 SWAP1 POP JUMP JUMPDEST PUSH1 0x0 DUP1 PUSH1 0x0 PUSH1 0x60 DUP5 DUP7 SUB SLT ISZERO PUSH2 0x2B98 JUMPI DUP1 DUP2 REVERT JUMPDEST DUP4 CALLDATALOAD PUSH1 0x1 PUSH1 0x1 PUSH1 0x40 SHL SUB DUP1 DUP3 GT ISZERO PUSH2 0x2BAE JUMPI DUP3 DUP4 REVERT JUMPDEST PUSH2 0x2BBA DUP8 DUP4 DUP9 ADD PUSH2 0x2A1B JUMP JUMPDEST SWAP5 POP PUSH1 0x20 DUP7 ADD CALLDATALOAD SWAP2 POP DUP1 DUP3 GT ISZERO PUSH2 0x2BCF JUMPI DUP3 DUP4 REVERT JUMPDEST POP PUSH2 0x2BDC DUP7 DUP3 DUP8 ADD PUSH2 0x2A1B JUMP JUMPDEST SWAP3 POP POP PUSH2 0x2BEB PUSH1 0x40 DUP6 ADD PUSH2 0x2982 JUMP JUMPDEST SWAP1 POP SWAP3 POP SWAP3 POP SWAP3 JUMP JUMPDEST PUSH1 0x0 DUP1 PUSH1 0x0 PUSH1 0x60 DUP5 DUP7 SUB SLT ISZERO PUSH2 0x2C08 JUMPI DUP3 DUP4 REVERT JUMPDEST DUP4 CALLDATALOAD PUSH1 0x1 PUSH1 0x1 PUSH1 0x40 SHL SUB DUP1 DUP3 GT ISZERO PUSH2 0x2C1E JUMPI DUP5 DUP6 REVERT JUMPDEST PUSH2 0x2C2A DUP8 DUP4 DUP9 ADD PUSH2 0x2A1B JUMP JUMPDEST SWAP5 POP PUSH1 0x20 DUP7 ADD CALLDATALOAD SWAP2 POP DUP1 DUP3 GT ISZERO PUSH2 0x2C3F JUMPI DUP4 DUP5 REVERT JUMPDEST PUSH2 0x2C4B DUP8 DUP4 DUP9 ADD PUSH2 0x2A1B JUMP JUMPDEST SWAP4 POP PUSH1 0x40 DUP7 ADD CALLDATALOAD SWAP2 POP DUP1 DUP3 GT ISZERO PUSH2 0x2C60 JUMPI DUP3 DUP4 REVERT JUMPDEST POP PUSH2 0x2C6D DUP7 DUP3 DUP8 ADD PUSH2 0x299E JUMP JUMPDEST SWAP2 POP POP SWAP3 POP SWAP3 POP SWAP3 JUMP JUMPDEST PUSH1 0x0 DUP1 PUSH1 0x0 PUSH1 0x60 DUP5 DUP7 SUB SLT ISZERO PUSH2 0x2C8B JUMPI DUP3 DUP4 REVERT JUMPDEST DUP4 CALLDATALOAD PUSH1 0x1 PUSH1 0x1 PUSH1 0x40 SHL SUB DUP1 DUP3 GT ISZERO PUSH2 0x2CA1 JUMPI DUP5 DUP6 REVERT JUMPDEST PUSH2 0x2CAD DUP8 DUP4 DUP9 ADD PUSH2 0x2A1B JUMP JUMPDEST SWAP5 POP PUSH1 0x20 DUP7 ADD CALLDATALOAD SWAP2 POP DUP1 DUP3 GT ISZERO PUSH2 0x2CC2 JUMPI DUP4 DUP5 REVERT JUMPDEST PUSH2 0x2CCE DUP8 DUP4 DUP9 ADD PUSH2 0x2A1B JUMP JUMPDEST SWAP4 POP PUSH1 0x40 DUP7 ADD CALLDATALOAD SWAP2 POP DUP1 DUP3 GT ISZERO PUSH2 0x2CE3 JUMPI DUP3 DUP4 REVERT JUMPDEST POP PUSH2 0x2C6D DUP7 DUP3 DUP8 ADD PUSH2 0x2A1B JUMP JUMPDEST PUSH1 0x0 DUP1 PUSH1 0x0 DUP1 PUSH1 0x80 DUP6 DUP8 SUB SLT ISZERO PUSH2 0x2D05 JUMPI DUP1 DUP2 REVERT JUMPDEST DUP5 CALLDATALOAD PUSH1 0x1 PUSH1 0x1 PUSH1 0x40 SHL SUB DUP1 DUP3 GT ISZERO PUSH2 0x2D1B JUMPI DUP3 DUP4 REVERT JUMPDEST PUSH2 0x2D27 DUP9 DUP4 DUP10 ADD PUSH2 0x2A1B JUMP JUMPDEST SWAP6 POP PUSH1 0x20 DUP8 ADD CALLDATALOAD SWAP2 POP DUP1 DUP3 GT ISZERO PUSH2 0x2D3C JUMPI DUP3 DUP4 REVERT JUMPDEST PUSH2 0x2D48 DUP9 DUP4 DUP10 ADD PUSH2 0x2A1B JUMP JUMPDEST SWAP5 POP PUSH1 0x40 DUP8 ADD CALLDATALOAD SWAP2 POP DUP1 DUP3 GT ISZERO PUSH2 0x2D5D JUMPI DUP3 DUP4 REVERT JUMPDEST PUSH2 0x2D69 DUP9 DUP4 DUP10 ADD PUSH2 0x2A1B JUMP JUMPDEST SWAP4 POP PUSH1 0x60 DUP8 ADD CALLDATALOAD SWAP2 POP DUP1 DUP3 GT ISZERO PUSH2 0x2D7E JUMPI DUP3 DUP4 REVERT JUMPDEST POP PUSH2 0x2D8B DUP8 DUP3 DUP9 ADD PUSH2 0x299E JUMP JUMPDEST SWAP2 POP POP SWAP3 SWAP6 SWAP2 SWAP5 POP SWAP3 POP JUMP JUMPDEST PUSH1 0x0 DUP1 PUSH1 0x0 DUP1 PUSH1 0x80 DUP6 DUP8 SUB SLT ISZERO PUSH2 0x2DAC JUMPI DUP4 DUP5 REVERT JUMPDEST DUP5 CALLDATALOAD PUSH1 0x1 PUSH1 0x1 PUSH1 0x40 SHL SUB DUP1 DUP3 GT ISZERO PUSH2 0x2DC2 JUMPI DUP6 DUP7 REVERT JUMPDEST PUSH2 0x2DCE DUP9 DUP4 DUP10 ADD PUSH2 0x2A1B JUMP JUMPDEST SWAP6 POP PUSH1 0x20 DUP8 ADD CALLDATALOAD SWAP2 POP DUP1 DUP3 GT ISZERO PUSH2 0x2DE3 JUMPI DUP5 DUP6 REVERT JUMPDEST PUSH2 0x2DEF DUP9 DUP4 DUP10 ADD PUSH2 0x2A1B JUMP JUMPDEST SWAP5 POP PUSH1 0x40 DUP8 ADD CALLDATALOAD SWAP2 POP DUP1 DUP3 GT ISZERO PUSH2 0x2E04 JUMPI DUP4 DUP5 REVERT JUMPDEST PUSH2 0x2E10 DUP9 DUP4 DUP10 ADD PUSH2 0x2A1B JUMP JUMPDEST SWAP4 POP PUSH1 0x60 DUP8 ADD CALLDATALOAD SWAP2 POP DUP1 DUP3 GT ISZERO PUSH2 0x2E25 JUMPI DUP3 DUP4 REVERT JUMPDEST POP PUSH2 0x2D8B DUP8 DUP3 DUP9 ADD PUSH2 0x2A1B JUMP JUMPDEST PUSH1 0x0 DUP1 PUSH1 0x0 DUP1 PUSH1 0x0 PUSH1 0xA0 DUP7 DUP9 SUB SLT ISZERO PUSH2 0x2E49 JUMPI DUP1 DUP2 REVERT JUMPDEST DUP6 CALLDATALOAD PUSH1 0x1 PUSH1 0x1 PUSH1 0x40 SHL SUB DUP1 DUP3 GT ISZERO PUSH2 0x2E5F JUMPI DUP3 DUP4 REVERT JUMPDEST PUSH2 0x2E6B DUP10 DUP4 DUP11 ADD PUSH2 0x2A1B JUMP JUMPDEST SWAP7 POP PUSH1 0x20 DUP9 ADD CALLDATALOAD SWAP2 POP DUP1 DUP3 GT ISZERO PUSH2 0x2E80 JUMPI DUP3 DUP4 REVERT JUMPDEST PUSH2 0x2E8C DUP10 DUP4 DUP11 ADD PUSH2 0x2A1B JUMP JUMPDEST SWAP6 POP PUSH1 0x40 DUP9 ADD CALLDATALOAD SWAP2 POP DUP1 DUP3 GT ISZERO PUSH2 0x2EA1 JUMPI DUP3 DUP4 REVERT JUMPDEST POP PUSH2 0x2EAE DUP9 DUP3 DUP10 ADD PUSH2 0x2A1B JUMP JUMPDEST SWAP6 SWAP9 SWAP5 SWAP8 POP SWAP5 SWAP6 PUSH1 0x60 DUP2 ADD CALLDATALOAD SWAP6 POP PUSH1 0x80 ADD CALLDATALOAD SWAP4 SWAP3 POP POP POP JUMP JUMPDEST PUSH1 0x0 DUP1 PUSH1 0x0 DUP1 PUSH1 0x80 DUP6 DUP8 SUB SLT ISZERO PUSH2 0x2EDC JUMPI DUP4 DUP5 REVERT JUMPDEST DUP5 CALLDATALOAD PUSH1 0x1 PUSH1 0x1 PUSH1 0x40 SHL SUB DUP1 DUP3 GT ISZERO PUSH2 0x2EF2 JUMPI DUP6 DUP7 REVERT JUMPDEST PUSH2 0x2EFE DUP9 DUP4 DUP10 ADD PUSH2 0x2A1B JUMP JUMPDEST SWAP6 POP PUSH1 0x20 DUP8 ADD CALLDATALOAD SWAP2 POP DUP1 DUP3 GT ISZERO PUSH2 0x2F13 JUMPI DUP5 DUP6 REVERT JUMPDEST POP PUSH2 0x2F20 DUP8 DUP3 DUP9 ADD PUSH2 0x2A1B JUMP JUMPDEST SWAP5 SWAP8 SWAP5 SWAP7 POP POP POP POP PUSH1 0x40 DUP4 ADD CALLDATALOAD SWAP3 PUSH1 0x60 ADD CALLDATALOAD SWAP2 SWAP1 POP JUMP JUMPDEST PUSH1 0x0 DUP1 PUSH1 0x0 PUSH1 0x60 DUP5 DUP7 SUB SLT ISZERO PUSH2 0x2F4B JUMPI DUP1 DUP2 REVERT JUMPDEST DUP4 CALLDATALOAD PUSH1 0x1 PUSH1 0x1 PUSH1 0x40 SHL SUB DUP2 GT ISZERO PUSH2 0x2F60 JUMPI DUP2 DUP3 REVERT JUMPDEST PUSH2 0x2F6C DUP7 DUP3 DUP8 ADD PUSH2 0x2A1B JUMP JUMPDEST SWAP7 PUSH1 0x20 DUP7 ADD CALLDATALOAD SWAP7 POP PUSH1 0x40 SWAP1 SWAP6 ADD CALLDATALOAD SWAP5 SWAP4 POP POP POP POP JUMP JUMPDEST PUSH1 0x0 DUP1 PUSH1 0x40 DUP4 DUP6 SUB SLT ISZERO PUSH2 0x2F94 JUMPI DUP2 DUP3 REVERT JUMPDEST POP POP DUP1 CALLDATALOAD SWAP3 PUSH1 0x20 SWAP1 SWAP2 ADD CALLDATALOAD SWAP2 POP JUMP JUMPDEST PUSH1 0x0 DUP2 MLOAD DUP1 DUP5 MSTORE DUP2 JUMPDEST DUP2 DUP2 LT ISZERO PUSH2 0x2FC8 JUMPI PUSH1 0x20 DUP2 DUP6 ADD DUP2 ADD MLOAD DUP7 DUP4 ADD DUP3 ADD MSTORE ADD PUSH2 0x2FAC JUMP JUMPDEST DUP2 DUP2 GT ISZERO PUSH2 0x2FD9 JUMPI DUP3 PUSH1 0x20 DUP4 DUP8 ADD ADD MSTORE JUMPDEST POP PUSH1 0x1F ADD PUSH1 0x1F NOT AND SWAP3 SWAP1 SWAP3 ADD PUSH1 0x20 ADD SWAP3 SWAP2 POP POP JUMP JUMPDEST PUSH1 0x20 DUP1 DUP3 MSTORE DUP3 MLOAD DUP3 DUP3 ADD DUP2 SWAP1 MSTORE PUSH1 0x0 SWAP2 SWAP1 DUP5 DUP3 ADD SWAP1 PUSH1 0x40 DUP6 ADD SWAP1 DUP5 JUMPDEST DUP2 DUP2 LT ISZERO PUSH2 0x302F JUMPI DUP4 MLOAD PUSH1 0x1 PUSH1 0x1 PUSH1 0xA0 SHL SUB AND DUP4 MSTORE SWAP3 DUP5 ADD SWAP3 SWAP2 DUP5 ADD SWAP2 PUSH1 0x1 ADD PUSH2 0x300A JUMP JUMPDEST POP SWAP1 SWAP7 SWAP6 POP POP POP POP POP POP JUMP JUMPDEST PUSH1 0x0 PUSH1 0x20 DUP1 DUP4 ADD DUP2 DUP5 MSTORE DUP1 DUP6 MLOAD DUP1 DUP4 MSTORE PUSH1 0x40 DUP7 ADD SWAP2 POP PUSH1 0x40 DUP2 PUSH1 0x5 SHL DUP8 ADD ADD SWAP3 POP DUP4 DUP8 ADD DUP6 JUMPDEST DUP3 DUP2 LT ISZERO PUSH2 0x308F JUMPI PUSH1 0x3F NOT DUP9 DUP7 SUB ADD DUP5 MSTORE PUSH2 0x307D DUP6 DUP4 MLOAD PUSH2 0x2FA3 JUMP JUMPDEST SWAP5 POP SWAP3 DUP6 ADD SWAP3 SWAP1 DUP6 ADD SWAP1 PUSH1 0x1 ADD PUSH2 0x3061 JUMP JUMPDEST POP SWAP3 SWAP8 SWAP7 POP POP POP POP POP POP POP JUMP JUMPDEST PUSH1 0x20 DUP2 MSTORE PUSH1 0x0 PUSH2 0x26FE PUSH1 0x20 DUP4 ADD DUP5 PUSH2 0x2FA3 JUMP JUMPDEST PUSH1 0x40 DUP2 MSTORE PUSH1 0x0 PUSH2 0x30C2 PUSH1 0x40 DUP4 ADD DUP6 PUSH2 0x2FA3 JUMP JUMPDEST SWAP1 POP PUSH1 0x1 DUP1 PUSH1 0xA0 SHL SUB DUP4 AND PUSH1 0x20 DUP4 ADD MSTORE SWAP4 SWAP3 POP POP POP JUMP JUMPDEST PUSH1 0x60 DUP2 MSTORE PUSH1 0x0 PUSH2 0x30EC PUSH1 0x60 DUP4 ADD DUP7 PUSH2 0x2FA3 JUMP JUMPDEST DUP3 DUP2 SUB PUSH1 0x20 DUP5 ADD MSTORE PUSH2 0x30FE DUP2 DUP7 PUSH2 0x2FA3 JUMP JUMPDEST SWAP2 POP POP PUSH1 0x1 DUP1 PUSH1 0xA0 SHL SUB DUP4 AND PUSH1 0x40 DUP4 ADD MSTORE SWAP5 SWAP4 POP POP POP POP JUMP JUMPDEST PUSH1 0x80 DUP2 MSTORE PUSH1 0x0 PUSH2 0x312A PUSH1 0x80 DUP4 ADD DUP8 PUSH2 0x2FA3 JUMP JUMPDEST DUP3 DUP2 SUB PUSH1 0x20 DUP5 ADD MSTORE PUSH2 0x313C DUP2 DUP8 PUSH2 0x2FA3 JUMP JUMPDEST SWAP1 POP DUP3 DUP2 SUB PUSH1 0x40 DUP5 ADD MSTORE PUSH2 0x3150 DUP2 DUP7 PUSH2 0x2FA3 JUMP JUMPDEST SWAP2 POP POP PUSH1 0x1 DUP1 PUSH1 0xA0 SHL SUB DUP4 AND PUSH1 0x60 DUP4 ADD MSTORE SWAP6 SWAP5 POP POP POP POP POP JUMP JUMPDEST PUSH1 0xA0 DUP2 MSTORE PUSH1 0x0 PUSH2 0x317D PUSH1 0xA0 DUP4 ADD DUP9 PUSH2 0x2FA3 JUMP JUMPDEST DUP3 DUP2 SUB PUSH1 0x20 DUP5 ADD MSTORE PUSH2 0x318F DUP2 DUP9 PUSH2 0x2FA3 JUMP JUMPDEST SWAP1 POP DUP3 DUP2 SUB PUSH1 0x40 DUP5 ADD MSTORE PUSH2 0x31A3 DUP2 DUP8 PUSH2 0x2FA3 JUMP JUMPDEST SWAP1 POP DUP3 DUP2 SUB PUSH1 0x60 DUP5 ADD MSTORE PUSH2 0x31B7 DUP2 DUP7 PUSH2 0x2FA3 JUMP JUMPDEST SWAP2 POP POP PUSH1 0x1 DUP1 PUSH1 0xA0 SHL SUB DUP4 AND PUSH1 0x80 DUP4 ADD MSTORE SWAP7 SWAP6 POP POP POP POP POP POP JUMP JUMPDEST PUSH1 0x20 DUP1 DUP3 MSTORE PUSH1 0x12 SWAP1 DUP3 ADD MSTORE PUSH18 0x195C9C8B5C1C9BDA8B5B9BDD0B595E1A5CDD PUSH1 0x72 SHL PUSH1 0x40 DUP3 ADD MSTORE PUSH1 0x60 ADD SWAP1 JUMP JUMPDEST PUSH1 0x20 DUP1 DUP3 MSTORE PUSH1 0x10 SWAP1 DUP3 ADD MSTORE PUSH16 0x195C9C8B5B985B594B58DB185A5B5959 PUSH1 0x82 SHL PUSH1 0x40 DUP3 ADD MSTORE PUSH1 0x60 ADD SWAP1 JUMP JUMPDEST PUSH1 0x20 DUP1 DUP3 MSTORE PUSH1 0xE SWAP1 DUP3 ADD MSTORE PUSH14 0x6572722D656D7074792D6D657461 PUSH1 0x90 SHL PUSH1 0x40 DUP3 ADD MSTORE PUSH1 0x60 ADD SWAP1 JUMP JUMPDEST PUSH1 0x20 DUP1 DUP3 MSTORE PUSH1 0xE SWAP1 DUP3 ADD MSTORE PUSH14 0x6572722D656D7074792D6E616D65 PUSH1 0x90 SHL PUSH1 0x40 DUP3 ADD MSTORE PUSH1 0x60 ADD SWAP1 JUMP JUMPDEST PUSH1 0x20 DUP1 DUP3 MSTORE PUSH1 0x15 SWAP1 DUP3 ADD MSTORE PUSH21 0x195C9C8B5C995B19585CD94B5B9BDD0B595E1A5CDD PUSH1 0x5A SHL PUSH1 0x40 DUP3 ADD MSTORE PUSH1 0x60 ADD SWAP1 JUMP JUMPDEST PUSH1 0x20 DUP1 DUP3 MSTORE PUSH1 0xF SWAP1 DUP3 ADD MSTORE PUSH15 0x32B93916BA32B0B696B6B2B6B132B9 PUSH1 0x89 SHL PUSH1 0x40 DUP3 ADD MSTORE PUSH1 0x60 ADD SWAP1 JUMP JUMPDEST PUSH1 0x40 MLOAD PUSH1 0x1F DUP3 ADD PUSH1 0x1F NOT AND DUP2 ADD PUSH1 0x1 PUSH1 0x1 PUSH1 0x40 SHL SUB DUP2 GT DUP3 DUP3 LT OR ISZERO PUSH2 0x32F8 JUMPI PUSH2 0x32F8 PUSH2 0x33BA JUMP JUMPDEST PUSH1 0x40 MSTORE SWAP2 SWAP1 POP JUMP JUMPDEST PUSH1 0x0 DUP3 NOT DUP3 GT ISZERO PUSH2 0x3313 JUMPI PUSH2 0x3313 PUSH2 0x33A4 JUMP JUMPDEST POP ADD SWAP1 JUMP JUMPDEST PUSH1 0x0 DUP2 PUSH1 0x0 NOT DIV DUP4 GT DUP3 ISZERO ISZERO AND ISZERO PUSH2 0x3332 JUMPI PUSH2 0x3332 PUSH2 0x33A4 JUMP JUMPDEST POP MUL SWAP1 JUMP JUMPDEST PUSH1 0x0 DUP3 DUP3 LT ISZERO PUSH2 0x3349 JUMPI PUSH2 0x3349 PUSH2 0x33A4 JUMP JUMPDEST POP SUB SWAP1 JUMP JUMPDEST PUSH1 0x1 DUP2 DUP2 SHR SWAP1 DUP3 AND DUP1 PUSH2 0x3362 JUMPI PUSH1 0x7F DUP3 AND SWAP2 POP JUMPDEST PUSH1 0x20 DUP3 LT DUP2 EQ ISZERO PUSH2 0x3383 JUMPI PUSH4 0x4E487B71 PUSH1 0xE0 SHL PUSH1 0x0 MSTORE PUSH1 0x22 PUSH1 0x4 MSTORE PUSH1 0x24 PUSH1 0x0 REVERT JUMPDEST POP SWAP2 SWAP1 POP JUMP JUMPDEST PUSH1 0x0 PUSH1 0x0 NOT DUP3 EQ ISZERO PUSH2 0x339D JUMPI PUSH2 0x339D PUSH2 0x33A4 JUMP JUMPDEST POP PUSH1 0x1 ADD SWAP1 JUMP JUMPDEST PUSH4 0x4E487B71 PUSH1 0xE0 SHL PUSH1 0x0 MSTORE PUSH1 0x11 PUSH1 0x4 MSTORE PUSH1 0x24 PUSH1 0x0 REVERT JUMPDEST PUSH4 0x4E487B71 PUSH1 0xE0 SHL PUSH1 0x0 MSTORE PUSH1 0x41 PUSH1 0x4 MSTORE PUSH1 0x24 PUSH1 0x0 REVERT INVALID LOG2 PUSH5 0x6970667358 0x22 SLT KECCAK256 0x2D 0xF7 PUSH1 0xE4 0x29 EXTCODESIZE 0xA8 PUSH4 0xDBA4487F 0xE2 PUSH13 0x7636551AE70ED282FE3DD11268 RETURNDATACOPY 0xE SAR 0xB9 0xC2 PUSH5 0x736F6C6343 STOP ADDMOD DIV STOP CALLER "
        },
        "methodIdentifiers": {
          "addProjectMember(string,string,address)": "2aa2fd64",
          "addTeamMember(string,address)": "81ded150",
          "approveRelease(string,string,string)": "11bc1ce0",
          "createProject(string,string,string,address[])": "4ff3ec60",
          "createRelease(string,string,string,string)": "0716dfa0",
          "createTeam(string,string,address[])": "5f36788e",
          "getLatestReleaseName(string,string)": "47566e4f",
          "getProjectMembers(string,string,uint256,uint256)": "4ce72c75",
          "getProjectMetaURI(string,string)": "b1a5042b",
          "getProjectNames(string,uint256,uint256)": "a6a54ec5",
          "getReleaseApprovers(string,string,string,uint256,uint256)": "b1bc8c8d",
          "getReleaseMetaURI(string,string,string)": "9e97c317",
          "getReleaseNames(string,string,uint256,uint256)": "83dfd03e",
          "getReleaseRejectors(string,string,string,uint256,uint256)": "17289818",
          "getTeamMembers(string,uint256,uint256)": "cfc5efac",
          "getTeamMetaURI(string)": "9fe1fb72",
          "getTeamNames(uint256,uint256)": "4eec58a3",
          "isTrustedForwarder(address)": "572b6c05",
          "rejectRelease(string,string,string)": "baffd3da",
          "removeProjectMember(string,string,address)": "5c537096",
          "removeTeamMember(string,address)": "ecb0a33d",
          "setProjectMetaURI(string,string,string)": "25ca6b03",
          "setTeamMetaURI(string,string)": "51de13bf",
          "versionRecipient()": "486ff0cd"
        }
      }
    }
  }
}