{
  "_format": "hh-sol-artifact-1",
  "contractName": "ProofOfContribution",
  "sourceName": "contracts/ERC-1155/ProofOfContribution.sol",
  "abi": [
    {
      "inputs": [
        {
          "internalType": "address",
          "name": "_valistRegistry",
          "type": "address"
        },
        {
          "internalType": "address",
          "name": "_trustedForwarder",
          "type": "address"
        }
      ],
      "stateMutability": "nonpayable",
      "type": "constructor"
    },
    {
      "anonymous": false,
      "inputs": [
        {
          "indexed": true,
          "internalType": "address",
          "name": "account",
          "type": "address"
        },
        {
          "indexed": true,
          "internalType": "address",
          "name": "operator",
          "type": "address"
        },
        {
          "indexed": false,
          "internalType": "bool",
          "name": "approved",
          "type": "bool"
        }
      ],
      "name": "ApprovalForAll",
      "type": "event"
    },
    {
      "anonymous": false,
      "inputs": [
        {
          "indexed": true,
          "internalType": "address",
          "name": "operator",
          "type": "address"
        },
        {
          "indexed": true,
          "internalType": "address",
          "name": "from",
          "type": "address"
        },
        {
          "indexed": true,
          "internalType": "address",
          "name": "to",
          "type": "address"
        },
        {
          "indexed": false,
          "internalType": "uint256[]",
          "name": "ids",
          "type": "uint256[]"
        },
        {
          "indexed": false,
          "internalType": "uint256[]",
          "name": "values",
          "type": "uint256[]"
        }
      ],
      "name": "TransferBatch",
      "type": "event"
    },
    {
      "anonymous": false,
      "inputs": [
        {
          "indexed": true,
          "internalType": "address",
          "name": "operator",
          "type": "address"
        },
        {
          "indexed": true,
          "internalType": "address",
          "name": "from",
          "type": "address"
        },
        {
          "indexed": true,
          "internalType": "address",
          "name": "to",
          "type": "address"
        },
        {
          "indexed": false,
          "internalType": "uint256",
          "name": "id",
          "type": "uint256"
        },
        {
          "indexed": false,
          "internalType": "uint256",
          "name": "value",
          "type": "uint256"
        }
      ],
      "name": "TransferSingle",
      "type": "event"
    },
    {
      "anonymous": false,
      "inputs": [
        {
          "indexed": false,
          "internalType": "string",
          "name": "value",
          "type": "string"
        },
        {
          "indexed": true,
          "internalType": "uint256",
          "name": "id",
          "type": "uint256"
        }
      ],
      "name": "URI",
      "type": "event"
    },
    {
      "inputs": [
        {
          "internalType": "address",
          "name": "account",
          "type": "address"
        },
        {
          "internalType": "uint256",
          "name": "id",
          "type": "uint256"
        }
      ],
      "name": "balanceOf",
      "outputs": [
        {
          "internalType": "uint256",
          "name": "",
          "type": "uint256"
        }
      ],
      "stateMutability": "view",
      "type": "function"
    },
    {
      "inputs": [
        {
          "internalType": "address[]",
          "name": "accounts",
          "type": "address[]"
        },
        {
          "internalType": "uint256[]",
          "name": "ids",
          "type": "uint256[]"
        }
      ],
      "name": "balanceOfBatch",
      "outputs": [
        {
          "internalType": "uint256[]",
          "name": "",
          "type": "uint256[]"
        }
      ],
      "stateMutability": "view",
      "type": "function"
    },
    {
      "inputs": [
        {
          "internalType": "address",
          "name": "account",
          "type": "address"
        },
        {
          "internalType": "address",
          "name": "operator",
          "type": "address"
        }
      ],
      "name": "isApprovedForAll",
      "outputs": [
        {
          "internalType": "bool",
          "name": "",
          "type": "bool"
        }
      ],
      "stateMutability": "view",
      "type": "function"
    },
    {
      "inputs": [
        {
          "internalType": "address",
          "name": "forwarder",
          "type": "address"
        }
      ],
      "name": "isTrustedForwarder",
      "outputs": [
        {
          "internalType": "bool",
          "name": "",
          "type": "bool"
        }
      ],
      "stateMutability": "view",
      "type": "function"
    },
    {
      "inputs": [
        {
          "internalType": "string",
          "name": "teamName",
          "type": "string"
        },
        {
          "internalType": "string",
          "name": "projectName",
          "type": "string"
        },
        {
          "internalType": "string",
          "name": "releaseName",
          "type": "string"
        },
        {
          "internalType": "address",
          "name": "contributor",
          "type": "address"
        }
      ],
      "name": "mint",
      "outputs": [],
      "stateMutability": "nonpayable",
      "type": "function"
    },
    {
      "inputs": [
        {
          "internalType": "string",
          "name": "teamName",
          "type": "string"
        },
        {
          "internalType": "string",
          "name": "projectName",
          "type": "string"
        },
        {
          "internalType": "string",
          "name": "releaseName",
          "type": "string"
        },
        {
          "internalType": "address[]",
          "name": "contributors",
          "type": "address[]"
        }
      ],
      "name": "mintBatch",
      "outputs": [],
      "stateMutability": "nonpayable",
      "type": "function"
    },
    {
      "inputs": [],
      "name": "name",
      "outputs": [
        {
          "internalType": "string",
          "name": "",
          "type": "string"
        }
      ],
      "stateMutability": "view",
      "type": "function"
    },
    {
      "inputs": [
        {
          "internalType": "address",
          "name": "from",
          "type": "address"
        },
        {
          "internalType": "address",
          "name": "to",
          "type": "address"
        },
        {
          "internalType": "uint256[]",
          "name": "ids",
          "type": "uint256[]"
        },
        {
          "internalType": "uint256[]",
          "name": "amounts",
          "type": "uint256[]"
        },
        {
          "internalType": "bytes",
          "name": "data",
          "type": "bytes"
        }
      ],
      "name": "safeBatchTransferFrom",
      "outputs": [],
      "stateMutability": "nonpayable",
      "type": "function"
    },
    {
      "inputs": [
        {
          "internalType": "address",
          "name": "from",
          "type": "address"
        },
        {
          "internalType": "address",
          "name": "to",
          "type": "address"
        },
        {
          "internalType": "uint256",
          "name": "id",
          "type": "uint256"
        },
        {
          "internalType": "uint256",
          "name": "amount",
          "type": "uint256"
        },
        {
          "internalType": "bytes",
          "name": "data",
          "type": "bytes"
        }
      ],
      "name": "safeTransferFrom",
      "outputs": [],
      "stateMutability": "nonpayable",
      "type": "function"
    },
    {
      "inputs": [
        {
          "internalType": "address",
          "name": "operator",
          "type": "address"
        },
        {
          "internalType": "bool",
          "name": "approved",
          "type": "bool"
        }
      ],
      "name": "setApprovalForAll",
      "outputs": [],
      "stateMutability": "nonpayable",
      "type": "function"
    },
    {
      "inputs": [
        {
          "internalType": "bytes4",
          "name": "interfaceId",
          "type": "bytes4"
        }
      ],
      "name": "supportsInterface",
      "outputs": [
        {
          "internalType": "bool",
          "name": "",
          "type": "bool"
        }
      ],
      "stateMutability": "view",
      "type": "function"
    },
    {
      "inputs": [],
      "name": "symbol",
      "outputs": [
        {
          "internalType": "string",
          "name": "",
          "type": "string"
        }
      ],
      "stateMutability": "view",
      "type": "function"
    },
    {
      "inputs": [
        {
          "internalType": "uint256",
          "name": "id",
          "type": "uint256"
        }
      ],
      "name": "uri",
      "outputs": [
        {
          "internalType": "string",
          "name": "",
          "type": "string"
        }
      ],
      "stateMutability": "view",
      "type": "function"
    },
    {
      "inputs": [],
      "name": "versionRecipient",
      "outputs": [
        {
          "internalType": "string",
          "name": "",
          "type": "string"
        }
      ],
      "stateMutability": "view",
      "type": "function"
    }
  ],
  "bytecode": "0x60c060405260056080819052640322e322e360dc1b60a0908152620000269190816200013c565b506040805180820190915260078082526621a7a72a2924a160c91b602090920191825262000057916006916200013c565b506040805180820190915260158082527f50726f6f66206f6620436f6e747269627574696f6e000000000000000000000060209092019182526200009e916007916200013c565b50348015620000ac57600080fd5b506040516200227d3803806200227d833981016040819052620000cf91620001ff565b6040805160208101909152600081528190620000eb8162000123565b50600380546001600160a01b039283166001600160a01b03199182161790915560048054949092169316929092179091555062000273565b8051620001389060029060208401906200013c565b5050565b8280546200014a9062000236565b90600052602060002090601f0160209004810192826200016e5760008555620001b9565b82601f106200018957805160ff1916838001178555620001b9565b82800160010185558215620001b9579182015b82811115620001b95782518255916020019190600101906200019c565b50620001c7929150620001cb565b5090565b5b80821115620001c75760008155600101620001cc565b80516001600160a01b0381168114620001fa57600080fd5b919050565b6000806040838503121562000212578182fd5b6200021d83620001e2565b91506200022d60208401620001e2565b90509250929050565b600181811c908216806200024b57607f821691505b602082108114156200026d57634e487b7160e01b600052602260045260246000fd5b50919050565b611ffa80620002836000396000f3fe608060405234801561001057600080fd5b50600436106100e95760003560e01c8063486ff0cd1161008c57806395d89b411161006657806395d89b41146101e4578063a22cb465146101ec578063e985e9c5146101ff578063f242432a1461023b57600080fd5b8063486ff0cd1461019a5780634e1273f4146101a2578063572b6c05146101c257600080fd5b806306fdde03116100c857806306fdde031461014c5780630e89341c146101615780632aedc3f9146101745780632eb2c2d61461018757600080fd5b8062fdd58e146100ee57806301ffc9a714610114578063046fc0c914610137575b600080fd5b6101016100fc3660046118a5565b61024e565b6040519081526020015b60405180910390f35b61012761012236600461194b565b6102e5565b604051901515815260200161010b565b61014a610145366004611a96565b610337565b005b61015461067b565b60405161010b9190611ccf565b61015461016f366004611b3e565b610709565b61014a610182366004611a01565b6107e8565b61014a610195366004611766565b610ae8565b610154610b91565b6101b56101b03660046118ce565b610b9e565b60405161010b9190611c8e565b6101276101d0366004611713565b6003546001600160a01b0391821691161490565b610154610d00565b61014a6101fa36600461186f565b610d0d565b61012761020d366004611734565b6001600160a01b03918216600090815260016020908152604080832093909416825291909152205460ff1690565b61014a61024936600461180c565b610d23565b60006001600160a01b0383166102bf5760405162461bcd60e51b815260206004820152602b60248201527f455243313135353a2062616c616e636520717565727920666f7220746865207a60448201526a65726f206164647265737360a81b60648201526084015b60405180910390fd5b506000908152602081815260408083206001600160a01b03949094168352929052205490565b60006001600160e01b03198216636cdb3d1360e11b148061031657506001600160e01b031982166303a24d0760e21b145b8061033157506301ffc9a760e01b6001600160e01b03198316145b92915050565b600046858051906020012060405160200161035c929190918252602082015260400190565b60408051808303601f19018152828252805160209182012087518883012091840181905291830152915060009060600160408051808303601f19018152828252805160209182012087518883012091840181905291830152915060009060600160408051601f1981840301815291905280516020909101206004549091506001600160a01b03166301738281846103f1610dbc565b6040516001600160e01b031960e085901b16815260048101929092526001600160a01b0316602482015260440160206040518083038186803b15801561043657600080fd5b505afa15801561044a573d6000803e3d6000fd5b505050506040513d601f19601f8201168201806040525081019061046e919061192f565b8061050b57506004546001600160a01b031663600c39118361048e610dbc565b6040516001600160e01b031960e085901b16815260048101929092526001600160a01b0316602482015260440160206040518083038186803b1580156104d357600080fd5b505afa1580156104e7573d6000803e3d6000fd5b505050506040513d601f19601f8201168201806040525081019061050b919061192f565b6105495760405162461bcd60e51b815260206004820152600f60248201526e32b93916b83937b516b6b2b6b132b960891b60448201526064016102b6565b600480546040516321a0be0360e11b81529182018390526000916001600160a01b03909116906343417c069060240160006040518083038186803b15801561059057600080fd5b505afa1580156105a4573d6000803e3d6000fd5b505050506040513d6000823e601f3d908101601f191682016040526105cc9190810190611983565b51116106125760405162461bcd60e51b8152602060048201526015602482015274195c9c8b5c995b19585cd94b5b9bdd0b595e1a5cdd605a1b60448201526064016102b6565b60005b84518110156106715761066185828151811061064157634e487b7160e01b600052603260045260246000fd5b602002602001015183600160405180602001604052806000815250610def565b61066a81611eb5565b9050610615565b5050505050505050565b6007805461068890611e4d565b80601f01602080910402602001604051908101604052809291908181526020018280546106b490611e4d565b80156107015780601f106106d657610100808354040283529160200191610701565b820191906000526020600020905b8154815290600101906020018083116106e457829003601f168201915b505050505081565b604080518082018252601981527f68747470733a2f2f676174657761792e76616c6973742e696f0000000000000060208201526004805492516321a0be0360e11b815290810184905260609282916001600160a01b03909116906343417c069060240160006040518083038186803b15801561078457600080fd5b505afa158015610798573d6000803e3d6000fd5b505050506040513d6000823e601f3d908101601f191682016040526107c09190810190611983565b6040516020016107d1929190611bbc565b604051602081830303815290604052915050919050565b600046858051906020012060405160200161080d929190918252602082015260400190565b60408051808303601f19018152828252805160209182012087518883012091840181905291830152915060009060600160408051808303601f19018152828252805160209182012087518883012091840181905291830152915060009060600160408051601f1981840301815291905280516020909101206004549091506001600160a01b03166301738281846108a2610dbc565b6040516001600160e01b031960e085901b16815260048101929092526001600160a01b0316602482015260440160206040518083038186803b1580156108e757600080fd5b505afa1580156108fb573d6000803e3d6000fd5b505050506040513d601f19601f8201168201806040525081019061091f919061192f565b806109bc57506004546001600160a01b031663600c39118361093f610dbc565b6040516001600160e01b031960e085901b16815260048101929092526001600160a01b0316602482015260440160206040518083038186803b15801561098457600080fd5b505afa158015610998573d6000803e3d6000fd5b505050506040513d601f19601f820116820180604052508101906109bc919061192f565b6109fa5760405162461bcd60e51b815260206004820152600f60248201526e32b93916b83937b516b6b2b6b132b960891b60448201526064016102b6565b600480546040516321a0be0360e11b81529182018390526000916001600160a01b03909116906343417c069060240160006040518083038186803b158015610a4157600080fd5b505afa158015610a55573d6000803e3d6000fd5b505050506040513d6000823e601f3d908101601f19168201604052610a7d9190810190611983565b5111610ac35760405162461bcd60e51b8152602060048201526015602482015274195c9c8b5c995b19585cd94b5b9bdd0b595e1a5cdd605a1b60448201526064016102b6565b610adf8482600160405180602001604052806000815250610def565b50505050505050565b610af0610dbc565b6001600160a01b0316856001600160a01b03161480610b165750610b168561020d610dbc565b610b7d5760405162461bcd60e51b815260206004820152603260248201527f455243313135353a207472616e736665722063616c6c6572206973206e6f74206044820152711bdddb995c881b9bdc88185c1c1c9bdd995960721b60648201526084016102b6565b610b8a8585858585610f04565b5050505050565b6005805461068890611e4d565b60608151835114610c035760405162461bcd60e51b815260206004820152602960248201527f455243313135353a206163636f756e747320616e6420696473206c656e677468604482015268040dad2e6dac2e8c6d60bb1b60648201526084016102b6565b6000835167ffffffffffffffff811115610c2d57634e487b7160e01b600052604160045260246000fd5b604051908082528060200260200182016040528015610c56578160200160208202803683370190505b50905060005b8451811015610cf857610cbd858281518110610c8857634e487b7160e01b600052603260045260246000fd5b6020026020010151858381518110610cb057634e487b7160e01b600052603260045260246000fd5b602002602001015161024e565b828281518110610cdd57634e487b7160e01b600052603260045260246000fd5b6020908102919091010152610cf181611eb5565b9050610c5c565b509392505050565b6006805461068890611e4d565b610d1f610d18610dbc565b8383611108565b5050565b610d2b610dbc565b6001600160a01b0316856001600160a01b03161480610d515750610d518561020d610dbc565b610daf5760405162461bcd60e51b815260206004820152602960248201527f455243313135353a2063616c6c6572206973206e6f74206f776e6572206e6f7260448201526808185c1c1c9bdd995960ba1b60648201526084016102b6565b610b8a85858585856111e9565b6003546000906001600160a01b0316331415610ddf575060131936013560601c90565b610de7611308565b905090565b90565b6001600160a01b038416610e4f5760405162461bcd60e51b815260206004820152602160248201527f455243313135353a206d696e7420746f20746865207a65726f206164647265736044820152607360f81b60648201526084016102b6565b6000610e59610dbc565b9050610e7481600087610e6b88611330565b610b8a88611330565b6000848152602081815260408083206001600160a01b038916845290915281208054859290610ea4908490611e05565b909155505060408051858152602081018590526001600160a01b0380881692600092918516917fc3d58168c5ae7397731d063d5bbf3d657854427343f4c083240f7aacaa2d0f62910160405180910390a4610b8a81600087878787611389565b8151835114610f665760405162461bcd60e51b815260206004820152602860248201527f455243313135353a2069647320616e6420616d6f756e7473206c656e677468206044820152670dad2e6dac2e8c6d60c31b60648201526084016102b6565b6001600160a01b038416610f8c5760405162461bcd60e51b81526004016102b690611d2a565b6000610f96610dbc565b905060005b845181101561109a576000858281518110610fc657634e487b7160e01b600052603260045260246000fd5b602002602001015190506000858381518110610ff257634e487b7160e01b600052603260045260246000fd5b602090810291909101810151600084815280835260408082206001600160a01b038e1683529093529190912054909150818110156110425760405162461bcd60e51b81526004016102b690611d6f565b6000838152602081815260408083206001600160a01b038e8116855292528083208585039055908b1682528120805484929061107f908490611e05565b925050819055505050508061109390611eb5565b9050610f9b565b50846001600160a01b0316866001600160a01b0316826001600160a01b03167f4a39dc06d4c0dbc64b70af90fd698a233a518aa5d07e595d983b8c0526c8f7fb87876040516110ea929190611ca1565b60405180910390a46111008187878787876114f4565b505050505050565b816001600160a01b0316836001600160a01b0316141561117c5760405162461bcd60e51b815260206004820152602960248201527f455243313135353a2073657474696e6720617070726f76616c20737461747573604482015268103337b91039b2b63360b91b60648201526084016102b6565b6001600160a01b03838116600081815260016020908152604080832094871680845294825291829020805460ff191686151590811790915591519182527f17307eab39ab6107e8899845ad3d59bd9653f200f220920489ca2b5937696c31910160405180910390a3505050565b6001600160a01b03841661120f5760405162461bcd60e51b81526004016102b690611d2a565b6000611219610dbc565b905061122a818787610e6b88611330565b6000848152602081815260408083206001600160a01b038a1684529091529020548381101561126b5760405162461bcd60e51b81526004016102b690611d6f565b6000858152602081815260408083206001600160a01b038b81168552925280832087850390559088168252812080548692906112a8908490611e05565b909155505060408051868152602081018690526001600160a01b03808916928a821692918616917fc3d58168c5ae7397731d063d5bbf3d657854427343f4c083240f7aacaa2d0f62910160405180910390a4610adf828888888888611389565b6003546000906001600160a01b031633141561132b575060131936013560601c90565b503390565b6040805160018082528183019092526060916000919060208083019080368337019050509050828160008151811061137857634e487b7160e01b600052603260045260246000fd5b602090810291909101015292915050565b6001600160a01b0384163b156111005760405163f23a6e6160e01b81526001600160a01b0385169063f23a6e61906113cd9089908990889088908890600401611c49565b602060405180830381600087803b1580156113e757600080fd5b505af1925050508015611417575060408051601f3d908101601f1916820190925261141491810190611967565b60015b6114c457611423611efc565b806308c379a0141561145d5750611438611f13565b80611443575061145f565b8060405162461bcd60e51b81526004016102b69190611ccf565b505b60405162461bcd60e51b815260206004820152603460248201527f455243313135353a207472616e7366657220746f206e6f6e20455243313135356044820152732932b1b2b4bb32b91034b6b83632b6b2b73a32b960611b60648201526084016102b6565b6001600160e01b0319811663f23a6e6160e01b14610adf5760405162461bcd60e51b81526004016102b690611ce2565b6001600160a01b0384163b156111005760405163bc197c8160e01b81526001600160a01b0385169063bc197c81906115389089908990889088908890600401611beb565b602060405180830381600087803b15801561155257600080fd5b505af1925050508015611582575060408051601f3d908101601f1916820190925261157f91810190611967565b60015b61158e57611423611efc565b6001600160e01b0319811663bc197c8160e01b14610adf5760405162461bcd60e51b81526004016102b690611ce2565b80356001600160a01b03811681146115d557600080fd5b919050565b600082601f8301126115ea578081fd5b813560206115f782611db9565b6040516116048282611e88565b8381528281019150858301600585901b87018401881015611623578586fd5b855b8581101561164857611636826115be565b84529284019290840190600101611625565b5090979650505050505050565b600082601f830112611665578081fd5b8135602061167282611db9565b60405161167f8282611e88565b8381528281019150858301600585901b8701840188101561169e578586fd5b855b85811015611648578135845292840192908401906001016116a0565b600082601f8301126116cc578081fd5b81356116d781611ddd565b6040516116e48282611e88565b8281528560208487010111156116f8578384fd5b82602086016020830137918201602001929092529392505050565b600060208284031215611724578081fd5b61172d826115be565b9392505050565b60008060408385031215611746578081fd5b61174f836115be565b915061175d602084016115be565b90509250929050565b600080600080600060a0868803121561177d578081fd5b611786866115be565b9450611794602087016115be565b9350604086013567ffffffffffffffff808211156117b0578283fd5b6117bc89838a01611655565b945060608801359150808211156117d1578283fd5b6117dd89838a01611655565b935060808801359150808211156117f2578283fd5b506117ff888289016116bc565b9150509295509295909350565b600080600080600060a08688031215611823578081fd5b61182c866115be565b945061183a602087016115be565b93506040860135925060608601359150608086013567ffffffffffffffff811115611863578182fd5b6117ff888289016116bc565b60008060408385031215611881578182fd5b61188a836115be565b9150602083013561189a81611f9d565b809150509250929050565b600080604083850312156118b7578182fd5b6118c0836115be565b946020939093013593505050565b600080604083850312156118e0578182fd5b823567ffffffffffffffff808211156118f7578384fd5b611903868387016115da565b93506020850135915080821115611918578283fd5b5061192585828601611655565b9150509250929050565b600060208284031215611940578081fd5b815161172d81611f9d565b60006020828403121561195c578081fd5b813561172d81611fae565b600060208284031215611978578081fd5b815161172d81611fae565b600060208284031215611994578081fd5b815167ffffffffffffffff8111156119aa578182fd5b8201601f810184136119ba578182fd5b80516119c581611ddd565b6040516119d28282611e88565b8281528660208486010111156119e6578485fd5b6119f7836020830160208701611e1d565b9695505050505050565b60008060008060808587031215611a16578182fd5b843567ffffffffffffffff80821115611a2d578384fd5b611a39888389016116bc565b95506020870135915080821115611a4e578384fd5b611a5a888389016116bc565b94506040870135915080821115611a6f578384fd5b50611a7c878288016116bc565b925050611a8b606086016115be565b905092959194509250565b60008060008060808587031215611aab578182fd5b843567ffffffffffffffff80821115611ac2578384fd5b611ace888389016116bc565b95506020870135915080821115611ae3578384fd5b611aef888389016116bc565b94506040870135915080821115611b04578384fd5b611b10888389016116bc565b93506060870135915080821115611b25578283fd5b50611b32878288016115da565b91505092959194509250565b600060208284031215611b4f578081fd5b5035919050565b6000815180845260208085019450808401835b83811015611b8557815187529582019590820190600101611b69565b509495945050505050565b60008151808452611ba8816020860160208601611e1d565b601f01601f19169290920160200192915050565b60008351611bce818460208801611e1d565b835190830190611be2818360208801611e1d565b01949350505050565b6001600160a01b0386811682528516602082015260a060408201819052600090611c1790830186611b56565b8281036060840152611c298186611b56565b90508281036080840152611c3d8185611b90565b98975050505050505050565b6001600160a01b03868116825285166020820152604081018490526060810183905260a060808201819052600090611c8390830184611b90565b979650505050505050565b60208152600061172d6020830184611b56565b604081526000611cb46040830185611b56565b8281036020840152611cc68185611b56565b95945050505050565b60208152600061172d6020830184611b90565b60208082526028908201527f455243313135353a204552433131353552656365697665722072656a656374656040820152676420746f6b656e7360c01b606082015260800190565b60208082526025908201527f455243313135353a207472616e7366657220746f20746865207a65726f206164604082015264647265737360d81b606082015260800190565b6020808252602a908201527f455243313135353a20696e73756666696369656e742062616c616e636520666f60408201526939103a3930b739b332b960b11b606082015260800190565b600067ffffffffffffffff821115611dd357611dd3611ee6565b5060051b60200190565b600067ffffffffffffffff821115611df757611df7611ee6565b50601f01601f191660200190565b60008219821115611e1857611e18611ed0565b500190565b60005b83811015611e38578181015183820152602001611e20565b83811115611e47576000848401525b50505050565b600181811c90821680611e6157607f821691505b60208210811415611e8257634e487b7160e01b600052602260045260246000fd5b50919050565b601f8201601f1916810167ffffffffffffffff81118282101715611eae57611eae611ee6565b6040525050565b6000600019821415611ec957611ec9611ed0565b5060010190565b634e487b7160e01b600052601160045260246000fd5b634e487b7160e01b600052604160045260246000fd5b600060033d1115610dec57600481823e5160e01c90565b600060443d1015611f215790565b6040516003193d81016004833e81513d67ffffffffffffffff8160248401118184111715611f5157505050505090565b8285019150815181811115611f695750505050505090565b843d8701016020828501011115611f835750505050505090565b611f9260208286010187611e88565b509095945050505050565b8015158114611fab57600080fd5b50565b6001600160e01b031981168114611fab57600080fdfea2646970667358221220825eed169d750c3b9fdf725dbe1d21f34c48186d79571b9756e2ae5844ee9d6264736f6c63430008040033",
  "linkReferences": {},
  "deployedLinkReferences": {}
}