{
  "_format": "hh-sol-artifact-1",
  "contractName": "Valist",
  "sourceName": "contracts/Valist.sol",
  "abi": [
    {
      "inputs": [
        {
          "internalType": "address",
          "name": "_trustedForwarder",
          "type": "address"
        }
      ],
      "stateMutability": "nonpayable",
      "type": "constructor"
    },
    {
      "anonymous": false,
      "inputs": [
        {
          "indexed": false,
          "internalType": "string",
          "name": "_teamName",
          "type": "string"
        },
        {
          "indexed": false,
          "internalType": "string",
          "name": "_projectName",
          "type": "string"
        },
        {
          "indexed": false,
          "internalType": "string",
          "name": "_metaCID",
          "type": "string"
        },
        {
          "indexed": false,
          "internalType": "address",
          "name": "_member",
          "type": "address"
        }
      ],
      "name": "ProjectCreated",
      "type": "event"
    },
    {
      "anonymous": false,
      "inputs": [
        {
          "indexed": false,
          "internalType": "string",
          "name": "_teamName",
          "type": "string"
        },
        {
          "indexed": false,
          "internalType": "string",
          "name": "_projectName",
          "type": "string"
        },
        {
          "indexed": false,
          "internalType": "address",
          "name": "_member",
          "type": "address"
        }
      ],
      "name": "ProjectMemberAdded",
      "type": "event"
    },
    {
      "anonymous": false,
      "inputs": [
        {
          "indexed": false,
          "internalType": "string",
          "name": "_teamName",
          "type": "string"
        },
        {
          "indexed": false,
          "internalType": "string",
          "name": "_projectName",
          "type": "string"
        },
        {
          "indexed": false,
          "internalType": "address",
          "name": "_member",
          "type": "address"
        }
      ],
      "name": "ProjectMemberRemoved",
      "type": "event"
    },
    {
      "anonymous": false,
      "inputs": [
        {
          "indexed": false,
          "internalType": "string",
          "name": "_teamName",
          "type": "string"
        },
        {
          "indexed": false,
          "internalType": "string",
          "name": "_projectName",
          "type": "string"
        },
        {
          "indexed": false,
          "internalType": "string",
          "name": "_metaCID",
          "type": "string"
        },
        {
          "indexed": false,
          "internalType": "address",
          "name": "_member",
          "type": "address"
        }
      ],
      "name": "ProjectUpdated",
      "type": "event"
    },
    {
      "anonymous": false,
      "inputs": [
        {
          "indexed": false,
          "internalType": "string",
          "name": "_teamName",
          "type": "string"
        },
        {
          "indexed": false,
          "internalType": "string",
          "name": "_projectName",
          "type": "string"
        },
        {
          "indexed": false,
          "internalType": "string",
          "name": "_releaseName",
          "type": "string"
        },
        {
          "indexed": false,
          "internalType": "address",
          "name": "_sender",
          "type": "address"
        }
      ],
      "name": "ReleaseApproved",
      "type": "event"
    },
    {
      "anonymous": false,
      "inputs": [
        {
          "indexed": false,
          "internalType": "string",
          "name": "_teamName",
          "type": "string"
        },
        {
          "indexed": false,
          "internalType": "string",
          "name": "_projectName",
          "type": "string"
        },
        {
          "indexed": false,
          "internalType": "string",
          "name": "_releaseName",
          "type": "string"
        },
        {
          "indexed": false,
          "internalType": "string",
          "name": "_metaCID",
          "type": "string"
        },
        {
          "indexed": false,
          "internalType": "address",
          "name": "_member",
          "type": "address"
        }
      ],
      "name": "ReleaseCreated",
      "type": "event"
    },
    {
      "anonymous": false,
      "inputs": [
        {
          "indexed": false,
          "internalType": "string",
          "name": "_teamName",
          "type": "string"
        },
        {
          "indexed": false,
          "internalType": "string",
          "name": "_projectName",
          "type": "string"
        },
        {
          "indexed": false,
          "internalType": "string",
          "name": "_releaseName",
          "type": "string"
        },
        {
          "indexed": false,
          "internalType": "address",
          "name": "_sender",
          "type": "address"
        }
      ],
      "name": "ReleaseRejected",
      "type": "event"
    },
    {
      "anonymous": false,
      "inputs": [
        {
          "indexed": false,
          "internalType": "string",
          "name": "_teamName",
          "type": "string"
        },
        {
          "indexed": false,
          "internalType": "string",
          "name": "_metaCID",
          "type": "string"
        },
        {
          "indexed": false,
          "internalType": "address",
          "name": "_sender",
          "type": "address"
        }
      ],
      "name": "TeamCreated",
      "type": "event"
    },
    {
      "anonymous": false,
      "inputs": [
        {
          "indexed": false,
          "internalType": "string",
          "name": "_teamName",
          "type": "string"
        },
        {
          "indexed": false,
          "internalType": "address",
          "name": "_member",
          "type": "address"
        }
      ],
      "name": "TeamMemberAdded",
      "type": "event"
    },
    {
      "anonymous": false,
      "inputs": [
        {
          "indexed": false,
          "internalType": "string",
          "name": "_teamName",
          "type": "string"
        },
        {
          "indexed": false,
          "internalType": "address",
          "name": "_member",
          "type": "address"
        }
      ],
      "name": "TeamMemberRemoved",
      "type": "event"
    },
    {
      "anonymous": false,
      "inputs": [
        {
          "indexed": false,
          "internalType": "string",
          "name": "_teamName",
          "type": "string"
        },
        {
          "indexed": false,
          "internalType": "string",
          "name": "_metaCID",
          "type": "string"
        },
        {
          "indexed": false,
          "internalType": "address",
          "name": "_member",
          "type": "address"
        }
      ],
      "name": "TeamUpdated",
      "type": "event"
    },
    {
      "inputs": [
        {
          "internalType": "string",
          "name": "_teamName",
          "type": "string"
        },
        {
          "internalType": "string",
          "name": "_projectName",
          "type": "string"
        },
        {
          "internalType": "address",
          "name": "_address",
          "type": "address"
        }
      ],
      "name": "addProjectMember",
      "outputs": [],
      "stateMutability": "nonpayable",
      "type": "function"
    },
    {
      "inputs": [
        {
          "internalType": "string",
          "name": "_teamName",
          "type": "string"
        },
        {
          "internalType": "address",
          "name": "_address",
          "type": "address"
        }
      ],
      "name": "addTeamMember",
      "outputs": [],
      "stateMutability": "nonpayable",
      "type": "function"
    },
    {
      "inputs": [
        {
          "internalType": "string",
          "name": "_teamName",
          "type": "string"
        },
        {
          "internalType": "string",
          "name": "_projectName",
          "type": "string"
        },
        {
          "internalType": "string",
          "name": "_releaseName",
          "type": "string"
        }
      ],
      "name": "approveRelease",
      "outputs": [],
      "stateMutability": "nonpayable",
      "type": "function"
    },
    {
      "inputs": [
        {
          "internalType": "string",
          "name": "_teamName",
          "type": "string"
        },
        {
          "internalType": "string",
          "name": "_projectName",
          "type": "string"
        },
        {
          "internalType": "string",
          "name": "_metaCID",
          "type": "string"
        },
        {
          "internalType": "address[]",
          "name": "_members",
          "type": "address[]"
        }
      ],
      "name": "createProject",
      "outputs": [],
      "stateMutability": "nonpayable",
      "type": "function"
    },
    {
      "inputs": [
        {
          "internalType": "string",
          "name": "_teamName",
          "type": "string"
        },
        {
          "internalType": "string",
          "name": "_projectName",
          "type": "string"
        },
        {
          "internalType": "string",
          "name": "_releaseName",
          "type": "string"
        },
        {
          "internalType": "string",
          "name": "_metaCID",
          "type": "string"
        }
      ],
      "name": "createRelease",
      "outputs": [],
      "stateMutability": "nonpayable",
      "type": "function"
    },
    {
      "inputs": [
        {
          "internalType": "string",
          "name": "_teamName",
          "type": "string"
        },
        {
          "internalType": "string",
          "name": "_metaCID",
          "type": "string"
        },
        {
          "internalType": "address[]",
          "name": "_members",
          "type": "address[]"
        }
      ],
      "name": "createTeam",
      "outputs": [],
      "stateMutability": "nonpayable",
      "type": "function"
    },
    {
      "inputs": [
        {
          "internalType": "string",
          "name": "_teamName",
          "type": "string"
        },
        {
          "internalType": "string",
          "name": "_projectName",
          "type": "string"
        }
      ],
      "name": "getLatestReleaseName",
      "outputs": [
        {
          "internalType": "string",
          "name": "",
          "type": "string"
        }
      ],
      "stateMutability": "view",
      "type": "function"
    },
    {
      "inputs": [
        {
          "internalType": "string",
          "name": "_teamName",
          "type": "string"
        },
        {
          "internalType": "string",
          "name": "_projectName",
          "type": "string"
        },
        {
          "internalType": "uint256",
          "name": "_page",
          "type": "uint256"
        },
        {
          "internalType": "uint256",
          "name": "_size",
          "type": "uint256"
        }
      ],
      "name": "getProjectMembers",
      "outputs": [
        {
          "internalType": "address[]",
          "name": "",
          "type": "address[]"
        }
      ],
      "stateMutability": "view",
      "type": "function"
    },
    {
      "inputs": [
        {
          "internalType": "string",
          "name": "_teamName",
          "type": "string"
        },
        {
          "internalType": "string",
          "name": "_projectName",
          "type": "string"
        }
      ],
      "name": "getProjectMetaCID",
      "outputs": [
        {
          "internalType": "string",
          "name": "",
          "type": "string"
        }
      ],
      "stateMutability": "view",
      "type": "function"
    },
    {
      "inputs": [
        {
          "internalType": "string",
          "name": "_teamName",
          "type": "string"
        },
        {
          "internalType": "uint256",
          "name": "_page",
          "type": "uint256"
        },
        {
          "internalType": "uint256",
          "name": "_size",
          "type": "uint256"
        }
      ],
      "name": "getProjectNames",
      "outputs": [
        {
          "internalType": "string[]",
          "name": "",
          "type": "string[]"
        }
      ],
      "stateMutability": "view",
      "type": "function"
    },
    {
      "inputs": [
        {
          "internalType": "string",
          "name": "_teamName",
          "type": "string"
        },
        {
          "internalType": "string",
          "name": "_projectName",
          "type": "string"
        },
        {
          "internalType": "string",
          "name": "_releaseName",
          "type": "string"
        },
        {
          "internalType": "uint256",
          "name": "_page",
          "type": "uint256"
        },
        {
          "internalType": "uint256",
          "name": "_size",
          "type": "uint256"
        }
      ],
      "name": "getReleaseApprovers",
      "outputs": [
        {
          "internalType": "address[]",
          "name": "",
          "type": "address[]"
        }
      ],
      "stateMutability": "view",
      "type": "function"
    },
    {
      "inputs": [
        {
          "internalType": "string",
          "name": "_teamName",
          "type": "string"
        },
        {
          "internalType": "string",
          "name": "_projectName",
          "type": "string"
        },
        {
          "internalType": "string",
          "name": "_releaseName",
          "type": "string"
        }
      ],
      "name": "getReleaseMetaCID",
      "outputs": [
        {
          "internalType": "string",
          "name": "",
          "type": "string"
        }
      ],
      "stateMutability": "view",
      "type": "function"
    },
    {
      "inputs": [
        {
          "internalType": "string",
          "name": "_teamName",
          "type": "string"
        },
        {
          "internalType": "string",
          "name": "_projectName",
          "type": "string"
        },
        {
          "internalType": "uint256",
          "name": "_page",
          "type": "uint256"
        },
        {
          "internalType": "uint256",
          "name": "_size",
          "type": "uint256"
        }
      ],
      "name": "getReleaseNames",
      "outputs": [
        {
          "internalType": "string[]",
          "name": "",
          "type": "string[]"
        }
      ],
      "stateMutability": "view",
      "type": "function"
    },
    {
      "inputs": [
        {
          "internalType": "string",
          "name": "_teamName",
          "type": "string"
        },
        {
          "internalType": "string",
          "name": "_projectName",
          "type": "string"
        },
        {
          "internalType": "string",
          "name": "_releaseName",
          "type": "string"
        },
        {
          "internalType": "uint256",
          "name": "_page",
          "type": "uint256"
        },
        {
          "internalType": "uint256",
          "name": "_size",
          "type": "uint256"
        }
      ],
      "name": "getReleaseRejectors",
      "outputs": [
        {
          "internalType": "address[]",
          "name": "",
          "type": "address[]"
        }
      ],
      "stateMutability": "view",
      "type": "function"
    },
    {
      "inputs": [
        {
          "internalType": "string",
          "name": "_teamName",
          "type": "string"
        },
        {
          "internalType": "uint256",
          "name": "_page",
          "type": "uint256"
        },
        {
          "internalType": "uint256",
          "name": "_size",
          "type": "uint256"
        }
      ],
      "name": "getTeamMembers",
      "outputs": [
        {
          "internalType": "address[]",
          "name": "",
          "type": "address[]"
        }
      ],
      "stateMutability": "view",
      "type": "function"
    },
    {
      "inputs": [
        {
          "internalType": "string",
          "name": "_teamName",
          "type": "string"
        }
      ],
      "name": "getTeamMetaCID",
      "outputs": [
        {
          "internalType": "string",
          "name": "",
          "type": "string"
        }
      ],
      "stateMutability": "view",
      "type": "function"
    },
    {
      "inputs": [
        {
          "internalType": "uint256",
          "name": "_page",
          "type": "uint256"
        },
        {
          "internalType": "uint256",
          "name": "_size",
          "type": "uint256"
        }
      ],
      "name": "getTeamNames",
      "outputs": [
        {
          "internalType": "string[]",
          "name": "",
          "type": "string[]"
        }
      ],
      "stateMutability": "view",
      "type": "function"
    },
    {
      "inputs": [
        {
          "internalType": "address",
          "name": "forwarder",
          "type": "address"
        }
      ],
      "name": "isTrustedForwarder",
      "outputs": [
        {
          "internalType": "bool",
          "name": "",
          "type": "bool"
        }
      ],
      "stateMutability": "view",
      "type": "function"
    },
    {
      "inputs": [
        {
          "internalType": "string",
          "name": "_teamName",
          "type": "string"
        },
        {
          "internalType": "string",
          "name": "_projectName",
          "type": "string"
        },
        {
          "internalType": "string",
          "name": "_releaseName",
          "type": "string"
        }
      ],
      "name": "rejectRelease",
      "outputs": [],
      "stateMutability": "nonpayable",
      "type": "function"
    },
    {
      "inputs": [
        {
          "internalType": "string",
          "name": "_teamName",
          "type": "string"
        },
        {
          "internalType": "string",
          "name": "_projectName",
          "type": "string"
        },
        {
          "internalType": "address",
          "name": "_address",
          "type": "address"
        }
      ],
      "name": "removeProjectMember",
      "outputs": [],
      "stateMutability": "nonpayable",
      "type": "function"
    },
    {
      "inputs": [
        {
          "internalType": "string",
          "name": "_teamName",
          "type": "string"
        },
        {
          "internalType": "address",
          "name": "_address",
          "type": "address"
        }
      ],
      "name": "removeTeamMember",
      "outputs": [],
      "stateMutability": "nonpayable",
      "type": "function"
    },
    {
      "inputs": [
        {
          "internalType": "string",
          "name": "_teamName",
          "type": "string"
        },
        {
          "internalType": "string",
          "name": "_projectName",
          "type": "string"
        },
        {
          "internalType": "string",
          "name": "_metaCID",
          "type": "string"
        }
      ],
      "name": "setProjectMetaCID",
      "outputs": [],
      "stateMutability": "nonpayable",
      "type": "function"
    },
    {
      "inputs": [
        {
          "internalType": "string",
          "name": "_teamName",
          "type": "string"
        },
        {
          "internalType": "string",
          "name": "_metaCID",
          "type": "string"
        }
      ],
      "name": "setTeamMetaCID",
      "outputs": [],
      "stateMutability": "nonpayable",
      "type": "function"
    },
    {
      "inputs": [],
      "name": "versionRecipient",
      "outputs": [
        {
          "internalType": "string",
          "name": "",
          "type": "string"
        }
      ],
      "stateMutability": "view",
      "type": "function"
    }
  ],
  "bytecode": "0x60c060405260056080819052640322e322e360dc1b60a09081526200002891600691906200007f565b503480156200003657600080fd5b506040516200366a3803806200366a833981016040819052620000599162000125565b600080546001600160a01b0319166001600160a01b039290921691909117905562000192565b8280546200008d9062000155565b90600052602060002090601f016020900481019282620000b15760008555620000fc565b82601f10620000cc57805160ff1916838001178555620000fc565b82800160010185558215620000fc579182015b82811115620000fc578251825591602001919060010190620000df565b506200010a9291506200010e565b5090565b5b808211156200010a57600081556001016200010f565b60006020828403121562000137578081fd5b81516001600160a01b03811681146200014e578182fd5b9392505050565b600181811c908216806200016a57607f821691505b602082108114156200018c57634e487b7160e01b600052602260045260246000fd5b50919050565b6134c880620001a26000396000f3fe608060405234801561001057600080fd5b50600436106101585760003560e01c80635be9d4b2116100c3578063b1bc8c8d1161007c578063b1bc8c8d146102f9578063baffd3da1461030c578063cded382f1461031f578063cfc5efac14610332578063ecb0a33d14610345578063fcaa705e1461035857600080fd5b80635be9d4b2146102875780635c5370961461029a5780635f36788e146102ad57806381ded150146102c057806383dfd03e146102d3578063a6a54ec5146102e657600080fd5b8063486ff0cd11610115578063486ff0cd146101f45780634ce72c75146101fc5780634eec58a31461020f5780634ff3ec601461022f578063572b6c05146102425780635bc25e771461027457600080fd5b80630716dfa01461015d57806311bc1ce01461017257806317289818146101855780632aa2fd64146101ae5780632d19fdfe146101c157806347566e4f146101d4575b600080fd5b61017061016b366004612e59565b61036b565b005b610170610180366004612d39565b61058c565b610198610193366004612ef4565b6106e8565b6040516101a591906130b0565b60405180910390f35b6101706101bc366004612c46565b6108c7565b6101706101cf366004612be6565b610a6b565b6101e76101e2366004612be6565b610bce565b6040516101a5919061315e565b6101e7610d38565b61019861020a366004612f89565b610dc6565b61022261021d366004613044565b610f6d565b6040516101a591906130fd565b61017061023d366004612db2565b611111565b610264610250366004612b47565b6000546001600160a01b0391821691161490565b60405190151581526020016101a5565b6101e7610282366004612b61565b61136b565b6101e7610295366004612be6565b6114a9565b6101706102a8366004612c46565b6115f4565b6101706102bb366004612cb6565b61177a565b6101706102ce366004612b9b565b6119f2565b6102226102e1366004612f89565b611b06565b6102226102f4366004612ff9565b611d2e565b610198610307366004612ef4565b611f38565b61017061031a366004612d39565b6120fe565b6101e761032d366004612d39565b61223a565b610198610340366004612ff9565b6123ac565b610170610353366004612b9b565b61251b565b610170610366366004612d39565b612637565b6000468580519060200120604051602001610390929190918252602082015260400190565b60408051808303601f19018152828252805160209182012087518883012091840181905291830152915060009060600160408051808303601f1901815282825280516020918201208751888301209184018190529183015291506000906060016040516020818303038152906040528051906020012060001c905061042d61041661277c565b6000848152600360205260409020600101906127a2565b6104705760405162461bcd60e51b815260206004820152600f60248201526e32b93916b83937b516b6b2b6b132b960891b60448201526064015b60405180910390fd5b6000818152600560205260409020805461048990613410565b1590506104a85760405162461bcd60e51b8152600401610467906132c0565b60008451116104c95760405162461bcd60e51b8152600401610467906132ea565b60008551116104ea5760405162461bcd60e51b815260040161046790613312565b60008181526005602090815260409091208551610509928701906129ab565b5060008281526003602090815260408220805460018101825590835291819020875161053c9391909101918801906129ab565b507f15fb1d214ed195f7210e450a416a0640362c37a0a2d2d0ab63481f967aae0e008787878761056a61277c565b60405161057b95949392919061322c565b60405180910390a150505050505050565b60004684805190602001206040516020016105b1929190918252602082015260400190565b60408051601f198184030181528282528051602091820120865187830120828501829052848401528251808503840181526060850184528051908301208651878401206080860182905260a0808701919091528451808703909101815260c090950184528451948301949094206000818152600590935292822080549195509061063a90613410565b9050116106595760405162461bcd60e51b81526004016104679061333a565b61067861066461277c565b6000838152600460205260409020906127c7565b5061069b61068461277c565b6000838152600460205260409020600201906127dc565b507fa70c9d49a7ef09401d07a7aad126689c097b80db50504ce9ba5ca8b6f6477fb88686866106c861277c565b6040516106d894939291906131d9565b60405180910390a1505050505050565b6060600046878051906020012060405160200161070f929190918252602082015260400190565b60408051808303601f19018152828252805160209182012089518a83012091840181905291830152915060009060600160408051808303601f19018152828252805160209182012089518a83012091840181905291830152915060009060600160408051601f1981840301815291905280516020909101209050600061079586886133da565b905060006107a387836133c2565b60008481526004602052604090209091506107c0906002016127f1565b8111156107e45760008381526004602052604090206107e1906002016127f1565b90505b60006107f083836133f9565b6001600160401b0381111561081557634e487b7160e01b600052604160045260246000fd5b60405190808252806020026020018201604052801561083e578160200160208202803683370190505b509050825b828110156108b757600085815260046020526040902061086690600201826127fb565b8261087186846133f9565b8151811061088f57634e487b7160e01b600052603260045260246000fd5b6001600160a01b03909216602092830291909101909101526108b08161344b565b9050610843565b509b9a5050505050505050505050565b60004684805190602001206040516020016108ec929190918252602082015260400190565b60408051808303601f19018152828252805160209182012086518783012091840181905291830152915060009060600160408051601f1981840301815291815281516020928301206000818152600590935290822080549193509061095090613410565b90501161096f5760405162461bcd60e51b815260040161046790613294565b61099161097a61277c565b6000848152600260205260409020600101906127a2565b15156001146109b25760405162461bcd60e51b815260040161046790613369565b60008181526003602052604090206109cd90600101846127a2565b15610a0d5760405162461bcd60e51b815260206004820152601060248201526f195c9c8b5b595b58995c8b595e1a5cdd60821b6044820152606401610467565b6000818152600360205260409020610a2890600101846127c7565b507f8eb5dc57e01da32e2b98214d39ebdd82cd801d261855d5f84b868b5f140a2980858585604051610a5c9392919061319b565b60405180910390a15050505050565b6000468380519060200120604051602001610a90929190918252602082015260400190565b6040516020818303038152906040528051906020012060001c9050610acd610ab661277c565b6000838152600260205260409020600101906127a2565b610ae95760405162461bcd60e51b815260040161046790613369565b60008181526005602052604081208054610b0290613410565b905011610b465760405162461bcd60e51b8152602060048201526012602482015271195c9c8b5d19585b4b5b9bdd0b595e1a5cdd60721b6044820152606401610467565b6000825111610b675760405162461bcd60e51b8152600401610467906132ea565b60008181526005602090815260409091208351610b86928501906129ab565b507f337efabade1b5802f3a562a44eb0b3222d30ad7717e865d76f4db7ecbea56e808383610bb261277c565b604051610bc19392919061319b565b60405180910390a1505050565b60606000468480519060200120604051602001610bf5929190918252602082015260400190565b60408051808303601f19018152828252805160209182012086518783012091840181905291830152915060009060600160408051601f198184030181529181528151602092830120600081815260039093529120805491925090610c6b5760405162461bcd60e51b815260040161046790613294565b80548190610c7b906001906133f9565b81548110610c9957634e487b7160e01b600052603260045260246000fd5b906000526020600020018054610cae90613410565b80601f0160208091040260200160405190810160405280929190818152602001828054610cda90613410565b8015610d275780601f10610cfc57610100808354040283529160200191610d27565b820191906000526020600020905b815481529060010190602001808311610d0a57829003601f168201915b505050505093505050505b92915050565b60068054610d4590613410565b80601f0160208091040260200160405190810160405280929190818152602001828054610d7190613410565b8015610dbe5780601f10610d9357610100808354040283529160200191610dbe565b820191906000526020600020905b815481529060010190602001808311610da157829003601f168201915b505050505081565b60606000468680519060200120604051602001610ded929190918252602082015260400190565b60408051601f19818403018152828252805160209182012088518983012082850182905284840152825180850384018152606090940190925282519201919091209091506000610e3d85876133da565b90506000610e4b86836133c2565b6000848152600360205260409020909150610e68906001016127f1565b811115610e8c576000838152600360205260409020610e89906001016127f1565b90505b6000610e9883836133f9565b6001600160401b03811115610ebd57634e487b7160e01b600052604160045260246000fd5b604051908082528060200260200182016040528015610ee6578160200160208202803683370190505b509050825b82811015610f5f576000858152600360205260409020610f0e90600101826127fb565b82610f1986846133f9565b81518110610f3757634e487b7160e01b600052603260045260246000fd5b6001600160a01b0390921660209283029190910190910152610f588161344b565b9050610eeb565b509998505050505050505050565b60606000610f7b83856133da565b90506000610f8984836133c2565b600154909150811115610f9b57506001545b6000610fa783836133f9565b6001600160401b03811115610fcc57634e487b7160e01b600052604160045260246000fd5b604051908082528060200260200182016040528015610fff57816020015b6060815260200190600190039081610fea5790505b509050825b82811015611107576001818154811061102d57634e487b7160e01b600052603260045260246000fd5b90600052602060002001805461104290613410565b80601f016020809104026020016040519081016040528092919081815260200182805461106e90613410565b80156110bb5780601f10611090576101008083540402835291602001916110bb565b820191906000526020600020905b81548152906001019060200180831161109e57829003601f168201915b50505050508285836110cd91906133f9565b815181106110eb57634e487b7160e01b600052603260045260246000fd5b6020026020010181905250806111009061344b565b9050611004565b5095945050505050565b6000468580519060200120604051602001611136929190918252602082015260400190565b60408051601f198184030181528282528051602091820120875188830120828501829052848401528251808503840181526060909401909252825192019190912090915061118561097a61277c565b6111a15760405162461bcd60e51b815260040161046790613369565b600081815260056020526040902080546111ba90613410565b1590506111d95760405162461bcd60e51b8152600401610467906132c0565b60008451116111fa5760405162461bcd60e51b8152600401610467906132ea565b600085511161121b5760405162461bcd60e51b815260040161046790613312565b6000818152600560209081526040909120855161123a928701906129ab565b5060008281526002602090815260408220805460018101825590835291819020875161126d9391909101918801906129ab565b5060005b835181101561133e576112c984828151811061129d57634e487b7160e01b600052603260045260246000fd5b6020026020010151600360008581526020019081526020016000206001016127c790919063ffffffff16565b507f8eb5dc57e01da32e2b98214d39ebdd82cd801d261855d5f84b868b5f140a2980878786848151811061130d57634e487b7160e01b600052603260045260246000fd5b60200260200101516040516113249392919061319b565b60405180910390a1806113368161344b565b915050611271565b507f11f7f07de1d35c43b47edd8a19e7f8208259cdf66344de81856c5bb7c798db268686866106c861277c565b60606000468380519060200120604051602001611392929190918252602082015260400190565b60408051601f198184030181529181528151602092830120600081815260059093529082208054919350906113c690613410565b90501161140a5760405162461bcd60e51b8152602060048201526012602482015271195c9c8b5d19585b4b5b9bdd0b595e1a5cdd60721b6044820152606401610467565b6000818152600560205260409020805461142390613410565b80601f016020809104026020016040519081016040528092919081815260200182805461144f90613410565b801561149c5780601f106114715761010080835404028352916020019161149c565b820191906000526020600020905b81548152906001019060200180831161147f57829003601f168201915b5050505050915050919050565b606060004684805190602001206040516020016114d0929190918252602082015260400190565b60408051808303601f19018152828252805160209182012086518783012091840181905291830152915060009060600160408051601f1981840301815291815281516020928301206000818152600590935290822080549193509061153490613410565b9050116115535760405162461bcd60e51b815260040161046790613294565b6000818152600560205260409020805461156c90613410565b80601f016020809104026020016040519081016040528092919081815260200182805461159890613410565b80156115e55780601f106115ba576101008083540402835291602001916115e5565b820191906000526020600020905b8154815290600101906020018083116115c857829003601f168201915b50505050509250505092915050565b6000468480519060200120604051602001611619929190918252602082015260400190565b60408051808303601f19018152828252805160209182012086518783012091840181905291830152915060009060600160408051601f1981840301815291815281516020928301206000818152600590935290822080549193509061167d90613410565b90501161169c5760405162461bcd60e51b815260040161046790613294565b6116a761097a61277c565b15156001146116c85760405162461bcd60e51b815260040161046790613369565b60008181526003602052604090206116e390600101846127a2565b151560011461172b5760405162461bcd60e51b8152602060048201526014602482015273195c9c8b5b595b58995c8b5b9bdd0b595e1a5cdd60621b6044820152606401610467565b600081815260036020526040902061174690600101846127dc565b507f7bd4fdf0f1872366f33f1732f765696c1ec3ddccaa8c1f72095b58d8f411fa93858585604051610a5c9392919061319b565b600046848051906020012060405160200161179f929190918252602082015260400190565b60408051601f1981840301815291815281516020928301206000818152600590935291208054919250906117d290613410565b1590506117f15760405162461bcd60e51b8152600401610467906132c0565b60008351116118125760405162461bcd60e51b8152600401610467906132ea565b60008451116118335760405162461bcd60e51b815260040161046790613312565b60008251116118785760405162461bcd60e51b81526020600482015260116024820152706572722d656d7074792d6d656d6265727360781b6044820152606401610467565b60008181526005602090815260409091208451611897928601906129ab565b5060018054808201825560009190915284516118da917fb10e2d527612073b26eecdfd717e6a320cf44b4afac2b0732d9fcbe2b7fa0cf6019060208701906129ab565b5060005b82518110156119a95761193683828151811061190a57634e487b7160e01b600052603260045260246000fd5b6020026020010151600260008581526020019081526020016000206001016127c790919063ffffffff16565b507fb1ce9c84087af16e758e7041eec971f57c833f4127f64f742c5b0ee14e0537d28584838151811061197957634e487b7160e01b600052603260045260246000fd5b602002602001015160405161198f929190613171565b60405180910390a1806119a18161344b565b9150506118de565b507f234eb9d37ed58b55e52e99246bb2b0cebb55311292e5d3de44a6df95a9af250184846119d561277c565b6040516119e49392919061319b565b60405180910390a150505050565b6000468380519060200120604051602001611a17929190918252602082015260400190565b6040516020818303038152906040528051906020012060001c9050611a3d610ab661277c565b1515600114611a5e5760405162461bcd60e51b815260040161046790613369565b6000818152600260205260409020611a7990600101836127a2565b15611ab95760405162461bcd60e51b815260206004820152601060248201526f195c9c8b5b595b58995c8b595e1a5cdd60821b6044820152606401610467565b6000818152600260205260409020611ad490600101836127c7565b507fb1ce9c84087af16e758e7041eec971f57c833f4127f64f742c5b0ee14e0537d28383604051610bc1929190613171565b60606000468680519060200120604051602001611b2d929190918252602082015260400190565b60408051601f19818403018152828252805160209182012088518983012082850182905284840152825180850384018152606090940190925282519201919091209091506000611b7d85876133da565b90506000611b8b86836133c2565b600084815260036020526040902054909150811115611bb557506000828152600360205260409020545b6000611bc183836133f9565b6001600160401b03811115611be657634e487b7160e01b600052604160045260246000fd5b604051908082528060200260200182016040528015611c1957816020015b6060815260200190600190039081611c045790505b509050825b82811015610f5f576000858152600360205260409020805482908110611c5457634e487b7160e01b600052603260045260246000fd5b906000526020600020018054611c6990613410565b80601f0160208091040260200160405190810160405280929190818152602001828054611c9590613410565b8015611ce25780601f10611cb757610100808354040283529160200191611ce2565b820191906000526020600020905b815481529060010190602001808311611cc557829003601f168201915b5050505050828583611cf491906133f9565b81518110611d1257634e487b7160e01b600052603260045260246000fd5b602002602001018190525080611d279061344b565b9050611c1e565b60606000468580519060200120604051602001611d55929190918252602082015260400190565b60408051601f19818403018152919052805160209091012090506000611d7b84866133da565b90506000611d8985836133c2565b600084815260026020526040902054909150811115611db357506000828152600260205260409020545b6000611dbf83836133f9565b6001600160401b03811115611de457634e487b7160e01b600052604160045260246000fd5b604051908082528060200260200182016040528015611e1757816020015b6060815260200190600190039081611e025790505b509050825b82811015611f2c576000858152600260205260409020805482908110611e5257634e487b7160e01b600052603260045260246000fd5b906000526020600020018054611e6790613410565b80601f0160208091040260200160405190810160405280929190818152602001828054611e9390613410565b8015611ee05780601f10611eb557610100808354040283529160200191611ee0565b820191906000526020600020905b815481529060010190602001808311611ec357829003601f168201915b5050505050828583611ef291906133f9565b81518110611f1057634e487b7160e01b600052603260045260246000fd5b602002602001018190525080611f259061344b565b9050611e1c565b50979650505050505050565b60606000468780519060200120604051602001611f5f929190918252602082015260400190565b60408051808303601f19018152828252805160209182012089518a83012091840181905291830152915060009060600160408051808303601f19018152828252805160209182012089518a83012091840181905291830152915060009060600160408051601f19818403018152919052805160209091012090506000611fe586886133da565b90506000611ff387836133c2565b600084815260046020526040902090915061200d906127f1565b81111561202e57600083815260046020526040902061202b906127f1565b90505b600061203a83836133f9565b6001600160401b0381111561205f57634e487b7160e01b600052604160045260246000fd5b604051908082528060200260200182016040528015612088578160200160208202803683370190505b509050825b828110156108b75760008581526004602052604090206120ad90826127fb565b826120b886846133f9565b815181106120d657634e487b7160e01b600052603260045260246000fd5b6001600160a01b03909216602092830291909101909101526120f78161344b565b905061208d565b6000468480519060200120604051602001612123929190918252602082015260400190565b60408051601f198184030181528282528051602091820120865187830120828501829052848401528251808503840181526060850184528051908301208651878401206080860182905260a0808701919091528451808703909101815260c09095018452845194830194909420600081815260059093529282208054919550906121ac90613410565b9050116121cb5760405162461bcd60e51b81526004016104679061333a565b6121ed6121d661277c565b6000838152600460205260409020600201906127c7565b5061220d6121f961277c565b6000838152600460205260409020906127dc565b507f30ca79684c561b1b6fbda88d9779021eb510471ea1df05c10dc39c46d6ed94eb8686866106c861277c565b60606000468580519060200120604051602001612261929190918252602082015260400190565b60408051601f198184030181528282528051602091820120875188830120828501829052848401528251808503840181526060850184528051908301208751888401206080860182905260a0808701919091528451808703909101815260c09095018452845194830194909420600081815260059093529282208054919550906122ea90613410565b9050116123095760405162461bcd60e51b81526004016104679061333a565b6000818152600560205260409020805461232290613410565b80601f016020809104026020016040519081016040528092919081815260200182805461234e90613410565b801561239b5780601f106123705761010080835404028352916020019161239b565b820191906000526020600020905b81548152906001019060200180831161237e57829003601f168201915b505050505093505050509392505050565b606060004685805190602001206040516020016123d3929190918252602082015260400190565b60408051601f198184030181529190528051602090910120905060006123f984866133da565b9050600061240785836133c2565b6000848152600260205260409020909150612424906001016127f1565b811115612448576000838152600260205260409020612445906001016127f1565b90505b600061245483836133f9565b6001600160401b0381111561247957634e487b7160e01b600052604160045260246000fd5b6040519080825280602002602001820160405280156124a2578160200160208202803683370190505b509050825b82811015611f2c5760008581526002602052604090206124ca90600101826127fb565b826124d586846133f9565b815181106124f357634e487b7160e01b600052603260045260246000fd5b6001600160a01b03909216602092830291909101909101526125148161344b565b90506124a7565b6000468380519060200120604051602001612540929190918252602082015260400190565b6040516020818303038152906040528051906020012060001c9050612566610ab661277c565b15156001146125875760405162461bcd60e51b815260040161046790613369565b60008181526002602052604090206125a290600101836127a2565b15156001146125ea5760405162461bcd60e51b8152602060048201526014602482015273195c9c8b5b595b58995c8b5b9bdd0b595e1a5cdd60621b6044820152606401610467565b600081815260026020526040902061260590600101836127dc565b507fbd84f6be96016aa1d03fd0c0ce516da6b2e352520bddd280c744c6c79a3785128383604051610bc1929190613171565b600046848051906020012060405160200161265c929190918252602082015260400190565b60408051601f19818403018152828252805160209182012086518783012082850182905284840152825180850384018152606090940190925282519201919091209091506126ab61097a61277c565b6126c75760405162461bcd60e51b815260040161046790613369565b600081815260056020526040812080546126e090613410565b9050116126ff5760405162461bcd60e51b815260040161046790613294565b60008351116127205760405162461bcd60e51b8152600401610467906132ea565b6000818152600560209081526040909120845161273f928601906129ab565b507fd837747757bf732c911148d7c5825d52de171f849e76143eec98fa514e263c8a85858561276c61277c565b604051610a5c94939291906131d9565b600080546001600160a01b031633141561279d575060131936013560601c90565b503390565b6001600160a01b038116600090815260018301602052604081205415155b9392505050565b60006127c0836001600160a01b038416612807565b60006127c0836001600160a01b038416612856565b6000610d32825490565b60006127c08383612973565b600081815260018301602052604081205461284e57508154600181810184556000848152602080822090930184905584548482528286019093526040902091909155610d32565b506000610d32565b6000818152600183016020526040812054801561296957600061287a6001836133f9565b855490915060009061288e906001906133f9565b905081811461290f5760008660000182815481106128bc57634e487b7160e01b600052603260045260246000fd5b90600052602060002001549050808760000184815481106128ed57634e487b7160e01b600052603260045260246000fd5b6000918252602080832090910192909255918252600188019052604090208390555b855486908061292e57634e487b7160e01b600052603160045260246000fd5b600190038181906000526020600020016000905590558560010160008681526020019081526020016000206000905560019350505050610d32565b6000915050610d32565b600082600001828154811061299857634e487b7160e01b600052603260045260246000fd5b9060005260206000200154905092915050565b8280546129b790613410565b90600052602060002090601f0160209004810192826129d95760008555612a1f565b82601f106129f257805160ff1916838001178555612a1f565b82800160010185558215612a1f579182015b82811115612a1f578251825591602001919060010190612a04565b50612a2b929150612a2f565b5090565b5b80821115612a2b5760008155600101612a30565b80356001600160a01b0381168114612a5b57600080fd5b919050565b600082601f830112612a70578081fd5b813560206001600160401b03821115612a8b57612a8b61347c565b8160051b612a9a828201613392565b838152828101908684018388018501891015612ab4578687fd5b8693505b85841015611f2c57612ac981612a44565b835260019390930192918401918401612ab8565b600082601f830112612aed578081fd5b81356001600160401b03811115612b0657612b0661347c565b612b19601f8201601f1916602001613392565b818152846020838601011115612b2d578283fd5b816020850160208301379081016020019190915292915050565b600060208284031215612b58578081fd5b6127c082612a44565b600060208284031215612b72578081fd5b81356001600160401b03811115612b87578182fd5b612b9384828501612add565b949350505050565b60008060408385031215612bad578081fd5b82356001600160401b03811115612bc2578182fd5b612bce85828601612add565b925050612bdd60208401612a44565b90509250929050565b60008060408385031215612bf8578182fd5b82356001600160401b0380821115612c0e578384fd5b612c1a86838701612add565b93506020850135915080821115612c2f578283fd5b50612c3c85828601612add565b9150509250929050565b600080600060608486031215612c5a578081fd5b83356001600160401b0380821115612c70578283fd5b612c7c87838801612add565b94506020860135915080821115612c91578283fd5b50612c9e86828701612add565b925050612cad60408501612a44565b90509250925092565b600080600060608486031215612cca578283fd5b83356001600160401b0380821115612ce0578485fd5b612cec87838801612add565b94506020860135915080821115612d01578384fd5b612d0d87838801612add565b93506040860135915080821115612d22578283fd5b50612d2f86828701612a60565b9150509250925092565b600080600060608486031215612d4d578283fd5b83356001600160401b0380821115612d63578485fd5b612d6f87838801612add565b94506020860135915080821115612d84578384fd5b612d9087838801612add565b93506040860135915080821115612da5578283fd5b50612d2f86828701612add565b60008060008060808587031215612dc7578081fd5b84356001600160401b0380821115612ddd578283fd5b612de988838901612add565b95506020870135915080821115612dfe578283fd5b612e0a88838901612add565b94506040870135915080821115612e1f578283fd5b612e2b88838901612add565b93506060870135915080821115612e40578283fd5b50612e4d87828801612a60565b91505092959194509250565b60008060008060808587031215612e6e578384fd5b84356001600160401b0380821115612e84578586fd5b612e9088838901612add565b95506020870135915080821115612ea5578485fd5b612eb188838901612add565b94506040870135915080821115612ec6578384fd5b612ed288838901612add565b93506060870135915080821115612ee7578283fd5b50612e4d87828801612add565b600080600080600060a08688031215612f0b578081fd5b85356001600160401b0380821115612f21578283fd5b612f2d89838a01612add565b96506020880135915080821115612f42578283fd5b612f4e89838a01612add565b95506040880135915080821115612f63578283fd5b50612f7088828901612add565b9598949750949560608101359550608001359392505050565b60008060008060808587031215612f9e578384fd5b84356001600160401b0380821115612fb4578586fd5b612fc088838901612add565b95506020870135915080821115612fd5578485fd5b50612fe287828801612add565b949794965050505060408301359260600135919050565b60008060006060848603121561300d578081fd5b83356001600160401b03811115613022578182fd5b61302e86828701612add565b9660208601359650604090950135949350505050565b60008060408385031215613056578182fd5b50508035926020909101359150565b60008151808452815b8181101561308a5760208185018101518683018201520161306e565b8181111561309b5782602083870101525b50601f01601f19169290920160200192915050565b6020808252825182820181905260009190848201906040850190845b818110156130f15783516001600160a01b0316835292840192918401916001016130cc565b50909695505050505050565b6000602080830181845280855180835260408601915060408160051b8701019250838701855b8281101561315157603f1988860301845261313f858351613065565b94509285019290850190600101613123565b5092979650505050505050565b6020815260006127c06020830184613065565b6040815260006131846040830185613065565b905060018060a01b03831660208301529392505050565b6060815260006131ae6060830186613065565b82810360208401526131c08186613065565b91505060018060a01b0383166040830152949350505050565b6080815260006131ec6080830187613065565b82810360208401526131fe8187613065565b905082810360408401526132128186613065565b91505060018060a01b038316606083015295945050505050565b60a08152600061323f60a0830188613065565b82810360208401526132518188613065565b905082810360408401526132658187613065565b905082810360608401526132798186613065565b91505060018060a01b03831660808301529695505050505050565b602080825260129082015271195c9c8b5c1c9bda8b5b9bdd0b595e1a5cdd60721b604082015260600190565b60208082526010908201526f195c9c8b5b985b594b58db185a5b595960821b604082015260600190565b6020808252600e908201526d6572722d656d7074792d6d65746160901b604082015260600190565b6020808252600e908201526d6572722d656d7074792d6e616d6560901b604082015260600190565b602080825260159082015274195c9c8b5c995b19585cd94b5b9bdd0b595e1a5cdd605a1b604082015260600190565b6020808252600f908201526e32b93916ba32b0b696b6b2b6b132b960891b604082015260600190565b604051601f8201601f191681016001600160401b03811182821017156133ba576133ba61347c565b604052919050565b600082198211156133d5576133d5613466565b500190565b60008160001904831182151516156133f4576133f4613466565b500290565b60008282101561340b5761340b613466565b500390565b600181811c9082168061342457607f821691505b6020821081141561344557634e487b7160e01b600052602260045260246000fd5b50919050565b600060001982141561345f5761345f613466565b5060010190565b634e487b7160e01b600052601160045260246000fd5b634e487b7160e01b600052604160045260246000fdfea2646970667358221220de7055f2747e5fee05540a1e84818c199ed2b7f8939fa04b9f4fedd1930efd8b64736f6c63430008040033",
  "linkReferences": {},
  "deployedLinkReferences": {}
}