{
  "_format": "hh-sol-artifact-1",
  "contractName": "SoftwareLicense",
  "sourceName": "contracts/ERC-1155/SoftwareLicense.sol",
  "abi": [
    {
      "inputs": [
        {
          "internalType": "address",
          "name": "_valistRegistry",
          "type": "address"
        },
        {
          "internalType": "address",
          "name": "_trustedForwarder",
          "type": "address"
        }
      ],
      "stateMutability": "nonpayable",
      "type": "constructor"
    },
    {
      "anonymous": false,
      "inputs": [
        {
          "indexed": true,
          "internalType": "address",
          "name": "account",
          "type": "address"
        },
        {
          "indexed": true,
          "internalType": "address",
          "name": "operator",
          "type": "address"
        },
        {
          "indexed": false,
          "internalType": "bool",
          "name": "approved",
          "type": "bool"
        }
      ],
      "name": "ApprovalForAll",
      "type": "event"
    },
    {
      "anonymous": false,
      "inputs": [
        {
          "indexed": false,
          "internalType": "string",
          "name": "_teamName",
          "type": "string"
        },
        {
          "indexed": false,
          "internalType": "string",
          "name": "_projectName",
          "type": "string"
        },
        {
          "indexed": false,
          "internalType": "string",
          "name": "_licenseName",
          "type": "string"
        },
        {
          "indexed": false,
          "internalType": "uint256",
          "name": "_mintPrice",
          "type": "uint256"
        },
        {
          "indexed": false,
          "internalType": "uint256",
          "name": "_licenseID",
          "type": "uint256"
        }
      ],
      "name": "LicenseCreated",
      "type": "event"
    },
    {
      "anonymous": false,
      "inputs": [
        {
          "indexed": false,
          "internalType": "string",
          "name": "_teamName",
          "type": "string"
        },
        {
          "indexed": false,
          "internalType": "string",
          "name": "_projectName",
          "type": "string"
        },
        {
          "indexed": false,
          "internalType": "string",
          "name": "_licenseName",
          "type": "string"
        },
        {
          "indexed": false,
          "internalType": "address",
          "name": "_recipient",
          "type": "address"
        },
        {
          "indexed": false,
          "internalType": "uint256",
          "name": "_licenseID",
          "type": "uint256"
        }
      ],
      "name": "LicenseMinted",
      "type": "event"
    },
    {
      "anonymous": false,
      "inputs": [
        {
          "indexed": true,
          "internalType": "address",
          "name": "operator",
          "type": "address"
        },
        {
          "indexed": true,
          "internalType": "address",
          "name": "from",
          "type": "address"
        },
        {
          "indexed": true,
          "internalType": "address",
          "name": "to",
          "type": "address"
        },
        {
          "indexed": false,
          "internalType": "uint256[]",
          "name": "ids",
          "type": "uint256[]"
        },
        {
          "indexed": false,
          "internalType": "uint256[]",
          "name": "values",
          "type": "uint256[]"
        }
      ],
      "name": "TransferBatch",
      "type": "event"
    },
    {
      "anonymous": false,
      "inputs": [
        {
          "indexed": true,
          "internalType": "address",
          "name": "operator",
          "type": "address"
        },
        {
          "indexed": true,
          "internalType": "address",
          "name": "from",
          "type": "address"
        },
        {
          "indexed": true,
          "internalType": "address",
          "name": "to",
          "type": "address"
        },
        {
          "indexed": false,
          "internalType": "uint256",
          "name": "id",
          "type": "uint256"
        },
        {
          "indexed": false,
          "internalType": "uint256",
          "name": "value",
          "type": "uint256"
        }
      ],
      "name": "TransferSingle",
      "type": "event"
    },
    {
      "anonymous": false,
      "inputs": [
        {
          "indexed": false,
          "internalType": "string",
          "name": "value",
          "type": "string"
        },
        {
          "indexed": true,
          "internalType": "uint256",
          "name": "id",
          "type": "uint256"
        }
      ],
      "name": "URI",
      "type": "event"
    },
    {
      "inputs": [
        {
          "internalType": "address",
          "name": "account",
          "type": "address"
        },
        {
          "internalType": "uint256",
          "name": "id",
          "type": "uint256"
        }
      ],
      "name": "balanceOf",
      "outputs": [
        {
          "internalType": "uint256",
          "name": "",
          "type": "uint256"
        }
      ],
      "stateMutability": "view",
      "type": "function"
    },
    {
      "inputs": [
        {
          "internalType": "address[]",
          "name": "accounts",
          "type": "address[]"
        },
        {
          "internalType": "uint256[]",
          "name": "ids",
          "type": "uint256[]"
        }
      ],
      "name": "balanceOfBatch",
      "outputs": [
        {
          "internalType": "uint256[]",
          "name": "",
          "type": "uint256[]"
        }
      ],
      "stateMutability": "view",
      "type": "function"
    },
    {
      "inputs": [
        {
          "internalType": "string",
          "name": "_teamName",
          "type": "string"
        },
        {
          "internalType": "string",
          "name": "_projectName",
          "type": "string"
        },
        {
          "internalType": "string",
          "name": "_licenseName",
          "type": "string"
        },
        {
          "internalType": "string",
          "name": "_metaURI",
          "type": "string"
        },
        {
          "internalType": "uint256",
          "name": "_mintPrice",
          "type": "uint256"
        }
      ],
      "name": "createLicense",
      "outputs": [],
      "stateMutability": "nonpayable",
      "type": "function"
    },
    {
      "inputs": [
        {
          "internalType": "uint256",
          "name": "_projectID",
          "type": "uint256"
        },
        {
          "internalType": "string",
          "name": "_licenseName",
          "type": "string"
        }
      ],
      "name": "getLicenseID",
      "outputs": [
        {
          "internalType": "uint256",
          "name": "",
          "type": "uint256"
        }
      ],
      "stateMutability": "view",
      "type": "function"
    },
    {
      "inputs": [
        {
          "internalType": "string",
          "name": "_teamName",
          "type": "string"
        },
        {
          "internalType": "string",
          "name": "_projectName",
          "type": "string"
        },
        {
          "internalType": "string",
          "name": "_licenseName",
          "type": "string"
        }
      ],
      "name": "getLicenseMetaURI",
      "outputs": [
        {
          "internalType": "string",
          "name": "",
          "type": "string"
        }
      ],
      "stateMutability": "view",
      "type": "function"
    },
    {
      "inputs": [
        {
          "internalType": "string",
          "name": "_teamName",
          "type": "string"
        },
        {
          "internalType": "string",
          "name": "_projectName",
          "type": "string"
        },
        {
          "internalType": "uint256",
          "name": "_page",
          "type": "uint256"
        },
        {
          "internalType": "uint256",
          "name": "_size",
          "type": "uint256"
        }
      ],
      "name": "getNamesByProjectID",
      "outputs": [
        {
          "internalType": "string[]",
          "name": "",
          "type": "string[]"
        }
      ],
      "stateMutability": "view",
      "type": "function"
    },
    {
      "inputs": [
        {
          "internalType": "address",
          "name": "account",
          "type": "address"
        },
        {
          "internalType": "address",
          "name": "operator",
          "type": "address"
        }
      ],
      "name": "isApprovedForAll",
      "outputs": [
        {
          "internalType": "bool",
          "name": "",
          "type": "bool"
        }
      ],
      "stateMutability": "view",
      "type": "function"
    },
    {
      "inputs": [
        {
          "internalType": "address",
          "name": "forwarder",
          "type": "address"
        }
      ],
      "name": "isTrustedForwarder",
      "outputs": [
        {
          "internalType": "bool",
          "name": "",
          "type": "bool"
        }
      ],
      "stateMutability": "view",
      "type": "function"
    },
    {
      "inputs": [
        {
          "internalType": "uint256",
          "name": "",
          "type": "uint256"
        }
      ],
      "name": "metaByID",
      "outputs": [
        {
          "internalType": "string",
          "name": "",
          "type": "string"
        }
      ],
      "stateMutability": "view",
      "type": "function"
    },
    {
      "inputs": [
        {
          "internalType": "string",
          "name": "_teamName",
          "type": "string"
        },
        {
          "internalType": "string",
          "name": "_projectName",
          "type": "string"
        },
        {
          "internalType": "string",
          "name": "_licenseName",
          "type": "string"
        },
        {
          "internalType": "address",
          "name": "_recipient",
          "type": "address"
        }
      ],
      "name": "mintLicense",
      "outputs": [],
      "stateMutability": "payable",
      "type": "function"
    },
    {
      "inputs": [],
      "name": "name",
      "outputs": [
        {
          "internalType": "string",
          "name": "",
          "type": "string"
        }
      ],
      "stateMutability": "view",
      "type": "function"
    },
    {
      "inputs": [
        {
          "internalType": "uint256",
          "name": "",
          "type": "uint256"
        }
      ],
      "name": "priceByID",
      "outputs": [
        {
          "internalType": "uint256",
          "name": "",
          "type": "uint256"
        }
      ],
      "stateMutability": "view",
      "type": "function"
    },
    {
      "inputs": [
        {
          "internalType": "address",
          "name": "from",
          "type": "address"
        },
        {
          "internalType": "address",
          "name": "to",
          "type": "address"
        },
        {
          "internalType": "uint256[]",
          "name": "ids",
          "type": "uint256[]"
        },
        {
          "internalType": "uint256[]",
          "name": "amounts",
          "type": "uint256[]"
        },
        {
          "internalType": "bytes",
          "name": "data",
          "type": "bytes"
        }
      ],
      "name": "safeBatchTransferFrom",
      "outputs": [],
      "stateMutability": "nonpayable",
      "type": "function"
    },
    {
      "inputs": [
        {
          "internalType": "address",
          "name": "from",
          "type": "address"
        },
        {
          "internalType": "address",
          "name": "to",
          "type": "address"
        },
        {
          "internalType": "uint256",
          "name": "id",
          "type": "uint256"
        },
        {
          "internalType": "uint256",
          "name": "amount",
          "type": "uint256"
        },
        {
          "internalType": "bytes",
          "name": "data",
          "type": "bytes"
        }
      ],
      "name": "safeTransferFrom",
      "outputs": [],
      "stateMutability": "nonpayable",
      "type": "function"
    },
    {
      "inputs": [
        {
          "internalType": "address",
          "name": "operator",
          "type": "address"
        },
        {
          "internalType": "bool",
          "name": "approved",
          "type": "bool"
        }
      ],
      "name": "setApprovalForAll",
      "outputs": [],
      "stateMutability": "nonpayable",
      "type": "function"
    },
    {
      "inputs": [
        {
          "internalType": "bytes4",
          "name": "interfaceId",
          "type": "bytes4"
        }
      ],
      "name": "supportsInterface",
      "outputs": [
        {
          "internalType": "bool",
          "name": "",
          "type": "bool"
        }
      ],
      "stateMutability": "view",
      "type": "function"
    },
    {
      "inputs": [],
      "name": "symbol",
      "outputs": [
        {
          "internalType": "string",
          "name": "",
          "type": "string"
        }
      ],
      "stateMutability": "view",
      "type": "function"
    },
    {
      "inputs": [
        {
          "internalType": "uint256",
          "name": "id",
          "type": "uint256"
        }
      ],
      "name": "uri",
      "outputs": [
        {
          "internalType": "string",
          "name": "",
          "type": "string"
        }
      ],
      "stateMutability": "view",
      "type": "function"
    },
    {
      "inputs": [],
      "name": "versionRecipient",
      "outputs": [
        {
          "internalType": "string",
          "name": "",
          "type": "string"
        }
      ],
      "stateMutability": "view",
      "type": "function"
    }
  ],
  "bytecode": "0x60c060405260056080819052640322e322e360dc1b60a0908152620000269190816200012f565b50604080518082019091526007808252664c4943454e534560c81b602090920191825262000057916006916200012f565b506040805180820190915260108082526f536f667477617265204c6963656e736560801b602090920191825262000091916007916200012f565b503480156200009f57600080fd5b5060405162002f7438038062002f74833981016040819052620000c291620001f2565b6040805160208101909152600081528190620000de8162000116565b50600380546001600160a01b039283166001600160a01b03199182161790915560048054949092169316929092179091555062000266565b80516200012b9060029060208401906200012f565b5050565b8280546200013d9062000229565b90600052602060002090601f016020900481019282620001615760008555620001ac565b82601f106200017c57805160ff1916838001178555620001ac565b82800160010185558215620001ac579182015b82811115620001ac5782518255916020019190600101906200018f565b50620001ba929150620001be565b5090565b5b80821115620001ba5760008155600101620001bf565b80516001600160a01b0381168114620001ed57600080fd5b919050565b6000806040838503121562000205578182fd5b6200021083620001d5565b91506200022060208401620001d5565b90509250929050565b600181811c908216806200023e57607f821691505b602082108114156200026057634e487b7160e01b600052602260045260246000fd5b50919050565b612cfe80620002766000396000f3fe6080604052600436106101135760003560e01c8063572b6c05116100a0578063a22cb46511610064578063a22cb46514610305578063dab344f814610325578063e985e9c514610345578063f242432a1461038e578063fc84f13f146103ae57600080fd5b8063572b6c051461026157806363962d481461029057806367e9a744146102bd5780636a0ccb42146102d057806395d89b41146102f057600080fd5b80632eb2c2d6116100e75780632eb2c2d6146101bd57806343417c06146101df578063486ff0cd146101ff578063490693bf146102145780634e1273f41461023457600080fd5b8062fdd58e1461011857806301ffc9a71461014b57806306fdde031461017b5780630e89341c1461019d575b600080fd5b34801561012457600080fd5b506101386101333660046121b3565b6103db565b6040519081526020015b60405180910390f35b34801561015757600080fd5b5061016b6101663660046122c6565b610472565b6040519015158152602001610142565b34801561018757600080fd5b506101906104c4565b604051610142919061289e565b3480156101a957600080fd5b506101906101b83660046125b3565b610552565b3480156101c957600080fd5b506101dd6101d8366004612077565b6105bd565b005b3480156101eb57600080fd5b506101906101fa3660046125b3565b610666565b34801561020b57600080fd5b5061019061067f565b34801561022057600080fd5b506101dd61022f366004612494565b61068c565b34801561024057600080fd5b5061025461024f3660046121de565b610bb4565b6040516101429190612866565b34801561026d57600080fd5b5061016b61027c366004612000565b6003546001600160a01b0391821691161490565b34801561029c57600080fd5b506102b06102ab366004612543565b610d15565b6040516101429190612805565b6101dd6102cb3660046123fe565b610fec565b3480156102dc57600080fd5b506101906102eb36600461237b565b611377565b3480156102fc57600080fd5b50610190611597565b34801561031157600080fd5b506101dd610320366004612186565b6115a4565b34801561033157600080fd5b506101386103403660046125e3565b6115ba565b34801561035157600080fd5b5061016b61036036600461203f565b6001600160a01b03918216600090815260016020908152604080832093909416825291909152205460ff1690565b34801561039a57600080fd5b506101dd6103a9366004612120565b6115f8565b3480156103ba57600080fd5b506101386103c93660046125b3565b60086020526000908152604090205481565b60006001600160a01b03831661044c5760405162461bcd60e51b815260206004820152602b60248201527f455243313135353a2062616c616e636520717565727920666f7220746865207a60448201526a65726f206164647265737360a81b60648201526084015b60405180910390fd5b506000908152602081815260408083206001600160a01b03949094168352929052205490565b60006001600160e01b03198216636cdb3d1360e11b14806104a357506001600160e01b031982166303a24d0760e21b145b806104be57506301ffc9a760e01b6001600160e01b03198316145b92915050565b600780546104d190612b3e565b80601f01602080910402602001604051908101604052809291908181526020018280546104fd90612b3e565b801561054a5780601f1061051f5761010080835404028352916020019161054a565b820191906000526020600020905b81548152906001019060200180831161052d57829003601f168201915b505050505081565b604080518082018252601981527f68747470733a2f2f676174657761792e76616c6973742e696f0000000000000060208083019190915260008481526009825283902092516060936105a69284920161271b565b604051602081830303815290604052915050919050565b6105c5611691565b6001600160a01b0316856001600160a01b031614806105eb57506105eb85610360611691565b6106525760405162461bcd60e51b815260206004820152603260248201527f455243313135353a207472616e736665722063616c6c6572206973206e6f74206044820152711bdddb995c881b9bdc88185c1c1c9bdd995960721b6064820152608401610443565b61065f85858585856116c4565b5050505050565b600960205260009081526040902080546104d190612b3e565b600580546104d190612b3e565b60008251116106ce5760405162461bcd60e51b815260206004820152600e60248201526d6572722d656d7074792d6d65746160901b6044820152606401610443565b60008551116106ef5760405162461bcd60e51b815260040161044390612a2d565b60008451116107105760405162461bcd60e51b815260040161044390612a2d565b60008351116107315760405162461bcd60e51b815260040161044390612a2d565b6004805460405163f8b2491560e01b81526000926001600160a01b039092169163f8b2491591610763918a910161289e565b60206040518083038186803b15801561077b57600080fd5b505afa15801561078f573d6000803e3d6000fd5b505050506040513d601f19601f820116820180604052508101906107b391906125cb565b60048054604051632c7b800360e11b81529293506000926001600160a01b03909116916358f70006916107ea9186918b9101612a55565b60206040518083038186803b15801561080257600080fd5b505afa158015610816573d6000803e3d6000fd5b505050506040513d601f19601f8201168201806040525081019061083a91906125cb565b9050600061084882876115ba565b600081815260096020526040902080549192509061086590612b3e565b1590506108a85760405162461bcd60e51b8152602060048201526011602482015270195c9c8b5b1a58d95b9cd94b595e1a5cdd607a1b6044820152606401610443565b6004546001600160a01b03166301738281846108c2611691565b6040516001600160e01b031960e085901b16815260048101929092526001600160a01b0316602482015260440160206040518083038186803b15801561090757600080fd5b505afa15801561091b573d6000803e3d6000fd5b505050506040513d601f19601f8201168201806040525081019061093f91906122aa565b61097d5760405162461bcd60e51b815260206004820152600f60248201526e32b93916ba32b0b696b6b2b6b132b960891b6044820152606401610443565b600480546040516321a0be0360e11b81529182018490526000916001600160a01b03909116906343417c069060240160006040518083038186803b1580156109c457600080fd5b505afa1580156109d8573d6000803e3d6000fd5b505050506040513d6000823e601f3d908101601f19168201604052610a0091908101906122fe565b5111610a435760405162461bcd60e51b8152602060048201526012602482015271195c9c8b5c1c9bda8b5b9bdd0b595e1a5cdd60721b6044820152606401610443565b6004805460405163d93379d160e01b81529182018590526000916001600160a01b039091169063d93379d19060240160206040518083038186803b158015610a8a57600080fd5b505afa158015610a9e573d6000803e3d6000fd5b505050506040513d601f19601f82011682018060405250810190610ac29190612023565b6001600160a01b03161415610b0e5760405162461bcd60e51b81526020600482015260126024820152716572722d6e6f2d62656e656669636961727960701b6044820152606401610443565b6000818152600860209081526040808320879055600982529091208651610b3792880190611e9c565b506000828152600a6020908152604082208054600181018255908352918190208851610b6a939190910191890190611e9c565b507f0e5932237fa54008b385602dec56e11f77845565e34920db3f9a525b982a31aa8888888785604051610ba2959493929190612908565b60405180910390a15050505050505050565b60608151835114610c195760405162461bcd60e51b815260206004820152602960248201527f455243313135353a206163636f756e747320616e6420696473206c656e677468604482015268040dad2e6dac2e8c6d60bb1b6064820152608401610443565b600083516001600160401b03811115610c4257634e487b7160e01b600052604160045260246000fd5b604051908082528060200260200182016040528015610c6b578160200160208202803683370190505b50905060005b8451811015610d0d57610cd2858281518110610c9d57634e487b7160e01b600052603260045260246000fd5b6020026020010151858381518110610cc557634e487b7160e01b600052603260045260246000fd5b60200260200101516103db565b828281518110610cf257634e487b7160e01b600052603260045260246000fd5b6020908102919091010152610d0681612ba5565b9050610c71565b509392505050565b6004805460405163f8b2491560e01b81526060926000926001600160a01b03169163f8b2491591610d48918a910161289e565b60206040518083038186803b158015610d6057600080fd5b505afa158015610d74573d6000803e3d6000fd5b505050506040513d601f19601f82011682018060405250810190610d9891906125cb565b60048054604051632c7b800360e11b81529293506000926001600160a01b03909116916358f7000691610dcf9186918b9101612a55565b60206040518083038186803b158015610de757600080fd5b505afa158015610dfb573d6000803e3d6000fd5b505050506040513d601f19601f82011682018060405250810190610e1f91906125cb565b90506000610e2d8587612ad8565b90506000610e3b8683612ac0565b6000848152600a6020526040902054909150811115610e6557506000828152600a60205260409020545b6000610e718383612af7565b6001600160401b03811115610e9657634e487b7160e01b600052604160045260246000fd5b604051908082528060200260200182016040528015610ec957816020015b6060815260200190600190039081610eb45790505b509050825b82811015610fde576000858152600a60205260409020805482908110610f0457634e487b7160e01b600052603260045260246000fd5b906000526020600020018054610f1990612b3e565b80601f0160208091040260200160405190810160405280929190818152602001828054610f4590612b3e565b8015610f925780601f10610f6757610100808354040283529160200191610f92565b820191906000526020600020905b815481529060010190602001808311610f7557829003601f168201915b5050505050828583610fa49190612af7565b81518110610fc257634e487b7160e01b600052603260045260246000fd5b602002602001018190525080610fd790612ba5565b9050610ece565b509998505050505050505050565b6004805460405163f8b2491560e01b81526000926001600160a01b039092169163f8b249159161101e9189910161289e565b60206040518083038186803b15801561103657600080fd5b505afa15801561104a573d6000803e3d6000fd5b505050506040513d601f19601f8201168201806040525081019061106e91906125cb565b60048054604051632c7b800360e11b81529293506000926001600160a01b03909116916358f70006916110a59186918a9101612a55565b60206040518083038186803b1580156110bd57600080fd5b505afa1580156110d1573d6000803e3d6000fd5b505050506040513d601f19601f820116820180604052508101906110f591906125cb565b9050600061110382866115ba565b6004805460405163d93379d160e01b81529182018690529192506000916001600160a01b03169063d93379d19060240160206040518083038186803b15801561114b57600080fd5b505afa15801561115f573d6000803e3d6000fd5b505050506040513d601f19601f820116820180604052508101906111839190612023565b90506001600160a01b0381166111d05760405162461bcd60e51b81526020600482015260126024820152716572722d6e6f2d62656e656669636961727960701b6044820152606401610443565b600082815260096020526040812080546111e990612b3e565b9050116112305760405162461bcd60e51b8152602060048201526015602482015274195c9c8b5b1a58d95b9cd94b5b9bdd0b595e1a5cdd605a1b6044820152606401610443565b60008281526008602052604090205434101561127d5760405162461bcd60e51b815260206004820152600c60248201526b6572722d6d696e742d66656560a01b6044820152606401610443565b6000816001600160a01b03163460405160006040518083038185875af1925050503d80600081146112ca576040519150601f19603f3d011682016040523d82523d6000602084013e6112cf565b606091505b50509050806113115760405162461bcd60e51b815260206004820152600e60248201526d32b93916b9b2b73216b2ba3432b960911b6044820152606401610443565b61132d86846001604051806020016040528060008152506118c8565b7f107b11fb92e128aa01e9a8589d1442bb459293ec8589e6eb62f5074e52177d1a89898989876040516113649594939291906128b1565b60405180910390a1505050505050505050565b6004805460405163f8b2491560e01b81526060926000926001600160a01b03169163f8b24915916113aa9189910161289e565b60206040518083038186803b1580156113c257600080fd5b505afa1580156113d6573d6000803e3d6000fd5b505050506040513d601f19601f820116820180604052508101906113fa91906125cb565b60048054604051632c7b800360e11b81529293506000926001600160a01b03909116916358f70006916114319186918a9101612a55565b60206040518083038186803b15801561144957600080fd5b505afa15801561145d573d6000803e3d6000fd5b505050506040513d601f19601f8201168201806040525081019061148191906125cb565b9050600061148f82866115ba565b6000818152600960205260408120805492935090916114ad90612b3e565b9050116114f45760405162461bcd60e51b8152602060048201526015602482015274195c9c8b5b1a58d95b9cd94b5b9bdd0b595e1a5cdd605a1b6044820152606401610443565b6000818152600960205260409020805461150d90612b3e565b80601f016020809104026020016040519081016040528092919081815260200182805461153990612b3e565b80156115865780601f1061155b57610100808354040283529160200191611586565b820191906000526020600020905b81548152906001019060200180831161156957829003601f168201915b505050505093505050509392505050565b600680546104d190612b3e565b6115b66115af611691565b83836119dd565b5050565b600082600683805190602001206040516020016115d993929190612742565b60408051601f1981840301815291905280516020909101209392505050565b611600611691565b6001600160a01b0316856001600160a01b03161480611626575061162685610360611691565b6116845760405162461bcd60e51b815260206004820152602960248201527f455243313135353a2063616c6c6572206973206e6f74206f776e6572206e6f7260448201526808185c1c1c9bdd995960ba1b6064820152608401610443565b61065f8585858585611abe565b6003546000906001600160a01b03163314156116b4575060131936013560601c90565b6116bc611be6565b905090565b90565b81518351146117265760405162461bcd60e51b815260206004820152602860248201527f455243313135353a2069647320616e6420616d6f756e7473206c656e677468206044820152670dad2e6dac2e8c6d60c31b6064820152608401610443565b6001600160a01b03841661174c5760405162461bcd60e51b81526004016104439061299e565b6000611756611691565b905060005b845181101561185a57600085828151811061178657634e487b7160e01b600052603260045260246000fd5b6020026020010151905060008583815181106117b257634e487b7160e01b600052603260045260246000fd5b602090810291909101810151600084815280835260408082206001600160a01b038e1683529093529190912054909150818110156118025760405162461bcd60e51b8152600401610443906129e3565b6000838152602081815260408083206001600160a01b038e8116855292528083208585039055908b1682528120805484929061183f908490612ac0565b925050819055505050508061185390612ba5565b905061175b565b50846001600160a01b0316866001600160a01b0316826001600160a01b03167f4a39dc06d4c0dbc64b70af90fd698a233a518aa5d07e595d983b8c0526c8f7fb87876040516118aa929190612879565b60405180910390a46118c0818787878787611c0e565b505050505050565b6001600160a01b0384166119285760405162461bcd60e51b815260206004820152602160248201527f455243313135353a206d696e7420746f20746865207a65726f206164647265736044820152607360f81b6064820152608401610443565b6000611932611691565b905061194d8160008761194488611d79565b61065f88611d79565b6000848152602081815260408083206001600160a01b03891684529091528120805485929061197d908490612ac0565b909155505060408051858152602081018590526001600160a01b0380881692600092918516917fc3d58168c5ae7397731d063d5bbf3d657854427343f4c083240f7aacaa2d0f62910160405180910390a461065f81600087878787611dd2565b816001600160a01b0316836001600160a01b03161415611a515760405162461bcd60e51b815260206004820152602960248201527f455243313135353a2073657474696e6720617070726f76616c20737461747573604482015268103337b91039b2b63360b91b6064820152608401610443565b6001600160a01b03838116600081815260016020908152604080832094871680845294825291829020805460ff191686151590811790915591519182527f17307eab39ab6107e8899845ad3d59bd9653f200f220920489ca2b5937696c31910160405180910390a3505050565b6001600160a01b038416611ae45760405162461bcd60e51b81526004016104439061299e565b6000611aee611691565b9050611aff81878761194488611d79565b6000848152602081815260408083206001600160a01b038a16845290915290205483811015611b405760405162461bcd60e51b8152600401610443906129e3565b6000858152602081815260408083206001600160a01b038b8116855292528083208785039055908816825281208054869290611b7d908490612ac0565b909155505060408051868152602081018690526001600160a01b03808916928a821692918616917fc3d58168c5ae7397731d063d5bbf3d657854427343f4c083240f7aacaa2d0f62910160405180910390a4611bdd828888888888611dd2565b50505050505050565b6003546000906001600160a01b0316331415611c09575060131936013560601c90565b503390565b6001600160a01b0384163b156118c05760405163bc197c8160e01b81526001600160a01b0385169063bc197c8190611c529089908990889088908890600401612762565b602060405180830381600087803b158015611c6c57600080fd5b505af1925050508015611c9c575060408051601f3d908101601f19168201909252611c99918101906122e2565b60015b611d4957611ca8612bec565b806308c379a01415611ce25750611cbd612c03565b80611cc85750611ce4565b8060405162461bcd60e51b8152600401610443919061289e565b505b60405162461bcd60e51b815260206004820152603460248201527f455243313135353a207472616e7366657220746f206e6f6e20455243313135356044820152732932b1b2b4bb32b91034b6b83632b6b2b73a32b960611b6064820152608401610443565b6001600160e01b0319811663bc197c8160e01b14611bdd5760405162461bcd60e51b815260040161044390612956565b60408051600180825281830190925260609160009190602080830190803683370190505090508281600081518110611dc157634e487b7160e01b600052603260045260246000fd5b602090810291909101015292915050565b6001600160a01b0384163b156118c05760405163f23a6e6160e01b81526001600160a01b0385169063f23a6e6190611e1690899089908890889088906004016127c0565b602060405180830381600087803b158015611e3057600080fd5b505af1925050508015611e60575060408051601f3d908101601f19168201909252611e5d918101906122e2565b60015b611e6c57611ca8612bec565b6001600160e01b0319811663f23a6e6160e01b14611bdd5760405162461bcd60e51b815260040161044390612956565b828054611ea890612b3e565b90600052602060002090601f016020900481019282611eca5760008555611f10565b82601f10611ee357805160ff1916838001178555611f10565b82800160010185558215611f10579182015b82811115611f10578251825591602001919060010190611ef5565b50611f1c929150611f20565b5090565b5b80821115611f1c5760008155600101611f21565b600082601f830112611f45578081fd5b81356020611f5282612a76565b604051611f5f8282612b79565b8381528281019150858301600585901b87018401881015611f7e578586fd5b855b85811015611f9c57813584529284019290840190600101611f80565b5090979650505050505050565b600082601f830112611fb9578081fd5b8135611fc481612a99565b604051611fd18282612b79565b828152856020848701011115611fe5578384fd5b82602086016020830137918201602001929092529392505050565b600060208284031215612011578081fd5b813561201c81612c8c565b9392505050565b600060208284031215612034578081fd5b815161201c81612c8c565b60008060408385031215612051578081fd5b823561205c81612c8c565b9150602083013561206c81612c8c565b809150509250929050565b600080600080600060a0868803121561208e578081fd5b853561209981612c8c565b945060208601356120a981612c8c565b935060408601356001600160401b03808211156120c4578283fd5b6120d089838a01611f35565b945060608801359150808211156120e5578283fd5b6120f189838a01611f35565b93506080880135915080821115612106578283fd5b5061211388828901611fa9565b9150509295509295909350565b600080600080600060a08688031215612137578081fd5b853561214281612c8c565b9450602086013561215281612c8c565b9350604086013592506060860135915060808601356001600160401b0381111561217a578182fd5b61211388828901611fa9565b60008060408385031215612198578182fd5b82356121a381612c8c565b9150602083013561206c81612ca4565b600080604083850312156121c5578182fd5b82356121d081612c8c565b946020939093013593505050565b600080604083850312156121f0578182fd5b82356001600160401b0380821115612206578384fd5b818501915085601f830112612219578384fd5b8135602061222682612a76565b6040516122338282612b79565b8381528281019150858301600585901b870184018b1015612252578889fd5b8896505b8487101561227d57803561226981612c8c565b835260019690960195918301918301612256565b5096505086013592505080821115612293578283fd5b506122a085828601611f35565b9150509250929050565b6000602082840312156122bb578081fd5b815161201c81612ca4565b6000602082840312156122d7578081fd5b813561201c81612cb2565b6000602082840312156122f3578081fd5b815161201c81612cb2565b60006020828403121561230f578081fd5b81516001600160401b03811115612324578182fd5b8201601f81018413612334578182fd5b805161233f81612a99565b60405161234c8282612b79565b828152866020848601011115612360578485fd5b612371836020830160208701612b0e565b9695505050505050565b60008060006060848603121561238f578081fd5b83356001600160401b03808211156123a5578283fd5b6123b187838801611fa9565b945060208601359150808211156123c6578283fd5b6123d287838801611fa9565b935060408601359150808211156123e7578283fd5b506123f486828701611fa9565b9150509250925092565b60008060008060808587031215612413578182fd5b84356001600160401b0380821115612429578384fd5b61243588838901611fa9565b9550602087013591508082111561244a578384fd5b61245688838901611fa9565b9450604087013591508082111561246b578384fd5b5061247887828801611fa9565b925050606085013561248981612c8c565b939692955090935050565b600080600080600060a086880312156124ab578283fd5b85356001600160401b03808211156124c1578485fd5b6124cd89838a01611fa9565b965060208801359150808211156124e2578485fd5b6124ee89838a01611fa9565b95506040880135915080821115612503578485fd5b61250f89838a01611fa9565b94506060880135915080821115612524578283fd5b5061253188828901611fa9565b95989497509295608001359392505050565b60008060008060808587031215612558578182fd5b84356001600160401b038082111561256e578384fd5b61257a88838901611fa9565b9550602087013591508082111561258f578384fd5b5061259c87828801611fa9565b949794965050505060408301359260600135919050565b6000602082840312156125c4578081fd5b5035919050565b6000602082840312156125dc578081fd5b5051919050565b600080604083850312156125f5578182fd5b8235915060208301356001600160401b03811115612611578182fd5b6122a085828601611fa9565b6000815180845260208085019450808401835b8381101561264c57815187529582019590820190600101612630565b509495945050505050565b6000815180845261266f816020860160208601612b0e565b601f01601f19169290920160200192915050565b8054600090600181811c908083168061269d57607f831692505b60208084108214156126bd57634e487b7160e01b86526022600452602486fd5b8180156126d157600181146126e25761270f565b60ff1986168952848901965061270f565b60008881526020902060005b868110156127075781548b8201529085019083016126ee565b505084890196505b50505050505092915050565b6000835161272d818460208801612b0e565b61273981840185612683565b95945050505050565b83815260006127546020830185612683565b928352505060200192915050565b6001600160a01b0386811682528516602082015260a06040820181905260009061278e9083018661261d565b82810360608401526127a0818661261d565b905082810360808401526127b48185612657565b98975050505050505050565b6001600160a01b03868116825285166020820152604081018490526060810183905260a0608082018190526000906127fa90830184612657565b979650505050505050565b6000602080830181845280855180835260408601915060408160051b8701019250838701855b8281101561285957603f19888603018452612847858351612657565b9450928501929085019060010161282b565b5092979650505050505050565b60208152600061201c602083018461261d565b60408152600061288c604083018561261d565b8281036020840152612739818561261d565b60208152600061201c6020830184612657565b60a0815260006128c460a0830188612657565b82810360208401526128d68188612657565b905082810360408401526128ea8187612657565b6001600160a01b039590951660608401525050608001529392505050565b60a08152600061291b60a0830188612657565b828103602084015261292d8188612657565b905082810360408401526129418187612657565b60608401959095525050608001529392505050565b60208082526028908201527f455243313135353a204552433131353552656365697665722072656a656374656040820152676420746f6b656e7360c01b606082015260800190565b60208082526025908201527f455243313135353a207472616e7366657220746f20746865207a65726f206164604082015264647265737360d81b606082015260800190565b6020808252602a908201527f455243313135353a20696e73756666696369656e742062616c616e636520666f60408201526939103a3930b739b332b960b11b606082015260800190565b6020808252600e908201526d6572722d656d7074792d6e616d6560901b604082015260600190565b828152604060208201526000612a6e6040830184612657565b949350505050565b60006001600160401b03821115612a8f57612a8f612bd6565b5060051b60200190565b60006001600160401b03821115612ab257612ab2612bd6565b50601f01601f191660200190565b60008219821115612ad357612ad3612bc0565b500190565b6000816000190483118215151615612af257612af2612bc0565b500290565b600082821015612b0957612b09612bc0565b500390565b60005b83811015612b29578181015183820152602001612b11565b83811115612b38576000848401525b50505050565b600181811c90821680612b5257607f821691505b60208210811415612b7357634e487b7160e01b600052602260045260246000fd5b50919050565b601f8201601f191681016001600160401b0381118282101715612b9e57612b9e612bd6565b6040525050565b6000600019821415612bb957612bb9612bc0565b5060010190565b634e487b7160e01b600052601160045260246000fd5b634e487b7160e01b600052604160045260246000fd5b600060033d11156116c157600481823e5160e01c90565b600060443d1015612c115790565b6040516003193d81016004833e81513d6001600160401b038160248401118184111715612c4057505050505090565b8285019150815181811115612c585750505050505090565b843d8701016020828501011115612c725750505050505090565b612c8160208286010187612b79565b509095945050505050565b6001600160a01b0381168114612ca157600080fd5b50565b8015158114612ca157600080fd5b6001600160e01b031981168114612ca157600080fdfea2646970667358221220ad6c9ff7e265a5a2d07f07f01e0a6dc42a86fb48a429b07961fb718f0a1b6fd664736f6c63430008040033",
  "linkReferences": {},
  "deployedLinkReferences": {}
}