{
  "_format": "hh-sol-artifact-1",
  "contractName": "Registry",
  "sourceName": "contracts/core/Registry.sol",
  "abi": [
    {
      "inputs": [
        {
          "internalType": "address",
          "name": "_forwarder",
          "type": "address"
        }
      ],
      "stateMutability": "nonpayable",
      "type": "constructor"
    },
    {
      "anonymous": false,
      "inputs": [
        {
          "indexed": false,
          "internalType": "uint256",
          "name": "_accountID",
          "type": "uint256"
        },
        {
          "indexed": false,
          "internalType": "string",
          "name": "_name",
          "type": "string"
        },
        {
          "indexed": false,
          "internalType": "string",
          "name": "_metaURI",
          "type": "string"
        },
        {
          "indexed": false,
          "internalType": "address",
          "name": "_sender",
          "type": "address"
        }
      ],
      "name": "AccountCreated",
      "type": "event"
    },
    {
      "anonymous": false,
      "inputs": [
        {
          "indexed": false,
          "internalType": "uint256",
          "name": "_accountID",
          "type": "uint256"
        },
        {
          "indexed": false,
          "internalType": "address",
          "name": "_member",
          "type": "address"
        },
        {
          "indexed": false,
          "internalType": "address",
          "name": "_sender",
          "type": "address"
        }
      ],
      "name": "AccountMemberAdded",
      "type": "event"
    },
    {
      "anonymous": false,
      "inputs": [
        {
          "indexed": false,
          "internalType": "uint256",
          "name": "_accountID",
          "type": "uint256"
        },
        {
          "indexed": false,
          "internalType": "address",
          "name": "_member",
          "type": "address"
        },
        {
          "indexed": false,
          "internalType": "address",
          "name": "_sender",
          "type": "address"
        }
      ],
      "name": "AccountMemberRemoved",
      "type": "event"
    },
    {
      "anonymous": false,
      "inputs": [
        {
          "indexed": false,
          "internalType": "uint256",
          "name": "_accountID",
          "type": "uint256"
        },
        {
          "indexed": false,
          "internalType": "string",
          "name": "_metaURI",
          "type": "string"
        },
        {
          "indexed": false,
          "internalType": "address",
          "name": "_sender",
          "type": "address"
        }
      ],
      "name": "AccountUpdated",
      "type": "event"
    },
    {
      "anonymous": false,
      "inputs": [
        {
          "indexed": false,
          "internalType": "uint256",
          "name": "_accountID",
          "type": "uint256"
        },
        {
          "indexed": false,
          "internalType": "uint256",
          "name": "_projectID",
          "type": "uint256"
        },
        {
          "indexed": false,
          "internalType": "string",
          "name": "_name",
          "type": "string"
        },
        {
          "indexed": false,
          "internalType": "string",
          "name": "_metaURI",
          "type": "string"
        },
        {
          "indexed": false,
          "internalType": "address",
          "name": "_sender",
          "type": "address"
        }
      ],
      "name": "ProjectCreated",
      "type": "event"
    },
    {
      "anonymous": false,
      "inputs": [
        {
          "indexed": false,
          "internalType": "uint256",
          "name": "_projectID",
          "type": "uint256"
        },
        {
          "indexed": false,
          "internalType": "address",
          "name": "_member",
          "type": "address"
        },
        {
          "indexed": false,
          "internalType": "address",
          "name": "_sender",
          "type": "address"
        }
      ],
      "name": "ProjectMemberAdded",
      "type": "event"
    },
    {
      "anonymous": false,
      "inputs": [
        {
          "indexed": false,
          "internalType": "uint256",
          "name": "_projectID",
          "type": "uint256"
        },
        {
          "indexed": false,
          "internalType": "address",
          "name": "_member",
          "type": "address"
        },
        {
          "indexed": false,
          "internalType": "address",
          "name": "_sender",
          "type": "address"
        }
      ],
      "name": "ProjectMemberRemoved",
      "type": "event"
    },
    {
      "anonymous": false,
      "inputs": [
        {
          "indexed": false,
          "internalType": "uint256",
          "name": "_projectID",
          "type": "uint256"
        },
        {
          "indexed": false,
          "internalType": "string",
          "name": "_metaURI",
          "type": "string"
        },
        {
          "indexed": false,
          "internalType": "address",
          "name": "_sender",
          "type": "address"
        }
      ],
      "name": "ProjectUpdated",
      "type": "event"
    },
    {
      "anonymous": false,
      "inputs": [
        {
          "indexed": false,
          "internalType": "uint256",
          "name": "_releaseID",
          "type": "uint256"
        },
        {
          "indexed": false,
          "internalType": "address",
          "name": "_sender",
          "type": "address"
        }
      ],
      "name": "ReleaseApproved",
      "type": "event"
    },
    {
      "anonymous": false,
      "inputs": [
        {
          "indexed": false,
          "internalType": "uint256",
          "name": "_projectID",
          "type": "uint256"
        },
        {
          "indexed": false,
          "internalType": "uint256",
          "name": "_releaseID",
          "type": "uint256"
        },
        {
          "indexed": false,
          "internalType": "string",
          "name": "_name",
          "type": "string"
        },
        {
          "indexed": false,
          "internalType": "string",
          "name": "_metaURI",
          "type": "string"
        },
        {
          "indexed": false,
          "internalType": "address",
          "name": "_sender",
          "type": "address"
        }
      ],
      "name": "ReleaseCreated",
      "type": "event"
    },
    {
      "anonymous": false,
      "inputs": [
        {
          "indexed": false,
          "internalType": "uint256",
          "name": "_releaseID",
          "type": "uint256"
        },
        {
          "indexed": false,
          "internalType": "address",
          "name": "_sender",
          "type": "address"
        }
      ],
      "name": "ReleaseRevoked",
      "type": "event"
    },
    {
      "inputs": [
        {
          "internalType": "uint256",
          "name": "_accountID",
          "type": "uint256"
        },
        {
          "internalType": "address",
          "name": "_address",
          "type": "address"
        }
      ],
      "name": "addAccountMember",
      "outputs": [],
      "stateMutability": "nonpayable",
      "type": "function"
    },
    {
      "inputs": [
        {
          "internalType": "uint256",
          "name": "_projectID",
          "type": "uint256"
        },
        {
          "internalType": "address",
          "name": "_address",
          "type": "address"
        }
      ],
      "name": "addProjectMember",
      "outputs": [],
      "stateMutability": "nonpayable",
      "type": "function"
    },
    {
      "inputs": [
        {
          "internalType": "uint256",
          "name": "_releaseID",
          "type": "uint256"
        }
      ],
      "name": "approveRelease",
      "outputs": [],
      "stateMutability": "nonpayable",
      "type": "function"
    },
    {
      "inputs": [],
      "name": "claimFee",
      "outputs": [
        {
          "internalType": "uint256",
          "name": "",
          "type": "uint256"
        }
      ],
      "stateMutability": "view",
      "type": "function"
    },
    {
      "inputs": [
        {
          "internalType": "string",
          "name": "_name",
          "type": "string"
        },
        {
          "internalType": "string",
          "name": "_metaURI",
          "type": "string"
        },
        {
          "internalType": "address[]",
          "name": "_members",
          "type": "address[]"
        }
      ],
      "name": "createAccount",
      "outputs": [],
      "stateMutability": "payable",
      "type": "function"
    },
    {
      "inputs": [
        {
          "internalType": "uint256",
          "name": "_accountID",
          "type": "uint256"
        },
        {
          "internalType": "string",
          "name": "_name",
          "type": "string"
        },
        {
          "internalType": "string",
          "name": "_metaURI",
          "type": "string"
        },
        {
          "internalType": "address[]",
          "name": "_members",
          "type": "address[]"
        }
      ],
      "name": "createProject",
      "outputs": [],
      "stateMutability": "nonpayable",
      "type": "function"
    },
    {
      "inputs": [
        {
          "internalType": "uint256",
          "name": "_projectID",
          "type": "uint256"
        },
        {
          "internalType": "string",
          "name": "_name",
          "type": "string"
        },
        {
          "internalType": "string",
          "name": "_metaURI",
          "type": "string"
        }
      ],
      "name": "createRelease",
      "outputs": [],
      "stateMutability": "nonpayable",
      "type": "function"
    },
    {
      "inputs": [
        {
          "internalType": "uint256",
          "name": "_parentID",
          "type": "uint256"
        },
        {
          "internalType": "string",
          "name": "_name",
          "type": "string"
        }
      ],
      "name": "generateID",
      "outputs": [
        {
          "internalType": "uint256",
          "name": "",
          "type": "uint256"
        }
      ],
      "stateMutability": "pure",
      "type": "function"
    },
    {
      "inputs": [
        {
          "internalType": "uint256",
          "name": "_accountID",
          "type": "uint256"
        }
      ],
      "name": "getAccountMembers",
      "outputs": [
        {
          "internalType": "address[]",
          "name": "",
          "type": "address[]"
        }
      ],
      "stateMutability": "view",
      "type": "function"
    },
    {
      "inputs": [
        {
          "internalType": "uint256",
          "name": "_projectID",
          "type": "uint256"
        }
      ],
      "name": "getProjectAccountID",
      "outputs": [
        {
          "internalType": "uint256",
          "name": "",
          "type": "uint256"
        }
      ],
      "stateMutability": "view",
      "type": "function"
    },
    {
      "inputs": [
        {
          "internalType": "uint256",
          "name": "_projectID",
          "type": "uint256"
        }
      ],
      "name": "getProjectMembers",
      "outputs": [
        {
          "internalType": "address[]",
          "name": "",
          "type": "address[]"
        }
      ],
      "stateMutability": "view",
      "type": "function"
    },
    {
      "inputs": [
        {
          "internalType": "uint256",
          "name": "_releaseID",
          "type": "uint256"
        }
      ],
      "name": "getReleaseProjectID",
      "outputs": [
        {
          "internalType": "uint256",
          "name": "",
          "type": "uint256"
        }
      ],
      "stateMutability": "view",
      "type": "function"
    },
    {
      "inputs": [
        {
          "internalType": "uint256",
          "name": "_releaseID",
          "type": "uint256"
        }
      ],
      "name": "getReleaseSigners",
      "outputs": [
        {
          "internalType": "address[]",
          "name": "",
          "type": "address[]"
        }
      ],
      "stateMutability": "view",
      "type": "function"
    },
    {
      "inputs": [
        {
          "internalType": "uint256",
          "name": "_accountID",
          "type": "uint256"
        },
        {
          "internalType": "address",
          "name": "_member",
          "type": "address"
        }
      ],
      "name": "isAccountMember",
      "outputs": [
        {
          "internalType": "bool",
          "name": "",
          "type": "bool"
        }
      ],
      "stateMutability": "view",
      "type": "function"
    },
    {
      "inputs": [
        {
          "internalType": "uint256",
          "name": "_projectID",
          "type": "uint256"
        },
        {
          "internalType": "address",
          "name": "_member",
          "type": "address"
        }
      ],
      "name": "isProjectMember",
      "outputs": [
        {
          "internalType": "bool",
          "name": "",
          "type": "bool"
        }
      ],
      "stateMutability": "view",
      "type": "function"
    },
    {
      "inputs": [
        {
          "internalType": "uint256",
          "name": "_releaseID",
          "type": "uint256"
        },
        {
          "internalType": "address",
          "name": "_signer",
          "type": "address"
        }
      ],
      "name": "isReleaseSigner",
      "outputs": [
        {
          "internalType": "bool",
          "name": "",
          "type": "bool"
        }
      ],
      "stateMutability": "view",
      "type": "function"
    },
    {
      "inputs": [
        {
          "internalType": "address",
          "name": "forwarder",
          "type": "address"
        }
      ],
      "name": "isTrustedForwarder",
      "outputs": [
        {
          "internalType": "bool",
          "name": "",
          "type": "bool"
        }
      ],
      "stateMutability": "view",
      "type": "function"
    },
    {
      "inputs": [
        {
          "internalType": "uint256",
          "name": "",
          "type": "uint256"
        }
      ],
      "name": "metaByID",
      "outputs": [
        {
          "internalType": "string",
          "name": "",
          "type": "string"
        }
      ],
      "stateMutability": "view",
      "type": "function"
    },
    {
      "inputs": [],
      "name": "owner",
      "outputs": [
        {
          "internalType": "address payable",
          "name": "",
          "type": "address"
        }
      ],
      "stateMutability": "view",
      "type": "function"
    },
    {
      "inputs": [
        {
          "internalType": "uint256",
          "name": "_accountID",
          "type": "uint256"
        },
        {
          "internalType": "address",
          "name": "_address",
          "type": "address"
        }
      ],
      "name": "removeAccountMember",
      "outputs": [],
      "stateMutability": "nonpayable",
      "type": "function"
    },
    {
      "inputs": [
        {
          "internalType": "uint256",
          "name": "_projectID",
          "type": "uint256"
        },
        {
          "internalType": "address",
          "name": "_address",
          "type": "address"
        }
      ],
      "name": "removeProjectMember",
      "outputs": [],
      "stateMutability": "nonpayable",
      "type": "function"
    },
    {
      "inputs": [
        {
          "internalType": "uint256",
          "name": "_releaseID",
          "type": "uint256"
        }
      ],
      "name": "revokeRelease",
      "outputs": [],
      "stateMutability": "nonpayable",
      "type": "function"
    },
    {
      "inputs": [
        {
          "internalType": "uint256",
          "name": "_accountID",
          "type": "uint256"
        },
        {
          "internalType": "string",
          "name": "_metaURI",
          "type": "string"
        }
      ],
      "name": "setAccountMetaURI",
      "outputs": [],
      "stateMutability": "nonpayable",
      "type": "function"
    },
    {
      "inputs": [
        {
          "internalType": "uint256",
          "name": "_claimFee",
          "type": "uint256"
        }
      ],
      "name": "setClaimFee",
      "outputs": [],
      "stateMutability": "nonpayable",
      "type": "function"
    },
    {
      "inputs": [
        {
          "internalType": "address payable",
          "name": "_owner",
          "type": "address"
        }
      ],
      "name": "setOwner",
      "outputs": [],
      "stateMutability": "nonpayable",
      "type": "function"
    },
    {
      "inputs": [
        {
          "internalType": "uint256",
          "name": "_projectID",
          "type": "uint256"
        },
        {
          "internalType": "string",
          "name": "_metaURI",
          "type": "string"
        }
      ],
      "name": "setProjectMetaURI",
      "outputs": [],
      "stateMutability": "nonpayable",
      "type": "function"
    },
    {
      "inputs": [
        {
          "internalType": "address",
          "name": "_forwarder",
          "type": "address"
        }
      ],
      "name": "setTrustedForwarder",
      "outputs": [],
      "stateMutability": "nonpayable",
      "type": "function"
    },
    {
      "inputs": [],
      "name": "trustedForwarder",
      "outputs": [
        {
          "internalType": "address",
          "name": "",
          "type": "address"
        }
      ],
      "stateMutability": "view",
      "type": "function"
    },
    {
      "inputs": [],
      "name": "versionRecipient",
      "outputs": [
        {
          "internalType": "string",
          "name": "",
          "type": "string"
        }
      ],
      "stateMutability": "view",
      "type": "function"
    }
  ],
  "bytecode": "0x60c06040526005608081905264322e322e3360d81b60a09081526200002691908162000097565b503480156200003457600080fd5b50604051620021ab380380620021ab83398101604081905262000057916200013d565b600680546001600160a01b031916331790556200009081600080546001600160a01b0319166001600160a01b0392909216919091179055565b50620001aa565b828054620000a5906200016d565b90600052602060002090601f016020900481019282620000c9576000855562000114565b82601f10620000e457805160ff191683800117855562000114565b8280016001018555821562000114579182015b8281111562000114578251825591602001919060010190620000f7565b506200012292915062000126565b5090565b5b8082111562000122576000815560010162000127565b6000602082840312156200014f578081fd5b81516001600160a01b038116811462000166578182fd5b9392505050565b600181811c908216806200018257607f821691505b60208210811415620001a457634e487b7160e01b600052602260045260246000fd5b50919050565b611ff180620001ba6000396000f3fe6080604052600436106101c25760003560e01c80637da0a877116100f7578063aef28ac311610095578063da74222811610064578063da7422281461053f578063db5954f41461055f578063ec95ecb61461057f578063ef83d3ab1461059f57600080fd5b8063aef28ac3146104bf578063bb11d22a146104ec578063c25cf2d5146104ff578063d515d9d91461051f57600080fd5b80638da5cb5b116100d15780638da5cb5b1461044957806399d32fc4146104695780639f4cfef91461047f578063a2f6ce9b1461049f57600080fd5b80637da0a877146103ca578063806553f3146103fc57806383b1fc411461041c57600080fd5b8063416cab0c11610164578063572b6c051161013e578063572b6c051461032b578063600c39111461036a5780636ad0a5ee1461038a5780637c869665146103aa57600080fd5b8063416cab0c146102bc57806343417c06146102e9578063486ff0cd1461031657600080fd5b80631bd2cea1116101a05780631bd2cea11461023c578063250b72de1461025c57806328a10ec61461027c5780632e75ab501461029c57600080fd5b80630859bbcd146101c757806313af4035146101fa578063176037f51461021c575b600080fd5b3480156101d357600080fd5b506101e76101e2366004611b12565b6105bf565b6040519081526020015b60405180910390f35b34801561020657600080fd5b5061021a610215366004611a2b565b610606565b005b34801561022857600080fd5b5061021a610237366004611ae3565b610666565b34801561024857600080fd5b5061021a610257366004611acb565b610726565b34801561026857600080fd5b5061021a610277366004611bb7565b61080d565b34801561028857600080fd5b5061021a610297366004611b57565b610a22565b3480156102a857600080fd5b5061021a6102b7366004611acb565b610bab565b3480156102c857600080fd5b506101e76102d7366004611acb565b60009081526002602052604090205490565b3480156102f557600080fd5b50610309610304366004611acb565b610be5565b6040516101f19190611cdd565b34801561032257600080fd5b50610309610c7f565b34801561033757600080fd5b5061035a610346366004611a2b565b6000546001600160a01b0391821691161490565b60405190151581526020016101f1565b34801561037657600080fd5b5061035a610385366004611ae3565b610c8c565b34801561039657600080fd5b5061035a6103a5366004611ae3565b610cae565b3480156103b657600080fd5b5061035a6103c5366004611ae3565b610cc6565b3480156103d657600080fd5b506000546001600160a01b03165b6040516001600160a01b0390911681526020016101f1565b34801561040857600080fd5b5061021a610417366004611acb565b610ce1565b34801561042857600080fd5b5061043c610437366004611acb565b610d8d565b6040516101f19190611c90565b34801561045557600080fd5b506006546103e4906001600160a01b031681565b34801561047557600080fd5b506101e760075481565b34801561048b57600080fd5b5061021a61049a366004611b12565b610daa565b3480156104ab57600080fd5b5061043c6104ba366004611acb565b610e85565b3480156104cb57600080fd5b506101e76104da366004611acb565b60009081526003602052604090205490565b61021a6104fa366004611a47565b610e9f565b34801561050b57600080fd5b5061021a61051a366004611ae3565b611108565b34801561052b57600080fd5b5061043c61053a366004611acb565b611213565b34801561054b57600080fd5b5061021a61055a366004611a2b565b611230565b34801561056b57600080fd5b5061021a61057a366004611b12565b611286565b34801561058b57600080fd5b5061021a61059a366004611ae3565b611370565b3480156105ab57600080fd5b5061021a6105ba366004611ae3565b611473565b60008282805190602001206040516020016105e4929190918252602082015260400190565b6040516020818303038152906040528051906020012060001c90505b92915050565b61060e611528565b6006546001600160a01b039081169116146106445760405162461bcd60e51b815260040161063b90611d44565b60405180910390fd5b600680546001600160a01b0319166001600160a01b0392909216919091179055565b610672826103a5611528565b61068e5760405162461bcd60e51b815260040161063b90611dcb565b6106988282610cae565b156106b55760405162461bcd60e51b815260040161063b90611cf0565b60008281526001602052604090206106cd908261155c565b507fda06031a12c2b6322a6a2a29b8e7ec92a209562f0995acbf9e5fe8cce89617b382826106f9611528565b604080519384526001600160a01b0392831660208501529116908201526060015b60405180910390a15050565b6000818152600460205260408120805461073f90611f24565b90501161075e5760405162461bcd60e51b815260040161063b90611df3565b610780610769611528565b600083815260036020526040902060010190611571565b1561079d5760405162461bcd60e51b815260040161063b90611cf0565b6107bf6107a8611528565b60008381526003602052604090206001019061155c565b507f492f404869834bbfb3dfd354d8ebd27ca988aa59eda4724d2e604400e1635df0816107ea611528565b604080519283526001600160a01b0390911660208301520160405180910390a150565b600082511161082e5760405162461bcd60e51b815260040161063b90611d7b565b600083511161084f5760405162461bcd60e51b815260040161063b90611da3565b600061085b85856105bf565b9050610869856103a5611528565b6108855760405162461bcd60e51b815260040161063b90611dcb565b6000818152600460205260409020805461089e90611f24565b1590506108bd5760405162461bcd60e51b815260040161063b90611d1a565b600081815260046020908152604090912084516108dc9286019061189b565b5060008181526002602052604090208590557fdce0cbd02a04a917caf7c163eeb153eee961368abd158a17a8d17298afc2a62f8582868661091b611528565b60405161092c959493929190611e90565b60405180910390a160005b8251811015610a1a5761098f83828151811061096357634e487b7160e01b600052603260045260246000fd5b60200260200101516002600085815260200190815260200160002060010161155c90919063ffffffff16565b507fa641673cc2c2925ec554d696d7ecb92ad62fd37a878bb62194e01d15af4ecbfe828483815181106109d257634e487b7160e01b600052603260045260246000fd5b60200260200101516109e2611528565b604080519384526001600160a01b03928316602085015291169082015260600160405180910390a1610a1381611f5f565b9050610937565b505050505050565b6000825111610a435760405162461bcd60e51b815260040161063b90611da3565b6000815111610a645760405162461bcd60e51b815260040161063b90611d7b565b60008381526004602052604081208054610a7d90611f24565b905011610a9c5760405162461bcd60e51b815260040161063b90611df3565b6000610aa884846105bf565b6000818152600460205260409020805491925090610ac590611f24565b159050610ae45760405162461bcd60e51b815260040161063b90611d1a565b600084815260026020526040902054610aff85610385611528565b80610b115750610b11816103a5611528565b610b2d5760405162461bcd60e51b815260040161063b90611dcb565b60008281526004602090815260409091208451610b4c9286019061189b565b5060008281526003602052604090208590557f28f16f2c48f7434e8ee65a00bca94583249ae3dc79ebd4c8fac3ce1cc41227a985838686610b8b611528565b604051610b9c959493929190611e90565b60405180910390a15050505050565b610bb3611528565b6006546001600160a01b03908116911614610be05760405162461bcd60e51b815260040161063b90611d44565b600755565b60046020526000908152604090208054610bfe90611f24565b80601f0160208091040260200160405190810160405280929190818152602001828054610c2a90611f24565b8015610c775780601f10610c4c57610100808354040283529160200191610c77565b820191906000526020600020905b815481529060010190602001808311610c5a57829003601f168201915b505050505081565b60058054610bfe90611f24565b6000828152600260205260408120610ca79060010183611571565b9392505050565b6000828152600160205260408120610ca79083611571565b6000828152600360205260408120610ca79060010183611571565b60008181526004602052604081208054610cfa90611f24565b905011610d195760405162461bcd60e51b815260040161063b90611df3565b610d24610769611528565b610d405760405162461bcd60e51b815260040161063b90611cf0565b610d62610d4b611528565b600083815260036020526040902060010190611593565b507f6709c97fa27e5e2954e292620faa1a587d1f25adb1bef740c229b7d947b41a99816107ea611528565b6000818152600360205260409020606090610600906001016115a8565b6000815111610dcb5760405162461bcd60e51b815260040161063b90611d7b565b610dd7826103a5611528565b610df35760405162461bcd60e51b815260040161063b90611dcb565b60008281526004602052604081208054610e0c90611f24565b905011610e2b5760405162461bcd60e51b815260040161063b90611df3565b60008281526004602090815260409091208251610e4a9284019061189b565b507fdc2b36fe3e9f9129790c8dc1fefe27a260e2ab12bbd7d2503bf3c701b7a6b1078282610e76611528565b60405161071a93929190611e1a565b6000818152600160205260409020606090610600906115a8565b600754341015610edd5760405162461bcd60e51b81526020600482015260096024820152686572722d76616c756560b81b604482015260640161063b565b6000825111610efe5760405162461bcd60e51b815260040161063b90611d7b565b6000835111610f1f5760405162461bcd60e51b815260040161063b90611da3565b6000815111610f645760405162461bcd60e51b81526020600482015260116024820152706572722d656d7074792d6d656d6265727360781b604482015260640161063b565b6000610f7046856105bf565b6000818152600460205260409020805491925090610f8d90611f24565b159050610fac5760405162461bcd60e51b815260040161063b90611d1a565b60008181526004602090815260409091208451610fcb9286019061189b565b507f7bab27b7daa748e5bd855a000a2445c6e1d22fc5b2a6c4df5c96f63508afc7b9818585610ff8611528565b6040516110089493929190611e4b565b60405180910390a160005b82518110156110eb5761106083828151811061103f57634e487b7160e01b600052603260045260246000fd5b6020908102919091018101516000858152600190925260409091209061155c565b507fda06031a12c2b6322a6a2a29b8e7ec92a209562f0995acbf9e5fe8cce89617b3828483815181106110a357634e487b7160e01b600052603260045260246000fd5b60200260200101516110b3611528565b604080519384526001600160a01b03928316602085015291169082015260600160405180910390a16110e481611f5f565b9050611013565b50600654611102906001600160a01b0316346115b5565b50505050565b6000828152600460205260408120805461112190611f24565b9050116111405760405162461bcd60e51b815260040161063b90611df3565b61114a8282610c8c565b156111675760405162461bcd60e51b815260040161063b90611cf0565b600082815260026020526040902054611182816103a5611528565b61119e5760405162461bcd60e51b815260040161063b90611dcb565b60008381526002602052604090206111b9906001018361155c565b507fa641673cc2c2925ec554d696d7ecb92ad62fd37a878bb62194e01d15af4ecbfe83836111e5611528565b604080519384526001600160a01b0392831660208501529116908201526060015b60405180910390a1505050565b6000818152600260205260409020606090610600906001016115a8565b611238611528565b6006546001600160a01b039081169116146112655760405162461bcd60e51b815260040161063b90611d44565b600080546001600160a01b0319166001600160a01b03831617905550565b50565b60008151116112a75760405162461bcd60e51b815260040161063b90611d7b565b600082815260046020526040812080546112c090611f24565b9050116112df5760405162461bcd60e51b815260040161063b90611df3565b6000828152600260205260409020546112fa816103a5611528565b6113165760405162461bcd60e51b815260040161063b90611dcb565b600083815260046020908152604090912083516113359285019061189b565b507fb1c971f708cf6cac0bf1b55c79db4b7e06ed48aa4e24618f1e40cbebecc5b0638383611361611528565b60405161120693929190611e1a565b6000828152600460205260408120805461138990611f24565b9050116113a85760405162461bcd60e51b815260040161063b90611df3565b6113b28282610c8c565b6113f55760405162461bcd60e51b8152602060048201526014602482015273195c9c8b5b595b58995c8b5b9bdd0b595e1a5cdd60621b604482015260640161063b565b600082815260026020526040902054611410816103a5611528565b61142c5760405162461bcd60e51b815260040161063b90611dcb565b60008381526002602052604090206114479060010183611593565b507f3c2f57383ed351452c76a1869a6abf17e5521b3de241aa8d31d1769d4e193c2483836111e5611528565b61147f826103a5611528565b61149b5760405162461bcd60e51b815260040161063b90611dcb565b6114a58282610cae565b6114e85760405162461bcd60e51b8152602060048201526014602482015273195c9c8b5b595b58995c8b5b9bdd0b595e1a5cdd60621b604482015260640161063b565b60008281526001602052604090206115009082611593565b507febdaf29c191f35cacd52dad5ad5e63fe0a2806c921f5f362dfcc9ded6387455082826106f95b60006014361080159061154557506000546001600160a01b031633145b15611557575060131936013560601c90565b503390565b6000610ca7836001600160a01b0384166116d3565b6001600160a01b03811660009081526001830160205260408120541515610ca7565b6000610ca7836001600160a01b038416611722565b60606000610ca78361183f565b804710156116055760405162461bcd60e51b815260206004820152601d60248201527f416464726573733a20696e73756666696369656e742062616c616e6365000000604482015260640161063b565b6000826001600160a01b03168260405160006040518083038185875af1925050503d8060008114611652576040519150601f19603f3d011682016040523d82523d6000602084013e611657565b606091505b50509050806116ce5760405162461bcd60e51b815260206004820152603a60248201527f416464726573733a20756e61626c6520746f2073656e642076616c75652c207260448201527f6563697069656e74206d61792068617665207265766572746564000000000000606482015260840161063b565b505050565b600081815260018301602052604081205461171a57508154600181810184556000848152602080822090930184905584548482528286019093526040902091909155610600565b506000610600565b60008181526001830160205260408120548015611835576000611746600183611f0d565b855490915060009061175a90600190611f0d565b90508181146117db57600086600001828154811061178857634e487b7160e01b600052603260045260246000fd5b90600052602060002001549050808760000184815481106117b957634e487b7160e01b600052603260045260246000fd5b6000918252602080832090910192909255918252600188019052604090208390555b85548690806117fa57634e487b7160e01b600052603160045260246000fd5b600190038181906000526020600020016000905590558560010160008681526020019081526020016000206000905560019350505050610600565b6000915050610600565b60608160000180548060200260200160405190810160405280929190818152602001828054801561188f57602002820191906000526020600020905b81548152602001906001019080831161187b575b50505050509050919050565b8280546118a790611f24565b90600052602060002090601f0160209004810192826118c9576000855561190f565b82601f106118e257805160ff191683800117855561190f565b8280016001018555821561190f579182015b8281111561190f5782518255916020019190600101906118f4565b5061191b92915061191f565b5090565b5b8082111561191b5760008155600101611920565b600082601f830112611944578081fd5b8135602067ffffffffffffffff82111561196057611960611f90565b8160051b61196f828201611edc565b838152828101908684018388018501891015611989578687fd5b8693505b858410156119b45780356119a081611fa6565b83526001939093019291840191840161198d565b50979650505050505050565b600082601f8301126119d0578081fd5b813567ffffffffffffffff8111156119ea576119ea611f90565b6119fd601f8201601f1916602001611edc565b818152846020838601011115611a11578283fd5b816020850160208301379081016020019190915292915050565b600060208284031215611a3c578081fd5b8135610ca781611fa6565b600080600060608486031215611a5b578182fd5b833567ffffffffffffffff80821115611a72578384fd5b611a7e878388016119c0565b94506020860135915080821115611a93578384fd5b611a9f878388016119c0565b93506040860135915080821115611ab4578283fd5b50611ac186828701611934565b9150509250925092565b600060208284031215611adc578081fd5b5035919050565b60008060408385031215611af5578182fd5b823591506020830135611b0781611fa6565b809150509250929050565b60008060408385031215611b24578182fd5b82359150602083013567ffffffffffffffff811115611b41578182fd5b611b4d858286016119c0565b9150509250929050565b600080600060608486031215611b6b578283fd5b83359250602084013567ffffffffffffffff80821115611b89578384fd5b611b95878388016119c0565b93506040860135915080821115611baa578283fd5b50611ac1868287016119c0565b60008060008060808587031215611bcc578081fd5b84359350602085013567ffffffffffffffff80821115611bea578283fd5b611bf6888389016119c0565b94506040870135915080821115611c0b578283fd5b611c17888389016119c0565b93506060870135915080821115611c2c578283fd5b50611c3987828801611934565b91505092959194509250565b60008151808452815b81811015611c6a57602081850181015186830182015201611c4e565b81811115611c7b5782602083870101525b50601f01601f19169290920160200192915050565b6020808252825182820181905260009190848201906040850190845b81811015611cd15783516001600160a01b031683529284019291840191600101611cac565b50909695505050505050565b602081526000610ca76020830184611c45565b60208082526010908201526f195c9c8b5b595b58995c8b595e1a5cdd60821b604082015260600190565b60208082526010908201526f195c9c8b5b985b594b58db185a5b595960821b604082015260600190565b60208082526017908201527f63616c6c6572206973206e6f7420746865206f776e6572000000000000000000604082015260600190565b6020808252600e908201526d6572722d656d7074792d6d65746160901b604082015260600190565b6020808252600e908201526d6572722d656d7074792d6e616d6560901b604082015260600190565b6020808252600e908201526d32b93916b737ba16b6b2b6b132b960911b604082015260600190565b6020808252600d908201526c195c9c8b5b9bdd0b595e1a5cdd609a1b604082015260600190565b838152606060208201526000611e336060830185611c45565b905060018060a01b0383166040830152949350505050565b848152608060208201526000611e646080830186611c45565b8281036040840152611e768186611c45565b91505060018060a01b038316606083015295945050505050565b85815284602082015260a060408201526000611eaf60a0830186611c45565b8281036060840152611ec18186611c45565b91505060018060a01b03831660808301529695505050505050565b604051601f8201601f1916810167ffffffffffffffff81118282101715611f0557611f05611f90565b604052919050565b600082821015611f1f57611f1f611f7a565b500390565b600181811c90821680611f3857607f821691505b60208210811415611f5957634e487b7160e01b600052602260045260246000fd5b50919050565b6000600019821415611f7357611f73611f7a565b5060010190565b634e487b7160e01b600052601160045260246000fd5b634e487b7160e01b600052604160045260246000fd5b6001600160a01b038116811461128357600080fdfea2646970667358221220bad1f2c57a583c890a6fe8d1857afe977d7c99681f34f41f0e95945487196c9064736f6c63430008040033",
  "linkReferences": {},
  "deployedLinkReferences": {}
}