{
  "_format": "hh-sol-artifact-1",
  "contractName": "Registry",
  "sourceName": "contracts/core/Registry.sol",
  "abi": [
    {
      "inputs": [
        {
          "internalType": "address",
          "name": "_forwarder",
          "type": "address"
        }
      ],
      "stateMutability": "nonpayable",
      "type": "constructor"
    },
    {
      "anonymous": false,
      "inputs": [
        {
          "indexed": false,
          "internalType": "uint256",
          "name": "_accountID",
          "type": "uint256"
        },
        {
          "indexed": false,
          "internalType": "string",
          "name": "_name",
          "type": "string"
        },
        {
          "indexed": false,
          "internalType": "string",
          "name": "_metaURI",
          "type": "string"
        },
        {
          "indexed": false,
          "internalType": "address",
          "name": "_beneficiary",
          "type": "address"
        },
        {
          "indexed": false,
          "internalType": "address",
          "name": "_sender",
          "type": "address"
        }
      ],
      "name": "AccountCreated",
      "type": "event"
    },
    {
      "anonymous": false,
      "inputs": [
        {
          "indexed": false,
          "internalType": "uint256",
          "name": "_accountID",
          "type": "uint256"
        },
        {
          "indexed": false,
          "internalType": "address",
          "name": "_member",
          "type": "address"
        },
        {
          "indexed": false,
          "internalType": "address",
          "name": "_sender",
          "type": "address"
        }
      ],
      "name": "AccountMemberAdded",
      "type": "event"
    },
    {
      "anonymous": false,
      "inputs": [
        {
          "indexed": false,
          "internalType": "uint256",
          "name": "_accountID",
          "type": "uint256"
        },
        {
          "indexed": false,
          "internalType": "address",
          "name": "_member",
          "type": "address"
        },
        {
          "indexed": false,
          "internalType": "address",
          "name": "_sender",
          "type": "address"
        }
      ],
      "name": "AccountMemberRemoved",
      "type": "event"
    },
    {
      "anonymous": false,
      "inputs": [
        {
          "indexed": false,
          "internalType": "uint256",
          "name": "_accountID",
          "type": "uint256"
        },
        {
          "indexed": false,
          "internalType": "string",
          "name": "_metaURI",
          "type": "string"
        },
        {
          "indexed": false,
          "internalType": "address",
          "name": "_sender",
          "type": "address"
        }
      ],
      "name": "AccountUpdated",
      "type": "event"
    },
    {
      "anonymous": false,
      "inputs": [
        {
          "indexed": false,
          "internalType": "uint256",
          "name": "_accountID",
          "type": "uint256"
        },
        {
          "indexed": false,
          "internalType": "address",
          "name": "_beneficiary",
          "type": "address"
        },
        {
          "indexed": false,
          "internalType": "address",
          "name": "_sender",
          "type": "address"
        }
      ],
      "name": "BeneficiaryUpdated",
      "type": "event"
    },
    {
      "anonymous": false,
      "inputs": [
        {
          "indexed": false,
          "internalType": "uint256",
          "name": "_accountID",
          "type": "uint256"
        },
        {
          "indexed": false,
          "internalType": "uint256",
          "name": "_projectID",
          "type": "uint256"
        },
        {
          "indexed": false,
          "internalType": "string",
          "name": "_name",
          "type": "string"
        },
        {
          "indexed": false,
          "internalType": "string",
          "name": "_metaURI",
          "type": "string"
        },
        {
          "indexed": false,
          "internalType": "address",
          "name": "_sender",
          "type": "address"
        }
      ],
      "name": "ProjectCreated",
      "type": "event"
    },
    {
      "anonymous": false,
      "inputs": [
        {
          "indexed": false,
          "internalType": "uint256",
          "name": "_projectID",
          "type": "uint256"
        },
        {
          "indexed": false,
          "internalType": "address",
          "name": "_member",
          "type": "address"
        },
        {
          "indexed": false,
          "internalType": "address",
          "name": "_sender",
          "type": "address"
        }
      ],
      "name": "ProjectMemberAdded",
      "type": "event"
    },
    {
      "anonymous": false,
      "inputs": [
        {
          "indexed": false,
          "internalType": "uint256",
          "name": "_projectID",
          "type": "uint256"
        },
        {
          "indexed": false,
          "internalType": "address",
          "name": "_member",
          "type": "address"
        },
        {
          "indexed": false,
          "internalType": "address",
          "name": "_sender",
          "type": "address"
        }
      ],
      "name": "ProjectMemberRemoved",
      "type": "event"
    },
    {
      "anonymous": false,
      "inputs": [
        {
          "indexed": false,
          "internalType": "uint256",
          "name": "_projectID",
          "type": "uint256"
        },
        {
          "indexed": false,
          "internalType": "string",
          "name": "_metaURI",
          "type": "string"
        },
        {
          "indexed": false,
          "internalType": "address",
          "name": "_sender",
          "type": "address"
        }
      ],
      "name": "ProjectUpdated",
      "type": "event"
    },
    {
      "anonymous": false,
      "inputs": [
        {
          "indexed": false,
          "internalType": "uint256",
          "name": "_releaseID",
          "type": "uint256"
        },
        {
          "indexed": false,
          "internalType": "address",
          "name": "_sender",
          "type": "address"
        }
      ],
      "name": "ReleaseApproved",
      "type": "event"
    },
    {
      "anonymous": false,
      "inputs": [
        {
          "indexed": false,
          "internalType": "uint256",
          "name": "_projectID",
          "type": "uint256"
        },
        {
          "indexed": false,
          "internalType": "uint256",
          "name": "_releaseID",
          "type": "uint256"
        },
        {
          "indexed": false,
          "internalType": "string",
          "name": "_name",
          "type": "string"
        },
        {
          "indexed": false,
          "internalType": "string",
          "name": "_metaURI",
          "type": "string"
        },
        {
          "indexed": false,
          "internalType": "address",
          "name": "_sender",
          "type": "address"
        }
      ],
      "name": "ReleaseCreated",
      "type": "event"
    },
    {
      "anonymous": false,
      "inputs": [
        {
          "indexed": false,
          "internalType": "uint256",
          "name": "_releaseID",
          "type": "uint256"
        },
        {
          "indexed": false,
          "internalType": "address",
          "name": "_sender",
          "type": "address"
        }
      ],
      "name": "ReleaseRevoked",
      "type": "event"
    },
    {
      "inputs": [
        {
          "internalType": "uint256",
          "name": "_accountID",
          "type": "uint256"
        },
        {
          "internalType": "address",
          "name": "_address",
          "type": "address"
        }
      ],
      "name": "addAccountMember",
      "outputs": [],
      "stateMutability": "nonpayable",
      "type": "function"
    },
    {
      "inputs": [
        {
          "internalType": "uint256",
          "name": "_projectID",
          "type": "uint256"
        },
        {
          "internalType": "address",
          "name": "_address",
          "type": "address"
        }
      ],
      "name": "addProjectMember",
      "outputs": [],
      "stateMutability": "nonpayable",
      "type": "function"
    },
    {
      "inputs": [
        {
          "internalType": "uint256",
          "name": "_releaseID",
          "type": "uint256"
        }
      ],
      "name": "approveRelease",
      "outputs": [],
      "stateMutability": "nonpayable",
      "type": "function"
    },
    {
      "inputs": [],
      "name": "claimFee",
      "outputs": [
        {
          "internalType": "uint256",
          "name": "",
          "type": "uint256"
        }
      ],
      "stateMutability": "view",
      "type": "function"
    },
    {
      "inputs": [
        {
          "internalType": "string",
          "name": "_name",
          "type": "string"
        },
        {
          "internalType": "string",
          "name": "_metaURI",
          "type": "string"
        },
        {
          "internalType": "address payable",
          "name": "_beneficiary",
          "type": "address"
        },
        {
          "internalType": "address[]",
          "name": "_members",
          "type": "address[]"
        }
      ],
      "name": "createAccount",
      "outputs": [],
      "stateMutability": "payable",
      "type": "function"
    },
    {
      "inputs": [
        {
          "internalType": "uint256",
          "name": "_accountID",
          "type": "uint256"
        },
        {
          "internalType": "string",
          "name": "_name",
          "type": "string"
        },
        {
          "internalType": "string",
          "name": "_metaURI",
          "type": "string"
        },
        {
          "internalType": "address[]",
          "name": "_members",
          "type": "address[]"
        }
      ],
      "name": "createProject",
      "outputs": [],
      "stateMutability": "nonpayable",
      "type": "function"
    },
    {
      "inputs": [
        {
          "internalType": "uint256",
          "name": "_projectID",
          "type": "uint256"
        },
        {
          "internalType": "string",
          "name": "_name",
          "type": "string"
        },
        {
          "internalType": "string",
          "name": "_metaURI",
          "type": "string"
        }
      ],
      "name": "createRelease",
      "outputs": [],
      "stateMutability": "nonpayable",
      "type": "function"
    },
    {
      "inputs": [
        {
          "internalType": "uint256",
          "name": "_parentID",
          "type": "uint256"
        },
        {
          "internalType": "string",
          "name": "_name",
          "type": "string"
        }
      ],
      "name": "generateID",
      "outputs": [
        {
          "internalType": "uint256",
          "name": "",
          "type": "uint256"
        }
      ],
      "stateMutability": "pure",
      "type": "function"
    },
    {
      "inputs": [
        {
          "internalType": "uint256",
          "name": "_accountID",
          "type": "uint256"
        }
      ],
      "name": "getAccountMembers",
      "outputs": [
        {
          "internalType": "address[]",
          "name": "",
          "type": "address[]"
        }
      ],
      "stateMutability": "view",
      "type": "function"
    },
    {
      "inputs": [
        {
          "internalType": "uint256",
          "name": "_accountID",
          "type": "uint256"
        }
      ],
      "name": "getBeneficiary",
      "outputs": [
        {
          "internalType": "address payable",
          "name": "",
          "type": "address"
        }
      ],
      "stateMutability": "view",
      "type": "function"
    },
    {
      "inputs": [
        {
          "internalType": "uint256",
          "name": "_projectID",
          "type": "uint256"
        }
      ],
      "name": "getProjectAccountID",
      "outputs": [
        {
          "internalType": "uint256",
          "name": "",
          "type": "uint256"
        }
      ],
      "stateMutability": "view",
      "type": "function"
    },
    {
      "inputs": [
        {
          "internalType": "uint256",
          "name": "_projectID",
          "type": "uint256"
        }
      ],
      "name": "getProjectMembers",
      "outputs": [
        {
          "internalType": "address[]",
          "name": "",
          "type": "address[]"
        }
      ],
      "stateMutability": "view",
      "type": "function"
    },
    {
      "inputs": [
        {
          "internalType": "uint256",
          "name": "_releaseID",
          "type": "uint256"
        }
      ],
      "name": "getReleaseProjectID",
      "outputs": [
        {
          "internalType": "uint256",
          "name": "",
          "type": "uint256"
        }
      ],
      "stateMutability": "view",
      "type": "function"
    },
    {
      "inputs": [
        {
          "internalType": "uint256",
          "name": "_releaseID",
          "type": "uint256"
        }
      ],
      "name": "getReleaseSigners",
      "outputs": [
        {
          "internalType": "address[]",
          "name": "",
          "type": "address[]"
        }
      ],
      "stateMutability": "view",
      "type": "function"
    },
    {
      "inputs": [
        {
          "internalType": "uint256",
          "name": "_accountID",
          "type": "uint256"
        },
        {
          "internalType": "address",
          "name": "_member",
          "type": "address"
        }
      ],
      "name": "isAccountMember",
      "outputs": [
        {
          "internalType": "bool",
          "name": "",
          "type": "bool"
        }
      ],
      "stateMutability": "view",
      "type": "function"
    },
    {
      "inputs": [
        {
          "internalType": "uint256",
          "name": "_projectID",
          "type": "uint256"
        },
        {
          "internalType": "address",
          "name": "_member",
          "type": "address"
        }
      ],
      "name": "isProjectMember",
      "outputs": [
        {
          "internalType": "bool",
          "name": "",
          "type": "bool"
        }
      ],
      "stateMutability": "view",
      "type": "function"
    },
    {
      "inputs": [
        {
          "internalType": "uint256",
          "name": "_releaseID",
          "type": "uint256"
        },
        {
          "internalType": "address",
          "name": "_signer",
          "type": "address"
        }
      ],
      "name": "isReleaseSigner",
      "outputs": [
        {
          "internalType": "bool",
          "name": "",
          "type": "bool"
        }
      ],
      "stateMutability": "view",
      "type": "function"
    },
    {
      "inputs": [
        {
          "internalType": "address",
          "name": "forwarder",
          "type": "address"
        }
      ],
      "name": "isTrustedForwarder",
      "outputs": [
        {
          "internalType": "bool",
          "name": "",
          "type": "bool"
        }
      ],
      "stateMutability": "view",
      "type": "function"
    },
    {
      "inputs": [
        {
          "internalType": "uint256",
          "name": "",
          "type": "uint256"
        }
      ],
      "name": "metaByID",
      "outputs": [
        {
          "internalType": "string",
          "name": "",
          "type": "string"
        }
      ],
      "stateMutability": "view",
      "type": "function"
    },
    {
      "inputs": [],
      "name": "owner",
      "outputs": [
        {
          "internalType": "address payable",
          "name": "",
          "type": "address"
        }
      ],
      "stateMutability": "view",
      "type": "function"
    },
    {
      "inputs": [
        {
          "internalType": "uint256",
          "name": "_accountID",
          "type": "uint256"
        },
        {
          "internalType": "address",
          "name": "_address",
          "type": "address"
        }
      ],
      "name": "removeAccountMember",
      "outputs": [],
      "stateMutability": "nonpayable",
      "type": "function"
    },
    {
      "inputs": [
        {
          "internalType": "uint256",
          "name": "_projectID",
          "type": "uint256"
        },
        {
          "internalType": "address",
          "name": "_address",
          "type": "address"
        }
      ],
      "name": "removeProjectMember",
      "outputs": [],
      "stateMutability": "nonpayable",
      "type": "function"
    },
    {
      "inputs": [
        {
          "internalType": "uint256",
          "name": "_releaseID",
          "type": "uint256"
        }
      ],
      "name": "revokeRelease",
      "outputs": [],
      "stateMutability": "nonpayable",
      "type": "function"
    },
    {
      "inputs": [
        {
          "internalType": "uint256",
          "name": "_accountID",
          "type": "uint256"
        },
        {
          "internalType": "string",
          "name": "_metaURI",
          "type": "string"
        }
      ],
      "name": "setAccountMetaURI",
      "outputs": [],
      "stateMutability": "nonpayable",
      "type": "function"
    },
    {
      "inputs": [
        {
          "internalType": "uint256",
          "name": "_accountID",
          "type": "uint256"
        },
        {
          "internalType": "address payable",
          "name": "_beneficiary",
          "type": "address"
        }
      ],
      "name": "setBeneficiary",
      "outputs": [],
      "stateMutability": "nonpayable",
      "type": "function"
    },
    {
      "inputs": [
        {
          "internalType": "uint256",
          "name": "_claimFee",
          "type": "uint256"
        }
      ],
      "name": "setClaimFee",
      "outputs": [],
      "stateMutability": "nonpayable",
      "type": "function"
    },
    {
      "inputs": [
        {
          "internalType": "address payable",
          "name": "_owner",
          "type": "address"
        }
      ],
      "name": "setOwner",
      "outputs": [],
      "stateMutability": "nonpayable",
      "type": "function"
    },
    {
      "inputs": [
        {
          "internalType": "uint256",
          "name": "_projectID",
          "type": "uint256"
        },
        {
          "internalType": "string",
          "name": "_metaURI",
          "type": "string"
        }
      ],
      "name": "setProjectMetaURI",
      "outputs": [],
      "stateMutability": "nonpayable",
      "type": "function"
    },
    {
      "inputs": [
        {
          "internalType": "address",
          "name": "_forwarder",
          "type": "address"
        }
      ],
      "name": "setTrustedForwarder",
      "outputs": [],
      "stateMutability": "nonpayable",
      "type": "function"
    },
    {
      "inputs": [],
      "name": "trustedForwarder",
      "outputs": [
        {
          "internalType": "address",
          "name": "",
          "type": "address"
        }
      ],
      "stateMutability": "view",
      "type": "function"
    },
    {
      "inputs": [],
      "name": "versionRecipient",
      "outputs": [
        {
          "internalType": "string",
          "name": "",
          "type": "string"
        }
      ],
      "stateMutability": "view",
      "type": "function"
    }
  ],
  "bytecode": "0x60c06040526005608081905264322e322e3360d81b60a09081526200002691908162000097565b503480156200003457600080fd5b50604051620022ed380380620022ed83398101604081905262000057916200013d565b600680546001600160a01b031916331790556200009081600080546001600160a01b0319166001600160a01b0392909216919091179055565b50620001aa565b828054620000a5906200016d565b90600052602060002090601f016020900481019282620000c9576000855562000114565b82601f10620000e457805160ff191683800117855562000114565b8280016001018555821562000114579182015b8281111562000114578251825591602001919060010190620000f7565b506200012292915062000126565b5090565b5b8082111562000122576000815560010162000127565b6000602082840312156200014f578081fd5b81516001600160a01b038116811462000166578182fd5b9392505050565b600181811c908216806200018257607f821691505b60208210811415620001a457634e487b7160e01b600052602260045260246000fd5b50919050565b61213380620001ba6000396000f3fe6080604052600436106101d85760003560e01c80637c86966511610102578063a2f6ce9b11610095578063da74222811610064578063da742228146105af578063db5954f4146105cf578063ec95ecb6146105ef578063ef83d3ab1461060f57600080fd5b8063a2f6ce9b14610522578063aef28ac314610542578063c25cf2d51461056f578063d515d9d91461058f57600080fd5b806385c4ff83116100d157806385c4ff83146104b95780638da5cb5b146104cc57806399d32fc4146104ec5780639f4cfef91461050257600080fd5b80637c8696651461042e5780637da0a8771461044e578063806553f31461046c57806383b1fc411461048c57600080fd5b80632e75ab501161017a578063486ff0cd11610149578063486ff0cd1461039a578063572b6c05146103af578063600c3911146103ee5780636ad0a5ee1461040e57600080fd5b80632e75ab50146102d2578063302df083146102f2578063416cab0c1461034057806343417c061461036d57600080fd5b80631bd2cea1116101b65780631bd2cea1146102525780631c846d5914610272578063250b72de1461029257806328a10ec6146102b257600080fd5b80630859bbcd146101dd57806313af403514610210578063176037f514610232575b600080fd5b3480156101e957600080fd5b506101fd6101f8366004611c57565b61062f565b6040519081526020015b60405180910390f35b34801561021c57600080fd5b5061023061022b366004611b5b565b610676565b005b34801561023e57600080fd5b5061023061024d366004611c28565b6106d6565b34801561025e57600080fd5b5061023061026d366004611c10565b61079a565b34801561027e57600080fd5b5061023061028d366004611c28565b610881565b34801561029e57600080fd5b506102306102ad366004611d06565b6108fb565b3480156102be57600080fd5b506102306102cd366004611c9c565b610b10565b3480156102de57600080fd5b506102306102ed366004611c10565b610c99565b3480156102fe57600080fd5b5061032861030d366004611c10565b6000908152600160205260409020546001600160a01b031690565b6040516001600160a01b039091168152602001610207565b34801561034c57600080fd5b506101fd61035b366004611c10565b60009081526002602052604090205490565b34801561037957600080fd5b5061038d610388366004611c10565b610cd3565b6040516102079190611e13565b3480156103a657600080fd5b5061038d610d6d565b3480156103bb57600080fd5b506103de6103ca366004611b5b565b6000546001600160a01b0391821691161490565b6040519015158152602001610207565b3480156103fa57600080fd5b506103de610409366004611c28565b610d7a565b34801561041a57600080fd5b506103de610429366004611c28565b610d9c565b34801561043a57600080fd5b506103de610449366004611c28565b610db7565b34801561045a57600080fd5b506000546001600160a01b0316610328565b34801561047857600080fd5b50610230610487366004611c10565b610dd2565b34801561049857600080fd5b506104ac6104a7366004611c10565b610e7e565b6040516102079190611dc6565b6102306104c7366004611b77565b610e9b565b3480156104d857600080fd5b50600654610328906001600160a01b031681565b3480156104f857600080fd5b506101fd60075481565b34801561050e57600080fd5b5061023061051d366004611c57565b611139565b34801561052e57600080fd5b506104ac61053d366004611c10565b611214565b34801561054e57600080fd5b506101fd61055d366004611c10565b60009081526003602052604090205490565b34801561057b57600080fd5b5061023061058a366004611c28565b611234565b34801561059b57600080fd5b506104ac6105aa366004611c10565b61133f565b3480156105bb57600080fd5b506102306105ca366004611b5b565b61135c565b3480156105db57600080fd5b506102306105ea366004611c57565b6113b2565b3480156105fb57600080fd5b5061023061060a366004611c28565b61149c565b34801561061b57600080fd5b5061023061062a366004611c28565b61159f565b6000828280519060200120604051602001610654929190918252602082015260400190565b6040516020818303038152906040528051906020012060001c90505b92915050565b61067e611658565b6006546001600160a01b039081169116146106b45760405162461bcd60e51b81526004016106ab90611e7a565b60405180910390fd5b600680546001600160a01b0319166001600160a01b0392909216919091179055565b6106e282610429611658565b6106fe5760405162461bcd60e51b81526004016106ab90611f01565b6107088282610d9c565b156107255760405162461bcd60e51b81526004016106ab90611e26565b600082815260016020819052604090912061074191018261168c565b507fda06031a12c2b6322a6a2a29b8e7ec92a209562f0995acbf9e5fe8cce89617b3828261076d611658565b604080519384526001600160a01b0392831660208501529116908201526060015b60405180910390a15050565b600081815260046020526040812080546107b390612066565b9050116107d25760405162461bcd60e51b81526004016106ab90611f29565b6107f46107dd611658565b6000838152600360205260409020600101906116a1565b156108115760405162461bcd60e51b81526004016106ab90611e26565b61083361081c611658565b60008381526003602052604090206001019061168c565b507f492f404869834bbfb3dfd354d8ebd27ca988aa59eda4724d2e604400e1635df08161085e611658565b604080519283526001600160a01b0390911660208301520160405180910390a150565b61088d82610429611658565b6108a95760405162461bcd60e51b81526004016106ab90611f01565b600082815260016020526040902080546001600160a01b0319166001600160a01b0383161790557ff585da3452445cd066854ce9c4f3306e8deddd1d571e840b1dddaa1f3d4de53c828261076d611658565b600082511161091c5760405162461bcd60e51b81526004016106ab90611eb1565b600083511161093d5760405162461bcd60e51b81526004016106ab90611ed9565b6000610949858561062f565b905061095785610429611658565b6109735760405162461bcd60e51b81526004016106ab90611f01565b6000818152600460205260409020805461098c90612066565b1590506109ab5760405162461bcd60e51b81526004016106ab90611e50565b600081815260046020908152604090912084516109ca928601906119cb565b5060008181526002602052604090208590557fdce0cbd02a04a917caf7c163eeb153eee961368abd158a17a8d17298afc2a62f85828686610a09611658565b604051610a1a959493929190611fd2565b60405180910390a160005b8251811015610b0857610a7d838281518110610a5157634e487b7160e01b600052603260045260246000fd5b60200260200101516002600085815260200190815260200160002060010161168c90919063ffffffff16565b507fa641673cc2c2925ec554d696d7ecb92ad62fd37a878bb62194e01d15af4ecbfe82848381518110610ac057634e487b7160e01b600052603260045260246000fd5b6020026020010151610ad0611658565b604080519384526001600160a01b03928316602085015291169082015260600160405180910390a1610b01816120a1565b9050610a25565b505050505050565b6000825111610b315760405162461bcd60e51b81526004016106ab90611ed9565b6000815111610b525760405162461bcd60e51b81526004016106ab90611eb1565b60008381526004602052604081208054610b6b90612066565b905011610b8a5760405162461bcd60e51b81526004016106ab90611f29565b6000610b96848461062f565b6000818152600460205260409020805491925090610bb390612066565b159050610bd25760405162461bcd60e51b81526004016106ab90611e50565b600084815260026020526040902054610bed85610409611658565b80610bff5750610bff81610429611658565b610c1b5760405162461bcd60e51b81526004016106ab90611f01565b60008281526004602090815260409091208451610c3a928601906119cb565b5060008281526003602052604090208590557f28f16f2c48f7434e8ee65a00bca94583249ae3dc79ebd4c8fac3ce1cc41227a985838686610c79611658565b604051610c8a959493929190611fd2565b60405180910390a15050505050565b610ca1611658565b6006546001600160a01b03908116911614610cce5760405162461bcd60e51b81526004016106ab90611e7a565b600755565b60046020526000908152604090208054610cec90612066565b80601f0160208091040260200160405190810160405280929190818152602001828054610d1890612066565b8015610d655780601f10610d3a57610100808354040283529160200191610d65565b820191906000526020600020905b815481529060010190602001808311610d4857829003601f168201915b505050505081565b60058054610cec90612066565b6000828152600260205260408120610d9590600101836116a1565b9392505050565b60008281526001602081905260408220610d959101836116a1565b6000828152600360205260408120610d9590600101836116a1565b60008181526004602052604081208054610deb90612066565b905011610e0a5760405162461bcd60e51b81526004016106ab90611f29565b610e156107dd611658565b610e315760405162461bcd60e51b81526004016106ab90611e26565b610e53610e3c611658565b6000838152600360205260409020600101906116c3565b507f6709c97fa27e5e2954e292620faa1a587d1f25adb1bef740c229b7d947b41a998161085e611658565b6000818152600360205260409020606090610670906001016116d8565b600754341015610ed95760405162461bcd60e51b81526020600482015260096024820152686572722d76616c756560b81b60448201526064016106ab565b6000835111610efa5760405162461bcd60e51b81526004016106ab90611eb1565b6000845111610f1b5760405162461bcd60e51b81526004016106ab90611ed9565b6000815111610f605760405162461bcd60e51b81526020600482015260116024820152706572722d656d7074792d6d656d6265727360781b60448201526064016106ab565b6000610f6c468661062f565b6000818152600460205260409020805491925090610f8990612066565b159050610fa85760405162461bcd60e51b81526004016106ab90611e50565b60008181526004602090815260409091208551610fc7928701906119cb565b50600081815260016020526040902080546001600160a01b0319166001600160a01b0385161790557f5aa2d2eb6a8d10af64299df20c898afca779877e27724b00f52a1c9e19b8586a8186868661101c611658565b60405161102d959493929190611f81565b60405180910390a160005b825181101561111b5761109083828151811061106457634e487b7160e01b600052603260045260246000fd5b60200260200101516001600085815260200190815260200160002060010161168c90919063ffffffff16565b507fda06031a12c2b6322a6a2a29b8e7ec92a209562f0995acbf9e5fe8cce89617b3828483815181106110d357634e487b7160e01b600052603260045260246000fd5b60200260200101516110e3611658565b604080519384526001600160a01b03928316602085015291169082015260600160405180910390a1611114816120a1565b9050611038565b50600654611132906001600160a01b0316346116e5565b5050505050565b600081511161115a5760405162461bcd60e51b81526004016106ab90611eb1565b61116682610429611658565b6111825760405162461bcd60e51b81526004016106ab90611f01565b6000828152600460205260408120805461119b90612066565b9050116111ba5760405162461bcd60e51b81526004016106ab90611f29565b600082815260046020908152604090912082516111d9928401906119cb565b507fdc2b36fe3e9f9129790c8dc1fefe27a260e2ab12bbd7d2503bf3c701b7a6b1078282611205611658565b60405161078e93929190611f50565b6060610670600160008481526020019081526020016000206001016116d8565b6000828152600460205260408120805461124d90612066565b90501161126c5760405162461bcd60e51b81526004016106ab90611f29565b6112768282610d7a565b156112935760405162461bcd60e51b81526004016106ab90611e26565b6000828152600260205260409020546112ae81610429611658565b6112ca5760405162461bcd60e51b81526004016106ab90611f01565b60008381526002602052604090206112e5906001018361168c565b507fa641673cc2c2925ec554d696d7ecb92ad62fd37a878bb62194e01d15af4ecbfe8383611311611658565b604080519384526001600160a01b0392831660208501529116908201526060015b60405180910390a1505050565b6000818152600260205260409020606090610670906001016116d8565b611364611658565b6006546001600160a01b039081169116146113915760405162461bcd60e51b81526004016106ab90611e7a565b600080546001600160a01b0319166001600160a01b03831617905550565b50565b60008151116113d35760405162461bcd60e51b81526004016106ab90611eb1565b600082815260046020526040812080546113ec90612066565b90501161140b5760405162461bcd60e51b81526004016106ab90611f29565b60008281526002602052604090205461142681610429611658565b6114425760405162461bcd60e51b81526004016106ab90611f01565b60008381526004602090815260409091208351611461928501906119cb565b507fb1c971f708cf6cac0bf1b55c79db4b7e06ed48aa4e24618f1e40cbebecc5b063838361148d611658565b60405161133293929190611f50565b600082815260046020526040812080546114b590612066565b9050116114d45760405162461bcd60e51b81526004016106ab90611f29565b6114de8282610d7a565b6115215760405162461bcd60e51b8152602060048201526014602482015273195c9c8b5b595b58995c8b5b9bdd0b595e1a5cdd60621b60448201526064016106ab565b60008281526002602052604090205461153c81610429611658565b6115585760405162461bcd60e51b81526004016106ab90611f01565b600083815260026020526040902061157390600101836116c3565b507f3c2f57383ed351452c76a1869a6abf17e5521b3de241aa8d31d1769d4e193c248383611311611658565b6115ab82610429611658565b6115c75760405162461bcd60e51b81526004016106ab90611f01565b6115d18282610d9c565b6116145760405162461bcd60e51b8152602060048201526014602482015273195c9c8b5b595b58995c8b5b9bdd0b595e1a5cdd60621b60448201526064016106ab565b60008281526001602081905260409091206116309101826116c3565b507febdaf29c191f35cacd52dad5ad5e63fe0a2806c921f5f362dfcc9ded63874550828261076d5b60006014361080159061167557506000546001600160a01b031633145b15611687575060131936013560601c90565b503390565b6000610d95836001600160a01b038416611803565b6001600160a01b03811660009081526001830160205260408120541515610d95565b6000610d95836001600160a01b038416611852565b60606000610d958361196f565b804710156117355760405162461bcd60e51b815260206004820152601d60248201527f416464726573733a20696e73756666696369656e742062616c616e636500000060448201526064016106ab565b6000826001600160a01b03168260405160006040518083038185875af1925050503d8060008114611782576040519150601f19603f3d011682016040523d82523d6000602084013e611787565b606091505b50509050806117fe5760405162461bcd60e51b815260206004820152603a60248201527f416464726573733a20756e61626c6520746f2073656e642076616c75652c207260448201527f6563697069656e74206d6179206861766520726576657274656400000000000060648201526084016106ab565b505050565b600081815260018301602052604081205461184a57508154600181810184556000848152602080822090930184905584548482528286019093526040902091909155610670565b506000610670565b6000818152600183016020526040812054801561196557600061187660018361204f565b855490915060009061188a9060019061204f565b905081811461190b5760008660000182815481106118b857634e487b7160e01b600052603260045260246000fd5b90600052602060002001549050808760000184815481106118e957634e487b7160e01b600052603260045260246000fd5b6000918252602080832090910192909255918252600188019052604090208390555b855486908061192a57634e487b7160e01b600052603160045260246000fd5b600190038181906000526020600020016000905590558560010160008681526020019081526020016000206000905560019350505050610670565b6000915050610670565b6060816000018054806020026020016040519081016040528092919081815260200182805480156119bf57602002820191906000526020600020905b8154815260200190600101908083116119ab575b50505050509050919050565b8280546119d790612066565b90600052602060002090601f0160209004810192826119f95760008555611a3f565b82601f10611a1257805160ff1916838001178555611a3f565b82800160010185558215611a3f579182015b82811115611a3f578251825591602001919060010190611a24565b50611a4b929150611a4f565b5090565b5b80821115611a4b5760008155600101611a50565b600082601f830112611a74578081fd5b8135602067ffffffffffffffff821115611a9057611a906120d2565b8160051b611a9f82820161201e565b838152828101908684018388018501891015611ab9578687fd5b8693505b85841015611ae4578035611ad0816120e8565b835260019390930192918401918401611abd565b50979650505050505050565b600082601f830112611b00578081fd5b813567ffffffffffffffff811115611b1a57611b1a6120d2565b611b2d601f8201601f191660200161201e565b818152846020838601011115611b41578283fd5b816020850160208301379081016020019190915292915050565b600060208284031215611b6c578081fd5b8135610d95816120e8565b60008060008060808587031215611b8c578283fd5b843567ffffffffffffffff80821115611ba3578485fd5b611baf88838901611af0565b95506020870135915080821115611bc4578485fd5b611bd088838901611af0565b945060408701359150611be2826120e8565b90925060608601359080821115611bf7578283fd5b50611c0487828801611a64565b91505092959194509250565b600060208284031215611c21578081fd5b5035919050565b60008060408385031215611c3a578182fd5b823591506020830135611c4c816120e8565b809150509250929050565b60008060408385031215611c69578182fd5b82359150602083013567ffffffffffffffff811115611c86578182fd5b611c9285828601611af0565b9150509250929050565b600080600060608486031215611cb0578283fd5b83359250602084013567ffffffffffffffff80821115611cce578384fd5b611cda87838801611af0565b93506040860135915080821115611cef578283fd5b50611cfc86828701611af0565b9150509250925092565b60008060008060808587031215611d1b578384fd5b84359350602085013567ffffffffffffffff80821115611d39578485fd5b611d4588838901611af0565b94506040870135915080821115611d5a578384fd5b611d6688838901611af0565b93506060870135915080821115611bf7578283fd5b60008151808452815b81811015611da057602081850181015186830182015201611d84565b81811115611db15782602083870101525b50601f01601f19169290920160200192915050565b6020808252825182820181905260009190848201906040850190845b81811015611e075783516001600160a01b031683529284019291840191600101611de2565b50909695505050505050565b602081526000610d956020830184611d7b565b60208082526010908201526f195c9c8b5b595b58995c8b595e1a5cdd60821b604082015260600190565b60208082526010908201526f195c9c8b5b985b594b58db185a5b595960821b604082015260600190565b60208082526017908201527f63616c6c6572206973206e6f7420746865206f776e6572000000000000000000604082015260600190565b6020808252600e908201526d6572722d656d7074792d6d65746160901b604082015260600190565b6020808252600e908201526d6572722d656d7074792d6e616d6560901b604082015260600190565b6020808252600e908201526d32b93916b737ba16b6b2b6b132b960911b604082015260600190565b6020808252600d908201526c195c9c8b5b9bdd0b595e1a5cdd609a1b604082015260600190565b838152606060208201526000611f696060830185611d7b565b905060018060a01b0383166040830152949350505050565b85815260a060208201526000611f9a60a0830187611d7b565b8281036040840152611fac8187611d7b565b6001600160a01b0395861660608501529390941660809092019190915250949350505050565b85815284602082015260a060408201526000611ff160a0830186611d7b565b82810360608401526120038186611d7b565b91505060018060a01b03831660808301529695505050505050565b604051601f8201601f1916810167ffffffffffffffff81118282101715612047576120476120d2565b604052919050565b600082821015612061576120616120bc565b500390565b600181811c9082168061207a57607f821691505b6020821081141561209b57634e487b7160e01b600052602260045260246000fd5b50919050565b60006000198214156120b5576120b56120bc565b5060010190565b634e487b7160e01b600052601160045260246000fd5b634e487b7160e01b600052604160045260246000fd5b6001600160a01b03811681146113af57600080fdfea2646970667358221220d861b7abcff7c24fc750f61c0279b22550c85632f54bb5f5bc0801d8dbcd0e1864736f6c63430008040033",
  "linkReferences": {},
  "deployedLinkReferences": {}
}