{
  "contracts/Valist.sol": {
    "Valist": {
      "abi": [
        {
          "inputs": [
            {
              "internalType": "address",
              "name": "_trustedForwarder",
              "type": "address"
            }
          ],
          "stateMutability": "nonpayable",
          "type": "constructor"
        },
        {
          "anonymous": false,
          "inputs": [
            {
              "indexed": false,
              "internalType": "string",
              "name": "_teamName",
              "type": "string"
            },
            {
              "indexed": false,
              "internalType": "string",
              "name": "_projectName",
              "type": "string"
            },
            {
              "indexed": false,
              "internalType": "string",
              "name": "_metaCID",
              "type": "string"
            },
            {
              "indexed": false,
              "internalType": "address",
              "name": "_member",
              "type": "address"
            }
          ],
          "name": "ProjectCreated",
          "type": "event"
        },
        {
          "anonymous": false,
          "inputs": [
            {
              "indexed": false,
              "internalType": "string",
              "name": "_projectName",
              "type": "string"
            },
            {
              "indexed": false,
              "internalType": "address",
              "name": "_member",
              "type": "address"
            }
          ],
          "name": "ProjectMemberAdded",
          "type": "event"
        },
        {
          "anonymous": false,
          "inputs": [
            {
              "indexed": false,
              "internalType": "string",
              "name": "_teamName",
              "type": "string"
            },
            {
              "indexed": false,
              "internalType": "string",
              "name": "_projectName",
              "type": "string"
            },
            {
              "indexed": false,
              "internalType": "address",
              "name": "_member",
              "type": "address"
            }
          ],
          "name": "ProjectMemberAdded",
          "type": "event"
        },
        {
          "anonymous": false,
          "inputs": [
            {
              "indexed": false,
              "internalType": "string",
              "name": "_teamName",
              "type": "string"
            },
            {
              "indexed": false,
              "internalType": "string",
              "name": "_projectName",
              "type": "string"
            },
            {
              "indexed": false,
              "internalType": "address",
              "name": "_member",
              "type": "address"
            }
          ],
          "name": "ProjectMemberRemoved",
          "type": "event"
        },
        {
          "anonymous": false,
          "inputs": [
            {
              "indexed": false,
              "internalType": "string",
              "name": "_teamName",
              "type": "string"
            },
            {
              "indexed": false,
              "internalType": "string",
              "name": "_projectName",
              "type": "string"
            },
            {
              "indexed": false,
              "internalType": "string",
              "name": "_metaCID",
              "type": "string"
            },
            {
              "indexed": false,
              "internalType": "address",
              "name": "_member",
              "type": "address"
            }
          ],
          "name": "ProjectUpdated",
          "type": "event"
        },
        {
          "anonymous": false,
          "inputs": [
            {
              "indexed": false,
              "internalType": "string",
              "name": "_teamName",
              "type": "string"
            },
            {
              "indexed": false,
              "internalType": "string",
              "name": "_projectName",
              "type": "string"
            },
            {
              "indexed": false,
              "internalType": "string",
              "name": "_releaseName",
              "type": "string"
            },
            {
              "indexed": false,
              "internalType": "address",
              "name": "_sender",
              "type": "address"
            }
          ],
          "name": "ReleaseApproved",
          "type": "event"
        },
        {
          "anonymous": false,
          "inputs": [
            {
              "indexed": false,
              "internalType": "string",
              "name": "_teamName",
              "type": "string"
            },
            {
              "indexed": false,
              "internalType": "string",
              "name": "_projectName",
              "type": "string"
            },
            {
              "indexed": false,
              "internalType": "string",
              "name": "_releaseName",
              "type": "string"
            },
            {
              "indexed": false,
              "internalType": "string",
              "name": "_metaCID",
              "type": "string"
            },
            {
              "indexed": false,
              "internalType": "address",
              "name": "_member",
              "type": "address"
            }
          ],
          "name": "ReleaseCreated",
          "type": "event"
        },
        {
          "anonymous": false,
          "inputs": [
            {
              "indexed": false,
              "internalType": "string",
              "name": "_teamName",
              "type": "string"
            },
            {
              "indexed": false,
              "internalType": "string",
              "name": "_projectName",
              "type": "string"
            },
            {
              "indexed": false,
              "internalType": "string",
              "name": "_releaseName",
              "type": "string"
            },
            {
              "indexed": false,
              "internalType": "address",
              "name": "_sender",
              "type": "address"
            }
          ],
          "name": "ReleaseRejected",
          "type": "event"
        },
        {
          "anonymous": false,
          "inputs": [
            {
              "indexed": false,
              "internalType": "string",
              "name": "_teamName",
              "type": "string"
            },
            {
              "indexed": false,
              "internalType": "string",
              "name": "_metaCID",
              "type": "string"
            },
            {
              "indexed": false,
              "internalType": "address",
              "name": "_sender",
              "type": "address"
            }
          ],
          "name": "TeamCreated",
          "type": "event"
        },
        {
          "anonymous": false,
          "inputs": [
            {
              "indexed": false,
              "internalType": "string",
              "name": "_teamName",
              "type": "string"
            },
            {
              "indexed": false,
              "internalType": "address",
              "name": "_member",
              "type": "address"
            }
          ],
          "name": "TeamMemberAdded",
          "type": "event"
        },
        {
          "anonymous": false,
          "inputs": [
            {
              "indexed": false,
              "internalType": "string",
              "name": "_teamName",
              "type": "string"
            },
            {
              "indexed": false,
              "internalType": "address",
              "name": "_member",
              "type": "address"
            }
          ],
          "name": "TeamMemberRemoved",
          "type": "event"
        },
        {
          "anonymous": false,
          "inputs": [
            {
              "indexed": false,
              "internalType": "string",
              "name": "_teamName",
              "type": "string"
            },
            {
              "indexed": false,
              "internalType": "string",
              "name": "_metaCID",
              "type": "string"
            },
            {
              "indexed": false,
              "internalType": "address",
              "name": "_member",
              "type": "address"
            }
          ],
          "name": "TeamUpdated",
          "type": "event"
        },
        {
          "inputs": [
            {
              "internalType": "string",
              "name": "_teamName",
              "type": "string"
            },
            {
              "internalType": "string",
              "name": "_projectName",
              "type": "string"
            },
            {
              "internalType": "address",
              "name": "_address",
              "type": "address"
            }
          ],
          "name": "addProjectMember",
          "outputs": [],
          "stateMutability": "nonpayable",
          "type": "function"
        },
        {
          "inputs": [
            {
              "internalType": "string",
              "name": "_teamName",
              "type": "string"
            },
            {
              "internalType": "address",
              "name": "_address",
              "type": "address"
            }
          ],
          "name": "addTeamMember",
          "outputs": [],
          "stateMutability": "nonpayable",
          "type": "function"
        },
        {
          "inputs": [
            {
              "internalType": "string",
              "name": "_teamName",
              "type": "string"
            },
            {
              "internalType": "string",
              "name": "_projectName",
              "type": "string"
            },
            {
              "internalType": "string",
              "name": "_releaseName",
              "type": "string"
            }
          ],
          "name": "approveRelease",
          "outputs": [],
          "stateMutability": "nonpayable",
          "type": "function"
        },
        {
          "inputs": [
            {
              "internalType": "string",
              "name": "_teamName",
              "type": "string"
            },
            {
              "internalType": "string",
              "name": "_projectName",
              "type": "string"
            },
            {
              "internalType": "string",
              "name": "_metaCID",
              "type": "string"
            },
            {
              "internalType": "address[]",
              "name": "_members",
              "type": "address[]"
            }
          ],
          "name": "createProject",
          "outputs": [],
          "stateMutability": "nonpayable",
          "type": "function"
        },
        {
          "inputs": [
            {
              "internalType": "string",
              "name": "_teamName",
              "type": "string"
            },
            {
              "internalType": "string",
              "name": "_projectName",
              "type": "string"
            },
            {
              "internalType": "string",
              "name": "_releaseName",
              "type": "string"
            },
            {
              "internalType": "string",
              "name": "_metaCID",
              "type": "string"
            }
          ],
          "name": "createRelease",
          "outputs": [],
          "stateMutability": "nonpayable",
          "type": "function"
        },
        {
          "inputs": [
            {
              "internalType": "string",
              "name": "_teamName",
              "type": "string"
            },
            {
              "internalType": "string",
              "name": "_metaCID",
              "type": "string"
            },
            {
              "internalType": "address[]",
              "name": "_members",
              "type": "address[]"
            }
          ],
          "name": "createTeam",
          "outputs": [],
          "stateMutability": "nonpayable",
          "type": "function"
        },
        {
          "inputs": [
            {
              "internalType": "string",
              "name": "_teamName",
              "type": "string"
            },
            {
              "internalType": "string",
              "name": "_projectName",
              "type": "string"
            }
          ],
          "name": "getLatestReleaseName",
          "outputs": [
            {
              "internalType": "string",
              "name": "",
              "type": "string"
            }
          ],
          "stateMutability": "view",
          "type": "function"
        },
        {
          "inputs": [
            {
              "internalType": "string",
              "name": "_teamName",
              "type": "string"
            },
            {
              "internalType": "string",
              "name": "_projectName",
              "type": "string"
            },
            {
              "internalType": "uint256",
              "name": "_page",
              "type": "uint256"
            },
            {
              "internalType": "uint256",
              "name": "_size",
              "type": "uint256"
            }
          ],
          "name": "getProjectMembers",
          "outputs": [
            {
              "internalType": "address[]",
              "name": "",
              "type": "address[]"
            }
          ],
          "stateMutability": "view",
          "type": "function"
        },
        {
          "inputs": [
            {
              "internalType": "string",
              "name": "_teamName",
              "type": "string"
            },
            {
              "internalType": "string",
              "name": "_projectName",
              "type": "string"
            }
          ],
          "name": "getProjectMetaCID",
          "outputs": [
            {
              "internalType": "string",
              "name": "",
              "type": "string"
            }
          ],
          "stateMutability": "view",
          "type": "function"
        },
        {
          "inputs": [
            {
              "internalType": "string",
              "name": "_teamName",
              "type": "string"
            },
            {
              "internalType": "uint256",
              "name": "_page",
              "type": "uint256"
            },
            {
              "internalType": "uint256",
              "name": "_size",
              "type": "uint256"
            }
          ],
          "name": "getProjectNames",
          "outputs": [
            {
              "internalType": "string[]",
              "name": "",
              "type": "string[]"
            }
          ],
          "stateMutability": "view",
          "type": "function"
        },
        {
          "inputs": [
            {
              "internalType": "string",
              "name": "_teamName",
              "type": "string"
            },
            {
              "internalType": "string",
              "name": "_projectName",
              "type": "string"
            },
            {
              "internalType": "string",
              "name": "_releaseName",
              "type": "string"
            },
            {
              "internalType": "uint256",
              "name": "_page",
              "type": "uint256"
            },
            {
              "internalType": "uint256",
              "name": "_size",
              "type": "uint256"
            }
          ],
          "name": "getReleaseApprovers",
          "outputs": [
            {
              "internalType": "address[]",
              "name": "",
              "type": "address[]"
            }
          ],
          "stateMutability": "view",
          "type": "function"
        },
        {
          "inputs": [
            {
              "internalType": "string",
              "name": "_teamName",
              "type": "string"
            },
            {
              "internalType": "string",
              "name": "_projectName",
              "type": "string"
            },
            {
              "internalType": "string",
              "name": "_releaseName",
              "type": "string"
            }
          ],
          "name": "getReleaseMetaCID",
          "outputs": [
            {
              "internalType": "string",
              "name": "",
              "type": "string"
            }
          ],
          "stateMutability": "view",
          "type": "function"
        },
        {
          "inputs": [
            {
              "internalType": "string",
              "name": "_teamName",
              "type": "string"
            },
            {
              "internalType": "string",
              "name": "_projectName",
              "type": "string"
            },
            {
              "internalType": "uint256",
              "name": "_page",
              "type": "uint256"
            },
            {
              "internalType": "uint256",
              "name": "_size",
              "type": "uint256"
            }
          ],
          "name": "getReleaseNames",
          "outputs": [
            {
              "internalType": "string[]",
              "name": "",
              "type": "string[]"
            }
          ],
          "stateMutability": "view",
          "type": "function"
        },
        {
          "inputs": [
            {
              "internalType": "string",
              "name": "_teamName",
              "type": "string"
            },
            {
              "internalType": "string",
              "name": "_projectName",
              "type": "string"
            },
            {
              "internalType": "string",
              "name": "_releaseName",
              "type": "string"
            },
            {
              "internalType": "uint256",
              "name": "_page",
              "type": "uint256"
            },
            {
              "internalType": "uint256",
              "name": "_size",
              "type": "uint256"
            }
          ],
          "name": "getReleaseRejectors",
          "outputs": [
            {
              "internalType": "address[]",
              "name": "",
              "type": "address[]"
            }
          ],
          "stateMutability": "view",
          "type": "function"
        },
        {
          "inputs": [
            {
              "internalType": "string",
              "name": "_teamName",
              "type": "string"
            },
            {
              "internalType": "uint256",
              "name": "_page",
              "type": "uint256"
            },
            {
              "internalType": "uint256",
              "name": "_size",
              "type": "uint256"
            }
          ],
          "name": "getTeamMembers",
          "outputs": [
            {
              "internalType": "address[]",
              "name": "",
              "type": "address[]"
            }
          ],
          "stateMutability": "view",
          "type": "function"
        },
        {
          "inputs": [
            {
              "internalType": "string",
              "name": "_teamName",
              "type": "string"
            }
          ],
          "name": "getTeamMetaCID",
          "outputs": [
            {
              "internalType": "string",
              "name": "",
              "type": "string"
            }
          ],
          "stateMutability": "view",
          "type": "function"
        },
        {
          "inputs": [
            {
              "internalType": "uint256",
              "name": "_page",
              "type": "uint256"
            },
            {
              "internalType": "uint256",
              "name": "_size",
              "type": "uint256"
            }
          ],
          "name": "getTeamNames",
          "outputs": [
            {
              "internalType": "string[]",
              "name": "",
              "type": "string[]"
            }
          ],
          "stateMutability": "view",
          "type": "function"
        },
        {
          "inputs": [
            {
              "internalType": "address",
              "name": "forwarder",
              "type": "address"
            }
          ],
          "name": "isTrustedForwarder",
          "outputs": [
            {
              "internalType": "bool",
              "name": "",
              "type": "bool"
            }
          ],
          "stateMutability": "view",
          "type": "function"
        },
        {
          "inputs": [
            {
              "internalType": "string",
              "name": "_teamName",
              "type": "string"
            },
            {
              "internalType": "string",
              "name": "_projectName",
              "type": "string"
            },
            {
              "internalType": "string",
              "name": "_releaseName",
              "type": "string"
            }
          ],
          "name": "rejectRelease",
          "outputs": [],
          "stateMutability": "nonpayable",
          "type": "function"
        },
        {
          "inputs": [
            {
              "internalType": "string",
              "name": "_teamName",
              "type": "string"
            },
            {
              "internalType": "string",
              "name": "_projectName",
              "type": "string"
            },
            {
              "internalType": "address",
              "name": "_address",
              "type": "address"
            }
          ],
          "name": "removeProjectMember",
          "outputs": [],
          "stateMutability": "nonpayable",
          "type": "function"
        },
        {
          "inputs": [
            {
              "internalType": "string",
              "name": "_teamName",
              "type": "string"
            },
            {
              "internalType": "address",
              "name": "_address",
              "type": "address"
            }
          ],
          "name": "removeTeamMember",
          "outputs": [],
          "stateMutability": "nonpayable",
          "type": "function"
        },
        {
          "inputs": [
            {
              "internalType": "string",
              "name": "_teamName",
              "type": "string"
            },
            {
              "internalType": "string",
              "name": "_projectName",
              "type": "string"
            },
            {
              "internalType": "string",
              "name": "_metaCID",
              "type": "string"
            }
          ],
          "name": "setProjectMetaCID",
          "outputs": [],
          "stateMutability": "nonpayable",
          "type": "function"
        },
        {
          "inputs": [
            {
              "internalType": "string",
              "name": "_teamName",
              "type": "string"
            },
            {
              "internalType": "string",
              "name": "_metaCID",
              "type": "string"
            }
          ],
          "name": "setTeamMetaCID",
          "outputs": [],
          "stateMutability": "nonpayable",
          "type": "function"
        },
        {
          "inputs": [],
          "name": "versionRecipient",
          "outputs": [
            {
              "internalType": "string",
              "name": "",
              "type": "string"
            }
          ],
          "stateMutability": "view",
          "type": "function"
        }
      ],
      "evm": {
        "bytecode": {
          "linkReferences": {},
          "object": "60c060405260056080819052640322e322e360dc1b60a09081526200002891600691906200007f565b503480156200003657600080fd5b506040516200366838038062003668833981016040819052620000599162000125565b600080546001600160a01b0319166001600160a01b039290921691909117905562000192565b8280546200008d9062000155565b90600052602060002090601f016020900481019282620000b15760008555620000fc565b82601f10620000cc57805160ff1916838001178555620000fc565b82800160010185558215620000fc579182015b82811115620000fc578251825591602001919060010190620000df565b506200010a9291506200010e565b5090565b5b808211156200010a57600081556001016200010f565b60006020828403121562000137578081fd5b81516001600160a01b03811681146200014e578182fd5b9392505050565b600181811c908216806200016a57607f821691505b602082108114156200018c57634e487b7160e01b600052602260045260246000fd5b50919050565b6134c680620001a26000396000f3fe608060405234801561001057600080fd5b50600436106101585760003560e01c80635be9d4b2116100c3578063b1bc8c8d1161007c578063b1bc8c8d146102f9578063baffd3da1461030c578063cded382f1461031f578063cfc5efac14610332578063ecb0a33d14610345578063fcaa705e1461035857600080fd5b80635be9d4b2146102875780635c5370961461029a5780635f36788e146102ad57806381ded150146102c057806383dfd03e146102d3578063a6a54ec5146102e657600080fd5b8063486ff0cd11610115578063486ff0cd146101f45780634ce72c75146101fc5780634eec58a31461020f5780634ff3ec601461022f578063572b6c05146102425780635bc25e771461027457600080fd5b80630716dfa01461015d57806311bc1ce01461017257806317289818146101855780632aa2fd64146101ae5780632d19fdfe146101c157806347566e4f146101d4575b600080fd5b61017061016b366004612e57565b61036b565b005b610170610180366004612d37565b61058c565b610198610193366004612ef2565b6106e8565b6040516101a591906130ae565b60405180910390f35b6101706101bc366004612c44565b6108c7565b6101706101cf366004612be4565b610a6b565b6101e76101e2366004612be4565b610bce565b6040516101a5919061315c565b6101e7610d38565b61019861020a366004612f87565b610dc6565b61022261021d366004613042565b610f6d565b6040516101a591906130fb565b61017061023d366004612db0565b611111565b610264610250366004612b45565b6000546001600160a01b0391821691161490565b60405190151581526020016101a5565b6101e7610282366004612b5f565b611369565b6101e7610295366004612be4565b6114a7565b6101706102a8366004612c44565b6115f2565b6101706102bb366004612cb4565b611778565b6101706102ce366004612b99565b6119f0565b6102226102e1366004612f87565b611b04565b6102226102f4366004612ff7565b611d2c565b610198610307366004612ef2565b611f36565b61017061031a366004612d37565b6120fc565b6101e761032d366004612d37565b612238565b610198610340366004612ff7565b6123aa565b610170610353366004612b99565b612519565b610170610366366004612d37565b612635565b6000468580519060200120604051602001610390929190918252602082015260400190565b60408051808303601f19018152828252805160209182012087518883012091840181905291830152915060009060600160408051808303601f1901815282825280516020918201208751888301209184018190529183015291506000906060016040516020818303038152906040528051906020012060001c905061042d61041661277a565b6000848152600360205260409020600101906127a0565b6104705760405162461bcd60e51b815260206004820152600f60248201526e32b93916b83937b516b6b2b6b132b960891b60448201526064015b60405180910390fd5b600081815260056020526040902080546104899061340e565b1590506104a85760405162461bcd60e51b8152600401610467906132be565b60008451116104c95760405162461bcd60e51b8152600401610467906132e8565b60008551116104ea5760405162461bcd60e51b815260040161046790613310565b60008181526005602090815260409091208551610509928701906129a9565b5060008281526003602090815260408220805460018101825590835291819020875161053c9391909101918801906129a9565b507f15fb1d214ed195f7210e450a416a0640362c37a0a2d2d0ab63481f967aae0e008787878761056a61277a565b60405161057b95949392919061322a565b60405180910390a150505050505050565b60004684805190602001206040516020016105b1929190918252602082015260400190565b60408051601f198184030181528282528051602091820120865187830120828501829052848401528251808503840181526060850184528051908301208651878401206080860182905260a0808701919091528451808703909101815260c090950184528451948301949094206000818152600590935292822080549195509061063a9061340e565b9050116106595760405162461bcd60e51b815260040161046790613338565b61067861066461277a565b6000838152600460205260409020906127c5565b5061069b61068461277a565b6000838152600460205260409020600201906127da565b507fa70c9d49a7ef09401d07a7aad126689c097b80db50504ce9ba5ca8b6f6477fb88686866106c861277a565b6040516106d894939291906131d7565b60405180910390a1505050505050565b6060600046878051906020012060405160200161070f929190918252602082015260400190565b60408051808303601f19018152828252805160209182012089518a83012091840181905291830152915060009060600160408051808303601f19018152828252805160209182012089518a83012091840181905291830152915060009060600160408051601f1981840301815291905280516020909101209050600061079586886133d8565b905060006107a387836133c0565b60008481526004602052604090209091506107c0906002016127ef565b8111156107e45760008381526004602052604090206107e1906002016127ef565b90505b60006107f083836133f7565b6001600160401b0381111561081557634e487b7160e01b600052604160045260246000fd5b60405190808252806020026020018201604052801561083e578160200160208202803683370190505b509050825b828110156108b757600085815260046020526040902061086690600201826127f9565b8261087186846133f7565b8151811061088f57634e487b7160e01b600052603260045260246000fd5b6001600160a01b03909216602092830291909101909101526108b081613449565b9050610843565b509b9a5050505050505050505050565b60004684805190602001206040516020016108ec929190918252602082015260400190565b60408051808303601f19018152828252805160209182012086518783012091840181905291830152915060009060600160408051601f198184030181529181528151602092830120600081815260059093529082208054919350906109509061340e565b90501161096f5760405162461bcd60e51b815260040161046790613292565b61099161097a61277a565b6000848152600260205260409020600101906127a0565b15156001146109b25760405162461bcd60e51b815260040161046790613367565b60008181526003602052604090206109cd90600101846127a0565b15610a0d5760405162461bcd60e51b815260206004820152601060248201526f195c9c8b5b595b58995c8b595e1a5cdd60821b6044820152606401610467565b6000818152600360205260409020610a2890600101846127c5565b507f8eb5dc57e01da32e2b98214d39ebdd82cd801d261855d5f84b868b5f140a2980858585604051610a5c93929190613199565b60405180910390a15050505050565b6000468380519060200120604051602001610a90929190918252602082015260400190565b6040516020818303038152906040528051906020012060001c9050610acd610ab661277a565b6000838152600260205260409020600101906127a0565b610ae95760405162461bcd60e51b815260040161046790613367565b60008181526005602052604081208054610b029061340e565b905011610b465760405162461bcd60e51b8152602060048201526012602482015271195c9c8b5d19585b4b5b9bdd0b595e1a5cdd60721b6044820152606401610467565b6000825111610b675760405162461bcd60e51b8152600401610467906132e8565b60008181526005602090815260409091208351610b86928501906129a9565b507f337efabade1b5802f3a562a44eb0b3222d30ad7717e865d76f4db7ecbea56e808383610bb261277a565b604051610bc193929190613199565b60405180910390a1505050565b60606000468480519060200120604051602001610bf5929190918252602082015260400190565b60408051808303601f19018152828252805160209182012086518783012091840181905291830152915060009060600160408051601f198184030181529181528151602092830120600081815260039093529120805491925090610c6b5760405162461bcd60e51b815260040161046790613292565b80548190610c7b906001906133f7565b81548110610c9957634e487b7160e01b600052603260045260246000fd5b906000526020600020018054610cae9061340e565b80601f0160208091040260200160405190810160405280929190818152602001828054610cda9061340e565b8015610d275780601f10610cfc57610100808354040283529160200191610d27565b820191906000526020600020905b815481529060010190602001808311610d0a57829003601f168201915b505050505093505050505b92915050565b60068054610d459061340e565b80601f0160208091040260200160405190810160405280929190818152602001828054610d719061340e565b8015610dbe5780601f10610d9357610100808354040283529160200191610dbe565b820191906000526020600020905b815481529060010190602001808311610da157829003601f168201915b505050505081565b60606000468680519060200120604051602001610ded929190918252602082015260400190565b60408051601f19818403018152828252805160209182012088518983012082850182905284840152825180850384018152606090940190925282519201919091209091506000610e3d85876133d8565b90506000610e4b86836133c0565b6000848152600360205260409020909150610e68906001016127ef565b811115610e8c576000838152600360205260409020610e89906001016127ef565b90505b6000610e9883836133f7565b6001600160401b03811115610ebd57634e487b7160e01b600052604160045260246000fd5b604051908082528060200260200182016040528015610ee6578160200160208202803683370190505b509050825b82811015610f5f576000858152600360205260409020610f0e90600101826127f9565b82610f1986846133f7565b81518110610f3757634e487b7160e01b600052603260045260246000fd5b6001600160a01b0390921660209283029190910190910152610f5881613449565b9050610eeb565b509998505050505050505050565b60606000610f7b83856133d8565b90506000610f8984836133c0565b600154909150811115610f9b57506001545b6000610fa783836133f7565b6001600160401b03811115610fcc57634e487b7160e01b600052604160045260246000fd5b604051908082528060200260200182016040528015610fff57816020015b6060815260200190600190039081610fea5790505b509050825b82811015611107576001818154811061102d57634e487b7160e01b600052603260045260246000fd5b9060005260206000200180546110429061340e565b80601f016020809104026020016040519081016040528092919081815260200182805461106e9061340e565b80156110bb5780601f10611090576101008083540402835291602001916110bb565b820191906000526020600020905b81548152906001019060200180831161109e57829003601f168201915b50505050508285836110cd91906133f7565b815181106110eb57634e487b7160e01b600052603260045260246000fd5b60200260200101819052508061110090613449565b9050611004565b5095945050505050565b6000468580519060200120604051602001611136929190918252602082015260400190565b60408051601f198184030181528282528051602091820120875188830120828501829052848401528251808503840181526060909401909252825192019190912090915061118561097a61277a565b6111a15760405162461bcd60e51b815260040161046790613367565b600081815260056020526040902080546111ba9061340e565b1590506111d95760405162461bcd60e51b8152600401610467906132be565b60008451116111fa5760405162461bcd60e51b8152600401610467906132e8565b600085511161121b5760405162461bcd60e51b815260040161046790613310565b6000818152600560209081526040909120855161123a928701906129a9565b5060008281526002602090815260408220805460018101825590835291819020875161126d9391909101918801906129a9565b5060005b835181101561133c576112c984828151811061129d57634e487b7160e01b600052603260045260246000fd5b6020026020010151600360008581526020019081526020016000206001016127c590919063ffffffff16565b507f3dc3ea765af75dfb15cf80f4a5eb2f3bf04d69261b652d222801b3d0b9fb09008685838151811061130c57634e487b7160e01b600052603260045260246000fd5b602002602001015160405161132292919061316f565b60405180910390a18061133481613449565b915050611271565b507f11f7f07de1d35c43b47edd8a19e7f8208259cdf66344de81856c5bb7c798db268686866106c861277a565b60606000468380519060200120604051602001611390929190918252602082015260400190565b60408051601f198184030181529181528151602092830120600081815260059093529082208054919350906113c49061340e565b9050116114085760405162461bcd60e51b8152602060048201526012602482015271195c9c8b5d19585b4b5b9bdd0b595e1a5cdd60721b6044820152606401610467565b600081815260056020526040902080546114219061340e565b80601f016020809104026020016040519081016040528092919081815260200182805461144d9061340e565b801561149a5780601f1061146f5761010080835404028352916020019161149a565b820191906000526020600020905b81548152906001019060200180831161147d57829003601f168201915b5050505050915050919050565b606060004684805190602001206040516020016114ce929190918252602082015260400190565b60408051808303601f19018152828252805160209182012086518783012091840181905291830152915060009060600160408051601f198184030181529181528151602092830120600081815260059093529082208054919350906115329061340e565b9050116115515760405162461bcd60e51b815260040161046790613292565b6000818152600560205260409020805461156a9061340e565b80601f01602080910402602001604051908101604052809291908181526020018280546115969061340e565b80156115e35780601f106115b8576101008083540402835291602001916115e3565b820191906000526020600020905b8154815290600101906020018083116115c657829003601f168201915b50505050509250505092915050565b6000468480519060200120604051602001611617929190918252602082015260400190565b60408051808303601f19018152828252805160209182012086518783012091840181905291830152915060009060600160408051601f1981840301815291815281516020928301206000818152600590935290822080549193509061167b9061340e565b90501161169a5760405162461bcd60e51b815260040161046790613292565b6116a561097a61277a565b15156001146116c65760405162461bcd60e51b815260040161046790613367565b60008181526003602052604090206116e190600101846127a0565b15156001146117295760405162461bcd60e51b8152602060048201526014602482015273195c9c8b5b595b58995c8b5b9bdd0b595e1a5cdd60621b6044820152606401610467565b600081815260036020526040902061174490600101846127da565b507f7bd4fdf0f1872366f33f1732f765696c1ec3ddccaa8c1f72095b58d8f411fa93858585604051610a5c93929190613199565b600046848051906020012060405160200161179d929190918252602082015260400190565b60408051601f1981840301815291815281516020928301206000818152600590935291208054919250906117d09061340e565b1590506117ef5760405162461bcd60e51b8152600401610467906132be565b60008351116118105760405162461bcd60e51b8152600401610467906132e8565b60008451116118315760405162461bcd60e51b815260040161046790613310565b60008251116118765760405162461bcd60e51b81526020600482015260116024820152706572722d656d7074792d6d656d6265727360781b6044820152606401610467565b60008181526005602090815260409091208451611895928601906129a9565b5060018054808201825560009190915284516118d8917fb10e2d527612073b26eecdfd717e6a320cf44b4afac2b0732d9fcbe2b7fa0cf6019060208701906129a9565b5060005b82518110156119a75761193483828151811061190857634e487b7160e01b600052603260045260246000fd5b6020026020010151600260008581526020019081526020016000206001016127c590919063ffffffff16565b507fb1ce9c84087af16e758e7041eec971f57c833f4127f64f742c5b0ee14e0537d28584838151811061197757634e487b7160e01b600052603260045260246000fd5b602002602001015160405161198d92919061316f565b60405180910390a18061199f81613449565b9150506118dc565b507f234eb9d37ed58b55e52e99246bb2b0cebb55311292e5d3de44a6df95a9af250184846119d361277a565b6040516119e293929190613199565b60405180910390a150505050565b6000468380519060200120604051602001611a15929190918252602082015260400190565b6040516020818303038152906040528051906020012060001c9050611a3b610ab661277a565b1515600114611a5c5760405162461bcd60e51b815260040161046790613367565b6000818152600260205260409020611a7790600101836127a0565b15611ab75760405162461bcd60e51b815260206004820152601060248201526f195c9c8b5b595b58995c8b595e1a5cdd60821b6044820152606401610467565b6000818152600260205260409020611ad290600101836127c5565b507fb1ce9c84087af16e758e7041eec971f57c833f4127f64f742c5b0ee14e0537d28383604051610bc192919061316f565b60606000468680519060200120604051602001611b2b929190918252602082015260400190565b60408051601f19818403018152828252805160209182012088518983012082850182905284840152825180850384018152606090940190925282519201919091209091506000611b7b85876133d8565b90506000611b8986836133c0565b600084815260036020526040902054909150811115611bb357506000828152600360205260409020545b6000611bbf83836133f7565b6001600160401b03811115611be457634e487b7160e01b600052604160045260246000fd5b604051908082528060200260200182016040528015611c1757816020015b6060815260200190600190039081611c025790505b509050825b82811015610f5f576000858152600360205260409020805482908110611c5257634e487b7160e01b600052603260045260246000fd5b906000526020600020018054611c679061340e565b80601f0160208091040260200160405190810160405280929190818152602001828054611c939061340e565b8015611ce05780601f10611cb557610100808354040283529160200191611ce0565b820191906000526020600020905b815481529060010190602001808311611cc357829003601f168201915b5050505050828583611cf291906133f7565b81518110611d1057634e487b7160e01b600052603260045260246000fd5b602002602001018190525080611d2590613449565b9050611c1c565b60606000468580519060200120604051602001611d53929190918252602082015260400190565b60408051601f19818403018152919052805160209091012090506000611d7984866133d8565b90506000611d8785836133c0565b600084815260026020526040902054909150811115611db157506000828152600260205260409020545b6000611dbd83836133f7565b6001600160401b03811115611de257634e487b7160e01b600052604160045260246000fd5b604051908082528060200260200182016040528015611e1557816020015b6060815260200190600190039081611e005790505b509050825b82811015611f2a576000858152600260205260409020805482908110611e5057634e487b7160e01b600052603260045260246000fd5b906000526020600020018054611e659061340e565b80601f0160208091040260200160405190810160405280929190818152602001828054611e919061340e565b8015611ede5780601f10611eb357610100808354040283529160200191611ede565b820191906000526020600020905b815481529060010190602001808311611ec157829003601f168201915b5050505050828583611ef091906133f7565b81518110611f0e57634e487b7160e01b600052603260045260246000fd5b602002602001018190525080611f2390613449565b9050611e1a565b50979650505050505050565b60606000468780519060200120604051602001611f5d929190918252602082015260400190565b60408051808303601f19018152828252805160209182012089518a83012091840181905291830152915060009060600160408051808303601f19018152828252805160209182012089518a83012091840181905291830152915060009060600160408051601f19818403018152919052805160209091012090506000611fe386886133d8565b90506000611ff187836133c0565b600084815260046020526040902090915061200b906127ef565b81111561202c576000838152600460205260409020612029906127ef565b90505b600061203883836133f7565b6001600160401b0381111561205d57634e487b7160e01b600052604160045260246000fd5b604051908082528060200260200182016040528015612086578160200160208202803683370190505b509050825b828110156108b75760008581526004602052604090206120ab90826127f9565b826120b686846133f7565b815181106120d457634e487b7160e01b600052603260045260246000fd5b6001600160a01b03909216602092830291909101909101526120f581613449565b905061208b565b6000468480519060200120604051602001612121929190918252602082015260400190565b60408051601f198184030181528282528051602091820120865187830120828501829052848401528251808503840181526060850184528051908301208651878401206080860182905260a0808701919091528451808703909101815260c09095018452845194830194909420600081815260059093529282208054919550906121aa9061340e565b9050116121c95760405162461bcd60e51b815260040161046790613338565b6121eb6121d461277a565b6000838152600460205260409020600201906127c5565b5061220b6121f761277a565b6000838152600460205260409020906127da565b507f30ca79684c561b1b6fbda88d9779021eb510471ea1df05c10dc39c46d6ed94eb8686866106c861277a565b6060600046858051906020012060405160200161225f929190918252602082015260400190565b60408051601f198184030181528282528051602091820120875188830120828501829052848401528251808503840181526060850184528051908301208751888401206080860182905260a0808701919091528451808703909101815260c09095018452845194830194909420600081815260059093529282208054919550906122e89061340e565b9050116123075760405162461bcd60e51b815260040161046790613338565b600081815260056020526040902080546123209061340e565b80601f016020809104026020016040519081016040528092919081815260200182805461234c9061340e565b80156123995780601f1061236e57610100808354040283529160200191612399565b820191906000526020600020905b81548152906001019060200180831161237c57829003601f168201915b505050505093505050509392505050565b606060004685805190602001206040516020016123d1929190918252602082015260400190565b60408051601f198184030181529190528051602090910120905060006123f784866133d8565b9050600061240585836133c0565b6000848152600260205260409020909150612422906001016127ef565b811115612446576000838152600260205260409020612443906001016127ef565b90505b600061245283836133f7565b6001600160401b0381111561247757634e487b7160e01b600052604160045260246000fd5b6040519080825280602002602001820160405280156124a0578160200160208202803683370190505b509050825b82811015611f2a5760008581526002602052604090206124c890600101826127f9565b826124d386846133f7565b815181106124f157634e487b7160e01b600052603260045260246000fd5b6001600160a01b039092166020928302919091019091015261251281613449565b90506124a5565b600046838051906020012060405160200161253e929190918252602082015260400190565b6040516020818303038152906040528051906020012060001c9050612564610ab661277a565b15156001146125855760405162461bcd60e51b815260040161046790613367565b60008181526002602052604090206125a090600101836127a0565b15156001146125e85760405162461bcd60e51b8152602060048201526014602482015273195c9c8b5b595b58995c8b5b9bdd0b595e1a5cdd60621b6044820152606401610467565b600081815260026020526040902061260390600101836127da565b507fbd84f6be96016aa1d03fd0c0ce516da6b2e352520bddd280c744c6c79a3785128383604051610bc192919061316f565b600046848051906020012060405160200161265a929190918252602082015260400190565b60408051601f19818403018152828252805160209182012086518783012082850182905284840152825180850384018152606090940190925282519201919091209091506126a961097a61277a565b6126c55760405162461bcd60e51b815260040161046790613367565b600081815260056020526040812080546126de9061340e565b9050116126fd5760405162461bcd60e51b815260040161046790613292565b600083511161271e5760405162461bcd60e51b8152600401610467906132e8565b6000818152600560209081526040909120845161273d928601906129a9565b507fd837747757bf732c911148d7c5825d52de171f849e76143eec98fa514e263c8a85858561276a61277a565b604051610a5c94939291906131d7565b600080546001600160a01b031633141561279b575060131936013560601c90565b503390565b6001600160a01b038116600090815260018301602052604081205415155b9392505050565b60006127be836001600160a01b038416612805565b60006127be836001600160a01b038416612854565b6000610d32825490565b60006127be8383612971565b600081815260018301602052604081205461284c57508154600181810184556000848152602080822090930184905584548482528286019093526040902091909155610d32565b506000610d32565b600081815260018301602052604081205480156129675760006128786001836133f7565b855490915060009061288c906001906133f7565b905081811461290d5760008660000182815481106128ba57634e487b7160e01b600052603260045260246000fd5b90600052602060002001549050808760000184815481106128eb57634e487b7160e01b600052603260045260246000fd5b6000918252602080832090910192909255918252600188019052604090208390555b855486908061292c57634e487b7160e01b600052603160045260246000fd5b600190038181906000526020600020016000905590558560010160008681526020019081526020016000206000905560019350505050610d32565b6000915050610d32565b600082600001828154811061299657634e487b7160e01b600052603260045260246000fd5b9060005260206000200154905092915050565b8280546129b59061340e565b90600052602060002090601f0160209004810192826129d75760008555612a1d565b82601f106129f057805160ff1916838001178555612a1d565b82800160010185558215612a1d579182015b82811115612a1d578251825591602001919060010190612a02565b50612a29929150612a2d565b5090565b5b80821115612a295760008155600101612a2e565b80356001600160a01b0381168114612a5957600080fd5b919050565b600082601f830112612a6e578081fd5b813560206001600160401b03821115612a8957612a8961347a565b8160051b612a98828201613390565b838152828101908684018388018501891015612ab2578687fd5b8693505b85841015611f2a57612ac781612a42565b835260019390930192918401918401612ab6565b600082601f830112612aeb578081fd5b81356001600160401b03811115612b0457612b0461347a565b612b17601f8201601f1916602001613390565b818152846020838601011115612b2b578283fd5b816020850160208301379081016020019190915292915050565b600060208284031215612b56578081fd5b6127be82612a42565b600060208284031215612b70578081fd5b81356001600160401b03811115612b85578182fd5b612b9184828501612adb565b949350505050565b60008060408385031215612bab578081fd5b82356001600160401b03811115612bc0578182fd5b612bcc85828601612adb565b925050612bdb60208401612a42565b90509250929050565b60008060408385031215612bf6578182fd5b82356001600160401b0380821115612c0c578384fd5b612c1886838701612adb565b93506020850135915080821115612c2d578283fd5b50612c3a85828601612adb565b9150509250929050565b600080600060608486031215612c58578081fd5b83356001600160401b0380821115612c6e578283fd5b612c7a87838801612adb565b94506020860135915080821115612c8f578283fd5b50612c9c86828701612adb565b925050612cab60408501612a42565b90509250925092565b600080600060608486031215612cc8578283fd5b83356001600160401b0380821115612cde578485fd5b612cea87838801612adb565b94506020860135915080821115612cff578384fd5b612d0b87838801612adb565b93506040860135915080821115612d20578283fd5b50612d2d86828701612a5e565b9150509250925092565b600080600060608486031215612d4b578283fd5b83356001600160401b0380821115612d61578485fd5b612d6d87838801612adb565b94506020860135915080821115612d82578384fd5b612d8e87838801612adb565b93506040860135915080821115612da3578283fd5b50612d2d86828701612adb565b60008060008060808587031215612dc5578081fd5b84356001600160401b0380821115612ddb578283fd5b612de788838901612adb565b95506020870135915080821115612dfc578283fd5b612e0888838901612adb565b94506040870135915080821115612e1d578283fd5b612e2988838901612adb565b93506060870135915080821115612e3e578283fd5b50612e4b87828801612a5e565b91505092959194509250565b60008060008060808587031215612e6c578384fd5b84356001600160401b0380821115612e82578586fd5b612e8e88838901612adb565b95506020870135915080821115612ea3578485fd5b612eaf88838901612adb565b94506040870135915080821115612ec4578384fd5b612ed088838901612adb565b93506060870135915080821115612ee5578283fd5b50612e4b87828801612adb565b600080600080600060a08688031215612f09578081fd5b85356001600160401b0380821115612f1f578283fd5b612f2b89838a01612adb565b96506020880135915080821115612f40578283fd5b612f4c89838a01612adb565b95506040880135915080821115612f61578283fd5b50612f6e88828901612adb565b9598949750949560608101359550608001359392505050565b60008060008060808587031215612f9c578384fd5b84356001600160401b0380821115612fb2578586fd5b612fbe88838901612adb565b95506020870135915080821115612fd3578485fd5b50612fe087828801612adb565b949794965050505060408301359260600135919050565b60008060006060848603121561300b578081fd5b83356001600160401b03811115613020578182fd5b61302c86828701612adb565b9660208601359650604090950135949350505050565b60008060408385031215613054578182fd5b50508035926020909101359150565b60008151808452815b818110156130885760208185018101518683018201520161306c565b818111156130995782602083870101525b50601f01601f19169290920160200192915050565b6020808252825182820181905260009190848201906040850190845b818110156130ef5783516001600160a01b0316835292840192918401916001016130ca565b50909695505050505050565b6000602080830181845280855180835260408601915060408160051b8701019250838701855b8281101561314f57603f1988860301845261313d858351613063565b94509285019290850190600101613121565b5092979650505050505050565b6020815260006127be6020830184613063565b6040815260006131826040830185613063565b905060018060a01b03831660208301529392505050565b6060815260006131ac6060830186613063565b82810360208401526131be8186613063565b91505060018060a01b0383166040830152949350505050565b6080815260006131ea6080830187613063565b82810360208401526131fc8187613063565b905082810360408401526132108186613063565b91505060018060a01b038316606083015295945050505050565b60a08152600061323d60a0830188613063565b828103602084015261324f8188613063565b905082810360408401526132638187613063565b905082810360608401526132778186613063565b91505060018060a01b03831660808301529695505050505050565b602080825260129082015271195c9c8b5c1c9bda8b5b9bdd0b595e1a5cdd60721b604082015260600190565b60208082526010908201526f195c9c8b5b985b594b58db185a5b595960821b604082015260600190565b6020808252600e908201526d6572722d656d7074792d6d65746160901b604082015260600190565b6020808252600e908201526d6572722d656d7074792d6e616d6560901b604082015260600190565b602080825260159082015274195c9c8b5c995b19585cd94b5b9bdd0b595e1a5cdd605a1b604082015260600190565b6020808252600f908201526e32b93916ba32b0b696b6b2b6b132b960891b604082015260600190565b604051601f8201601f191681016001600160401b03811182821017156133b8576133b861347a565b604052919050565b600082198211156133d3576133d3613464565b500190565b60008160001904831182151516156133f2576133f2613464565b500290565b60008282101561340957613409613464565b500390565b600181811c9082168061342257607f821691505b6020821081141561344357634e487b7160e01b600052602260045260246000fd5b50919050565b600060001982141561345d5761345d613464565b5060010190565b634e487b7160e01b600052601160045260246000fd5b634e487b7160e01b600052604160045260246000fdfea26469706673582212200f1dd23b3e6e77554510324c01c51f8b00cf2c4bfb537be4c3ebdc6330a34ca164736f6c63430008040033",
          "opcodes": "PUSH1 0xC0 PUSH1 0x40 MSTORE PUSH1 0x5 PUSH1 0x80 DUP2 SWAP1 MSTORE PUSH5 0x322E322E3 PUSH1 0xDC SHL PUSH1 0xA0 SWAP1 DUP2 MSTORE PUSH3 0x28 SWAP2 PUSH1 0x6 SWAP2 SWAP1 PUSH3 0x7F JUMP JUMPDEST POP CALLVALUE DUP1 ISZERO PUSH3 0x36 JUMPI PUSH1 0x0 DUP1 REVERT JUMPDEST POP PUSH1 0x40 MLOAD PUSH3 0x3668 CODESIZE SUB DUP1 PUSH3 0x3668 DUP4 CODECOPY DUP2 ADD PUSH1 0x40 DUP2 SWAP1 MSTORE PUSH3 0x59 SWAP2 PUSH3 0x125 JUMP JUMPDEST PUSH1 0x0 DUP1 SLOAD PUSH1 0x1 PUSH1 0x1 PUSH1 0xA0 SHL SUB NOT AND PUSH1 0x1 PUSH1 0x1 PUSH1 0xA0 SHL SUB SWAP3 SWAP1 SWAP3 AND SWAP2 SWAP1 SWAP2 OR SWAP1 SSTORE PUSH3 0x192 JUMP JUMPDEST DUP3 DUP1 SLOAD PUSH3 0x8D SWAP1 PUSH3 0x155 JUMP JUMPDEST SWAP1 PUSH1 0x0 MSTORE PUSH1 0x20 PUSH1 0x0 KECCAK256 SWAP1 PUSH1 0x1F ADD PUSH1 0x20 SWAP1 DIV DUP2 ADD SWAP3 DUP3 PUSH3 0xB1 JUMPI PUSH1 0x0 DUP6 SSTORE PUSH3 0xFC JUMP JUMPDEST DUP3 PUSH1 0x1F LT PUSH3 0xCC JUMPI DUP1 MLOAD PUSH1 0xFF NOT AND DUP4 DUP1 ADD OR DUP6 SSTORE PUSH3 0xFC JUMP JUMPDEST DUP3 DUP1 ADD PUSH1 0x1 ADD DUP6 SSTORE DUP3 ISZERO PUSH3 0xFC JUMPI SWAP2 DUP3 ADD JUMPDEST DUP3 DUP2 GT ISZERO PUSH3 0xFC JUMPI DUP3 MLOAD DUP3 SSTORE SWAP2 PUSH1 0x20 ADD SWAP2 SWAP1 PUSH1 0x1 ADD SWAP1 PUSH3 0xDF JUMP JUMPDEST POP PUSH3 0x10A SWAP3 SWAP2 POP PUSH3 0x10E JUMP JUMPDEST POP SWAP1 JUMP JUMPDEST JUMPDEST DUP1 DUP3 GT ISZERO PUSH3 0x10A JUMPI PUSH1 0x0 DUP2 SSTORE PUSH1 0x1 ADD PUSH3 0x10F JUMP JUMPDEST PUSH1 0x0 PUSH1 0x20 DUP3 DUP5 SUB SLT ISZERO PUSH3 0x137 JUMPI DUP1 DUP2 REVERT JUMPDEST DUP2 MLOAD PUSH1 0x1 PUSH1 0x1 PUSH1 0xA0 SHL SUB DUP2 AND DUP2 EQ PUSH3 0x14E JUMPI DUP2 DUP3 REVERT JUMPDEST SWAP4 SWAP3 POP POP POP JUMP JUMPDEST PUSH1 0x1 DUP2 DUP2 SHR SWAP1 DUP3 AND DUP1 PUSH3 0x16A JUMPI PUSH1 0x7F DUP3 AND SWAP2 POP JUMPDEST PUSH1 0x20 DUP3 LT DUP2 EQ ISZERO PUSH3 0x18C JUMPI PUSH4 0x4E487B71 PUSH1 0xE0 SHL PUSH1 0x0 MSTORE PUSH1 0x22 PUSH1 0x4 MSTORE PUSH1 0x24 PUSH1 0x0 REVERT JUMPDEST POP SWAP2 SWAP1 POP JUMP JUMPDEST PUSH2 0x34C6 DUP1 PUSH3 0x1A2 PUSH1 0x0 CODECOPY PUSH1 0x0 RETURN INVALID PUSH1 0x80 PUSH1 0x40 MSTORE CALLVALUE DUP1 ISZERO PUSH2 0x10 JUMPI PUSH1 0x0 DUP1 REVERT JUMPDEST POP PUSH1 0x4 CALLDATASIZE LT PUSH2 0x158 JUMPI PUSH1 0x0 CALLDATALOAD PUSH1 0xE0 SHR DUP1 PUSH4 0x5BE9D4B2 GT PUSH2 0xC3 JUMPI DUP1 PUSH4 0xB1BC8C8D GT PUSH2 0x7C JUMPI DUP1 PUSH4 0xB1BC8C8D EQ PUSH2 0x2F9 JUMPI DUP1 PUSH4 0xBAFFD3DA EQ PUSH2 0x30C JUMPI DUP1 PUSH4 0xCDED382F EQ PUSH2 0x31F JUMPI DUP1 PUSH4 0xCFC5EFAC EQ PUSH2 0x332 JUMPI DUP1 PUSH4 0xECB0A33D EQ PUSH2 0x345 JUMPI DUP1 PUSH4 0xFCAA705E EQ PUSH2 0x358 JUMPI PUSH1 0x0 DUP1 REVERT JUMPDEST DUP1 PUSH4 0x5BE9D4B2 EQ PUSH2 0x287 JUMPI DUP1 PUSH4 0x5C537096 EQ PUSH2 0x29A JUMPI DUP1 PUSH4 0x5F36788E EQ PUSH2 0x2AD JUMPI DUP1 PUSH4 0x81DED150 EQ PUSH2 0x2C0 JUMPI DUP1 PUSH4 0x83DFD03E EQ PUSH2 0x2D3 JUMPI DUP1 PUSH4 0xA6A54EC5 EQ PUSH2 0x2E6 JUMPI PUSH1 0x0 DUP1 REVERT JUMPDEST DUP1 PUSH4 0x486FF0CD GT PUSH2 0x115 JUMPI DUP1 PUSH4 0x486FF0CD EQ PUSH2 0x1F4 JUMPI DUP1 PUSH4 0x4CE72C75 EQ PUSH2 0x1FC JUMPI DUP1 PUSH4 0x4EEC58A3 EQ PUSH2 0x20F JUMPI DUP1 PUSH4 0x4FF3EC60 EQ PUSH2 0x22F JUMPI DUP1 PUSH4 0x572B6C05 EQ PUSH2 0x242 JUMPI DUP1 PUSH4 0x5BC25E77 EQ PUSH2 0x274 JUMPI PUSH1 0x0 DUP1 REVERT JUMPDEST DUP1 PUSH4 0x716DFA0 EQ PUSH2 0x15D JUMPI DUP1 PUSH4 0x11BC1CE0 EQ PUSH2 0x172 JUMPI DUP1 PUSH4 0x17289818 EQ PUSH2 0x185 JUMPI DUP1 PUSH4 0x2AA2FD64 EQ PUSH2 0x1AE JUMPI DUP1 PUSH4 0x2D19FDFE EQ PUSH2 0x1C1 JUMPI DUP1 PUSH4 0x47566E4F EQ PUSH2 0x1D4 JUMPI JUMPDEST PUSH1 0x0 DUP1 REVERT JUMPDEST PUSH2 0x170 PUSH2 0x16B CALLDATASIZE PUSH1 0x4 PUSH2 0x2E57 JUMP JUMPDEST PUSH2 0x36B JUMP JUMPDEST STOP JUMPDEST PUSH2 0x170 PUSH2 0x180 CALLDATASIZE PUSH1 0x4 PUSH2 0x2D37 JUMP JUMPDEST PUSH2 0x58C JUMP JUMPDEST PUSH2 0x198 PUSH2 0x193 CALLDATASIZE PUSH1 0x4 PUSH2 0x2EF2 JUMP JUMPDEST PUSH2 0x6E8 JUMP JUMPDEST PUSH1 0x40 MLOAD PUSH2 0x1A5 SWAP2 SWAP1 PUSH2 0x30AE JUMP JUMPDEST PUSH1 0x40 MLOAD DUP1 SWAP2 SUB SWAP1 RETURN JUMPDEST PUSH2 0x170 PUSH2 0x1BC CALLDATASIZE PUSH1 0x4 PUSH2 0x2C44 JUMP JUMPDEST PUSH2 0x8C7 JUMP JUMPDEST PUSH2 0x170 PUSH2 0x1CF CALLDATASIZE PUSH1 0x4 PUSH2 0x2BE4 JUMP JUMPDEST PUSH2 0xA6B JUMP JUMPDEST PUSH2 0x1E7 PUSH2 0x1E2 CALLDATASIZE PUSH1 0x4 PUSH2 0x2BE4 JUMP JUMPDEST PUSH2 0xBCE JUMP JUMPDEST PUSH1 0x40 MLOAD PUSH2 0x1A5 SWAP2 SWAP1 PUSH2 0x315C JUMP JUMPDEST PUSH2 0x1E7 PUSH2 0xD38 JUMP JUMPDEST PUSH2 0x198 PUSH2 0x20A CALLDATASIZE PUSH1 0x4 PUSH2 0x2F87 JUMP JUMPDEST PUSH2 0xDC6 JUMP JUMPDEST PUSH2 0x222 PUSH2 0x21D CALLDATASIZE PUSH1 0x4 PUSH2 0x3042 JUMP JUMPDEST PUSH2 0xF6D JUMP JUMPDEST PUSH1 0x40 MLOAD PUSH2 0x1A5 SWAP2 SWAP1 PUSH2 0x30FB JUMP JUMPDEST PUSH2 0x170 PUSH2 0x23D CALLDATASIZE PUSH1 0x4 PUSH2 0x2DB0 JUMP JUMPDEST PUSH2 0x1111 JUMP JUMPDEST PUSH2 0x264 PUSH2 0x250 CALLDATASIZE PUSH1 0x4 PUSH2 0x2B45 JUMP JUMPDEST PUSH1 0x0 SLOAD PUSH1 0x1 PUSH1 0x1 PUSH1 0xA0 SHL SUB SWAP2 DUP3 AND SWAP2 AND EQ SWAP1 JUMP JUMPDEST PUSH1 0x40 MLOAD SWAP1 ISZERO ISZERO DUP2 MSTORE PUSH1 0x20 ADD PUSH2 0x1A5 JUMP JUMPDEST PUSH2 0x1E7 PUSH2 0x282 CALLDATASIZE PUSH1 0x4 PUSH2 0x2B5F JUMP JUMPDEST PUSH2 0x1369 JUMP JUMPDEST PUSH2 0x1E7 PUSH2 0x295 CALLDATASIZE PUSH1 0x4 PUSH2 0x2BE4 JUMP JUMPDEST PUSH2 0x14A7 JUMP JUMPDEST PUSH2 0x170 PUSH2 0x2A8 CALLDATASIZE PUSH1 0x4 PUSH2 0x2C44 JUMP JUMPDEST PUSH2 0x15F2 JUMP JUMPDEST PUSH2 0x170 PUSH2 0x2BB CALLDATASIZE PUSH1 0x4 PUSH2 0x2CB4 JUMP JUMPDEST PUSH2 0x1778 JUMP JUMPDEST PUSH2 0x170 PUSH2 0x2CE CALLDATASIZE PUSH1 0x4 PUSH2 0x2B99 JUMP JUMPDEST PUSH2 0x19F0 JUMP JUMPDEST PUSH2 0x222 PUSH2 0x2E1 CALLDATASIZE PUSH1 0x4 PUSH2 0x2F87 JUMP JUMPDEST PUSH2 0x1B04 JUMP JUMPDEST PUSH2 0x222 PUSH2 0x2F4 CALLDATASIZE PUSH1 0x4 PUSH2 0x2FF7 JUMP JUMPDEST PUSH2 0x1D2C JUMP JUMPDEST PUSH2 0x198 PUSH2 0x307 CALLDATASIZE PUSH1 0x4 PUSH2 0x2EF2 JUMP JUMPDEST PUSH2 0x1F36 JUMP JUMPDEST PUSH2 0x170 PUSH2 0x31A CALLDATASIZE PUSH1 0x4 PUSH2 0x2D37 JUMP JUMPDEST PUSH2 0x20FC JUMP JUMPDEST PUSH2 0x1E7 PUSH2 0x32D CALLDATASIZE PUSH1 0x4 PUSH2 0x2D37 JUMP JUMPDEST PUSH2 0x2238 JUMP JUMPDEST PUSH2 0x198 PUSH2 0x340 CALLDATASIZE PUSH1 0x4 PUSH2 0x2FF7 JUMP JUMPDEST PUSH2 0x23AA JUMP JUMPDEST PUSH2 0x170 PUSH2 0x353 CALLDATASIZE PUSH1 0x4 PUSH2 0x2B99 JUMP JUMPDEST PUSH2 0x2519 JUMP JUMPDEST PUSH2 0x170 PUSH2 0x366 CALLDATASIZE PUSH1 0x4 PUSH2 0x2D37 JUMP JUMPDEST PUSH2 0x2635 JUMP JUMPDEST PUSH1 0x0 CHAINID DUP6 DUP1 MLOAD SWAP1 PUSH1 0x20 ADD KECCAK256 PUSH1 0x40 MLOAD PUSH1 0x20 ADD PUSH2 0x390 SWAP3 SWAP2 SWAP1 SWAP2 DUP3 MSTORE PUSH1 0x20 DUP3 ADD MSTORE PUSH1 0x40 ADD SWAP1 JUMP JUMPDEST PUSH1 0x40 DUP1 MLOAD DUP1 DUP4 SUB PUSH1 0x1F NOT ADD DUP2 MSTORE DUP3 DUP3 MSTORE DUP1 MLOAD PUSH1 0x20 SWAP2 DUP3 ADD KECCAK256 DUP8 MLOAD DUP9 DUP4 ADD KECCAK256 SWAP2 DUP5 ADD DUP2 SWAP1 MSTORE SWAP2 DUP4 ADD MSTORE SWAP2 POP PUSH1 0x0 SWAP1 PUSH1 0x60 ADD PUSH1 0x40 DUP1 MLOAD DUP1 DUP4 SUB PUSH1 0x1F NOT ADD DUP2 MSTORE DUP3 DUP3 MSTORE DUP1 MLOAD PUSH1 0x20 SWAP2 DUP3 ADD KECCAK256 DUP8 MLOAD DUP9 DUP4 ADD KECCAK256 SWAP2 DUP5 ADD DUP2 SWAP1 MSTORE SWAP2 DUP4 ADD MSTORE SWAP2 POP PUSH1 0x0 SWAP1 PUSH1 0x60 ADD PUSH1 0x40 MLOAD PUSH1 0x20 DUP2 DUP4 SUB SUB DUP2 MSTORE SWAP1 PUSH1 0x40 MSTORE DUP1 MLOAD SWAP1 PUSH1 0x20 ADD KECCAK256 PUSH1 0x0 SHR SWAP1 POP PUSH2 0x42D PUSH2 0x416 PUSH2 0x277A JUMP JUMPDEST PUSH1 0x0 DUP5 DUP2 MSTORE PUSH1 0x3 PUSH1 0x20 MSTORE PUSH1 0x40 SWAP1 KECCAK256 PUSH1 0x1 ADD SWAP1 PUSH2 0x27A0 JUMP JUMPDEST PUSH2 0x470 JUMPI PUSH1 0x40 MLOAD PUSH3 0x461BCD PUSH1 0xE5 SHL DUP2 MSTORE PUSH1 0x20 PUSH1 0x4 DUP3 ADD MSTORE PUSH1 0xF PUSH1 0x24 DUP3 ADD MSTORE PUSH15 0x32B93916B83937B516B6B2B6B132B9 PUSH1 0x89 SHL PUSH1 0x44 DUP3 ADD MSTORE PUSH1 0x64 ADD JUMPDEST PUSH1 0x40 MLOAD DUP1 SWAP2 SUB SWAP1 REVERT JUMPDEST PUSH1 0x0 DUP2 DUP2 MSTORE PUSH1 0x5 PUSH1 0x20 MSTORE PUSH1 0x40 SWAP1 KECCAK256 DUP1 SLOAD PUSH2 0x489 SWAP1 PUSH2 0x340E JUMP JUMPDEST ISZERO SWAP1 POP PUSH2 0x4A8 JUMPI PUSH1 0x40 MLOAD PUSH3 0x461BCD PUSH1 0xE5 SHL DUP2 MSTORE PUSH1 0x4 ADD PUSH2 0x467 SWAP1 PUSH2 0x32BE JUMP JUMPDEST PUSH1 0x0 DUP5 MLOAD GT PUSH2 0x4C9 JUMPI PUSH1 0x40 MLOAD PUSH3 0x461BCD PUSH1 0xE5 SHL DUP2 MSTORE PUSH1 0x4 ADD PUSH2 0x467 SWAP1 PUSH2 0x32E8 JUMP JUMPDEST PUSH1 0x0 DUP6 MLOAD GT PUSH2 0x4EA JUMPI PUSH1 0x40 MLOAD PUSH3 0x461BCD PUSH1 0xE5 SHL DUP2 MSTORE PUSH1 0x4 ADD PUSH2 0x467 SWAP1 PUSH2 0x3310 JUMP JUMPDEST PUSH1 0x0 DUP2 DUP2 MSTORE PUSH1 0x5 PUSH1 0x20 SWAP1 DUP2 MSTORE PUSH1 0x40 SWAP1 SWAP2 KECCAK256 DUP6 MLOAD PUSH2 0x509 SWAP3 DUP8 ADD SWAP1 PUSH2 0x29A9 JUMP JUMPDEST POP PUSH1 0x0 DUP3 DUP2 MSTORE PUSH1 0x3 PUSH1 0x20 SWAP1 DUP2 MSTORE PUSH1 0x40 DUP3 KECCAK256 DUP1 SLOAD PUSH1 0x1 DUP2 ADD DUP3 SSTORE SWAP1 DUP4 MSTORE SWAP2 DUP2 SWAP1 KECCAK256 DUP8 MLOAD PUSH2 0x53C SWAP4 SWAP2 SWAP1 SWAP2 ADD SWAP2 DUP9 ADD SWAP1 PUSH2 0x29A9 JUMP JUMPDEST POP PUSH32 0x15FB1D214ED195F7210E450A416A0640362C37A0A2D2D0AB63481F967AAE0E00 DUP8 DUP8 DUP8 DUP8 PUSH2 0x56A PUSH2 0x277A JUMP JUMPDEST PUSH1 0x40 MLOAD PUSH2 0x57B SWAP6 SWAP5 SWAP4 SWAP3 SWAP2 SWAP1 PUSH2 0x322A JUMP JUMPDEST PUSH1 0x40 MLOAD DUP1 SWAP2 SUB SWAP1 LOG1 POP POP POP POP POP POP POP JUMP JUMPDEST PUSH1 0x0 CHAINID DUP5 DUP1 MLOAD SWAP1 PUSH1 0x20 ADD KECCAK256 PUSH1 0x40 MLOAD PUSH1 0x20 ADD PUSH2 0x5B1 SWAP3 SWAP2 SWAP1 SWAP2 DUP3 MSTORE PUSH1 0x20 DUP3 ADD MSTORE PUSH1 0x40 ADD SWAP1 JUMP JUMPDEST PUSH1 0x40 DUP1 MLOAD PUSH1 0x1F NOT DUP2 DUP5 SUB ADD DUP2 MSTORE DUP3 DUP3 MSTORE DUP1 MLOAD PUSH1 0x20 SWAP2 DUP3 ADD KECCAK256 DUP7 MLOAD DUP8 DUP4 ADD KECCAK256 DUP3 DUP6 ADD DUP3 SWAP1 MSTORE DUP5 DUP5 ADD MSTORE DUP3 MLOAD DUP1 DUP6 SUB DUP5 ADD DUP2 MSTORE PUSH1 0x60 DUP6 ADD DUP5 MSTORE DUP1 MLOAD SWAP1 DUP4 ADD KECCAK256 DUP7 MLOAD DUP8 DUP5 ADD KECCAK256 PUSH1 0x80 DUP7 ADD DUP3 SWAP1 MSTORE PUSH1 0xA0 DUP1 DUP8 ADD SWAP2 SWAP1 SWAP2 MSTORE DUP5 MLOAD DUP1 DUP8 SUB SWAP1 SWAP2 ADD DUP2 MSTORE PUSH1 0xC0 SWAP1 SWAP6 ADD DUP5 MSTORE DUP5 MLOAD SWAP5 DUP4 ADD SWAP5 SWAP1 SWAP5 KECCAK256 PUSH1 0x0 DUP2 DUP2 MSTORE PUSH1 0x5 SWAP1 SWAP4 MSTORE SWAP3 DUP3 KECCAK256 DUP1 SLOAD SWAP2 SWAP6 POP SWAP1 PUSH2 0x63A SWAP1 PUSH2 0x340E JUMP JUMPDEST SWAP1 POP GT PUSH2 0x659 JUMPI PUSH1 0x40 MLOAD PUSH3 0x461BCD PUSH1 0xE5 SHL DUP2 MSTORE PUSH1 0x4 ADD PUSH2 0x467 SWAP1 PUSH2 0x3338 JUMP JUMPDEST PUSH2 0x678 PUSH2 0x664 PUSH2 0x277A JUMP JUMPDEST PUSH1 0x0 DUP4 DUP2 MSTORE PUSH1 0x4 PUSH1 0x20 MSTORE PUSH1 0x40 SWAP1 KECCAK256 SWAP1 PUSH2 0x27C5 JUMP JUMPDEST POP PUSH2 0x69B PUSH2 0x684 PUSH2 0x277A JUMP JUMPDEST PUSH1 0x0 DUP4 DUP2 MSTORE PUSH1 0x4 PUSH1 0x20 MSTORE PUSH1 0x40 SWAP1 KECCAK256 PUSH1 0x2 ADD SWAP1 PUSH2 0x27DA JUMP JUMPDEST POP PUSH32 0xA70C9D49A7EF09401D07A7AAD126689C097B80DB50504CE9BA5CA8B6F6477FB8 DUP7 DUP7 DUP7 PUSH2 0x6C8 PUSH2 0x277A JUMP JUMPDEST PUSH1 0x40 MLOAD PUSH2 0x6D8 SWAP5 SWAP4 SWAP3 SWAP2 SWAP1 PUSH2 0x31D7 JUMP JUMPDEST PUSH1 0x40 MLOAD DUP1 SWAP2 SUB SWAP1 LOG1 POP POP POP POP POP POP JUMP JUMPDEST PUSH1 0x60 PUSH1 0x0 CHAINID DUP8 DUP1 MLOAD SWAP1 PUSH1 0x20 ADD KECCAK256 PUSH1 0x40 MLOAD PUSH1 0x20 ADD PUSH2 0x70F SWAP3 SWAP2 SWAP1 SWAP2 DUP3 MSTORE PUSH1 0x20 DUP3 ADD MSTORE PUSH1 0x40 ADD SWAP1 JUMP JUMPDEST PUSH1 0x40 DUP1 MLOAD DUP1 DUP4 SUB PUSH1 0x1F NOT ADD DUP2 MSTORE DUP3 DUP3 MSTORE DUP1 MLOAD PUSH1 0x20 SWAP2 DUP3 ADD KECCAK256 DUP10 MLOAD DUP11 DUP4 ADD KECCAK256 SWAP2 DUP5 ADD DUP2 SWAP1 MSTORE SWAP2 DUP4 ADD MSTORE SWAP2 POP PUSH1 0x0 SWAP1 PUSH1 0x60 ADD PUSH1 0x40 DUP1 MLOAD DUP1 DUP4 SUB PUSH1 0x1F NOT ADD DUP2 MSTORE DUP3 DUP3 MSTORE DUP1 MLOAD PUSH1 0x20 SWAP2 DUP3 ADD KECCAK256 DUP10 MLOAD DUP11 DUP4 ADD KECCAK256 SWAP2 DUP5 ADD DUP2 SWAP1 MSTORE SWAP2 DUP4 ADD MSTORE SWAP2 POP PUSH1 0x0 SWAP1 PUSH1 0x60 ADD PUSH1 0x40 DUP1 MLOAD PUSH1 0x1F NOT DUP2 DUP5 SUB ADD DUP2 MSTORE SWAP2 SWAP1 MSTORE DUP1 MLOAD PUSH1 0x20 SWAP1 SWAP2 ADD KECCAK256 SWAP1 POP PUSH1 0x0 PUSH2 0x795 DUP7 DUP9 PUSH2 0x33D8 JUMP JUMPDEST SWAP1 POP PUSH1 0x0 PUSH2 0x7A3 DUP8 DUP4 PUSH2 0x33C0 JUMP JUMPDEST PUSH1 0x0 DUP5 DUP2 MSTORE PUSH1 0x4 PUSH1 0x20 MSTORE PUSH1 0x40 SWAP1 KECCAK256 SWAP1 SWAP2 POP PUSH2 0x7C0 SWAP1 PUSH1 0x2 ADD PUSH2 0x27EF JUMP JUMPDEST DUP2 GT ISZERO PUSH2 0x7E4 JUMPI PUSH1 0x0 DUP4 DUP2 MSTORE PUSH1 0x4 PUSH1 0x20 MSTORE PUSH1 0x40 SWAP1 KECCAK256 PUSH2 0x7E1 SWAP1 PUSH1 0x2 ADD PUSH2 0x27EF JUMP JUMPDEST SWAP1 POP JUMPDEST PUSH1 0x0 PUSH2 0x7F0 DUP4 DUP4 PUSH2 0x33F7 JUMP JUMPDEST PUSH1 0x1 PUSH1 0x1 PUSH1 0x40 SHL SUB DUP2 GT ISZERO PUSH2 0x815 JUMPI PUSH4 0x4E487B71 PUSH1 0xE0 SHL PUSH1 0x0 MSTORE PUSH1 0x41 PUSH1 0x4 MSTORE PUSH1 0x24 PUSH1 0x0 REVERT JUMPDEST PUSH1 0x40 MLOAD SWAP1 DUP1 DUP3 MSTORE DUP1 PUSH1 0x20 MUL PUSH1 0x20 ADD DUP3 ADD PUSH1 0x40 MSTORE DUP1 ISZERO PUSH2 0x83E JUMPI DUP2 PUSH1 0x20 ADD PUSH1 0x20 DUP3 MUL DUP1 CALLDATASIZE DUP4 CALLDATACOPY ADD SWAP1 POP JUMPDEST POP SWAP1 POP DUP3 JUMPDEST DUP3 DUP2 LT ISZERO PUSH2 0x8B7 JUMPI PUSH1 0x0 DUP6 DUP2 MSTORE PUSH1 0x4 PUSH1 0x20 MSTORE PUSH1 0x40 SWAP1 KECCAK256 PUSH2 0x866 SWAP1 PUSH1 0x2 ADD DUP3 PUSH2 0x27F9 JUMP JUMPDEST DUP3 PUSH2 0x871 DUP7 DUP5 PUSH2 0x33F7 JUMP JUMPDEST DUP2 MLOAD DUP2 LT PUSH2 0x88F JUMPI PUSH4 0x4E487B71 PUSH1 0xE0 SHL PUSH1 0x0 MSTORE PUSH1 0x32 PUSH1 0x4 MSTORE PUSH1 0x24 PUSH1 0x0 REVERT JUMPDEST PUSH1 0x1 PUSH1 0x1 PUSH1 0xA0 SHL SUB SWAP1 SWAP3 AND PUSH1 0x20 SWAP3 DUP4 MUL SWAP2 SWAP1 SWAP2 ADD SWAP1 SWAP2 ADD MSTORE PUSH2 0x8B0 DUP2 PUSH2 0x3449 JUMP JUMPDEST SWAP1 POP PUSH2 0x843 JUMP JUMPDEST POP SWAP12 SWAP11 POP POP POP POP POP POP POP POP POP POP POP JUMP JUMPDEST PUSH1 0x0 CHAINID DUP5 DUP1 MLOAD SWAP1 PUSH1 0x20 ADD KECCAK256 PUSH1 0x40 MLOAD PUSH1 0x20 ADD PUSH2 0x8EC SWAP3 SWAP2 SWAP1 SWAP2 DUP3 MSTORE PUSH1 0x20 DUP3 ADD MSTORE PUSH1 0x40 ADD SWAP1 JUMP JUMPDEST PUSH1 0x40 DUP1 MLOAD DUP1 DUP4 SUB PUSH1 0x1F NOT ADD DUP2 MSTORE DUP3 DUP3 MSTORE DUP1 MLOAD PUSH1 0x20 SWAP2 DUP3 ADD KECCAK256 DUP7 MLOAD DUP8 DUP4 ADD KECCAK256 SWAP2 DUP5 ADD DUP2 SWAP1 MSTORE SWAP2 DUP4 ADD MSTORE SWAP2 POP PUSH1 0x0 SWAP1 PUSH1 0x60 ADD PUSH1 0x40 DUP1 MLOAD PUSH1 0x1F NOT DUP2 DUP5 SUB ADD DUP2 MSTORE SWAP2 DUP2 MSTORE DUP2 MLOAD PUSH1 0x20 SWAP3 DUP4 ADD KECCAK256 PUSH1 0x0 DUP2 DUP2 MSTORE PUSH1 0x5 SWAP1 SWAP4 MSTORE SWAP1 DUP3 KECCAK256 DUP1 SLOAD SWAP2 SWAP4 POP SWAP1 PUSH2 0x950 SWAP1 PUSH2 0x340E JUMP JUMPDEST SWAP1 POP GT PUSH2 0x96F JUMPI PUSH1 0x40 MLOAD PUSH3 0x461BCD PUSH1 0xE5 SHL DUP2 MSTORE PUSH1 0x4 ADD PUSH2 0x467 SWAP1 PUSH2 0x3292 JUMP JUMPDEST PUSH2 0x991 PUSH2 0x97A PUSH2 0x277A JUMP JUMPDEST PUSH1 0x0 DUP5 DUP2 MSTORE PUSH1 0x2 PUSH1 0x20 MSTORE PUSH1 0x40 SWAP1 KECCAK256 PUSH1 0x1 ADD SWAP1 PUSH2 0x27A0 JUMP JUMPDEST ISZERO ISZERO PUSH1 0x1 EQ PUSH2 0x9B2 JUMPI PUSH1 0x40 MLOAD PUSH3 0x461BCD PUSH1 0xE5 SHL DUP2 MSTORE PUSH1 0x4 ADD PUSH2 0x467 SWAP1 PUSH2 0x3367 JUMP JUMPDEST PUSH1 0x0 DUP2 DUP2 MSTORE PUSH1 0x3 PUSH1 0x20 MSTORE PUSH1 0x40 SWAP1 KECCAK256 PUSH2 0x9CD SWAP1 PUSH1 0x1 ADD DUP5 PUSH2 0x27A0 JUMP JUMPDEST ISZERO PUSH2 0xA0D JUMPI PUSH1 0x40 MLOAD PUSH3 0x461BCD PUSH1 0xE5 SHL DUP2 MSTORE PUSH1 0x20 PUSH1 0x4 DUP3 ADD MSTORE PUSH1 0x10 PUSH1 0x24 DUP3 ADD MSTORE PUSH16 0x195C9C8B5B595B58995C8B595E1A5CDD PUSH1 0x82 SHL PUSH1 0x44 DUP3 ADD MSTORE PUSH1 0x64 ADD PUSH2 0x467 JUMP JUMPDEST PUSH1 0x0 DUP2 DUP2 MSTORE PUSH1 0x3 PUSH1 0x20 MSTORE PUSH1 0x40 SWAP1 KECCAK256 PUSH2 0xA28 SWAP1 PUSH1 0x1 ADD DUP5 PUSH2 0x27C5 JUMP JUMPDEST POP PUSH32 0x8EB5DC57E01DA32E2B98214D39EBDD82CD801D261855D5F84B868B5F140A2980 DUP6 DUP6 DUP6 PUSH1 0x40 MLOAD PUSH2 0xA5C SWAP4 SWAP3 SWAP2 SWAP1 PUSH2 0x3199 JUMP JUMPDEST PUSH1 0x40 MLOAD DUP1 SWAP2 SUB SWAP1 LOG1 POP POP POP POP POP JUMP JUMPDEST PUSH1 0x0 CHAINID DUP4 DUP1 MLOAD SWAP1 PUSH1 0x20 ADD KECCAK256 PUSH1 0x40 MLOAD PUSH1 0x20 ADD PUSH2 0xA90 SWAP3 SWAP2 SWAP1 SWAP2 DUP3 MSTORE PUSH1 0x20 DUP3 ADD MSTORE PUSH1 0x40 ADD SWAP1 JUMP JUMPDEST PUSH1 0x40 MLOAD PUSH1 0x20 DUP2 DUP4 SUB SUB DUP2 MSTORE SWAP1 PUSH1 0x40 MSTORE DUP1 MLOAD SWAP1 PUSH1 0x20 ADD KECCAK256 PUSH1 0x0 SHR SWAP1 POP PUSH2 0xACD PUSH2 0xAB6 PUSH2 0x277A JUMP JUMPDEST PUSH1 0x0 DUP4 DUP2 MSTORE PUSH1 0x2 PUSH1 0x20 MSTORE PUSH1 0x40 SWAP1 KECCAK256 PUSH1 0x1 ADD SWAP1 PUSH2 0x27A0 JUMP JUMPDEST PUSH2 0xAE9 JUMPI PUSH1 0x40 MLOAD PUSH3 0x461BCD PUSH1 0xE5 SHL DUP2 MSTORE PUSH1 0x4 ADD PUSH2 0x467 SWAP1 PUSH2 0x3367 JUMP JUMPDEST PUSH1 0x0 DUP2 DUP2 MSTORE PUSH1 0x5 PUSH1 0x20 MSTORE PUSH1 0x40 DUP2 KECCAK256 DUP1 SLOAD PUSH2 0xB02 SWAP1 PUSH2 0x340E JUMP JUMPDEST SWAP1 POP GT PUSH2 0xB46 JUMPI PUSH1 0x40 MLOAD PUSH3 0x461BCD PUSH1 0xE5 SHL DUP2 MSTORE PUSH1 0x20 PUSH1 0x4 DUP3 ADD MSTORE PUSH1 0x12 PUSH1 0x24 DUP3 ADD MSTORE PUSH18 0x195C9C8B5D19585B4B5B9BDD0B595E1A5CDD PUSH1 0x72 SHL PUSH1 0x44 DUP3 ADD MSTORE PUSH1 0x64 ADD PUSH2 0x467 JUMP JUMPDEST PUSH1 0x0 DUP3 MLOAD GT PUSH2 0xB67 JUMPI PUSH1 0x40 MLOAD PUSH3 0x461BCD PUSH1 0xE5 SHL DUP2 MSTORE PUSH1 0x4 ADD PUSH2 0x467 SWAP1 PUSH2 0x32E8 JUMP JUMPDEST PUSH1 0x0 DUP2 DUP2 MSTORE PUSH1 0x5 PUSH1 0x20 SWAP1 DUP2 MSTORE PUSH1 0x40 SWAP1 SWAP2 KECCAK256 DUP4 MLOAD PUSH2 0xB86 SWAP3 DUP6 ADD SWAP1 PUSH2 0x29A9 JUMP JUMPDEST POP PUSH32 0x337EFABADE1B5802F3A562A44EB0B3222D30AD7717E865D76F4DB7ECBEA56E80 DUP4 DUP4 PUSH2 0xBB2 PUSH2 0x277A JUMP JUMPDEST PUSH1 0x40 MLOAD PUSH2 0xBC1 SWAP4 SWAP3 SWAP2 SWAP1 PUSH2 0x3199 JUMP JUMPDEST PUSH1 0x40 MLOAD DUP1 SWAP2 SUB SWAP1 LOG1 POP POP POP JUMP JUMPDEST PUSH1 0x60 PUSH1 0x0 CHAINID DUP5 DUP1 MLOAD SWAP1 PUSH1 0x20 ADD KECCAK256 PUSH1 0x40 MLOAD PUSH1 0x20 ADD PUSH2 0xBF5 SWAP3 SWAP2 SWAP1 SWAP2 DUP3 MSTORE PUSH1 0x20 DUP3 ADD MSTORE PUSH1 0x40 ADD SWAP1 JUMP JUMPDEST PUSH1 0x40 DUP1 MLOAD DUP1 DUP4 SUB PUSH1 0x1F NOT ADD DUP2 MSTORE DUP3 DUP3 MSTORE DUP1 MLOAD PUSH1 0x20 SWAP2 DUP3 ADD KECCAK256 DUP7 MLOAD DUP8 DUP4 ADD KECCAK256 SWAP2 DUP5 ADD DUP2 SWAP1 MSTORE SWAP2 DUP4 ADD MSTORE SWAP2 POP PUSH1 0x0 SWAP1 PUSH1 0x60 ADD PUSH1 0x40 DUP1 MLOAD PUSH1 0x1F NOT DUP2 DUP5 SUB ADD DUP2 MSTORE SWAP2 DUP2 MSTORE DUP2 MLOAD PUSH1 0x20 SWAP3 DUP4 ADD KECCAK256 PUSH1 0x0 DUP2 DUP2 MSTORE PUSH1 0x3 SWAP1 SWAP4 MSTORE SWAP2 KECCAK256 DUP1 SLOAD SWAP2 SWAP3 POP SWAP1 PUSH2 0xC6B JUMPI PUSH1 0x40 MLOAD PUSH3 0x461BCD PUSH1 0xE5 SHL DUP2 MSTORE PUSH1 0x4 ADD PUSH2 0x467 SWAP1 PUSH2 0x3292 JUMP JUMPDEST DUP1 SLOAD DUP2 SWAP1 PUSH2 0xC7B SWAP1 PUSH1 0x1 SWAP1 PUSH2 0x33F7 JUMP JUMPDEST DUP2 SLOAD DUP2 LT PUSH2 0xC99 JUMPI PUSH4 0x4E487B71 PUSH1 0xE0 SHL PUSH1 0x0 MSTORE PUSH1 0x32 PUSH1 0x4 MSTORE PUSH1 0x24 PUSH1 0x0 REVERT JUMPDEST SWAP1 PUSH1 0x0 MSTORE PUSH1 0x20 PUSH1 0x0 KECCAK256 ADD DUP1 SLOAD PUSH2 0xCAE SWAP1 PUSH2 0x340E JUMP JUMPDEST DUP1 PUSH1 0x1F ADD PUSH1 0x20 DUP1 SWAP2 DIV MUL PUSH1 0x20 ADD PUSH1 0x40 MLOAD SWAP1 DUP2 ADD PUSH1 0x40 MSTORE DUP1 SWAP3 SWAP2 SWAP1 DUP2 DUP2 MSTORE PUSH1 0x20 ADD DUP3 DUP1 SLOAD PUSH2 0xCDA SWAP1 PUSH2 0x340E JUMP JUMPDEST DUP1 ISZERO PUSH2 0xD27 JUMPI DUP1 PUSH1 0x1F LT PUSH2 0xCFC JUMPI PUSH2 0x100 DUP1 DUP4 SLOAD DIV MUL DUP4 MSTORE SWAP2 PUSH1 0x20 ADD SWAP2 PUSH2 0xD27 JUMP JUMPDEST DUP3 ADD SWAP2 SWAP1 PUSH1 0x0 MSTORE PUSH1 0x20 PUSH1 0x0 KECCAK256 SWAP1 JUMPDEST DUP2 SLOAD DUP2 MSTORE SWAP1 PUSH1 0x1 ADD SWAP1 PUSH1 0x20 ADD DUP1 DUP4 GT PUSH2 0xD0A JUMPI DUP3 SWAP1 SUB PUSH1 0x1F AND DUP3 ADD SWAP2 JUMPDEST POP POP POP POP POP SWAP4 POP POP POP POP JUMPDEST SWAP3 SWAP2 POP POP JUMP JUMPDEST PUSH1 0x6 DUP1 SLOAD PUSH2 0xD45 SWAP1 PUSH2 0x340E JUMP JUMPDEST DUP1 PUSH1 0x1F ADD PUSH1 0x20 DUP1 SWAP2 DIV MUL PUSH1 0x20 ADD PUSH1 0x40 MLOAD SWAP1 DUP2 ADD PUSH1 0x40 MSTORE DUP1 SWAP3 SWAP2 SWAP1 DUP2 DUP2 MSTORE PUSH1 0x20 ADD DUP3 DUP1 SLOAD PUSH2 0xD71 SWAP1 PUSH2 0x340E JUMP JUMPDEST DUP1 ISZERO PUSH2 0xDBE JUMPI DUP1 PUSH1 0x1F LT PUSH2 0xD93 JUMPI PUSH2 0x100 DUP1 DUP4 SLOAD DIV MUL DUP4 MSTORE SWAP2 PUSH1 0x20 ADD SWAP2 PUSH2 0xDBE JUMP JUMPDEST DUP3 ADD SWAP2 SWAP1 PUSH1 0x0 MSTORE PUSH1 0x20 PUSH1 0x0 KECCAK256 SWAP1 JUMPDEST DUP2 SLOAD DUP2 MSTORE SWAP1 PUSH1 0x1 ADD SWAP1 PUSH1 0x20 ADD DUP1 DUP4 GT PUSH2 0xDA1 JUMPI DUP3 SWAP1 SUB PUSH1 0x1F AND DUP3 ADD SWAP2 JUMPDEST POP POP POP POP POP DUP2 JUMP JUMPDEST PUSH1 0x60 PUSH1 0x0 CHAINID DUP7 DUP1 MLOAD SWAP1 PUSH1 0x20 ADD KECCAK256 PUSH1 0x40 MLOAD PUSH1 0x20 ADD PUSH2 0xDED SWAP3 SWAP2 SWAP1 SWAP2 DUP3 MSTORE PUSH1 0x20 DUP3 ADD MSTORE PUSH1 0x40 ADD SWAP1 JUMP JUMPDEST PUSH1 0x40 DUP1 MLOAD PUSH1 0x1F NOT DUP2 DUP5 SUB ADD DUP2 MSTORE DUP3 DUP3 MSTORE DUP1 MLOAD PUSH1 0x20 SWAP2 DUP3 ADD KECCAK256 DUP9 MLOAD DUP10 DUP4 ADD KECCAK256 DUP3 DUP6 ADD DUP3 SWAP1 MSTORE DUP5 DUP5 ADD MSTORE DUP3 MLOAD DUP1 DUP6 SUB DUP5 ADD DUP2 MSTORE PUSH1 0x60 SWAP1 SWAP5 ADD SWAP1 SWAP3 MSTORE DUP3 MLOAD SWAP3 ADD SWAP2 SWAP1 SWAP2 KECCAK256 SWAP1 SWAP2 POP PUSH1 0x0 PUSH2 0xE3D DUP6 DUP8 PUSH2 0x33D8 JUMP JUMPDEST SWAP1 POP PUSH1 0x0 PUSH2 0xE4B DUP7 DUP4 PUSH2 0x33C0 JUMP JUMPDEST PUSH1 0x0 DUP5 DUP2 MSTORE PUSH1 0x3 PUSH1 0x20 MSTORE PUSH1 0x40 SWAP1 KECCAK256 SWAP1 SWAP2 POP PUSH2 0xE68 SWAP1 PUSH1 0x1 ADD PUSH2 0x27EF JUMP JUMPDEST DUP2 GT ISZERO PUSH2 0xE8C JUMPI PUSH1 0x0 DUP4 DUP2 MSTORE PUSH1 0x3 PUSH1 0x20 MSTORE PUSH1 0x40 SWAP1 KECCAK256 PUSH2 0xE89 SWAP1 PUSH1 0x1 ADD PUSH2 0x27EF JUMP JUMPDEST SWAP1 POP JUMPDEST PUSH1 0x0 PUSH2 0xE98 DUP4 DUP4 PUSH2 0x33F7 JUMP JUMPDEST PUSH1 0x1 PUSH1 0x1 PUSH1 0x40 SHL SUB DUP2 GT ISZERO PUSH2 0xEBD JUMPI PUSH4 0x4E487B71 PUSH1 0xE0 SHL PUSH1 0x0 MSTORE PUSH1 0x41 PUSH1 0x4 MSTORE PUSH1 0x24 PUSH1 0x0 REVERT JUMPDEST PUSH1 0x40 MLOAD SWAP1 DUP1 DUP3 MSTORE DUP1 PUSH1 0x20 MUL PUSH1 0x20 ADD DUP3 ADD PUSH1 0x40 MSTORE DUP1 ISZERO PUSH2 0xEE6 JUMPI DUP2 PUSH1 0x20 ADD PUSH1 0x20 DUP3 MUL DUP1 CALLDATASIZE DUP4 CALLDATACOPY ADD SWAP1 POP JUMPDEST POP SWAP1 POP DUP3 JUMPDEST DUP3 DUP2 LT ISZERO PUSH2 0xF5F JUMPI PUSH1 0x0 DUP6 DUP2 MSTORE PUSH1 0x3 PUSH1 0x20 MSTORE PUSH1 0x40 SWAP1 KECCAK256 PUSH2 0xF0E SWAP1 PUSH1 0x1 ADD DUP3 PUSH2 0x27F9 JUMP JUMPDEST DUP3 PUSH2 0xF19 DUP7 DUP5 PUSH2 0x33F7 JUMP JUMPDEST DUP2 MLOAD DUP2 LT PUSH2 0xF37 JUMPI PUSH4 0x4E487B71 PUSH1 0xE0 SHL PUSH1 0x0 MSTORE PUSH1 0x32 PUSH1 0x4 MSTORE PUSH1 0x24 PUSH1 0x0 REVERT JUMPDEST PUSH1 0x1 PUSH1 0x1 PUSH1 0xA0 SHL SUB SWAP1 SWAP3 AND PUSH1 0x20 SWAP3 DUP4 MUL SWAP2 SWAP1 SWAP2 ADD SWAP1 SWAP2 ADD MSTORE PUSH2 0xF58 DUP2 PUSH2 0x3449 JUMP JUMPDEST SWAP1 POP PUSH2 0xEEB JUMP JUMPDEST POP SWAP10 SWAP9 POP POP POP POP POP POP POP POP POP JUMP JUMPDEST PUSH1 0x60 PUSH1 0x0 PUSH2 0xF7B DUP4 DUP6 PUSH2 0x33D8 JUMP JUMPDEST SWAP1 POP PUSH1 0x0 PUSH2 0xF89 DUP5 DUP4 PUSH2 0x33C0 JUMP JUMPDEST PUSH1 0x1 SLOAD SWAP1 SWAP2 POP DUP2 GT ISZERO PUSH2 0xF9B JUMPI POP PUSH1 0x1 SLOAD JUMPDEST PUSH1 0x0 PUSH2 0xFA7 DUP4 DUP4 PUSH2 0x33F7 JUMP JUMPDEST PUSH1 0x1 PUSH1 0x1 PUSH1 0x40 SHL SUB DUP2 GT ISZERO PUSH2 0xFCC JUMPI PUSH4 0x4E487B71 PUSH1 0xE0 SHL PUSH1 0x0 MSTORE PUSH1 0x41 PUSH1 0x4 MSTORE PUSH1 0x24 PUSH1 0x0 REVERT JUMPDEST PUSH1 0x40 MLOAD SWAP1 DUP1 DUP3 MSTORE DUP1 PUSH1 0x20 MUL PUSH1 0x20 ADD DUP3 ADD PUSH1 0x40 MSTORE DUP1 ISZERO PUSH2 0xFFF JUMPI DUP2 PUSH1 0x20 ADD JUMPDEST PUSH1 0x60 DUP2 MSTORE PUSH1 0x20 ADD SWAP1 PUSH1 0x1 SWAP1 SUB SWAP1 DUP2 PUSH2 0xFEA JUMPI SWAP1 POP JUMPDEST POP SWAP1 POP DUP3 JUMPDEST DUP3 DUP2 LT ISZERO PUSH2 0x1107 JUMPI PUSH1 0x1 DUP2 DUP2 SLOAD DUP2 LT PUSH2 0x102D JUMPI PUSH4 0x4E487B71 PUSH1 0xE0 SHL PUSH1 0x0 MSTORE PUSH1 0x32 PUSH1 0x4 MSTORE PUSH1 0x24 PUSH1 0x0 REVERT JUMPDEST SWAP1 PUSH1 0x0 MSTORE PUSH1 0x20 PUSH1 0x0 KECCAK256 ADD DUP1 SLOAD PUSH2 0x1042 SWAP1 PUSH2 0x340E JUMP JUMPDEST DUP1 PUSH1 0x1F ADD PUSH1 0x20 DUP1 SWAP2 DIV MUL PUSH1 0x20 ADD PUSH1 0x40 MLOAD SWAP1 DUP2 ADD PUSH1 0x40 MSTORE DUP1 SWAP3 SWAP2 SWAP1 DUP2 DUP2 MSTORE PUSH1 0x20 ADD DUP3 DUP1 SLOAD PUSH2 0x106E SWAP1 PUSH2 0x340E JUMP JUMPDEST DUP1 ISZERO PUSH2 0x10BB JUMPI DUP1 PUSH1 0x1F LT PUSH2 0x1090 JUMPI PUSH2 0x100 DUP1 DUP4 SLOAD DIV MUL DUP4 MSTORE SWAP2 PUSH1 0x20 ADD SWAP2 PUSH2 0x10BB JUMP JUMPDEST DUP3 ADD SWAP2 SWAP1 PUSH1 0x0 MSTORE PUSH1 0x20 PUSH1 0x0 KECCAK256 SWAP1 JUMPDEST DUP2 SLOAD DUP2 MSTORE SWAP1 PUSH1 0x1 ADD SWAP1 PUSH1 0x20 ADD DUP1 DUP4 GT PUSH2 0x109E JUMPI DUP3 SWAP1 SUB PUSH1 0x1F AND DUP3 ADD SWAP2 JUMPDEST POP POP POP POP POP DUP3 DUP6 DUP4 PUSH2 0x10CD SWAP2 SWAP1 PUSH2 0x33F7 JUMP JUMPDEST DUP2 MLOAD DUP2 LT PUSH2 0x10EB JUMPI PUSH4 0x4E487B71 PUSH1 0xE0 SHL PUSH1 0x0 MSTORE PUSH1 0x32 PUSH1 0x4 MSTORE PUSH1 0x24 PUSH1 0x0 REVERT JUMPDEST PUSH1 0x20 MUL PUSH1 0x20 ADD ADD DUP2 SWAP1 MSTORE POP DUP1 PUSH2 0x1100 SWAP1 PUSH2 0x3449 JUMP JUMPDEST SWAP1 POP PUSH2 0x1004 JUMP JUMPDEST POP SWAP6 SWAP5 POP POP POP POP POP JUMP JUMPDEST PUSH1 0x0 CHAINID DUP6 DUP1 MLOAD SWAP1 PUSH1 0x20 ADD KECCAK256 PUSH1 0x40 MLOAD PUSH1 0x20 ADD PUSH2 0x1136 SWAP3 SWAP2 SWAP1 SWAP2 DUP3 MSTORE PUSH1 0x20 DUP3 ADD MSTORE PUSH1 0x40 ADD SWAP1 JUMP JUMPDEST PUSH1 0x40 DUP1 MLOAD PUSH1 0x1F NOT DUP2 DUP5 SUB ADD DUP2 MSTORE DUP3 DUP3 MSTORE DUP1 MLOAD PUSH1 0x20 SWAP2 DUP3 ADD KECCAK256 DUP8 MLOAD DUP9 DUP4 ADD KECCAK256 DUP3 DUP6 ADD DUP3 SWAP1 MSTORE DUP5 DUP5 ADD MSTORE DUP3 MLOAD DUP1 DUP6 SUB DUP5 ADD DUP2 MSTORE PUSH1 0x60 SWAP1 SWAP5 ADD SWAP1 SWAP3 MSTORE DUP3 MLOAD SWAP3 ADD SWAP2 SWAP1 SWAP2 KECCAK256 SWAP1 SWAP2 POP PUSH2 0x1185 PUSH2 0x97A PUSH2 0x277A JUMP JUMPDEST PUSH2 0x11A1 JUMPI PUSH1 0x40 MLOAD PUSH3 0x461BCD PUSH1 0xE5 SHL DUP2 MSTORE PUSH1 0x4 ADD PUSH2 0x467 SWAP1 PUSH2 0x3367 JUMP JUMPDEST PUSH1 0x0 DUP2 DUP2 MSTORE PUSH1 0x5 PUSH1 0x20 MSTORE PUSH1 0x40 SWAP1 KECCAK256 DUP1 SLOAD PUSH2 0x11BA SWAP1 PUSH2 0x340E JUMP JUMPDEST ISZERO SWAP1 POP PUSH2 0x11D9 JUMPI PUSH1 0x40 MLOAD PUSH3 0x461BCD PUSH1 0xE5 SHL DUP2 MSTORE PUSH1 0x4 ADD PUSH2 0x467 SWAP1 PUSH2 0x32BE JUMP JUMPDEST PUSH1 0x0 DUP5 MLOAD GT PUSH2 0x11FA JUMPI PUSH1 0x40 MLOAD PUSH3 0x461BCD PUSH1 0xE5 SHL DUP2 MSTORE PUSH1 0x4 ADD PUSH2 0x467 SWAP1 PUSH2 0x32E8 JUMP JUMPDEST PUSH1 0x0 DUP6 MLOAD GT PUSH2 0x121B JUMPI PUSH1 0x40 MLOAD PUSH3 0x461BCD PUSH1 0xE5 SHL DUP2 MSTORE PUSH1 0x4 ADD PUSH2 0x467 SWAP1 PUSH2 0x3310 JUMP JUMPDEST PUSH1 0x0 DUP2 DUP2 MSTORE PUSH1 0x5 PUSH1 0x20 SWAP1 DUP2 MSTORE PUSH1 0x40 SWAP1 SWAP2 KECCAK256 DUP6 MLOAD PUSH2 0x123A SWAP3 DUP8 ADD SWAP1 PUSH2 0x29A9 JUMP JUMPDEST POP PUSH1 0x0 DUP3 DUP2 MSTORE PUSH1 0x2 PUSH1 0x20 SWAP1 DUP2 MSTORE PUSH1 0x40 DUP3 KECCAK256 DUP1 SLOAD PUSH1 0x1 DUP2 ADD DUP3 SSTORE SWAP1 DUP4 MSTORE SWAP2 DUP2 SWAP1 KECCAK256 DUP8 MLOAD PUSH2 0x126D SWAP4 SWAP2 SWAP1 SWAP2 ADD SWAP2 DUP9 ADD SWAP1 PUSH2 0x29A9 JUMP JUMPDEST POP PUSH1 0x0 JUMPDEST DUP4 MLOAD DUP2 LT ISZERO PUSH2 0x133C JUMPI PUSH2 0x12C9 DUP5 DUP3 DUP2 MLOAD DUP2 LT PUSH2 0x129D JUMPI PUSH4 0x4E487B71 PUSH1 0xE0 SHL PUSH1 0x0 MSTORE PUSH1 0x32 PUSH1 0x4 MSTORE PUSH1 0x24 PUSH1 0x0 REVERT JUMPDEST PUSH1 0x20 MUL PUSH1 0x20 ADD ADD MLOAD PUSH1 0x3 PUSH1 0x0 DUP6 DUP2 MSTORE PUSH1 0x20 ADD SWAP1 DUP2 MSTORE PUSH1 0x20 ADD PUSH1 0x0 KECCAK256 PUSH1 0x1 ADD PUSH2 0x27C5 SWAP1 SWAP2 SWAP1 PUSH4 0xFFFFFFFF AND JUMP JUMPDEST POP PUSH32 0x3DC3EA765AF75DFB15CF80F4A5EB2F3BF04D69261B652D222801B3D0B9FB0900 DUP7 DUP6 DUP4 DUP2 MLOAD DUP2 LT PUSH2 0x130C JUMPI PUSH4 0x4E487B71 PUSH1 0xE0 SHL PUSH1 0x0 MSTORE PUSH1 0x32 PUSH1 0x4 MSTORE PUSH1 0x24 PUSH1 0x0 REVERT JUMPDEST PUSH1 0x20 MUL PUSH1 0x20 ADD ADD MLOAD PUSH1 0x40 MLOAD PUSH2 0x1322 SWAP3 SWAP2 SWAP1 PUSH2 0x316F JUMP JUMPDEST PUSH1 0x40 MLOAD DUP1 SWAP2 SUB SWAP1 LOG1 DUP1 PUSH2 0x1334 DUP2 PUSH2 0x3449 JUMP JUMPDEST SWAP2 POP POP PUSH2 0x1271 JUMP JUMPDEST POP PUSH32 0x11F7F07DE1D35C43B47EDD8A19E7F8208259CDF66344DE81856C5BB7C798DB26 DUP7 DUP7 DUP7 PUSH2 0x6C8 PUSH2 0x277A JUMP JUMPDEST PUSH1 0x60 PUSH1 0x0 CHAINID DUP4 DUP1 MLOAD SWAP1 PUSH1 0x20 ADD KECCAK256 PUSH1 0x40 MLOAD PUSH1 0x20 ADD PUSH2 0x1390 SWAP3 SWAP2 SWAP1 SWAP2 DUP3 MSTORE PUSH1 0x20 DUP3 ADD MSTORE PUSH1 0x40 ADD SWAP1 JUMP JUMPDEST PUSH1 0x40 DUP1 MLOAD PUSH1 0x1F NOT DUP2 DUP5 SUB ADD DUP2 MSTORE SWAP2 DUP2 MSTORE DUP2 MLOAD PUSH1 0x20 SWAP3 DUP4 ADD KECCAK256 PUSH1 0x0 DUP2 DUP2 MSTORE PUSH1 0x5 SWAP1 SWAP4 MSTORE SWAP1 DUP3 KECCAK256 DUP1 SLOAD SWAP2 SWAP4 POP SWAP1 PUSH2 0x13C4 SWAP1 PUSH2 0x340E JUMP JUMPDEST SWAP1 POP GT PUSH2 0x1408 JUMPI PUSH1 0x40 MLOAD PUSH3 0x461BCD PUSH1 0xE5 SHL DUP2 MSTORE PUSH1 0x20 PUSH1 0x4 DUP3 ADD MSTORE PUSH1 0x12 PUSH1 0x24 DUP3 ADD MSTORE PUSH18 0x195C9C8B5D19585B4B5B9BDD0B595E1A5CDD PUSH1 0x72 SHL PUSH1 0x44 DUP3 ADD MSTORE PUSH1 0x64 ADD PUSH2 0x467 JUMP JUMPDEST PUSH1 0x0 DUP2 DUP2 MSTORE PUSH1 0x5 PUSH1 0x20 MSTORE PUSH1 0x40 SWAP1 KECCAK256 DUP1 SLOAD PUSH2 0x1421 SWAP1 PUSH2 0x340E JUMP JUMPDEST DUP1 PUSH1 0x1F ADD PUSH1 0x20 DUP1 SWAP2 DIV MUL PUSH1 0x20 ADD PUSH1 0x40 MLOAD SWAP1 DUP2 ADD PUSH1 0x40 MSTORE DUP1 SWAP3 SWAP2 SWAP1 DUP2 DUP2 MSTORE PUSH1 0x20 ADD DUP3 DUP1 SLOAD PUSH2 0x144D SWAP1 PUSH2 0x340E JUMP JUMPDEST DUP1 ISZERO PUSH2 0x149A JUMPI DUP1 PUSH1 0x1F LT PUSH2 0x146F JUMPI PUSH2 0x100 DUP1 DUP4 SLOAD DIV MUL DUP4 MSTORE SWAP2 PUSH1 0x20 ADD SWAP2 PUSH2 0x149A JUMP JUMPDEST DUP3 ADD SWAP2 SWAP1 PUSH1 0x0 MSTORE PUSH1 0x20 PUSH1 0x0 KECCAK256 SWAP1 JUMPDEST DUP2 SLOAD DUP2 MSTORE SWAP1 PUSH1 0x1 ADD SWAP1 PUSH1 0x20 ADD DUP1 DUP4 GT PUSH2 0x147D JUMPI DUP3 SWAP1 SUB PUSH1 0x1F AND DUP3 ADD SWAP2 JUMPDEST POP POP POP POP POP SWAP2 POP POP SWAP2 SWAP1 POP JUMP JUMPDEST PUSH1 0x60 PUSH1 0x0 CHAINID DUP5 DUP1 MLOAD SWAP1 PUSH1 0x20 ADD KECCAK256 PUSH1 0x40 MLOAD PUSH1 0x20 ADD PUSH2 0x14CE SWAP3 SWAP2 SWAP1 SWAP2 DUP3 MSTORE PUSH1 0x20 DUP3 ADD MSTORE PUSH1 0x40 ADD SWAP1 JUMP JUMPDEST PUSH1 0x40 DUP1 MLOAD DUP1 DUP4 SUB PUSH1 0x1F NOT ADD DUP2 MSTORE DUP3 DUP3 MSTORE DUP1 MLOAD PUSH1 0x20 SWAP2 DUP3 ADD KECCAK256 DUP7 MLOAD DUP8 DUP4 ADD KECCAK256 SWAP2 DUP5 ADD DUP2 SWAP1 MSTORE SWAP2 DUP4 ADD MSTORE SWAP2 POP PUSH1 0x0 SWAP1 PUSH1 0x60 ADD PUSH1 0x40 DUP1 MLOAD PUSH1 0x1F NOT DUP2 DUP5 SUB ADD DUP2 MSTORE SWAP2 DUP2 MSTORE DUP2 MLOAD PUSH1 0x20 SWAP3 DUP4 ADD KECCAK256 PUSH1 0x0 DUP2 DUP2 MSTORE PUSH1 0x5 SWAP1 SWAP4 MSTORE SWAP1 DUP3 KECCAK256 DUP1 SLOAD SWAP2 SWAP4 POP SWAP1 PUSH2 0x1532 SWAP1 PUSH2 0x340E JUMP JUMPDEST SWAP1 POP GT PUSH2 0x1551 JUMPI PUSH1 0x40 MLOAD PUSH3 0x461BCD PUSH1 0xE5 SHL DUP2 MSTORE PUSH1 0x4 ADD PUSH2 0x467 SWAP1 PUSH2 0x3292 JUMP JUMPDEST PUSH1 0x0 DUP2 DUP2 MSTORE PUSH1 0x5 PUSH1 0x20 MSTORE PUSH1 0x40 SWAP1 KECCAK256 DUP1 SLOAD PUSH2 0x156A SWAP1 PUSH2 0x340E JUMP JUMPDEST DUP1 PUSH1 0x1F ADD PUSH1 0x20 DUP1 SWAP2 DIV MUL PUSH1 0x20 ADD PUSH1 0x40 MLOAD SWAP1 DUP2 ADD PUSH1 0x40 MSTORE DUP1 SWAP3 SWAP2 SWAP1 DUP2 DUP2 MSTORE PUSH1 0x20 ADD DUP3 DUP1 SLOAD PUSH2 0x1596 SWAP1 PUSH2 0x340E JUMP JUMPDEST DUP1 ISZERO PUSH2 0x15E3 JUMPI DUP1 PUSH1 0x1F LT PUSH2 0x15B8 JUMPI PUSH2 0x100 DUP1 DUP4 SLOAD DIV MUL DUP4 MSTORE SWAP2 PUSH1 0x20 ADD SWAP2 PUSH2 0x15E3 JUMP JUMPDEST DUP3 ADD SWAP2 SWAP1 PUSH1 0x0 MSTORE PUSH1 0x20 PUSH1 0x0 KECCAK256 SWAP1 JUMPDEST DUP2 SLOAD DUP2 MSTORE SWAP1 PUSH1 0x1 ADD SWAP1 PUSH1 0x20 ADD DUP1 DUP4 GT PUSH2 0x15C6 JUMPI DUP3 SWAP1 SUB PUSH1 0x1F AND DUP3 ADD SWAP2 JUMPDEST POP POP POP POP POP SWAP3 POP POP POP SWAP3 SWAP2 POP POP JUMP JUMPDEST PUSH1 0x0 CHAINID DUP5 DUP1 MLOAD SWAP1 PUSH1 0x20 ADD KECCAK256 PUSH1 0x40 MLOAD PUSH1 0x20 ADD PUSH2 0x1617 SWAP3 SWAP2 SWAP1 SWAP2 DUP3 MSTORE PUSH1 0x20 DUP3 ADD MSTORE PUSH1 0x40 ADD SWAP1 JUMP JUMPDEST PUSH1 0x40 DUP1 MLOAD DUP1 DUP4 SUB PUSH1 0x1F NOT ADD DUP2 MSTORE DUP3 DUP3 MSTORE DUP1 MLOAD PUSH1 0x20 SWAP2 DUP3 ADD KECCAK256 DUP7 MLOAD DUP8 DUP4 ADD KECCAK256 SWAP2 DUP5 ADD DUP2 SWAP1 MSTORE SWAP2 DUP4 ADD MSTORE SWAP2 POP PUSH1 0x0 SWAP1 PUSH1 0x60 ADD PUSH1 0x40 DUP1 MLOAD PUSH1 0x1F NOT DUP2 DUP5 SUB ADD DUP2 MSTORE SWAP2 DUP2 MSTORE DUP2 MLOAD PUSH1 0x20 SWAP3 DUP4 ADD KECCAK256 PUSH1 0x0 DUP2 DUP2 MSTORE PUSH1 0x5 SWAP1 SWAP4 MSTORE SWAP1 DUP3 KECCAK256 DUP1 SLOAD SWAP2 SWAP4 POP SWAP1 PUSH2 0x167B SWAP1 PUSH2 0x340E JUMP JUMPDEST SWAP1 POP GT PUSH2 0x169A JUMPI PUSH1 0x40 MLOAD PUSH3 0x461BCD PUSH1 0xE5 SHL DUP2 MSTORE PUSH1 0x4 ADD PUSH2 0x467 SWAP1 PUSH2 0x3292 JUMP JUMPDEST PUSH2 0x16A5 PUSH2 0x97A PUSH2 0x277A JUMP JUMPDEST ISZERO ISZERO PUSH1 0x1 EQ PUSH2 0x16C6 JUMPI PUSH1 0x40 MLOAD PUSH3 0x461BCD PUSH1 0xE5 SHL DUP2 MSTORE PUSH1 0x4 ADD PUSH2 0x467 SWAP1 PUSH2 0x3367 JUMP JUMPDEST PUSH1 0x0 DUP2 DUP2 MSTORE PUSH1 0x3 PUSH1 0x20 MSTORE PUSH1 0x40 SWAP1 KECCAK256 PUSH2 0x16E1 SWAP1 PUSH1 0x1 ADD DUP5 PUSH2 0x27A0 JUMP JUMPDEST ISZERO ISZERO PUSH1 0x1 EQ PUSH2 0x1729 JUMPI PUSH1 0x40 MLOAD PUSH3 0x461BCD PUSH1 0xE5 SHL DUP2 MSTORE PUSH1 0x20 PUSH1 0x4 DUP3 ADD MSTORE PUSH1 0x14 PUSH1 0x24 DUP3 ADD MSTORE PUSH20 0x195C9C8B5B595B58995C8B5B9BDD0B595E1A5CDD PUSH1 0x62 SHL PUSH1 0x44 DUP3 ADD MSTORE PUSH1 0x64 ADD PUSH2 0x467 JUMP JUMPDEST PUSH1 0x0 DUP2 DUP2 MSTORE PUSH1 0x3 PUSH1 0x20 MSTORE PUSH1 0x40 SWAP1 KECCAK256 PUSH2 0x1744 SWAP1 PUSH1 0x1 ADD DUP5 PUSH2 0x27DA JUMP JUMPDEST POP PUSH32 0x7BD4FDF0F1872366F33F1732F765696C1EC3DDCCAA8C1F72095B58D8F411FA93 DUP6 DUP6 DUP6 PUSH1 0x40 MLOAD PUSH2 0xA5C SWAP4 SWAP3 SWAP2 SWAP1 PUSH2 0x3199 JUMP JUMPDEST PUSH1 0x0 CHAINID DUP5 DUP1 MLOAD SWAP1 PUSH1 0x20 ADD KECCAK256 PUSH1 0x40 MLOAD PUSH1 0x20 ADD PUSH2 0x179D SWAP3 SWAP2 SWAP1 SWAP2 DUP3 MSTORE PUSH1 0x20 DUP3 ADD MSTORE PUSH1 0x40 ADD SWAP1 JUMP JUMPDEST PUSH1 0x40 DUP1 MLOAD PUSH1 0x1F NOT DUP2 DUP5 SUB ADD DUP2 MSTORE SWAP2 DUP2 MSTORE DUP2 MLOAD PUSH1 0x20 SWAP3 DUP4 ADD KECCAK256 PUSH1 0x0 DUP2 DUP2 MSTORE PUSH1 0x5 SWAP1 SWAP4 MSTORE SWAP2 KECCAK256 DUP1 SLOAD SWAP2 SWAP3 POP SWAP1 PUSH2 0x17D0 SWAP1 PUSH2 0x340E JUMP JUMPDEST ISZERO SWAP1 POP PUSH2 0x17EF JUMPI PUSH1 0x40 MLOAD PUSH3 0x461BCD PUSH1 0xE5 SHL DUP2 MSTORE PUSH1 0x4 ADD PUSH2 0x467 SWAP1 PUSH2 0x32BE JUMP JUMPDEST PUSH1 0x0 DUP4 MLOAD GT PUSH2 0x1810 JUMPI PUSH1 0x40 MLOAD PUSH3 0x461BCD PUSH1 0xE5 SHL DUP2 MSTORE PUSH1 0x4 ADD PUSH2 0x467 SWAP1 PUSH2 0x32E8 JUMP JUMPDEST PUSH1 0x0 DUP5 MLOAD GT PUSH2 0x1831 JUMPI PUSH1 0x40 MLOAD PUSH3 0x461BCD PUSH1 0xE5 SHL DUP2 MSTORE PUSH1 0x4 ADD PUSH2 0x467 SWAP1 PUSH2 0x3310 JUMP JUMPDEST PUSH1 0x0 DUP3 MLOAD GT PUSH2 0x1876 JUMPI PUSH1 0x40 MLOAD PUSH3 0x461BCD PUSH1 0xE5 SHL DUP2 MSTORE PUSH1 0x20 PUSH1 0x4 DUP3 ADD MSTORE PUSH1 0x11 PUSH1 0x24 DUP3 ADD MSTORE PUSH17 0x6572722D656D7074792D6D656D62657273 PUSH1 0x78 SHL PUSH1 0x44 DUP3 ADD MSTORE PUSH1 0x64 ADD PUSH2 0x467 JUMP JUMPDEST PUSH1 0x0 DUP2 DUP2 MSTORE PUSH1 0x5 PUSH1 0x20 SWAP1 DUP2 MSTORE PUSH1 0x40 SWAP1 SWAP2 KECCAK256 DUP5 MLOAD PUSH2 0x1895 SWAP3 DUP7 ADD SWAP1 PUSH2 0x29A9 JUMP JUMPDEST POP PUSH1 0x1 DUP1 SLOAD DUP1 DUP3 ADD DUP3 SSTORE PUSH1 0x0 SWAP2 SWAP1 SWAP2 MSTORE DUP5 MLOAD PUSH2 0x18D8 SWAP2 PUSH32 0xB10E2D527612073B26EECDFD717E6A320CF44B4AFAC2B0732D9FCBE2B7FA0CF6 ADD SWAP1 PUSH1 0x20 DUP8 ADD SWAP1 PUSH2 0x29A9 JUMP JUMPDEST POP PUSH1 0x0 JUMPDEST DUP3 MLOAD DUP2 LT ISZERO PUSH2 0x19A7 JUMPI PUSH2 0x1934 DUP4 DUP3 DUP2 MLOAD DUP2 LT PUSH2 0x1908 JUMPI PUSH4 0x4E487B71 PUSH1 0xE0 SHL PUSH1 0x0 MSTORE PUSH1 0x32 PUSH1 0x4 MSTORE PUSH1 0x24 PUSH1 0x0 REVERT JUMPDEST PUSH1 0x20 MUL PUSH1 0x20 ADD ADD MLOAD PUSH1 0x2 PUSH1 0x0 DUP6 DUP2 MSTORE PUSH1 0x20 ADD SWAP1 DUP2 MSTORE PUSH1 0x20 ADD PUSH1 0x0 KECCAK256 PUSH1 0x1 ADD PUSH2 0x27C5 SWAP1 SWAP2 SWAP1 PUSH4 0xFFFFFFFF AND JUMP JUMPDEST POP PUSH32 0xB1CE9C84087AF16E758E7041EEC971F57C833F4127F64F742C5B0EE14E0537D2 DUP6 DUP5 DUP4 DUP2 MLOAD DUP2 LT PUSH2 0x1977 JUMPI PUSH4 0x4E487B71 PUSH1 0xE0 SHL PUSH1 0x0 MSTORE PUSH1 0x32 PUSH1 0x4 MSTORE PUSH1 0x24 PUSH1 0x0 REVERT JUMPDEST PUSH1 0x20 MUL PUSH1 0x20 ADD ADD MLOAD PUSH1 0x40 MLOAD PUSH2 0x198D SWAP3 SWAP2 SWAP1 PUSH2 0x316F JUMP JUMPDEST PUSH1 0x40 MLOAD DUP1 SWAP2 SUB SWAP1 LOG1 DUP1 PUSH2 0x199F DUP2 PUSH2 0x3449 JUMP JUMPDEST SWAP2 POP POP PUSH2 0x18DC JUMP JUMPDEST POP PUSH32 0x234EB9D37ED58B55E52E99246BB2B0CEBB55311292E5D3DE44A6DF95A9AF2501 DUP5 DUP5 PUSH2 0x19D3 PUSH2 0x277A JUMP JUMPDEST PUSH1 0x40 MLOAD PUSH2 0x19E2 SWAP4 SWAP3 SWAP2 SWAP1 PUSH2 0x3199 JUMP JUMPDEST PUSH1 0x40 MLOAD DUP1 SWAP2 SUB SWAP1 LOG1 POP POP POP POP JUMP JUMPDEST PUSH1 0x0 CHAINID DUP4 DUP1 MLOAD SWAP1 PUSH1 0x20 ADD KECCAK256 PUSH1 0x40 MLOAD PUSH1 0x20 ADD PUSH2 0x1A15 SWAP3 SWAP2 SWAP1 SWAP2 DUP3 MSTORE PUSH1 0x20 DUP3 ADD MSTORE PUSH1 0x40 ADD SWAP1 JUMP JUMPDEST PUSH1 0x40 MLOAD PUSH1 0x20 DUP2 DUP4 SUB SUB DUP2 MSTORE SWAP1 PUSH1 0x40 MSTORE DUP1 MLOAD SWAP1 PUSH1 0x20 ADD KECCAK256 PUSH1 0x0 SHR SWAP1 POP PUSH2 0x1A3B PUSH2 0xAB6 PUSH2 0x277A JUMP JUMPDEST ISZERO ISZERO PUSH1 0x1 EQ PUSH2 0x1A5C JUMPI PUSH1 0x40 MLOAD PUSH3 0x461BCD PUSH1 0xE5 SHL DUP2 MSTORE PUSH1 0x4 ADD PUSH2 0x467 SWAP1 PUSH2 0x3367 JUMP JUMPDEST PUSH1 0x0 DUP2 DUP2 MSTORE PUSH1 0x2 PUSH1 0x20 MSTORE PUSH1 0x40 SWAP1 KECCAK256 PUSH2 0x1A77 SWAP1 PUSH1 0x1 ADD DUP4 PUSH2 0x27A0 JUMP JUMPDEST ISZERO PUSH2 0x1AB7 JUMPI PUSH1 0x40 MLOAD PUSH3 0x461BCD PUSH1 0xE5 SHL DUP2 MSTORE PUSH1 0x20 PUSH1 0x4 DUP3 ADD MSTORE PUSH1 0x10 PUSH1 0x24 DUP3 ADD MSTORE PUSH16 0x195C9C8B5B595B58995C8B595E1A5CDD PUSH1 0x82 SHL PUSH1 0x44 DUP3 ADD MSTORE PUSH1 0x64 ADD PUSH2 0x467 JUMP JUMPDEST PUSH1 0x0 DUP2 DUP2 MSTORE PUSH1 0x2 PUSH1 0x20 MSTORE PUSH1 0x40 SWAP1 KECCAK256 PUSH2 0x1AD2 SWAP1 PUSH1 0x1 ADD DUP4 PUSH2 0x27C5 JUMP JUMPDEST POP PUSH32 0xB1CE9C84087AF16E758E7041EEC971F57C833F4127F64F742C5B0EE14E0537D2 DUP4 DUP4 PUSH1 0x40 MLOAD PUSH2 0xBC1 SWAP3 SWAP2 SWAP1 PUSH2 0x316F JUMP JUMPDEST PUSH1 0x60 PUSH1 0x0 CHAINID DUP7 DUP1 MLOAD SWAP1 PUSH1 0x20 ADD KECCAK256 PUSH1 0x40 MLOAD PUSH1 0x20 ADD PUSH2 0x1B2B SWAP3 SWAP2 SWAP1 SWAP2 DUP3 MSTORE PUSH1 0x20 DUP3 ADD MSTORE PUSH1 0x40 ADD SWAP1 JUMP JUMPDEST PUSH1 0x40 DUP1 MLOAD PUSH1 0x1F NOT DUP2 DUP5 SUB ADD DUP2 MSTORE DUP3 DUP3 MSTORE DUP1 MLOAD PUSH1 0x20 SWAP2 DUP3 ADD KECCAK256 DUP9 MLOAD DUP10 DUP4 ADD KECCAK256 DUP3 DUP6 ADD DUP3 SWAP1 MSTORE DUP5 DUP5 ADD MSTORE DUP3 MLOAD DUP1 DUP6 SUB DUP5 ADD DUP2 MSTORE PUSH1 0x60 SWAP1 SWAP5 ADD SWAP1 SWAP3 MSTORE DUP3 MLOAD SWAP3 ADD SWAP2 SWAP1 SWAP2 KECCAK256 SWAP1 SWAP2 POP PUSH1 0x0 PUSH2 0x1B7B DUP6 DUP8 PUSH2 0x33D8 JUMP JUMPDEST SWAP1 POP PUSH1 0x0 PUSH2 0x1B89 DUP7 DUP4 PUSH2 0x33C0 JUMP JUMPDEST PUSH1 0x0 DUP5 DUP2 MSTORE PUSH1 0x3 PUSH1 0x20 MSTORE PUSH1 0x40 SWAP1 KECCAK256 SLOAD SWAP1 SWAP2 POP DUP2 GT ISZERO PUSH2 0x1BB3 JUMPI POP PUSH1 0x0 DUP3 DUP2 MSTORE PUSH1 0x3 PUSH1 0x20 MSTORE PUSH1 0x40 SWAP1 KECCAK256 SLOAD JUMPDEST PUSH1 0x0 PUSH2 0x1BBF DUP4 DUP4 PUSH2 0x33F7 JUMP JUMPDEST PUSH1 0x1 PUSH1 0x1 PUSH1 0x40 SHL SUB DUP2 GT ISZERO PUSH2 0x1BE4 JUMPI PUSH4 0x4E487B71 PUSH1 0xE0 SHL PUSH1 0x0 MSTORE PUSH1 0x41 PUSH1 0x4 MSTORE PUSH1 0x24 PUSH1 0x0 REVERT JUMPDEST PUSH1 0x40 MLOAD SWAP1 DUP1 DUP3 MSTORE DUP1 PUSH1 0x20 MUL PUSH1 0x20 ADD DUP3 ADD PUSH1 0x40 MSTORE DUP1 ISZERO PUSH2 0x1C17 JUMPI DUP2 PUSH1 0x20 ADD JUMPDEST PUSH1 0x60 DUP2 MSTORE PUSH1 0x20 ADD SWAP1 PUSH1 0x1 SWAP1 SUB SWAP1 DUP2 PUSH2 0x1C02 JUMPI SWAP1 POP JUMPDEST POP SWAP1 POP DUP3 JUMPDEST DUP3 DUP2 LT ISZERO PUSH2 0xF5F JUMPI PUSH1 0x0 DUP6 DUP2 MSTORE PUSH1 0x3 PUSH1 0x20 MSTORE PUSH1 0x40 SWAP1 KECCAK256 DUP1 SLOAD DUP3 SWAP1 DUP2 LT PUSH2 0x1C52 JUMPI PUSH4 0x4E487B71 PUSH1 0xE0 SHL PUSH1 0x0 MSTORE PUSH1 0x32 PUSH1 0x4 MSTORE PUSH1 0x24 PUSH1 0x0 REVERT JUMPDEST SWAP1 PUSH1 0x0 MSTORE PUSH1 0x20 PUSH1 0x0 KECCAK256 ADD DUP1 SLOAD PUSH2 0x1C67 SWAP1 PUSH2 0x340E JUMP JUMPDEST DUP1 PUSH1 0x1F ADD PUSH1 0x20 DUP1 SWAP2 DIV MUL PUSH1 0x20 ADD PUSH1 0x40 MLOAD SWAP1 DUP2 ADD PUSH1 0x40 MSTORE DUP1 SWAP3 SWAP2 SWAP1 DUP2 DUP2 MSTORE PUSH1 0x20 ADD DUP3 DUP1 SLOAD PUSH2 0x1C93 SWAP1 PUSH2 0x340E JUMP JUMPDEST DUP1 ISZERO PUSH2 0x1CE0 JUMPI DUP1 PUSH1 0x1F LT PUSH2 0x1CB5 JUMPI PUSH2 0x100 DUP1 DUP4 SLOAD DIV MUL DUP4 MSTORE SWAP2 PUSH1 0x20 ADD SWAP2 PUSH2 0x1CE0 JUMP JUMPDEST DUP3 ADD SWAP2 SWAP1 PUSH1 0x0 MSTORE PUSH1 0x20 PUSH1 0x0 KECCAK256 SWAP1 JUMPDEST DUP2 SLOAD DUP2 MSTORE SWAP1 PUSH1 0x1 ADD SWAP1 PUSH1 0x20 ADD DUP1 DUP4 GT PUSH2 0x1CC3 JUMPI DUP3 SWAP1 SUB PUSH1 0x1F AND DUP3 ADD SWAP2 JUMPDEST POP POP POP POP POP DUP3 DUP6 DUP4 PUSH2 0x1CF2 SWAP2 SWAP1 PUSH2 0x33F7 JUMP JUMPDEST DUP2 MLOAD DUP2 LT PUSH2 0x1D10 JUMPI PUSH4 0x4E487B71 PUSH1 0xE0 SHL PUSH1 0x0 MSTORE PUSH1 0x32 PUSH1 0x4 MSTORE PUSH1 0x24 PUSH1 0x0 REVERT JUMPDEST PUSH1 0x20 MUL PUSH1 0x20 ADD ADD DUP2 SWAP1 MSTORE POP DUP1 PUSH2 0x1D25 SWAP1 PUSH2 0x3449 JUMP JUMPDEST SWAP1 POP PUSH2 0x1C1C JUMP JUMPDEST PUSH1 0x60 PUSH1 0x0 CHAINID DUP6 DUP1 MLOAD SWAP1 PUSH1 0x20 ADD KECCAK256 PUSH1 0x40 MLOAD PUSH1 0x20 ADD PUSH2 0x1D53 SWAP3 SWAP2 SWAP1 SWAP2 DUP3 MSTORE PUSH1 0x20 DUP3 ADD MSTORE PUSH1 0x40 ADD SWAP1 JUMP JUMPDEST PUSH1 0x40 DUP1 MLOAD PUSH1 0x1F NOT DUP2 DUP5 SUB ADD DUP2 MSTORE SWAP2 SWAP1 MSTORE DUP1 MLOAD PUSH1 0x20 SWAP1 SWAP2 ADD KECCAK256 SWAP1 POP PUSH1 0x0 PUSH2 0x1D79 DUP5 DUP7 PUSH2 0x33D8 JUMP JUMPDEST SWAP1 POP PUSH1 0x0 PUSH2 0x1D87 DUP6 DUP4 PUSH2 0x33C0 JUMP JUMPDEST PUSH1 0x0 DUP5 DUP2 MSTORE PUSH1 0x2 PUSH1 0x20 MSTORE PUSH1 0x40 SWAP1 KECCAK256 SLOAD SWAP1 SWAP2 POP DUP2 GT ISZERO PUSH2 0x1DB1 JUMPI POP PUSH1 0x0 DUP3 DUP2 MSTORE PUSH1 0x2 PUSH1 0x20 MSTORE PUSH1 0x40 SWAP1 KECCAK256 SLOAD JUMPDEST PUSH1 0x0 PUSH2 0x1DBD DUP4 DUP4 PUSH2 0x33F7 JUMP JUMPDEST PUSH1 0x1 PUSH1 0x1 PUSH1 0x40 SHL SUB DUP2 GT ISZERO PUSH2 0x1DE2 JUMPI PUSH4 0x4E487B71 PUSH1 0xE0 SHL PUSH1 0x0 MSTORE PUSH1 0x41 PUSH1 0x4 MSTORE PUSH1 0x24 PUSH1 0x0 REVERT JUMPDEST PUSH1 0x40 MLOAD SWAP1 DUP1 DUP3 MSTORE DUP1 PUSH1 0x20 MUL PUSH1 0x20 ADD DUP3 ADD PUSH1 0x40 MSTORE DUP1 ISZERO PUSH2 0x1E15 JUMPI DUP2 PUSH1 0x20 ADD JUMPDEST PUSH1 0x60 DUP2 MSTORE PUSH1 0x20 ADD SWAP1 PUSH1 0x1 SWAP1 SUB SWAP1 DUP2 PUSH2 0x1E00 JUMPI SWAP1 POP JUMPDEST POP SWAP1 POP DUP3 JUMPDEST DUP3 DUP2 LT ISZERO PUSH2 0x1F2A JUMPI PUSH1 0x0 DUP6 DUP2 MSTORE PUSH1 0x2 PUSH1 0x20 MSTORE PUSH1 0x40 SWAP1 KECCAK256 DUP1 SLOAD DUP3 SWAP1 DUP2 LT PUSH2 0x1E50 JUMPI PUSH4 0x4E487B71 PUSH1 0xE0 SHL PUSH1 0x0 MSTORE PUSH1 0x32 PUSH1 0x4 MSTORE PUSH1 0x24 PUSH1 0x0 REVERT JUMPDEST SWAP1 PUSH1 0x0 MSTORE PUSH1 0x20 PUSH1 0x0 KECCAK256 ADD DUP1 SLOAD PUSH2 0x1E65 SWAP1 PUSH2 0x340E JUMP JUMPDEST DUP1 PUSH1 0x1F ADD PUSH1 0x20 DUP1 SWAP2 DIV MUL PUSH1 0x20 ADD PUSH1 0x40 MLOAD SWAP1 DUP2 ADD PUSH1 0x40 MSTORE DUP1 SWAP3 SWAP2 SWAP1 DUP2 DUP2 MSTORE PUSH1 0x20 ADD DUP3 DUP1 SLOAD PUSH2 0x1E91 SWAP1 PUSH2 0x340E JUMP JUMPDEST DUP1 ISZERO PUSH2 0x1EDE JUMPI DUP1 PUSH1 0x1F LT PUSH2 0x1EB3 JUMPI PUSH2 0x100 DUP1 DUP4 SLOAD DIV MUL DUP4 MSTORE SWAP2 PUSH1 0x20 ADD SWAP2 PUSH2 0x1EDE JUMP JUMPDEST DUP3 ADD SWAP2 SWAP1 PUSH1 0x0 MSTORE PUSH1 0x20 PUSH1 0x0 KECCAK256 SWAP1 JUMPDEST DUP2 SLOAD DUP2 MSTORE SWAP1 PUSH1 0x1 ADD SWAP1 PUSH1 0x20 ADD DUP1 DUP4 GT PUSH2 0x1EC1 JUMPI DUP3 SWAP1 SUB PUSH1 0x1F AND DUP3 ADD SWAP2 JUMPDEST POP POP POP POP POP DUP3 DUP6 DUP4 PUSH2 0x1EF0 SWAP2 SWAP1 PUSH2 0x33F7 JUMP JUMPDEST DUP2 MLOAD DUP2 LT PUSH2 0x1F0E JUMPI PUSH4 0x4E487B71 PUSH1 0xE0 SHL PUSH1 0x0 MSTORE PUSH1 0x32 PUSH1 0x4 MSTORE PUSH1 0x24 PUSH1 0x0 REVERT JUMPDEST PUSH1 0x20 MUL PUSH1 0x20 ADD ADD DUP2 SWAP1 MSTORE POP DUP1 PUSH2 0x1F23 SWAP1 PUSH2 0x3449 JUMP JUMPDEST SWAP1 POP PUSH2 0x1E1A JUMP JUMPDEST POP SWAP8 SWAP7 POP POP POP POP POP POP POP JUMP JUMPDEST PUSH1 0x60 PUSH1 0x0 CHAINID DUP8 DUP1 MLOAD SWAP1 PUSH1 0x20 ADD KECCAK256 PUSH1 0x40 MLOAD PUSH1 0x20 ADD PUSH2 0x1F5D SWAP3 SWAP2 SWAP1 SWAP2 DUP3 MSTORE PUSH1 0x20 DUP3 ADD MSTORE PUSH1 0x40 ADD SWAP1 JUMP JUMPDEST PUSH1 0x40 DUP1 MLOAD DUP1 DUP4 SUB PUSH1 0x1F NOT ADD DUP2 MSTORE DUP3 DUP3 MSTORE DUP1 MLOAD PUSH1 0x20 SWAP2 DUP3 ADD KECCAK256 DUP10 MLOAD DUP11 DUP4 ADD KECCAK256 SWAP2 DUP5 ADD DUP2 SWAP1 MSTORE SWAP2 DUP4 ADD MSTORE SWAP2 POP PUSH1 0x0 SWAP1 PUSH1 0x60 ADD PUSH1 0x40 DUP1 MLOAD DUP1 DUP4 SUB PUSH1 0x1F NOT ADD DUP2 MSTORE DUP3 DUP3 MSTORE DUP1 MLOAD PUSH1 0x20 SWAP2 DUP3 ADD KECCAK256 DUP10 MLOAD DUP11 DUP4 ADD KECCAK256 SWAP2 DUP5 ADD DUP2 SWAP1 MSTORE SWAP2 DUP4 ADD MSTORE SWAP2 POP PUSH1 0x0 SWAP1 PUSH1 0x60 ADD PUSH1 0x40 DUP1 MLOAD PUSH1 0x1F NOT DUP2 DUP5 SUB ADD DUP2 MSTORE SWAP2 SWAP1 MSTORE DUP1 MLOAD PUSH1 0x20 SWAP1 SWAP2 ADD KECCAK256 SWAP1 POP PUSH1 0x0 PUSH2 0x1FE3 DUP7 DUP9 PUSH2 0x33D8 JUMP JUMPDEST SWAP1 POP PUSH1 0x0 PUSH2 0x1FF1 DUP8 DUP4 PUSH2 0x33C0 JUMP JUMPDEST PUSH1 0x0 DUP5 DUP2 MSTORE PUSH1 0x4 PUSH1 0x20 MSTORE PUSH1 0x40 SWAP1 KECCAK256 SWAP1 SWAP2 POP PUSH2 0x200B SWAP1 PUSH2 0x27EF JUMP JUMPDEST DUP2 GT ISZERO PUSH2 0x202C JUMPI PUSH1 0x0 DUP4 DUP2 MSTORE PUSH1 0x4 PUSH1 0x20 MSTORE PUSH1 0x40 SWAP1 KECCAK256 PUSH2 0x2029 SWAP1 PUSH2 0x27EF JUMP JUMPDEST SWAP1 POP JUMPDEST PUSH1 0x0 PUSH2 0x2038 DUP4 DUP4 PUSH2 0x33F7 JUMP JUMPDEST PUSH1 0x1 PUSH1 0x1 PUSH1 0x40 SHL SUB DUP2 GT ISZERO PUSH2 0x205D JUMPI PUSH4 0x4E487B71 PUSH1 0xE0 SHL PUSH1 0x0 MSTORE PUSH1 0x41 PUSH1 0x4 MSTORE PUSH1 0x24 PUSH1 0x0 REVERT JUMPDEST PUSH1 0x40 MLOAD SWAP1 DUP1 DUP3 MSTORE DUP1 PUSH1 0x20 MUL PUSH1 0x20 ADD DUP3 ADD PUSH1 0x40 MSTORE DUP1 ISZERO PUSH2 0x2086 JUMPI DUP2 PUSH1 0x20 ADD PUSH1 0x20 DUP3 MUL DUP1 CALLDATASIZE DUP4 CALLDATACOPY ADD SWAP1 POP JUMPDEST POP SWAP1 POP DUP3 JUMPDEST DUP3 DUP2 LT ISZERO PUSH2 0x8B7 JUMPI PUSH1 0x0 DUP6 DUP2 MSTORE PUSH1 0x4 PUSH1 0x20 MSTORE PUSH1 0x40 SWAP1 KECCAK256 PUSH2 0x20AB SWAP1 DUP3 PUSH2 0x27F9 JUMP JUMPDEST DUP3 PUSH2 0x20B6 DUP7 DUP5 PUSH2 0x33F7 JUMP JUMPDEST DUP2 MLOAD DUP2 LT PUSH2 0x20D4 JUMPI PUSH4 0x4E487B71 PUSH1 0xE0 SHL PUSH1 0x0 MSTORE PUSH1 0x32 PUSH1 0x4 MSTORE PUSH1 0x24 PUSH1 0x0 REVERT JUMPDEST PUSH1 0x1 PUSH1 0x1 PUSH1 0xA0 SHL SUB SWAP1 SWAP3 AND PUSH1 0x20 SWAP3 DUP4 MUL SWAP2 SWAP1 SWAP2 ADD SWAP1 SWAP2 ADD MSTORE PUSH2 0x20F5 DUP2 PUSH2 0x3449 JUMP JUMPDEST SWAP1 POP PUSH2 0x208B JUMP JUMPDEST PUSH1 0x0 CHAINID DUP5 DUP1 MLOAD SWAP1 PUSH1 0x20 ADD KECCAK256 PUSH1 0x40 MLOAD PUSH1 0x20 ADD PUSH2 0x2121 SWAP3 SWAP2 SWAP1 SWAP2 DUP3 MSTORE PUSH1 0x20 DUP3 ADD MSTORE PUSH1 0x40 ADD SWAP1 JUMP JUMPDEST PUSH1 0x40 DUP1 MLOAD PUSH1 0x1F NOT DUP2 DUP5 SUB ADD DUP2 MSTORE DUP3 DUP3 MSTORE DUP1 MLOAD PUSH1 0x20 SWAP2 DUP3 ADD KECCAK256 DUP7 MLOAD DUP8 DUP4 ADD KECCAK256 DUP3 DUP6 ADD DUP3 SWAP1 MSTORE DUP5 DUP5 ADD MSTORE DUP3 MLOAD DUP1 DUP6 SUB DUP5 ADD DUP2 MSTORE PUSH1 0x60 DUP6 ADD DUP5 MSTORE DUP1 MLOAD SWAP1 DUP4 ADD KECCAK256 DUP7 MLOAD DUP8 DUP5 ADD KECCAK256 PUSH1 0x80 DUP7 ADD DUP3 SWAP1 MSTORE PUSH1 0xA0 DUP1 DUP8 ADD SWAP2 SWAP1 SWAP2 MSTORE DUP5 MLOAD DUP1 DUP8 SUB SWAP1 SWAP2 ADD DUP2 MSTORE PUSH1 0xC0 SWAP1 SWAP6 ADD DUP5 MSTORE DUP5 MLOAD SWAP5 DUP4 ADD SWAP5 SWAP1 SWAP5 KECCAK256 PUSH1 0x0 DUP2 DUP2 MSTORE PUSH1 0x5 SWAP1 SWAP4 MSTORE SWAP3 DUP3 KECCAK256 DUP1 SLOAD SWAP2 SWAP6 POP SWAP1 PUSH2 0x21AA SWAP1 PUSH2 0x340E JUMP JUMPDEST SWAP1 POP GT PUSH2 0x21C9 JUMPI PUSH1 0x40 MLOAD PUSH3 0x461BCD PUSH1 0xE5 SHL DUP2 MSTORE PUSH1 0x4 ADD PUSH2 0x467 SWAP1 PUSH2 0x3338 JUMP JUMPDEST PUSH2 0x21EB PUSH2 0x21D4 PUSH2 0x277A JUMP JUMPDEST PUSH1 0x0 DUP4 DUP2 MSTORE PUSH1 0x4 PUSH1 0x20 MSTORE PUSH1 0x40 SWAP1 KECCAK256 PUSH1 0x2 ADD SWAP1 PUSH2 0x27C5 JUMP JUMPDEST POP PUSH2 0x220B PUSH2 0x21F7 PUSH2 0x277A JUMP JUMPDEST PUSH1 0x0 DUP4 DUP2 MSTORE PUSH1 0x4 PUSH1 0x20 MSTORE PUSH1 0x40 SWAP1 KECCAK256 SWAP1 PUSH2 0x27DA JUMP JUMPDEST POP PUSH32 0x30CA79684C561B1B6FBDA88D9779021EB510471EA1DF05C10DC39C46D6ED94EB DUP7 DUP7 DUP7 PUSH2 0x6C8 PUSH2 0x277A JUMP JUMPDEST PUSH1 0x60 PUSH1 0x0 CHAINID DUP6 DUP1 MLOAD SWAP1 PUSH1 0x20 ADD KECCAK256 PUSH1 0x40 MLOAD PUSH1 0x20 ADD PUSH2 0x225F SWAP3 SWAP2 SWAP1 SWAP2 DUP3 MSTORE PUSH1 0x20 DUP3 ADD MSTORE PUSH1 0x40 ADD SWAP1 JUMP JUMPDEST PUSH1 0x40 DUP1 MLOAD PUSH1 0x1F NOT DUP2 DUP5 SUB ADD DUP2 MSTORE DUP3 DUP3 MSTORE DUP1 MLOAD PUSH1 0x20 SWAP2 DUP3 ADD KECCAK256 DUP8 MLOAD DUP9 DUP4 ADD KECCAK256 DUP3 DUP6 ADD DUP3 SWAP1 MSTORE DUP5 DUP5 ADD MSTORE DUP3 MLOAD DUP1 DUP6 SUB DUP5 ADD DUP2 MSTORE PUSH1 0x60 DUP6 ADD DUP5 MSTORE DUP1 MLOAD SWAP1 DUP4 ADD KECCAK256 DUP8 MLOAD DUP9 DUP5 ADD KECCAK256 PUSH1 0x80 DUP7 ADD DUP3 SWAP1 MSTORE PUSH1 0xA0 DUP1 DUP8 ADD SWAP2 SWAP1 SWAP2 MSTORE DUP5 MLOAD DUP1 DUP8 SUB SWAP1 SWAP2 ADD DUP2 MSTORE PUSH1 0xC0 SWAP1 SWAP6 ADD DUP5 MSTORE DUP5 MLOAD SWAP5 DUP4 ADD SWAP5 SWAP1 SWAP5 KECCAK256 PUSH1 0x0 DUP2 DUP2 MSTORE PUSH1 0x5 SWAP1 SWAP4 MSTORE SWAP3 DUP3 KECCAK256 DUP1 SLOAD SWAP2 SWAP6 POP SWAP1 PUSH2 0x22E8 SWAP1 PUSH2 0x340E JUMP JUMPDEST SWAP1 POP GT PUSH2 0x2307 JUMPI PUSH1 0x40 MLOAD PUSH3 0x461BCD PUSH1 0xE5 SHL DUP2 MSTORE PUSH1 0x4 ADD PUSH2 0x467 SWAP1 PUSH2 0x3338 JUMP JUMPDEST PUSH1 0x0 DUP2 DUP2 MSTORE PUSH1 0x5 PUSH1 0x20 MSTORE PUSH1 0x40 SWAP1 KECCAK256 DUP1 SLOAD PUSH2 0x2320 SWAP1 PUSH2 0x340E JUMP JUMPDEST DUP1 PUSH1 0x1F ADD PUSH1 0x20 DUP1 SWAP2 DIV MUL PUSH1 0x20 ADD PUSH1 0x40 MLOAD SWAP1 DUP2 ADD PUSH1 0x40 MSTORE DUP1 SWAP3 SWAP2 SWAP1 DUP2 DUP2 MSTORE PUSH1 0x20 ADD DUP3 DUP1 SLOAD PUSH2 0x234C SWAP1 PUSH2 0x340E JUMP JUMPDEST DUP1 ISZERO PUSH2 0x2399 JUMPI DUP1 PUSH1 0x1F LT PUSH2 0x236E JUMPI PUSH2 0x100 DUP1 DUP4 SLOAD DIV MUL DUP4 MSTORE SWAP2 PUSH1 0x20 ADD SWAP2 PUSH2 0x2399 JUMP JUMPDEST DUP3 ADD SWAP2 SWAP1 PUSH1 0x0 MSTORE PUSH1 0x20 PUSH1 0x0 KECCAK256 SWAP1 JUMPDEST DUP2 SLOAD DUP2 MSTORE SWAP1 PUSH1 0x1 ADD SWAP1 PUSH1 0x20 ADD DUP1 DUP4 GT PUSH2 0x237C JUMPI DUP3 SWAP1 SUB PUSH1 0x1F AND DUP3 ADD SWAP2 JUMPDEST POP POP POP POP POP SWAP4 POP POP POP POP SWAP4 SWAP3 POP POP POP JUMP JUMPDEST PUSH1 0x60 PUSH1 0x0 CHAINID DUP6 DUP1 MLOAD SWAP1 PUSH1 0x20 ADD KECCAK256 PUSH1 0x40 MLOAD PUSH1 0x20 ADD PUSH2 0x23D1 SWAP3 SWAP2 SWAP1 SWAP2 DUP3 MSTORE PUSH1 0x20 DUP3 ADD MSTORE PUSH1 0x40 ADD SWAP1 JUMP JUMPDEST PUSH1 0x40 DUP1 MLOAD PUSH1 0x1F NOT DUP2 DUP5 SUB ADD DUP2 MSTORE SWAP2 SWAP1 MSTORE DUP1 MLOAD PUSH1 0x20 SWAP1 SWAP2 ADD KECCAK256 SWAP1 POP PUSH1 0x0 PUSH2 0x23F7 DUP5 DUP7 PUSH2 0x33D8 JUMP JUMPDEST SWAP1 POP PUSH1 0x0 PUSH2 0x2405 DUP6 DUP4 PUSH2 0x33C0 JUMP JUMPDEST PUSH1 0x0 DUP5 DUP2 MSTORE PUSH1 0x2 PUSH1 0x20 MSTORE PUSH1 0x40 SWAP1 KECCAK256 SWAP1 SWAP2 POP PUSH2 0x2422 SWAP1 PUSH1 0x1 ADD PUSH2 0x27EF JUMP JUMPDEST DUP2 GT ISZERO PUSH2 0x2446 JUMPI PUSH1 0x0 DUP4 DUP2 MSTORE PUSH1 0x2 PUSH1 0x20 MSTORE PUSH1 0x40 SWAP1 KECCAK256 PUSH2 0x2443 SWAP1 PUSH1 0x1 ADD PUSH2 0x27EF JUMP JUMPDEST SWAP1 POP JUMPDEST PUSH1 0x0 PUSH2 0x2452 DUP4 DUP4 PUSH2 0x33F7 JUMP JUMPDEST PUSH1 0x1 PUSH1 0x1 PUSH1 0x40 SHL SUB DUP2 GT ISZERO PUSH2 0x2477 JUMPI PUSH4 0x4E487B71 PUSH1 0xE0 SHL PUSH1 0x0 MSTORE PUSH1 0x41 PUSH1 0x4 MSTORE PUSH1 0x24 PUSH1 0x0 REVERT JUMPDEST PUSH1 0x40 MLOAD SWAP1 DUP1 DUP3 MSTORE DUP1 PUSH1 0x20 MUL PUSH1 0x20 ADD DUP3 ADD PUSH1 0x40 MSTORE DUP1 ISZERO PUSH2 0x24A0 JUMPI DUP2 PUSH1 0x20 ADD PUSH1 0x20 DUP3 MUL DUP1 CALLDATASIZE DUP4 CALLDATACOPY ADD SWAP1 POP JUMPDEST POP SWAP1 POP DUP3 JUMPDEST DUP3 DUP2 LT ISZERO PUSH2 0x1F2A JUMPI PUSH1 0x0 DUP6 DUP2 MSTORE PUSH1 0x2 PUSH1 0x20 MSTORE PUSH1 0x40 SWAP1 KECCAK256 PUSH2 0x24C8 SWAP1 PUSH1 0x1 ADD DUP3 PUSH2 0x27F9 JUMP JUMPDEST DUP3 PUSH2 0x24D3 DUP7 DUP5 PUSH2 0x33F7 JUMP JUMPDEST DUP2 MLOAD DUP2 LT PUSH2 0x24F1 JUMPI PUSH4 0x4E487B71 PUSH1 0xE0 SHL PUSH1 0x0 MSTORE PUSH1 0x32 PUSH1 0x4 MSTORE PUSH1 0x24 PUSH1 0x0 REVERT JUMPDEST PUSH1 0x1 PUSH1 0x1 PUSH1 0xA0 SHL SUB SWAP1 SWAP3 AND PUSH1 0x20 SWAP3 DUP4 MUL SWAP2 SWAP1 SWAP2 ADD SWAP1 SWAP2 ADD MSTORE PUSH2 0x2512 DUP2 PUSH2 0x3449 JUMP JUMPDEST SWAP1 POP PUSH2 0x24A5 JUMP JUMPDEST PUSH1 0x0 CHAINID DUP4 DUP1 MLOAD SWAP1 PUSH1 0x20 ADD KECCAK256 PUSH1 0x40 MLOAD PUSH1 0x20 ADD PUSH2 0x253E SWAP3 SWAP2 SWAP1 SWAP2 DUP3 MSTORE PUSH1 0x20 DUP3 ADD MSTORE PUSH1 0x40 ADD SWAP1 JUMP JUMPDEST PUSH1 0x40 MLOAD PUSH1 0x20 DUP2 DUP4 SUB SUB DUP2 MSTORE SWAP1 PUSH1 0x40 MSTORE DUP1 MLOAD SWAP1 PUSH1 0x20 ADD KECCAK256 PUSH1 0x0 SHR SWAP1 POP PUSH2 0x2564 PUSH2 0xAB6 PUSH2 0x277A JUMP JUMPDEST ISZERO ISZERO PUSH1 0x1 EQ PUSH2 0x2585 JUMPI PUSH1 0x40 MLOAD PUSH3 0x461BCD PUSH1 0xE5 SHL DUP2 MSTORE PUSH1 0x4 ADD PUSH2 0x467 SWAP1 PUSH2 0x3367 JUMP JUMPDEST PUSH1 0x0 DUP2 DUP2 MSTORE PUSH1 0x2 PUSH1 0x20 MSTORE PUSH1 0x40 SWAP1 KECCAK256 PUSH2 0x25A0 SWAP1 PUSH1 0x1 ADD DUP4 PUSH2 0x27A0 JUMP JUMPDEST ISZERO ISZERO PUSH1 0x1 EQ PUSH2 0x25E8 JUMPI PUSH1 0x40 MLOAD PUSH3 0x461BCD PUSH1 0xE5 SHL DUP2 MSTORE PUSH1 0x20 PUSH1 0x4 DUP3 ADD MSTORE PUSH1 0x14 PUSH1 0x24 DUP3 ADD MSTORE PUSH20 0x195C9C8B5B595B58995C8B5B9BDD0B595E1A5CDD PUSH1 0x62 SHL PUSH1 0x44 DUP3 ADD MSTORE PUSH1 0x64 ADD PUSH2 0x467 JUMP JUMPDEST PUSH1 0x0 DUP2 DUP2 MSTORE PUSH1 0x2 PUSH1 0x20 MSTORE PUSH1 0x40 SWAP1 KECCAK256 PUSH2 0x2603 SWAP1 PUSH1 0x1 ADD DUP4 PUSH2 0x27DA JUMP JUMPDEST POP PUSH32 0xBD84F6BE96016AA1D03FD0C0CE516DA6B2E352520BDDD280C744C6C79A378512 DUP4 DUP4 PUSH1 0x40 MLOAD PUSH2 0xBC1 SWAP3 SWAP2 SWAP1 PUSH2 0x316F JUMP JUMPDEST PUSH1 0x0 CHAINID DUP5 DUP1 MLOAD SWAP1 PUSH1 0x20 ADD KECCAK256 PUSH1 0x40 MLOAD PUSH1 0x20 ADD PUSH2 0x265A SWAP3 SWAP2 SWAP1 SWAP2 DUP3 MSTORE PUSH1 0x20 DUP3 ADD MSTORE PUSH1 0x40 ADD SWAP1 JUMP JUMPDEST PUSH1 0x40 DUP1 MLOAD PUSH1 0x1F NOT DUP2 DUP5 SUB ADD DUP2 MSTORE DUP3 DUP3 MSTORE DUP1 MLOAD PUSH1 0x20 SWAP2 DUP3 ADD KECCAK256 DUP7 MLOAD DUP8 DUP4 ADD KECCAK256 DUP3 DUP6 ADD DUP3 SWAP1 MSTORE DUP5 DUP5 ADD MSTORE DUP3 MLOAD DUP1 DUP6 SUB DUP5 ADD DUP2 MSTORE PUSH1 0x60 SWAP1 SWAP5 ADD SWAP1 SWAP3 MSTORE DUP3 MLOAD SWAP3 ADD SWAP2 SWAP1 SWAP2 KECCAK256 SWAP1 SWAP2 POP PUSH2 0x26A9 PUSH2 0x97A PUSH2 0x277A JUMP JUMPDEST PUSH2 0x26C5 JUMPI PUSH1 0x40 MLOAD PUSH3 0x461BCD PUSH1 0xE5 SHL DUP2 MSTORE PUSH1 0x4 ADD PUSH2 0x467 SWAP1 PUSH2 0x3367 JUMP JUMPDEST PUSH1 0x0 DUP2 DUP2 MSTORE PUSH1 0x5 PUSH1 0x20 MSTORE PUSH1 0x40 DUP2 KECCAK256 DUP1 SLOAD PUSH2 0x26DE SWAP1 PUSH2 0x340E JUMP JUMPDEST SWAP1 POP GT PUSH2 0x26FD JUMPI PUSH1 0x40 MLOAD PUSH3 0x461BCD PUSH1 0xE5 SHL DUP2 MSTORE PUSH1 0x4 ADD PUSH2 0x467 SWAP1 PUSH2 0x3292 JUMP JUMPDEST PUSH1 0x0 DUP4 MLOAD GT PUSH2 0x271E JUMPI PUSH1 0x40 MLOAD PUSH3 0x461BCD PUSH1 0xE5 SHL DUP2 MSTORE PUSH1 0x4 ADD PUSH2 0x467 SWAP1 PUSH2 0x32E8 JUMP JUMPDEST PUSH1 0x0 DUP2 DUP2 MSTORE PUSH1 0x5 PUSH1 0x20 SWAP1 DUP2 MSTORE PUSH1 0x40 SWAP1 SWAP2 KECCAK256 DUP5 MLOAD PUSH2 0x273D SWAP3 DUP7 ADD SWAP1 PUSH2 0x29A9 JUMP JUMPDEST POP PUSH32 0xD837747757BF732C911148D7C5825D52DE171F849E76143EEC98FA514E263C8A DUP6 DUP6 DUP6 PUSH2 0x276A PUSH2 0x277A JUMP JUMPDEST PUSH1 0x40 MLOAD PUSH2 0xA5C SWAP5 SWAP4 SWAP3 SWAP2 SWAP1 PUSH2 0x31D7 JUMP JUMPDEST PUSH1 0x0 DUP1 SLOAD PUSH1 0x1 PUSH1 0x1 PUSH1 0xA0 SHL SUB AND CALLER EQ ISZERO PUSH2 0x279B JUMPI POP PUSH1 0x13 NOT CALLDATASIZE ADD CALLDATALOAD PUSH1 0x60 SHR SWAP1 JUMP JUMPDEST POP CALLER SWAP1 JUMP JUMPDEST PUSH1 0x1 PUSH1 0x1 PUSH1 0xA0 SHL SUB DUP2 AND PUSH1 0x0 SWAP1 DUP2 MSTORE PUSH1 0x1 DUP4 ADD PUSH1 0x20 MSTORE PUSH1 0x40 DUP2 KECCAK256 SLOAD ISZERO ISZERO JUMPDEST SWAP4 SWAP3 POP POP POP JUMP JUMPDEST PUSH1 0x0 PUSH2 0x27BE DUP4 PUSH1 0x1 PUSH1 0x1 PUSH1 0xA0 SHL SUB DUP5 AND PUSH2 0x2805 JUMP JUMPDEST PUSH1 0x0 PUSH2 0x27BE DUP4 PUSH1 0x1 PUSH1 0x1 PUSH1 0xA0 SHL SUB DUP5 AND PUSH2 0x2854 JUMP JUMPDEST PUSH1 0x0 PUSH2 0xD32 DUP3 SLOAD SWAP1 JUMP JUMPDEST PUSH1 0x0 PUSH2 0x27BE DUP4 DUP4 PUSH2 0x2971 JUMP JUMPDEST PUSH1 0x0 DUP2 DUP2 MSTORE PUSH1 0x1 DUP4 ADD PUSH1 0x20 MSTORE PUSH1 0x40 DUP2 KECCAK256 SLOAD PUSH2 0x284C JUMPI POP DUP2 SLOAD PUSH1 0x1 DUP2 DUP2 ADD DUP5 SSTORE PUSH1 0x0 DUP5 DUP2 MSTORE PUSH1 0x20 DUP1 DUP3 KECCAK256 SWAP1 SWAP4 ADD DUP5 SWAP1 SSTORE DUP5 SLOAD DUP5 DUP3 MSTORE DUP3 DUP7 ADD SWAP1 SWAP4 MSTORE PUSH1 0x40 SWAP1 KECCAK256 SWAP2 SWAP1 SWAP2 SSTORE PUSH2 0xD32 JUMP JUMPDEST POP PUSH1 0x0 PUSH2 0xD32 JUMP JUMPDEST PUSH1 0x0 DUP2 DUP2 MSTORE PUSH1 0x1 DUP4 ADD PUSH1 0x20 MSTORE PUSH1 0x40 DUP2 KECCAK256 SLOAD DUP1 ISZERO PUSH2 0x2967 JUMPI PUSH1 0x0 PUSH2 0x2878 PUSH1 0x1 DUP4 PUSH2 0x33F7 JUMP JUMPDEST DUP6 SLOAD SWAP1 SWAP2 POP PUSH1 0x0 SWAP1 PUSH2 0x288C SWAP1 PUSH1 0x1 SWAP1 PUSH2 0x33F7 JUMP JUMPDEST SWAP1 POP DUP2 DUP2 EQ PUSH2 0x290D JUMPI PUSH1 0x0 DUP7 PUSH1 0x0 ADD DUP3 DUP2 SLOAD DUP2 LT PUSH2 0x28BA JUMPI PUSH4 0x4E487B71 PUSH1 0xE0 SHL PUSH1 0x0 MSTORE PUSH1 0x32 PUSH1 0x4 MSTORE PUSH1 0x24 PUSH1 0x0 REVERT JUMPDEST SWAP1 PUSH1 0x0 MSTORE PUSH1 0x20 PUSH1 0x0 KECCAK256 ADD SLOAD SWAP1 POP DUP1 DUP8 PUSH1 0x0 ADD DUP5 DUP2 SLOAD DUP2 LT PUSH2 0x28EB JUMPI PUSH4 0x4E487B71 PUSH1 0xE0 SHL PUSH1 0x0 MSTORE PUSH1 0x32 PUSH1 0x4 MSTORE PUSH1 0x24 PUSH1 0x0 REVERT JUMPDEST PUSH1 0x0 SWAP2 DUP3 MSTORE PUSH1 0x20 DUP1 DUP4 KECCAK256 SWAP1 SWAP2 ADD SWAP3 SWAP1 SWAP3 SSTORE SWAP2 DUP3 MSTORE PUSH1 0x1 DUP9 ADD SWAP1 MSTORE PUSH1 0x40 SWAP1 KECCAK256 DUP4 SWAP1 SSTORE JUMPDEST DUP6 SLOAD DUP7 SWAP1 DUP1 PUSH2 0x292C JUMPI PUSH4 0x4E487B71 PUSH1 0xE0 SHL PUSH1 0x0 MSTORE PUSH1 0x31 PUSH1 0x4 MSTORE PUSH1 0x24 PUSH1 0x0 REVERT JUMPDEST PUSH1 0x1 SWAP1 SUB DUP2 DUP2 SWAP1 PUSH1 0x0 MSTORE PUSH1 0x20 PUSH1 0x0 KECCAK256 ADD PUSH1 0x0 SWAP1 SSTORE SWAP1 SSTORE DUP6 PUSH1 0x1 ADD PUSH1 0x0 DUP7 DUP2 MSTORE PUSH1 0x20 ADD SWAP1 DUP2 MSTORE PUSH1 0x20 ADD PUSH1 0x0 KECCAK256 PUSH1 0x0 SWAP1 SSTORE PUSH1 0x1 SWAP4 POP POP POP POP PUSH2 0xD32 JUMP JUMPDEST PUSH1 0x0 SWAP2 POP POP PUSH2 0xD32 JUMP JUMPDEST PUSH1 0x0 DUP3 PUSH1 0x0 ADD DUP3 DUP2 SLOAD DUP2 LT PUSH2 0x2996 JUMPI PUSH4 0x4E487B71 PUSH1 0xE0 SHL PUSH1 0x0 MSTORE PUSH1 0x32 PUSH1 0x4 MSTORE PUSH1 0x24 PUSH1 0x0 REVERT JUMPDEST SWAP1 PUSH1 0x0 MSTORE PUSH1 0x20 PUSH1 0x0 KECCAK256 ADD SLOAD SWAP1 POP SWAP3 SWAP2 POP POP JUMP JUMPDEST DUP3 DUP1 SLOAD PUSH2 0x29B5 SWAP1 PUSH2 0x340E JUMP JUMPDEST SWAP1 PUSH1 0x0 MSTORE PUSH1 0x20 PUSH1 0x0 KECCAK256 SWAP1 PUSH1 0x1F ADD PUSH1 0x20 SWAP1 DIV DUP2 ADD SWAP3 DUP3 PUSH2 0x29D7 JUMPI PUSH1 0x0 DUP6 SSTORE PUSH2 0x2A1D JUMP JUMPDEST DUP3 PUSH1 0x1F LT PUSH2 0x29F0 JUMPI DUP1 MLOAD PUSH1 0xFF NOT AND DUP4 DUP1 ADD OR DUP6 SSTORE PUSH2 0x2A1D JUMP JUMPDEST DUP3 DUP1 ADD PUSH1 0x1 ADD DUP6 SSTORE DUP3 ISZERO PUSH2 0x2A1D JUMPI SWAP2 DUP3 ADD JUMPDEST DUP3 DUP2 GT ISZERO PUSH2 0x2A1D JUMPI DUP3 MLOAD DUP3 SSTORE SWAP2 PUSH1 0x20 ADD SWAP2 SWAP1 PUSH1 0x1 ADD SWAP1 PUSH2 0x2A02 JUMP JUMPDEST POP PUSH2 0x2A29 SWAP3 SWAP2 POP PUSH2 0x2A2D JUMP JUMPDEST POP SWAP1 JUMP JUMPDEST JUMPDEST DUP1 DUP3 GT ISZERO PUSH2 0x2A29 JUMPI PUSH1 0x0 DUP2 SSTORE PUSH1 0x1 ADD PUSH2 0x2A2E JUMP JUMPDEST DUP1 CALLDATALOAD PUSH1 0x1 PUSH1 0x1 PUSH1 0xA0 SHL SUB DUP2 AND DUP2 EQ PUSH2 0x2A59 JUMPI PUSH1 0x0 DUP1 REVERT JUMPDEST SWAP2 SWAP1 POP JUMP JUMPDEST PUSH1 0x0 DUP3 PUSH1 0x1F DUP4 ADD SLT PUSH2 0x2A6E JUMPI DUP1 DUP2 REVERT JUMPDEST DUP2 CALLDATALOAD PUSH1 0x20 PUSH1 0x1 PUSH1 0x1 PUSH1 0x40 SHL SUB DUP3 GT ISZERO PUSH2 0x2A89 JUMPI PUSH2 0x2A89 PUSH2 0x347A JUMP JUMPDEST DUP2 PUSH1 0x5 SHL PUSH2 0x2A98 DUP3 DUP3 ADD PUSH2 0x3390 JUMP JUMPDEST DUP4 DUP2 MSTORE DUP3 DUP2 ADD SWAP1 DUP7 DUP5 ADD DUP4 DUP9 ADD DUP6 ADD DUP10 LT ISZERO PUSH2 0x2AB2 JUMPI DUP7 DUP8 REVERT JUMPDEST DUP7 SWAP4 POP JUMPDEST DUP6 DUP5 LT ISZERO PUSH2 0x1F2A JUMPI PUSH2 0x2AC7 DUP2 PUSH2 0x2A42 JUMP JUMPDEST DUP4 MSTORE PUSH1 0x1 SWAP4 SWAP1 SWAP4 ADD SWAP3 SWAP2 DUP5 ADD SWAP2 DUP5 ADD PUSH2 0x2AB6 JUMP JUMPDEST PUSH1 0x0 DUP3 PUSH1 0x1F DUP4 ADD SLT PUSH2 0x2AEB JUMPI DUP1 DUP2 REVERT JUMPDEST DUP2 CALLDATALOAD PUSH1 0x1 PUSH1 0x1 PUSH1 0x40 SHL SUB DUP2 GT ISZERO PUSH2 0x2B04 JUMPI PUSH2 0x2B04 PUSH2 0x347A JUMP JUMPDEST PUSH2 0x2B17 PUSH1 0x1F DUP3 ADD PUSH1 0x1F NOT AND PUSH1 0x20 ADD PUSH2 0x3390 JUMP JUMPDEST DUP2 DUP2 MSTORE DUP5 PUSH1 0x20 DUP4 DUP7 ADD ADD GT ISZERO PUSH2 0x2B2B JUMPI DUP3 DUP4 REVERT JUMPDEST DUP2 PUSH1 0x20 DUP6 ADD PUSH1 0x20 DUP4 ADD CALLDATACOPY SWAP1 DUP2 ADD PUSH1 0x20 ADD SWAP2 SWAP1 SWAP2 MSTORE SWAP3 SWAP2 POP POP JUMP JUMPDEST PUSH1 0x0 PUSH1 0x20 DUP3 DUP5 SUB SLT ISZERO PUSH2 0x2B56 JUMPI DUP1 DUP2 REVERT JUMPDEST PUSH2 0x27BE DUP3 PUSH2 0x2A42 JUMP JUMPDEST PUSH1 0x0 PUSH1 0x20 DUP3 DUP5 SUB SLT ISZERO PUSH2 0x2B70 JUMPI DUP1 DUP2 REVERT JUMPDEST DUP2 CALLDATALOAD PUSH1 0x1 PUSH1 0x1 PUSH1 0x40 SHL SUB DUP2 GT ISZERO PUSH2 0x2B85 JUMPI DUP2 DUP3 REVERT JUMPDEST PUSH2 0x2B91 DUP5 DUP3 DUP6 ADD PUSH2 0x2ADB JUMP JUMPDEST SWAP5 SWAP4 POP POP POP POP JUMP JUMPDEST PUSH1 0x0 DUP1 PUSH1 0x40 DUP4 DUP6 SUB SLT ISZERO PUSH2 0x2BAB JUMPI DUP1 DUP2 REVERT JUMPDEST DUP3 CALLDATALOAD PUSH1 0x1 PUSH1 0x1 PUSH1 0x40 SHL SUB DUP2 GT ISZERO PUSH2 0x2BC0 JUMPI DUP2 DUP3 REVERT JUMPDEST PUSH2 0x2BCC DUP6 DUP3 DUP7 ADD PUSH2 0x2ADB JUMP JUMPDEST SWAP3 POP POP PUSH2 0x2BDB PUSH1 0x20 DUP5 ADD PUSH2 0x2A42 JUMP JUMPDEST SWAP1 POP SWAP3 POP SWAP3 SWAP1 POP JUMP JUMPDEST PUSH1 0x0 DUP1 PUSH1 0x40 DUP4 DUP6 SUB SLT ISZERO PUSH2 0x2BF6 JUMPI DUP2 DUP3 REVERT JUMPDEST DUP3 CALLDATALOAD PUSH1 0x1 PUSH1 0x1 PUSH1 0x40 SHL SUB DUP1 DUP3 GT ISZERO PUSH2 0x2C0C JUMPI DUP4 DUP5 REVERT JUMPDEST PUSH2 0x2C18 DUP7 DUP4 DUP8 ADD PUSH2 0x2ADB JUMP JUMPDEST SWAP4 POP PUSH1 0x20 DUP6 ADD CALLDATALOAD SWAP2 POP DUP1 DUP3 GT ISZERO PUSH2 0x2C2D JUMPI DUP3 DUP4 REVERT JUMPDEST POP PUSH2 0x2C3A DUP6 DUP3 DUP7 ADD PUSH2 0x2ADB JUMP JUMPDEST SWAP2 POP POP SWAP3 POP SWAP3 SWAP1 POP JUMP JUMPDEST PUSH1 0x0 DUP1 PUSH1 0x0 PUSH1 0x60 DUP5 DUP7 SUB SLT ISZERO PUSH2 0x2C58 JUMPI DUP1 DUP2 REVERT JUMPDEST DUP4 CALLDATALOAD PUSH1 0x1 PUSH1 0x1 PUSH1 0x40 SHL SUB DUP1 DUP3 GT ISZERO PUSH2 0x2C6E JUMPI DUP3 DUP4 REVERT JUMPDEST PUSH2 0x2C7A DUP8 DUP4 DUP9 ADD PUSH2 0x2ADB JUMP JUMPDEST SWAP5 POP PUSH1 0x20 DUP7 ADD CALLDATALOAD SWAP2 POP DUP1 DUP3 GT ISZERO PUSH2 0x2C8F JUMPI DUP3 DUP4 REVERT JUMPDEST POP PUSH2 0x2C9C DUP7 DUP3 DUP8 ADD PUSH2 0x2ADB JUMP JUMPDEST SWAP3 POP POP PUSH2 0x2CAB PUSH1 0x40 DUP6 ADD PUSH2 0x2A42 JUMP JUMPDEST SWAP1 POP SWAP3 POP SWAP3 POP SWAP3 JUMP JUMPDEST PUSH1 0x0 DUP1 PUSH1 0x0 PUSH1 0x60 DUP5 DUP7 SUB SLT ISZERO PUSH2 0x2CC8 JUMPI DUP3 DUP4 REVERT JUMPDEST DUP4 CALLDATALOAD PUSH1 0x1 PUSH1 0x1 PUSH1 0x40 SHL SUB DUP1 DUP3 GT ISZERO PUSH2 0x2CDE JUMPI DUP5 DUP6 REVERT JUMPDEST PUSH2 0x2CEA DUP8 DUP4 DUP9 ADD PUSH2 0x2ADB JUMP JUMPDEST SWAP5 POP PUSH1 0x20 DUP7 ADD CALLDATALOAD SWAP2 POP DUP1 DUP3 GT ISZERO PUSH2 0x2CFF JUMPI DUP4 DUP5 REVERT JUMPDEST PUSH2 0x2D0B DUP8 DUP4 DUP9 ADD PUSH2 0x2ADB JUMP JUMPDEST SWAP4 POP PUSH1 0x40 DUP7 ADD CALLDATALOAD SWAP2 POP DUP1 DUP3 GT ISZERO PUSH2 0x2D20 JUMPI DUP3 DUP4 REVERT JUMPDEST POP PUSH2 0x2D2D DUP7 DUP3 DUP8 ADD PUSH2 0x2A5E JUMP JUMPDEST SWAP2 POP POP SWAP3 POP SWAP3 POP SWAP3 JUMP JUMPDEST PUSH1 0x0 DUP1 PUSH1 0x0 PUSH1 0x60 DUP5 DUP7 SUB SLT ISZERO PUSH2 0x2D4B JUMPI DUP3 DUP4 REVERT JUMPDEST DUP4 CALLDATALOAD PUSH1 0x1 PUSH1 0x1 PUSH1 0x40 SHL SUB DUP1 DUP3 GT ISZERO PUSH2 0x2D61 JUMPI DUP5 DUP6 REVERT JUMPDEST PUSH2 0x2D6D DUP8 DUP4 DUP9 ADD PUSH2 0x2ADB JUMP JUMPDEST SWAP5 POP PUSH1 0x20 DUP7 ADD CALLDATALOAD SWAP2 POP DUP1 DUP3 GT ISZERO PUSH2 0x2D82 JUMPI DUP4 DUP5 REVERT JUMPDEST PUSH2 0x2D8E DUP8 DUP4 DUP9 ADD PUSH2 0x2ADB JUMP JUMPDEST SWAP4 POP PUSH1 0x40 DUP7 ADD CALLDATALOAD SWAP2 POP DUP1 DUP3 GT ISZERO PUSH2 0x2DA3 JUMPI DUP3 DUP4 REVERT JUMPDEST POP PUSH2 0x2D2D DUP7 DUP3 DUP8 ADD PUSH2 0x2ADB JUMP JUMPDEST PUSH1 0x0 DUP1 PUSH1 0x0 DUP1 PUSH1 0x80 DUP6 DUP8 SUB SLT ISZERO PUSH2 0x2DC5 JUMPI DUP1 DUP2 REVERT JUMPDEST DUP5 CALLDATALOAD PUSH1 0x1 PUSH1 0x1 PUSH1 0x40 SHL SUB DUP1 DUP3 GT ISZERO PUSH2 0x2DDB JUMPI DUP3 DUP4 REVERT JUMPDEST PUSH2 0x2DE7 DUP9 DUP4 DUP10 ADD PUSH2 0x2ADB JUMP JUMPDEST SWAP6 POP PUSH1 0x20 DUP8 ADD CALLDATALOAD SWAP2 POP DUP1 DUP3 GT ISZERO PUSH2 0x2DFC JUMPI DUP3 DUP4 REVERT JUMPDEST PUSH2 0x2E08 DUP9 DUP4 DUP10 ADD PUSH2 0x2ADB JUMP JUMPDEST SWAP5 POP PUSH1 0x40 DUP8 ADD CALLDATALOAD SWAP2 POP DUP1 DUP3 GT ISZERO PUSH2 0x2E1D JUMPI DUP3 DUP4 REVERT JUMPDEST PUSH2 0x2E29 DUP9 DUP4 DUP10 ADD PUSH2 0x2ADB JUMP JUMPDEST SWAP4 POP PUSH1 0x60 DUP8 ADD CALLDATALOAD SWAP2 POP DUP1 DUP3 GT ISZERO PUSH2 0x2E3E JUMPI DUP3 DUP4 REVERT JUMPDEST POP PUSH2 0x2E4B DUP8 DUP3 DUP9 ADD PUSH2 0x2A5E JUMP JUMPDEST SWAP2 POP POP SWAP3 SWAP6 SWAP2 SWAP5 POP SWAP3 POP JUMP JUMPDEST PUSH1 0x0 DUP1 PUSH1 0x0 DUP1 PUSH1 0x80 DUP6 DUP8 SUB SLT ISZERO PUSH2 0x2E6C JUMPI DUP4 DUP5 REVERT JUMPDEST DUP5 CALLDATALOAD PUSH1 0x1 PUSH1 0x1 PUSH1 0x40 SHL SUB DUP1 DUP3 GT ISZERO PUSH2 0x2E82 JUMPI DUP6 DUP7 REVERT JUMPDEST PUSH2 0x2E8E DUP9 DUP4 DUP10 ADD PUSH2 0x2ADB JUMP JUMPDEST SWAP6 POP PUSH1 0x20 DUP8 ADD CALLDATALOAD SWAP2 POP DUP1 DUP3 GT ISZERO PUSH2 0x2EA3 JUMPI DUP5 DUP6 REVERT JUMPDEST PUSH2 0x2EAF DUP9 DUP4 DUP10 ADD PUSH2 0x2ADB JUMP JUMPDEST SWAP5 POP PUSH1 0x40 DUP8 ADD CALLDATALOAD SWAP2 POP DUP1 DUP3 GT ISZERO PUSH2 0x2EC4 JUMPI DUP4 DUP5 REVERT JUMPDEST PUSH2 0x2ED0 DUP9 DUP4 DUP10 ADD PUSH2 0x2ADB JUMP JUMPDEST SWAP4 POP PUSH1 0x60 DUP8 ADD CALLDATALOAD SWAP2 POP DUP1 DUP3 GT ISZERO PUSH2 0x2EE5 JUMPI DUP3 DUP4 REVERT JUMPDEST POP PUSH2 0x2E4B DUP8 DUP3 DUP9 ADD PUSH2 0x2ADB JUMP JUMPDEST PUSH1 0x0 DUP1 PUSH1 0x0 DUP1 PUSH1 0x0 PUSH1 0xA0 DUP7 DUP9 SUB SLT ISZERO PUSH2 0x2F09 JUMPI DUP1 DUP2 REVERT JUMPDEST DUP6 CALLDATALOAD PUSH1 0x1 PUSH1 0x1 PUSH1 0x40 SHL SUB DUP1 DUP3 GT ISZERO PUSH2 0x2F1F JUMPI DUP3 DUP4 REVERT JUMPDEST PUSH2 0x2F2B DUP10 DUP4 DUP11 ADD PUSH2 0x2ADB JUMP JUMPDEST SWAP7 POP PUSH1 0x20 DUP9 ADD CALLDATALOAD SWAP2 POP DUP1 DUP3 GT ISZERO PUSH2 0x2F40 JUMPI DUP3 DUP4 REVERT JUMPDEST PUSH2 0x2F4C DUP10 DUP4 DUP11 ADD PUSH2 0x2ADB JUMP JUMPDEST SWAP6 POP PUSH1 0x40 DUP9 ADD CALLDATALOAD SWAP2 POP DUP1 DUP3 GT ISZERO PUSH2 0x2F61 JUMPI DUP3 DUP4 REVERT JUMPDEST POP PUSH2 0x2F6E DUP9 DUP3 DUP10 ADD PUSH2 0x2ADB JUMP JUMPDEST SWAP6 SWAP9 SWAP5 SWAP8 POP SWAP5 SWAP6 PUSH1 0x60 DUP2 ADD CALLDATALOAD SWAP6 POP PUSH1 0x80 ADD CALLDATALOAD SWAP4 SWAP3 POP POP POP JUMP JUMPDEST PUSH1 0x0 DUP1 PUSH1 0x0 DUP1 PUSH1 0x80 DUP6 DUP8 SUB SLT ISZERO PUSH2 0x2F9C JUMPI DUP4 DUP5 REVERT JUMPDEST DUP5 CALLDATALOAD PUSH1 0x1 PUSH1 0x1 PUSH1 0x40 SHL SUB DUP1 DUP3 GT ISZERO PUSH2 0x2FB2 JUMPI DUP6 DUP7 REVERT JUMPDEST PUSH2 0x2FBE DUP9 DUP4 DUP10 ADD PUSH2 0x2ADB JUMP JUMPDEST SWAP6 POP PUSH1 0x20 DUP8 ADD CALLDATALOAD SWAP2 POP DUP1 DUP3 GT ISZERO PUSH2 0x2FD3 JUMPI DUP5 DUP6 REVERT JUMPDEST POP PUSH2 0x2FE0 DUP8 DUP3 DUP9 ADD PUSH2 0x2ADB JUMP JUMPDEST SWAP5 SWAP8 SWAP5 SWAP7 POP POP POP POP PUSH1 0x40 DUP4 ADD CALLDATALOAD SWAP3 PUSH1 0x60 ADD CALLDATALOAD SWAP2 SWAP1 POP JUMP JUMPDEST PUSH1 0x0 DUP1 PUSH1 0x0 PUSH1 0x60 DUP5 DUP7 SUB SLT ISZERO PUSH2 0x300B JUMPI DUP1 DUP2 REVERT JUMPDEST DUP4 CALLDATALOAD PUSH1 0x1 PUSH1 0x1 PUSH1 0x40 SHL SUB DUP2 GT ISZERO PUSH2 0x3020 JUMPI DUP2 DUP3 REVERT JUMPDEST PUSH2 0x302C DUP7 DUP3 DUP8 ADD PUSH2 0x2ADB JUMP JUMPDEST SWAP7 PUSH1 0x20 DUP7 ADD CALLDATALOAD SWAP7 POP PUSH1 0x40 SWAP1 SWAP6 ADD CALLDATALOAD SWAP5 SWAP4 POP POP POP POP JUMP JUMPDEST PUSH1 0x0 DUP1 PUSH1 0x40 DUP4 DUP6 SUB SLT ISZERO PUSH2 0x3054 JUMPI DUP2 DUP3 REVERT JUMPDEST POP POP DUP1 CALLDATALOAD SWAP3 PUSH1 0x20 SWAP1 SWAP2 ADD CALLDATALOAD SWAP2 POP JUMP JUMPDEST PUSH1 0x0 DUP2 MLOAD DUP1 DUP5 MSTORE DUP2 JUMPDEST DUP2 DUP2 LT ISZERO PUSH2 0x3088 JUMPI PUSH1 0x20 DUP2 DUP6 ADD DUP2 ADD MLOAD DUP7 DUP4 ADD DUP3 ADD MSTORE ADD PUSH2 0x306C JUMP JUMPDEST DUP2 DUP2 GT ISZERO PUSH2 0x3099 JUMPI DUP3 PUSH1 0x20 DUP4 DUP8 ADD ADD MSTORE JUMPDEST POP PUSH1 0x1F ADD PUSH1 0x1F NOT AND SWAP3 SWAP1 SWAP3 ADD PUSH1 0x20 ADD SWAP3 SWAP2 POP POP JUMP JUMPDEST PUSH1 0x20 DUP1 DUP3 MSTORE DUP3 MLOAD DUP3 DUP3 ADD DUP2 SWAP1 MSTORE PUSH1 0x0 SWAP2 SWAP1 DUP5 DUP3 ADD SWAP1 PUSH1 0x40 DUP6 ADD SWAP1 DUP5 JUMPDEST DUP2 DUP2 LT ISZERO PUSH2 0x30EF JUMPI DUP4 MLOAD PUSH1 0x1 PUSH1 0x1 PUSH1 0xA0 SHL SUB AND DUP4 MSTORE SWAP3 DUP5 ADD SWAP3 SWAP2 DUP5 ADD SWAP2 PUSH1 0x1 ADD PUSH2 0x30CA JUMP JUMPDEST POP SWAP1 SWAP7 SWAP6 POP POP POP POP POP POP JUMP JUMPDEST PUSH1 0x0 PUSH1 0x20 DUP1 DUP4 ADD DUP2 DUP5 MSTORE DUP1 DUP6 MLOAD DUP1 DUP4 MSTORE PUSH1 0x40 DUP7 ADD SWAP2 POP PUSH1 0x40 DUP2 PUSH1 0x5 SHL DUP8 ADD ADD SWAP3 POP DUP4 DUP8 ADD DUP6 JUMPDEST DUP3 DUP2 LT ISZERO PUSH2 0x314F JUMPI PUSH1 0x3F NOT DUP9 DUP7 SUB ADD DUP5 MSTORE PUSH2 0x313D DUP6 DUP4 MLOAD PUSH2 0x3063 JUMP JUMPDEST SWAP5 POP SWAP3 DUP6 ADD SWAP3 SWAP1 DUP6 ADD SWAP1 PUSH1 0x1 ADD PUSH2 0x3121 JUMP JUMPDEST POP SWAP3 SWAP8 SWAP7 POP POP POP POP POP POP POP JUMP JUMPDEST PUSH1 0x20 DUP2 MSTORE PUSH1 0x0 PUSH2 0x27BE PUSH1 0x20 DUP4 ADD DUP5 PUSH2 0x3063 JUMP JUMPDEST PUSH1 0x40 DUP2 MSTORE PUSH1 0x0 PUSH2 0x3182 PUSH1 0x40 DUP4 ADD DUP6 PUSH2 0x3063 JUMP JUMPDEST SWAP1 POP PUSH1 0x1 DUP1 PUSH1 0xA0 SHL SUB DUP4 AND PUSH1 0x20 DUP4 ADD MSTORE SWAP4 SWAP3 POP POP POP JUMP JUMPDEST PUSH1 0x60 DUP2 MSTORE PUSH1 0x0 PUSH2 0x31AC PUSH1 0x60 DUP4 ADD DUP7 PUSH2 0x3063 JUMP JUMPDEST DUP3 DUP2 SUB PUSH1 0x20 DUP5 ADD MSTORE PUSH2 0x31BE DUP2 DUP7 PUSH2 0x3063 JUMP JUMPDEST SWAP2 POP POP PUSH1 0x1 DUP1 PUSH1 0xA0 SHL SUB DUP4 AND PUSH1 0x40 DUP4 ADD MSTORE SWAP5 SWAP4 POP POP POP POP JUMP JUMPDEST PUSH1 0x80 DUP2 MSTORE PUSH1 0x0 PUSH2 0x31EA PUSH1 0x80 DUP4 ADD DUP8 PUSH2 0x3063 JUMP JUMPDEST DUP3 DUP2 SUB PUSH1 0x20 DUP5 ADD MSTORE PUSH2 0x31FC DUP2 DUP8 PUSH2 0x3063 JUMP JUMPDEST SWAP1 POP DUP3 DUP2 SUB PUSH1 0x40 DUP5 ADD MSTORE PUSH2 0x3210 DUP2 DUP7 PUSH2 0x3063 JUMP JUMPDEST SWAP2 POP POP PUSH1 0x1 DUP1 PUSH1 0xA0 SHL SUB DUP4 AND PUSH1 0x60 DUP4 ADD MSTORE SWAP6 SWAP5 POP POP POP POP POP JUMP JUMPDEST PUSH1 0xA0 DUP2 MSTORE PUSH1 0x0 PUSH2 0x323D PUSH1 0xA0 DUP4 ADD DUP9 PUSH2 0x3063 JUMP JUMPDEST DUP3 DUP2 SUB PUSH1 0x20 DUP5 ADD MSTORE PUSH2 0x324F DUP2 DUP9 PUSH2 0x3063 JUMP JUMPDEST SWAP1 POP DUP3 DUP2 SUB PUSH1 0x40 DUP5 ADD MSTORE PUSH2 0x3263 DUP2 DUP8 PUSH2 0x3063 JUMP JUMPDEST SWAP1 POP DUP3 DUP2 SUB PUSH1 0x60 DUP5 ADD MSTORE PUSH2 0x3277 DUP2 DUP7 PUSH2 0x3063 JUMP JUMPDEST SWAP2 POP POP PUSH1 0x1 DUP1 PUSH1 0xA0 SHL SUB DUP4 AND PUSH1 0x80 DUP4 ADD MSTORE SWAP7 SWAP6 POP POP POP POP POP POP JUMP JUMPDEST PUSH1 0x20 DUP1 DUP3 MSTORE PUSH1 0x12 SWAP1 DUP3 ADD MSTORE PUSH18 0x195C9C8B5C1C9BDA8B5B9BDD0B595E1A5CDD PUSH1 0x72 SHL PUSH1 0x40 DUP3 ADD MSTORE PUSH1 0x60 ADD SWAP1 JUMP JUMPDEST PUSH1 0x20 DUP1 DUP3 MSTORE PUSH1 0x10 SWAP1 DUP3 ADD MSTORE PUSH16 0x195C9C8B5B985B594B58DB185A5B5959 PUSH1 0x82 SHL PUSH1 0x40 DUP3 ADD MSTORE PUSH1 0x60 ADD SWAP1 JUMP JUMPDEST PUSH1 0x20 DUP1 DUP3 MSTORE PUSH1 0xE SWAP1 DUP3 ADD MSTORE PUSH14 0x6572722D656D7074792D6D657461 PUSH1 0x90 SHL PUSH1 0x40 DUP3 ADD MSTORE PUSH1 0x60 ADD SWAP1 JUMP JUMPDEST PUSH1 0x20 DUP1 DUP3 MSTORE PUSH1 0xE SWAP1 DUP3 ADD MSTORE PUSH14 0x6572722D656D7074792D6E616D65 PUSH1 0x90 SHL PUSH1 0x40 DUP3 ADD MSTORE PUSH1 0x60 ADD SWAP1 JUMP JUMPDEST PUSH1 0x20 DUP1 DUP3 MSTORE PUSH1 0x15 SWAP1 DUP3 ADD MSTORE PUSH21 0x195C9C8B5C995B19585CD94B5B9BDD0B595E1A5CDD PUSH1 0x5A SHL PUSH1 0x40 DUP3 ADD MSTORE PUSH1 0x60 ADD SWAP1 JUMP JUMPDEST PUSH1 0x20 DUP1 DUP3 MSTORE PUSH1 0xF SWAP1 DUP3 ADD MSTORE PUSH15 0x32B93916BA32B0B696B6B2B6B132B9 PUSH1 0x89 SHL PUSH1 0x40 DUP3 ADD MSTORE PUSH1 0x60 ADD SWAP1 JUMP JUMPDEST PUSH1 0x40 MLOAD PUSH1 0x1F DUP3 ADD PUSH1 0x1F NOT AND DUP2 ADD PUSH1 0x1 PUSH1 0x1 PUSH1 0x40 SHL SUB DUP2 GT DUP3 DUP3 LT OR ISZERO PUSH2 0x33B8 JUMPI PUSH2 0x33B8 PUSH2 0x347A JUMP JUMPDEST PUSH1 0x40 MSTORE SWAP2 SWAP1 POP JUMP JUMPDEST PUSH1 0x0 DUP3 NOT DUP3 GT ISZERO PUSH2 0x33D3 JUMPI PUSH2 0x33D3 PUSH2 0x3464 JUMP JUMPDEST POP ADD SWAP1 JUMP JUMPDEST PUSH1 0x0 DUP2 PUSH1 0x0 NOT DIV DUP4 GT DUP3 ISZERO ISZERO AND ISZERO PUSH2 0x33F2 JUMPI PUSH2 0x33F2 PUSH2 0x3464 JUMP JUMPDEST POP MUL SWAP1 JUMP JUMPDEST PUSH1 0x0 DUP3 DUP3 LT ISZERO PUSH2 0x3409 JUMPI PUSH2 0x3409 PUSH2 0x3464 JUMP JUMPDEST POP SUB SWAP1 JUMP JUMPDEST PUSH1 0x1 DUP2 DUP2 SHR SWAP1 DUP3 AND DUP1 PUSH2 0x3422 JUMPI PUSH1 0x7F DUP3 AND SWAP2 POP JUMPDEST PUSH1 0x20 DUP3 LT DUP2 EQ ISZERO PUSH2 0x3443 JUMPI PUSH4 0x4E487B71 PUSH1 0xE0 SHL PUSH1 0x0 MSTORE PUSH1 0x22 PUSH1 0x4 MSTORE PUSH1 0x24 PUSH1 0x0 REVERT JUMPDEST POP SWAP2 SWAP1 POP JUMP JUMPDEST PUSH1 0x0 PUSH1 0x0 NOT DUP3 EQ ISZERO PUSH2 0x345D JUMPI PUSH2 0x345D PUSH2 0x3464 JUMP JUMPDEST POP PUSH1 0x1 ADD SWAP1 JUMP JUMPDEST PUSH4 0x4E487B71 PUSH1 0xE0 SHL PUSH1 0x0 MSTORE PUSH1 0x11 PUSH1 0x4 MSTORE PUSH1 0x24 PUSH1 0x0 REVERT JUMPDEST PUSH4 0x4E487B71 PUSH1 0xE0 SHL PUSH1 0x0 MSTORE PUSH1 0x41 PUSH1 0x4 MSTORE PUSH1 0x24 PUSH1 0x0 REVERT INVALID LOG2 PUSH5 0x6970667358 0x22 SLT KECCAK256 0xF SAR 0xD2 EXTCODESIZE RETURNDATACOPY PUSH15 0x77554510324C01C51F8B00CF2C4BFB MSTORE8 PUSH28 0xE4C3EBDC6330A34CA164736F6C634300080400330000000000000000 "
        },
        "methodIdentifiers": {
          "addProjectMember(string,string,address)": "2aa2fd64",
          "addTeamMember(string,address)": "81ded150",
          "approveRelease(string,string,string)": "11bc1ce0",
          "createProject(string,string,string,address[])": "4ff3ec60",
          "createRelease(string,string,string,string)": "0716dfa0",
          "createTeam(string,string,address[])": "5f36788e",
          "getLatestReleaseName(string,string)": "47566e4f",
          "getProjectMembers(string,string,uint256,uint256)": "4ce72c75",
          "getProjectMetaCID(string,string)": "5be9d4b2",
          "getProjectNames(string,uint256,uint256)": "a6a54ec5",
          "getReleaseApprovers(string,string,string,uint256,uint256)": "b1bc8c8d",
          "getReleaseMetaCID(string,string,string)": "cded382f",
          "getReleaseNames(string,string,uint256,uint256)": "83dfd03e",
          "getReleaseRejectors(string,string,string,uint256,uint256)": "17289818",
          "getTeamMembers(string,uint256,uint256)": "cfc5efac",
          "getTeamMetaCID(string)": "5bc25e77",
          "getTeamNames(uint256,uint256)": "4eec58a3",
          "isTrustedForwarder(address)": "572b6c05",
          "rejectRelease(string,string,string)": "baffd3da",
          "removeProjectMember(string,string,address)": "5c537096",
          "removeTeamMember(string,address)": "ecb0a33d",
          "setProjectMetaCID(string,string,string)": "fcaa705e",
          "setTeamMetaCID(string,string)": "2d19fdfe",
          "versionRecipient()": "486ff0cd"
        }
      }
    }
  }
}