{
  "contracts/Valist.sol": {
    "Valist": {
      "abi": [
        {
          "inputs": [
            {
              "internalType": "address",
              "name": "_trustedForwarder",
              "type": "address"
            }
          ],
          "stateMutability": "nonpayable",
          "type": "constructor"
        },
        {
          "anonymous": false,
          "inputs": [
            {
              "indexed": false,
              "internalType": "string",
              "name": "_teamName",
              "type": "string"
            },
            {
              "indexed": false,
              "internalType": "string",
              "name": "_projectName",
              "type": "string"
            },
            {
              "indexed": false,
              "internalType": "string",
              "name": "_metaCID",
              "type": "string"
            },
            {
              "indexed": false,
              "internalType": "address",
              "name": "_member",
              "type": "address"
            }
          ],
          "name": "ProjectCreated",
          "type": "event"
        },
        {
          "anonymous": false,
          "inputs": [
            {
              "indexed": false,
              "internalType": "string",
              "name": "_teamName",
              "type": "string"
            },
            {
              "indexed": false,
              "internalType": "string",
              "name": "_projectName",
              "type": "string"
            },
            {
              "indexed": false,
              "internalType": "address",
              "name": "_member",
              "type": "address"
            }
          ],
          "name": "ProjectMemberAdded",
          "type": "event"
        },
        {
          "anonymous": false,
          "inputs": [
            {
              "indexed": false,
              "internalType": "string",
              "name": "_teamName",
              "type": "string"
            },
            {
              "indexed": false,
              "internalType": "string",
              "name": "_projectName",
              "type": "string"
            },
            {
              "indexed": false,
              "internalType": "address",
              "name": "_member",
              "type": "address"
            }
          ],
          "name": "ProjectMemberRemoved",
          "type": "event"
        },
        {
          "anonymous": false,
          "inputs": [
            {
              "indexed": false,
              "internalType": "string",
              "name": "_teamName",
              "type": "string"
            },
            {
              "indexed": false,
              "internalType": "string",
              "name": "_projectName",
              "type": "string"
            },
            {
              "indexed": false,
              "internalType": "string",
              "name": "_metaCID",
              "type": "string"
            },
            {
              "indexed": false,
              "internalType": "address",
              "name": "_member",
              "type": "address"
            }
          ],
          "name": "ProjectUpdated",
          "type": "event"
        },
        {
          "anonymous": false,
          "inputs": [
            {
              "indexed": false,
              "internalType": "string",
              "name": "_teamName",
              "type": "string"
            },
            {
              "indexed": false,
              "internalType": "string",
              "name": "_projectName",
              "type": "string"
            },
            {
              "indexed": false,
              "internalType": "string",
              "name": "_releaseName",
              "type": "string"
            },
            {
              "indexed": false,
              "internalType": "address",
              "name": "_sender",
              "type": "address"
            }
          ],
          "name": "ReleaseApproved",
          "type": "event"
        },
        {
          "anonymous": false,
          "inputs": [
            {
              "indexed": false,
              "internalType": "string",
              "name": "_teamName",
              "type": "string"
            },
            {
              "indexed": false,
              "internalType": "string",
              "name": "_projectName",
              "type": "string"
            },
            {
              "indexed": false,
              "internalType": "string",
              "name": "_releaseName",
              "type": "string"
            },
            {
              "indexed": false,
              "internalType": "string",
              "name": "_metaCID",
              "type": "string"
            },
            {
              "indexed": false,
              "internalType": "address",
              "name": "_member",
              "type": "address"
            }
          ],
          "name": "ReleaseCreated",
          "type": "event"
        },
        {
          "anonymous": false,
          "inputs": [
            {
              "indexed": false,
              "internalType": "string",
              "name": "_teamName",
              "type": "string"
            },
            {
              "indexed": false,
              "internalType": "string",
              "name": "_projectName",
              "type": "string"
            },
            {
              "indexed": false,
              "internalType": "string",
              "name": "_releaseName",
              "type": "string"
            },
            {
              "indexed": false,
              "internalType": "address",
              "name": "_sender",
              "type": "address"
            }
          ],
          "name": "ReleaseRejected",
          "type": "event"
        },
        {
          "anonymous": false,
          "inputs": [
            {
              "indexed": false,
              "internalType": "string",
              "name": "_teamName",
              "type": "string"
            },
            {
              "indexed": false,
              "internalType": "string",
              "name": "_metaCID",
              "type": "string"
            },
            {
              "indexed": false,
              "internalType": "address",
              "name": "_sender",
              "type": "address"
            }
          ],
          "name": "TeamCreated",
          "type": "event"
        },
        {
          "anonymous": false,
          "inputs": [
            {
              "indexed": false,
              "internalType": "string",
              "name": "_teamName",
              "type": "string"
            },
            {
              "indexed": false,
              "internalType": "address",
              "name": "_member",
              "type": "address"
            }
          ],
          "name": "TeamMemberAdded",
          "type": "event"
        },
        {
          "anonymous": false,
          "inputs": [
            {
              "indexed": false,
              "internalType": "string",
              "name": "_teamName",
              "type": "string"
            },
            {
              "indexed": false,
              "internalType": "address",
              "name": "_member",
              "type": "address"
            }
          ],
          "name": "TeamMemberRemoved",
          "type": "event"
        },
        {
          "anonymous": false,
          "inputs": [
            {
              "indexed": false,
              "internalType": "string",
              "name": "_teamName",
              "type": "string"
            },
            {
              "indexed": false,
              "internalType": "string",
              "name": "_metaCID",
              "type": "string"
            },
            {
              "indexed": false,
              "internalType": "address",
              "name": "_member",
              "type": "address"
            }
          ],
          "name": "TeamUpdated",
          "type": "event"
        },
        {
          "inputs": [
            {
              "internalType": "string",
              "name": "_teamName",
              "type": "string"
            },
            {
              "internalType": "string",
              "name": "_projectName",
              "type": "string"
            },
            {
              "internalType": "address",
              "name": "_address",
              "type": "address"
            }
          ],
          "name": "addProjectMember",
          "outputs": [],
          "stateMutability": "nonpayable",
          "type": "function"
        },
        {
          "inputs": [
            {
              "internalType": "string",
              "name": "_teamName",
              "type": "string"
            },
            {
              "internalType": "address",
              "name": "_address",
              "type": "address"
            }
          ],
          "name": "addTeamMember",
          "outputs": [],
          "stateMutability": "nonpayable",
          "type": "function"
        },
        {
          "inputs": [
            {
              "internalType": "string",
              "name": "_teamName",
              "type": "string"
            },
            {
              "internalType": "string",
              "name": "_projectName",
              "type": "string"
            },
            {
              "internalType": "string",
              "name": "_releaseName",
              "type": "string"
            }
          ],
          "name": "approveRelease",
          "outputs": [],
          "stateMutability": "nonpayable",
          "type": "function"
        },
        {
          "inputs": [
            {
              "internalType": "string",
              "name": "_teamName",
              "type": "string"
            },
            {
              "internalType": "string",
              "name": "_projectName",
              "type": "string"
            },
            {
              "internalType": "string",
              "name": "_metaCID",
              "type": "string"
            },
            {
              "internalType": "address[]",
              "name": "_members",
              "type": "address[]"
            }
          ],
          "name": "createProject",
          "outputs": [],
          "stateMutability": "nonpayable",
          "type": "function"
        },
        {
          "inputs": [
            {
              "internalType": "string",
              "name": "_teamName",
              "type": "string"
            },
            {
              "internalType": "string",
              "name": "_projectName",
              "type": "string"
            },
            {
              "internalType": "string",
              "name": "_releaseName",
              "type": "string"
            },
            {
              "internalType": "string",
              "name": "_metaCID",
              "type": "string"
            }
          ],
          "name": "createRelease",
          "outputs": [],
          "stateMutability": "nonpayable",
          "type": "function"
        },
        {
          "inputs": [
            {
              "internalType": "string",
              "name": "_teamName",
              "type": "string"
            },
            {
              "internalType": "string",
              "name": "_metaCID",
              "type": "string"
            },
            {
              "internalType": "address[]",
              "name": "_members",
              "type": "address[]"
            }
          ],
          "name": "createTeam",
          "outputs": [],
          "stateMutability": "nonpayable",
          "type": "function"
        },
        {
          "inputs": [
            {
              "internalType": "string",
              "name": "_teamName",
              "type": "string"
            },
            {
              "internalType": "string",
              "name": "_projectName",
              "type": "string"
            }
          ],
          "name": "getLatestReleaseName",
          "outputs": [
            {
              "internalType": "string",
              "name": "",
              "type": "string"
            }
          ],
          "stateMutability": "view",
          "type": "function"
        },
        {
          "inputs": [
            {
              "internalType": "string",
              "name": "_teamName",
              "type": "string"
            },
            {
              "internalType": "string",
              "name": "_projectName",
              "type": "string"
            },
            {
              "internalType": "uint256",
              "name": "_page",
              "type": "uint256"
            },
            {
              "internalType": "uint256",
              "name": "_size",
              "type": "uint256"
            }
          ],
          "name": "getProjectMembers",
          "outputs": [
            {
              "internalType": "address[]",
              "name": "",
              "type": "address[]"
            }
          ],
          "stateMutability": "view",
          "type": "function"
        },
        {
          "inputs": [
            {
              "internalType": "string",
              "name": "_teamName",
              "type": "string"
            },
            {
              "internalType": "string",
              "name": "_projectName",
              "type": "string"
            }
          ],
          "name": "getProjectMetaCID",
          "outputs": [
            {
              "internalType": "string",
              "name": "",
              "type": "string"
            }
          ],
          "stateMutability": "view",
          "type": "function"
        },
        {
          "inputs": [
            {
              "internalType": "string",
              "name": "_teamName",
              "type": "string"
            },
            {
              "internalType": "uint256",
              "name": "_page",
              "type": "uint256"
            },
            {
              "internalType": "uint256",
              "name": "_size",
              "type": "uint256"
            }
          ],
          "name": "getProjectNames",
          "outputs": [
            {
              "internalType": "string[]",
              "name": "",
              "type": "string[]"
            }
          ],
          "stateMutability": "view",
          "type": "function"
        },
        {
          "inputs": [
            {
              "internalType": "string",
              "name": "_teamName",
              "type": "string"
            },
            {
              "internalType": "string",
              "name": "_projectName",
              "type": "string"
            },
            {
              "internalType": "string",
              "name": "_releaseName",
              "type": "string"
            },
            {
              "internalType": "uint256",
              "name": "_page",
              "type": "uint256"
            },
            {
              "internalType": "uint256",
              "name": "_size",
              "type": "uint256"
            }
          ],
          "name": "getReleaseApprovers",
          "outputs": [
            {
              "internalType": "address[]",
              "name": "",
              "type": "address[]"
            }
          ],
          "stateMutability": "view",
          "type": "function"
        },
        {
          "inputs": [
            {
              "internalType": "string",
              "name": "_teamName",
              "type": "string"
            },
            {
              "internalType": "string",
              "name": "_projectName",
              "type": "string"
            },
            {
              "internalType": "string",
              "name": "_releaseName",
              "type": "string"
            }
          ],
          "name": "getReleaseMetaCID",
          "outputs": [
            {
              "internalType": "string",
              "name": "",
              "type": "string"
            }
          ],
          "stateMutability": "view",
          "type": "function"
        },
        {
          "inputs": [
            {
              "internalType": "string",
              "name": "_teamName",
              "type": "string"
            },
            {
              "internalType": "string",
              "name": "_projectName",
              "type": "string"
            },
            {
              "internalType": "uint256",
              "name": "_page",
              "type": "uint256"
            },
            {
              "internalType": "uint256",
              "name": "_size",
              "type": "uint256"
            }
          ],
          "name": "getReleaseNames",
          "outputs": [
            {
              "internalType": "string[]",
              "name": "",
              "type": "string[]"
            }
          ],
          "stateMutability": "view",
          "type": "function"
        },
        {
          "inputs": [
            {
              "internalType": "string",
              "name": "_teamName",
              "type": "string"
            },
            {
              "internalType": "string",
              "name": "_projectName",
              "type": "string"
            },
            {
              "internalType": "string",
              "name": "_releaseName",
              "type": "string"
            },
            {
              "internalType": "uint256",
              "name": "_page",
              "type": "uint256"
            },
            {
              "internalType": "uint256",
              "name": "_size",
              "type": "uint256"
            }
          ],
          "name": "getReleaseRejectors",
          "outputs": [
            {
              "internalType": "address[]",
              "name": "",
              "type": "address[]"
            }
          ],
          "stateMutability": "view",
          "type": "function"
        },
        {
          "inputs": [
            {
              "internalType": "string",
              "name": "_teamName",
              "type": "string"
            },
            {
              "internalType": "uint256",
              "name": "_page",
              "type": "uint256"
            },
            {
              "internalType": "uint256",
              "name": "_size",
              "type": "uint256"
            }
          ],
          "name": "getTeamMembers",
          "outputs": [
            {
              "internalType": "address[]",
              "name": "",
              "type": "address[]"
            }
          ],
          "stateMutability": "view",
          "type": "function"
        },
        {
          "inputs": [
            {
              "internalType": "string",
              "name": "_teamName",
              "type": "string"
            }
          ],
          "name": "getTeamMetaCID",
          "outputs": [
            {
              "internalType": "string",
              "name": "",
              "type": "string"
            }
          ],
          "stateMutability": "view",
          "type": "function"
        },
        {
          "inputs": [
            {
              "internalType": "uint256",
              "name": "_page",
              "type": "uint256"
            },
            {
              "internalType": "uint256",
              "name": "_size",
              "type": "uint256"
            }
          ],
          "name": "getTeamNames",
          "outputs": [
            {
              "internalType": "string[]",
              "name": "",
              "type": "string[]"
            }
          ],
          "stateMutability": "view",
          "type": "function"
        },
        {
          "inputs": [
            {
              "internalType": "address",
              "name": "forwarder",
              "type": "address"
            }
          ],
          "name": "isTrustedForwarder",
          "outputs": [
            {
              "internalType": "bool",
              "name": "",
              "type": "bool"
            }
          ],
          "stateMutability": "view",
          "type": "function"
        },
        {
          "inputs": [
            {
              "internalType": "string",
              "name": "_teamName",
              "type": "string"
            },
            {
              "internalType": "string",
              "name": "_projectName",
              "type": "string"
            },
            {
              "internalType": "string",
              "name": "_releaseName",
              "type": "string"
            }
          ],
          "name": "rejectRelease",
          "outputs": [],
          "stateMutability": "nonpayable",
          "type": "function"
        },
        {
          "inputs": [
            {
              "internalType": "string",
              "name": "_teamName",
              "type": "string"
            },
            {
              "internalType": "string",
              "name": "_projectName",
              "type": "string"
            },
            {
              "internalType": "address",
              "name": "_address",
              "type": "address"
            }
          ],
          "name": "removeProjectMember",
          "outputs": [],
          "stateMutability": "nonpayable",
          "type": "function"
        },
        {
          "inputs": [
            {
              "internalType": "string",
              "name": "_teamName",
              "type": "string"
            },
            {
              "internalType": "address",
              "name": "_address",
              "type": "address"
            }
          ],
          "name": "removeTeamMember",
          "outputs": [],
          "stateMutability": "nonpayable",
          "type": "function"
        },
        {
          "inputs": [
            {
              "internalType": "string",
              "name": "_teamName",
              "type": "string"
            },
            {
              "internalType": "string",
              "name": "_projectName",
              "type": "string"
            },
            {
              "internalType": "string",
              "name": "_metaCID",
              "type": "string"
            }
          ],
          "name": "setProjectMetaCID",
          "outputs": [],
          "stateMutability": "nonpayable",
          "type": "function"
        },
        {
          "inputs": [
            {
              "internalType": "string",
              "name": "_teamName",
              "type": "string"
            },
            {
              "internalType": "string",
              "name": "_metaCID",
              "type": "string"
            }
          ],
          "name": "setTeamMetaCID",
          "outputs": [],
          "stateMutability": "nonpayable",
          "type": "function"
        },
        {
          "inputs": [],
          "name": "versionRecipient",
          "outputs": [
            {
              "internalType": "string",
              "name": "",
              "type": "string"
            }
          ],
          "stateMutability": "view",
          "type": "function"
        }
      ],
      "evm": {
        "bytecode": {
          "linkReferences": {},
          "object": "60c060405260056080819052640322e322e360dc1b60a09081526200002891600691906200007f565b503480156200003657600080fd5b506040516200366a3803806200366a833981016040819052620000599162000125565b600080546001600160a01b0319166001600160a01b039290921691909117905562000192565b8280546200008d9062000155565b90600052602060002090601f016020900481019282620000b15760008555620000fc565b82601f10620000cc57805160ff1916838001178555620000fc565b82800160010185558215620000fc579182015b82811115620000fc578251825591602001919060010190620000df565b506200010a9291506200010e565b5090565b5b808211156200010a57600081556001016200010f565b60006020828403121562000137578081fd5b81516001600160a01b03811681146200014e578182fd5b9392505050565b600181811c908216806200016a57607f821691505b602082108114156200018c57634e487b7160e01b600052602260045260246000fd5b50919050565b6134c880620001a26000396000f3fe608060405234801561001057600080fd5b50600436106101585760003560e01c80635be9d4b2116100c3578063b1bc8c8d1161007c578063b1bc8c8d146102f9578063baffd3da1461030c578063cded382f1461031f578063cfc5efac14610332578063ecb0a33d14610345578063fcaa705e1461035857600080fd5b80635be9d4b2146102875780635c5370961461029a5780635f36788e146102ad57806381ded150146102c057806383dfd03e146102d3578063a6a54ec5146102e657600080fd5b8063486ff0cd11610115578063486ff0cd146101f45780634ce72c75146101fc5780634eec58a31461020f5780634ff3ec601461022f578063572b6c05146102425780635bc25e771461027457600080fd5b80630716dfa01461015d57806311bc1ce01461017257806317289818146101855780632aa2fd64146101ae5780632d19fdfe146101c157806347566e4f146101d4575b600080fd5b61017061016b366004612e59565b61036b565b005b610170610180366004612d39565b61058c565b610198610193366004612ef4565b6106e8565b6040516101a591906130b0565b60405180910390f35b6101706101bc366004612c46565b6108c7565b6101706101cf366004612be6565b610a6b565b6101e76101e2366004612be6565b610bce565b6040516101a5919061315e565b6101e7610d38565b61019861020a366004612f89565b610dc6565b61022261021d366004613044565b610f6d565b6040516101a591906130fd565b61017061023d366004612db2565b611111565b610264610250366004612b47565b6000546001600160a01b0391821691161490565b60405190151581526020016101a5565b6101e7610282366004612b61565b61136b565b6101e7610295366004612be6565b6114a9565b6101706102a8366004612c46565b6115f4565b6101706102bb366004612cb6565b61177a565b6101706102ce366004612b9b565b6119f2565b6102226102e1366004612f89565b611b06565b6102226102f4366004612ff9565b611d2e565b610198610307366004612ef4565b611f38565b61017061031a366004612d39565b6120fe565b6101e761032d366004612d39565b61223a565b610198610340366004612ff9565b6123ac565b610170610353366004612b9b565b61251b565b610170610366366004612d39565b612637565b6000468580519060200120604051602001610390929190918252602082015260400190565b60408051808303601f19018152828252805160209182012087518883012091840181905291830152915060009060600160408051808303601f1901815282825280516020918201208751888301209184018190529183015291506000906060016040516020818303038152906040528051906020012060001c905061042d61041661277c565b6000848152600360205260409020600101906127a2565b6104705760405162461bcd60e51b815260206004820152600f60248201526e32b93916b83937b516b6b2b6b132b960891b60448201526064015b60405180910390fd5b6000818152600560205260409020805461048990613410565b1590506104a85760405162461bcd60e51b8152600401610467906132c0565b60008451116104c95760405162461bcd60e51b8152600401610467906132ea565b60008551116104ea5760405162461bcd60e51b815260040161046790613312565b60008181526005602090815260409091208551610509928701906129ab565b5060008281526003602090815260408220805460018101825590835291819020875161053c9391909101918801906129ab565b507f15fb1d214ed195f7210e450a416a0640362c37a0a2d2d0ab63481f967aae0e008787878761056a61277c565b60405161057b95949392919061322c565b60405180910390a150505050505050565b60004684805190602001206040516020016105b1929190918252602082015260400190565b60408051601f198184030181528282528051602091820120865187830120828501829052848401528251808503840181526060850184528051908301208651878401206080860182905260a0808701919091528451808703909101815260c090950184528451948301949094206000818152600590935292822080549195509061063a90613410565b9050116106595760405162461bcd60e51b81526004016104679061333a565b61067861066461277c565b6000838152600460205260409020906127c7565b5061069b61068461277c565b6000838152600460205260409020600201906127dc565b507fa70c9d49a7ef09401d07a7aad126689c097b80db50504ce9ba5ca8b6f6477fb88686866106c861277c565b6040516106d894939291906131d9565b60405180910390a1505050505050565b6060600046878051906020012060405160200161070f929190918252602082015260400190565b60408051808303601f19018152828252805160209182012089518a83012091840181905291830152915060009060600160408051808303601f19018152828252805160209182012089518a83012091840181905291830152915060009060600160408051601f1981840301815291905280516020909101209050600061079586886133da565b905060006107a387836133c2565b60008481526004602052604090209091506107c0906002016127f1565b8111156107e45760008381526004602052604090206107e1906002016127f1565b90505b60006107f083836133f9565b6001600160401b0381111561081557634e487b7160e01b600052604160045260246000fd5b60405190808252806020026020018201604052801561083e578160200160208202803683370190505b509050825b828110156108b757600085815260046020526040902061086690600201826127fb565b8261087186846133f9565b8151811061088f57634e487b7160e01b600052603260045260246000fd5b6001600160a01b03909216602092830291909101909101526108b08161344b565b9050610843565b509b9a5050505050505050505050565b60004684805190602001206040516020016108ec929190918252602082015260400190565b60408051808303601f19018152828252805160209182012086518783012091840181905291830152915060009060600160408051601f1981840301815291815281516020928301206000818152600590935290822080549193509061095090613410565b90501161096f5760405162461bcd60e51b815260040161046790613294565b61099161097a61277c565b6000848152600260205260409020600101906127a2565b15156001146109b25760405162461bcd60e51b815260040161046790613369565b60008181526003602052604090206109cd90600101846127a2565b15610a0d5760405162461bcd60e51b815260206004820152601060248201526f195c9c8b5b595b58995c8b595e1a5cdd60821b6044820152606401610467565b6000818152600360205260409020610a2890600101846127c7565b507f8eb5dc57e01da32e2b98214d39ebdd82cd801d261855d5f84b868b5f140a2980858585604051610a5c9392919061319b565b60405180910390a15050505050565b6000468380519060200120604051602001610a90929190918252602082015260400190565b6040516020818303038152906040528051906020012060001c9050610acd610ab661277c565b6000838152600260205260409020600101906127a2565b610ae95760405162461bcd60e51b815260040161046790613369565b60008181526005602052604081208054610b0290613410565b905011610b465760405162461bcd60e51b8152602060048201526012602482015271195c9c8b5d19585b4b5b9bdd0b595e1a5cdd60721b6044820152606401610467565b6000825111610b675760405162461bcd60e51b8152600401610467906132ea565b60008181526005602090815260409091208351610b86928501906129ab565b507f337efabade1b5802f3a562a44eb0b3222d30ad7717e865d76f4db7ecbea56e808383610bb261277c565b604051610bc19392919061319b565b60405180910390a1505050565b60606000468480519060200120604051602001610bf5929190918252602082015260400190565b60408051808303601f19018152828252805160209182012086518783012091840181905291830152915060009060600160408051601f198184030181529181528151602092830120600081815260039093529120805491925090610c6b5760405162461bcd60e51b815260040161046790613294565b80548190610c7b906001906133f9565b81548110610c9957634e487b7160e01b600052603260045260246000fd5b906000526020600020018054610cae90613410565b80601f0160208091040260200160405190810160405280929190818152602001828054610cda90613410565b8015610d275780601f10610cfc57610100808354040283529160200191610d27565b820191906000526020600020905b815481529060010190602001808311610d0a57829003601f168201915b505050505093505050505b92915050565b60068054610d4590613410565b80601f0160208091040260200160405190810160405280929190818152602001828054610d7190613410565b8015610dbe5780601f10610d9357610100808354040283529160200191610dbe565b820191906000526020600020905b815481529060010190602001808311610da157829003601f168201915b505050505081565b60606000468680519060200120604051602001610ded929190918252602082015260400190565b60408051601f19818403018152828252805160209182012088518983012082850182905284840152825180850384018152606090940190925282519201919091209091506000610e3d85876133da565b90506000610e4b86836133c2565b6000848152600360205260409020909150610e68906001016127f1565b811115610e8c576000838152600360205260409020610e89906001016127f1565b90505b6000610e9883836133f9565b6001600160401b03811115610ebd57634e487b7160e01b600052604160045260246000fd5b604051908082528060200260200182016040528015610ee6578160200160208202803683370190505b509050825b82811015610f5f576000858152600360205260409020610f0e90600101826127fb565b82610f1986846133f9565b81518110610f3757634e487b7160e01b600052603260045260246000fd5b6001600160a01b0390921660209283029190910190910152610f588161344b565b9050610eeb565b509998505050505050505050565b60606000610f7b83856133da565b90506000610f8984836133c2565b600154909150811115610f9b57506001545b6000610fa783836133f9565b6001600160401b03811115610fcc57634e487b7160e01b600052604160045260246000fd5b604051908082528060200260200182016040528015610fff57816020015b6060815260200190600190039081610fea5790505b509050825b82811015611107576001818154811061102d57634e487b7160e01b600052603260045260246000fd5b90600052602060002001805461104290613410565b80601f016020809104026020016040519081016040528092919081815260200182805461106e90613410565b80156110bb5780601f10611090576101008083540402835291602001916110bb565b820191906000526020600020905b81548152906001019060200180831161109e57829003601f168201915b50505050508285836110cd91906133f9565b815181106110eb57634e487b7160e01b600052603260045260246000fd5b6020026020010181905250806111009061344b565b9050611004565b5095945050505050565b6000468580519060200120604051602001611136929190918252602082015260400190565b60408051601f198184030181528282528051602091820120875188830120828501829052848401528251808503840181526060909401909252825192019190912090915061118561097a61277c565b6111a15760405162461bcd60e51b815260040161046790613369565b600081815260056020526040902080546111ba90613410565b1590506111d95760405162461bcd60e51b8152600401610467906132c0565b60008451116111fa5760405162461bcd60e51b8152600401610467906132ea565b600085511161121b5760405162461bcd60e51b815260040161046790613312565b6000818152600560209081526040909120855161123a928701906129ab565b5060008281526002602090815260408220805460018101825590835291819020875161126d9391909101918801906129ab565b5060005b835181101561133e576112c984828151811061129d57634e487b7160e01b600052603260045260246000fd5b6020026020010151600360008581526020019081526020016000206001016127c790919063ffffffff16565b507f8eb5dc57e01da32e2b98214d39ebdd82cd801d261855d5f84b868b5f140a2980878786848151811061130d57634e487b7160e01b600052603260045260246000fd5b60200260200101516040516113249392919061319b565b60405180910390a1806113368161344b565b915050611271565b507f11f7f07de1d35c43b47edd8a19e7f8208259cdf66344de81856c5bb7c798db268686866106c861277c565b60606000468380519060200120604051602001611392929190918252602082015260400190565b60408051601f198184030181529181528151602092830120600081815260059093529082208054919350906113c690613410565b90501161140a5760405162461bcd60e51b8152602060048201526012602482015271195c9c8b5d19585b4b5b9bdd0b595e1a5cdd60721b6044820152606401610467565b6000818152600560205260409020805461142390613410565b80601f016020809104026020016040519081016040528092919081815260200182805461144f90613410565b801561149c5780601f106114715761010080835404028352916020019161149c565b820191906000526020600020905b81548152906001019060200180831161147f57829003601f168201915b5050505050915050919050565b606060004684805190602001206040516020016114d0929190918252602082015260400190565b60408051808303601f19018152828252805160209182012086518783012091840181905291830152915060009060600160408051601f1981840301815291815281516020928301206000818152600590935290822080549193509061153490613410565b9050116115535760405162461bcd60e51b815260040161046790613294565b6000818152600560205260409020805461156c90613410565b80601f016020809104026020016040519081016040528092919081815260200182805461159890613410565b80156115e55780601f106115ba576101008083540402835291602001916115e5565b820191906000526020600020905b8154815290600101906020018083116115c857829003601f168201915b50505050509250505092915050565b6000468480519060200120604051602001611619929190918252602082015260400190565b60408051808303601f19018152828252805160209182012086518783012091840181905291830152915060009060600160408051601f1981840301815291815281516020928301206000818152600590935290822080549193509061167d90613410565b90501161169c5760405162461bcd60e51b815260040161046790613294565b6116a761097a61277c565b15156001146116c85760405162461bcd60e51b815260040161046790613369565b60008181526003602052604090206116e390600101846127a2565b151560011461172b5760405162461bcd60e51b8152602060048201526014602482015273195c9c8b5b595b58995c8b5b9bdd0b595e1a5cdd60621b6044820152606401610467565b600081815260036020526040902061174690600101846127dc565b507f7bd4fdf0f1872366f33f1732f765696c1ec3ddccaa8c1f72095b58d8f411fa93858585604051610a5c9392919061319b565b600046848051906020012060405160200161179f929190918252602082015260400190565b60408051601f1981840301815291815281516020928301206000818152600590935291208054919250906117d290613410565b1590506117f15760405162461bcd60e51b8152600401610467906132c0565b60008351116118125760405162461bcd60e51b8152600401610467906132ea565b60008451116118335760405162461bcd60e51b815260040161046790613312565b60008251116118785760405162461bcd60e51b81526020600482015260116024820152706572722d656d7074792d6d656d6265727360781b6044820152606401610467565b60008181526005602090815260409091208451611897928601906129ab565b5060018054808201825560009190915284516118da917fb10e2d527612073b26eecdfd717e6a320cf44b4afac2b0732d9fcbe2b7fa0cf6019060208701906129ab565b5060005b82518110156119a95761193683828151811061190a57634e487b7160e01b600052603260045260246000fd5b6020026020010151600260008581526020019081526020016000206001016127c790919063ffffffff16565b507fb1ce9c84087af16e758e7041eec971f57c833f4127f64f742c5b0ee14e0537d28584838151811061197957634e487b7160e01b600052603260045260246000fd5b602002602001015160405161198f929190613171565b60405180910390a1806119a18161344b565b9150506118de565b507f234eb9d37ed58b55e52e99246bb2b0cebb55311292e5d3de44a6df95a9af250184846119d561277c565b6040516119e49392919061319b565b60405180910390a150505050565b6000468380519060200120604051602001611a17929190918252602082015260400190565b6040516020818303038152906040528051906020012060001c9050611a3d610ab661277c565b1515600114611a5e5760405162461bcd60e51b815260040161046790613369565b6000818152600260205260409020611a7990600101836127a2565b15611ab95760405162461bcd60e51b815260206004820152601060248201526f195c9c8b5b595b58995c8b595e1a5cdd60821b6044820152606401610467565b6000818152600260205260409020611ad490600101836127c7565b507fb1ce9c84087af16e758e7041eec971f57c833f4127f64f742c5b0ee14e0537d28383604051610bc1929190613171565b60606000468680519060200120604051602001611b2d929190918252602082015260400190565b60408051601f19818403018152828252805160209182012088518983012082850182905284840152825180850384018152606090940190925282519201919091209091506000611b7d85876133da565b90506000611b8b86836133c2565b600084815260036020526040902054909150811115611bb557506000828152600360205260409020545b6000611bc183836133f9565b6001600160401b03811115611be657634e487b7160e01b600052604160045260246000fd5b604051908082528060200260200182016040528015611c1957816020015b6060815260200190600190039081611c045790505b509050825b82811015610f5f576000858152600360205260409020805482908110611c5457634e487b7160e01b600052603260045260246000fd5b906000526020600020018054611c6990613410565b80601f0160208091040260200160405190810160405280929190818152602001828054611c9590613410565b8015611ce25780601f10611cb757610100808354040283529160200191611ce2565b820191906000526020600020905b815481529060010190602001808311611cc557829003601f168201915b5050505050828583611cf491906133f9565b81518110611d1257634e487b7160e01b600052603260045260246000fd5b602002602001018190525080611d279061344b565b9050611c1e565b60606000468580519060200120604051602001611d55929190918252602082015260400190565b60408051601f19818403018152919052805160209091012090506000611d7b84866133da565b90506000611d8985836133c2565b600084815260026020526040902054909150811115611db357506000828152600260205260409020545b6000611dbf83836133f9565b6001600160401b03811115611de457634e487b7160e01b600052604160045260246000fd5b604051908082528060200260200182016040528015611e1757816020015b6060815260200190600190039081611e025790505b509050825b82811015611f2c576000858152600260205260409020805482908110611e5257634e487b7160e01b600052603260045260246000fd5b906000526020600020018054611e6790613410565b80601f0160208091040260200160405190810160405280929190818152602001828054611e9390613410565b8015611ee05780601f10611eb557610100808354040283529160200191611ee0565b820191906000526020600020905b815481529060010190602001808311611ec357829003601f168201915b5050505050828583611ef291906133f9565b81518110611f1057634e487b7160e01b600052603260045260246000fd5b602002602001018190525080611f259061344b565b9050611e1c565b50979650505050505050565b60606000468780519060200120604051602001611f5f929190918252602082015260400190565b60408051808303601f19018152828252805160209182012089518a83012091840181905291830152915060009060600160408051808303601f19018152828252805160209182012089518a83012091840181905291830152915060009060600160408051601f19818403018152919052805160209091012090506000611fe586886133da565b90506000611ff387836133c2565b600084815260046020526040902090915061200d906127f1565b81111561202e57600083815260046020526040902061202b906127f1565b90505b600061203a83836133f9565b6001600160401b0381111561205f57634e487b7160e01b600052604160045260246000fd5b604051908082528060200260200182016040528015612088578160200160208202803683370190505b509050825b828110156108b75760008581526004602052604090206120ad90826127fb565b826120b886846133f9565b815181106120d657634e487b7160e01b600052603260045260246000fd5b6001600160a01b03909216602092830291909101909101526120f78161344b565b905061208d565b6000468480519060200120604051602001612123929190918252602082015260400190565b60408051601f198184030181528282528051602091820120865187830120828501829052848401528251808503840181526060850184528051908301208651878401206080860182905260a0808701919091528451808703909101815260c09095018452845194830194909420600081815260059093529282208054919550906121ac90613410565b9050116121cb5760405162461bcd60e51b81526004016104679061333a565b6121ed6121d661277c565b6000838152600460205260409020600201906127c7565b5061220d6121f961277c565b6000838152600460205260409020906127dc565b507f30ca79684c561b1b6fbda88d9779021eb510471ea1df05c10dc39c46d6ed94eb8686866106c861277c565b60606000468580519060200120604051602001612261929190918252602082015260400190565b60408051601f198184030181528282528051602091820120875188830120828501829052848401528251808503840181526060850184528051908301208751888401206080860182905260a0808701919091528451808703909101815260c09095018452845194830194909420600081815260059093529282208054919550906122ea90613410565b9050116123095760405162461bcd60e51b81526004016104679061333a565b6000818152600560205260409020805461232290613410565b80601f016020809104026020016040519081016040528092919081815260200182805461234e90613410565b801561239b5780601f106123705761010080835404028352916020019161239b565b820191906000526020600020905b81548152906001019060200180831161237e57829003601f168201915b505050505093505050509392505050565b606060004685805190602001206040516020016123d3929190918252602082015260400190565b60408051601f198184030181529190528051602090910120905060006123f984866133da565b9050600061240785836133c2565b6000848152600260205260409020909150612424906001016127f1565b811115612448576000838152600260205260409020612445906001016127f1565b90505b600061245483836133f9565b6001600160401b0381111561247957634e487b7160e01b600052604160045260246000fd5b6040519080825280602002602001820160405280156124a2578160200160208202803683370190505b509050825b82811015611f2c5760008581526002602052604090206124ca90600101826127fb565b826124d586846133f9565b815181106124f357634e487b7160e01b600052603260045260246000fd5b6001600160a01b03909216602092830291909101909101526125148161344b565b90506124a7565b6000468380519060200120604051602001612540929190918252602082015260400190565b6040516020818303038152906040528051906020012060001c9050612566610ab661277c565b15156001146125875760405162461bcd60e51b815260040161046790613369565b60008181526002602052604090206125a290600101836127a2565b15156001146125ea5760405162461bcd60e51b8152602060048201526014602482015273195c9c8b5b595b58995c8b5b9bdd0b595e1a5cdd60621b6044820152606401610467565b600081815260026020526040902061260590600101836127dc565b507fbd84f6be96016aa1d03fd0c0ce516da6b2e352520bddd280c744c6c79a3785128383604051610bc1929190613171565b600046848051906020012060405160200161265c929190918252602082015260400190565b60408051601f19818403018152828252805160209182012086518783012082850182905284840152825180850384018152606090940190925282519201919091209091506126ab61097a61277c565b6126c75760405162461bcd60e51b815260040161046790613369565b600081815260056020526040812080546126e090613410565b9050116126ff5760405162461bcd60e51b815260040161046790613294565b60008351116127205760405162461bcd60e51b8152600401610467906132ea565b6000818152600560209081526040909120845161273f928601906129ab565b507fd837747757bf732c911148d7c5825d52de171f849e76143eec98fa514e263c8a85858561276c61277c565b604051610a5c94939291906131d9565b600080546001600160a01b031633141561279d575060131936013560601c90565b503390565b6001600160a01b038116600090815260018301602052604081205415155b9392505050565b60006127c0836001600160a01b038416612807565b60006127c0836001600160a01b038416612856565b6000610d32825490565b60006127c08383612973565b600081815260018301602052604081205461284e57508154600181810184556000848152602080822090930184905584548482528286019093526040902091909155610d32565b506000610d32565b6000818152600183016020526040812054801561296957600061287a6001836133f9565b855490915060009061288e906001906133f9565b905081811461290f5760008660000182815481106128bc57634e487b7160e01b600052603260045260246000fd5b90600052602060002001549050808760000184815481106128ed57634e487b7160e01b600052603260045260246000fd5b6000918252602080832090910192909255918252600188019052604090208390555b855486908061292e57634e487b7160e01b600052603160045260246000fd5b600190038181906000526020600020016000905590558560010160008681526020019081526020016000206000905560019350505050610d32565b6000915050610d32565b600082600001828154811061299857634e487b7160e01b600052603260045260246000fd5b9060005260206000200154905092915050565b8280546129b790613410565b90600052602060002090601f0160209004810192826129d95760008555612a1f565b82601f106129f257805160ff1916838001178555612a1f565b82800160010185558215612a1f579182015b82811115612a1f578251825591602001919060010190612a04565b50612a2b929150612a2f565b5090565b5b80821115612a2b5760008155600101612a30565b80356001600160a01b0381168114612a5b57600080fd5b919050565b600082601f830112612a70578081fd5b813560206001600160401b03821115612a8b57612a8b61347c565b8160051b612a9a828201613392565b838152828101908684018388018501891015612ab4578687fd5b8693505b85841015611f2c57612ac981612a44565b835260019390930192918401918401612ab8565b600082601f830112612aed578081fd5b81356001600160401b03811115612b0657612b0661347c565b612b19601f8201601f1916602001613392565b818152846020838601011115612b2d578283fd5b816020850160208301379081016020019190915292915050565b600060208284031215612b58578081fd5b6127c082612a44565b600060208284031215612b72578081fd5b81356001600160401b03811115612b87578182fd5b612b9384828501612add565b949350505050565b60008060408385031215612bad578081fd5b82356001600160401b03811115612bc2578182fd5b612bce85828601612add565b925050612bdd60208401612a44565b90509250929050565b60008060408385031215612bf8578182fd5b82356001600160401b0380821115612c0e578384fd5b612c1a86838701612add565b93506020850135915080821115612c2f578283fd5b50612c3c85828601612add565b9150509250929050565b600080600060608486031215612c5a578081fd5b83356001600160401b0380821115612c70578283fd5b612c7c87838801612add565b94506020860135915080821115612c91578283fd5b50612c9e86828701612add565b925050612cad60408501612a44565b90509250925092565b600080600060608486031215612cca578283fd5b83356001600160401b0380821115612ce0578485fd5b612cec87838801612add565b94506020860135915080821115612d01578384fd5b612d0d87838801612add565b93506040860135915080821115612d22578283fd5b50612d2f86828701612a60565b9150509250925092565b600080600060608486031215612d4d578283fd5b83356001600160401b0380821115612d63578485fd5b612d6f87838801612add565b94506020860135915080821115612d84578384fd5b612d9087838801612add565b93506040860135915080821115612da5578283fd5b50612d2f86828701612add565b60008060008060808587031215612dc7578081fd5b84356001600160401b0380821115612ddd578283fd5b612de988838901612add565b95506020870135915080821115612dfe578283fd5b612e0a88838901612add565b94506040870135915080821115612e1f578283fd5b612e2b88838901612add565b93506060870135915080821115612e40578283fd5b50612e4d87828801612a60565b91505092959194509250565b60008060008060808587031215612e6e578384fd5b84356001600160401b0380821115612e84578586fd5b612e9088838901612add565b95506020870135915080821115612ea5578485fd5b612eb188838901612add565b94506040870135915080821115612ec6578384fd5b612ed288838901612add565b93506060870135915080821115612ee7578283fd5b50612e4d87828801612add565b600080600080600060a08688031215612f0b578081fd5b85356001600160401b0380821115612f21578283fd5b612f2d89838a01612add565b96506020880135915080821115612f42578283fd5b612f4e89838a01612add565b95506040880135915080821115612f63578283fd5b50612f7088828901612add565b9598949750949560608101359550608001359392505050565b60008060008060808587031215612f9e578384fd5b84356001600160401b0380821115612fb4578586fd5b612fc088838901612add565b95506020870135915080821115612fd5578485fd5b50612fe287828801612add565b949794965050505060408301359260600135919050565b60008060006060848603121561300d578081fd5b83356001600160401b03811115613022578182fd5b61302e86828701612add565b9660208601359650604090950135949350505050565b60008060408385031215613056578182fd5b50508035926020909101359150565b60008151808452815b8181101561308a5760208185018101518683018201520161306e565b8181111561309b5782602083870101525b50601f01601f19169290920160200192915050565b6020808252825182820181905260009190848201906040850190845b818110156130f15783516001600160a01b0316835292840192918401916001016130cc565b50909695505050505050565b6000602080830181845280855180835260408601915060408160051b8701019250838701855b8281101561315157603f1988860301845261313f858351613065565b94509285019290850190600101613123565b5092979650505050505050565b6020815260006127c06020830184613065565b6040815260006131846040830185613065565b905060018060a01b03831660208301529392505050565b6060815260006131ae6060830186613065565b82810360208401526131c08186613065565b91505060018060a01b0383166040830152949350505050565b6080815260006131ec6080830187613065565b82810360208401526131fe8187613065565b905082810360408401526132128186613065565b91505060018060a01b038316606083015295945050505050565b60a08152600061323f60a0830188613065565b82810360208401526132518188613065565b905082810360408401526132658187613065565b905082810360608401526132798186613065565b91505060018060a01b03831660808301529695505050505050565b602080825260129082015271195c9c8b5c1c9bda8b5b9bdd0b595e1a5cdd60721b604082015260600190565b60208082526010908201526f195c9c8b5b985b594b58db185a5b595960821b604082015260600190565b6020808252600e908201526d6572722d656d7074792d6d65746160901b604082015260600190565b6020808252600e908201526d6572722d656d7074792d6e616d6560901b604082015260600190565b602080825260159082015274195c9c8b5c995b19585cd94b5b9bdd0b595e1a5cdd605a1b604082015260600190565b6020808252600f908201526e32b93916ba32b0b696b6b2b6b132b960891b604082015260600190565b604051601f8201601f191681016001600160401b03811182821017156133ba576133ba61347c565b604052919050565b600082198211156133d5576133d5613466565b500190565b60008160001904831182151516156133f4576133f4613466565b500290565b60008282101561340b5761340b613466565b500390565b600181811c9082168061342457607f821691505b6020821081141561344557634e487b7160e01b600052602260045260246000fd5b50919050565b600060001982141561345f5761345f613466565b5060010190565b634e487b7160e01b600052601160045260246000fd5b634e487b7160e01b600052604160045260246000fdfea2646970667358221220de7055f2747e5fee05540a1e84818c199ed2b7f8939fa04b9f4fedd1930efd8b64736f6c63430008040033",
          "opcodes": "PUSH1 0xC0 PUSH1 0x40 MSTORE PUSH1 0x5 PUSH1 0x80 DUP2 SWAP1 MSTORE PUSH5 0x322E322E3 PUSH1 0xDC SHL PUSH1 0xA0 SWAP1 DUP2 MSTORE PUSH3 0x28 SWAP2 PUSH1 0x6 SWAP2 SWAP1 PUSH3 0x7F JUMP JUMPDEST POP CALLVALUE DUP1 ISZERO PUSH3 0x36 JUMPI PUSH1 0x0 DUP1 REVERT JUMPDEST POP PUSH1 0x40 MLOAD PUSH3 0x366A CODESIZE SUB DUP1 PUSH3 0x366A DUP4 CODECOPY DUP2 ADD PUSH1 0x40 DUP2 SWAP1 MSTORE PUSH3 0x59 SWAP2 PUSH3 0x125 JUMP JUMPDEST PUSH1 0x0 DUP1 SLOAD PUSH1 0x1 PUSH1 0x1 PUSH1 0xA0 SHL SUB NOT AND PUSH1 0x1 PUSH1 0x1 PUSH1 0xA0 SHL SUB SWAP3 SWAP1 SWAP3 AND SWAP2 SWAP1 SWAP2 OR SWAP1 SSTORE PUSH3 0x192 JUMP JUMPDEST DUP3 DUP1 SLOAD PUSH3 0x8D SWAP1 PUSH3 0x155 JUMP JUMPDEST SWAP1 PUSH1 0x0 MSTORE PUSH1 0x20 PUSH1 0x0 KECCAK256 SWAP1 PUSH1 0x1F ADD PUSH1 0x20 SWAP1 DIV DUP2 ADD SWAP3 DUP3 PUSH3 0xB1 JUMPI PUSH1 0x0 DUP6 SSTORE PUSH3 0xFC JUMP JUMPDEST DUP3 PUSH1 0x1F LT PUSH3 0xCC JUMPI DUP1 MLOAD PUSH1 0xFF NOT AND DUP4 DUP1 ADD OR DUP6 SSTORE PUSH3 0xFC JUMP JUMPDEST DUP3 DUP1 ADD PUSH1 0x1 ADD DUP6 SSTORE DUP3 ISZERO PUSH3 0xFC JUMPI SWAP2 DUP3 ADD JUMPDEST DUP3 DUP2 GT ISZERO PUSH3 0xFC JUMPI DUP3 MLOAD DUP3 SSTORE SWAP2 PUSH1 0x20 ADD SWAP2 SWAP1 PUSH1 0x1 ADD SWAP1 PUSH3 0xDF JUMP JUMPDEST POP PUSH3 0x10A SWAP3 SWAP2 POP PUSH3 0x10E JUMP JUMPDEST POP SWAP1 JUMP JUMPDEST JUMPDEST DUP1 DUP3 GT ISZERO PUSH3 0x10A JUMPI PUSH1 0x0 DUP2 SSTORE PUSH1 0x1 ADD PUSH3 0x10F JUMP JUMPDEST PUSH1 0x0 PUSH1 0x20 DUP3 DUP5 SUB SLT ISZERO PUSH3 0x137 JUMPI DUP1 DUP2 REVERT JUMPDEST DUP2 MLOAD PUSH1 0x1 PUSH1 0x1 PUSH1 0xA0 SHL SUB DUP2 AND DUP2 EQ PUSH3 0x14E JUMPI DUP2 DUP3 REVERT JUMPDEST SWAP4 SWAP3 POP POP POP JUMP JUMPDEST PUSH1 0x1 DUP2 DUP2 SHR SWAP1 DUP3 AND DUP1 PUSH3 0x16A JUMPI PUSH1 0x7F DUP3 AND SWAP2 POP JUMPDEST PUSH1 0x20 DUP3 LT DUP2 EQ ISZERO PUSH3 0x18C JUMPI PUSH4 0x4E487B71 PUSH1 0xE0 SHL PUSH1 0x0 MSTORE PUSH1 0x22 PUSH1 0x4 MSTORE PUSH1 0x24 PUSH1 0x0 REVERT JUMPDEST POP SWAP2 SWAP1 POP JUMP JUMPDEST PUSH2 0x34C8 DUP1 PUSH3 0x1A2 PUSH1 0x0 CODECOPY PUSH1 0x0 RETURN INVALID PUSH1 0x80 PUSH1 0x40 MSTORE CALLVALUE DUP1 ISZERO PUSH2 0x10 JUMPI PUSH1 0x0 DUP1 REVERT JUMPDEST POP PUSH1 0x4 CALLDATASIZE LT PUSH2 0x158 JUMPI PUSH1 0x0 CALLDATALOAD PUSH1 0xE0 SHR DUP1 PUSH4 0x5BE9D4B2 GT PUSH2 0xC3 JUMPI DUP1 PUSH4 0xB1BC8C8D GT PUSH2 0x7C JUMPI DUP1 PUSH4 0xB1BC8C8D EQ PUSH2 0x2F9 JUMPI DUP1 PUSH4 0xBAFFD3DA EQ PUSH2 0x30C JUMPI DUP1 PUSH4 0xCDED382F EQ PUSH2 0x31F JUMPI DUP1 PUSH4 0xCFC5EFAC EQ PUSH2 0x332 JUMPI DUP1 PUSH4 0xECB0A33D EQ PUSH2 0x345 JUMPI DUP1 PUSH4 0xFCAA705E EQ PUSH2 0x358 JUMPI PUSH1 0x0 DUP1 REVERT JUMPDEST DUP1 PUSH4 0x5BE9D4B2 EQ PUSH2 0x287 JUMPI DUP1 PUSH4 0x5C537096 EQ PUSH2 0x29A JUMPI DUP1 PUSH4 0x5F36788E EQ PUSH2 0x2AD JUMPI DUP1 PUSH4 0x81DED150 EQ PUSH2 0x2C0 JUMPI DUP1 PUSH4 0x83DFD03E EQ PUSH2 0x2D3 JUMPI DUP1 PUSH4 0xA6A54EC5 EQ PUSH2 0x2E6 JUMPI PUSH1 0x0 DUP1 REVERT JUMPDEST DUP1 PUSH4 0x486FF0CD GT PUSH2 0x115 JUMPI DUP1 PUSH4 0x486FF0CD EQ PUSH2 0x1F4 JUMPI DUP1 PUSH4 0x4CE72C75 EQ PUSH2 0x1FC JUMPI DUP1 PUSH4 0x4EEC58A3 EQ PUSH2 0x20F JUMPI DUP1 PUSH4 0x4FF3EC60 EQ PUSH2 0x22F JUMPI DUP1 PUSH4 0x572B6C05 EQ PUSH2 0x242 JUMPI DUP1 PUSH4 0x5BC25E77 EQ PUSH2 0x274 JUMPI PUSH1 0x0 DUP1 REVERT JUMPDEST DUP1 PUSH4 0x716DFA0 EQ PUSH2 0x15D JUMPI DUP1 PUSH4 0x11BC1CE0 EQ PUSH2 0x172 JUMPI DUP1 PUSH4 0x17289818 EQ PUSH2 0x185 JUMPI DUP1 PUSH4 0x2AA2FD64 EQ PUSH2 0x1AE JUMPI DUP1 PUSH4 0x2D19FDFE EQ PUSH2 0x1C1 JUMPI DUP1 PUSH4 0x47566E4F EQ PUSH2 0x1D4 JUMPI JUMPDEST PUSH1 0x0 DUP1 REVERT JUMPDEST PUSH2 0x170 PUSH2 0x16B CALLDATASIZE PUSH1 0x4 PUSH2 0x2E59 JUMP JUMPDEST PUSH2 0x36B JUMP JUMPDEST STOP JUMPDEST PUSH2 0x170 PUSH2 0x180 CALLDATASIZE PUSH1 0x4 PUSH2 0x2D39 JUMP JUMPDEST PUSH2 0x58C JUMP JUMPDEST PUSH2 0x198 PUSH2 0x193 CALLDATASIZE PUSH1 0x4 PUSH2 0x2EF4 JUMP JUMPDEST PUSH2 0x6E8 JUMP JUMPDEST PUSH1 0x40 MLOAD PUSH2 0x1A5 SWAP2 SWAP1 PUSH2 0x30B0 JUMP JUMPDEST PUSH1 0x40 MLOAD DUP1 SWAP2 SUB SWAP1 RETURN JUMPDEST PUSH2 0x170 PUSH2 0x1BC CALLDATASIZE PUSH1 0x4 PUSH2 0x2C46 JUMP JUMPDEST PUSH2 0x8C7 JUMP JUMPDEST PUSH2 0x170 PUSH2 0x1CF CALLDATASIZE PUSH1 0x4 PUSH2 0x2BE6 JUMP JUMPDEST PUSH2 0xA6B JUMP JUMPDEST PUSH2 0x1E7 PUSH2 0x1E2 CALLDATASIZE PUSH1 0x4 PUSH2 0x2BE6 JUMP JUMPDEST PUSH2 0xBCE JUMP JUMPDEST PUSH1 0x40 MLOAD PUSH2 0x1A5 SWAP2 SWAP1 PUSH2 0x315E JUMP JUMPDEST PUSH2 0x1E7 PUSH2 0xD38 JUMP JUMPDEST PUSH2 0x198 PUSH2 0x20A CALLDATASIZE PUSH1 0x4 PUSH2 0x2F89 JUMP JUMPDEST PUSH2 0xDC6 JUMP JUMPDEST PUSH2 0x222 PUSH2 0x21D CALLDATASIZE PUSH1 0x4 PUSH2 0x3044 JUMP JUMPDEST PUSH2 0xF6D JUMP JUMPDEST PUSH1 0x40 MLOAD PUSH2 0x1A5 SWAP2 SWAP1 PUSH2 0x30FD JUMP JUMPDEST PUSH2 0x170 PUSH2 0x23D CALLDATASIZE PUSH1 0x4 PUSH2 0x2DB2 JUMP JUMPDEST PUSH2 0x1111 JUMP JUMPDEST PUSH2 0x264 PUSH2 0x250 CALLDATASIZE PUSH1 0x4 PUSH2 0x2B47 JUMP JUMPDEST PUSH1 0x0 SLOAD PUSH1 0x1 PUSH1 0x1 PUSH1 0xA0 SHL SUB SWAP2 DUP3 AND SWAP2 AND EQ SWAP1 JUMP JUMPDEST PUSH1 0x40 MLOAD SWAP1 ISZERO ISZERO DUP2 MSTORE PUSH1 0x20 ADD PUSH2 0x1A5 JUMP JUMPDEST PUSH2 0x1E7 PUSH2 0x282 CALLDATASIZE PUSH1 0x4 PUSH2 0x2B61 JUMP JUMPDEST PUSH2 0x136B JUMP JUMPDEST PUSH2 0x1E7 PUSH2 0x295 CALLDATASIZE PUSH1 0x4 PUSH2 0x2BE6 JUMP JUMPDEST PUSH2 0x14A9 JUMP JUMPDEST PUSH2 0x170 PUSH2 0x2A8 CALLDATASIZE PUSH1 0x4 PUSH2 0x2C46 JUMP JUMPDEST PUSH2 0x15F4 JUMP JUMPDEST PUSH2 0x170 PUSH2 0x2BB CALLDATASIZE PUSH1 0x4 PUSH2 0x2CB6 JUMP JUMPDEST PUSH2 0x177A JUMP JUMPDEST PUSH2 0x170 PUSH2 0x2CE CALLDATASIZE PUSH1 0x4 PUSH2 0x2B9B JUMP JUMPDEST PUSH2 0x19F2 JUMP JUMPDEST PUSH2 0x222 PUSH2 0x2E1 CALLDATASIZE PUSH1 0x4 PUSH2 0x2F89 JUMP JUMPDEST PUSH2 0x1B06 JUMP JUMPDEST PUSH2 0x222 PUSH2 0x2F4 CALLDATASIZE PUSH1 0x4 PUSH2 0x2FF9 JUMP JUMPDEST PUSH2 0x1D2E JUMP JUMPDEST PUSH2 0x198 PUSH2 0x307 CALLDATASIZE PUSH1 0x4 PUSH2 0x2EF4 JUMP JUMPDEST PUSH2 0x1F38 JUMP JUMPDEST PUSH2 0x170 PUSH2 0x31A CALLDATASIZE PUSH1 0x4 PUSH2 0x2D39 JUMP JUMPDEST PUSH2 0x20FE JUMP JUMPDEST PUSH2 0x1E7 PUSH2 0x32D CALLDATASIZE PUSH1 0x4 PUSH2 0x2D39 JUMP JUMPDEST PUSH2 0x223A JUMP JUMPDEST PUSH2 0x198 PUSH2 0x340 CALLDATASIZE PUSH1 0x4 PUSH2 0x2FF9 JUMP JUMPDEST PUSH2 0x23AC JUMP JUMPDEST PUSH2 0x170 PUSH2 0x353 CALLDATASIZE PUSH1 0x4 PUSH2 0x2B9B JUMP JUMPDEST PUSH2 0x251B JUMP JUMPDEST PUSH2 0x170 PUSH2 0x366 CALLDATASIZE PUSH1 0x4 PUSH2 0x2D39 JUMP JUMPDEST PUSH2 0x2637 JUMP JUMPDEST PUSH1 0x0 CHAINID DUP6 DUP1 MLOAD SWAP1 PUSH1 0x20 ADD KECCAK256 PUSH1 0x40 MLOAD PUSH1 0x20 ADD PUSH2 0x390 SWAP3 SWAP2 SWAP1 SWAP2 DUP3 MSTORE PUSH1 0x20 DUP3 ADD MSTORE PUSH1 0x40 ADD SWAP1 JUMP JUMPDEST PUSH1 0x40 DUP1 MLOAD DUP1 DUP4 SUB PUSH1 0x1F NOT ADD DUP2 MSTORE DUP3 DUP3 MSTORE DUP1 MLOAD PUSH1 0x20 SWAP2 DUP3 ADD KECCAK256 DUP8 MLOAD DUP9 DUP4 ADD KECCAK256 SWAP2 DUP5 ADD DUP2 SWAP1 MSTORE SWAP2 DUP4 ADD MSTORE SWAP2 POP PUSH1 0x0 SWAP1 PUSH1 0x60 ADD PUSH1 0x40 DUP1 MLOAD DUP1 DUP4 SUB PUSH1 0x1F NOT ADD DUP2 MSTORE DUP3 DUP3 MSTORE DUP1 MLOAD PUSH1 0x20 SWAP2 DUP3 ADD KECCAK256 DUP8 MLOAD DUP9 DUP4 ADD KECCAK256 SWAP2 DUP5 ADD DUP2 SWAP1 MSTORE SWAP2 DUP4 ADD MSTORE SWAP2 POP PUSH1 0x0 SWAP1 PUSH1 0x60 ADD PUSH1 0x40 MLOAD PUSH1 0x20 DUP2 DUP4 SUB SUB DUP2 MSTORE SWAP1 PUSH1 0x40 MSTORE DUP1 MLOAD SWAP1 PUSH1 0x20 ADD KECCAK256 PUSH1 0x0 SHR SWAP1 POP PUSH2 0x42D PUSH2 0x416 PUSH2 0x277C JUMP JUMPDEST PUSH1 0x0 DUP5 DUP2 MSTORE PUSH1 0x3 PUSH1 0x20 MSTORE PUSH1 0x40 SWAP1 KECCAK256 PUSH1 0x1 ADD SWAP1 PUSH2 0x27A2 JUMP JUMPDEST PUSH2 0x470 JUMPI PUSH1 0x40 MLOAD PUSH3 0x461BCD PUSH1 0xE5 SHL DUP2 MSTORE PUSH1 0x20 PUSH1 0x4 DUP3 ADD MSTORE PUSH1 0xF PUSH1 0x24 DUP3 ADD MSTORE PUSH15 0x32B93916B83937B516B6B2B6B132B9 PUSH1 0x89 SHL PUSH1 0x44 DUP3 ADD MSTORE PUSH1 0x64 ADD JUMPDEST PUSH1 0x40 MLOAD DUP1 SWAP2 SUB SWAP1 REVERT JUMPDEST PUSH1 0x0 DUP2 DUP2 MSTORE PUSH1 0x5 PUSH1 0x20 MSTORE PUSH1 0x40 SWAP1 KECCAK256 DUP1 SLOAD PUSH2 0x489 SWAP1 PUSH2 0x3410 JUMP JUMPDEST ISZERO SWAP1 POP PUSH2 0x4A8 JUMPI PUSH1 0x40 MLOAD PUSH3 0x461BCD PUSH1 0xE5 SHL DUP2 MSTORE PUSH1 0x4 ADD PUSH2 0x467 SWAP1 PUSH2 0x32C0 JUMP JUMPDEST PUSH1 0x0 DUP5 MLOAD GT PUSH2 0x4C9 JUMPI PUSH1 0x40 MLOAD PUSH3 0x461BCD PUSH1 0xE5 SHL DUP2 MSTORE PUSH1 0x4 ADD PUSH2 0x467 SWAP1 PUSH2 0x32EA JUMP JUMPDEST PUSH1 0x0 DUP6 MLOAD GT PUSH2 0x4EA JUMPI PUSH1 0x40 MLOAD PUSH3 0x461BCD PUSH1 0xE5 SHL DUP2 MSTORE PUSH1 0x4 ADD PUSH2 0x467 SWAP1 PUSH2 0x3312 JUMP JUMPDEST PUSH1 0x0 DUP2 DUP2 MSTORE PUSH1 0x5 PUSH1 0x20 SWAP1 DUP2 MSTORE PUSH1 0x40 SWAP1 SWAP2 KECCAK256 DUP6 MLOAD PUSH2 0x509 SWAP3 DUP8 ADD SWAP1 PUSH2 0x29AB JUMP JUMPDEST POP PUSH1 0x0 DUP3 DUP2 MSTORE PUSH1 0x3 PUSH1 0x20 SWAP1 DUP2 MSTORE PUSH1 0x40 DUP3 KECCAK256 DUP1 SLOAD PUSH1 0x1 DUP2 ADD DUP3 SSTORE SWAP1 DUP4 MSTORE SWAP2 DUP2 SWAP1 KECCAK256 DUP8 MLOAD PUSH2 0x53C SWAP4 SWAP2 SWAP1 SWAP2 ADD SWAP2 DUP9 ADD SWAP1 PUSH2 0x29AB JUMP JUMPDEST POP PUSH32 0x15FB1D214ED195F7210E450A416A0640362C37A0A2D2D0AB63481F967AAE0E00 DUP8 DUP8 DUP8 DUP8 PUSH2 0x56A PUSH2 0x277C JUMP JUMPDEST PUSH1 0x40 MLOAD PUSH2 0x57B SWAP6 SWAP5 SWAP4 SWAP3 SWAP2 SWAP1 PUSH2 0x322C JUMP JUMPDEST PUSH1 0x40 MLOAD DUP1 SWAP2 SUB SWAP1 LOG1 POP POP POP POP POP POP POP JUMP JUMPDEST PUSH1 0x0 CHAINID DUP5 DUP1 MLOAD SWAP1 PUSH1 0x20 ADD KECCAK256 PUSH1 0x40 MLOAD PUSH1 0x20 ADD PUSH2 0x5B1 SWAP3 SWAP2 SWAP1 SWAP2 DUP3 MSTORE PUSH1 0x20 DUP3 ADD MSTORE PUSH1 0x40 ADD SWAP1 JUMP JUMPDEST PUSH1 0x40 DUP1 MLOAD PUSH1 0x1F NOT DUP2 DUP5 SUB ADD DUP2 MSTORE DUP3 DUP3 MSTORE DUP1 MLOAD PUSH1 0x20 SWAP2 DUP3 ADD KECCAK256 DUP7 MLOAD DUP8 DUP4 ADD KECCAK256 DUP3 DUP6 ADD DUP3 SWAP1 MSTORE DUP5 DUP5 ADD MSTORE DUP3 MLOAD DUP1 DUP6 SUB DUP5 ADD DUP2 MSTORE PUSH1 0x60 DUP6 ADD DUP5 MSTORE DUP1 MLOAD SWAP1 DUP4 ADD KECCAK256 DUP7 MLOAD DUP8 DUP5 ADD KECCAK256 PUSH1 0x80 DUP7 ADD DUP3 SWAP1 MSTORE PUSH1 0xA0 DUP1 DUP8 ADD SWAP2 SWAP1 SWAP2 MSTORE DUP5 MLOAD DUP1 DUP8 SUB SWAP1 SWAP2 ADD DUP2 MSTORE PUSH1 0xC0 SWAP1 SWAP6 ADD DUP5 MSTORE DUP5 MLOAD SWAP5 DUP4 ADD SWAP5 SWAP1 SWAP5 KECCAK256 PUSH1 0x0 DUP2 DUP2 MSTORE PUSH1 0x5 SWAP1 SWAP4 MSTORE SWAP3 DUP3 KECCAK256 DUP1 SLOAD SWAP2 SWAP6 POP SWAP1 PUSH2 0x63A SWAP1 PUSH2 0x3410 JUMP JUMPDEST SWAP1 POP GT PUSH2 0x659 JUMPI PUSH1 0x40 MLOAD PUSH3 0x461BCD PUSH1 0xE5 SHL DUP2 MSTORE PUSH1 0x4 ADD PUSH2 0x467 SWAP1 PUSH2 0x333A JUMP JUMPDEST PUSH2 0x678 PUSH2 0x664 PUSH2 0x277C JUMP JUMPDEST PUSH1 0x0 DUP4 DUP2 MSTORE PUSH1 0x4 PUSH1 0x20 MSTORE PUSH1 0x40 SWAP1 KECCAK256 SWAP1 PUSH2 0x27C7 JUMP JUMPDEST POP PUSH2 0x69B PUSH2 0x684 PUSH2 0x277C JUMP JUMPDEST PUSH1 0x0 DUP4 DUP2 MSTORE PUSH1 0x4 PUSH1 0x20 MSTORE PUSH1 0x40 SWAP1 KECCAK256 PUSH1 0x2 ADD SWAP1 PUSH2 0x27DC JUMP JUMPDEST POP PUSH32 0xA70C9D49A7EF09401D07A7AAD126689C097B80DB50504CE9BA5CA8B6F6477FB8 DUP7 DUP7 DUP7 PUSH2 0x6C8 PUSH2 0x277C JUMP JUMPDEST PUSH1 0x40 MLOAD PUSH2 0x6D8 SWAP5 SWAP4 SWAP3 SWAP2 SWAP1 PUSH2 0x31D9 JUMP JUMPDEST PUSH1 0x40 MLOAD DUP1 SWAP2 SUB SWAP1 LOG1 POP POP POP POP POP POP JUMP JUMPDEST PUSH1 0x60 PUSH1 0x0 CHAINID DUP8 DUP1 MLOAD SWAP1 PUSH1 0x20 ADD KECCAK256 PUSH1 0x40 MLOAD PUSH1 0x20 ADD PUSH2 0x70F SWAP3 SWAP2 SWAP1 SWAP2 DUP3 MSTORE PUSH1 0x20 DUP3 ADD MSTORE PUSH1 0x40 ADD SWAP1 JUMP JUMPDEST PUSH1 0x40 DUP1 MLOAD DUP1 DUP4 SUB PUSH1 0x1F NOT ADD DUP2 MSTORE DUP3 DUP3 MSTORE DUP1 MLOAD PUSH1 0x20 SWAP2 DUP3 ADD KECCAK256 DUP10 MLOAD DUP11 DUP4 ADD KECCAK256 SWAP2 DUP5 ADD DUP2 SWAP1 MSTORE SWAP2 DUP4 ADD MSTORE SWAP2 POP PUSH1 0x0 SWAP1 PUSH1 0x60 ADD PUSH1 0x40 DUP1 MLOAD DUP1 DUP4 SUB PUSH1 0x1F NOT ADD DUP2 MSTORE DUP3 DUP3 MSTORE DUP1 MLOAD PUSH1 0x20 SWAP2 DUP3 ADD KECCAK256 DUP10 MLOAD DUP11 DUP4 ADD KECCAK256 SWAP2 DUP5 ADD DUP2 SWAP1 MSTORE SWAP2 DUP4 ADD MSTORE SWAP2 POP PUSH1 0x0 SWAP1 PUSH1 0x60 ADD PUSH1 0x40 DUP1 MLOAD PUSH1 0x1F NOT DUP2 DUP5 SUB ADD DUP2 MSTORE SWAP2 SWAP1 MSTORE DUP1 MLOAD PUSH1 0x20 SWAP1 SWAP2 ADD KECCAK256 SWAP1 POP PUSH1 0x0 PUSH2 0x795 DUP7 DUP9 PUSH2 0x33DA JUMP JUMPDEST SWAP1 POP PUSH1 0x0 PUSH2 0x7A3 DUP8 DUP4 PUSH2 0x33C2 JUMP JUMPDEST PUSH1 0x0 DUP5 DUP2 MSTORE PUSH1 0x4 PUSH1 0x20 MSTORE PUSH1 0x40 SWAP1 KECCAK256 SWAP1 SWAP2 POP PUSH2 0x7C0 SWAP1 PUSH1 0x2 ADD PUSH2 0x27F1 JUMP JUMPDEST DUP2 GT ISZERO PUSH2 0x7E4 JUMPI PUSH1 0x0 DUP4 DUP2 MSTORE PUSH1 0x4 PUSH1 0x20 MSTORE PUSH1 0x40 SWAP1 KECCAK256 PUSH2 0x7E1 SWAP1 PUSH1 0x2 ADD PUSH2 0x27F1 JUMP JUMPDEST SWAP1 POP JUMPDEST PUSH1 0x0 PUSH2 0x7F0 DUP4 DUP4 PUSH2 0x33F9 JUMP JUMPDEST PUSH1 0x1 PUSH1 0x1 PUSH1 0x40 SHL SUB DUP2 GT ISZERO PUSH2 0x815 JUMPI PUSH4 0x4E487B71 PUSH1 0xE0 SHL PUSH1 0x0 MSTORE PUSH1 0x41 PUSH1 0x4 MSTORE PUSH1 0x24 PUSH1 0x0 REVERT JUMPDEST PUSH1 0x40 MLOAD SWAP1 DUP1 DUP3 MSTORE DUP1 PUSH1 0x20 MUL PUSH1 0x20 ADD DUP3 ADD PUSH1 0x40 MSTORE DUP1 ISZERO PUSH2 0x83E JUMPI DUP2 PUSH1 0x20 ADD PUSH1 0x20 DUP3 MUL DUP1 CALLDATASIZE DUP4 CALLDATACOPY ADD SWAP1 POP JUMPDEST POP SWAP1 POP DUP3 JUMPDEST DUP3 DUP2 LT ISZERO PUSH2 0x8B7 JUMPI PUSH1 0x0 DUP6 DUP2 MSTORE PUSH1 0x4 PUSH1 0x20 MSTORE PUSH1 0x40 SWAP1 KECCAK256 PUSH2 0x866 SWAP1 PUSH1 0x2 ADD DUP3 PUSH2 0x27FB JUMP JUMPDEST DUP3 PUSH2 0x871 DUP7 DUP5 PUSH2 0x33F9 JUMP JUMPDEST DUP2 MLOAD DUP2 LT PUSH2 0x88F JUMPI PUSH4 0x4E487B71 PUSH1 0xE0 SHL PUSH1 0x0 MSTORE PUSH1 0x32 PUSH1 0x4 MSTORE PUSH1 0x24 PUSH1 0x0 REVERT JUMPDEST PUSH1 0x1 PUSH1 0x1 PUSH1 0xA0 SHL SUB SWAP1 SWAP3 AND PUSH1 0x20 SWAP3 DUP4 MUL SWAP2 SWAP1 SWAP2 ADD SWAP1 SWAP2 ADD MSTORE PUSH2 0x8B0 DUP2 PUSH2 0x344B JUMP JUMPDEST SWAP1 POP PUSH2 0x843 JUMP JUMPDEST POP SWAP12 SWAP11 POP POP POP POP POP POP POP POP POP POP POP JUMP JUMPDEST PUSH1 0x0 CHAINID DUP5 DUP1 MLOAD SWAP1 PUSH1 0x20 ADD KECCAK256 PUSH1 0x40 MLOAD PUSH1 0x20 ADD PUSH2 0x8EC SWAP3 SWAP2 SWAP1 SWAP2 DUP3 MSTORE PUSH1 0x20 DUP3 ADD MSTORE PUSH1 0x40 ADD SWAP1 JUMP JUMPDEST PUSH1 0x40 DUP1 MLOAD DUP1 DUP4 SUB PUSH1 0x1F NOT ADD DUP2 MSTORE DUP3 DUP3 MSTORE DUP1 MLOAD PUSH1 0x20 SWAP2 DUP3 ADD KECCAK256 DUP7 MLOAD DUP8 DUP4 ADD KECCAK256 SWAP2 DUP5 ADD DUP2 SWAP1 MSTORE SWAP2 DUP4 ADD MSTORE SWAP2 POP PUSH1 0x0 SWAP1 PUSH1 0x60 ADD PUSH1 0x40 DUP1 MLOAD PUSH1 0x1F NOT DUP2 DUP5 SUB ADD DUP2 MSTORE SWAP2 DUP2 MSTORE DUP2 MLOAD PUSH1 0x20 SWAP3 DUP4 ADD KECCAK256 PUSH1 0x0 DUP2 DUP2 MSTORE PUSH1 0x5 SWAP1 SWAP4 MSTORE SWAP1 DUP3 KECCAK256 DUP1 SLOAD SWAP2 SWAP4 POP SWAP1 PUSH2 0x950 SWAP1 PUSH2 0x3410 JUMP JUMPDEST SWAP1 POP GT PUSH2 0x96F JUMPI PUSH1 0x40 MLOAD PUSH3 0x461BCD PUSH1 0xE5 SHL DUP2 MSTORE PUSH1 0x4 ADD PUSH2 0x467 SWAP1 PUSH2 0x3294 JUMP JUMPDEST PUSH2 0x991 PUSH2 0x97A PUSH2 0x277C JUMP JUMPDEST PUSH1 0x0 DUP5 DUP2 MSTORE PUSH1 0x2 PUSH1 0x20 MSTORE PUSH1 0x40 SWAP1 KECCAK256 PUSH1 0x1 ADD SWAP1 PUSH2 0x27A2 JUMP JUMPDEST ISZERO ISZERO PUSH1 0x1 EQ PUSH2 0x9B2 JUMPI PUSH1 0x40 MLOAD PUSH3 0x461BCD PUSH1 0xE5 SHL DUP2 MSTORE PUSH1 0x4 ADD PUSH2 0x467 SWAP1 PUSH2 0x3369 JUMP JUMPDEST PUSH1 0x0 DUP2 DUP2 MSTORE PUSH1 0x3 PUSH1 0x20 MSTORE PUSH1 0x40 SWAP1 KECCAK256 PUSH2 0x9CD SWAP1 PUSH1 0x1 ADD DUP5 PUSH2 0x27A2 JUMP JUMPDEST ISZERO PUSH2 0xA0D JUMPI PUSH1 0x40 MLOAD PUSH3 0x461BCD PUSH1 0xE5 SHL DUP2 MSTORE PUSH1 0x20 PUSH1 0x4 DUP3 ADD MSTORE PUSH1 0x10 PUSH1 0x24 DUP3 ADD MSTORE PUSH16 0x195C9C8B5B595B58995C8B595E1A5CDD PUSH1 0x82 SHL PUSH1 0x44 DUP3 ADD MSTORE PUSH1 0x64 ADD PUSH2 0x467 JUMP JUMPDEST PUSH1 0x0 DUP2 DUP2 MSTORE PUSH1 0x3 PUSH1 0x20 MSTORE PUSH1 0x40 SWAP1 KECCAK256 PUSH2 0xA28 SWAP1 PUSH1 0x1 ADD DUP5 PUSH2 0x27C7 JUMP JUMPDEST POP PUSH32 0x8EB5DC57E01DA32E2B98214D39EBDD82CD801D261855D5F84B868B5F140A2980 DUP6 DUP6 DUP6 PUSH1 0x40 MLOAD PUSH2 0xA5C SWAP4 SWAP3 SWAP2 SWAP1 PUSH2 0x319B JUMP JUMPDEST PUSH1 0x40 MLOAD DUP1 SWAP2 SUB SWAP1 LOG1 POP POP POP POP POP JUMP JUMPDEST PUSH1 0x0 CHAINID DUP4 DUP1 MLOAD SWAP1 PUSH1 0x20 ADD KECCAK256 PUSH1 0x40 MLOAD PUSH1 0x20 ADD PUSH2 0xA90 SWAP3 SWAP2 SWAP1 SWAP2 DUP3 MSTORE PUSH1 0x20 DUP3 ADD MSTORE PUSH1 0x40 ADD SWAP1 JUMP JUMPDEST PUSH1 0x40 MLOAD PUSH1 0x20 DUP2 DUP4 SUB SUB DUP2 MSTORE SWAP1 PUSH1 0x40 MSTORE DUP1 MLOAD SWAP1 PUSH1 0x20 ADD KECCAK256 PUSH1 0x0 SHR SWAP1 POP PUSH2 0xACD PUSH2 0xAB6 PUSH2 0x277C JUMP JUMPDEST PUSH1 0x0 DUP4 DUP2 MSTORE PUSH1 0x2 PUSH1 0x20 MSTORE PUSH1 0x40 SWAP1 KECCAK256 PUSH1 0x1 ADD SWAP1 PUSH2 0x27A2 JUMP JUMPDEST PUSH2 0xAE9 JUMPI PUSH1 0x40 MLOAD PUSH3 0x461BCD PUSH1 0xE5 SHL DUP2 MSTORE PUSH1 0x4 ADD PUSH2 0x467 SWAP1 PUSH2 0x3369 JUMP JUMPDEST PUSH1 0x0 DUP2 DUP2 MSTORE PUSH1 0x5 PUSH1 0x20 MSTORE PUSH1 0x40 DUP2 KECCAK256 DUP1 SLOAD PUSH2 0xB02 SWAP1 PUSH2 0x3410 JUMP JUMPDEST SWAP1 POP GT PUSH2 0xB46 JUMPI PUSH1 0x40 MLOAD PUSH3 0x461BCD PUSH1 0xE5 SHL DUP2 MSTORE PUSH1 0x20 PUSH1 0x4 DUP3 ADD MSTORE PUSH1 0x12 PUSH1 0x24 DUP3 ADD MSTORE PUSH18 0x195C9C8B5D19585B4B5B9BDD0B595E1A5CDD PUSH1 0x72 SHL PUSH1 0x44 DUP3 ADD MSTORE PUSH1 0x64 ADD PUSH2 0x467 JUMP JUMPDEST PUSH1 0x0 DUP3 MLOAD GT PUSH2 0xB67 JUMPI PUSH1 0x40 MLOAD PUSH3 0x461BCD PUSH1 0xE5 SHL DUP2 MSTORE PUSH1 0x4 ADD PUSH2 0x467 SWAP1 PUSH2 0x32EA JUMP JUMPDEST PUSH1 0x0 DUP2 DUP2 MSTORE PUSH1 0x5 PUSH1 0x20 SWAP1 DUP2 MSTORE PUSH1 0x40 SWAP1 SWAP2 KECCAK256 DUP4 MLOAD PUSH2 0xB86 SWAP3 DUP6 ADD SWAP1 PUSH2 0x29AB JUMP JUMPDEST POP PUSH32 0x337EFABADE1B5802F3A562A44EB0B3222D30AD7717E865D76F4DB7ECBEA56E80 DUP4 DUP4 PUSH2 0xBB2 PUSH2 0x277C JUMP JUMPDEST PUSH1 0x40 MLOAD PUSH2 0xBC1 SWAP4 SWAP3 SWAP2 SWAP1 PUSH2 0x319B JUMP JUMPDEST PUSH1 0x40 MLOAD DUP1 SWAP2 SUB SWAP1 LOG1 POP POP POP JUMP JUMPDEST PUSH1 0x60 PUSH1 0x0 CHAINID DUP5 DUP1 MLOAD SWAP1 PUSH1 0x20 ADD KECCAK256 PUSH1 0x40 MLOAD PUSH1 0x20 ADD PUSH2 0xBF5 SWAP3 SWAP2 SWAP1 SWAP2 DUP3 MSTORE PUSH1 0x20 DUP3 ADD MSTORE PUSH1 0x40 ADD SWAP1 JUMP JUMPDEST PUSH1 0x40 DUP1 MLOAD DUP1 DUP4 SUB PUSH1 0x1F NOT ADD DUP2 MSTORE DUP3 DUP3 MSTORE DUP1 MLOAD PUSH1 0x20 SWAP2 DUP3 ADD KECCAK256 DUP7 MLOAD DUP8 DUP4 ADD KECCAK256 SWAP2 DUP5 ADD DUP2 SWAP1 MSTORE SWAP2 DUP4 ADD MSTORE SWAP2 POP PUSH1 0x0 SWAP1 PUSH1 0x60 ADD PUSH1 0x40 DUP1 MLOAD PUSH1 0x1F NOT DUP2 DUP5 SUB ADD DUP2 MSTORE SWAP2 DUP2 MSTORE DUP2 MLOAD PUSH1 0x20 SWAP3 DUP4 ADD KECCAK256 PUSH1 0x0 DUP2 DUP2 MSTORE PUSH1 0x3 SWAP1 SWAP4 MSTORE SWAP2 KECCAK256 DUP1 SLOAD SWAP2 SWAP3 POP SWAP1 PUSH2 0xC6B JUMPI PUSH1 0x40 MLOAD PUSH3 0x461BCD PUSH1 0xE5 SHL DUP2 MSTORE PUSH1 0x4 ADD PUSH2 0x467 SWAP1 PUSH2 0x3294 JUMP JUMPDEST DUP1 SLOAD DUP2 SWAP1 PUSH2 0xC7B SWAP1 PUSH1 0x1 SWAP1 PUSH2 0x33F9 JUMP JUMPDEST DUP2 SLOAD DUP2 LT PUSH2 0xC99 JUMPI PUSH4 0x4E487B71 PUSH1 0xE0 SHL PUSH1 0x0 MSTORE PUSH1 0x32 PUSH1 0x4 MSTORE PUSH1 0x24 PUSH1 0x0 REVERT JUMPDEST SWAP1 PUSH1 0x0 MSTORE PUSH1 0x20 PUSH1 0x0 KECCAK256 ADD DUP1 SLOAD PUSH2 0xCAE SWAP1 PUSH2 0x3410 JUMP JUMPDEST DUP1 PUSH1 0x1F ADD PUSH1 0x20 DUP1 SWAP2 DIV MUL PUSH1 0x20 ADD PUSH1 0x40 MLOAD SWAP1 DUP2 ADD PUSH1 0x40 MSTORE DUP1 SWAP3 SWAP2 SWAP1 DUP2 DUP2 MSTORE PUSH1 0x20 ADD DUP3 DUP1 SLOAD PUSH2 0xCDA SWAP1 PUSH2 0x3410 JUMP JUMPDEST DUP1 ISZERO PUSH2 0xD27 JUMPI DUP1 PUSH1 0x1F LT PUSH2 0xCFC JUMPI PUSH2 0x100 DUP1 DUP4 SLOAD DIV MUL DUP4 MSTORE SWAP2 PUSH1 0x20 ADD SWAP2 PUSH2 0xD27 JUMP JUMPDEST DUP3 ADD SWAP2 SWAP1 PUSH1 0x0 MSTORE PUSH1 0x20 PUSH1 0x0 KECCAK256 SWAP1 JUMPDEST DUP2 SLOAD DUP2 MSTORE SWAP1 PUSH1 0x1 ADD SWAP1 PUSH1 0x20 ADD DUP1 DUP4 GT PUSH2 0xD0A JUMPI DUP3 SWAP1 SUB PUSH1 0x1F AND DUP3 ADD SWAP2 JUMPDEST POP POP POP POP POP SWAP4 POP POP POP POP JUMPDEST SWAP3 SWAP2 POP POP JUMP JUMPDEST PUSH1 0x6 DUP1 SLOAD PUSH2 0xD45 SWAP1 PUSH2 0x3410 JUMP JUMPDEST DUP1 PUSH1 0x1F ADD PUSH1 0x20 DUP1 SWAP2 DIV MUL PUSH1 0x20 ADD PUSH1 0x40 MLOAD SWAP1 DUP2 ADD PUSH1 0x40 MSTORE DUP1 SWAP3 SWAP2 SWAP1 DUP2 DUP2 MSTORE PUSH1 0x20 ADD DUP3 DUP1 SLOAD PUSH2 0xD71 SWAP1 PUSH2 0x3410 JUMP JUMPDEST DUP1 ISZERO PUSH2 0xDBE JUMPI DUP1 PUSH1 0x1F LT PUSH2 0xD93 JUMPI PUSH2 0x100 DUP1 DUP4 SLOAD DIV MUL DUP4 MSTORE SWAP2 PUSH1 0x20 ADD SWAP2 PUSH2 0xDBE JUMP JUMPDEST DUP3 ADD SWAP2 SWAP1 PUSH1 0x0 MSTORE PUSH1 0x20 PUSH1 0x0 KECCAK256 SWAP1 JUMPDEST DUP2 SLOAD DUP2 MSTORE SWAP1 PUSH1 0x1 ADD SWAP1 PUSH1 0x20 ADD DUP1 DUP4 GT PUSH2 0xDA1 JUMPI DUP3 SWAP1 SUB PUSH1 0x1F AND DUP3 ADD SWAP2 JUMPDEST POP POP POP POP POP DUP2 JUMP JUMPDEST PUSH1 0x60 PUSH1 0x0 CHAINID DUP7 DUP1 MLOAD SWAP1 PUSH1 0x20 ADD KECCAK256 PUSH1 0x40 MLOAD PUSH1 0x20 ADD PUSH2 0xDED SWAP3 SWAP2 SWAP1 SWAP2 DUP3 MSTORE PUSH1 0x20 DUP3 ADD MSTORE PUSH1 0x40 ADD SWAP1 JUMP JUMPDEST PUSH1 0x40 DUP1 MLOAD PUSH1 0x1F NOT DUP2 DUP5 SUB ADD DUP2 MSTORE DUP3 DUP3 MSTORE DUP1 MLOAD PUSH1 0x20 SWAP2 DUP3 ADD KECCAK256 DUP9 MLOAD DUP10 DUP4 ADD KECCAK256 DUP3 DUP6 ADD DUP3 SWAP1 MSTORE DUP5 DUP5 ADD MSTORE DUP3 MLOAD DUP1 DUP6 SUB DUP5 ADD DUP2 MSTORE PUSH1 0x60 SWAP1 SWAP5 ADD SWAP1 SWAP3 MSTORE DUP3 MLOAD SWAP3 ADD SWAP2 SWAP1 SWAP2 KECCAK256 SWAP1 SWAP2 POP PUSH1 0x0 PUSH2 0xE3D DUP6 DUP8 PUSH2 0x33DA JUMP JUMPDEST SWAP1 POP PUSH1 0x0 PUSH2 0xE4B DUP7 DUP4 PUSH2 0x33C2 JUMP JUMPDEST PUSH1 0x0 DUP5 DUP2 MSTORE PUSH1 0x3 PUSH1 0x20 MSTORE PUSH1 0x40 SWAP1 KECCAK256 SWAP1 SWAP2 POP PUSH2 0xE68 SWAP1 PUSH1 0x1 ADD PUSH2 0x27F1 JUMP JUMPDEST DUP2 GT ISZERO PUSH2 0xE8C JUMPI PUSH1 0x0 DUP4 DUP2 MSTORE PUSH1 0x3 PUSH1 0x20 MSTORE PUSH1 0x40 SWAP1 KECCAK256 PUSH2 0xE89 SWAP1 PUSH1 0x1 ADD PUSH2 0x27F1 JUMP JUMPDEST SWAP1 POP JUMPDEST PUSH1 0x0 PUSH2 0xE98 DUP4 DUP4 PUSH2 0x33F9 JUMP JUMPDEST PUSH1 0x1 PUSH1 0x1 PUSH1 0x40 SHL SUB DUP2 GT ISZERO PUSH2 0xEBD JUMPI PUSH4 0x4E487B71 PUSH1 0xE0 SHL PUSH1 0x0 MSTORE PUSH1 0x41 PUSH1 0x4 MSTORE PUSH1 0x24 PUSH1 0x0 REVERT JUMPDEST PUSH1 0x40 MLOAD SWAP1 DUP1 DUP3 MSTORE DUP1 PUSH1 0x20 MUL PUSH1 0x20 ADD DUP3 ADD PUSH1 0x40 MSTORE DUP1 ISZERO PUSH2 0xEE6 JUMPI DUP2 PUSH1 0x20 ADD PUSH1 0x20 DUP3 MUL DUP1 CALLDATASIZE DUP4 CALLDATACOPY ADD SWAP1 POP JUMPDEST POP SWAP1 POP DUP3 JUMPDEST DUP3 DUP2 LT ISZERO PUSH2 0xF5F JUMPI PUSH1 0x0 DUP6 DUP2 MSTORE PUSH1 0x3 PUSH1 0x20 MSTORE PUSH1 0x40 SWAP1 KECCAK256 PUSH2 0xF0E SWAP1 PUSH1 0x1 ADD DUP3 PUSH2 0x27FB JUMP JUMPDEST DUP3 PUSH2 0xF19 DUP7 DUP5 PUSH2 0x33F9 JUMP JUMPDEST DUP2 MLOAD DUP2 LT PUSH2 0xF37 JUMPI PUSH4 0x4E487B71 PUSH1 0xE0 SHL PUSH1 0x0 MSTORE PUSH1 0x32 PUSH1 0x4 MSTORE PUSH1 0x24 PUSH1 0x0 REVERT JUMPDEST PUSH1 0x1 PUSH1 0x1 PUSH1 0xA0 SHL SUB SWAP1 SWAP3 AND PUSH1 0x20 SWAP3 DUP4 MUL SWAP2 SWAP1 SWAP2 ADD SWAP1 SWAP2 ADD MSTORE PUSH2 0xF58 DUP2 PUSH2 0x344B JUMP JUMPDEST SWAP1 POP PUSH2 0xEEB JUMP JUMPDEST POP SWAP10 SWAP9 POP POP POP POP POP POP POP POP POP JUMP JUMPDEST PUSH1 0x60 PUSH1 0x0 PUSH2 0xF7B DUP4 DUP6 PUSH2 0x33DA JUMP JUMPDEST SWAP1 POP PUSH1 0x0 PUSH2 0xF89 DUP5 DUP4 PUSH2 0x33C2 JUMP JUMPDEST PUSH1 0x1 SLOAD SWAP1 SWAP2 POP DUP2 GT ISZERO PUSH2 0xF9B JUMPI POP PUSH1 0x1 SLOAD JUMPDEST PUSH1 0x0 PUSH2 0xFA7 DUP4 DUP4 PUSH2 0x33F9 JUMP JUMPDEST PUSH1 0x1 PUSH1 0x1 PUSH1 0x40 SHL SUB DUP2 GT ISZERO PUSH2 0xFCC JUMPI PUSH4 0x4E487B71 PUSH1 0xE0 SHL PUSH1 0x0 MSTORE PUSH1 0x41 PUSH1 0x4 MSTORE PUSH1 0x24 PUSH1 0x0 REVERT JUMPDEST PUSH1 0x40 MLOAD SWAP1 DUP1 DUP3 MSTORE DUP1 PUSH1 0x20 MUL PUSH1 0x20 ADD DUP3 ADD PUSH1 0x40 MSTORE DUP1 ISZERO PUSH2 0xFFF JUMPI DUP2 PUSH1 0x20 ADD JUMPDEST PUSH1 0x60 DUP2 MSTORE PUSH1 0x20 ADD SWAP1 PUSH1 0x1 SWAP1 SUB SWAP1 DUP2 PUSH2 0xFEA JUMPI SWAP1 POP JUMPDEST POP SWAP1 POP DUP3 JUMPDEST DUP3 DUP2 LT ISZERO PUSH2 0x1107 JUMPI PUSH1 0x1 DUP2 DUP2 SLOAD DUP2 LT PUSH2 0x102D JUMPI PUSH4 0x4E487B71 PUSH1 0xE0 SHL PUSH1 0x0 MSTORE PUSH1 0x32 PUSH1 0x4 MSTORE PUSH1 0x24 PUSH1 0x0 REVERT JUMPDEST SWAP1 PUSH1 0x0 MSTORE PUSH1 0x20 PUSH1 0x0 KECCAK256 ADD DUP1 SLOAD PUSH2 0x1042 SWAP1 PUSH2 0x3410 JUMP JUMPDEST DUP1 PUSH1 0x1F ADD PUSH1 0x20 DUP1 SWAP2 DIV MUL PUSH1 0x20 ADD PUSH1 0x40 MLOAD SWAP1 DUP2 ADD PUSH1 0x40 MSTORE DUP1 SWAP3 SWAP2 SWAP1 DUP2 DUP2 MSTORE PUSH1 0x20 ADD DUP3 DUP1 SLOAD PUSH2 0x106E SWAP1 PUSH2 0x3410 JUMP JUMPDEST DUP1 ISZERO PUSH2 0x10BB JUMPI DUP1 PUSH1 0x1F LT PUSH2 0x1090 JUMPI PUSH2 0x100 DUP1 DUP4 SLOAD DIV MUL DUP4 MSTORE SWAP2 PUSH1 0x20 ADD SWAP2 PUSH2 0x10BB JUMP JUMPDEST DUP3 ADD SWAP2 SWAP1 PUSH1 0x0 MSTORE PUSH1 0x20 PUSH1 0x0 KECCAK256 SWAP1 JUMPDEST DUP2 SLOAD DUP2 MSTORE SWAP1 PUSH1 0x1 ADD SWAP1 PUSH1 0x20 ADD DUP1 DUP4 GT PUSH2 0x109E JUMPI DUP3 SWAP1 SUB PUSH1 0x1F AND DUP3 ADD SWAP2 JUMPDEST POP POP POP POP POP DUP3 DUP6 DUP4 PUSH2 0x10CD SWAP2 SWAP1 PUSH2 0x33F9 JUMP JUMPDEST DUP2 MLOAD DUP2 LT PUSH2 0x10EB JUMPI PUSH4 0x4E487B71 PUSH1 0xE0 SHL PUSH1 0x0 MSTORE PUSH1 0x32 PUSH1 0x4 MSTORE PUSH1 0x24 PUSH1 0x0 REVERT JUMPDEST PUSH1 0x20 MUL PUSH1 0x20 ADD ADD DUP2 SWAP1 MSTORE POP DUP1 PUSH2 0x1100 SWAP1 PUSH2 0x344B JUMP JUMPDEST SWAP1 POP PUSH2 0x1004 JUMP JUMPDEST POP SWAP6 SWAP5 POP POP POP POP POP JUMP JUMPDEST PUSH1 0x0 CHAINID DUP6 DUP1 MLOAD SWAP1 PUSH1 0x20 ADD KECCAK256 PUSH1 0x40 MLOAD PUSH1 0x20 ADD PUSH2 0x1136 SWAP3 SWAP2 SWAP1 SWAP2 DUP3 MSTORE PUSH1 0x20 DUP3 ADD MSTORE PUSH1 0x40 ADD SWAP1 JUMP JUMPDEST PUSH1 0x40 DUP1 MLOAD PUSH1 0x1F NOT DUP2 DUP5 SUB ADD DUP2 MSTORE DUP3 DUP3 MSTORE DUP1 MLOAD PUSH1 0x20 SWAP2 DUP3 ADD KECCAK256 DUP8 MLOAD DUP9 DUP4 ADD KECCAK256 DUP3 DUP6 ADD DUP3 SWAP1 MSTORE DUP5 DUP5 ADD MSTORE DUP3 MLOAD DUP1 DUP6 SUB DUP5 ADD DUP2 MSTORE PUSH1 0x60 SWAP1 SWAP5 ADD SWAP1 SWAP3 MSTORE DUP3 MLOAD SWAP3 ADD SWAP2 SWAP1 SWAP2 KECCAK256 SWAP1 SWAP2 POP PUSH2 0x1185 PUSH2 0x97A PUSH2 0x277C JUMP JUMPDEST PUSH2 0x11A1 JUMPI PUSH1 0x40 MLOAD PUSH3 0x461BCD PUSH1 0xE5 SHL DUP2 MSTORE PUSH1 0x4 ADD PUSH2 0x467 SWAP1 PUSH2 0x3369 JUMP JUMPDEST PUSH1 0x0 DUP2 DUP2 MSTORE PUSH1 0x5 PUSH1 0x20 MSTORE PUSH1 0x40 SWAP1 KECCAK256 DUP1 SLOAD PUSH2 0x11BA SWAP1 PUSH2 0x3410 JUMP JUMPDEST ISZERO SWAP1 POP PUSH2 0x11D9 JUMPI PUSH1 0x40 MLOAD PUSH3 0x461BCD PUSH1 0xE5 SHL DUP2 MSTORE PUSH1 0x4 ADD PUSH2 0x467 SWAP1 PUSH2 0x32C0 JUMP JUMPDEST PUSH1 0x0 DUP5 MLOAD GT PUSH2 0x11FA JUMPI PUSH1 0x40 MLOAD PUSH3 0x461BCD PUSH1 0xE5 SHL DUP2 MSTORE PUSH1 0x4 ADD PUSH2 0x467 SWAP1 PUSH2 0x32EA JUMP JUMPDEST PUSH1 0x0 DUP6 MLOAD GT PUSH2 0x121B JUMPI PUSH1 0x40 MLOAD PUSH3 0x461BCD PUSH1 0xE5 SHL DUP2 MSTORE PUSH1 0x4 ADD PUSH2 0x467 SWAP1 PUSH2 0x3312 JUMP JUMPDEST PUSH1 0x0 DUP2 DUP2 MSTORE PUSH1 0x5 PUSH1 0x20 SWAP1 DUP2 MSTORE PUSH1 0x40 SWAP1 SWAP2 KECCAK256 DUP6 MLOAD PUSH2 0x123A SWAP3 DUP8 ADD SWAP1 PUSH2 0x29AB JUMP JUMPDEST POP PUSH1 0x0 DUP3 DUP2 MSTORE PUSH1 0x2 PUSH1 0x20 SWAP1 DUP2 MSTORE PUSH1 0x40 DUP3 KECCAK256 DUP1 SLOAD PUSH1 0x1 DUP2 ADD DUP3 SSTORE SWAP1 DUP4 MSTORE SWAP2 DUP2 SWAP1 KECCAK256 DUP8 MLOAD PUSH2 0x126D SWAP4 SWAP2 SWAP1 SWAP2 ADD SWAP2 DUP9 ADD SWAP1 PUSH2 0x29AB JUMP JUMPDEST POP PUSH1 0x0 JUMPDEST DUP4 MLOAD DUP2 LT ISZERO PUSH2 0x133E JUMPI PUSH2 0x12C9 DUP5 DUP3 DUP2 MLOAD DUP2 LT PUSH2 0x129D JUMPI PUSH4 0x4E487B71 PUSH1 0xE0 SHL PUSH1 0x0 MSTORE PUSH1 0x32 PUSH1 0x4 MSTORE PUSH1 0x24 PUSH1 0x0 REVERT JUMPDEST PUSH1 0x20 MUL PUSH1 0x20 ADD ADD MLOAD PUSH1 0x3 PUSH1 0x0 DUP6 DUP2 MSTORE PUSH1 0x20 ADD SWAP1 DUP2 MSTORE PUSH1 0x20 ADD PUSH1 0x0 KECCAK256 PUSH1 0x1 ADD PUSH2 0x27C7 SWAP1 SWAP2 SWAP1 PUSH4 0xFFFFFFFF AND JUMP JUMPDEST POP PUSH32 0x8EB5DC57E01DA32E2B98214D39EBDD82CD801D261855D5F84B868B5F140A2980 DUP8 DUP8 DUP7 DUP5 DUP2 MLOAD DUP2 LT PUSH2 0x130D JUMPI PUSH4 0x4E487B71 PUSH1 0xE0 SHL PUSH1 0x0 MSTORE PUSH1 0x32 PUSH1 0x4 MSTORE PUSH1 0x24 PUSH1 0x0 REVERT JUMPDEST PUSH1 0x20 MUL PUSH1 0x20 ADD ADD MLOAD PUSH1 0x40 MLOAD PUSH2 0x1324 SWAP4 SWAP3 SWAP2 SWAP1 PUSH2 0x319B JUMP JUMPDEST PUSH1 0x40 MLOAD DUP1 SWAP2 SUB SWAP1 LOG1 DUP1 PUSH2 0x1336 DUP2 PUSH2 0x344B JUMP JUMPDEST SWAP2 POP POP PUSH2 0x1271 JUMP JUMPDEST POP PUSH32 0x11F7F07DE1D35C43B47EDD8A19E7F8208259CDF66344DE81856C5BB7C798DB26 DUP7 DUP7 DUP7 PUSH2 0x6C8 PUSH2 0x277C JUMP JUMPDEST PUSH1 0x60 PUSH1 0x0 CHAINID DUP4 DUP1 MLOAD SWAP1 PUSH1 0x20 ADD KECCAK256 PUSH1 0x40 MLOAD PUSH1 0x20 ADD PUSH2 0x1392 SWAP3 SWAP2 SWAP1 SWAP2 DUP3 MSTORE PUSH1 0x20 DUP3 ADD MSTORE PUSH1 0x40 ADD SWAP1 JUMP JUMPDEST PUSH1 0x40 DUP1 MLOAD PUSH1 0x1F NOT DUP2 DUP5 SUB ADD DUP2 MSTORE SWAP2 DUP2 MSTORE DUP2 MLOAD PUSH1 0x20 SWAP3 DUP4 ADD KECCAK256 PUSH1 0x0 DUP2 DUP2 MSTORE PUSH1 0x5 SWAP1 SWAP4 MSTORE SWAP1 DUP3 KECCAK256 DUP1 SLOAD SWAP2 SWAP4 POP SWAP1 PUSH2 0x13C6 SWAP1 PUSH2 0x3410 JUMP JUMPDEST SWAP1 POP GT PUSH2 0x140A JUMPI PUSH1 0x40 MLOAD PUSH3 0x461BCD PUSH1 0xE5 SHL DUP2 MSTORE PUSH1 0x20 PUSH1 0x4 DUP3 ADD MSTORE PUSH1 0x12 PUSH1 0x24 DUP3 ADD MSTORE PUSH18 0x195C9C8B5D19585B4B5B9BDD0B595E1A5CDD PUSH1 0x72 SHL PUSH1 0x44 DUP3 ADD MSTORE PUSH1 0x64 ADD PUSH2 0x467 JUMP JUMPDEST PUSH1 0x0 DUP2 DUP2 MSTORE PUSH1 0x5 PUSH1 0x20 MSTORE PUSH1 0x40 SWAP1 KECCAK256 DUP1 SLOAD PUSH2 0x1423 SWAP1 PUSH2 0x3410 JUMP JUMPDEST DUP1 PUSH1 0x1F ADD PUSH1 0x20 DUP1 SWAP2 DIV MUL PUSH1 0x20 ADD PUSH1 0x40 MLOAD SWAP1 DUP2 ADD PUSH1 0x40 MSTORE DUP1 SWAP3 SWAP2 SWAP1 DUP2 DUP2 MSTORE PUSH1 0x20 ADD DUP3 DUP1 SLOAD PUSH2 0x144F SWAP1 PUSH2 0x3410 JUMP JUMPDEST DUP1 ISZERO PUSH2 0x149C JUMPI DUP1 PUSH1 0x1F LT PUSH2 0x1471 JUMPI PUSH2 0x100 DUP1 DUP4 SLOAD DIV MUL DUP4 MSTORE SWAP2 PUSH1 0x20 ADD SWAP2 PUSH2 0x149C JUMP JUMPDEST DUP3 ADD SWAP2 SWAP1 PUSH1 0x0 MSTORE PUSH1 0x20 PUSH1 0x0 KECCAK256 SWAP1 JUMPDEST DUP2 SLOAD DUP2 MSTORE SWAP1 PUSH1 0x1 ADD SWAP1 PUSH1 0x20 ADD DUP1 DUP4 GT PUSH2 0x147F JUMPI DUP3 SWAP1 SUB PUSH1 0x1F AND DUP3 ADD SWAP2 JUMPDEST POP POP POP POP POP SWAP2 POP POP SWAP2 SWAP1 POP JUMP JUMPDEST PUSH1 0x60 PUSH1 0x0 CHAINID DUP5 DUP1 MLOAD SWAP1 PUSH1 0x20 ADD KECCAK256 PUSH1 0x40 MLOAD PUSH1 0x20 ADD PUSH2 0x14D0 SWAP3 SWAP2 SWAP1 SWAP2 DUP3 MSTORE PUSH1 0x20 DUP3 ADD MSTORE PUSH1 0x40 ADD SWAP1 JUMP JUMPDEST PUSH1 0x40 DUP1 MLOAD DUP1 DUP4 SUB PUSH1 0x1F NOT ADD DUP2 MSTORE DUP3 DUP3 MSTORE DUP1 MLOAD PUSH1 0x20 SWAP2 DUP3 ADD KECCAK256 DUP7 MLOAD DUP8 DUP4 ADD KECCAK256 SWAP2 DUP5 ADD DUP2 SWAP1 MSTORE SWAP2 DUP4 ADD MSTORE SWAP2 POP PUSH1 0x0 SWAP1 PUSH1 0x60 ADD PUSH1 0x40 DUP1 MLOAD PUSH1 0x1F NOT DUP2 DUP5 SUB ADD DUP2 MSTORE SWAP2 DUP2 MSTORE DUP2 MLOAD PUSH1 0x20 SWAP3 DUP4 ADD KECCAK256 PUSH1 0x0 DUP2 DUP2 MSTORE PUSH1 0x5 SWAP1 SWAP4 MSTORE SWAP1 DUP3 KECCAK256 DUP1 SLOAD SWAP2 SWAP4 POP SWAP1 PUSH2 0x1534 SWAP1 PUSH2 0x3410 JUMP JUMPDEST SWAP1 POP GT PUSH2 0x1553 JUMPI PUSH1 0x40 MLOAD PUSH3 0x461BCD PUSH1 0xE5 SHL DUP2 MSTORE PUSH1 0x4 ADD PUSH2 0x467 SWAP1 PUSH2 0x3294 JUMP JUMPDEST PUSH1 0x0 DUP2 DUP2 MSTORE PUSH1 0x5 PUSH1 0x20 MSTORE PUSH1 0x40 SWAP1 KECCAK256 DUP1 SLOAD PUSH2 0x156C SWAP1 PUSH2 0x3410 JUMP JUMPDEST DUP1 PUSH1 0x1F ADD PUSH1 0x20 DUP1 SWAP2 DIV MUL PUSH1 0x20 ADD PUSH1 0x40 MLOAD SWAP1 DUP2 ADD PUSH1 0x40 MSTORE DUP1 SWAP3 SWAP2 SWAP1 DUP2 DUP2 MSTORE PUSH1 0x20 ADD DUP3 DUP1 SLOAD PUSH2 0x1598 SWAP1 PUSH2 0x3410 JUMP JUMPDEST DUP1 ISZERO PUSH2 0x15E5 JUMPI DUP1 PUSH1 0x1F LT PUSH2 0x15BA JUMPI PUSH2 0x100 DUP1 DUP4 SLOAD DIV MUL DUP4 MSTORE SWAP2 PUSH1 0x20 ADD SWAP2 PUSH2 0x15E5 JUMP JUMPDEST DUP3 ADD SWAP2 SWAP1 PUSH1 0x0 MSTORE PUSH1 0x20 PUSH1 0x0 KECCAK256 SWAP1 JUMPDEST DUP2 SLOAD DUP2 MSTORE SWAP1 PUSH1 0x1 ADD SWAP1 PUSH1 0x20 ADD DUP1 DUP4 GT PUSH2 0x15C8 JUMPI DUP3 SWAP1 SUB PUSH1 0x1F AND DUP3 ADD SWAP2 JUMPDEST POP POP POP POP POP SWAP3 POP POP POP SWAP3 SWAP2 POP POP JUMP JUMPDEST PUSH1 0x0 CHAINID DUP5 DUP1 MLOAD SWAP1 PUSH1 0x20 ADD KECCAK256 PUSH1 0x40 MLOAD PUSH1 0x20 ADD PUSH2 0x1619 SWAP3 SWAP2 SWAP1 SWAP2 DUP3 MSTORE PUSH1 0x20 DUP3 ADD MSTORE PUSH1 0x40 ADD SWAP1 JUMP JUMPDEST PUSH1 0x40 DUP1 MLOAD DUP1 DUP4 SUB PUSH1 0x1F NOT ADD DUP2 MSTORE DUP3 DUP3 MSTORE DUP1 MLOAD PUSH1 0x20 SWAP2 DUP3 ADD KECCAK256 DUP7 MLOAD DUP8 DUP4 ADD KECCAK256 SWAP2 DUP5 ADD DUP2 SWAP1 MSTORE SWAP2 DUP4 ADD MSTORE SWAP2 POP PUSH1 0x0 SWAP1 PUSH1 0x60 ADD PUSH1 0x40 DUP1 MLOAD PUSH1 0x1F NOT DUP2 DUP5 SUB ADD DUP2 MSTORE SWAP2 DUP2 MSTORE DUP2 MLOAD PUSH1 0x20 SWAP3 DUP4 ADD KECCAK256 PUSH1 0x0 DUP2 DUP2 MSTORE PUSH1 0x5 SWAP1 SWAP4 MSTORE SWAP1 DUP3 KECCAK256 DUP1 SLOAD SWAP2 SWAP4 POP SWAP1 PUSH2 0x167D SWAP1 PUSH2 0x3410 JUMP JUMPDEST SWAP1 POP GT PUSH2 0x169C JUMPI PUSH1 0x40 MLOAD PUSH3 0x461BCD PUSH1 0xE5 SHL DUP2 MSTORE PUSH1 0x4 ADD PUSH2 0x467 SWAP1 PUSH2 0x3294 JUMP JUMPDEST PUSH2 0x16A7 PUSH2 0x97A PUSH2 0x277C JUMP JUMPDEST ISZERO ISZERO PUSH1 0x1 EQ PUSH2 0x16C8 JUMPI PUSH1 0x40 MLOAD PUSH3 0x461BCD PUSH1 0xE5 SHL DUP2 MSTORE PUSH1 0x4 ADD PUSH2 0x467 SWAP1 PUSH2 0x3369 JUMP JUMPDEST PUSH1 0x0 DUP2 DUP2 MSTORE PUSH1 0x3 PUSH1 0x20 MSTORE PUSH1 0x40 SWAP1 KECCAK256 PUSH2 0x16E3 SWAP1 PUSH1 0x1 ADD DUP5 PUSH2 0x27A2 JUMP JUMPDEST ISZERO ISZERO PUSH1 0x1 EQ PUSH2 0x172B JUMPI PUSH1 0x40 MLOAD PUSH3 0x461BCD PUSH1 0xE5 SHL DUP2 MSTORE PUSH1 0x20 PUSH1 0x4 DUP3 ADD MSTORE PUSH1 0x14 PUSH1 0x24 DUP3 ADD MSTORE PUSH20 0x195C9C8B5B595B58995C8B5B9BDD0B595E1A5CDD PUSH1 0x62 SHL PUSH1 0x44 DUP3 ADD MSTORE PUSH1 0x64 ADD PUSH2 0x467 JUMP JUMPDEST PUSH1 0x0 DUP2 DUP2 MSTORE PUSH1 0x3 PUSH1 0x20 MSTORE PUSH1 0x40 SWAP1 KECCAK256 PUSH2 0x1746 SWAP1 PUSH1 0x1 ADD DUP5 PUSH2 0x27DC JUMP JUMPDEST POP PUSH32 0x7BD4FDF0F1872366F33F1732F765696C1EC3DDCCAA8C1F72095B58D8F411FA93 DUP6 DUP6 DUP6 PUSH1 0x40 MLOAD PUSH2 0xA5C SWAP4 SWAP3 SWAP2 SWAP1 PUSH2 0x319B JUMP JUMPDEST PUSH1 0x0 CHAINID DUP5 DUP1 MLOAD SWAP1 PUSH1 0x20 ADD KECCAK256 PUSH1 0x40 MLOAD PUSH1 0x20 ADD PUSH2 0x179F SWAP3 SWAP2 SWAP1 SWAP2 DUP3 MSTORE PUSH1 0x20 DUP3 ADD MSTORE PUSH1 0x40 ADD SWAP1 JUMP JUMPDEST PUSH1 0x40 DUP1 MLOAD PUSH1 0x1F NOT DUP2 DUP5 SUB ADD DUP2 MSTORE SWAP2 DUP2 MSTORE DUP2 MLOAD PUSH1 0x20 SWAP3 DUP4 ADD KECCAK256 PUSH1 0x0 DUP2 DUP2 MSTORE PUSH1 0x5 SWAP1 SWAP4 MSTORE SWAP2 KECCAK256 DUP1 SLOAD SWAP2 SWAP3 POP SWAP1 PUSH2 0x17D2 SWAP1 PUSH2 0x3410 JUMP JUMPDEST ISZERO SWAP1 POP PUSH2 0x17F1 JUMPI PUSH1 0x40 MLOAD PUSH3 0x461BCD PUSH1 0xE5 SHL DUP2 MSTORE PUSH1 0x4 ADD PUSH2 0x467 SWAP1 PUSH2 0x32C0 JUMP JUMPDEST PUSH1 0x0 DUP4 MLOAD GT PUSH2 0x1812 JUMPI PUSH1 0x40 MLOAD PUSH3 0x461BCD PUSH1 0xE5 SHL DUP2 MSTORE PUSH1 0x4 ADD PUSH2 0x467 SWAP1 PUSH2 0x32EA JUMP JUMPDEST PUSH1 0x0 DUP5 MLOAD GT PUSH2 0x1833 JUMPI PUSH1 0x40 MLOAD PUSH3 0x461BCD PUSH1 0xE5 SHL DUP2 MSTORE PUSH1 0x4 ADD PUSH2 0x467 SWAP1 PUSH2 0x3312 JUMP JUMPDEST PUSH1 0x0 DUP3 MLOAD GT PUSH2 0x1878 JUMPI PUSH1 0x40 MLOAD PUSH3 0x461BCD PUSH1 0xE5 SHL DUP2 MSTORE PUSH1 0x20 PUSH1 0x4 DUP3 ADD MSTORE PUSH1 0x11 PUSH1 0x24 DUP3 ADD MSTORE PUSH17 0x6572722D656D7074792D6D656D62657273 PUSH1 0x78 SHL PUSH1 0x44 DUP3 ADD MSTORE PUSH1 0x64 ADD PUSH2 0x467 JUMP JUMPDEST PUSH1 0x0 DUP2 DUP2 MSTORE PUSH1 0x5 PUSH1 0x20 SWAP1 DUP2 MSTORE PUSH1 0x40 SWAP1 SWAP2 KECCAK256 DUP5 MLOAD PUSH2 0x1897 SWAP3 DUP7 ADD SWAP1 PUSH2 0x29AB JUMP JUMPDEST POP PUSH1 0x1 DUP1 SLOAD DUP1 DUP3 ADD DUP3 SSTORE PUSH1 0x0 SWAP2 SWAP1 SWAP2 MSTORE DUP5 MLOAD PUSH2 0x18DA SWAP2 PUSH32 0xB10E2D527612073B26EECDFD717E6A320CF44B4AFAC2B0732D9FCBE2B7FA0CF6 ADD SWAP1 PUSH1 0x20 DUP8 ADD SWAP1 PUSH2 0x29AB JUMP JUMPDEST POP PUSH1 0x0 JUMPDEST DUP3 MLOAD DUP2 LT ISZERO PUSH2 0x19A9 JUMPI PUSH2 0x1936 DUP4 DUP3 DUP2 MLOAD DUP2 LT PUSH2 0x190A JUMPI PUSH4 0x4E487B71 PUSH1 0xE0 SHL PUSH1 0x0 MSTORE PUSH1 0x32 PUSH1 0x4 MSTORE PUSH1 0x24 PUSH1 0x0 REVERT JUMPDEST PUSH1 0x20 MUL PUSH1 0x20 ADD ADD MLOAD PUSH1 0x2 PUSH1 0x0 DUP6 DUP2 MSTORE PUSH1 0x20 ADD SWAP1 DUP2 MSTORE PUSH1 0x20 ADD PUSH1 0x0 KECCAK256 PUSH1 0x1 ADD PUSH2 0x27C7 SWAP1 SWAP2 SWAP1 PUSH4 0xFFFFFFFF AND JUMP JUMPDEST POP PUSH32 0xB1CE9C84087AF16E758E7041EEC971F57C833F4127F64F742C5B0EE14E0537D2 DUP6 DUP5 DUP4 DUP2 MLOAD DUP2 LT PUSH2 0x1979 JUMPI PUSH4 0x4E487B71 PUSH1 0xE0 SHL PUSH1 0x0 MSTORE PUSH1 0x32 PUSH1 0x4 MSTORE PUSH1 0x24 PUSH1 0x0 REVERT JUMPDEST PUSH1 0x20 MUL PUSH1 0x20 ADD ADD MLOAD PUSH1 0x40 MLOAD PUSH2 0x198F SWAP3 SWAP2 SWAP1 PUSH2 0x3171 JUMP JUMPDEST PUSH1 0x40 MLOAD DUP1 SWAP2 SUB SWAP1 LOG1 DUP1 PUSH2 0x19A1 DUP2 PUSH2 0x344B JUMP JUMPDEST SWAP2 POP POP PUSH2 0x18DE JUMP JUMPDEST POP PUSH32 0x234EB9D37ED58B55E52E99246BB2B0CEBB55311292E5D3DE44A6DF95A9AF2501 DUP5 DUP5 PUSH2 0x19D5 PUSH2 0x277C JUMP JUMPDEST PUSH1 0x40 MLOAD PUSH2 0x19E4 SWAP4 SWAP3 SWAP2 SWAP1 PUSH2 0x319B JUMP JUMPDEST PUSH1 0x40 MLOAD DUP1 SWAP2 SUB SWAP1 LOG1 POP POP POP POP JUMP JUMPDEST PUSH1 0x0 CHAINID DUP4 DUP1 MLOAD SWAP1 PUSH1 0x20 ADD KECCAK256 PUSH1 0x40 MLOAD PUSH1 0x20 ADD PUSH2 0x1A17 SWAP3 SWAP2 SWAP1 SWAP2 DUP3 MSTORE PUSH1 0x20 DUP3 ADD MSTORE PUSH1 0x40 ADD SWAP1 JUMP JUMPDEST PUSH1 0x40 MLOAD PUSH1 0x20 DUP2 DUP4 SUB SUB DUP2 MSTORE SWAP1 PUSH1 0x40 MSTORE DUP1 MLOAD SWAP1 PUSH1 0x20 ADD KECCAK256 PUSH1 0x0 SHR SWAP1 POP PUSH2 0x1A3D PUSH2 0xAB6 PUSH2 0x277C JUMP JUMPDEST ISZERO ISZERO PUSH1 0x1 EQ PUSH2 0x1A5E JUMPI PUSH1 0x40 MLOAD PUSH3 0x461BCD PUSH1 0xE5 SHL DUP2 MSTORE PUSH1 0x4 ADD PUSH2 0x467 SWAP1 PUSH2 0x3369 JUMP JUMPDEST PUSH1 0x0 DUP2 DUP2 MSTORE PUSH1 0x2 PUSH1 0x20 MSTORE PUSH1 0x40 SWAP1 KECCAK256 PUSH2 0x1A79 SWAP1 PUSH1 0x1 ADD DUP4 PUSH2 0x27A2 JUMP JUMPDEST ISZERO PUSH2 0x1AB9 JUMPI PUSH1 0x40 MLOAD PUSH3 0x461BCD PUSH1 0xE5 SHL DUP2 MSTORE PUSH1 0x20 PUSH1 0x4 DUP3 ADD MSTORE PUSH1 0x10 PUSH1 0x24 DUP3 ADD MSTORE PUSH16 0x195C9C8B5B595B58995C8B595E1A5CDD PUSH1 0x82 SHL PUSH1 0x44 DUP3 ADD MSTORE PUSH1 0x64 ADD PUSH2 0x467 JUMP JUMPDEST PUSH1 0x0 DUP2 DUP2 MSTORE PUSH1 0x2 PUSH1 0x20 MSTORE PUSH1 0x40 SWAP1 KECCAK256 PUSH2 0x1AD4 SWAP1 PUSH1 0x1 ADD DUP4 PUSH2 0x27C7 JUMP JUMPDEST POP PUSH32 0xB1CE9C84087AF16E758E7041EEC971F57C833F4127F64F742C5B0EE14E0537D2 DUP4 DUP4 PUSH1 0x40 MLOAD PUSH2 0xBC1 SWAP3 SWAP2 SWAP1 PUSH2 0x3171 JUMP JUMPDEST PUSH1 0x60 PUSH1 0x0 CHAINID DUP7 DUP1 MLOAD SWAP1 PUSH1 0x20 ADD KECCAK256 PUSH1 0x40 MLOAD PUSH1 0x20 ADD PUSH2 0x1B2D SWAP3 SWAP2 SWAP1 SWAP2 DUP3 MSTORE PUSH1 0x20 DUP3 ADD MSTORE PUSH1 0x40 ADD SWAP1 JUMP JUMPDEST PUSH1 0x40 DUP1 MLOAD PUSH1 0x1F NOT DUP2 DUP5 SUB ADD DUP2 MSTORE DUP3 DUP3 MSTORE DUP1 MLOAD PUSH1 0x20 SWAP2 DUP3 ADD KECCAK256 DUP9 MLOAD DUP10 DUP4 ADD KECCAK256 DUP3 DUP6 ADD DUP3 SWAP1 MSTORE DUP5 DUP5 ADD MSTORE DUP3 MLOAD DUP1 DUP6 SUB DUP5 ADD DUP2 MSTORE PUSH1 0x60 SWAP1 SWAP5 ADD SWAP1 SWAP3 MSTORE DUP3 MLOAD SWAP3 ADD SWAP2 SWAP1 SWAP2 KECCAK256 SWAP1 SWAP2 POP PUSH1 0x0 PUSH2 0x1B7D DUP6 DUP8 PUSH2 0x33DA JUMP JUMPDEST SWAP1 POP PUSH1 0x0 PUSH2 0x1B8B DUP7 DUP4 PUSH2 0x33C2 JUMP JUMPDEST PUSH1 0x0 DUP5 DUP2 MSTORE PUSH1 0x3 PUSH1 0x20 MSTORE PUSH1 0x40 SWAP1 KECCAK256 SLOAD SWAP1 SWAP2 POP DUP2 GT ISZERO PUSH2 0x1BB5 JUMPI POP PUSH1 0x0 DUP3 DUP2 MSTORE PUSH1 0x3 PUSH1 0x20 MSTORE PUSH1 0x40 SWAP1 KECCAK256 SLOAD JUMPDEST PUSH1 0x0 PUSH2 0x1BC1 DUP4 DUP4 PUSH2 0x33F9 JUMP JUMPDEST PUSH1 0x1 PUSH1 0x1 PUSH1 0x40 SHL SUB DUP2 GT ISZERO PUSH2 0x1BE6 JUMPI PUSH4 0x4E487B71 PUSH1 0xE0 SHL PUSH1 0x0 MSTORE PUSH1 0x41 PUSH1 0x4 MSTORE PUSH1 0x24 PUSH1 0x0 REVERT JUMPDEST PUSH1 0x40 MLOAD SWAP1 DUP1 DUP3 MSTORE DUP1 PUSH1 0x20 MUL PUSH1 0x20 ADD DUP3 ADD PUSH1 0x40 MSTORE DUP1 ISZERO PUSH2 0x1C19 JUMPI DUP2 PUSH1 0x20 ADD JUMPDEST PUSH1 0x60 DUP2 MSTORE PUSH1 0x20 ADD SWAP1 PUSH1 0x1 SWAP1 SUB SWAP1 DUP2 PUSH2 0x1C04 JUMPI SWAP1 POP JUMPDEST POP SWAP1 POP DUP3 JUMPDEST DUP3 DUP2 LT ISZERO PUSH2 0xF5F JUMPI PUSH1 0x0 DUP6 DUP2 MSTORE PUSH1 0x3 PUSH1 0x20 MSTORE PUSH1 0x40 SWAP1 KECCAK256 DUP1 SLOAD DUP3 SWAP1 DUP2 LT PUSH2 0x1C54 JUMPI PUSH4 0x4E487B71 PUSH1 0xE0 SHL PUSH1 0x0 MSTORE PUSH1 0x32 PUSH1 0x4 MSTORE PUSH1 0x24 PUSH1 0x0 REVERT JUMPDEST SWAP1 PUSH1 0x0 MSTORE PUSH1 0x20 PUSH1 0x0 KECCAK256 ADD DUP1 SLOAD PUSH2 0x1C69 SWAP1 PUSH2 0x3410 JUMP JUMPDEST DUP1 PUSH1 0x1F ADD PUSH1 0x20 DUP1 SWAP2 DIV MUL PUSH1 0x20 ADD PUSH1 0x40 MLOAD SWAP1 DUP2 ADD PUSH1 0x40 MSTORE DUP1 SWAP3 SWAP2 SWAP1 DUP2 DUP2 MSTORE PUSH1 0x20 ADD DUP3 DUP1 SLOAD PUSH2 0x1C95 SWAP1 PUSH2 0x3410 JUMP JUMPDEST DUP1 ISZERO PUSH2 0x1CE2 JUMPI DUP1 PUSH1 0x1F LT PUSH2 0x1CB7 JUMPI PUSH2 0x100 DUP1 DUP4 SLOAD DIV MUL DUP4 MSTORE SWAP2 PUSH1 0x20 ADD SWAP2 PUSH2 0x1CE2 JUMP JUMPDEST DUP3 ADD SWAP2 SWAP1 PUSH1 0x0 MSTORE PUSH1 0x20 PUSH1 0x0 KECCAK256 SWAP1 JUMPDEST DUP2 SLOAD DUP2 MSTORE SWAP1 PUSH1 0x1 ADD SWAP1 PUSH1 0x20 ADD DUP1 DUP4 GT PUSH2 0x1CC5 JUMPI DUP3 SWAP1 SUB PUSH1 0x1F AND DUP3 ADD SWAP2 JUMPDEST POP POP POP POP POP DUP3 DUP6 DUP4 PUSH2 0x1CF4 SWAP2 SWAP1 PUSH2 0x33F9 JUMP JUMPDEST DUP2 MLOAD DUP2 LT PUSH2 0x1D12 JUMPI PUSH4 0x4E487B71 PUSH1 0xE0 SHL PUSH1 0x0 MSTORE PUSH1 0x32 PUSH1 0x4 MSTORE PUSH1 0x24 PUSH1 0x0 REVERT JUMPDEST PUSH1 0x20 MUL PUSH1 0x20 ADD ADD DUP2 SWAP1 MSTORE POP DUP1 PUSH2 0x1D27 SWAP1 PUSH2 0x344B JUMP JUMPDEST SWAP1 POP PUSH2 0x1C1E JUMP JUMPDEST PUSH1 0x60 PUSH1 0x0 CHAINID DUP6 DUP1 MLOAD SWAP1 PUSH1 0x20 ADD KECCAK256 PUSH1 0x40 MLOAD PUSH1 0x20 ADD PUSH2 0x1D55 SWAP3 SWAP2 SWAP1 SWAP2 DUP3 MSTORE PUSH1 0x20 DUP3 ADD MSTORE PUSH1 0x40 ADD SWAP1 JUMP JUMPDEST PUSH1 0x40 DUP1 MLOAD PUSH1 0x1F NOT DUP2 DUP5 SUB ADD DUP2 MSTORE SWAP2 SWAP1 MSTORE DUP1 MLOAD PUSH1 0x20 SWAP1 SWAP2 ADD KECCAK256 SWAP1 POP PUSH1 0x0 PUSH2 0x1D7B DUP5 DUP7 PUSH2 0x33DA JUMP JUMPDEST SWAP1 POP PUSH1 0x0 PUSH2 0x1D89 DUP6 DUP4 PUSH2 0x33C2 JUMP JUMPDEST PUSH1 0x0 DUP5 DUP2 MSTORE PUSH1 0x2 PUSH1 0x20 MSTORE PUSH1 0x40 SWAP1 KECCAK256 SLOAD SWAP1 SWAP2 POP DUP2 GT ISZERO PUSH2 0x1DB3 JUMPI POP PUSH1 0x0 DUP3 DUP2 MSTORE PUSH1 0x2 PUSH1 0x20 MSTORE PUSH1 0x40 SWAP1 KECCAK256 SLOAD JUMPDEST PUSH1 0x0 PUSH2 0x1DBF DUP4 DUP4 PUSH2 0x33F9 JUMP JUMPDEST PUSH1 0x1 PUSH1 0x1 PUSH1 0x40 SHL SUB DUP2 GT ISZERO PUSH2 0x1DE4 JUMPI PUSH4 0x4E487B71 PUSH1 0xE0 SHL PUSH1 0x0 MSTORE PUSH1 0x41 PUSH1 0x4 MSTORE PUSH1 0x24 PUSH1 0x0 REVERT JUMPDEST PUSH1 0x40 MLOAD SWAP1 DUP1 DUP3 MSTORE DUP1 PUSH1 0x20 MUL PUSH1 0x20 ADD DUP3 ADD PUSH1 0x40 MSTORE DUP1 ISZERO PUSH2 0x1E17 JUMPI DUP2 PUSH1 0x20 ADD JUMPDEST PUSH1 0x60 DUP2 MSTORE PUSH1 0x20 ADD SWAP1 PUSH1 0x1 SWAP1 SUB SWAP1 DUP2 PUSH2 0x1E02 JUMPI SWAP1 POP JUMPDEST POP SWAP1 POP DUP3 JUMPDEST DUP3 DUP2 LT ISZERO PUSH2 0x1F2C JUMPI PUSH1 0x0 DUP6 DUP2 MSTORE PUSH1 0x2 PUSH1 0x20 MSTORE PUSH1 0x40 SWAP1 KECCAK256 DUP1 SLOAD DUP3 SWAP1 DUP2 LT PUSH2 0x1E52 JUMPI PUSH4 0x4E487B71 PUSH1 0xE0 SHL PUSH1 0x0 MSTORE PUSH1 0x32 PUSH1 0x4 MSTORE PUSH1 0x24 PUSH1 0x0 REVERT JUMPDEST SWAP1 PUSH1 0x0 MSTORE PUSH1 0x20 PUSH1 0x0 KECCAK256 ADD DUP1 SLOAD PUSH2 0x1E67 SWAP1 PUSH2 0x3410 JUMP JUMPDEST DUP1 PUSH1 0x1F ADD PUSH1 0x20 DUP1 SWAP2 DIV MUL PUSH1 0x20 ADD PUSH1 0x40 MLOAD SWAP1 DUP2 ADD PUSH1 0x40 MSTORE DUP1 SWAP3 SWAP2 SWAP1 DUP2 DUP2 MSTORE PUSH1 0x20 ADD DUP3 DUP1 SLOAD PUSH2 0x1E93 SWAP1 PUSH2 0x3410 JUMP JUMPDEST DUP1 ISZERO PUSH2 0x1EE0 JUMPI DUP1 PUSH1 0x1F LT PUSH2 0x1EB5 JUMPI PUSH2 0x100 DUP1 DUP4 SLOAD DIV MUL DUP4 MSTORE SWAP2 PUSH1 0x20 ADD SWAP2 PUSH2 0x1EE0 JUMP JUMPDEST DUP3 ADD SWAP2 SWAP1 PUSH1 0x0 MSTORE PUSH1 0x20 PUSH1 0x0 KECCAK256 SWAP1 JUMPDEST DUP2 SLOAD DUP2 MSTORE SWAP1 PUSH1 0x1 ADD SWAP1 PUSH1 0x20 ADD DUP1 DUP4 GT PUSH2 0x1EC3 JUMPI DUP3 SWAP1 SUB PUSH1 0x1F AND DUP3 ADD SWAP2 JUMPDEST POP POP POP POP POP DUP3 DUP6 DUP4 PUSH2 0x1EF2 SWAP2 SWAP1 PUSH2 0x33F9 JUMP JUMPDEST DUP2 MLOAD DUP2 LT PUSH2 0x1F10 JUMPI PUSH4 0x4E487B71 PUSH1 0xE0 SHL PUSH1 0x0 MSTORE PUSH1 0x32 PUSH1 0x4 MSTORE PUSH1 0x24 PUSH1 0x0 REVERT JUMPDEST PUSH1 0x20 MUL PUSH1 0x20 ADD ADD DUP2 SWAP1 MSTORE POP DUP1 PUSH2 0x1F25 SWAP1 PUSH2 0x344B JUMP JUMPDEST SWAP1 POP PUSH2 0x1E1C JUMP JUMPDEST POP SWAP8 SWAP7 POP POP POP POP POP POP POP JUMP JUMPDEST PUSH1 0x60 PUSH1 0x0 CHAINID DUP8 DUP1 MLOAD SWAP1 PUSH1 0x20 ADD KECCAK256 PUSH1 0x40 MLOAD PUSH1 0x20 ADD PUSH2 0x1F5F SWAP3 SWAP2 SWAP1 SWAP2 DUP3 MSTORE PUSH1 0x20 DUP3 ADD MSTORE PUSH1 0x40 ADD SWAP1 JUMP JUMPDEST PUSH1 0x40 DUP1 MLOAD DUP1 DUP4 SUB PUSH1 0x1F NOT ADD DUP2 MSTORE DUP3 DUP3 MSTORE DUP1 MLOAD PUSH1 0x20 SWAP2 DUP3 ADD KECCAK256 DUP10 MLOAD DUP11 DUP4 ADD KECCAK256 SWAP2 DUP5 ADD DUP2 SWAP1 MSTORE SWAP2 DUP4 ADD MSTORE SWAP2 POP PUSH1 0x0 SWAP1 PUSH1 0x60 ADD PUSH1 0x40 DUP1 MLOAD DUP1 DUP4 SUB PUSH1 0x1F NOT ADD DUP2 MSTORE DUP3 DUP3 MSTORE DUP1 MLOAD PUSH1 0x20 SWAP2 DUP3 ADD KECCAK256 DUP10 MLOAD DUP11 DUP4 ADD KECCAK256 SWAP2 DUP5 ADD DUP2 SWAP1 MSTORE SWAP2 DUP4 ADD MSTORE SWAP2 POP PUSH1 0x0 SWAP1 PUSH1 0x60 ADD PUSH1 0x40 DUP1 MLOAD PUSH1 0x1F NOT DUP2 DUP5 SUB ADD DUP2 MSTORE SWAP2 SWAP1 MSTORE DUP1 MLOAD PUSH1 0x20 SWAP1 SWAP2 ADD KECCAK256 SWAP1 POP PUSH1 0x0 PUSH2 0x1FE5 DUP7 DUP9 PUSH2 0x33DA JUMP JUMPDEST SWAP1 POP PUSH1 0x0 PUSH2 0x1FF3 DUP8 DUP4 PUSH2 0x33C2 JUMP JUMPDEST PUSH1 0x0 DUP5 DUP2 MSTORE PUSH1 0x4 PUSH1 0x20 MSTORE PUSH1 0x40 SWAP1 KECCAK256 SWAP1 SWAP2 POP PUSH2 0x200D SWAP1 PUSH2 0x27F1 JUMP JUMPDEST DUP2 GT ISZERO PUSH2 0x202E JUMPI PUSH1 0x0 DUP4 DUP2 MSTORE PUSH1 0x4 PUSH1 0x20 MSTORE PUSH1 0x40 SWAP1 KECCAK256 PUSH2 0x202B SWAP1 PUSH2 0x27F1 JUMP JUMPDEST SWAP1 POP JUMPDEST PUSH1 0x0 PUSH2 0x203A DUP4 DUP4 PUSH2 0x33F9 JUMP JUMPDEST PUSH1 0x1 PUSH1 0x1 PUSH1 0x40 SHL SUB DUP2 GT ISZERO PUSH2 0x205F JUMPI PUSH4 0x4E487B71 PUSH1 0xE0 SHL PUSH1 0x0 MSTORE PUSH1 0x41 PUSH1 0x4 MSTORE PUSH1 0x24 PUSH1 0x0 REVERT JUMPDEST PUSH1 0x40 MLOAD SWAP1 DUP1 DUP3 MSTORE DUP1 PUSH1 0x20 MUL PUSH1 0x20 ADD DUP3 ADD PUSH1 0x40 MSTORE DUP1 ISZERO PUSH2 0x2088 JUMPI DUP2 PUSH1 0x20 ADD PUSH1 0x20 DUP3 MUL DUP1 CALLDATASIZE DUP4 CALLDATACOPY ADD SWAP1 POP JUMPDEST POP SWAP1 POP DUP3 JUMPDEST DUP3 DUP2 LT ISZERO PUSH2 0x8B7 JUMPI PUSH1 0x0 DUP6 DUP2 MSTORE PUSH1 0x4 PUSH1 0x20 MSTORE PUSH1 0x40 SWAP1 KECCAK256 PUSH2 0x20AD SWAP1 DUP3 PUSH2 0x27FB JUMP JUMPDEST DUP3 PUSH2 0x20B8 DUP7 DUP5 PUSH2 0x33F9 JUMP JUMPDEST DUP2 MLOAD DUP2 LT PUSH2 0x20D6 JUMPI PUSH4 0x4E487B71 PUSH1 0xE0 SHL PUSH1 0x0 MSTORE PUSH1 0x32 PUSH1 0x4 MSTORE PUSH1 0x24 PUSH1 0x0 REVERT JUMPDEST PUSH1 0x1 PUSH1 0x1 PUSH1 0xA0 SHL SUB SWAP1 SWAP3 AND PUSH1 0x20 SWAP3 DUP4 MUL SWAP2 SWAP1 SWAP2 ADD SWAP1 SWAP2 ADD MSTORE PUSH2 0x20F7 DUP2 PUSH2 0x344B JUMP JUMPDEST SWAP1 POP PUSH2 0x208D JUMP JUMPDEST PUSH1 0x0 CHAINID DUP5 DUP1 MLOAD SWAP1 PUSH1 0x20 ADD KECCAK256 PUSH1 0x40 MLOAD PUSH1 0x20 ADD PUSH2 0x2123 SWAP3 SWAP2 SWAP1 SWAP2 DUP3 MSTORE PUSH1 0x20 DUP3 ADD MSTORE PUSH1 0x40 ADD SWAP1 JUMP JUMPDEST PUSH1 0x40 DUP1 MLOAD PUSH1 0x1F NOT DUP2 DUP5 SUB ADD DUP2 MSTORE DUP3 DUP3 MSTORE DUP1 MLOAD PUSH1 0x20 SWAP2 DUP3 ADD KECCAK256 DUP7 MLOAD DUP8 DUP4 ADD KECCAK256 DUP3 DUP6 ADD DUP3 SWAP1 MSTORE DUP5 DUP5 ADD MSTORE DUP3 MLOAD DUP1 DUP6 SUB DUP5 ADD DUP2 MSTORE PUSH1 0x60 DUP6 ADD DUP5 MSTORE DUP1 MLOAD SWAP1 DUP4 ADD KECCAK256 DUP7 MLOAD DUP8 DUP5 ADD KECCAK256 PUSH1 0x80 DUP7 ADD DUP3 SWAP1 MSTORE PUSH1 0xA0 DUP1 DUP8 ADD SWAP2 SWAP1 SWAP2 MSTORE DUP5 MLOAD DUP1 DUP8 SUB SWAP1 SWAP2 ADD DUP2 MSTORE PUSH1 0xC0 SWAP1 SWAP6 ADD DUP5 MSTORE DUP5 MLOAD SWAP5 DUP4 ADD SWAP5 SWAP1 SWAP5 KECCAK256 PUSH1 0x0 DUP2 DUP2 MSTORE PUSH1 0x5 SWAP1 SWAP4 MSTORE SWAP3 DUP3 KECCAK256 DUP1 SLOAD SWAP2 SWAP6 POP SWAP1 PUSH2 0x21AC SWAP1 PUSH2 0x3410 JUMP JUMPDEST SWAP1 POP GT PUSH2 0x21CB JUMPI PUSH1 0x40 MLOAD PUSH3 0x461BCD PUSH1 0xE5 SHL DUP2 MSTORE PUSH1 0x4 ADD PUSH2 0x467 SWAP1 PUSH2 0x333A JUMP JUMPDEST PUSH2 0x21ED PUSH2 0x21D6 PUSH2 0x277C JUMP JUMPDEST PUSH1 0x0 DUP4 DUP2 MSTORE PUSH1 0x4 PUSH1 0x20 MSTORE PUSH1 0x40 SWAP1 KECCAK256 PUSH1 0x2 ADD SWAP1 PUSH2 0x27C7 JUMP JUMPDEST POP PUSH2 0x220D PUSH2 0x21F9 PUSH2 0x277C JUMP JUMPDEST PUSH1 0x0 DUP4 DUP2 MSTORE PUSH1 0x4 PUSH1 0x20 MSTORE PUSH1 0x40 SWAP1 KECCAK256 SWAP1 PUSH2 0x27DC JUMP JUMPDEST POP PUSH32 0x30CA79684C561B1B6FBDA88D9779021EB510471EA1DF05C10DC39C46D6ED94EB DUP7 DUP7 DUP7 PUSH2 0x6C8 PUSH2 0x277C JUMP JUMPDEST PUSH1 0x60 PUSH1 0x0 CHAINID DUP6 DUP1 MLOAD SWAP1 PUSH1 0x20 ADD KECCAK256 PUSH1 0x40 MLOAD PUSH1 0x20 ADD PUSH2 0x2261 SWAP3 SWAP2 SWAP1 SWAP2 DUP3 MSTORE PUSH1 0x20 DUP3 ADD MSTORE PUSH1 0x40 ADD SWAP1 JUMP JUMPDEST PUSH1 0x40 DUP1 MLOAD PUSH1 0x1F NOT DUP2 DUP5 SUB ADD DUP2 MSTORE DUP3 DUP3 MSTORE DUP1 MLOAD PUSH1 0x20 SWAP2 DUP3 ADD KECCAK256 DUP8 MLOAD DUP9 DUP4 ADD KECCAK256 DUP3 DUP6 ADD DUP3 SWAP1 MSTORE DUP5 DUP5 ADD MSTORE DUP3 MLOAD DUP1 DUP6 SUB DUP5 ADD DUP2 MSTORE PUSH1 0x60 DUP6 ADD DUP5 MSTORE DUP1 MLOAD SWAP1 DUP4 ADD KECCAK256 DUP8 MLOAD DUP9 DUP5 ADD KECCAK256 PUSH1 0x80 DUP7 ADD DUP3 SWAP1 MSTORE PUSH1 0xA0 DUP1 DUP8 ADD SWAP2 SWAP1 SWAP2 MSTORE DUP5 MLOAD DUP1 DUP8 SUB SWAP1 SWAP2 ADD DUP2 MSTORE PUSH1 0xC0 SWAP1 SWAP6 ADD DUP5 MSTORE DUP5 MLOAD SWAP5 DUP4 ADD SWAP5 SWAP1 SWAP5 KECCAK256 PUSH1 0x0 DUP2 DUP2 MSTORE PUSH1 0x5 SWAP1 SWAP4 MSTORE SWAP3 DUP3 KECCAK256 DUP1 SLOAD SWAP2 SWAP6 POP SWAP1 PUSH2 0x22EA SWAP1 PUSH2 0x3410 JUMP JUMPDEST SWAP1 POP GT PUSH2 0x2309 JUMPI PUSH1 0x40 MLOAD PUSH3 0x461BCD PUSH1 0xE5 SHL DUP2 MSTORE PUSH1 0x4 ADD PUSH2 0x467 SWAP1 PUSH2 0x333A JUMP JUMPDEST PUSH1 0x0 DUP2 DUP2 MSTORE PUSH1 0x5 PUSH1 0x20 MSTORE PUSH1 0x40 SWAP1 KECCAK256 DUP1 SLOAD PUSH2 0x2322 SWAP1 PUSH2 0x3410 JUMP JUMPDEST DUP1 PUSH1 0x1F ADD PUSH1 0x20 DUP1 SWAP2 DIV MUL PUSH1 0x20 ADD PUSH1 0x40 MLOAD SWAP1 DUP2 ADD PUSH1 0x40 MSTORE DUP1 SWAP3 SWAP2 SWAP1 DUP2 DUP2 MSTORE PUSH1 0x20 ADD DUP3 DUP1 SLOAD PUSH2 0x234E SWAP1 PUSH2 0x3410 JUMP JUMPDEST DUP1 ISZERO PUSH2 0x239B JUMPI DUP1 PUSH1 0x1F LT PUSH2 0x2370 JUMPI PUSH2 0x100 DUP1 DUP4 SLOAD DIV MUL DUP4 MSTORE SWAP2 PUSH1 0x20 ADD SWAP2 PUSH2 0x239B JUMP JUMPDEST DUP3 ADD SWAP2 SWAP1 PUSH1 0x0 MSTORE PUSH1 0x20 PUSH1 0x0 KECCAK256 SWAP1 JUMPDEST DUP2 SLOAD DUP2 MSTORE SWAP1 PUSH1 0x1 ADD SWAP1 PUSH1 0x20 ADD DUP1 DUP4 GT PUSH2 0x237E JUMPI DUP3 SWAP1 SUB PUSH1 0x1F AND DUP3 ADD SWAP2 JUMPDEST POP POP POP POP POP SWAP4 POP POP POP POP SWAP4 SWAP3 POP POP POP JUMP JUMPDEST PUSH1 0x60 PUSH1 0x0 CHAINID DUP6 DUP1 MLOAD SWAP1 PUSH1 0x20 ADD KECCAK256 PUSH1 0x40 MLOAD PUSH1 0x20 ADD PUSH2 0x23D3 SWAP3 SWAP2 SWAP1 SWAP2 DUP3 MSTORE PUSH1 0x20 DUP3 ADD MSTORE PUSH1 0x40 ADD SWAP1 JUMP JUMPDEST PUSH1 0x40 DUP1 MLOAD PUSH1 0x1F NOT DUP2 DUP5 SUB ADD DUP2 MSTORE SWAP2 SWAP1 MSTORE DUP1 MLOAD PUSH1 0x20 SWAP1 SWAP2 ADD KECCAK256 SWAP1 POP PUSH1 0x0 PUSH2 0x23F9 DUP5 DUP7 PUSH2 0x33DA JUMP JUMPDEST SWAP1 POP PUSH1 0x0 PUSH2 0x2407 DUP6 DUP4 PUSH2 0x33C2 JUMP JUMPDEST PUSH1 0x0 DUP5 DUP2 MSTORE PUSH1 0x2 PUSH1 0x20 MSTORE PUSH1 0x40 SWAP1 KECCAK256 SWAP1 SWAP2 POP PUSH2 0x2424 SWAP1 PUSH1 0x1 ADD PUSH2 0x27F1 JUMP JUMPDEST DUP2 GT ISZERO PUSH2 0x2448 JUMPI PUSH1 0x0 DUP4 DUP2 MSTORE PUSH1 0x2 PUSH1 0x20 MSTORE PUSH1 0x40 SWAP1 KECCAK256 PUSH2 0x2445 SWAP1 PUSH1 0x1 ADD PUSH2 0x27F1 JUMP JUMPDEST SWAP1 POP JUMPDEST PUSH1 0x0 PUSH2 0x2454 DUP4 DUP4 PUSH2 0x33F9 JUMP JUMPDEST PUSH1 0x1 PUSH1 0x1 PUSH1 0x40 SHL SUB DUP2 GT ISZERO PUSH2 0x2479 JUMPI PUSH4 0x4E487B71 PUSH1 0xE0 SHL PUSH1 0x0 MSTORE PUSH1 0x41 PUSH1 0x4 MSTORE PUSH1 0x24 PUSH1 0x0 REVERT JUMPDEST PUSH1 0x40 MLOAD SWAP1 DUP1 DUP3 MSTORE DUP1 PUSH1 0x20 MUL PUSH1 0x20 ADD DUP3 ADD PUSH1 0x40 MSTORE DUP1 ISZERO PUSH2 0x24A2 JUMPI DUP2 PUSH1 0x20 ADD PUSH1 0x20 DUP3 MUL DUP1 CALLDATASIZE DUP4 CALLDATACOPY ADD SWAP1 POP JUMPDEST POP SWAP1 POP DUP3 JUMPDEST DUP3 DUP2 LT ISZERO PUSH2 0x1F2C JUMPI PUSH1 0x0 DUP6 DUP2 MSTORE PUSH1 0x2 PUSH1 0x20 MSTORE PUSH1 0x40 SWAP1 KECCAK256 PUSH2 0x24CA SWAP1 PUSH1 0x1 ADD DUP3 PUSH2 0x27FB JUMP JUMPDEST DUP3 PUSH2 0x24D5 DUP7 DUP5 PUSH2 0x33F9 JUMP JUMPDEST DUP2 MLOAD DUP2 LT PUSH2 0x24F3 JUMPI PUSH4 0x4E487B71 PUSH1 0xE0 SHL PUSH1 0x0 MSTORE PUSH1 0x32 PUSH1 0x4 MSTORE PUSH1 0x24 PUSH1 0x0 REVERT JUMPDEST PUSH1 0x1 PUSH1 0x1 PUSH1 0xA0 SHL SUB SWAP1 SWAP3 AND PUSH1 0x20 SWAP3 DUP4 MUL SWAP2 SWAP1 SWAP2 ADD SWAP1 SWAP2 ADD MSTORE PUSH2 0x2514 DUP2 PUSH2 0x344B JUMP JUMPDEST SWAP1 POP PUSH2 0x24A7 JUMP JUMPDEST PUSH1 0x0 CHAINID DUP4 DUP1 MLOAD SWAP1 PUSH1 0x20 ADD KECCAK256 PUSH1 0x40 MLOAD PUSH1 0x20 ADD PUSH2 0x2540 SWAP3 SWAP2 SWAP1 SWAP2 DUP3 MSTORE PUSH1 0x20 DUP3 ADD MSTORE PUSH1 0x40 ADD SWAP1 JUMP JUMPDEST PUSH1 0x40 MLOAD PUSH1 0x20 DUP2 DUP4 SUB SUB DUP2 MSTORE SWAP1 PUSH1 0x40 MSTORE DUP1 MLOAD SWAP1 PUSH1 0x20 ADD KECCAK256 PUSH1 0x0 SHR SWAP1 POP PUSH2 0x2566 PUSH2 0xAB6 PUSH2 0x277C JUMP JUMPDEST ISZERO ISZERO PUSH1 0x1 EQ PUSH2 0x2587 JUMPI PUSH1 0x40 MLOAD PUSH3 0x461BCD PUSH1 0xE5 SHL DUP2 MSTORE PUSH1 0x4 ADD PUSH2 0x467 SWAP1 PUSH2 0x3369 JUMP JUMPDEST PUSH1 0x0 DUP2 DUP2 MSTORE PUSH1 0x2 PUSH1 0x20 MSTORE PUSH1 0x40 SWAP1 KECCAK256 PUSH2 0x25A2 SWAP1 PUSH1 0x1 ADD DUP4 PUSH2 0x27A2 JUMP JUMPDEST ISZERO ISZERO PUSH1 0x1 EQ PUSH2 0x25EA JUMPI PUSH1 0x40 MLOAD PUSH3 0x461BCD PUSH1 0xE5 SHL DUP2 MSTORE PUSH1 0x20 PUSH1 0x4 DUP3 ADD MSTORE PUSH1 0x14 PUSH1 0x24 DUP3 ADD MSTORE PUSH20 0x195C9C8B5B595B58995C8B5B9BDD0B595E1A5CDD PUSH1 0x62 SHL PUSH1 0x44 DUP3 ADD MSTORE PUSH1 0x64 ADD PUSH2 0x467 JUMP JUMPDEST PUSH1 0x0 DUP2 DUP2 MSTORE PUSH1 0x2 PUSH1 0x20 MSTORE PUSH1 0x40 SWAP1 KECCAK256 PUSH2 0x2605 SWAP1 PUSH1 0x1 ADD DUP4 PUSH2 0x27DC JUMP JUMPDEST POP PUSH32 0xBD84F6BE96016AA1D03FD0C0CE516DA6B2E352520BDDD280C744C6C79A378512 DUP4 DUP4 PUSH1 0x40 MLOAD PUSH2 0xBC1 SWAP3 SWAP2 SWAP1 PUSH2 0x3171 JUMP JUMPDEST PUSH1 0x0 CHAINID DUP5 DUP1 MLOAD SWAP1 PUSH1 0x20 ADD KECCAK256 PUSH1 0x40 MLOAD PUSH1 0x20 ADD PUSH2 0x265C SWAP3 SWAP2 SWAP1 SWAP2 DUP3 MSTORE PUSH1 0x20 DUP3 ADD MSTORE PUSH1 0x40 ADD SWAP1 JUMP JUMPDEST PUSH1 0x40 DUP1 MLOAD PUSH1 0x1F NOT DUP2 DUP5 SUB ADD DUP2 MSTORE DUP3 DUP3 MSTORE DUP1 MLOAD PUSH1 0x20 SWAP2 DUP3 ADD KECCAK256 DUP7 MLOAD DUP8 DUP4 ADD KECCAK256 DUP3 DUP6 ADD DUP3 SWAP1 MSTORE DUP5 DUP5 ADD MSTORE DUP3 MLOAD DUP1 DUP6 SUB DUP5 ADD DUP2 MSTORE PUSH1 0x60 SWAP1 SWAP5 ADD SWAP1 SWAP3 MSTORE DUP3 MLOAD SWAP3 ADD SWAP2 SWAP1 SWAP2 KECCAK256 SWAP1 SWAP2 POP PUSH2 0x26AB PUSH2 0x97A PUSH2 0x277C JUMP JUMPDEST PUSH2 0x26C7 JUMPI PUSH1 0x40 MLOAD PUSH3 0x461BCD PUSH1 0xE5 SHL DUP2 MSTORE PUSH1 0x4 ADD PUSH2 0x467 SWAP1 PUSH2 0x3369 JUMP JUMPDEST PUSH1 0x0 DUP2 DUP2 MSTORE PUSH1 0x5 PUSH1 0x20 MSTORE PUSH1 0x40 DUP2 KECCAK256 DUP1 SLOAD PUSH2 0x26E0 SWAP1 PUSH2 0x3410 JUMP JUMPDEST SWAP1 POP GT PUSH2 0x26FF JUMPI PUSH1 0x40 MLOAD PUSH3 0x461BCD PUSH1 0xE5 SHL DUP2 MSTORE PUSH1 0x4 ADD PUSH2 0x467 SWAP1 PUSH2 0x3294 JUMP JUMPDEST PUSH1 0x0 DUP4 MLOAD GT PUSH2 0x2720 JUMPI PUSH1 0x40 MLOAD PUSH3 0x461BCD PUSH1 0xE5 SHL DUP2 MSTORE PUSH1 0x4 ADD PUSH2 0x467 SWAP1 PUSH2 0x32EA JUMP JUMPDEST PUSH1 0x0 DUP2 DUP2 MSTORE PUSH1 0x5 PUSH1 0x20 SWAP1 DUP2 MSTORE PUSH1 0x40 SWAP1 SWAP2 KECCAK256 DUP5 MLOAD PUSH2 0x273F SWAP3 DUP7 ADD SWAP1 PUSH2 0x29AB JUMP JUMPDEST POP PUSH32 0xD837747757BF732C911148D7C5825D52DE171F849E76143EEC98FA514E263C8A DUP6 DUP6 DUP6 PUSH2 0x276C PUSH2 0x277C JUMP JUMPDEST PUSH1 0x40 MLOAD PUSH2 0xA5C SWAP5 SWAP4 SWAP3 SWAP2 SWAP1 PUSH2 0x31D9 JUMP JUMPDEST PUSH1 0x0 DUP1 SLOAD PUSH1 0x1 PUSH1 0x1 PUSH1 0xA0 SHL SUB AND CALLER EQ ISZERO PUSH2 0x279D JUMPI POP PUSH1 0x13 NOT CALLDATASIZE ADD CALLDATALOAD PUSH1 0x60 SHR SWAP1 JUMP JUMPDEST POP CALLER SWAP1 JUMP JUMPDEST PUSH1 0x1 PUSH1 0x1 PUSH1 0xA0 SHL SUB DUP2 AND PUSH1 0x0 SWAP1 DUP2 MSTORE PUSH1 0x1 DUP4 ADD PUSH1 0x20 MSTORE PUSH1 0x40 DUP2 KECCAK256 SLOAD ISZERO ISZERO JUMPDEST SWAP4 SWAP3 POP POP POP JUMP JUMPDEST PUSH1 0x0 PUSH2 0x27C0 DUP4 PUSH1 0x1 PUSH1 0x1 PUSH1 0xA0 SHL SUB DUP5 AND PUSH2 0x2807 JUMP JUMPDEST PUSH1 0x0 PUSH2 0x27C0 DUP4 PUSH1 0x1 PUSH1 0x1 PUSH1 0xA0 SHL SUB DUP5 AND PUSH2 0x2856 JUMP JUMPDEST PUSH1 0x0 PUSH2 0xD32 DUP3 SLOAD SWAP1 JUMP JUMPDEST PUSH1 0x0 PUSH2 0x27C0 DUP4 DUP4 PUSH2 0x2973 JUMP JUMPDEST PUSH1 0x0 DUP2 DUP2 MSTORE PUSH1 0x1 DUP4 ADD PUSH1 0x20 MSTORE PUSH1 0x40 DUP2 KECCAK256 SLOAD PUSH2 0x284E JUMPI POP DUP2 SLOAD PUSH1 0x1 DUP2 DUP2 ADD DUP5 SSTORE PUSH1 0x0 DUP5 DUP2 MSTORE PUSH1 0x20 DUP1 DUP3 KECCAK256 SWAP1 SWAP4 ADD DUP5 SWAP1 SSTORE DUP5 SLOAD DUP5 DUP3 MSTORE DUP3 DUP7 ADD SWAP1 SWAP4 MSTORE PUSH1 0x40 SWAP1 KECCAK256 SWAP2 SWAP1 SWAP2 SSTORE PUSH2 0xD32 JUMP JUMPDEST POP PUSH1 0x0 PUSH2 0xD32 JUMP JUMPDEST PUSH1 0x0 DUP2 DUP2 MSTORE PUSH1 0x1 DUP4 ADD PUSH1 0x20 MSTORE PUSH1 0x40 DUP2 KECCAK256 SLOAD DUP1 ISZERO PUSH2 0x2969 JUMPI PUSH1 0x0 PUSH2 0x287A PUSH1 0x1 DUP4 PUSH2 0x33F9 JUMP JUMPDEST DUP6 SLOAD SWAP1 SWAP2 POP PUSH1 0x0 SWAP1 PUSH2 0x288E SWAP1 PUSH1 0x1 SWAP1 PUSH2 0x33F9 JUMP JUMPDEST SWAP1 POP DUP2 DUP2 EQ PUSH2 0x290F JUMPI PUSH1 0x0 DUP7 PUSH1 0x0 ADD DUP3 DUP2 SLOAD DUP2 LT PUSH2 0x28BC JUMPI PUSH4 0x4E487B71 PUSH1 0xE0 SHL PUSH1 0x0 MSTORE PUSH1 0x32 PUSH1 0x4 MSTORE PUSH1 0x24 PUSH1 0x0 REVERT JUMPDEST SWAP1 PUSH1 0x0 MSTORE PUSH1 0x20 PUSH1 0x0 KECCAK256 ADD SLOAD SWAP1 POP DUP1 DUP8 PUSH1 0x0 ADD DUP5 DUP2 SLOAD DUP2 LT PUSH2 0x28ED JUMPI PUSH4 0x4E487B71 PUSH1 0xE0 SHL PUSH1 0x0 MSTORE PUSH1 0x32 PUSH1 0x4 MSTORE PUSH1 0x24 PUSH1 0x0 REVERT JUMPDEST PUSH1 0x0 SWAP2 DUP3 MSTORE PUSH1 0x20 DUP1 DUP4 KECCAK256 SWAP1 SWAP2 ADD SWAP3 SWAP1 SWAP3 SSTORE SWAP2 DUP3 MSTORE PUSH1 0x1 DUP9 ADD SWAP1 MSTORE PUSH1 0x40 SWAP1 KECCAK256 DUP4 SWAP1 SSTORE JUMPDEST DUP6 SLOAD DUP7 SWAP1 DUP1 PUSH2 0x292E JUMPI PUSH4 0x4E487B71 PUSH1 0xE0 SHL PUSH1 0x0 MSTORE PUSH1 0x31 PUSH1 0x4 MSTORE PUSH1 0x24 PUSH1 0x0 REVERT JUMPDEST PUSH1 0x1 SWAP1 SUB DUP2 DUP2 SWAP1 PUSH1 0x0 MSTORE PUSH1 0x20 PUSH1 0x0 KECCAK256 ADD PUSH1 0x0 SWAP1 SSTORE SWAP1 SSTORE DUP6 PUSH1 0x1 ADD PUSH1 0x0 DUP7 DUP2 MSTORE PUSH1 0x20 ADD SWAP1 DUP2 MSTORE PUSH1 0x20 ADD PUSH1 0x0 KECCAK256 PUSH1 0x0 SWAP1 SSTORE PUSH1 0x1 SWAP4 POP POP POP POP PUSH2 0xD32 JUMP JUMPDEST PUSH1 0x0 SWAP2 POP POP PUSH2 0xD32 JUMP JUMPDEST PUSH1 0x0 DUP3 PUSH1 0x0 ADD DUP3 DUP2 SLOAD DUP2 LT PUSH2 0x2998 JUMPI PUSH4 0x4E487B71 PUSH1 0xE0 SHL PUSH1 0x0 MSTORE PUSH1 0x32 PUSH1 0x4 MSTORE PUSH1 0x24 PUSH1 0x0 REVERT JUMPDEST SWAP1 PUSH1 0x0 MSTORE PUSH1 0x20 PUSH1 0x0 KECCAK256 ADD SLOAD SWAP1 POP SWAP3 SWAP2 POP POP JUMP JUMPDEST DUP3 DUP1 SLOAD PUSH2 0x29B7 SWAP1 PUSH2 0x3410 JUMP JUMPDEST SWAP1 PUSH1 0x0 MSTORE PUSH1 0x20 PUSH1 0x0 KECCAK256 SWAP1 PUSH1 0x1F ADD PUSH1 0x20 SWAP1 DIV DUP2 ADD SWAP3 DUP3 PUSH2 0x29D9 JUMPI PUSH1 0x0 DUP6 SSTORE PUSH2 0x2A1F JUMP JUMPDEST DUP3 PUSH1 0x1F LT PUSH2 0x29F2 JUMPI DUP1 MLOAD PUSH1 0xFF NOT AND DUP4 DUP1 ADD OR DUP6 SSTORE PUSH2 0x2A1F JUMP JUMPDEST DUP3 DUP1 ADD PUSH1 0x1 ADD DUP6 SSTORE DUP3 ISZERO PUSH2 0x2A1F JUMPI SWAP2 DUP3 ADD JUMPDEST DUP3 DUP2 GT ISZERO PUSH2 0x2A1F JUMPI DUP3 MLOAD DUP3 SSTORE SWAP2 PUSH1 0x20 ADD SWAP2 SWAP1 PUSH1 0x1 ADD SWAP1 PUSH2 0x2A04 JUMP JUMPDEST POP PUSH2 0x2A2B SWAP3 SWAP2 POP PUSH2 0x2A2F JUMP JUMPDEST POP SWAP1 JUMP JUMPDEST JUMPDEST DUP1 DUP3 GT ISZERO PUSH2 0x2A2B JUMPI PUSH1 0x0 DUP2 SSTORE PUSH1 0x1 ADD PUSH2 0x2A30 JUMP JUMPDEST DUP1 CALLDATALOAD PUSH1 0x1 PUSH1 0x1 PUSH1 0xA0 SHL SUB DUP2 AND DUP2 EQ PUSH2 0x2A5B JUMPI PUSH1 0x0 DUP1 REVERT JUMPDEST SWAP2 SWAP1 POP JUMP JUMPDEST PUSH1 0x0 DUP3 PUSH1 0x1F DUP4 ADD SLT PUSH2 0x2A70 JUMPI DUP1 DUP2 REVERT JUMPDEST DUP2 CALLDATALOAD PUSH1 0x20 PUSH1 0x1 PUSH1 0x1 PUSH1 0x40 SHL SUB DUP3 GT ISZERO PUSH2 0x2A8B JUMPI PUSH2 0x2A8B PUSH2 0x347C JUMP JUMPDEST DUP2 PUSH1 0x5 SHL PUSH2 0x2A9A DUP3 DUP3 ADD PUSH2 0x3392 JUMP JUMPDEST DUP4 DUP2 MSTORE DUP3 DUP2 ADD SWAP1 DUP7 DUP5 ADD DUP4 DUP9 ADD DUP6 ADD DUP10 LT ISZERO PUSH2 0x2AB4 JUMPI DUP7 DUP8 REVERT JUMPDEST DUP7 SWAP4 POP JUMPDEST DUP6 DUP5 LT ISZERO PUSH2 0x1F2C JUMPI PUSH2 0x2AC9 DUP2 PUSH2 0x2A44 JUMP JUMPDEST DUP4 MSTORE PUSH1 0x1 SWAP4 SWAP1 SWAP4 ADD SWAP3 SWAP2 DUP5 ADD SWAP2 DUP5 ADD PUSH2 0x2AB8 JUMP JUMPDEST PUSH1 0x0 DUP3 PUSH1 0x1F DUP4 ADD SLT PUSH2 0x2AED JUMPI DUP1 DUP2 REVERT JUMPDEST DUP2 CALLDATALOAD PUSH1 0x1 PUSH1 0x1 PUSH1 0x40 SHL SUB DUP2 GT ISZERO PUSH2 0x2B06 JUMPI PUSH2 0x2B06 PUSH2 0x347C JUMP JUMPDEST PUSH2 0x2B19 PUSH1 0x1F DUP3 ADD PUSH1 0x1F NOT AND PUSH1 0x20 ADD PUSH2 0x3392 JUMP JUMPDEST DUP2 DUP2 MSTORE DUP5 PUSH1 0x20 DUP4 DUP7 ADD ADD GT ISZERO PUSH2 0x2B2D JUMPI DUP3 DUP4 REVERT JUMPDEST DUP2 PUSH1 0x20 DUP6 ADD PUSH1 0x20 DUP4 ADD CALLDATACOPY SWAP1 DUP2 ADD PUSH1 0x20 ADD SWAP2 SWAP1 SWAP2 MSTORE SWAP3 SWAP2 POP POP JUMP JUMPDEST PUSH1 0x0 PUSH1 0x20 DUP3 DUP5 SUB SLT ISZERO PUSH2 0x2B58 JUMPI DUP1 DUP2 REVERT JUMPDEST PUSH2 0x27C0 DUP3 PUSH2 0x2A44 JUMP JUMPDEST PUSH1 0x0 PUSH1 0x20 DUP3 DUP5 SUB SLT ISZERO PUSH2 0x2B72 JUMPI DUP1 DUP2 REVERT JUMPDEST DUP2 CALLDATALOAD PUSH1 0x1 PUSH1 0x1 PUSH1 0x40 SHL SUB DUP2 GT ISZERO PUSH2 0x2B87 JUMPI DUP2 DUP3 REVERT JUMPDEST PUSH2 0x2B93 DUP5 DUP3 DUP6 ADD PUSH2 0x2ADD JUMP JUMPDEST SWAP5 SWAP4 POP POP POP POP JUMP JUMPDEST PUSH1 0x0 DUP1 PUSH1 0x40 DUP4 DUP6 SUB SLT ISZERO PUSH2 0x2BAD JUMPI DUP1 DUP2 REVERT JUMPDEST DUP3 CALLDATALOAD PUSH1 0x1 PUSH1 0x1 PUSH1 0x40 SHL SUB DUP2 GT ISZERO PUSH2 0x2BC2 JUMPI DUP2 DUP3 REVERT JUMPDEST PUSH2 0x2BCE DUP6 DUP3 DUP7 ADD PUSH2 0x2ADD JUMP JUMPDEST SWAP3 POP POP PUSH2 0x2BDD PUSH1 0x20 DUP5 ADD PUSH2 0x2A44 JUMP JUMPDEST SWAP1 POP SWAP3 POP SWAP3 SWAP1 POP JUMP JUMPDEST PUSH1 0x0 DUP1 PUSH1 0x40 DUP4 DUP6 SUB SLT ISZERO PUSH2 0x2BF8 JUMPI DUP2 DUP3 REVERT JUMPDEST DUP3 CALLDATALOAD PUSH1 0x1 PUSH1 0x1 PUSH1 0x40 SHL SUB DUP1 DUP3 GT ISZERO PUSH2 0x2C0E JUMPI DUP4 DUP5 REVERT JUMPDEST PUSH2 0x2C1A DUP7 DUP4 DUP8 ADD PUSH2 0x2ADD JUMP JUMPDEST SWAP4 POP PUSH1 0x20 DUP6 ADD CALLDATALOAD SWAP2 POP DUP1 DUP3 GT ISZERO PUSH2 0x2C2F JUMPI DUP3 DUP4 REVERT JUMPDEST POP PUSH2 0x2C3C DUP6 DUP3 DUP7 ADD PUSH2 0x2ADD JUMP JUMPDEST SWAP2 POP POP SWAP3 POP SWAP3 SWAP1 POP JUMP JUMPDEST PUSH1 0x0 DUP1 PUSH1 0x0 PUSH1 0x60 DUP5 DUP7 SUB SLT ISZERO PUSH2 0x2C5A JUMPI DUP1 DUP2 REVERT JUMPDEST DUP4 CALLDATALOAD PUSH1 0x1 PUSH1 0x1 PUSH1 0x40 SHL SUB DUP1 DUP3 GT ISZERO PUSH2 0x2C70 JUMPI DUP3 DUP4 REVERT JUMPDEST PUSH2 0x2C7C DUP8 DUP4 DUP9 ADD PUSH2 0x2ADD JUMP JUMPDEST SWAP5 POP PUSH1 0x20 DUP7 ADD CALLDATALOAD SWAP2 POP DUP1 DUP3 GT ISZERO PUSH2 0x2C91 JUMPI DUP3 DUP4 REVERT JUMPDEST POP PUSH2 0x2C9E DUP7 DUP3 DUP8 ADD PUSH2 0x2ADD JUMP JUMPDEST SWAP3 POP POP PUSH2 0x2CAD PUSH1 0x40 DUP6 ADD PUSH2 0x2A44 JUMP JUMPDEST SWAP1 POP SWAP3 POP SWAP3 POP SWAP3 JUMP JUMPDEST PUSH1 0x0 DUP1 PUSH1 0x0 PUSH1 0x60 DUP5 DUP7 SUB SLT ISZERO PUSH2 0x2CCA JUMPI DUP3 DUP4 REVERT JUMPDEST DUP4 CALLDATALOAD PUSH1 0x1 PUSH1 0x1 PUSH1 0x40 SHL SUB DUP1 DUP3 GT ISZERO PUSH2 0x2CE0 JUMPI DUP5 DUP6 REVERT JUMPDEST PUSH2 0x2CEC DUP8 DUP4 DUP9 ADD PUSH2 0x2ADD JUMP JUMPDEST SWAP5 POP PUSH1 0x20 DUP7 ADD CALLDATALOAD SWAP2 POP DUP1 DUP3 GT ISZERO PUSH2 0x2D01 JUMPI DUP4 DUP5 REVERT JUMPDEST PUSH2 0x2D0D DUP8 DUP4 DUP9 ADD PUSH2 0x2ADD JUMP JUMPDEST SWAP4 POP PUSH1 0x40 DUP7 ADD CALLDATALOAD SWAP2 POP DUP1 DUP3 GT ISZERO PUSH2 0x2D22 JUMPI DUP3 DUP4 REVERT JUMPDEST POP PUSH2 0x2D2F DUP7 DUP3 DUP8 ADD PUSH2 0x2A60 JUMP JUMPDEST SWAP2 POP POP SWAP3 POP SWAP3 POP SWAP3 JUMP JUMPDEST PUSH1 0x0 DUP1 PUSH1 0x0 PUSH1 0x60 DUP5 DUP7 SUB SLT ISZERO PUSH2 0x2D4D JUMPI DUP3 DUP4 REVERT JUMPDEST DUP4 CALLDATALOAD PUSH1 0x1 PUSH1 0x1 PUSH1 0x40 SHL SUB DUP1 DUP3 GT ISZERO PUSH2 0x2D63 JUMPI DUP5 DUP6 REVERT JUMPDEST PUSH2 0x2D6F DUP8 DUP4 DUP9 ADD PUSH2 0x2ADD JUMP JUMPDEST SWAP5 POP PUSH1 0x20 DUP7 ADD CALLDATALOAD SWAP2 POP DUP1 DUP3 GT ISZERO PUSH2 0x2D84 JUMPI DUP4 DUP5 REVERT JUMPDEST PUSH2 0x2D90 DUP8 DUP4 DUP9 ADD PUSH2 0x2ADD JUMP JUMPDEST SWAP4 POP PUSH1 0x40 DUP7 ADD CALLDATALOAD SWAP2 POP DUP1 DUP3 GT ISZERO PUSH2 0x2DA5 JUMPI DUP3 DUP4 REVERT JUMPDEST POP PUSH2 0x2D2F DUP7 DUP3 DUP8 ADD PUSH2 0x2ADD JUMP JUMPDEST PUSH1 0x0 DUP1 PUSH1 0x0 DUP1 PUSH1 0x80 DUP6 DUP8 SUB SLT ISZERO PUSH2 0x2DC7 JUMPI DUP1 DUP2 REVERT JUMPDEST DUP5 CALLDATALOAD PUSH1 0x1 PUSH1 0x1 PUSH1 0x40 SHL SUB DUP1 DUP3 GT ISZERO PUSH2 0x2DDD JUMPI DUP3 DUP4 REVERT JUMPDEST PUSH2 0x2DE9 DUP9 DUP4 DUP10 ADD PUSH2 0x2ADD JUMP JUMPDEST SWAP6 POP PUSH1 0x20 DUP8 ADD CALLDATALOAD SWAP2 POP DUP1 DUP3 GT ISZERO PUSH2 0x2DFE JUMPI DUP3 DUP4 REVERT JUMPDEST PUSH2 0x2E0A DUP9 DUP4 DUP10 ADD PUSH2 0x2ADD JUMP JUMPDEST SWAP5 POP PUSH1 0x40 DUP8 ADD CALLDATALOAD SWAP2 POP DUP1 DUP3 GT ISZERO PUSH2 0x2E1F JUMPI DUP3 DUP4 REVERT JUMPDEST PUSH2 0x2E2B DUP9 DUP4 DUP10 ADD PUSH2 0x2ADD JUMP JUMPDEST SWAP4 POP PUSH1 0x60 DUP8 ADD CALLDATALOAD SWAP2 POP DUP1 DUP3 GT ISZERO PUSH2 0x2E40 JUMPI DUP3 DUP4 REVERT JUMPDEST POP PUSH2 0x2E4D DUP8 DUP3 DUP9 ADD PUSH2 0x2A60 JUMP JUMPDEST SWAP2 POP POP SWAP3 SWAP6 SWAP2 SWAP5 POP SWAP3 POP JUMP JUMPDEST PUSH1 0x0 DUP1 PUSH1 0x0 DUP1 PUSH1 0x80 DUP6 DUP8 SUB SLT ISZERO PUSH2 0x2E6E JUMPI DUP4 DUP5 REVERT JUMPDEST DUP5 CALLDATALOAD PUSH1 0x1 PUSH1 0x1 PUSH1 0x40 SHL SUB DUP1 DUP3 GT ISZERO PUSH2 0x2E84 JUMPI DUP6 DUP7 REVERT JUMPDEST PUSH2 0x2E90 DUP9 DUP4 DUP10 ADD PUSH2 0x2ADD JUMP JUMPDEST SWAP6 POP PUSH1 0x20 DUP8 ADD CALLDATALOAD SWAP2 POP DUP1 DUP3 GT ISZERO PUSH2 0x2EA5 JUMPI DUP5 DUP6 REVERT JUMPDEST PUSH2 0x2EB1 DUP9 DUP4 DUP10 ADD PUSH2 0x2ADD JUMP JUMPDEST SWAP5 POP PUSH1 0x40 DUP8 ADD CALLDATALOAD SWAP2 POP DUP1 DUP3 GT ISZERO PUSH2 0x2EC6 JUMPI DUP4 DUP5 REVERT JUMPDEST PUSH2 0x2ED2 DUP9 DUP4 DUP10 ADD PUSH2 0x2ADD JUMP JUMPDEST SWAP4 POP PUSH1 0x60 DUP8 ADD CALLDATALOAD SWAP2 POP DUP1 DUP3 GT ISZERO PUSH2 0x2EE7 JUMPI DUP3 DUP4 REVERT JUMPDEST POP PUSH2 0x2E4D DUP8 DUP3 DUP9 ADD PUSH2 0x2ADD JUMP JUMPDEST PUSH1 0x0 DUP1 PUSH1 0x0 DUP1 PUSH1 0x0 PUSH1 0xA0 DUP7 DUP9 SUB SLT ISZERO PUSH2 0x2F0B JUMPI DUP1 DUP2 REVERT JUMPDEST DUP6 CALLDATALOAD PUSH1 0x1 PUSH1 0x1 PUSH1 0x40 SHL SUB DUP1 DUP3 GT ISZERO PUSH2 0x2F21 JUMPI DUP3 DUP4 REVERT JUMPDEST PUSH2 0x2F2D DUP10 DUP4 DUP11 ADD PUSH2 0x2ADD JUMP JUMPDEST SWAP7 POP PUSH1 0x20 DUP9 ADD CALLDATALOAD SWAP2 POP DUP1 DUP3 GT ISZERO PUSH2 0x2F42 JUMPI DUP3 DUP4 REVERT JUMPDEST PUSH2 0x2F4E DUP10 DUP4 DUP11 ADD PUSH2 0x2ADD JUMP JUMPDEST SWAP6 POP PUSH1 0x40 DUP9 ADD CALLDATALOAD SWAP2 POP DUP1 DUP3 GT ISZERO PUSH2 0x2F63 JUMPI DUP3 DUP4 REVERT JUMPDEST POP PUSH2 0x2F70 DUP9 DUP3 DUP10 ADD PUSH2 0x2ADD JUMP JUMPDEST SWAP6 SWAP9 SWAP5 SWAP8 POP SWAP5 SWAP6 PUSH1 0x60 DUP2 ADD CALLDATALOAD SWAP6 POP PUSH1 0x80 ADD CALLDATALOAD SWAP4 SWAP3 POP POP POP JUMP JUMPDEST PUSH1 0x0 DUP1 PUSH1 0x0 DUP1 PUSH1 0x80 DUP6 DUP8 SUB SLT ISZERO PUSH2 0x2F9E JUMPI DUP4 DUP5 REVERT JUMPDEST DUP5 CALLDATALOAD PUSH1 0x1 PUSH1 0x1 PUSH1 0x40 SHL SUB DUP1 DUP3 GT ISZERO PUSH2 0x2FB4 JUMPI DUP6 DUP7 REVERT JUMPDEST PUSH2 0x2FC0 DUP9 DUP4 DUP10 ADD PUSH2 0x2ADD JUMP JUMPDEST SWAP6 POP PUSH1 0x20 DUP8 ADD CALLDATALOAD SWAP2 POP DUP1 DUP3 GT ISZERO PUSH2 0x2FD5 JUMPI DUP5 DUP6 REVERT JUMPDEST POP PUSH2 0x2FE2 DUP8 DUP3 DUP9 ADD PUSH2 0x2ADD JUMP JUMPDEST SWAP5 SWAP8 SWAP5 SWAP7 POP POP POP POP PUSH1 0x40 DUP4 ADD CALLDATALOAD SWAP3 PUSH1 0x60 ADD CALLDATALOAD SWAP2 SWAP1 POP JUMP JUMPDEST PUSH1 0x0 DUP1 PUSH1 0x0 PUSH1 0x60 DUP5 DUP7 SUB SLT ISZERO PUSH2 0x300D JUMPI DUP1 DUP2 REVERT JUMPDEST DUP4 CALLDATALOAD PUSH1 0x1 PUSH1 0x1 PUSH1 0x40 SHL SUB DUP2 GT ISZERO PUSH2 0x3022 JUMPI DUP2 DUP3 REVERT JUMPDEST PUSH2 0x302E DUP7 DUP3 DUP8 ADD PUSH2 0x2ADD JUMP JUMPDEST SWAP7 PUSH1 0x20 DUP7 ADD CALLDATALOAD SWAP7 POP PUSH1 0x40 SWAP1 SWAP6 ADD CALLDATALOAD SWAP5 SWAP4 POP POP POP POP JUMP JUMPDEST PUSH1 0x0 DUP1 PUSH1 0x40 DUP4 DUP6 SUB SLT ISZERO PUSH2 0x3056 JUMPI DUP2 DUP3 REVERT JUMPDEST POP POP DUP1 CALLDATALOAD SWAP3 PUSH1 0x20 SWAP1 SWAP2 ADD CALLDATALOAD SWAP2 POP JUMP JUMPDEST PUSH1 0x0 DUP2 MLOAD DUP1 DUP5 MSTORE DUP2 JUMPDEST DUP2 DUP2 LT ISZERO PUSH2 0x308A JUMPI PUSH1 0x20 DUP2 DUP6 ADD DUP2 ADD MLOAD DUP7 DUP4 ADD DUP3 ADD MSTORE ADD PUSH2 0x306E JUMP JUMPDEST DUP2 DUP2 GT ISZERO PUSH2 0x309B JUMPI DUP3 PUSH1 0x20 DUP4 DUP8 ADD ADD MSTORE JUMPDEST POP PUSH1 0x1F ADD PUSH1 0x1F NOT AND SWAP3 SWAP1 SWAP3 ADD PUSH1 0x20 ADD SWAP3 SWAP2 POP POP JUMP JUMPDEST PUSH1 0x20 DUP1 DUP3 MSTORE DUP3 MLOAD DUP3 DUP3 ADD DUP2 SWAP1 MSTORE PUSH1 0x0 SWAP2 SWAP1 DUP5 DUP3 ADD SWAP1 PUSH1 0x40 DUP6 ADD SWAP1 DUP5 JUMPDEST DUP2 DUP2 LT ISZERO PUSH2 0x30F1 JUMPI DUP4 MLOAD PUSH1 0x1 PUSH1 0x1 PUSH1 0xA0 SHL SUB AND DUP4 MSTORE SWAP3 DUP5 ADD SWAP3 SWAP2 DUP5 ADD SWAP2 PUSH1 0x1 ADD PUSH2 0x30CC JUMP JUMPDEST POP SWAP1 SWAP7 SWAP6 POP POP POP POP POP POP JUMP JUMPDEST PUSH1 0x0 PUSH1 0x20 DUP1 DUP4 ADD DUP2 DUP5 MSTORE DUP1 DUP6 MLOAD DUP1 DUP4 MSTORE PUSH1 0x40 DUP7 ADD SWAP2 POP PUSH1 0x40 DUP2 PUSH1 0x5 SHL DUP8 ADD ADD SWAP3 POP DUP4 DUP8 ADD DUP6 JUMPDEST DUP3 DUP2 LT ISZERO PUSH2 0x3151 JUMPI PUSH1 0x3F NOT DUP9 DUP7 SUB ADD DUP5 MSTORE PUSH2 0x313F DUP6 DUP4 MLOAD PUSH2 0x3065 JUMP JUMPDEST SWAP5 POP SWAP3 DUP6 ADD SWAP3 SWAP1 DUP6 ADD SWAP1 PUSH1 0x1 ADD PUSH2 0x3123 JUMP JUMPDEST POP SWAP3 SWAP8 SWAP7 POP POP POP POP POP POP POP JUMP JUMPDEST PUSH1 0x20 DUP2 MSTORE PUSH1 0x0 PUSH2 0x27C0 PUSH1 0x20 DUP4 ADD DUP5 PUSH2 0x3065 JUMP JUMPDEST PUSH1 0x40 DUP2 MSTORE PUSH1 0x0 PUSH2 0x3184 PUSH1 0x40 DUP4 ADD DUP6 PUSH2 0x3065 JUMP JUMPDEST SWAP1 POP PUSH1 0x1 DUP1 PUSH1 0xA0 SHL SUB DUP4 AND PUSH1 0x20 DUP4 ADD MSTORE SWAP4 SWAP3 POP POP POP JUMP JUMPDEST PUSH1 0x60 DUP2 MSTORE PUSH1 0x0 PUSH2 0x31AE PUSH1 0x60 DUP4 ADD DUP7 PUSH2 0x3065 JUMP JUMPDEST DUP3 DUP2 SUB PUSH1 0x20 DUP5 ADD MSTORE PUSH2 0x31C0 DUP2 DUP7 PUSH2 0x3065 JUMP JUMPDEST SWAP2 POP POP PUSH1 0x1 DUP1 PUSH1 0xA0 SHL SUB DUP4 AND PUSH1 0x40 DUP4 ADD MSTORE SWAP5 SWAP4 POP POP POP POP JUMP JUMPDEST PUSH1 0x80 DUP2 MSTORE PUSH1 0x0 PUSH2 0x31EC PUSH1 0x80 DUP4 ADD DUP8 PUSH2 0x3065 JUMP JUMPDEST DUP3 DUP2 SUB PUSH1 0x20 DUP5 ADD MSTORE PUSH2 0x31FE DUP2 DUP8 PUSH2 0x3065 JUMP JUMPDEST SWAP1 POP DUP3 DUP2 SUB PUSH1 0x40 DUP5 ADD MSTORE PUSH2 0x3212 DUP2 DUP7 PUSH2 0x3065 JUMP JUMPDEST SWAP2 POP POP PUSH1 0x1 DUP1 PUSH1 0xA0 SHL SUB DUP4 AND PUSH1 0x60 DUP4 ADD MSTORE SWAP6 SWAP5 POP POP POP POP POP JUMP JUMPDEST PUSH1 0xA0 DUP2 MSTORE PUSH1 0x0 PUSH2 0x323F PUSH1 0xA0 DUP4 ADD DUP9 PUSH2 0x3065 JUMP JUMPDEST DUP3 DUP2 SUB PUSH1 0x20 DUP5 ADD MSTORE PUSH2 0x3251 DUP2 DUP9 PUSH2 0x3065 JUMP JUMPDEST SWAP1 POP DUP3 DUP2 SUB PUSH1 0x40 DUP5 ADD MSTORE PUSH2 0x3265 DUP2 DUP8 PUSH2 0x3065 JUMP JUMPDEST SWAP1 POP DUP3 DUP2 SUB PUSH1 0x60 DUP5 ADD MSTORE PUSH2 0x3279 DUP2 DUP7 PUSH2 0x3065 JUMP JUMPDEST SWAP2 POP POP PUSH1 0x1 DUP1 PUSH1 0xA0 SHL SUB DUP4 AND PUSH1 0x80 DUP4 ADD MSTORE SWAP7 SWAP6 POP POP POP POP POP POP JUMP JUMPDEST PUSH1 0x20 DUP1 DUP3 MSTORE PUSH1 0x12 SWAP1 DUP3 ADD MSTORE PUSH18 0x195C9C8B5C1C9BDA8B5B9BDD0B595E1A5CDD PUSH1 0x72 SHL PUSH1 0x40 DUP3 ADD MSTORE PUSH1 0x60 ADD SWAP1 JUMP JUMPDEST PUSH1 0x20 DUP1 DUP3 MSTORE PUSH1 0x10 SWAP1 DUP3 ADD MSTORE PUSH16 0x195C9C8B5B985B594B58DB185A5B5959 PUSH1 0x82 SHL PUSH1 0x40 DUP3 ADD MSTORE PUSH1 0x60 ADD SWAP1 JUMP JUMPDEST PUSH1 0x20 DUP1 DUP3 MSTORE PUSH1 0xE SWAP1 DUP3 ADD MSTORE PUSH14 0x6572722D656D7074792D6D657461 PUSH1 0x90 SHL PUSH1 0x40 DUP3 ADD MSTORE PUSH1 0x60 ADD SWAP1 JUMP JUMPDEST PUSH1 0x20 DUP1 DUP3 MSTORE PUSH1 0xE SWAP1 DUP3 ADD MSTORE PUSH14 0x6572722D656D7074792D6E616D65 PUSH1 0x90 SHL PUSH1 0x40 DUP3 ADD MSTORE PUSH1 0x60 ADD SWAP1 JUMP JUMPDEST PUSH1 0x20 DUP1 DUP3 MSTORE PUSH1 0x15 SWAP1 DUP3 ADD MSTORE PUSH21 0x195C9C8B5C995B19585CD94B5B9BDD0B595E1A5CDD PUSH1 0x5A SHL PUSH1 0x40 DUP3 ADD MSTORE PUSH1 0x60 ADD SWAP1 JUMP JUMPDEST PUSH1 0x20 DUP1 DUP3 MSTORE PUSH1 0xF SWAP1 DUP3 ADD MSTORE PUSH15 0x32B93916BA32B0B696B6B2B6B132B9 PUSH1 0x89 SHL PUSH1 0x40 DUP3 ADD MSTORE PUSH1 0x60 ADD SWAP1 JUMP JUMPDEST PUSH1 0x40 MLOAD PUSH1 0x1F DUP3 ADD PUSH1 0x1F NOT AND DUP2 ADD PUSH1 0x1 PUSH1 0x1 PUSH1 0x40 SHL SUB DUP2 GT DUP3 DUP3 LT OR ISZERO PUSH2 0x33BA JUMPI PUSH2 0x33BA PUSH2 0x347C JUMP JUMPDEST PUSH1 0x40 MSTORE SWAP2 SWAP1 POP JUMP JUMPDEST PUSH1 0x0 DUP3 NOT DUP3 GT ISZERO PUSH2 0x33D5 JUMPI PUSH2 0x33D5 PUSH2 0x3466 JUMP JUMPDEST POP ADD SWAP1 JUMP JUMPDEST PUSH1 0x0 DUP2 PUSH1 0x0 NOT DIV DUP4 GT DUP3 ISZERO ISZERO AND ISZERO PUSH2 0x33F4 JUMPI PUSH2 0x33F4 PUSH2 0x3466 JUMP JUMPDEST POP MUL SWAP1 JUMP JUMPDEST PUSH1 0x0 DUP3 DUP3 LT ISZERO PUSH2 0x340B JUMPI PUSH2 0x340B PUSH2 0x3466 JUMP JUMPDEST POP SUB SWAP1 JUMP JUMPDEST PUSH1 0x1 DUP2 DUP2 SHR SWAP1 DUP3 AND DUP1 PUSH2 0x3424 JUMPI PUSH1 0x7F DUP3 AND SWAP2 POP JUMPDEST PUSH1 0x20 DUP3 LT DUP2 EQ ISZERO PUSH2 0x3445 JUMPI PUSH4 0x4E487B71 PUSH1 0xE0 SHL PUSH1 0x0 MSTORE PUSH1 0x22 PUSH1 0x4 MSTORE PUSH1 0x24 PUSH1 0x0 REVERT JUMPDEST POP SWAP2 SWAP1 POP JUMP JUMPDEST PUSH1 0x0 PUSH1 0x0 NOT DUP3 EQ ISZERO PUSH2 0x345F JUMPI PUSH2 0x345F PUSH2 0x3466 JUMP JUMPDEST POP PUSH1 0x1 ADD SWAP1 JUMP JUMPDEST PUSH4 0x4E487B71 PUSH1 0xE0 SHL PUSH1 0x0 MSTORE PUSH1 0x11 PUSH1 0x4 MSTORE PUSH1 0x24 PUSH1 0x0 REVERT JUMPDEST PUSH4 0x4E487B71 PUSH1 0xE0 SHL PUSH1 0x0 MSTORE PUSH1 0x41 PUSH1 0x4 MSTORE PUSH1 0x24 PUSH1 0x0 REVERT INVALID LOG2 PUSH5 0x6970667358 0x22 SLT KECCAK256 0xDE PUSH17 0x55F2747E5FEE05540A1E84818C199ED2B7 0xF8 SWAP4 SWAP16 LOG0 0x4B SWAP16 0x4F 0xED 0xD1 SWAP4 0xE REVERT DUP12 PUSH5 0x736F6C6343 STOP ADDMOD DIV STOP CALLER "
        },
        "methodIdentifiers": {
          "addProjectMember(string,string,address)": "2aa2fd64",
          "addTeamMember(string,address)": "81ded150",
          "approveRelease(string,string,string)": "11bc1ce0",
          "createProject(string,string,string,address[])": "4ff3ec60",
          "createRelease(string,string,string,string)": "0716dfa0",
          "createTeam(string,string,address[])": "5f36788e",
          "getLatestReleaseName(string,string)": "47566e4f",
          "getProjectMembers(string,string,uint256,uint256)": "4ce72c75",
          "getProjectMetaCID(string,string)": "5be9d4b2",
          "getProjectNames(string,uint256,uint256)": "a6a54ec5",
          "getReleaseApprovers(string,string,string,uint256,uint256)": "b1bc8c8d",
          "getReleaseMetaCID(string,string,string)": "cded382f",
          "getReleaseNames(string,string,uint256,uint256)": "83dfd03e",
          "getReleaseRejectors(string,string,string,uint256,uint256)": "17289818",
          "getTeamMembers(string,uint256,uint256)": "cfc5efac",
          "getTeamMetaCID(string)": "5bc25e77",
          "getTeamNames(uint256,uint256)": "4eec58a3",
          "isTrustedForwarder(address)": "572b6c05",
          "rejectRelease(string,string,string)": "baffd3da",
          "removeProjectMember(string,string,address)": "5c537096",
          "removeTeamMember(string,address)": "ecb0a33d",
          "setProjectMetaCID(string,string,string)": "fcaa705e",
          "setTeamMetaCID(string,string)": "2d19fdfe",
          "versionRecipient()": "486ff0cd"
        }
      }
    }
  }
}