{
  "_format": "hh-sol-artifact-1",
  "contractName": "Valist",
  "sourceName": "contracts/Valist.sol",
  "abi": [
    {
      "inputs": [
        {
          "internalType": "address",
          "name": "_trustedForwarder",
          "type": "address"
        }
      ],
      "stateMutability": "nonpayable",
      "type": "constructor"
    },
    {
      "anonymous": false,
      "inputs": [
        {
          "indexed": false,
          "internalType": "string",
          "name": "_teamName",
          "type": "string"
        },
        {
          "indexed": false,
          "internalType": "string",
          "name": "_projectName",
          "type": "string"
        },
        {
          "indexed": false,
          "internalType": "string",
          "name": "_metaCID",
          "type": "string"
        },
        {
          "indexed": false,
          "internalType": "address",
          "name": "_member",
          "type": "address"
        }
      ],
      "name": "ProjectCreated",
      "type": "event"
    },
    {
      "anonymous": false,
      "inputs": [
        {
          "indexed": false,
          "internalType": "string",
          "name": "_teamName",
          "type": "string"
        },
        {
          "indexed": false,
          "internalType": "string",
          "name": "_projectName",
          "type": "string"
        },
        {
          "indexed": false,
          "internalType": "address",
          "name": "_member",
          "type": "address"
        }
      ],
      "name": "ProjectMemberAdded",
      "type": "event"
    },
    {
      "anonymous": false,
      "inputs": [
        {
          "indexed": false,
          "internalType": "string",
          "name": "_teamName",
          "type": "string"
        },
        {
          "indexed": false,
          "internalType": "string",
          "name": "_projectName",
          "type": "string"
        },
        {
          "indexed": false,
          "internalType": "address",
          "name": "_member",
          "type": "address"
        }
      ],
      "name": "ProjectMemberRemoved",
      "type": "event"
    },
    {
      "anonymous": false,
      "inputs": [
        {
          "indexed": false,
          "internalType": "string",
          "name": "_teamName",
          "type": "string"
        },
        {
          "indexed": false,
          "internalType": "string",
          "name": "_projectName",
          "type": "string"
        },
        {
          "indexed": false,
          "internalType": "string",
          "name": "_metaCID",
          "type": "string"
        },
        {
          "indexed": false,
          "internalType": "address",
          "name": "_member",
          "type": "address"
        }
      ],
      "name": "ProjectUpdated",
      "type": "event"
    },
    {
      "anonymous": false,
      "inputs": [
        {
          "indexed": false,
          "internalType": "string",
          "name": "_teamName",
          "type": "string"
        },
        {
          "indexed": false,
          "internalType": "string",
          "name": "_projectName",
          "type": "string"
        },
        {
          "indexed": false,
          "internalType": "string",
          "name": "_releaseName",
          "type": "string"
        },
        {
          "indexed": false,
          "internalType": "address",
          "name": "_sender",
          "type": "address"
        }
      ],
      "name": "ReleaseApproved",
      "type": "event"
    },
    {
      "anonymous": false,
      "inputs": [
        {
          "indexed": false,
          "internalType": "string",
          "name": "_teamName",
          "type": "string"
        },
        {
          "indexed": false,
          "internalType": "string",
          "name": "_projectName",
          "type": "string"
        },
        {
          "indexed": false,
          "internalType": "string",
          "name": "_releaseName",
          "type": "string"
        },
        {
          "indexed": false,
          "internalType": "string",
          "name": "_metaCID",
          "type": "string"
        },
        {
          "indexed": false,
          "internalType": "address",
          "name": "_member",
          "type": "address"
        }
      ],
      "name": "ReleaseCreated",
      "type": "event"
    },
    {
      "anonymous": false,
      "inputs": [
        {
          "indexed": false,
          "internalType": "string",
          "name": "_teamName",
          "type": "string"
        },
        {
          "indexed": false,
          "internalType": "string",
          "name": "_projectName",
          "type": "string"
        },
        {
          "indexed": false,
          "internalType": "string",
          "name": "_releaseName",
          "type": "string"
        },
        {
          "indexed": false,
          "internalType": "address",
          "name": "_sender",
          "type": "address"
        }
      ],
      "name": "ReleaseRejected",
      "type": "event"
    },
    {
      "anonymous": false,
      "inputs": [
        {
          "indexed": false,
          "internalType": "string",
          "name": "_teamName",
          "type": "string"
        },
        {
          "indexed": false,
          "internalType": "string",
          "name": "_metaCID",
          "type": "string"
        },
        {
          "indexed": false,
          "internalType": "address",
          "name": "_sender",
          "type": "address"
        }
      ],
      "name": "TeamCreated",
      "type": "event"
    },
    {
      "anonymous": false,
      "inputs": [
        {
          "indexed": false,
          "internalType": "string",
          "name": "_teamName",
          "type": "string"
        },
        {
          "indexed": false,
          "internalType": "address",
          "name": "_member",
          "type": "address"
        }
      ],
      "name": "TeamMemberAdded",
      "type": "event"
    },
    {
      "anonymous": false,
      "inputs": [
        {
          "indexed": false,
          "internalType": "string",
          "name": "_teamName",
          "type": "string"
        },
        {
          "indexed": false,
          "internalType": "address",
          "name": "_member",
          "type": "address"
        }
      ],
      "name": "TeamMemberRemoved",
      "type": "event"
    },
    {
      "anonymous": false,
      "inputs": [
        {
          "indexed": false,
          "internalType": "string",
          "name": "_teamName",
          "type": "string"
        },
        {
          "indexed": false,
          "internalType": "string",
          "name": "_metaCID",
          "type": "string"
        },
        {
          "indexed": false,
          "internalType": "address",
          "name": "_member",
          "type": "address"
        }
      ],
      "name": "TeamUpdated",
      "type": "event"
    },
    {
      "inputs": [
        {
          "internalType": "string",
          "name": "_teamName",
          "type": "string"
        },
        {
          "internalType": "string",
          "name": "_projectName",
          "type": "string"
        },
        {
          "internalType": "address",
          "name": "_address",
          "type": "address"
        }
      ],
      "name": "addProjectMember",
      "outputs": [],
      "stateMutability": "nonpayable",
      "type": "function"
    },
    {
      "inputs": [
        {
          "internalType": "string",
          "name": "_teamName",
          "type": "string"
        },
        {
          "internalType": "address",
          "name": "_address",
          "type": "address"
        }
      ],
      "name": "addTeamMember",
      "outputs": [],
      "stateMutability": "nonpayable",
      "type": "function"
    },
    {
      "inputs": [
        {
          "internalType": "string",
          "name": "_teamName",
          "type": "string"
        },
        {
          "internalType": "string",
          "name": "_projectName",
          "type": "string"
        },
        {
          "internalType": "string",
          "name": "_releaseName",
          "type": "string"
        }
      ],
      "name": "approveRelease",
      "outputs": [],
      "stateMutability": "nonpayable",
      "type": "function"
    },
    {
      "inputs": [
        {
          "internalType": "string",
          "name": "_teamName",
          "type": "string"
        },
        {
          "internalType": "string",
          "name": "_projectName",
          "type": "string"
        },
        {
          "internalType": "string",
          "name": "_metaCID",
          "type": "string"
        },
        {
          "internalType": "address[]",
          "name": "_members",
          "type": "address[]"
        }
      ],
      "name": "createProject",
      "outputs": [],
      "stateMutability": "nonpayable",
      "type": "function"
    },
    {
      "inputs": [
        {
          "internalType": "string",
          "name": "_teamName",
          "type": "string"
        },
        {
          "internalType": "string",
          "name": "_projectName",
          "type": "string"
        },
        {
          "internalType": "string",
          "name": "_releaseName",
          "type": "string"
        },
        {
          "internalType": "string",
          "name": "_metaCID",
          "type": "string"
        }
      ],
      "name": "createRelease",
      "outputs": [],
      "stateMutability": "nonpayable",
      "type": "function"
    },
    {
      "inputs": [
        {
          "internalType": "string",
          "name": "_teamName",
          "type": "string"
        },
        {
          "internalType": "string",
          "name": "_metaCID",
          "type": "string"
        },
        {
          "internalType": "address[]",
          "name": "_members",
          "type": "address[]"
        }
      ],
      "name": "createTeam",
      "outputs": [],
      "stateMutability": "nonpayable",
      "type": "function"
    },
    {
      "inputs": [
        {
          "internalType": "string",
          "name": "_teamName",
          "type": "string"
        },
        {
          "internalType": "string",
          "name": "_projectName",
          "type": "string"
        }
      ],
      "name": "getLatestReleaseName",
      "outputs": [
        {
          "internalType": "string",
          "name": "",
          "type": "string"
        }
      ],
      "stateMutability": "view",
      "type": "function"
    },
    {
      "inputs": [
        {
          "internalType": "string",
          "name": "_teamName",
          "type": "string"
        },
        {
          "internalType": "string",
          "name": "_projectName",
          "type": "string"
        },
        {
          "internalType": "uint256",
          "name": "_page",
          "type": "uint256"
        },
        {
          "internalType": "uint256",
          "name": "_size",
          "type": "uint256"
        }
      ],
      "name": "getProjectMembers",
      "outputs": [
        {
          "internalType": "address[]",
          "name": "",
          "type": "address[]"
        }
      ],
      "stateMutability": "view",
      "type": "function"
    },
    {
      "inputs": [
        {
          "internalType": "string",
          "name": "_teamName",
          "type": "string"
        },
        {
          "internalType": "string",
          "name": "_projectName",
          "type": "string"
        }
      ],
      "name": "getProjectMetaCID",
      "outputs": [
        {
          "internalType": "string",
          "name": "",
          "type": "string"
        }
      ],
      "stateMutability": "view",
      "type": "function"
    },
    {
      "inputs": [
        {
          "internalType": "string",
          "name": "_teamName",
          "type": "string"
        },
        {
          "internalType": "uint256",
          "name": "_page",
          "type": "uint256"
        },
        {
          "internalType": "uint256",
          "name": "_size",
          "type": "uint256"
        }
      ],
      "name": "getProjectNames",
      "outputs": [
        {
          "internalType": "string[]",
          "name": "",
          "type": "string[]"
        }
      ],
      "stateMutability": "view",
      "type": "function"
    },
    {
      "inputs": [
        {
          "internalType": "string",
          "name": "_teamName",
          "type": "string"
        },
        {
          "internalType": "string",
          "name": "_projectName",
          "type": "string"
        },
        {
          "internalType": "string",
          "name": "_releaseName",
          "type": "string"
        },
        {
          "internalType": "uint256",
          "name": "_page",
          "type": "uint256"
        },
        {
          "internalType": "uint256",
          "name": "_size",
          "type": "uint256"
        }
      ],
      "name": "getReleaseApprovals",
      "outputs": [
        {
          "internalType": "address[]",
          "name": "",
          "type": "address[]"
        }
      ],
      "stateMutability": "view",
      "type": "function"
    },
    {
      "inputs": [
        {
          "internalType": "string",
          "name": "_teamName",
          "type": "string"
        },
        {
          "internalType": "string",
          "name": "_projectName",
          "type": "string"
        },
        {
          "internalType": "string",
          "name": "_releaseName",
          "type": "string"
        }
      ],
      "name": "getReleaseMetaCID",
      "outputs": [
        {
          "internalType": "string",
          "name": "",
          "type": "string"
        }
      ],
      "stateMutability": "view",
      "type": "function"
    },
    {
      "inputs": [
        {
          "internalType": "string",
          "name": "_teamName",
          "type": "string"
        },
        {
          "internalType": "string",
          "name": "_projectName",
          "type": "string"
        },
        {
          "internalType": "uint256",
          "name": "_page",
          "type": "uint256"
        },
        {
          "internalType": "uint256",
          "name": "_size",
          "type": "uint256"
        }
      ],
      "name": "getReleaseNames",
      "outputs": [
        {
          "internalType": "string[]",
          "name": "",
          "type": "string[]"
        }
      ],
      "stateMutability": "view",
      "type": "function"
    },
    {
      "inputs": [
        {
          "internalType": "string",
          "name": "_teamName",
          "type": "string"
        },
        {
          "internalType": "string",
          "name": "_projectName",
          "type": "string"
        },
        {
          "internalType": "string",
          "name": "_releaseName",
          "type": "string"
        },
        {
          "internalType": "uint256",
          "name": "_page",
          "type": "uint256"
        },
        {
          "internalType": "uint256",
          "name": "_size",
          "type": "uint256"
        }
      ],
      "name": "getReleaseRejections",
      "outputs": [
        {
          "internalType": "address[]",
          "name": "",
          "type": "address[]"
        }
      ],
      "stateMutability": "view",
      "type": "function"
    },
    {
      "inputs": [
        {
          "internalType": "string",
          "name": "_teamName",
          "type": "string"
        },
        {
          "internalType": "uint256",
          "name": "_page",
          "type": "uint256"
        },
        {
          "internalType": "uint256",
          "name": "_size",
          "type": "uint256"
        }
      ],
      "name": "getTeamMembers",
      "outputs": [
        {
          "internalType": "address[]",
          "name": "",
          "type": "address[]"
        }
      ],
      "stateMutability": "view",
      "type": "function"
    },
    {
      "inputs": [
        {
          "internalType": "string",
          "name": "_teamName",
          "type": "string"
        }
      ],
      "name": "getTeamMetaCID",
      "outputs": [
        {
          "internalType": "string",
          "name": "",
          "type": "string"
        }
      ],
      "stateMutability": "view",
      "type": "function"
    },
    {
      "inputs": [
        {
          "internalType": "uint256",
          "name": "_page",
          "type": "uint256"
        },
        {
          "internalType": "uint256",
          "name": "_size",
          "type": "uint256"
        }
      ],
      "name": "getTeamNames",
      "outputs": [
        {
          "internalType": "string[]",
          "name": "",
          "type": "string[]"
        }
      ],
      "stateMutability": "view",
      "type": "function"
    },
    {
      "inputs": [
        {
          "internalType": "address",
          "name": "forwarder",
          "type": "address"
        }
      ],
      "name": "isTrustedForwarder",
      "outputs": [
        {
          "internalType": "bool",
          "name": "",
          "type": "bool"
        }
      ],
      "stateMutability": "view",
      "type": "function"
    },
    {
      "inputs": [
        {
          "internalType": "string",
          "name": "_teamName",
          "type": "string"
        },
        {
          "internalType": "string",
          "name": "_projectName",
          "type": "string"
        },
        {
          "internalType": "string",
          "name": "_releaseName",
          "type": "string"
        }
      ],
      "name": "rejectRelease",
      "outputs": [],
      "stateMutability": "nonpayable",
      "type": "function"
    },
    {
      "inputs": [
        {
          "internalType": "string",
          "name": "_teamName",
          "type": "string"
        },
        {
          "internalType": "string",
          "name": "_projectName",
          "type": "string"
        },
        {
          "internalType": "address",
          "name": "_address",
          "type": "address"
        }
      ],
      "name": "removeProjectMember",
      "outputs": [],
      "stateMutability": "nonpayable",
      "type": "function"
    },
    {
      "inputs": [
        {
          "internalType": "string",
          "name": "_teamName",
          "type": "string"
        },
        {
          "internalType": "address",
          "name": "_address",
          "type": "address"
        }
      ],
      "name": "removeTeamMember",
      "outputs": [],
      "stateMutability": "nonpayable",
      "type": "function"
    },
    {
      "inputs": [
        {
          "internalType": "string",
          "name": "_teamName",
          "type": "string"
        },
        {
          "internalType": "string",
          "name": "_projectName",
          "type": "string"
        },
        {
          "internalType": "string",
          "name": "_metaCID",
          "type": "string"
        }
      ],
      "name": "setProjectMetaCID",
      "outputs": [],
      "stateMutability": "nonpayable",
      "type": "function"
    },
    {
      "inputs": [
        {
          "internalType": "string",
          "name": "_teamName",
          "type": "string"
        },
        {
          "internalType": "string",
          "name": "_metaCID",
          "type": "string"
        }
      ],
      "name": "setTeamMetaCID",
      "outputs": [],
      "stateMutability": "nonpayable",
      "type": "function"
    },
    {
      "inputs": [],
      "name": "versionRecipient",
      "outputs": [
        {
          "internalType": "string",
          "name": "",
          "type": "string"
        }
      ],
      "stateMutability": "view",
      "type": "function"
    }
  ],
  "bytecode": "0x60c060405260056080819052640322e322e360dc1b60a0908152620000269190816200007d565b503480156200003457600080fd5b50604051620031e6380380620031e6833981016040819052620000579162000123565b600080546001600160a01b0319166001600160a01b039290921691909117905562000190565b8280546200008b9062000153565b90600052602060002090601f016020900481019282620000af5760008555620000fa565b82601f10620000ca57805160ff1916838001178555620000fa565b82800160010185558215620000fa579182015b82811115620000fa578251825591602001919060010190620000dd565b50620001089291506200010c565b5090565b5b808211156200010857600081556001016200010d565b60006020828403121562000135578081fd5b81516001600160a01b03811681146200014c578182fd5b9392505050565b600181811c908216806200016857607f821691505b602082108114156200018a57634e487b7160e01b600052602260045260246000fd5b50919050565b61304680620001a06000396000f3fe608060405234801561001057600080fd5b50600436106101585760003560e01c80635bc25e77116100c3578063a6a54ec51161007c578063a6a54ec5146102f9578063baffd3da1461030c578063cded382f1461031f578063cfc5efac14610332578063ecb0a33d14610345578063fcaa705e1461035857600080fd5b80635bc25e77146102875780635be9d4b21461029a5780635c537096146102ad5780635f36788e146102c057806381ded150146102d357806383dfd03e146102e657600080fd5b806347566e4f1161011557806347566e4f146101e7578063486ff0cd146102075780634ce72c751461020f5780634eec58a3146102225780634ff3ec6014610242578063572b6c051461025557600080fd5b80630716dfa01461015d57806311bc1ce0146101725780632aa2fd64146101855780632d19fdfe14610198578063329d2781146101ab578063445e0bce146101d4575b600080fd5b61017061016b3660046129d7565b61036b565b005b6101706101803660046128b7565b61055f565b6101706101933660046127c4565b610699565b6101706101a6366004612764565b61080e565b6101be6101b9366004612a72565b610939565b6040516101cb9190612c2e565b60405180910390f35b6101be6101e2366004612a72565b610ae7565b6101fa6101f5366004612764565b610c85565b6040516101cb9190612cdc565b6101fa610dbc565b6101be61021d366004612b07565b610e4a565b610235610230366004612bc2565b610fc6565b6040516101cb9190612c7b565b610170610250366004612930565b61116a565b6102776102633660046126c5565b6000546001600160a01b0391821691161490565b60405190151581526020016101cb565b6101fa6102953660046126df565b61133c565b6101fa6102a8366004612764565b611448565b6101706102bb3660046127c4565b61155c565b6101706102ce366004612834565b6116b2565b6101706102e1366004612719565b611897565b6102356102f4366004612b07565b611974565b610235610307366004612b77565b611b7a565b61017061031a3660046128b7565b611d56565b6101fa61032d3660046128b7565b611e70565b6101be610340366004612b77565b611fbc565b610170610353366004612719565b6120f9565b6101706103663660046128b7565b6121de565b8351602080860191909120845185830120604080519384018390528301529060009060600160408051808303601f1901815282825280516020918201208751888301209184018190529183015291506000906060016040516020818303038152906040528051906020012060001c90506103fd6103e66122fa565b600084815260036020526040902060020190612320565b6104405760405162461bcd60e51b815260206004820152600f60248201526e32b93916b83937b516b6b2b6b132b960891b60448201526064015b60405180910390fd5b6000818152600460205260409020805461045990612f8e565b1590506104785760405162461bcd60e51b815260040161043790612e3e565b60008451116104995760405162461bcd60e51b815260040161043790612e68565b60008551116104ba5760405162461bcd60e51b815260040161043790612e90565b600081815260046020908152604090912085516104d992870190612529565b5060008281526003602090815260408220600190810180549182018155835291819020875161050f939190910191880190612529565b507f15fb1d214ed195f7210e450a416a0640362c37a0a2d2d0ab63481f967aae0e008787878761053d6122fa565b60405161054e959493929190612daa565b60405180910390a150505050505050565b8251602080850191909120835184830120604080519384018390528301529060009060600160408051808303601f19018152828252805160209182012086518783012091840181905291830152915060009060600160408051601f198184030181529181528151602092830120600081815260049093529082208054919350906105e890612f8e565b9050116106075760405162461bcd60e51b815260040161043790612eb8565b6106296106126122fa565b600083815260046020526040902060010190612345565b5061064c6106356122fa565b60008381526004602052604090206003019061235a565b507fa70c9d49a7ef09401d07a7aad126689c097b80db50504ce9ba5ca8b6f6477fb88686866106796122fa565b6040516106899493929190612d57565b60405180910390a1505050505050565b8251602080850191909120835184830120604080519384018390528301529060009060600160408051601f198184030181529181528151602092830120600081815260039093529082208054919350906106f290612f8e565b9050116107115760405162461bcd60e51b815260040161043790612e12565b61073461071c6122fa565b60008481526002602081905260409091200190612320565b15156001146107555760405162461bcd60e51b815260040161043790612ee7565b60008181526003602052604090206107709060020184612320565b156107b05760405162461bcd60e51b815260206004820152601060248201526f195c9c8b5b595b58995c8b595e1a5cdd60821b6044820152606401610437565b60008181526003602052604090206107cb9060020184612345565b507f8eb5dc57e01da32e2b98214d39ebdd82cd801d261855d5f84b868b5f140a29808585856040516107ff93929190612d19565b60405180910390a15050505050565b815160208301206108386108206122fa565b60008381526002602081905260409091200190612320565b6108545760405162461bcd60e51b815260040161043790612ee7565b6000818152600260205260408120805461086d90612f8e565b9050116108b15760405162461bcd60e51b8152602060048201526012602482015271195c9c8b5d19585b4b5b9bdd0b595e1a5cdd60721b6044820152606401610437565b60008251116108d25760405162461bcd60e51b815260040161043790612e68565b600081815260026020908152604090912083516108f192850190612529565b507f337efabade1b5802f3a562a44eb0b3222d30ad7717e865d76f4db7ecbea56e80838361091d6122fa565b60405161092c93929190612d19565b60405180910390a1505050565b845160208087019190912085518683012060408051938401839052830152606091600090830160408051808303601f19018152828252805160209182012089518a83012091840181905291830152915060009060600160408051601f198184030181529190528051602090910120905060006109b58688612f58565b905060006109c38783612f40565b60008481526004602052604090209091506109e09060010161236f565b811115610a04576000838152600460205260409020610a019060010161236f565b90505b6000610a108383612f77565b6001600160401b03811115610a3557634e487b7160e01b600052604160045260246000fd5b604051908082528060200260200182016040528015610a5e578160200160208202803683370190505b509050825b82811015610ad7576000858152600460205260409020610a869060010182612379565b82610a918684612f77565b81518110610aaf57634e487b7160e01b600052603260045260246000fd5b6001600160a01b0390921660209283029190910190910152610ad081612fc9565b9050610a63565b509b9a5050505050505050505050565b845160208087019190912085518683012060408051938401839052830152606091600090830160408051808303601f19018152828252805160209182012089518a83012091840181905291830152915060009060600160408051601f19818403018152919052805160209091012090506000610b638688612f58565b90506000610b718783612f40565b6000848152600460205260409020909150610b8e9060030161236f565b811115610bb2576000838152600460205260409020610baf9060030161236f565b90505b6000610bbe8383612f77565b6001600160401b03811115610be357634e487b7160e01b600052604160045260246000fd5b604051908082528060200260200182016040528015610c0c578160200160208202803683370190505b509050825b82811015610ad7576000858152600460205260409020610c349060030182612379565b82610c3f8684612f77565b81518110610c5d57634e487b7160e01b600052603260045260246000fd5b6001600160a01b0390921660209283029190910190910152610c7e81612fc9565b9050610c11565b81516020808401919091208251838301206040805180850184905280820192909252805180830382018152606092830182528051908501206000818152600390955293206001810154919391610ced5760405162461bcd60e51b815260040161043790612e12565b600180820180549091610cff91612f77565b81548110610d1d57634e487b7160e01b600052603260045260246000fd5b906000526020600020018054610d3290612f8e565b80601f0160208091040260200160405190810160405280929190818152602001828054610d5e90612f8e565b8015610dab5780601f10610d8057610100808354040283529160200191610dab565b820191906000526020600020905b815481529060010190602001808311610d8e57829003601f168201915b505050505093505050505b92915050565b60058054610dc990612f8e565b80601f0160208091040260200160405190810160405280929190818152602001828054610df590612f8e565b8015610e425780601f10610e1757610100808354040283529160200191610e42565b820191906000526020600020905b815481529060010190602001808311610e2557829003601f168201915b505050505081565b835160208086019190912084518583012060408051938401839052830152606091600090830160408051601f19818403018152919052805160209091012090506000610e968587612f58565b90506000610ea48683612f40565b6000848152600360205260409020909150610ec19060020161236f565b811115610ee5576000838152600360205260409020610ee29060020161236f565b90505b6000610ef18383612f77565b6001600160401b03811115610f1657634e487b7160e01b600052604160045260246000fd5b604051908082528060200260200182016040528015610f3f578160200160208202803683370190505b509050825b82811015610fb8576000858152600360205260409020610f679060020182612379565b82610f728684612f77565b81518110610f9057634e487b7160e01b600052603260045260246000fd5b6001600160a01b0390921660209283029190910190910152610fb181612fc9565b9050610f44565b509998505050505050505050565b60606000610fd48385612f58565b90506000610fe28483612f40565b600154909150811115610ff457506001545b60006110008383612f77565b6001600160401b0381111561102557634e487b7160e01b600052604160045260246000fd5b60405190808252806020026020018201604052801561105857816020015b60608152602001906001900390816110435790505b509050825b82811015611160576001818154811061108657634e487b7160e01b600052603260045260246000fd5b90600052602060002001805461109b90612f8e565b80601f01602080910402602001604051908101604052809291908181526020018280546110c790612f8e565b80156111145780601f106110e957610100808354040283529160200191611114565b820191906000526020600020905b8154815290600101906020018083116110f757829003601f168201915b50505050508285836111269190612f77565b8151811061114457634e487b7160e01b600052603260045260246000fd5b60200260200101819052508061115990612fc9565b905061105d565b5095945050505050565b835160208086019190912084518583012060408051938401839052830152906000906060016040516020818303038152906040528051906020012060001c90506111b561071c6122fa565b6111d15760405162461bcd60e51b815260040161043790612ee7565b600081815260036020526040902080546111ea90612f8e565b1590506112095760405162461bcd60e51b815260040161043790612e3e565b600084511161122a5760405162461bcd60e51b815260040161043790612e68565b600085511161124b5760405162461bcd60e51b815260040161043790612e90565b6000818152600360209081526040909120855161126a92870190612529565b506000828152600260209081526040822060019081018054918201815583529181902087516112a0939190910191880190612529565b5060005b835181101561130f576112fc8482815181106112d057634e487b7160e01b600052603260045260246000fd5b60200260200101516003600085815260200190815260200160002060020161234590919063ffffffff16565b508061130781612fc9565b9150506112a4565b507f11f7f07de1d35c43b47edd8a19e7f8208259cdf66344de81856c5bb7c798db268686866106796122fa565b805160208083019190912060008181526002909252604082208054606093919061136590612f8e565b9050116113a95760405162461bcd60e51b8152602060048201526012602482015271195c9c8b5d19585b4b5b9bdd0b595e1a5cdd60721b6044820152606401610437565b600081815260026020526040902080546113c290612f8e565b80601f01602080910402602001604051908101604052809291908181526020018280546113ee90612f8e565b801561143b5780601f106114105761010080835404028352916020019161143b565b820191906000526020600020905b81548152906001019060200180831161141e57829003601f168201915b5050505050915050919050565b81516020808401919091208251838301206040805180850184905280820192909252805180830382018152606092830182528051908501206000818152600390955290842080549294919261149c90612f8e565b9050116114bb5760405162461bcd60e51b815260040161043790612e12565b600081815260036020526040902080546114d490612f8e565b80601f016020809104026020016040519081016040528092919081815260200182805461150090612f8e565b801561154d5780601f106115225761010080835404028352916020019161154d565b820191906000526020600020905b81548152906001019060200180831161153057829003601f168201915b50505050509250505092915050565b8251602080850191909120835184830120604080519384018390528301529060009060600160408051601f198184030181529181528151602092830120600081815260039093529082208054919350906115b590612f8e565b9050116115d45760405162461bcd60e51b815260040161043790612e12565b6115df61071c6122fa565b15156001146116005760405162461bcd60e51b815260040161043790612ee7565b600081815260036020526040902061161b9060020184612320565b15156001146116635760405162461bcd60e51b8152602060048201526014602482015273195c9c8b5b595b58995c8b5b9bdd0b595e1a5cdd60621b6044820152606401610437565b600081815260036020526040902061167e906002018461235a565b507f7bd4fdf0f1872366f33f1732f765696c1ec3ddccaa8c1f72095b58d8f411fa938585856040516107ff93929190612d19565b825160208085019190912060008181526002909252604090912080546116d790612f8e565b1590506116f65760405162461bcd60e51b815260040161043790612e3e565b60008351116117175760405162461bcd60e51b815260040161043790612e68565b60008451116117385760405162461bcd60e51b815260040161043790612e90565b600082511161177d5760405162461bcd60e51b81526020600482015260116024820152706572722d656d7074792d6d656d6265727360781b6044820152606401610437565b6000818152600260209081526040909120845161179c92860190612529565b5060018054808201825560009190915284516117df917fb10e2d527612073b26eecdfd717e6a320cf44b4afac2b0732d9fcbe2b7fa0cf601906020870190612529565b5060005b825181101561184e5761183b83828151811061180f57634e487b7160e01b600052603260045260246000fd5b60200260200101516002600085815260200190815260200160002060020161234590919063ffffffff16565b508061184681612fc9565b9150506117e3565b507f234eb9d37ed58b55e52e99246bb2b0cebb55311292e5d3de44a6df95a9af2501848461187a6122fa565b60405161188993929190612d19565b60405180910390a150505050565b815160208301206118a96108206122fa565b15156001146118ca5760405162461bcd60e51b815260040161043790612ee7565b60008181526002602081905260409091206118e6910183612320565b156119265760405162461bcd60e51b815260206004820152601060248201526f195c9c8b5b595b58995c8b595e1a5cdd60821b6044820152606401610437565b6000818152600260208190526040909120611942910183612345565b507fb1ce9c84087af16e758e7041eec971f57c833f4127f64f742c5b0ee14e0537d2838360405161092c929190612cef565b835160208086019190912084518583012060408051938401839052830152606091600090830160408051601f198184030181529190528051602090910120905060006119c08587612f58565b905060006119ce8683612f40565b6000848152600360205260409020600101549091508111156119fe57506000828152600360205260409020600101545b6000611a0a8383612f77565b6001600160401b03811115611a2f57634e487b7160e01b600052604160045260246000fd5b604051908082528060200260200182016040528015611a6257816020015b6060815260200190600190039081611a4d5790505b509050825b82811015610fb8576000858152600360205260409020600101805482908110611aa057634e487b7160e01b600052603260045260246000fd5b906000526020600020018054611ab590612f8e565b80601f0160208091040260200160405190810160405280929190818152602001828054611ae190612f8e565b8015611b2e5780601f10611b0357610100808354040283529160200191611b2e565b820191906000526020600020905b815481529060010190602001808311611b1157829003601f168201915b5050505050828583611b409190612f77565b81518110611b5e57634e487b7160e01b600052603260045260246000fd5b602002602001018190525080611b7390612fc9565b9050611a67565b825160208401206060906000611b908486612f58565b90506000611b9e8583612f40565b600084815260026020526040902060010154909150811115611bce57506000828152600260205260409020600101545b6000611bda8383612f77565b6001600160401b03811115611bff57634e487b7160e01b600052604160045260246000fd5b604051908082528060200260200182016040528015611c3257816020015b6060815260200190600190039081611c1d5790505b509050825b82811015611d4a576000858152600260205260409020600101805482908110611c7057634e487b7160e01b600052603260045260246000fd5b906000526020600020018054611c8590612f8e565b80601f0160208091040260200160405190810160405280929190818152602001828054611cb190612f8e565b8015611cfe5780601f10611cd357610100808354040283529160200191611cfe565b820191906000526020600020905b815481529060010190602001808311611ce157829003601f168201915b5050505050828583611d109190612f77565b81518110611d2e57634e487b7160e01b600052603260045260246000fd5b602002602001018190525080611d4390612fc9565b9050611c37565b50979650505050505050565b8251602080850191909120835184830120604080519384018390528301529060009060600160408051808303601f19018152828252805160209182012086518783012091840181905291830152915060009060600160408051601f19818403018152918152815160209283012060008181526004909352908220805491935090611ddf90612f8e565b905011611dfe5760405162461bcd60e51b815260040161043790612eb8565b611e20611e096122fa565b600083815260046020526040902060030190612345565b50611e43611e2c6122fa565b60008381526004602052604090206001019061235a565b507f30ca79684c561b1b6fbda88d9779021eb510471ea1df05c10dc39c46d6ed94eb8686866106796122fa565b825160208085019190912083518483012060408051938401839052830152606091600090830160408051808303601f19018152828252805160209182012087518883012091840181905291830152915060009060600160408051601f19818403018152918152815160209283012060008181526004909352908220805491935090611efa90612f8e565b905011611f195760405162461bcd60e51b815260040161043790612eb8565b60008181526004602052604090208054611f3290612f8e565b80601f0160208091040260200160405190810160405280929190818152602001828054611f5e90612f8e565b8015611fab5780601f10611f8057610100808354040283529160200191611fab565b820191906000526020600020905b815481529060010190602001808311611f8e57829003601f168201915b505050505093505050509392505050565b825160208401206060906000611fd28486612f58565b90506000611fe08583612f40565b90506120006002600085815260200190815260200160002060020161236f565b811115612025576000838152600260208190526040909120612022910161236f565b90505b60006120318383612f77565b6001600160401b0381111561205657634e487b7160e01b600052604160045260246000fd5b60405190808252806020026020018201604052801561207f578160200160208202803683370190505b509050825b82811015611d4a5760008581526002602081905260409091206120a8910182612379565b826120b38684612f77565b815181106120d157634e487b7160e01b600052603260045260246000fd5b6001600160a01b03909216602092830291909101909101526120f281612fc9565b9050612084565b8151602083012061210b6108206122fa565b151560011461212c5760405162461bcd60e51b815260040161043790612ee7565b6000818152600260208190526040909120612148910183612320565b15156001146121905760405162461bcd60e51b8152602060048201526014602482015273195c9c8b5b595b58995c8b5b9bdd0b595e1a5cdd60621b6044820152606401610437565b60008181526002602081905260409091206121ac91018361235a565b507fbd84f6be96016aa1d03fd0c0ce516da6b2e352520bddd280c744c6c79a378512838360405161092c929190612cef565b825160208085019190912083518483012060408051938401839052830152906000906060016040516020818303038152906040528051906020012060001c905061222961071c6122fa565b6122455760405162461bcd60e51b815260040161043790612ee7565b6000818152600360205260408120805461225e90612f8e565b90501161227d5760405162461bcd60e51b815260040161043790612e12565b600083511161229e5760405162461bcd60e51b815260040161043790612e68565b600081815260036020908152604090912084516122bd92860190612529565b507fd837747757bf732c911148d7c5825d52de171f849e76143eec98fa514e263c8a8585856122ea6122fa565b6040516107ff9493929190612d57565b600080546001600160a01b031633141561231b575060131936013560601c90565b503390565b6001600160a01b038116600090815260018301602052604081205415155b9392505050565b600061233e836001600160a01b038416612385565b600061233e836001600160a01b0384166123d4565b6000610db6825490565b600061233e83836124f1565b60008181526001830160205260408120546123cc57508154600181810184556000848152602080822090930184905584548482528286019093526040902091909155610db6565b506000610db6565b600081815260018301602052604081205480156124e75760006123f8600183612f77565b855490915060009061240c90600190612f77565b905081811461248d57600086600001828154811061243a57634e487b7160e01b600052603260045260246000fd5b906000526020600020015490508087600001848154811061246b57634e487b7160e01b600052603260045260246000fd5b6000918252602080832090910192909255918252600188019052604090208390555b85548690806124ac57634e487b7160e01b600052603160045260246000fd5b600190038181906000526020600020016000905590558560010160008681526020019081526020016000206000905560019350505050610db6565b6000915050610db6565b600082600001828154811061251657634e487b7160e01b600052603260045260246000fd5b9060005260206000200154905092915050565b82805461253590612f8e565b90600052602060002090601f016020900481019282612557576000855561259d565b82601f1061257057805160ff191683800117855561259d565b8280016001018555821561259d579182015b8281111561259d578251825591602001919060010190612582565b506125a99291506125ad565b5090565b5b808211156125a957600081556001016125ae565b80356001600160a01b03811681146125d957600080fd5b919050565b600082601f8301126125ee578081fd5b813560206001600160401b0382111561260957612609612ffa565b8160051b612618828201612f10565b838152828101908684018388018501891015612632578687fd5b8693505b85841015611d4a57612647816125c2565b835260019390930192918401918401612636565b600082601f83011261266b578081fd5b81356001600160401b0381111561268457612684612ffa565b612697601f8201601f1916602001612f10565b8181528460208386010111156126ab578283fd5b816020850160208301379081016020019190915292915050565b6000602082840312156126d6578081fd5b61233e826125c2565b6000602082840312156126f0578081fd5b81356001600160401b03811115612705578182fd5b6127118482850161265b565b949350505050565b6000806040838503121561272b578081fd5b82356001600160401b03811115612740578182fd5b61274c8582860161265b565b92505061275b602084016125c2565b90509250929050565b60008060408385031215612776578182fd5b82356001600160401b038082111561278c578384fd5b6127988683870161265b565b935060208501359150808211156127ad578283fd5b506127ba8582860161265b565b9150509250929050565b6000806000606084860312156127d8578081fd5b83356001600160401b03808211156127ee578283fd5b6127fa8783880161265b565b9450602086013591508082111561280f578283fd5b5061281c8682870161265b565b92505061282b604085016125c2565b90509250925092565b600080600060608486031215612848578283fd5b83356001600160401b038082111561285e578485fd5b61286a8783880161265b565b9450602086013591508082111561287f578384fd5b61288b8783880161265b565b935060408601359150808211156128a0578283fd5b506128ad868287016125de565b9150509250925092565b6000806000606084860312156128cb578283fd5b83356001600160401b03808211156128e1578485fd5b6128ed8783880161265b565b94506020860135915080821115612902578384fd5b61290e8783880161265b565b93506040860135915080821115612923578283fd5b506128ad8682870161265b565b60008060008060808587031215612945578081fd5b84356001600160401b038082111561295b578283fd5b6129678883890161265b565b9550602087013591508082111561297c578283fd5b6129888883890161265b565b9450604087013591508082111561299d578283fd5b6129a98883890161265b565b935060608701359150808211156129be578283fd5b506129cb878288016125de565b91505092959194509250565b600080600080608085870312156129ec578384fd5b84356001600160401b0380821115612a02578586fd5b612a0e8883890161265b565b95506020870135915080821115612a23578485fd5b612a2f8883890161265b565b94506040870135915080821115612a44578384fd5b612a508883890161265b565b93506060870135915080821115612a65578283fd5b506129cb8782880161265b565b600080600080600060a08688031215612a89578081fd5b85356001600160401b0380821115612a9f578283fd5b612aab89838a0161265b565b96506020880135915080821115612ac0578283fd5b612acc89838a0161265b565b95506040880135915080821115612ae1578283fd5b50612aee8882890161265b565b9598949750949560608101359550608001359392505050565b60008060008060808587031215612b1c578384fd5b84356001600160401b0380821115612b32578586fd5b612b3e8883890161265b565b95506020870135915080821115612b53578485fd5b50612b608782880161265b565b949794965050505060408301359260600135919050565b600080600060608486031215612b8b578081fd5b83356001600160401b03811115612ba0578182fd5b612bac8682870161265b565b9660208601359650604090950135949350505050565b60008060408385031215612bd4578182fd5b50508035926020909101359150565b60008151808452815b81811015612c0857602081850181015186830182015201612bec565b81811115612c195782602083870101525b50601f01601f19169290920160200192915050565b6020808252825182820181905260009190848201906040850190845b81811015612c6f5783516001600160a01b031683529284019291840191600101612c4a565b50909695505050505050565b6000602080830181845280855180835260408601915060408160051b8701019250838701855b82811015612ccf57603f19888603018452612cbd858351612be3565b94509285019290850190600101612ca1565b5092979650505050505050565b60208152600061233e6020830184612be3565b604081526000612d026040830185612be3565b905060018060a01b03831660208301529392505050565b606081526000612d2c6060830186612be3565b8281036020840152612d3e8186612be3565b91505060018060a01b0383166040830152949350505050565b608081526000612d6a6080830187612be3565b8281036020840152612d7c8187612be3565b90508281036040840152612d908186612be3565b91505060018060a01b038316606083015295945050505050565b60a081526000612dbd60a0830188612be3565b8281036020840152612dcf8188612be3565b90508281036040840152612de38187612be3565b90508281036060840152612df78186612be3565b91505060018060a01b03831660808301529695505050505050565b602080825260129082015271195c9c8b5c1c9bda8b5b9bdd0b595e1a5cdd60721b604082015260600190565b60208082526010908201526f195c9c8b5b985b594b58db185a5b595960821b604082015260600190565b6020808252600e908201526d6572722d656d7074792d6d65746160901b604082015260600190565b6020808252600e908201526d6572722d656d7074792d6e616d6560901b604082015260600190565b602080825260159082015274195c9c8b5c995b19585cd94b5b9bdd0b595e1a5cdd605a1b604082015260600190565b6020808252600f908201526e32b93916ba32b0b696b6b2b6b132b960891b604082015260600190565b604051601f8201601f191681016001600160401b0381118282101715612f3857612f38612ffa565b604052919050565b60008219821115612f5357612f53612fe4565b500190565b6000816000190483118215151615612f7257612f72612fe4565b500290565b600082821015612f8957612f89612fe4565b500390565b600181811c90821680612fa257607f821691505b60208210811415612fc357634e487b7160e01b600052602260045260246000fd5b50919050565b6000600019821415612fdd57612fdd612fe4565b5060010190565b634e487b7160e01b600052601160045260246000fd5b634e487b7160e01b600052604160045260246000fdfea2646970667358221220daf3336acd71f9d191df6fec1295be0ee19ead97960fc1d8147b0d290fa2b3a464736f6c63430008040033",
  "linkReferences": {},
  "deployedLinkReferences": {}
}