{
  "_format": "hh-sol-artifact-1",
  "contractName": "Valist",
  "sourceName": "contracts/Valist.sol",
  "abi": [
    {
      "inputs": [
        {
          "internalType": "address",
          "name": "metaTxForwarder",
          "type": "address"
        }
      ],
      "stateMutability": "nonpayable",
      "type": "constructor"
    },
    {
      "anonymous": false,
      "inputs": [
        {
          "indexed": true,
          "internalType": "bytes32",
          "name": "_orgID",
          "type": "bytes32"
        },
        {
          "indexed": true,
          "internalType": "string",
          "name": "_repoName",
          "type": "string"
        },
        {
          "indexed": true,
          "internalType": "address",
          "name": "_signer",
          "type": "address"
        },
        {
          "indexed": false,
          "internalType": "string",
          "name": "_metaCID",
          "type": "string"
        }
      ],
      "name": "MetaUpdate",
      "type": "event"
    },
    {
      "anonymous": false,
      "inputs": [
        {
          "indexed": false,
          "internalType": "bytes32",
          "name": "_orgID",
          "type": "bytes32"
        },
        {
          "indexed": true,
          "internalType": "string",
          "name": "_metaCIDHash",
          "type": "string"
        },
        {
          "indexed": false,
          "internalType": "string",
          "name": "_metaCID",
          "type": "string"
        },
        {
          "indexed": false,
          "internalType": "address",
          "name": "_admin",
          "type": "address"
        }
      ],
      "name": "OrgCreated",
      "type": "event"
    },
    {
      "anonymous": false,
      "inputs": [
        {
          "indexed": false,
          "internalType": "bytes32",
          "name": "_orgID",
          "type": "bytes32"
        },
        {
          "indexed": true,
          "internalType": "string",
          "name": "_repoNameHash",
          "type": "string"
        },
        {
          "indexed": false,
          "internalType": "string",
          "name": "_repoName",
          "type": "string"
        },
        {
          "indexed": true,
          "internalType": "string",
          "name": "_metaCIDHash",
          "type": "string"
        },
        {
          "indexed": false,
          "internalType": "string",
          "name": "_metaCID",
          "type": "string"
        }
      ],
      "name": "RepoCreated",
      "type": "event"
    },
    {
      "anonymous": false,
      "inputs": [
        {
          "indexed": true,
          "internalType": "bytes32",
          "name": "_orgID",
          "type": "bytes32"
        },
        {
          "indexed": false,
          "internalType": "string",
          "name": "_repoName",
          "type": "string"
        },
        {
          "indexed": false,
          "internalType": "address",
          "name": "_signer",
          "type": "address"
        },
        {
          "indexed": false,
          "internalType": "bytes32",
          "name": "_operation",
          "type": "bytes32"
        },
        {
          "indexed": false,
          "internalType": "address",
          "name": "_key",
          "type": "address"
        }
      ],
      "name": "VoteKeyEvent",
      "type": "event"
    },
    {
      "anonymous": false,
      "inputs": [
        {
          "indexed": false,
          "internalType": "bytes32",
          "name": "_orgID",
          "type": "bytes32"
        },
        {
          "indexed": false,
          "internalType": "string",
          "name": "_repoName",
          "type": "string"
        },
        {
          "indexed": false,
          "internalType": "string",
          "name": "_tag",
          "type": "string"
        },
        {
          "indexed": false,
          "internalType": "string",
          "name": "_releaseCID",
          "type": "string"
        },
        {
          "indexed": false,
          "internalType": "string",
          "name": "_metaCID",
          "type": "string"
        },
        {
          "indexed": false,
          "internalType": "address",
          "name": "_signer",
          "type": "address"
        }
      ],
      "name": "VoteReleaseEvent",
      "type": "event"
    },
    {
      "inputs": [
        {
          "internalType": "string",
          "name": "_orgMeta",
          "type": "string"
        }
      ],
      "name": "createOrganization",
      "outputs": [],
      "stateMutability": "nonpayable",
      "type": "function"
    },
    {
      "inputs": [
        {
          "internalType": "bytes32",
          "name": "_orgID",
          "type": "bytes32"
        },
        {
          "internalType": "string",
          "name": "_repoName",
          "type": "string"
        },
        {
          "internalType": "string",
          "name": "_repoMeta",
          "type": "string"
        }
      ],
      "name": "createRepository",
      "outputs": [],
      "stateMutability": "nonpayable",
      "type": "function"
    },
    {
      "inputs": [
        {
          "internalType": "bytes32",
          "name": "_orgID",
          "type": "bytes32"
        },
        {
          "internalType": "string",
          "name": "_repoName",
          "type": "string"
        }
      ],
      "name": "getLatestRelease",
      "outputs": [
        {
          "internalType": "string",
          "name": "",
          "type": "string"
        },
        {
          "internalType": "string",
          "name": "",
          "type": "string"
        },
        {
          "internalType": "string",
          "name": "",
          "type": "string"
        },
        {
          "internalType": "address[]",
          "name": "",
          "type": "address[]"
        }
      ],
      "stateMutability": "view",
      "type": "function"
    },
    {
      "inputs": [
        {
          "internalType": "bytes32",
          "name": "_selector",
          "type": "bytes32"
        },
        {
          "internalType": "uint256",
          "name": "_page",
          "type": "uint256"
        },
        {
          "internalType": "uint256",
          "name": "_resultsPerPage",
          "type": "uint256"
        }
      ],
      "name": "getReleaseTags",
      "outputs": [
        {
          "internalType": "string[]",
          "name": "",
          "type": "string[]"
        }
      ],
      "stateMutability": "view",
      "type": "function"
    },
    {
      "inputs": [
        {
          "internalType": "bytes32",
          "name": "_orgID",
          "type": "bytes32"
        },
        {
          "internalType": "uint256",
          "name": "_page",
          "type": "uint256"
        },
        {
          "internalType": "uint256",
          "name": "_resultsPerPage",
          "type": "uint256"
        }
      ],
      "name": "getRepoNames",
      "outputs": [
        {
          "internalType": "string[]",
          "name": "",
          "type": "string[]"
        }
      ],
      "stateMutability": "view",
      "type": "function"
    },
    {
      "inputs": [
        {
          "internalType": "bytes32",
          "name": "_selector",
          "type": "bytes32"
        }
      ],
      "name": "getRoleMembers",
      "outputs": [
        {
          "internalType": "address[]",
          "name": "",
          "type": "address[]"
        }
      ],
      "stateMutability": "view",
      "type": "function"
    },
    {
      "inputs": [
        {
          "internalType": "bytes32",
          "name": "_orgID",
          "type": "bytes32"
        },
        {
          "internalType": "address",
          "name": "_address",
          "type": "address"
        }
      ],
      "name": "isOrgAdmin",
      "outputs": [
        {
          "internalType": "bool",
          "name": "",
          "type": "bool"
        }
      ],
      "stateMutability": "view",
      "type": "function"
    },
    {
      "inputs": [
        {
          "internalType": "bytes32",
          "name": "_orgID",
          "type": "bytes32"
        },
        {
          "internalType": "string",
          "name": "_repoName",
          "type": "string"
        },
        {
          "internalType": "address",
          "name": "_address",
          "type": "address"
        }
      ],
      "name": "isRepoDev",
      "outputs": [
        {
          "internalType": "bool",
          "name": "",
          "type": "bool"
        }
      ],
      "stateMutability": "view",
      "type": "function"
    },
    {
      "inputs": [
        {
          "internalType": "address",
          "name": "forwarder",
          "type": "address"
        }
      ],
      "name": "isTrustedForwarder",
      "outputs": [
        {
          "internalType": "bool",
          "name": "",
          "type": "bool"
        }
      ],
      "stateMutability": "view",
      "type": "function"
    },
    {
      "inputs": [],
      "name": "orgCount",
      "outputs": [
        {
          "internalType": "uint256",
          "name": "",
          "type": "uint256"
        }
      ],
      "stateMutability": "view",
      "type": "function"
    },
    {
      "inputs": [
        {
          "internalType": "uint256",
          "name": "",
          "type": "uint256"
        }
      ],
      "name": "orgIDs",
      "outputs": [
        {
          "internalType": "bytes32",
          "name": "",
          "type": "bytes32"
        }
      ],
      "stateMutability": "view",
      "type": "function"
    },
    {
      "inputs": [
        {
          "internalType": "bytes32",
          "name": "",
          "type": "bytes32"
        }
      ],
      "name": "orgs",
      "outputs": [
        {
          "internalType": "string",
          "name": "metaCID",
          "type": "string"
        }
      ],
      "stateMutability": "view",
      "type": "function"
    },
    {
      "inputs": [
        {
          "internalType": "bytes32",
          "name": "",
          "type": "bytes32"
        },
        {
          "internalType": "uint256",
          "name": "",
          "type": "uint256"
        }
      ],
      "name": "pendingReleaseRequests",
      "outputs": [
        {
          "internalType": "string",
          "name": "tag",
          "type": "string"
        },
        {
          "internalType": "string",
          "name": "releaseCID",
          "type": "string"
        },
        {
          "internalType": "string",
          "name": "metaCID",
          "type": "string"
        }
      ],
      "stateMutability": "view",
      "type": "function"
    },
    {
      "inputs": [
        {
          "internalType": "bytes32",
          "name": "",
          "type": "bytes32"
        },
        {
          "internalType": "uint256",
          "name": "",
          "type": "uint256"
        }
      ],
      "name": "pendingRoleRequests",
      "outputs": [
        {
          "internalType": "address",
          "name": "",
          "type": "address"
        }
      ],
      "stateMutability": "view",
      "type": "function"
    },
    {
      "inputs": [
        {
          "internalType": "bytes32",
          "name": "",
          "type": "bytes32"
        },
        {
          "internalType": "uint256",
          "name": "",
          "type": "uint256"
        }
      ],
      "name": "pendingThresholdRequests",
      "outputs": [
        {
          "internalType": "uint256",
          "name": "",
          "type": "uint256"
        }
      ],
      "stateMutability": "view",
      "type": "function"
    },
    {
      "inputs": [
        {
          "internalType": "bytes32",
          "name": "",
          "type": "bytes32"
        }
      ],
      "name": "releases",
      "outputs": [
        {
          "internalType": "string",
          "name": "releaseCID",
          "type": "string"
        },
        {
          "internalType": "string",
          "name": "metaCID",
          "type": "string"
        }
      ],
      "stateMutability": "view",
      "type": "function"
    },
    {
      "inputs": [
        {
          "internalType": "bytes32",
          "name": "",
          "type": "bytes32"
        }
      ],
      "name": "repos",
      "outputs": [
        {
          "internalType": "bool",
          "name": "exists",
          "type": "bool"
        },
        {
          "internalType": "string",
          "name": "metaCID",
          "type": "string"
        }
      ],
      "stateMutability": "view",
      "type": "function"
    },
    {
      "inputs": [
        {
          "internalType": "bytes32",
          "name": "",
          "type": "bytes32"
        }
      ],
      "name": "roleModifiedTimestamps",
      "outputs": [
        {
          "internalType": "uint256",
          "name": "",
          "type": "uint256"
        }
      ],
      "stateMutability": "view",
      "type": "function"
    },
    {
      "inputs": [
        {
          "internalType": "bytes32",
          "name": "_orgID",
          "type": "bytes32"
        },
        {
          "internalType": "string",
          "name": "_metaCID",
          "type": "string"
        }
      ],
      "name": "setOrgMeta",
      "outputs": [],
      "stateMutability": "nonpayable",
      "type": "function"
    },
    {
      "inputs": [
        {
          "internalType": "bytes32",
          "name": "_orgID",
          "type": "bytes32"
        },
        {
          "internalType": "string",
          "name": "_repoName",
          "type": "string"
        },
        {
          "internalType": "string",
          "name": "_metaCID",
          "type": "string"
        }
      ],
      "name": "setRepoMeta",
      "outputs": [],
      "stateMutability": "nonpayable",
      "type": "function"
    },
    {
      "inputs": [],
      "name": "versionRecipient",
      "outputs": [
        {
          "internalType": "string",
          "name": "",
          "type": "string"
        }
      ],
      "stateMutability": "view",
      "type": "function"
    },
    {
      "inputs": [
        {
          "internalType": "bytes32",
          "name": "_orgID",
          "type": "bytes32"
        },
        {
          "internalType": "string",
          "name": "_repoName",
          "type": "string"
        },
        {
          "internalType": "bytes32",
          "name": "_operation",
          "type": "bytes32"
        },
        {
          "internalType": "address",
          "name": "_key",
          "type": "address"
        }
      ],
      "name": "voteKey",
      "outputs": [],
      "stateMutability": "nonpayable",
      "type": "function"
    },
    {
      "inputs": [
        {
          "internalType": "bytes32",
          "name": "_orgID",
          "type": "bytes32"
        },
        {
          "internalType": "string",
          "name": "_repoName",
          "type": "string"
        },
        {
          "internalType": "string",
          "name": "_tag",
          "type": "string"
        },
        {
          "internalType": "string",
          "name": "_releaseCID",
          "type": "string"
        },
        {
          "internalType": "string",
          "name": "_metaCID",
          "type": "string"
        }
      ],
      "name": "voteRelease",
      "outputs": [],
      "stateMutability": "nonpayable",
      "type": "function"
    }
  ],
  "bytecode": "0x60c060405260056080819052640322e322e360dc1b60a09081526200002891600191906200007f565b503480156200003657600080fd5b5060405162002c4738038062002c47833981016040819052620000599162000125565b600080546001600160a01b0319166001600160a01b039290921691909117905562000192565b8280546200008d9062000155565b90600052602060002090601f016020900481019282620000b15760008555620000fc565b82601f10620000cc57805160ff1916838001178555620000fc565b82800160010185558215620000fc579182015b82811115620000fc578251825591602001919060010190620000df565b506200010a9291506200010e565b5090565b5b808211156200010a57600081556001016200010f565b60006020828403121562000137578081fd5b81516001600160a01b03811681146200014e578182fd5b9392505050565b600181811c908216806200016a57607f821691505b602082108114156200018c57634e487b7160e01b600052602260045260246000fd5b50919050565b612aa580620001a26000396000f3fe608060405234801561001057600080fd5b506004361061014d5760003560e01c8063a3e84beb116100c3578063dfec1bb01161007c578063dfec1bb014610319578063e253f5e114610344578063e59dbfa414610357578063f26f3c561461036a578063f3439d561461037d578063f491a84c1461039057600080fd5b8063a3e84beb146102a2578063a940abcb146102b5578063c372be80146102d7578063d8106690146102ea578063d96162a1146102f3578063dedc33911461030657600080fd5b80635cd20d29116101155780635cd20d29146101eb5780636427acca1461020e578063837dc4d0146102215780638775692f146102415780638bf6737014610262578063a3246ad31461028257600080fd5b806302b2583a146101525780631fd522a61461017c578063328d3ddf1461019f578063486ff0cd146101b4578063572b6c05146101c9575b600080fd5b610165610160366004612213565b6103b1565b604051610173929190612689565b60405180910390f35b61018f61018a36600461229b565b61045a565b6040519015158152602001610173565b6101b26101ad3660046123b9565b610573565b005b6101bc610821565b6040516101739190612839565b61018f6101d73660046121f9565b6000546001600160a01b0391821691161490565b6101fe6101f9366004612256565b6108af565b60405161017394939291906128ef565b6101b261021c3660046124b7565b610bd3565b61023461022f36600461248c565b610dfe565b6040516101739190612628565b61025461024f366004612213565b610fc7565b604051908152602001610173565b610254610270366004612213565b60086020526000908152604090205481565b610295610290366004612213565b610fe8565b6040516101739190612615565b6101bc6102b0366004612213565b6110dd565b6102c86102c336600461246b565b61117b565b604051610173939291906128b6565b6102546102e536600461246b565b61135a565b61025460025481565b61018f61030136600461222b565b61138b565b6101b261031436600461234f565b6113f3565b61032c61032736600461246b565b6114d4565b6040516001600160a01b039091168152602001610173565b6101b2610352366004612256565b61150c565b6101b261036536600461234f565b6115cb565b6101b26103783660046122f0565b6117c3565b61023461038b36600461248c565b611c29565b6103a361039e366004612213565b611de8565b604051610173929190612888565b6005602052600090815260409020805460018201805460ff90921692916103d7906129cd565b80601f0160208091040260200160405190810160405280929190818152602001828054610403906129cd565b80156104505780601f1061042557610100808354040283529160200191610450565b820191906000526020600020905b81548152906001019060200180831161043357829003601f168201915b5050505050905082565b81516000901561055f5760056000858560405160200161047b929190612559565b60408051601f198184030181529181528151602092830120835290820192909252016000205460ff166104df5760405162461bcd60e51b81526020600482015260076024820152664e6f207265706f60c81b60448201526064015b60405180910390fd5b600084847f069bf569f27d389f2c70410107860b2e82ff561283b097a89e897daa5e34b1b66040516020016105169392919061257f565b60408051601f1981840301815291815281516020928301206000818152600790935291209091506105479084611e91565b806105575750610557858461138b565b91505061056c565b610569848361138b565b90505b9392505050565b8484610582828261018a611eb3565b61059e5760405162461bcd60e51b81526004016104d690612947565b60008551116105d85760405162461bcd60e51b81526020600482015260066024820152654e6f2074616760d01b60448201526064016104d6565b60008451116106195760405162461bcd60e51b815260206004820152600d60248201526c139bc81c995b19585cd950d251609a1b60448201526064016104d6565b60008351116106575760405162461bcd60e51b815260206004820152600a602482015269139bc81b595d1850d25160b21b60448201526064016104d6565b600087878760405160200161066e939291906126dd565b60408051601f1981840301815291815281516020928301206000818152600690935291208054919250906106a1906129cd565b1590506106db5760405162461bcd60e51b8152602060048201526008602482015267151859c81d5cd95960c21b60448201526064016104d6565b600088886040516020016106f0929190612559565b60408051601f198184030181529181528151602092830120600085815260068452919091208851919350610729929091908901906120bd565b506000828152600660209081526040909120865161074f926001909201918801906120bd565b506000828152600660205260409020600201610769611eb3565b8154600180820184556000938452602080852090920180546001600160a01b0319166001600160a01b03949094169390931790925583835260058152604083206002018054928301815583529182902089516107cd939190920191908a01906120bd565b507f421f258c5aa460af34b6ebafc617297b2d4be778be925fa5b00f90f0c11fb1a189898989896107fc611eb3565b60405161080e96959493929190612708565b60405180910390a1505050505050505050565b6001805461082e906129cd565b80601f016020809104026020016040519081016040528092919081815260200182805461085a906129cd565b80156108a75780601f1061087c576101008083540402835291602001916108a7565b820191906000526020600020905b81548152906001019060200180831161088a57829003601f168201915b505050505081565b60608060608060006005600088886040516020016108ce929190612559565b6040516020818303038152906040528051906020012081526020019081526020016000209050600060066000898985600201600187600201805490506109149190612986565b8154811061093257634e487b7160e01b600052603260045260246000fd5b9060005260206000200160405160200161094e93929190612777565b6040516020818303038152906040528051906020012081526020019081526020016000209050816002016001836002018054905061098c9190612986565b815481106109aa57634e487b7160e01b600052603260045260246000fd5b906000526020600020018160000182600101836002018380546109cc906129cd565b80601f01602080910402602001604051908101604052809291908181526020018280546109f8906129cd565b8015610a455780601f10610a1a57610100808354040283529160200191610a45565b820191906000526020600020905b815481529060010190602001808311610a2857829003601f168201915b50505050509350828054610a58906129cd565b80601f0160208091040260200160405190810160405280929190818152602001828054610a84906129cd565b8015610ad15780601f10610aa657610100808354040283529160200191610ad1565b820191906000526020600020905b815481529060010190602001808311610ab457829003601f168201915b50505050509250818054610ae4906129cd565b80601f0160208091040260200160405190810160405280929190818152602001828054610b10906129cd565b8015610b5d5780601f10610b3257610100808354040283529160200191610b5d565b820191906000526020600020905b815481529060010190602001808311610b4057829003601f168201915b5050505050915080805480602002602001604051908101604052809291908181526020018280548015610bb957602002820191906000526020600020905b81546001600160a01b03168152600190910190602001808311610b9b575b505050505090509550955095509550505092959194509250565b6000815111610c115760405162461bcd60e51b815260206004820152600a6024820152694e6f206f72674d65746160b01b60448201526064016104d6565b6000600260008154610c2290612a08565b9182905550604080516020810192909252469082015260600160408051601f198184030181529181528151602092830120600081815260048452919091208451919350610c74929091908501906120bd565b50600380546001810182556000919091527fc2575a0e9e593c00f959f8c92f12db2869c3395a3b0502d05e2516446f71f85b01819055610d15610cb5611eb3565b6007600084600080516020612a50833981519152604051602001610ce3929190918252602082015260400190565b604051602081830303815290604052805190602001208152602001908152602001600020611ed990919063ffffffff16565b5081604051610d2491906125f9565b60405180910390207f2b5ee9da6dd6342e36cfd09e51584c7c216101c298f6736045db3a01a2f6b4308284610d57611eb3565b604051610d66939291906126ac565b60405180910390a2807fadb15976f6bf4c8e9dad42fef92b31bb40b1dc7b84e20195788ab115b6e51be5610d98611eb3565b7fdb7bfe957d82520d83f2a439f82c0ab65bbe62c5da8b7b7aa22924c027ef518d610dc1611eb3565b6040805160808082526000908201526001600160a01b03948516602082015290810192909252909116606082015260a00160405180910390a25050565b6060600082610e0d8582612967565b610e179190612986565b90506000610e258486612967565b600087815260046020526040902060010154909150811115610e5557506000858152600460205260409020600101545b60008467ffffffffffffffff811115610e7e57634e487b7160e01b600052604160045260246000fd5b604051908082528060200260200182016040528015610eb157816020015b6060815260200190600190039081610e9c5790505b5090505b81831015610fbd576000878152600460205260409020600101805484908110610eee57634e487b7160e01b600052603260045260246000fd5b906000526020600020018054610f03906129cd565b80601f0160208091040260200160405190810160405280929190818152602001828054610f2f906129cd565b8015610f7c5780601f10610f5157610100808354040283529160200191610f7c565b820191906000526020600020905b815481529060010190602001808311610f5f57829003601f168201915b5050505050818481518110610fa157634e487b7160e01b600052603260045260246000fd5b602002602001018190525082610fb690612a08565b9250610eb5565b9695505050505050565b60038181548110610fd757600080fd5b600091825260209091200154905081565b60008181526007602052604081206060919061100390611eee565b67ffffffffffffffff81111561102957634e487b7160e01b600052604160045260246000fd5b604051908082528060200260200182016040528015611052578160200160208202803683370190505b50905060005b600084815260076020526040902061106f90611eee565b8110156110d657600084815260076020526040902061108e9082611ef8565b8282815181106110ae57634e487b7160e01b600052603260045260246000fd5b6001600160a01b03909216602092830291909101909101526110cf81612a08565b9050611058565b5092915050565b6004602052600090815260409020805481906110f8906129cd565b80601f0160208091040260200160405190810160405280929190818152602001828054611124906129cd565b80156111715780601f1061114657610100808354040283529160200191611171565b820191906000526020600020905b81548152906001019060200180831161115457829003601f168201915b5050505050905081565b6009602052816000526040600020818154811061119757600080fd5b9060005260206000209060030201600091509150508060000180546111bb906129cd565b80601f01602080910402602001604051908101604052809291908181526020018280546111e7906129cd565b80156112345780601f1061120957610100808354040283529160200191611234565b820191906000526020600020905b81548152906001019060200180831161121757829003601f168201915b505050505090806001018054611249906129cd565b80601f0160208091040260200160405190810160405280929190818152602001828054611275906129cd565b80156112c25780601f10611297576101008083540402835291602001916112c2565b820191906000526020600020905b8154815290600101906020018083116112a557829003601f168201915b5050505050908060020180546112d7906129cd565b80601f0160208091040260200160405190810160405280929190818152602001828054611303906129cd565b80156113505780601f1061132557610100808354040283529160200191611350565b820191906000526020600020905b81548152906001019060200180831161133357829003601f168201915b5050505050905083565b600b602052816000526040600020818154811061137657600080fd5b90600052602060002001600091509150505481565b60008083600080516020612a508339815191526040516020016113b8929190918252602082015260400190565b60408051601f1981840301815291815281516020928301206000818152600790935291209091506113e99084611e91565b9150505b92915050565b8261140081610301611eb3565b61141c5760405162461bcd60e51b81526004016104d690612947565b81600560008686604051602001611434929190612559565b604051602081830303815290604052805190602001208152602001908152602001600020600101908051906020019061146e9291906120bd565b50611477611eb3565b6001600160a01b03168360405161148e91906125f9565b6040518091039020857f082dfc0cda6cc25674875e2dcd882c68a8b2c80bf48e58c6a3dc2384c6985955856040516114c69190612839565b60405180910390a450505050565b600a60205281600052604060002081815481106114f057600080fd5b6000918252602090912001546001600160a01b03169150829050565b8161151981610301611eb3565b6115355760405162461bcd60e51b81526004016104d690612947565b60008381526004602090815260409091208351611554928501906120bd565b5061155d611eb3565b6040516001600160a01b0391909116907fc5d2460186f7233c927e7db2dcc703c0e500b653ca82273b7bfad8045d85a4709085907f082dfc0cda6cc25674875e2dcd882c68a8b2c80bf48e58c6a3dc2384c6985955906115be908790612839565b60405180910390a4505050565b826115d881610301611eb3565b6115f45760405162461bcd60e51b81526004016104d690612947565b60008484604051602001611609929190612559565b60408051601f1981840301815291815281516020928301206000818152600590935291205490915060ff161561166f5760405162461bcd60e51b815260206004820152600b60248201526a5265706f2065786973747360a81b60448201526064016104d6565b60008451116116ae5760405162461bcd60e51b815260206004820152600b60248201526a4e6f207265706f4e616d6560a81b60448201526064016104d6565b60008351116116ed5760405162461bcd60e51b815260206004820152600b60248201526a4e6f207265706f4d65746160a81b60448201526064016104d6565b6000858152600460209081526040822060019081018054918201815583529181902086516117229391909101918701906120bd565b506000818152600560209081526040909120805460ff19166001908117825585516117549392909101918601906120bd565b508260405161176391906125f9565b60405180910390208460405161177991906125f9565b60405180910390207f50b56e7c402d556bc61b6fc9bba647b83c4590f2fca5a6d463450e78f3a2d44c8787876040516117b4939291906126dd565b60405180910390a35050505050565b83836117d2828261018a611eb3565b6117ee5760405162461bcd60e51b81526004016104d690612947565b7fdb7bfe957d82520d83f2a439f82c0ab65bbe62c5da8b7b7aa22924c027ef518d84148061183b57507fb85a6b22a26ce426daea6357c60a74cb0b4d36234cd7c96170cd6a64102786ff84145b8061186557507fd7381cbf120651c7bcd9cff77aa8449385520247d98372358854435c90a30af484145b61189e5760405162461bcd60e51b815260206004820152600a6024820152690496e76616c6964206f760b41b60448201526064016104d6565b60008086511190506000806000831561197f5789897f069bf569f27d389f2c70410107860b2e82ff561283b097a89e897daa5e34b1b68a8a6040516020016118ea9594939291906125ac565b60405160208183030381529060405280519060200120925089897f069bf569f27d389f2c70410107860b2e82ff561283b097a89e897daa5e34b1b66040516020016119379392919061257f565b6040516020818303038152906040528051906020012091508989604051602001611962929190612559565b604051602081830303815290604052805190602001209050611a14565b60408051602081018c9052600080516020612a508339815191529181019190915260608082018a905288901b6bffffffffffffffffffffffff1916608082015260940160408051601f1981840301815282825280516020918201209083018d9052600080516020612a508339815191529183019190915293506060016040516020818303038152906040528051906020012091505b7fb85a6b22a26ce426daea6357c60a74cb0b4d36234cd7c96170cd6a64102786ff881415611aa7576000828152600760205260409020611a549088611e91565b611a895760405162461bcd60e51b81526020600482015260066024820152654e6f204b657960d01b60448201526064016104d6565b6000828152600760205260409020611aa19088611f04565b50611af9565b6000828152600760205260409020611abf9088611e91565b15611af95760405162461bcd60e51b815260206004820152600a6024820152694b65792065786973747360b01b60448201526064016104d6565b7fd7381cbf120651c7bcd9cff77aa8449385520247d98372358854435c90a30af4881415611b9657611b40611b2c611eb3565b600084815260076020526040902090611e91565b611b5c5760405162461bcd60e51b81526004016104d690612947565b611b7b611b67611eb3565b600084815260076020526040902090611f04565b506000828152600760205260409020611b949088611ed9565b505b7fdb7bfe957d82520d83f2a439f82c0ab65bbe62c5da8b7b7aa22924c027ef518d881415611c1d576000828152600760205260409020611bd69088611ed9565b50897fadb15976f6bf4c8e9dad42fef92b31bb40b1dc7b84e20195788ab115b6e51be58a611c02611eb3565b8b8b604051611c14949392919061284c565b60405180910390a25b50505050505050505050565b6060600082611c388582612967565b611c429190612986565b90506000611c508486612967565b600087815260056020526040902060020154909150811115611c8057506000858152600560205260409020600201545b60008467ffffffffffffffff811115611ca957634e487b7160e01b600052604160045260246000fd5b604051908082528060200260200182016040528015611cdc57816020015b6060815260200190600190039081611cc75790505b5090505b81831015610fbd576000878152600560205260409020600201805484908110611d1957634e487b7160e01b600052603260045260246000fd5b906000526020600020018054611d2e906129cd565b80601f0160208091040260200160405190810160405280929190818152602001828054611d5a906129cd565b8015611da75780601f10611d7c57610100808354040283529160200191611da7565b820191906000526020600020905b815481529060010190602001808311611d8a57829003601f168201915b5050505050818481518110611dcc57634e487b7160e01b600052603260045260246000fd5b602002602001018190525082611de190612a08565b9250611ce0565b600660205260009081526040902080548190611e03906129cd565b80601f0160208091040260200160405190810160405280929190818152602001828054611e2f906129cd565b8015611e7c5780601f10611e5157610100808354040283529160200191611e7c565b820191906000526020600020905b815481529060010190602001808311611e5f57829003601f168201915b5050505050908060010180546103d7906129cd565b6001600160a01b0381166000908152600183016020526040812054151561056c565b600080546001600160a01b0316331415611ed4575060131936013560601c90565b503390565b600061056c836001600160a01b038416611f19565b60006113ed825490565b600061056c8383611f68565b600061056c836001600160a01b038416611fa0565b6000818152600183016020526040812054611f60575081546001818101845560008481526020808220909301849055845484825282860190935260409020919091556113ed565b5060006113ed565b6000826000018281548110611f8d57634e487b7160e01b600052603260045260246000fd5b9060005260206000200154905092915050565b600081815260018301602052604081205480156120b3576000611fc4600183612986565b8554909150600090611fd890600190612986565b905081811461205957600086600001828154811061200657634e487b7160e01b600052603260045260246000fd5b906000526020600020015490508087600001848154811061203757634e487b7160e01b600052603260045260246000fd5b6000918252602080832090910192909255918252600188019052604090208390555b855486908061207857634e487b7160e01b600052603160045260246000fd5b6001900381819060005260206000200160009055905585600101600086815260200190815260200160002060009055600193505050506113ed565b60009150506113ed565b8280546120c9906129cd565b90600052602060002090601f0160209004810192826120eb5760008555612131565b82601f1061210457805160ff1916838001178555612131565b82800160010185558215612131579182015b82811115612131578251825591602001919060010190612116565b5061213d929150612141565b5090565b5b8082111561213d5760008155600101612142565b80356001600160a01b038116811461216d57600080fd5b919050565b600082601f830112612182578081fd5b813567ffffffffffffffff8082111561219d5761219d612a39565b604051601f8301601f19908116603f011681019082821181831017156121c5576121c5612a39565b816040528381528660208588010111156121dd578485fd5b8360208701602083013792830160200193909352509392505050565b60006020828403121561220a578081fd5b61056c82612156565b600060208284031215612224578081fd5b5035919050565b6000806040838503121561223d578081fd5b8235915061224d60208401612156565b90509250929050565b60008060408385031215612268578182fd5b82359150602083013567ffffffffffffffff811115612285578182fd5b61229185828601612172565b9150509250929050565b6000806000606084860312156122af578081fd5b83359250602084013567ffffffffffffffff8111156122cc578182fd5b6122d886828701612172565b9250506122e760408501612156565b90509250925092565b60008060008060808587031215612305578081fd5b84359350602085013567ffffffffffffffff811115612322578182fd5b61232e87828801612172565b9350506040850135915061234460608601612156565b905092959194509250565b600080600060608486031215612363578283fd5b83359250602084013567ffffffffffffffff80821115612381578384fd5b61238d87838801612172565b935060408601359150808211156123a2578283fd5b506123af86828701612172565b9150509250925092565b600080600080600060a086880312156123d0578081fd5b85359450602086013567ffffffffffffffff808211156123ee578283fd5b6123fa89838a01612172565b9550604088013591508082111561240f578283fd5b61241b89838a01612172565b94506060880135915080821115612430578283fd5b61243c89838a01612172565b93506080880135915080821115612451578283fd5b5061245e88828901612172565b9150509295509295909350565b6000806040838503121561247d578182fd5b50508035926020909101359150565b6000806000606084860312156124a0578283fd5b505081359360208301359350604090920135919050565b6000602082840312156124c8578081fd5b813567ffffffffffffffff8111156124de578182fd5b6113e984828501612172565b6000815180845260208085019450808401835b838110156125225781516001600160a01b0316875295820195908201906001016124fd565b509495945050505050565b6000815180845261254581602086016020860161299d565b601f01601f19169290920160200192915050565b8281526000825161257181602085016020870161299d565b919091016020019392505050565b8381526000835161259781602085016020880161299d565b60209201918201929092526040019392505050565b858152600085516125c4816020850160208a0161299d565b60209201918201949094526040810192909252606090811b6bffffffffffffffffffffffff1916908201526074019392505050565b6000825161260b81846020870161299d565b9190910192915050565b60208152600061056c60208301846124ea565b6000602080830181845280855180835260408601915060408160051b8701019250838701855b8281101561267c57603f1988860301845261266a85835161252d565b9450928501929085019060010161264e565b5092979650505050505050565b82151581526040602082015260006126a4604083018461252d565b949350505050565b8381526060602082015260006126c5606083018561252d565b905060018060a01b0383166040830152949350505050565b8381526060602082015260006126f6606083018561252d565b8281036040840152610fbd818561252d565b86815260c06020820152600061272160c083018861252d565b8281036040840152612733818861252d565b90508281036060840152612747818761252d565b9050828103608084015261275b818661252d565b91505060018060a01b03831660a0830152979650505050505050565b83815260006020606081840152612791606084018661252d565b838103604085015284548390600181811c90808316806127b257607f831692505b8683108114156127d057634e487b7160e01b88526022600452602488fd5b8286526020860195508080156127ed57600181146127fe57612828565b60ff19851687528787019550612828565b60008b815260209020895b8581101561282257815489820152908401908901612809565b88019650505b50939b9a5050505050505050505050565b60208152600061056c602083018461252d565b60808152600061285f608083018761252d565b6001600160a01b0395861660208401526040830194909452509216606090920191909152919050565b60408152600061289b604083018561252d565b82810360208401526128ad818561252d565b95945050505050565b6060815260006128c9606083018661252d565b82810360208401526128db818661252d565b90508281036040840152610fbd818561252d565b608081526000612902608083018761252d565b8281036020840152612914818761252d565b90508281036040840152612928818661252d565b9050828103606084015261293c81856124ea565b979650505050505050565b60208082526006908201526511195b9a595960d21b604082015260600190565b600081600019048311821515161561298157612981612a23565b500290565b60008282101561299857612998612a23565b500390565b60005b838110156129b85781810151838201526020016129a0565b838111156129c7576000848401525b50505050565b600181811c908216806129e157607f821691505b60208210811415612a0257634e487b7160e01b600052602260045260246000fd5b50919050565b6000600019821415612a1c57612a1c612a23565b5060010190565b634e487b7160e01b600052601160045260246000fd5b634e487b7160e01b600052604160045260246000fdfe123b642491709420c2370bb98c4e7de2b1bc05c5f9fd95ac4111e12683553c62a2646970667358221220ce17e49b006c314d2e95626f9e60f141d6edacaaa49601ef0fd6760661d855da64736f6c63430008040033",
  "linkReferences": {},
  "deployedLinkReferences": {}
}