{
  "_format": "hh-sol-artifact-1",
  "contractName": "ValistRegistry",
  "sourceName": "contracts/ValistRegistry.sol",
  "abi": [
    {
      "inputs": [
        {
          "internalType": "address",
          "name": "metaTxForwarder",
          "type": "address"
        }
      ],
      "stateMutability": "nonpayable",
      "type": "constructor"
    },
    {
      "anonymous": false,
      "inputs": [
        {
          "indexed": true,
          "internalType": "bytes32",
          "name": "_orgID",
          "type": "bytes32"
        },
        {
          "indexed": true,
          "internalType": "string",
          "name": "_nameHash",
          "type": "string"
        },
        {
          "indexed": false,
          "internalType": "string",
          "name": "_name",
          "type": "string"
        }
      ],
      "name": "MappingEvent",
      "type": "event"
    },
    {
      "anonymous": false,
      "inputs": [
        {
          "indexed": true,
          "internalType": "bytes32",
          "name": "role",
          "type": "bytes32"
        },
        {
          "indexed": true,
          "internalType": "bytes32",
          "name": "previousAdminRole",
          "type": "bytes32"
        },
        {
          "indexed": true,
          "internalType": "bytes32",
          "name": "newAdminRole",
          "type": "bytes32"
        }
      ],
      "name": "RoleAdminChanged",
      "type": "event"
    },
    {
      "anonymous": false,
      "inputs": [
        {
          "indexed": true,
          "internalType": "bytes32",
          "name": "role",
          "type": "bytes32"
        },
        {
          "indexed": true,
          "internalType": "address",
          "name": "account",
          "type": "address"
        },
        {
          "indexed": true,
          "internalType": "address",
          "name": "sender",
          "type": "address"
        }
      ],
      "name": "RoleGranted",
      "type": "event"
    },
    {
      "anonymous": false,
      "inputs": [
        {
          "indexed": true,
          "internalType": "bytes32",
          "name": "role",
          "type": "bytes32"
        },
        {
          "indexed": true,
          "internalType": "address",
          "name": "account",
          "type": "address"
        },
        {
          "indexed": true,
          "internalType": "address",
          "name": "sender",
          "type": "address"
        }
      ],
      "name": "RoleRevoked",
      "type": "event"
    },
    {
      "inputs": [],
      "name": "ADMIN_ROLE",
      "outputs": [
        {
          "internalType": "bytes32",
          "name": "",
          "type": "bytes32"
        }
      ],
      "stateMutability": "view",
      "type": "function"
    },
    {
      "inputs": [],
      "name": "DEFAULT_ADMIN_ROLE",
      "outputs": [
        {
          "internalType": "bytes32",
          "name": "",
          "type": "bytes32"
        }
      ],
      "stateMutability": "view",
      "type": "function"
    },
    {
      "inputs": [],
      "name": "getNameCount",
      "outputs": [
        {
          "internalType": "uint256",
          "name": "",
          "type": "uint256"
        }
      ],
      "stateMutability": "view",
      "type": "function"
    },
    {
      "inputs": [
        {
          "internalType": "uint256",
          "name": "_page",
          "type": "uint256"
        },
        {
          "internalType": "uint256",
          "name": "_resultsPerPage",
          "type": "uint256"
        }
      ],
      "name": "getNames",
      "outputs": [
        {
          "internalType": "string[]",
          "name": "",
          "type": "string[]"
        }
      ],
      "stateMutability": "view",
      "type": "function"
    },
    {
      "inputs": [
        {
          "internalType": "bytes32",
          "name": "role",
          "type": "bytes32"
        }
      ],
      "name": "getRoleAdmin",
      "outputs": [
        {
          "internalType": "bytes32",
          "name": "",
          "type": "bytes32"
        }
      ],
      "stateMutability": "view",
      "type": "function"
    },
    {
      "inputs": [
        {
          "internalType": "bytes32",
          "name": "role",
          "type": "bytes32"
        },
        {
          "internalType": "address",
          "name": "account",
          "type": "address"
        }
      ],
      "name": "grantRole",
      "outputs": [],
      "stateMutability": "nonpayable",
      "type": "function"
    },
    {
      "inputs": [
        {
          "internalType": "bytes32",
          "name": "role",
          "type": "bytes32"
        },
        {
          "internalType": "address",
          "name": "account",
          "type": "address"
        }
      ],
      "name": "hasRole",
      "outputs": [
        {
          "internalType": "bool",
          "name": "",
          "type": "bool"
        }
      ],
      "stateMutability": "view",
      "type": "function"
    },
    {
      "inputs": [],
      "name": "init",
      "outputs": [],
      "stateMutability": "nonpayable",
      "type": "function"
    },
    {
      "inputs": [
        {
          "internalType": "address",
          "name": "forwarder",
          "type": "address"
        }
      ],
      "name": "isTrustedForwarder",
      "outputs": [
        {
          "internalType": "bool",
          "name": "",
          "type": "bool"
        }
      ],
      "stateMutability": "view",
      "type": "function"
    },
    {
      "inputs": [
        {
          "internalType": "bytes32",
          "name": "_orgID",
          "type": "bytes32"
        },
        {
          "internalType": "string",
          "name": "_name",
          "type": "string"
        }
      ],
      "name": "linkNameToID",
      "outputs": [],
      "stateMutability": "nonpayable",
      "type": "function"
    },
    {
      "inputs": [
        {
          "internalType": "string",
          "name": "",
          "type": "string"
        }
      ],
      "name": "nameToID",
      "outputs": [
        {
          "internalType": "bytes32",
          "name": "",
          "type": "bytes32"
        }
      ],
      "stateMutability": "view",
      "type": "function"
    },
    {
      "inputs": [
        {
          "internalType": "uint256",
          "name": "",
          "type": "uint256"
        }
      ],
      "name": "names",
      "outputs": [
        {
          "internalType": "string",
          "name": "",
          "type": "string"
        }
      ],
      "stateMutability": "view",
      "type": "function"
    },
    {
      "inputs": [
        {
          "internalType": "bytes32",
          "name": "_orgID",
          "type": "bytes32"
        },
        {
          "internalType": "string",
          "name": "_name",
          "type": "string"
        }
      ],
      "name": "overrideNameToID",
      "outputs": [],
      "stateMutability": "nonpayable",
      "type": "function"
    },
    {
      "inputs": [
        {
          "internalType": "bytes32",
          "name": "role",
          "type": "bytes32"
        },
        {
          "internalType": "address",
          "name": "account",
          "type": "address"
        }
      ],
      "name": "renounceRole",
      "outputs": [],
      "stateMutability": "nonpayable",
      "type": "function"
    },
    {
      "inputs": [
        {
          "internalType": "bytes32",
          "name": "role",
          "type": "bytes32"
        },
        {
          "internalType": "address",
          "name": "account",
          "type": "address"
        }
      ],
      "name": "revokeRole",
      "outputs": [],
      "stateMutability": "nonpayable",
      "type": "function"
    },
    {
      "inputs": [
        {
          "internalType": "bytes4",
          "name": "interfaceId",
          "type": "bytes4"
        }
      ],
      "name": "supportsInterface",
      "outputs": [
        {
          "internalType": "bool",
          "name": "",
          "type": "bool"
        }
      ],
      "stateMutability": "view",
      "type": "function"
    },
    {
      "inputs": [],
      "name": "versionRecipient",
      "outputs": [
        {
          "internalType": "string",
          "name": "",
          "type": "string"
        }
      ],
      "stateMutability": "view",
      "type": "function"
    }
  ],
  "bytecode": "0x6002805460ff1916905560e0604052600560a0819052640322e322e360dc1b60c090815262000032916003919062000090565b503480156200004057600080fd5b50604051620013ab380380620013ab833981016040819052620000639162000136565b600080546001600160a01b0319166001600160a01b03929092169190911790553360601b608052620001a3565b8280546200009e9062000166565b90600052602060002090601f016020900481019282620000c257600085556200010d565b82601f10620000dd57805160ff19168380011785556200010d565b828001600101855582156200010d579182015b828111156200010d578251825591602001919060010190620000f0565b506200011b9291506200011f565b5090565b5b808211156200011b576000815560010162000120565b60006020828403121562000148578081fd5b81516001600160a01b03811681146200015f578182fd5b9392505050565b600181811c908216806200017b57607f821691505b602082108114156200019d57634e487b7160e01b600052602260045260246000fd5b50919050565b60805160601c6111e2620001c96000396000818161089b015261093601526111e26000f3fe608060405234801561001057600080fd5b506004361061010b5760003560e01c80634622ab03116100a257806375b238fc1161007157806375b238fc1461025157806391d1485414610278578063a217fddf1461028b578063d547741f14610293578063e1c7392a146102a657600080fd5b80634622ab03146101e7578063486ff0cd14610207578063572b6c051461020f5780636270bc741461023157600080fd5b80632f2ff15d116100de5780632f2ff15d14610183578063339a8fdf1461019657806336568abe146101a9578063399be749146101bc57600080fd5b806301ffc9a7146101105780631adc3fe4146101385780631d4b0c091461014d578063248a9ca31461015f575b600080fd5b61012361011e366004610ee0565b6102ae565b60405190151581526020015b60405180910390f35b61014b610146366004610e9b565b6102e5565b005b6004545b60405190815260200161012f565b61015161016d366004610e58565b6000908152600160208190526040909120015490565b61014b610191366004610e70565b610404565b61014b6101a4366004610e9b565b610437565b61014b6101b7366004610e70565b610523565b6101516101ca366004610f08565b805160208183018101805160058252928201919093012091525481565b6101fa6101f5366004610e58565b6105b1565b60405161012f9190611082565b6101fa61065d565b61012361021d366004610e3e565b6000546001600160a01b0391821691161490565b61024461023f366004610f43565b61066a565b60405161012f9190611021565b6101517fa49807205ce4d355092ef5a8a18f56e8913cf4a201fbe287825b095693c2177581565b610123610286366004610e70565b610804565b610151600081565b61014b6102a1366004610e70565b61082f565b61014b610858565b60006001600160e01b03198216637965db0b60e01b14806102df57506301ffc9a760e01b6001600160e01b03198316145b92915050565b6005816040516102f59190610f90565b9081526020016040518091039020546000146103495760405162461bcd60e51b815260206004820152600e60248201526d4d617070696e672065786973747360901b60448201526064015b60405180910390fd5b8160058260405161035a9190610f90565b90815260405160209181900382019020919091556004805460018101825560009190915282516103b1927f8a35acfbc15ff81a39ae7d344fd709f28e8600b4aa8c65c6b64bfe7fe36bd19b90920191840190610d02565b50806040516103c09190610f90565b6040518091039020827f4e2dab399ff448984540873a40159b645c0be5c2a36fee13b4f54eca60f119f9836040516103f89190611082565b60405180910390a35050565b6000828152600160208190526040909120015461042881610423610969565b610978565b61043283836109dc565b505050565b6104637fa49807205ce4d355092ef5a8a18f56e8913cf4a201fbe287825b095693c21775610286610969565b6104985760405162461bcd60e51b815260206004820152600660248201526511195b9a595960d21b6044820152606401610340565b6005816040516104a89190610f90565b908152602001604051809103902054600014156104f45760405162461bcd60e51b815260206004820152600a6024820152694e6f206d617070696e6760b01b6044820152606401610340565b816005826040516105059190610f90565b908152604051908190036020018120919091556103c0908290610f90565b61052b610969565b6001600160a01b0316816001600160a01b0316146105a35760405162461bcd60e51b815260206004820152602f60248201527f416363657373436f6e74726f6c3a2063616e206f6e6c792072656e6f756e636560448201526e103937b632b9903337b91039b2b63360891b6064820152608401610340565b6105ad8282610a64565b5050565b600481815481106105c157600080fd5b9060005260206000200160009150905080546105dc9061112a565b80601f01602080910402602001604051908101604052809291908181526020018280546106089061112a565b80156106555780601f1061062a57610100808354040283529160200191610655565b820191906000526020600020905b81548152906001019060200180831161063857829003601f168201915b505050505081565b600380546105dc9061112a565b606060008261067985826110ad565b61068391906110cc565b9050600061069184866110ad565b6004549091508111156106a357506004545b60008467ffffffffffffffff8111156106cc57634e487b7160e01b600052604160045260246000fd5b6040519080825280602002602001820160405280156106ff57816020015b60608152602001906001900390816106ea5790505b5090505b818310156107fb576004838154811061072c57634e487b7160e01b600052603260045260246000fd5b9060005260206000200180546107419061112a565b80601f016020809104026020016040519081016040528092919081815260200182805461076d9061112a565b80156107ba5780601f1061078f576101008083540402835291602001916107ba565b820191906000526020600020905b81548152906001019060200180831161079d57829003601f168201915b50505050508184815181106107df57634e487b7160e01b600052603260045260246000fd5b6020026020010181905250826107f490611165565b9250610703565b95945050505050565b60009182526001602090815260408084206001600160a01b0393909316845291905290205460ff1690565b6000828152600160208190526040909120015461084e81610423610969565b6104328383610a64565b60025460ff16156108995760405162461bcd60e51b815260206004820152600b60248201526a125b9a5d1a585b1a5e995960aa1b6044820152606401610340565b7f00000000000000000000000000000000000000000000000000000000000000006001600160a01b03166108cb610969565b6001600160a01b0316146109105760405162461bcd60e51b815260206004820152600c60248201526b2737ba103232b83637bcb2b960a11b6044820152606401610340565b61095a7fa49807205ce4d355092ef5a8a18f56e8913cf4a201fbe287825b095693c217757f0000000000000000000000000000000000000000000000000000000000000000610ae9565b6002805460ff19166001179055565b6000610973610af3565b905090565b6109828282610804565b6105ad5761099a816001600160a01b03166014610b19565b6109a5836020610b19565b6040516020016109b6929190610fac565b60408051601f198184030181529082905262461bcd60e51b825261034091600401611082565b6109e68282610804565b6105ad5760008281526001602081815260408084206001600160a01b0386168552909152909120805460ff19169091179055610a20610969565b6001600160a01b0316816001600160a01b0316837f2f8788117e7eff1d82e926ec794901d17c78024a50270940304540a733656f0d60405160405180910390a45050565b610a6e8282610804565b156105ad5760008281526001602090815260408083206001600160a01b03851684529091529020805460ff19169055610aa5610969565b6001600160a01b0316816001600160a01b0316837ff6391f5c32d9c69d2a47ea670b442974b53935d1edc7fd64eb21e047a839171b60405160405180910390a45050565b6105ad82826109dc565b600080546001600160a01b0316331415610b14575060131936013560601c90565b503390565b60606000610b288360026110ad565b610b33906002611095565b67ffffffffffffffff811115610b5957634e487b7160e01b600052604160045260246000fd5b6040519080825280601f01601f191660200182016040528015610b83576020820181803683370190505b509050600360fc1b81600081518110610bac57634e487b7160e01b600052603260045260246000fd5b60200101906001600160f81b031916908160001a905350600f60fb1b81600181518110610be957634e487b7160e01b600052603260045260246000fd5b60200101906001600160f81b031916908160001a9053506000610c0d8460026110ad565b610c18906001611095565b90505b6001811115610cac576f181899199a1a9b1b9c1cb0b131b232b360811b85600f1660108110610c5a57634e487b7160e01b600052603260045260246000fd5b1a60f81b828281518110610c7e57634e487b7160e01b600052603260045260246000fd5b60200101906001600160f81b031916908160001a90535060049490941c93610ca581611113565b9050610c1b565b508315610cfb5760405162461bcd60e51b815260206004820181905260248201527f537472696e67733a20686578206c656e67746820696e73756666696369656e746044820152606401610340565b9392505050565b828054610d0e9061112a565b90600052602060002090601f016020900481019282610d305760008555610d76565b82601f10610d4957805160ff1916838001178555610d76565b82800160010185558215610d76579182015b82811115610d76578251825591602001919060010190610d5b565b50610d82929150610d86565b5090565b5b80821115610d825760008155600101610d87565b80356001600160a01b0381168114610db257600080fd5b919050565b600082601f830112610dc7578081fd5b813567ffffffffffffffff80821115610de257610de2611196565b604051601f8301601f19908116603f01168101908282118183101715610e0a57610e0a611196565b81604052838152866020858801011115610e22578485fd5b8360208701602083013792830160200193909352509392505050565b600060208284031215610e4f578081fd5b610cfb82610d9b565b600060208284031215610e69578081fd5b5035919050565b60008060408385031215610e82578081fd5b82359150610e9260208401610d9b565b90509250929050565b60008060408385031215610ead578182fd5b82359150602083013567ffffffffffffffff811115610eca578182fd5b610ed685828601610db7565b9150509250929050565b600060208284031215610ef1578081fd5b81356001600160e01b031981168114610cfb578182fd5b600060208284031215610f19578081fd5b813567ffffffffffffffff811115610f2f578182fd5b610f3b84828501610db7565b949350505050565b60008060408385031215610f55578182fd5b50508035926020909101359150565b60008151808452610f7c8160208601602086016110e3565b601f01601f19169290920160200192915050565b60008251610fa28184602087016110e3565b9190910192915050565b7f416363657373436f6e74726f6c3a206163636f756e7420000000000000000000815260008351610fe48160178501602088016110e3565b7001034b99036b4b9b9b4b733903937b6329607d1b60179184019182015283516110158160288401602088016110e3565b01602801949350505050565b6000602080830181845280855180835260408601915060408160051b8701019250838701855b8281101561107557603f19888603018452611063858351610f64565b94509285019290850190600101611047565b5092979650505050505050565b602081526000610cfb6020830184610f64565b600082198211156110a8576110a8611180565b500190565b60008160001904831182151516156110c7576110c7611180565b500290565b6000828210156110de576110de611180565b500390565b60005b838110156110fe5781810151838201526020016110e6565b8381111561110d576000848401525b50505050565b60008161112257611122611180565b506000190190565b600181811c9082168061113e57607f821691505b6020821081141561115f57634e487b7160e01b600052602260045260246000fd5b50919050565b600060001982141561117957611179611180565b5060010190565b634e487b7160e01b600052601160045260246000fd5b634e487b7160e01b600052604160045260246000fdfea26469706673582212203de1a06c62a3cffdc75dab7b588c93bc5c624a3bf50dda4e64828067331404d964736f6c63430008040033",
  "linkReferences": {},
  "deployedLinkReferences": {}
}