{
  "_format": "hh-sol-artifact-1",
  "contractName": "License",
  "sourceName": "contracts/token/License.sol",
  "abi": [
    {
      "inputs": [
        {
          "internalType": "address",
          "name": "_registry",
          "type": "address"
        }
      ],
      "stateMutability": "nonpayable",
      "type": "constructor"
    },
    {
      "anonymous": false,
      "inputs": [
        {
          "indexed": true,
          "internalType": "address",
          "name": "account",
          "type": "address"
        },
        {
          "indexed": true,
          "internalType": "address",
          "name": "operator",
          "type": "address"
        },
        {
          "indexed": false,
          "internalType": "bool",
          "name": "approved",
          "type": "bool"
        }
      ],
      "name": "ApprovalForAll",
      "type": "event"
    },
    {
      "anonymous": false,
      "inputs": [
        {
          "indexed": false,
          "internalType": "uint256",
          "name": "_projectID",
          "type": "uint256"
        },
        {
          "indexed": false,
          "internalType": "address",
          "name": "_token",
          "type": "address"
        },
        {
          "indexed": false,
          "internalType": "uint256",
          "name": "_balance",
          "type": "uint256"
        },
        {
          "indexed": false,
          "internalType": "address",
          "name": "_recipient",
          "type": "address"
        },
        {
          "indexed": false,
          "internalType": "address",
          "name": "_sender",
          "type": "address"
        }
      ],
      "name": "BalanceWithdrawn",
      "type": "event"
    },
    {
      "anonymous": false,
      "inputs": [
        {
          "indexed": false,
          "internalType": "uint256",
          "name": "_projectID",
          "type": "uint256"
        },
        {
          "indexed": false,
          "internalType": "address",
          "name": "_token",
          "type": "address"
        },
        {
          "indexed": false,
          "internalType": "uint256",
          "name": "_price",
          "type": "uint256"
        },
        {
          "indexed": false,
          "internalType": "address",
          "name": "_sender",
          "type": "address"
        }
      ],
      "name": "PriceChanged",
      "type": "event"
    },
    {
      "anonymous": false,
      "inputs": [
        {
          "indexed": false,
          "internalType": "uint256",
          "name": "_projectID",
          "type": "uint256"
        },
        {
          "indexed": false,
          "internalType": "address",
          "name": "_token",
          "type": "address"
        },
        {
          "indexed": false,
          "internalType": "uint256",
          "name": "_price",
          "type": "uint256"
        },
        {
          "indexed": false,
          "internalType": "address",
          "name": "_recipient",
          "type": "address"
        },
        {
          "indexed": false,
          "internalType": "address",
          "name": "_sender",
          "type": "address"
        }
      ],
      "name": "ProductPurchased",
      "type": "event"
    },
    {
      "anonymous": false,
      "inputs": [
        {
          "indexed": true,
          "internalType": "address",
          "name": "operator",
          "type": "address"
        },
        {
          "indexed": true,
          "internalType": "address",
          "name": "from",
          "type": "address"
        },
        {
          "indexed": true,
          "internalType": "address",
          "name": "to",
          "type": "address"
        },
        {
          "indexed": false,
          "internalType": "uint256[]",
          "name": "ids",
          "type": "uint256[]"
        },
        {
          "indexed": false,
          "internalType": "uint256[]",
          "name": "values",
          "type": "uint256[]"
        }
      ],
      "name": "TransferBatch",
      "type": "event"
    },
    {
      "anonymous": false,
      "inputs": [
        {
          "indexed": true,
          "internalType": "address",
          "name": "operator",
          "type": "address"
        },
        {
          "indexed": true,
          "internalType": "address",
          "name": "from",
          "type": "address"
        },
        {
          "indexed": true,
          "internalType": "address",
          "name": "to",
          "type": "address"
        },
        {
          "indexed": false,
          "internalType": "uint256",
          "name": "id",
          "type": "uint256"
        },
        {
          "indexed": false,
          "internalType": "uint256",
          "name": "value",
          "type": "uint256"
        }
      ],
      "name": "TransferSingle",
      "type": "event"
    },
    {
      "anonymous": false,
      "inputs": [
        {
          "indexed": false,
          "internalType": "string",
          "name": "value",
          "type": "string"
        },
        {
          "indexed": true,
          "internalType": "uint256",
          "name": "id",
          "type": "uint256"
        }
      ],
      "name": "URI",
      "type": "event"
    },
    {
      "inputs": [
        {
          "internalType": "address",
          "name": "account",
          "type": "address"
        },
        {
          "internalType": "uint256",
          "name": "id",
          "type": "uint256"
        }
      ],
      "name": "balanceOf",
      "outputs": [
        {
          "internalType": "uint256",
          "name": "",
          "type": "uint256"
        }
      ],
      "stateMutability": "view",
      "type": "function"
    },
    {
      "inputs": [
        {
          "internalType": "address[]",
          "name": "accounts",
          "type": "address[]"
        },
        {
          "internalType": "uint256[]",
          "name": "ids",
          "type": "uint256[]"
        }
      ],
      "name": "balanceOfBatch",
      "outputs": [
        {
          "internalType": "uint256[]",
          "name": "",
          "type": "uint256[]"
        }
      ],
      "stateMutability": "view",
      "type": "function"
    },
    {
      "inputs": [
        {
          "internalType": "uint256",
          "name": "_projectID",
          "type": "uint256"
        }
      ],
      "name": "getBalance",
      "outputs": [
        {
          "internalType": "uint256",
          "name": "",
          "type": "uint256"
        }
      ],
      "stateMutability": "view",
      "type": "function"
    },
    {
      "inputs": [
        {
          "internalType": "contract IERC20",
          "name": "_token",
          "type": "address"
        },
        {
          "internalType": "uint256",
          "name": "_projectID",
          "type": "uint256"
        }
      ],
      "name": "getBalance",
      "outputs": [
        {
          "internalType": "uint256",
          "name": "",
          "type": "uint256"
        }
      ],
      "stateMutability": "view",
      "type": "function"
    },
    {
      "inputs": [
        {
          "internalType": "contract IERC20",
          "name": "_token",
          "type": "address"
        },
        {
          "internalType": "uint256",
          "name": "_projectID",
          "type": "uint256"
        }
      ],
      "name": "getPrice",
      "outputs": [
        {
          "internalType": "uint256",
          "name": "",
          "type": "uint256"
        }
      ],
      "stateMutability": "view",
      "type": "function"
    },
    {
      "inputs": [
        {
          "internalType": "uint256",
          "name": "_projectID",
          "type": "uint256"
        }
      ],
      "name": "getPrice",
      "outputs": [
        {
          "internalType": "uint256",
          "name": "",
          "type": "uint256"
        }
      ],
      "stateMutability": "view",
      "type": "function"
    },
    {
      "inputs": [
        {
          "internalType": "address",
          "name": "account",
          "type": "address"
        },
        {
          "internalType": "address",
          "name": "operator",
          "type": "address"
        }
      ],
      "name": "isApprovedForAll",
      "outputs": [
        {
          "internalType": "bool",
          "name": "",
          "type": "bool"
        }
      ],
      "stateMutability": "view",
      "type": "function"
    },
    {
      "inputs": [],
      "name": "name",
      "outputs": [
        {
          "internalType": "string",
          "name": "",
          "type": "string"
        }
      ],
      "stateMutability": "view",
      "type": "function"
    },
    {
      "inputs": [],
      "name": "owner",
      "outputs": [
        {
          "internalType": "address payable",
          "name": "",
          "type": "address"
        }
      ],
      "stateMutability": "view",
      "type": "function"
    },
    {
      "inputs": [
        {
          "internalType": "uint256",
          "name": "_projectID",
          "type": "uint256"
        },
        {
          "internalType": "address",
          "name": "_recipient",
          "type": "address"
        }
      ],
      "name": "purchase",
      "outputs": [],
      "stateMutability": "payable",
      "type": "function"
    },
    {
      "inputs": [
        {
          "internalType": "contract IERC20",
          "name": "_token",
          "type": "address"
        },
        {
          "internalType": "uint256",
          "name": "_projectID",
          "type": "uint256"
        },
        {
          "internalType": "address",
          "name": "_recipient",
          "type": "address"
        }
      ],
      "name": "purchase",
      "outputs": [],
      "stateMutability": "nonpayable",
      "type": "function"
    },
    {
      "inputs": [],
      "name": "registry",
      "outputs": [
        {
          "internalType": "contract Registry",
          "name": "",
          "type": "address"
        }
      ],
      "stateMutability": "view",
      "type": "function"
    },
    {
      "inputs": [],
      "name": "royaltyBasisPoints",
      "outputs": [
        {
          "internalType": "uint256",
          "name": "",
          "type": "uint256"
        }
      ],
      "stateMutability": "view",
      "type": "function"
    },
    {
      "inputs": [
        {
          "internalType": "address",
          "name": "from",
          "type": "address"
        },
        {
          "internalType": "address",
          "name": "to",
          "type": "address"
        },
        {
          "internalType": "uint256[]",
          "name": "ids",
          "type": "uint256[]"
        },
        {
          "internalType": "uint256[]",
          "name": "amounts",
          "type": "uint256[]"
        },
        {
          "internalType": "bytes",
          "name": "data",
          "type": "bytes"
        }
      ],
      "name": "safeBatchTransferFrom",
      "outputs": [],
      "stateMutability": "nonpayable",
      "type": "function"
    },
    {
      "inputs": [
        {
          "internalType": "address",
          "name": "from",
          "type": "address"
        },
        {
          "internalType": "address",
          "name": "to",
          "type": "address"
        },
        {
          "internalType": "uint256",
          "name": "id",
          "type": "uint256"
        },
        {
          "internalType": "uint256",
          "name": "amount",
          "type": "uint256"
        },
        {
          "internalType": "bytes",
          "name": "data",
          "type": "bytes"
        }
      ],
      "name": "safeTransferFrom",
      "outputs": [],
      "stateMutability": "nonpayable",
      "type": "function"
    },
    {
      "inputs": [
        {
          "internalType": "address",
          "name": "operator",
          "type": "address"
        },
        {
          "internalType": "bool",
          "name": "approved",
          "type": "bool"
        }
      ],
      "name": "setApprovalForAll",
      "outputs": [],
      "stateMutability": "nonpayable",
      "type": "function"
    },
    {
      "inputs": [
        {
          "internalType": "address payable",
          "name": "_owner",
          "type": "address"
        }
      ],
      "name": "setOwner",
      "outputs": [],
      "stateMutability": "nonpayable",
      "type": "function"
    },
    {
      "inputs": [
        {
          "internalType": "contract IERC20",
          "name": "_token",
          "type": "address"
        },
        {
          "internalType": "uint256",
          "name": "_projectID",
          "type": "uint256"
        },
        {
          "internalType": "uint256",
          "name": "_price",
          "type": "uint256"
        }
      ],
      "name": "setPrice",
      "outputs": [],
      "stateMutability": "nonpayable",
      "type": "function"
    },
    {
      "inputs": [
        {
          "internalType": "uint256",
          "name": "_projectID",
          "type": "uint256"
        },
        {
          "internalType": "uint256",
          "name": "_price",
          "type": "uint256"
        }
      ],
      "name": "setPrice",
      "outputs": [],
      "stateMutability": "nonpayable",
      "type": "function"
    },
    {
      "inputs": [
        {
          "internalType": "address",
          "name": "_registry",
          "type": "address"
        }
      ],
      "name": "setRegistry",
      "outputs": [],
      "stateMutability": "nonpayable",
      "type": "function"
    },
    {
      "inputs": [
        {
          "internalType": "uint256",
          "name": "_royaltyBasisPoints",
          "type": "uint256"
        }
      ],
      "name": "setRoyaltyBasisPoints",
      "outputs": [],
      "stateMutability": "nonpayable",
      "type": "function"
    },
    {
      "inputs": [
        {
          "internalType": "bytes4",
          "name": "interfaceId",
          "type": "bytes4"
        }
      ],
      "name": "supportsInterface",
      "outputs": [
        {
          "internalType": "bool",
          "name": "",
          "type": "bool"
        }
      ],
      "stateMutability": "view",
      "type": "function"
    },
    {
      "inputs": [],
      "name": "symbol",
      "outputs": [
        {
          "internalType": "string",
          "name": "",
          "type": "string"
        }
      ],
      "stateMutability": "view",
      "type": "function"
    },
    {
      "inputs": [
        {
          "internalType": "uint256",
          "name": "_projectID",
          "type": "uint256"
        }
      ],
      "name": "uri",
      "outputs": [
        {
          "internalType": "string",
          "name": "",
          "type": "string"
        }
      ],
      "stateMutability": "view",
      "type": "function"
    },
    {
      "inputs": [
        {
          "internalType": "uint256",
          "name": "_projectID",
          "type": "uint256"
        },
        {
          "internalType": "address payable",
          "name": "_recipient",
          "type": "address"
        }
      ],
      "name": "withdraw",
      "outputs": [],
      "stateMutability": "nonpayable",
      "type": "function"
    },
    {
      "inputs": [
        {
          "internalType": "contract IERC20",
          "name": "_token",
          "type": "address"
        },
        {
          "internalType": "uint256",
          "name": "_projectID",
          "type": "uint256"
        },
        {
          "internalType": "address payable",
          "name": "_recipient",
          "type": "address"
        }
      ],
      "name": "withdraw",
      "outputs": [],
      "stateMutability": "nonpayable",
      "type": "function"
    }
  ],
  "bytecode": "0x60c060405260076080819052664c4943454e534560c81b60a09081526200002a91600491906200010a565b506040805180820190915260178082527f56616c69737420536f667477617265204c6963656e7365000000000000000000602090920191825262000071916005916200010a565b503480156200007f57600080fd5b5060405162002dd238038062002dd2833981016040819052620000a291620001b0565b604080516020810190915260008152620000bc81620000f1565b5060068054336001600160a01b031991821617909155600880549091166001600160a01b03929092169190911790556200021d565b8051620001069060029060208401906200010a565b5050565b8280546200011890620001e0565b90600052602060002090601f0160209004810192826200013c576000855562000187565b82601f106200015757805160ff191683800117855562000187565b8280016001018555821562000187579182015b82811115620001875782518255916020019190600101906200016a565b506200019592915062000199565b5090565b5b808211156200019557600081556001016200019a565b600060208284031215620001c2578081fd5b81516001600160a01b0381168114620001d9578182fd5b9392505050565b600181811c90821680620001f557607f821691505b602082108114156200021757634e487b7160e01b600052602260045260246000fd5b50919050565b612ba5806200022d6000396000f3fe60806040526004361061017f5760003560e01c806369328dec116100d1578063ae77c2371161008a578063e757223011610064578063e7572230146104c9578063e985e9c5146104f6578063f242432a1461053f578063f7d975771461055f57600080fd5b8063ae77c23714610476578063b6b8194014610489578063e3784066146104a957600080fd5b806369328dec146103a95780637b103999146103c95780638da5cb5b1461040157806395d89b4114610421578063a22cb46514610436578063a91ee0dc1461045657600080fd5b80631e0104391161013e5780633011e16a116101185780633011e16a1461030057806342260b5d14610320578063449e815d146103365780634e1273f41461037c57600080fd5b80631e0104391461026b5780632b04e8401461029b5780632eb2c2d6146102e057600080fd5b8062f714ce14610184578062fdd58e146101a657806301ffc9a7146101d957806306fdde03146102095780630e89341c1461022b57806313af40351461024b575b600080fd5b34801561019057600080fd5b506101a461019f366004612613565b61057f565b005b3480156101b257600080fd5b506101c66101c13660046123a4565b610784565b6040519081526020015b60405180910390f35b3480156101e557600080fd5b506101f96101f43660046124b8565b610816565b60405190151581526020016101d0565b34801561021557600080fd5b5061021e610868565b6040516101d091906127b3565b34801561023757600080fd5b5061021e6102463660046125e3565b6108f6565b34801561025757600080fd5b506101a4610266366004612212565b610977565b34801561027757600080fd5b506101c66102863660046125e3565b60009081526003602052604090206001015490565b3480156102a757600080fd5b506101c66102b63660046123a4565b60009081526003602081815260408084206001600160a01b03959095168452939091019052205490565b3480156102ec57600080fd5b506101a46102fb366004612266565b6109c3565b34801561030c57600080fd5b506101a461031b366004612531565b610a5a565b34801561032c57600080fd5b506101c660075481565b34801561034257600080fd5b506101c66103513660046123a4565b60009081526003602090815260408083206001600160a01b0394909416835260029093019052205490565b34801561038857600080fd5b5061039c6103973660046123cf565b610bf4565b6040516101d09190612772565b3480156103b557600080fd5b506101a46103c43660046124f0565b610d56565b3480156103d557600080fd5b506008546103e9906001600160a01b031681565b6040516001600160a01b0390911681526020016101d0565b34801561040d57600080fd5b506006546103e9906001600160a01b031681565b34801561042d57600080fd5b5061021e610f74565b34801561044257600080fd5b506101a4610451366004612377565b610f81565b34801561046257600080fd5b506101a4610471366004612212565b610f90565b6101a4610484366004612613565b610fdc565b34801561049557600080fd5b506101a46104a43660046125e3565b611113565b3480156104b557600080fd5b506101a46104c43660046124f0565b6111a0565b3480156104d557600080fd5b506101c66104e43660046125e3565b60009081526003602052604090205490565b34801561050257600080fd5b506101f961051136600461222e565b6001600160a01b03918216600090815260016020908152604080832093909416825291909152205460ff1690565b34801561054b57600080fd5b506101a461055a366004612310565b61139d565b34801561056b57600080fd5b506101a461057a366004612637565b611424565b60008281526003602052604080822060010154600854915163105b2ac360e21b8152600481018690529092916001600160a01b03169063416cab0c9060240160206040518083038186803b1580156105d657600080fd5b505afa1580156105ea573d6000803e3d6000fd5b505050506040513d601f19601f8201168201806040525081019061060e91906125fb565b6008549091506001600160a01b0316636ad0a5ee82336040516001600160e01b031960e085901b16815260048101929092526001600160a01b0316602482015260440160206040518083038186803b15801561066957600080fd5b505afa15801561067d573d6000803e3d6000fd5b505050506040513d601f19601f820116820180604052508101906106a1919061249c565b6106c65760405162461bcd60e51b81526004016106bd906128d4565b60405180910390fd5b600082116107045760405162461bcd60e51b815260206004820152600b60248201526a6572722d62616c616e636560a81b60448201526064016106bd565b60008481526003602052604081206001015561072083836115ad565b7f04751620a1532cb5f45ff525275245b0dc69fc2e5acdf0c8154636daabfcce2f8460008486335b604080519586526001600160a01b0394851660208701528501929092528216606084015216608082015260a0015b60405180910390a150505050565b60006001600160a01b0383166107f05760405162461bcd60e51b815260206004820152602b60248201527f455243313135353a2062616c616e636520717565727920666f7220746865207a60448201526a65726f206164647265737360a81b60648201526084016106bd565b506000908152602081815260408083206001600160a01b03949094168352929052205490565b60006001600160e01b03198216636cdb3d1360e11b148061084757506001600160e01b031982166303a24d0760e21b145b8061086257506301ffc9a760e01b6001600160e01b03198316145b92915050565b60058054610875906129e2565b80601f01602080910402602001604051908101604052809291908181526020018280546108a1906129e2565b80156108ee5780601f106108c3576101008083540402835291602001916108ee565b820191906000526020600020905b8154815290600101906020018083116108d157829003601f168201915b505050505081565b6008546040516321a0be0360e11b8152600481018390526060916001600160a01b0316906343417c069060240160006040518083038186803b15801561093b57600080fd5b505afa15801561094f573d6000803e3d6000fd5b505050506040513d6000823e601f3d908101601f191682016040526108629190810190612565565b6006546001600160a01b031633146109a15760405162461bcd60e51b81526004016106bd9061289d565b600680546001600160a01b0319166001600160a01b0392909216919091179055565b6001600160a01b0385163314806109df57506109df8533610511565b610a465760405162461bcd60e51b815260206004820152603260248201527f455243313135353a207472616e736665722063616c6c6572206973206e6f74206044820152711bdddb995c881b9bdc88185c1c1c9bdd995960721b60648201526084016106bd565b610a5385858585856116cb565b5050505050565b60085460405163105b2ac360e21b8152600481018490526000916001600160a01b03169063416cab0c9060240160206040518083038186803b158015610a9f57600080fd5b505afa158015610ab3573d6000803e3d6000fd5b505050506040513d601f19601f82011682018060405250810190610ad791906125fb565b6008549091506001600160a01b0316636ad0a5ee82336040516001600160e01b031960e085901b16815260048101929092526001600160a01b0316602482015260440160206040518083038186803b158015610b3257600080fd5b505afa158015610b46573d6000803e3d6000fd5b505050506040513d601f19601f82011682018060405250810190610b6a919061249c565b610b865760405162461bcd60e51b81526004016106bd906128d4565b60008381526003602090815260408083206001600160a01b03881680855260029091018352928190208590558051868152918201929092529081018390523360608201527f177084a34b04a8e9e384feae8c2fa4ac26b3f4b24a18880900f596fac084755890608001610776565b60608151835114610c595760405162461bcd60e51b815260206004820152602960248201527f455243313135353a206163636f756e747320616e6420696473206c656e677468604482015268040dad2e6dac2e8c6d60bb1b60648201526084016106bd565b6000835167ffffffffffffffff811115610c8357634e487b7160e01b600052604160045260246000fd5b604051908082528060200260200182016040528015610cac578160200160208202803683370190505b50905060005b8451811015610d4e57610d13858281518110610cde57634e487b7160e01b600052603260045260246000fd5b6020026020010151858381518110610d0657634e487b7160e01b600052603260045260246000fd5b6020026020010151610784565b828281518110610d3357634e487b7160e01b600052603260045260246000fd5b6020908102919091010152610d4781612a4a565b9050610cb2565b509392505050565b60008281526003602081815260408084206001600160a01b038881168652930190915280832054600854915163105b2ac360e21b815260048101879052909392919091169063416cab0c9060240160206040518083038186803b158015610dbc57600080fd5b505afa158015610dd0573d6000803e3d6000fd5b505050506040513d601f19601f82011682018060405250810190610df491906125fb565b6008549091506001600160a01b0316636ad0a5ee82336040516001600160e01b031960e085901b16815260048101929092526001600160a01b0316602482015260440160206040518083038186803b158015610e4f57600080fd5b505afa158015610e63573d6000803e3d6000fd5b505050506040513d601f19601f82011682018060405250810190610e87919061249c565b610ea35760405162461bcd60e51b81526004016106bd906128d4565b60008211610ee15760405162461bcd60e51b815260206004820152600b60248201526a6572722d62616c616e636560a81b60448201526064016106bd565b60008481526003602081815260408084206001600160a01b038a1685529092019052812055610f118584846118c4565b7f04751620a1532cb5f45ff525275245b0dc69fc2e5acdf0c8154636daabfcce2f84868486335b604080519586526001600160a01b0394851660208701528501929092528216606084015216608082015260a00160405180910390a15050505050565b60048054610875906129e2565b610f8c338383611927565b5050565b6006546001600160a01b03163314610fba5760405162461bcd60e51b81526004016106bd9061289d565b600880546001600160a01b0319166001600160a01b0392909216919091179055565b6000828152600360205260409020548061102a5760405162461bcd60e51b815260206004820152600f60248201526e195c9c8b5b9bdd0b585b1b1bddd959608a1b60448201526064016106bd565b803414156110665760405162461bcd60e51b81526020600482015260096024820152686572722d76616c756560b81b60448201526064016106bd565b6000612710600754836110799190612980565b6110839190612960565b905061108f818361299f565b600085815260036020526040812060010180549091906110b0908490612948565b90915550506006546110cb906001600160a01b0316826115ad565b6110e78385600160405180602001604052806000815250611a08565b7f29db119c05c194379be903dc7e60b630ed6aea31a542f49193b142f61b2629f1846000848633610748565b6006546001600160a01b0316331461113d5760405162461bcd60e51b81526004016106bd9061289d565b6103e881111561119b5760405162461bcd60e51b815260206004820152602360248201527f6d757374206265206c657373207468616e203130303020626173697320706f696044820152626e747360e81b60648201526084016106bd565b600755565b60008281526003602090815260408083206001600160a01b0387168452600201909152902054806112055760405162461bcd60e51b815260206004820152600f60248201526e195c9c8b5b9bdd0b585b1b1bddd959608a1b60448201526064016106bd565b806001600160a01b0385166370a08231336040516001600160e01b031960e084901b1681526001600160a01b03909116600482015260240160206040518083038186803b15801561125557600080fd5b505afa158015611269573d6000803e3d6000fd5b505050506040513d601f19601f8201168201806040525081019061128d91906125fb565b10156112c75760405162461bcd60e51b81526020600482015260096024820152686572722d76616c756560b81b60448201526064016106bd565b6000612710600754836112da9190612980565b6112e49190612960565b90506112f0818361299f565b60008581526003602081815260408084206001600160a01b038b168552909201905281208054909190611324908490612948565b90915550611341905085336006546001600160a01b031684611b12565b611356853330611351858761299f565b611b12565b6113728385600160405180602001604052806000815250611a08565b7f29db119c05c194379be903dc7e60b630ed6aea31a542f49193b142f61b2629f18486848633610f38565b6001600160a01b0385163314806113b957506113b98533610511565b6114175760405162461bcd60e51b815260206004820152602960248201527f455243313135353a2063616c6c6572206973206e6f74206f776e6572206e6f7260448201526808185c1c1c9bdd995960ba1b60648201526084016106bd565b610a538585858585611b50565b60085460405163105b2ac360e21b8152600481018490526000916001600160a01b03169063416cab0c9060240160206040518083038186803b15801561146957600080fd5b505afa15801561147d573d6000803e3d6000fd5b505050506040513d601f19601f820116820180604052508101906114a191906125fb565b6008549091506001600160a01b0316636ad0a5ee82336040516001600160e01b031960e085901b16815260048101929092526001600160a01b0316602482015260440160206040518083038186803b1580156114fc57600080fd5b505afa158015611510573d6000803e3d6000fd5b505050506040513d601f19601f82011682018060405250810190611534919061249c565b6115505760405162461bcd60e51b81526004016106bd906128d4565b600083815260036020908152604080832085905580518681529182019290925280820184905233606082015290517f177084a34b04a8e9e384feae8c2fa4ac26b3f4b24a18880900f596fac08475589181900360800190a1505050565b804710156115fd5760405162461bcd60e51b815260206004820152601d60248201527f416464726573733a20696e73756666696369656e742062616c616e636500000060448201526064016106bd565b6000826001600160a01b03168260405160006040518083038185875af1925050503d806000811461164a576040519150601f19603f3d011682016040523d82523d6000602084013e61164f565b606091505b50509050806116c65760405162461bcd60e51b815260206004820152603a60248201527f416464726573733a20756e61626c6520746f2073656e642076616c75652c207260448201527f6563697069656e74206d6179206861766520726576657274656400000000000060648201526084016106bd565b505050565b815183511461172d5760405162461bcd60e51b815260206004820152602860248201527f455243313135353a2069647320616e6420616d6f756e7473206c656e677468206044820152670dad2e6dac2e8c6d60c31b60648201526084016106bd565b6001600160a01b0384166117535760405162461bcd60e51b81526004016106bd9061280e565b3360005b845181101561185657600085828151811061178257634e487b7160e01b600052603260045260246000fd5b6020026020010151905060008583815181106117ae57634e487b7160e01b600052603260045260246000fd5b602090810291909101810151600084815280835260408082206001600160a01b038e1683529093529190912054909150818110156117fe5760405162461bcd60e51b81526004016106bd90612853565b6000838152602081815260408083206001600160a01b038e8116855292528083208585039055908b1682528120805484929061183b908490612948565b925050819055505050508061184f90612a4a565b9050611757565b50846001600160a01b0316866001600160a01b0316826001600160a01b03167f4a39dc06d4c0dbc64b70af90fd698a233a518aa5d07e595d983b8c0526c8f7fb87876040516118a6929190612785565b60405180910390a46118bc818787878787611c6d565b505050505050565b6040516001600160a01b0383166024820152604481018290526116c690849063a9059cbb60e01b906064015b60408051601f198184030181529190526020810180516001600160e01b03166001600160e01b031990931692909217909152611dd8565b816001600160a01b0316836001600160a01b0316141561199b5760405162461bcd60e51b815260206004820152602960248201527f455243313135353a2073657474696e6720617070726f76616c20737461747573604482015268103337b91039b2b63360b91b60648201526084016106bd565b6001600160a01b03838116600081815260016020908152604080832094871680845294825291829020805460ff191686151590811790915591519182527f17307eab39ab6107e8899845ad3d59bd9653f200f220920489ca2b5937696c31910160405180910390a3505050565b6001600160a01b038416611a685760405162461bcd60e51b815260206004820152602160248201527f455243313135353a206d696e7420746f20746865207a65726f206164647265736044820152607360f81b60648201526084016106bd565b33611a8281600087611a7988611eaa565b610a5388611eaa565b6000848152602081815260408083206001600160a01b038916845290915281208054859290611ab2908490612948565b909155505060408051858152602081018590526001600160a01b0380881692600092918516917fc3d58168c5ae7397731d063d5bbf3d657854427343f4c083240f7aacaa2d0f62910160405180910390a4610a5381600087878787611f03565b6040516001600160a01b0380851660248301528316604482015260648101829052611b4a9085906323b872dd60e01b906084016118f0565b50505050565b6001600160a01b038416611b765760405162461bcd60e51b81526004016106bd9061280e565b33611b86818787611a7988611eaa565b6000848152602081815260408083206001600160a01b038a16845290915290205483811015611bc75760405162461bcd60e51b81526004016106bd90612853565b6000858152602081815260408083206001600160a01b038b8116855292528083208785039055908816825281208054869290611c04908490612948565b909155505060408051868152602081018690526001600160a01b03808916928a821692918616917fc3d58168c5ae7397731d063d5bbf3d657854427343f4c083240f7aacaa2d0f62910160405180910390a4611c64828888888888611f03565b50505050505050565b6001600160a01b0384163b156118bc5760405163bc197c8160e01b81526001600160a01b0385169063bc197c8190611cb190899089908890889088906004016126da565b602060405180830381600087803b158015611ccb57600080fd5b505af1925050508015611cfb575060408051601f3d908101601f19168201909252611cf8918101906124d4565b60015b611da857611d07612a91565b806308c379a01415611d415750611d1c612aa9565b80611d275750611d43565b8060405162461bcd60e51b81526004016106bd91906127b3565b505b60405162461bcd60e51b815260206004820152603460248201527f455243313135353a207472616e7366657220746f206e6f6e20455243313135356044820152732932b1b2b4bb32b91034b6b83632b6b2b73a32b960611b60648201526084016106bd565b6001600160e01b0319811663bc197c8160e01b14611c645760405162461bcd60e51b81526004016106bd906127c6565b6000611e2d826040518060400160405280602081526020017f5361666545524332303a206c6f772d6c6576656c2063616c6c206661696c6564815250856001600160a01b0316611fcd9092919063ffffffff16565b8051909150156116c65780806020019051810190611e4b919061249c565b6116c65760405162461bcd60e51b815260206004820152602a60248201527f5361666545524332303a204552433230206f7065726174696f6e20646964206e6044820152691bdd081cdd58d8d9595960b21b60648201526084016106bd565b60408051600180825281830190925260609160009190602080830190803683370190505090508281600081518110611ef257634e487b7160e01b600052603260045260246000fd5b602090810291909101015292915050565b6001600160a01b0384163b156118bc5760405163f23a6e6160e01b81526001600160a01b0385169063f23a6e6190611f479089908990889088908890600401612738565b602060405180830381600087803b158015611f6157600080fd5b505af1925050508015611f91575060408051601f3d908101601f19168201909252611f8e918101906124d4565b60015b611f9d57611d07612a91565b6001600160e01b0319811663f23a6e6160e01b14611c645760405162461bcd60e51b81526004016106bd906127c6565b6060611fdc8484600085611fe6565b90505b9392505050565b6060824710156120475760405162461bcd60e51b815260206004820152602660248201527f416464726573733a20696e73756666696369656e742062616c616e636520666f6044820152651c8818d85b1b60d21b60648201526084016106bd565b843b6120955760405162461bcd60e51b815260206004820152601d60248201527f416464726573733a2063616c6c20746f206e6f6e2d636f6e747261637400000060448201526064016106bd565b600080866001600160a01b031685876040516120b191906126be565b60006040518083038185875af1925050503d80600081146120ee576040519150601f19603f3d011682016040523d82523d6000602084013e6120f3565b606091505b509150915061210382828661210e565b979650505050505050565b6060831561211d575081611fdf565b82511561212d5782518084602001fd5b8160405162461bcd60e51b81526004016106bd91906127b3565b600082601f830112612157578081fd5b81356020612164826128fc565b6040516121718282612a1d565b8381528281019150858301600585901b87018401881015612190578586fd5b855b858110156121ae57813584529284019290840190600101612192565b5090979650505050505050565b600082601f8301126121cb578081fd5b81356121d681612920565b6040516121e38282612a1d565b8281528560208487010111156121f7578384fd5b82602086016020830137918201602001929092529392505050565b600060208284031215612223578081fd5b8135611fdf81612b33565b60008060408385031215612240578081fd5b823561224b81612b33565b9150602083013561225b81612b33565b809150509250929050565b600080600080600060a0868803121561227d578081fd5b853561228881612b33565b9450602086013561229881612b33565b9350604086013567ffffffffffffffff808211156122b4578283fd5b6122c089838a01612147565b945060608801359150808211156122d5578283fd5b6122e189838a01612147565b935060808801359150808211156122f6578283fd5b50612303888289016121bb565b9150509295509295909350565b600080600080600060a08688031215612327578081fd5b853561233281612b33565b9450602086013561234281612b33565b93506040860135925060608601359150608086013567ffffffffffffffff81111561236b578182fd5b612303888289016121bb565b60008060408385031215612389578182fd5b823561239481612b33565b9150602083013561225b81612b4b565b600080604083850312156123b6578182fd5b82356123c181612b33565b946020939093013593505050565b600080604083850312156123e1578182fd5b823567ffffffffffffffff808211156123f8578384fd5b818501915085601f83011261240b578384fd5b81356020612418826128fc565b6040516124258282612a1d565b8381528281019150858301600585901b870184018b1015612444578889fd5b8896505b8487101561246f57803561245b81612b33565b835260019690960195918301918301612448565b5096505086013592505080821115612485578283fd5b5061249285828601612147565b9150509250929050565b6000602082840312156124ad578081fd5b8151611fdf81612b4b565b6000602082840312156124c9578081fd5b8135611fdf81612b59565b6000602082840312156124e5578081fd5b8151611fdf81612b59565b600080600060608486031215612504578081fd5b833561250f81612b33565b925060208401359150604084013561252681612b33565b809150509250925092565b600080600060608486031215612545578081fd5b833561255081612b33565b95602085013595506040909401359392505050565b600060208284031215612576578081fd5b815167ffffffffffffffff81111561258c578182fd5b8201601f8101841361259c578182fd5b80516125a781612920565b6040516125b48282612a1d565b8281528660208486010111156125c8578485fd5b6125d98360208301602087016129b6565b9695505050505050565b6000602082840312156125f4578081fd5b5035919050565b60006020828403121561260c578081fd5b5051919050565b60008060408385031215612625578182fd5b82359150602083013561225b81612b33565b60008060408385031215612649578182fd5b50508035926020909101359150565b6000815180845260208085019450808401835b838110156126875781518752958201959082019060010161266b565b509495945050505050565b600081518084526126aa8160208601602086016129b6565b601f01601f19169290920160200192915050565b600082516126d08184602087016129b6565b9190910192915050565b6001600160a01b0386811682528516602082015260a06040820181905260009061270690830186612658565b82810360608401526127188186612658565b9050828103608084015261272c8185612692565b98975050505050505050565b6001600160a01b03868116825285166020820152604081018490526060810183905260a06080820181905260009061210390830184612692565b602081526000611fdf6020830184612658565b6040815260006127986040830185612658565b82810360208401526127aa8185612658565b95945050505050565b602081526000611fdf6020830184612692565b60208082526028908201527f455243313135353a204552433131353552656365697665722072656a656374656040820152676420746f6b656e7360c01b606082015260800190565b60208082526025908201527f455243313135353a207472616e7366657220746f20746865207a65726f206164604082015264647265737360d81b606082015260800190565b6020808252602a908201527f455243313135353a20696e73756666696369656e742062616c616e636520666f60408201526939103a3930b739b332b960b11b606082015260800190565b60208082526017908201527f63616c6c6572206973206e6f7420746865206f776e6572000000000000000000604082015260600190565b6020808252600e908201526d32b93916b737ba16b6b2b6b132b960911b604082015260600190565b600067ffffffffffffffff82111561291657612916612a7b565b5060051b60200190565b600067ffffffffffffffff82111561293a5761293a612a7b565b50601f01601f191660200190565b6000821982111561295b5761295b612a65565b500190565b60008261297b57634e487b7160e01b81526012600452602481fd5b500490565b600081600019048311821515161561299a5761299a612a65565b500290565b6000828210156129b1576129b1612a65565b500390565b60005b838110156129d15781810151838201526020016129b9565b83811115611b4a5750506000910152565b600181811c908216806129f657607f821691505b60208210811415612a1757634e487b7160e01b600052602260045260246000fd5b50919050565b601f8201601f1916810167ffffffffffffffff81118282101715612a4357612a43612a7b565b6040525050565b6000600019821415612a5e57612a5e612a65565b5060010190565b634e487b7160e01b600052601160045260246000fd5b634e487b7160e01b600052604160045260246000fd5b600060033d1115612aa657600481823e5160e01c5b90565b600060443d1015612ab75790565b6040516003193d81016004833e81513d67ffffffffffffffff8160248401118184111715612ae757505050505090565b8285019150815181811115612aff5750505050505090565b843d8701016020828501011115612b195750505050505090565b612b2860208286010187612a1d565b509095945050505050565b6001600160a01b0381168114612b4857600080fd5b50565b8015158114612b4857600080fd5b6001600160e01b031981168114612b4857600080fdfea26469706673582212208c8cf00e34c89356c0b9efa96fdb1bb98256446ede5c5fd6a62770d614a9dbf064736f6c63430008040033",
  "linkReferences": {},
  "deployedLinkReferences": {}
}