{
  "_format": "hh-sol-artifact-1",
  "contractName": "SoftwareLicense",
  "sourceName": "contracts/ERC-1155/SoftwareLicense.sol",
  "abi": [
    {
      "inputs": [
        {
          "internalType": "address",
          "name": "_valistRegistry",
          "type": "address"
        },
        {
          "internalType": "address",
          "name": "_trustedForwarder",
          "type": "address"
        }
      ],
      "stateMutability": "nonpayable",
      "type": "constructor"
    },
    {
      "anonymous": false,
      "inputs": [
        {
          "indexed": true,
          "internalType": "address",
          "name": "account",
          "type": "address"
        },
        {
          "indexed": true,
          "internalType": "address",
          "name": "operator",
          "type": "address"
        },
        {
          "indexed": false,
          "internalType": "bool",
          "name": "approved",
          "type": "bool"
        }
      ],
      "name": "ApprovalForAll",
      "type": "event"
    },
    {
      "anonymous": false,
      "inputs": [
        {
          "indexed": false,
          "internalType": "string",
          "name": "_teamName",
          "type": "string"
        },
        {
          "indexed": false,
          "internalType": "string",
          "name": "_projectName",
          "type": "string"
        },
        {
          "indexed": false,
          "internalType": "string",
          "name": "_licenseName",
          "type": "string"
        },
        {
          "indexed": false,
          "internalType": "uint256",
          "name": "_mintPrice",
          "type": "uint256"
        },
        {
          "indexed": false,
          "internalType": "uint256",
          "name": "_licenseID",
          "type": "uint256"
        }
      ],
      "name": "LicenseCreated",
      "type": "event"
    },
    {
      "anonymous": false,
      "inputs": [
        {
          "indexed": false,
          "internalType": "string",
          "name": "_teamName",
          "type": "string"
        },
        {
          "indexed": false,
          "internalType": "string",
          "name": "_projectName",
          "type": "string"
        },
        {
          "indexed": false,
          "internalType": "string",
          "name": "_licenseName",
          "type": "string"
        },
        {
          "indexed": false,
          "internalType": "address",
          "name": "_recipient",
          "type": "address"
        },
        {
          "indexed": false,
          "internalType": "uint256",
          "name": "_licenseID",
          "type": "uint256"
        }
      ],
      "name": "LicenseMinted",
      "type": "event"
    },
    {
      "anonymous": false,
      "inputs": [
        {
          "indexed": true,
          "internalType": "address",
          "name": "operator",
          "type": "address"
        },
        {
          "indexed": true,
          "internalType": "address",
          "name": "from",
          "type": "address"
        },
        {
          "indexed": true,
          "internalType": "address",
          "name": "to",
          "type": "address"
        },
        {
          "indexed": false,
          "internalType": "uint256[]",
          "name": "ids",
          "type": "uint256[]"
        },
        {
          "indexed": false,
          "internalType": "uint256[]",
          "name": "values",
          "type": "uint256[]"
        }
      ],
      "name": "TransferBatch",
      "type": "event"
    },
    {
      "anonymous": false,
      "inputs": [
        {
          "indexed": true,
          "internalType": "address",
          "name": "operator",
          "type": "address"
        },
        {
          "indexed": true,
          "internalType": "address",
          "name": "from",
          "type": "address"
        },
        {
          "indexed": true,
          "internalType": "address",
          "name": "to",
          "type": "address"
        },
        {
          "indexed": false,
          "internalType": "uint256",
          "name": "id",
          "type": "uint256"
        },
        {
          "indexed": false,
          "internalType": "uint256",
          "name": "value",
          "type": "uint256"
        }
      ],
      "name": "TransferSingle",
      "type": "event"
    },
    {
      "anonymous": false,
      "inputs": [
        {
          "indexed": false,
          "internalType": "string",
          "name": "value",
          "type": "string"
        },
        {
          "indexed": true,
          "internalType": "uint256",
          "name": "id",
          "type": "uint256"
        }
      ],
      "name": "URI",
      "type": "event"
    },
    {
      "inputs": [
        {
          "internalType": "address",
          "name": "account",
          "type": "address"
        },
        {
          "internalType": "uint256",
          "name": "id",
          "type": "uint256"
        }
      ],
      "name": "balanceOf",
      "outputs": [
        {
          "internalType": "uint256",
          "name": "",
          "type": "uint256"
        }
      ],
      "stateMutability": "view",
      "type": "function"
    },
    {
      "inputs": [
        {
          "internalType": "address[]",
          "name": "accounts",
          "type": "address[]"
        },
        {
          "internalType": "uint256[]",
          "name": "ids",
          "type": "uint256[]"
        }
      ],
      "name": "balanceOfBatch",
      "outputs": [
        {
          "internalType": "uint256[]",
          "name": "",
          "type": "uint256[]"
        }
      ],
      "stateMutability": "view",
      "type": "function"
    },
    {
      "inputs": [
        {
          "internalType": "string",
          "name": "_teamName",
          "type": "string"
        },
        {
          "internalType": "string",
          "name": "_projectName",
          "type": "string"
        },
        {
          "internalType": "string",
          "name": "_licenseName",
          "type": "string"
        },
        {
          "internalType": "string",
          "name": "_metaURI",
          "type": "string"
        },
        {
          "internalType": "uint256",
          "name": "_mintPrice",
          "type": "uint256"
        }
      ],
      "name": "createLicense",
      "outputs": [],
      "stateMutability": "nonpayable",
      "type": "function"
    },
    {
      "inputs": [
        {
          "internalType": "uint256",
          "name": "_projectID",
          "type": "uint256"
        },
        {
          "internalType": "string",
          "name": "_licenseName",
          "type": "string"
        }
      ],
      "name": "getLicenseID",
      "outputs": [
        {
          "internalType": "uint256",
          "name": "",
          "type": "uint256"
        }
      ],
      "stateMutability": "view",
      "type": "function"
    },
    {
      "inputs": [
        {
          "internalType": "uint256",
          "name": "_projectID",
          "type": "uint256"
        },
        {
          "internalType": "uint256",
          "name": "_page",
          "type": "uint256"
        },
        {
          "internalType": "uint256",
          "name": "_size",
          "type": "uint256"
        }
      ],
      "name": "getLicensesByProjectID",
      "outputs": [
        {
          "internalType": "uint256[]",
          "name": "",
          "type": "uint256[]"
        }
      ],
      "stateMutability": "view",
      "type": "function"
    },
    {
      "inputs": [
        {
          "internalType": "string",
          "name": "_teamName",
          "type": "string"
        },
        {
          "internalType": "string",
          "name": "_projectName",
          "type": "string"
        },
        {
          "internalType": "string",
          "name": "_releaseName",
          "type": "string"
        }
      ],
      "name": "getReleaseMetaURI",
      "outputs": [
        {
          "internalType": "string",
          "name": "",
          "type": "string"
        }
      ],
      "stateMutability": "view",
      "type": "function"
    },
    {
      "inputs": [
        {
          "internalType": "address",
          "name": "account",
          "type": "address"
        },
        {
          "internalType": "address",
          "name": "operator",
          "type": "address"
        }
      ],
      "name": "isApprovedForAll",
      "outputs": [
        {
          "internalType": "bool",
          "name": "",
          "type": "bool"
        }
      ],
      "stateMutability": "view",
      "type": "function"
    },
    {
      "inputs": [
        {
          "internalType": "address",
          "name": "forwarder",
          "type": "address"
        }
      ],
      "name": "isTrustedForwarder",
      "outputs": [
        {
          "internalType": "bool",
          "name": "",
          "type": "bool"
        }
      ],
      "stateMutability": "view",
      "type": "function"
    },
    {
      "inputs": [
        {
          "internalType": "uint256",
          "name": "",
          "type": "uint256"
        }
      ],
      "name": "metaByID",
      "outputs": [
        {
          "internalType": "string",
          "name": "",
          "type": "string"
        }
      ],
      "stateMutability": "view",
      "type": "function"
    },
    {
      "inputs": [
        {
          "internalType": "string",
          "name": "_teamName",
          "type": "string"
        },
        {
          "internalType": "string",
          "name": "_projectName",
          "type": "string"
        },
        {
          "internalType": "string",
          "name": "_licenseName",
          "type": "string"
        },
        {
          "internalType": "address",
          "name": "_recipient",
          "type": "address"
        }
      ],
      "name": "mintLicense",
      "outputs": [],
      "stateMutability": "payable",
      "type": "function"
    },
    {
      "inputs": [],
      "name": "name",
      "outputs": [
        {
          "internalType": "string",
          "name": "",
          "type": "string"
        }
      ],
      "stateMutability": "view",
      "type": "function"
    },
    {
      "inputs": [
        {
          "internalType": "uint256",
          "name": "",
          "type": "uint256"
        }
      ],
      "name": "priceByID",
      "outputs": [
        {
          "internalType": "uint256",
          "name": "",
          "type": "uint256"
        }
      ],
      "stateMutability": "view",
      "type": "function"
    },
    {
      "inputs": [
        {
          "internalType": "address",
          "name": "from",
          "type": "address"
        },
        {
          "internalType": "address",
          "name": "to",
          "type": "address"
        },
        {
          "internalType": "uint256[]",
          "name": "ids",
          "type": "uint256[]"
        },
        {
          "internalType": "uint256[]",
          "name": "amounts",
          "type": "uint256[]"
        },
        {
          "internalType": "bytes",
          "name": "data",
          "type": "bytes"
        }
      ],
      "name": "safeBatchTransferFrom",
      "outputs": [],
      "stateMutability": "nonpayable",
      "type": "function"
    },
    {
      "inputs": [
        {
          "internalType": "address",
          "name": "from",
          "type": "address"
        },
        {
          "internalType": "address",
          "name": "to",
          "type": "address"
        },
        {
          "internalType": "uint256",
          "name": "id",
          "type": "uint256"
        },
        {
          "internalType": "uint256",
          "name": "amount",
          "type": "uint256"
        },
        {
          "internalType": "bytes",
          "name": "data",
          "type": "bytes"
        }
      ],
      "name": "safeTransferFrom",
      "outputs": [],
      "stateMutability": "nonpayable",
      "type": "function"
    },
    {
      "inputs": [
        {
          "internalType": "address",
          "name": "operator",
          "type": "address"
        },
        {
          "internalType": "bool",
          "name": "approved",
          "type": "bool"
        }
      ],
      "name": "setApprovalForAll",
      "outputs": [],
      "stateMutability": "nonpayable",
      "type": "function"
    },
    {
      "inputs": [
        {
          "internalType": "bytes4",
          "name": "interfaceId",
          "type": "bytes4"
        }
      ],
      "name": "supportsInterface",
      "outputs": [
        {
          "internalType": "bool",
          "name": "",
          "type": "bool"
        }
      ],
      "stateMutability": "view",
      "type": "function"
    },
    {
      "inputs": [],
      "name": "symbol",
      "outputs": [
        {
          "internalType": "string",
          "name": "",
          "type": "string"
        }
      ],
      "stateMutability": "view",
      "type": "function"
    },
    {
      "inputs": [
        {
          "internalType": "uint256",
          "name": "id",
          "type": "uint256"
        }
      ],
      "name": "uri",
      "outputs": [
        {
          "internalType": "string",
          "name": "",
          "type": "string"
        }
      ],
      "stateMutability": "view",
      "type": "function"
    },
    {
      "inputs": [],
      "name": "versionRecipient",
      "outputs": [
        {
          "internalType": "string",
          "name": "",
          "type": "string"
        }
      ],
      "stateMutability": "view",
      "type": "function"
    }
  ],
  "bytecode": "0x60c060405260056080819052640322e322e360dc1b60a0908152620000269190816200012f565b50604080518082019091526007808252664c4943454e534560c81b602090920191825262000057916006916200012f565b506040805180820190915260108082526f536f667477617265204c6963656e736560801b602090920191825262000091916007916200012f565b503480156200009f57600080fd5b5060405162002c6a38038062002c6a833981016040819052620000c291620001f2565b6040805160208101909152600081528190620000de8162000116565b50600380546001600160a01b039283166001600160a01b03199182161790915560048054949092169316929092179091555062000266565b80516200012b9060029060208401906200012f565b5050565b8280546200013d9062000229565b90600052602060002090601f016020900481019282620001615760008555620001ac565b82601f106200017c57805160ff1916838001178555620001ac565b82800160010185558215620001ac579182015b82811115620001ac5782518255916020019190600101906200018f565b50620001ba929150620001be565b5090565b5b80821115620001ba5760008155600101620001bf565b80516001600160a01b0381168114620001ed57600080fd5b919050565b6000806040838503121562000205578182fd5b6200021083620001d5565b91506200022060208401620001d5565b90509250929050565b600181811c908216806200023e57607f821691505b602082108114156200026057634e487b7160e01b600052602260045260246000fd5b50919050565b6129f480620002766000396000f3fe6080604052600436106101135760003560e01c8063561844ac116100a0578063a22cb46511610064578063a22cb465146102f8578063dab344f814610318578063e985e9c514610338578063f242432a14610381578063fc84f13f146103a157600080fd5b8063561844ac14610261578063572b6c051461028157806367e9a744146102b057806395d89b41146102c35780639e97c317146102d857600080fd5b80632eb2c2d6116100e75780632eb2c2d6146101bd57806343417c06146101df578063486ff0cd146101ff578063490693bf146102145780634e1273f41461023457600080fd5b8062fdd58e1461011857806301ffc9a71461014b57806306fdde031461017b5780630e89341c1461019d575b600080fd5b34801561012457600080fd5b50610138610133366004611ee7565b6103ce565b6040519081526020015b60405180910390f35b34801561015757600080fd5b5061016b610166366004611ffa565b610468565b6040519015158152602001610142565b34801561018757600080fd5b506101906104b8565b604051610142919061255b565b3480156101a957600080fd5b506101906101b8366004612277565b610546565b3480156101c957600080fd5b506101dd6101d8366004611dab565b6105ad565b005b3480156101eb57600080fd5b506101906101fa366004612277565b610656565b34801561020b57600080fd5b5061019061066f565b34801561022057600080fd5b506101dd61022f3660046121c8565b61067c565b34801561024057600080fd5b5061025461024f366004611f12565b610b2d565b6040516101429190612523565b34801561026d57600080fd5b5061025461027c3660046122e1565b610c8e565b34801561028d57600080fd5b5061016b61029c366004611d3b565b6003546001600160a01b0391821691161490565b6101dd6102be366004612132565b610db3565b3480156102cf57600080fd5b5061019061113e565b3480156102e457600080fd5b506101906102f33660046120af565b61114b565b34801561030457600080fd5b506101dd610313366004611eba565b61122f565b34801561032457600080fd5b506101386103333660046122a7565b611245565b34801561034457600080fd5b5061016b610353366004611d73565b6001600160a01b03918216600090815260016020908152604080832093909416825291909152205460ff1690565b34801561038d57600080fd5b506101dd61039c366004611e54565b611283565b3480156103ad57600080fd5b506101386103bc366004612277565b60086020526000908152604090205481565b60006001600160a01b03831661043f5760405162461bcd60e51b815260206004820152602b60248201527f455243313135353a2062616c616e636520717565727920666f7220746865207a60448201526a65726f206164647265737360a81b60648201526084015b60405180910390fd5b506000818152602081815260408083206001600160a01b03861684529091529020545b92915050565b60006001600160e01b03198216636cdb3d1360e11b148061049957506001600160e01b031982166303a24d0760e21b145b8061046257506301ffc9a760e01b6001600160e01b0319831614610462565b600780546104c590612834565b80601f01602080910402602001604051908101604052809291908181526020018280546104f190612834565b801561053e5780601f106105135761010080835404028352916020019161053e565b820191906000526020600020905b81548152906001019060200180831161052157829003601f168201915b505050505081565b604080518082018252601981527868747470733a2f2f676174657761792e76616c6973742e696f60381b602080830191909152600084815260098252839020925160609361059692849201612439565b604051602081830303815290604052915050919050565b6105b561131c565b6001600160a01b0316856001600160a01b031614806105db57506105db8561035361131c565b6106425760405162461bcd60e51b815260206004820152603260248201527f455243313135353a207472616e736665722063616c6c6572206973206e6f74206044820152711bdddb995c881b9bdc88185c1c1c9bdd995960721b6064820152608401610436565b61064f858585858561134f565b5050505050565b600960205260009081526040902080546104c590612834565b600580546104c590612834565b60008251116106be5760405162461bcd60e51b815260206004820152600e60248201526d6572722d656d7074792d6d65746160901b6044820152606401610436565b60008551116106df5760405162461bcd60e51b815260040161043690612723565b60008451116107005760405162461bcd60e51b815260040161043690612723565b60008351116107215760405162461bcd60e51b815260040161043690612723565b6004805460405163f8b2491560e01b81526000926001600160a01b039092169163f8b2491591610753918a910161255b565b60206040518083038186803b15801561076b57600080fd5b505afa15801561077f573d6000803e3d6000fd5b505050506040513d601f19601f820116820180604052508101906107a3919061228f565b60048054604051632c7b800360e11b81529293506000926001600160a01b03909116916358f70006916107da9186918b910161274b565b60206040518083038186803b1580156107f257600080fd5b505afa158015610806573d6000803e3d6000fd5b505050506040513d601f19601f8201168201806040525081019061082a919061228f565b905060006108388287611245565b6004549091506001600160a01b031663017382818461085561131c565b6040516001600160e01b031960e085901b16815260048101929092526001600160a01b0316602482015260440160206040518083038186803b15801561089a57600080fd5b505afa1580156108ae573d6000803e3d6000fd5b505050506040513d601f19601f820116820180604052508101906108d29190611fde565b6109105760405162461bcd60e51b815260206004820152600f60248201526e32b93916ba32b0b696b6b2b6b132b960891b6044820152606401610436565b600480546040516321a0be0360e11b81529182018490526000916001600160a01b03909116906343417c069060240160006040518083038186803b15801561095757600080fd5b505afa15801561096b573d6000803e3d6000fd5b505050506040513d6000823e601f3d908101601f191682016040526109939190810190612032565b51116109d65760405162461bcd60e51b8152602060048201526012602482015271195c9c8b5c1c9bda8b5b9bdd0b595e1a5cdd60721b6044820152606401610436565b6004805460405163d93379d160e01b81529182018590526000916001600160a01b039091169063d93379d19060240160206040518083038186803b158015610a1d57600080fd5b505afa158015610a31573d6000803e3d6000fd5b505050506040513d601f19601f82011682018060405250810190610a559190611d57565b6001600160a01b03161415610aa15760405162461bcd60e51b81526020600482015260126024820152716572722d6e6f2d62656e656669636961727960701b6044820152606401610436565b6000818152600860209081526040808320879055600982529091208651610aca92880190611bd7565b506000828152600a60205260409020610ae39082611553565b507f0e5932237fa54008b385602dec56e11f77845565e34920db3f9a525b982a31aa8888888785604051610b1b9594939291906125fe565b60405180910390a15050505050505050565b60608151835114610b925760405162461bcd60e51b815260206004820152602960248201527f455243313135353a206163636f756e747320616e6420696473206c656e677468604482015268040dad2e6dac2e8c6d60bb1b6064820152608401610436565b600083516001600160401b03811115610bbb57634e487b7160e01b600052604160045260246000fd5b604051908082528060200260200182016040528015610be4578160200160208202803683370190505b50905060005b8451811015610c8657610c4b858281518110610c1657634e487b7160e01b600052603260045260246000fd5b6020026020010151858381518110610c3e57634e487b7160e01b600052603260045260246000fd5b60200260200101516103ce565b828281518110610c6b57634e487b7160e01b600052603260045260246000fd5b6020908102919091010152610c7f8161289b565b9050610bea565b509392505050565b60606000610c9c83856127ce565b90506000610caa84836127b6565b6000878152600a60205260409020909150610cc490611566565b811115610ce5576000868152600a60205260409020610ce290611566565b90505b6000610cf183836127ed565b6001600160401b03811115610d1657634e487b7160e01b600052604160045260246000fd5b604051908082528060200260200182016040528015610d3f578160200160208202803683370190505b509050825b82811015610da8576000888152600a60205260409020610d649082611570565b82610d6f86846127ed565b81518110610d8d57634e487b7160e01b600052603260045260246000fd5b6020908102919091010152610da18161289b565b9050610d44565b509695505050505050565b6004805460405163f8b2491560e01b81526000926001600160a01b039092169163f8b2491591610de59189910161255b565b60206040518083038186803b158015610dfd57600080fd5b505afa158015610e11573d6000803e3d6000fd5b505050506040513d601f19601f82011682018060405250810190610e35919061228f565b60048054604051632c7b800360e11b81529293506000926001600160a01b03909116916358f7000691610e6c9186918a910161274b565b60206040518083038186803b158015610e8457600080fd5b505afa158015610e98573d6000803e3d6000fd5b505050506040513d601f19601f82011682018060405250810190610ebc919061228f565b90506000610eca8286611245565b6004805460405163d93379d160e01b81529182018690529192506000916001600160a01b03169063d93379d19060240160206040518083038186803b158015610f1257600080fd5b505afa158015610f26573d6000803e3d6000fd5b505050506040513d601f19601f82011682018060405250810190610f4a9190611d57565b90506001600160a01b038116610f975760405162461bcd60e51b81526020600482015260126024820152716572722d6e6f2d62656e656669636961727960701b6044820152606401610436565b60008281526009602052604081208054610fb090612834565b905011610ff75760405162461bcd60e51b8152602060048201526015602482015274195c9c8b5b1a58d95b9cd94b5b9bdd0b595e1a5cdd605a1b6044820152606401610436565b6000828152600860205260409020543410156110445760405162461bcd60e51b815260206004820152600c60248201526b6572722d6d696e742d66656560a01b6044820152606401610436565b6000816001600160a01b03163460405160006040518083038185875af1925050503d8060008114611091576040519150601f19603f3d011682016040523d82523d6000602084013e611096565b606091505b50509050806110d85760405162461bcd60e51b815260206004820152600e60248201526d32b93916b9b2b73216b2ba3432b960911b6044820152606401610436565b6110f4868460016040518060200160405280600081525061157c565b7f107b11fb92e128aa01e9a8589d1442bb459293ec8589e6eb62f5074e52177d1a898989898760405161112b9594939291906125a7565b60405180910390a1505050505050505050565b600680546104c590612834565b604080518082018252601981527868747470733a2f2f676174657761792e76616c6973742e696f60381b6020820152600480549251639e97c31760e01b815260609383926001600160a01b0390911691639e97c317916111b1918a918a918a910161256e565b60006040518083038186803b1580156111c957600080fd5b505afa1580156111dd573d6000803e3d6000fd5b505050506040513d6000823e601f3d908101601f191682016040526112059190810190612032565b60405160200161121692919061240a565b6040516020818303038152906040529150509392505050565b61124161123a61131c565b8383611691565b5050565b6000826006838051906020012060405160200161126493929190612460565b60408051601f1981840301815291905280516020909101209392505050565b61128b61131c565b6001600160a01b0316856001600160a01b031614806112b157506112b18561035361131c565b61130f5760405162461bcd60e51b815260206004820152602960248201527f455243313135353a2063616c6c6572206973206e6f74206f776e6572206e6f7260448201526808185c1c1c9bdd995960ba1b6064820152608401610436565b61064f8585858585611772565b6003546000906001600160a01b031633141561133f575060131936013560601c90565b61134761189a565b905090565b90565b81518351146113b15760405162461bcd60e51b815260206004820152602860248201527f455243313135353a2069647320616e6420616d6f756e7473206c656e677468206044820152670dad2e6dac2e8c6d60c31b6064820152608401610436565b6001600160a01b0384166113d75760405162461bcd60e51b815260040161043690612694565b60006113e161131c565b905060005b84518110156114e557600085828151811061141157634e487b7160e01b600052603260045260246000fd5b60200260200101519050600085838151811061143d57634e487b7160e01b600052603260045260246000fd5b602090810291909101810151600084815280835260408082206001600160a01b038e16835290935291909120549091508181101561148d5760405162461bcd60e51b8152600401610436906126d9565b6000838152602081815260408083206001600160a01b038e8116855292528083208585039055908b168252812080548492906114ca9084906127b6565b92505081905550505050806114de9061289b565b90506113e6565b50846001600160a01b0316866001600160a01b0316826001600160a01b03167f4a39dc06d4c0dbc64b70af90fd698a233a518aa5d07e595d983b8c0526c8f7fb8787604051611535929190612536565b60405180910390a461154b8187878787876118c2565b505050505050565b600061155f8383611a2d565b9392505050565b6000610462825490565b600061155f8383611a7c565b6001600160a01b0384166115dc5760405162461bcd60e51b815260206004820152602160248201527f455243313135353a206d696e7420746f20746865207a65726f206164647265736044820152607360f81b6064820152608401610436565b60006115e661131c565b9050611601816000876115f888611ab4565b61064f88611ab4565b6000848152602081815260408083206001600160a01b0389168452909152812080548592906116319084906127b6565b909155505060408051858152602081018590526001600160a01b0380881692600092918516917fc3d58168c5ae7397731d063d5bbf3d657854427343f4c083240f7aacaa2d0f62910160405180910390a461064f81600087878787611b0d565b816001600160a01b0316836001600160a01b031614156117055760405162461bcd60e51b815260206004820152602960248201527f455243313135353a2073657474696e6720617070726f76616c20737461747573604482015268103337b91039b2b63360b91b6064820152608401610436565b6001600160a01b03838116600081815260016020908152604080832094871680845294825291829020805460ff191686151590811790915591519182527f17307eab39ab6107e8899845ad3d59bd9653f200f220920489ca2b5937696c31910160405180910390a3505050565b6001600160a01b0384166117985760405162461bcd60e51b815260040161043690612694565b60006117a261131c565b90506117b38187876115f888611ab4565b6000848152602081815260408083206001600160a01b038a168452909152902054838110156117f45760405162461bcd60e51b8152600401610436906126d9565b6000858152602081815260408083206001600160a01b038b81168552925280832087850390559088168252812080548692906118319084906127b6565b909155505060408051868152602081018690526001600160a01b03808916928a821692918616917fc3d58168c5ae7397731d063d5bbf3d657854427343f4c083240f7aacaa2d0f62910160405180910390a4611891828888888888611b0d565b50505050505050565b6003546000906001600160a01b03163314156118bd575060131936013560601c90565b503390565b6001600160a01b0384163b1561154b5760405163bc197c8160e01b81526001600160a01b0385169063bc197c81906119069089908990889088908890600401612480565b602060405180830381600087803b15801561192057600080fd5b505af1925050508015611950575060408051601f3d908101601f1916820190925261194d91810190612016565b60015b6119fd5761195c6128e2565b806308c379a0141561199657506119716128f9565b8061197c5750611998565b8060405162461bcd60e51b8152600401610436919061255b565b505b60405162461bcd60e51b815260206004820152603460248201527f455243313135353a207472616e7366657220746f206e6f6e20455243313135356044820152732932b1b2b4bb32b91034b6b83632b6b2b73a32b960611b6064820152608401610436565b6001600160e01b0319811663bc197c8160e01b146118915760405162461bcd60e51b81526004016104369061264c565b6000818152600183016020526040812054611a7457508154600181810184556000848152602080822090930184905584548482528286019093526040902091909155610462565b506000610462565b6000826000018281548110611aa157634e487b7160e01b600052603260045260246000fd5b9060005260206000200154905092915050565b60408051600180825281830190925260609160009190602080830190803683370190505090508281600081518110611afc57634e487b7160e01b600052603260045260246000fd5b602090810291909101015292915050565b6001600160a01b0384163b1561154b5760405163f23a6e6160e01b81526001600160a01b0385169063f23a6e6190611b5190899089908890889088906004016124de565b602060405180830381600087803b158015611b6b57600080fd5b505af1925050508015611b9b575060408051601f3d908101601f19168201909252611b9891810190612016565b60015b611ba75761195c6128e2565b6001600160e01b0319811663f23a6e6160e01b146118915760405162461bcd60e51b81526004016104369061264c565b828054611be390612834565b90600052602060002090601f016020900481019282611c055760008555611c4b565b82601f10611c1e57805160ff1916838001178555611c4b565b82800160010185558215611c4b579182015b82811115611c4b578251825591602001919060010190611c30565b50611c57929150611c5b565b5090565b5b80821115611c575760008155600101611c5c565b600082601f830112611c80578081fd5b81356020611c8d8261276c565b604051611c9a828261286f565b8381528281019150858301600585901b87018401881015611cb9578586fd5b855b85811015611cd757813584529284019290840190600101611cbb565b5090979650505050505050565b600082601f830112611cf4578081fd5b8135611cff8161278f565b604051611d0c828261286f565b828152856020848701011115611d20578384fd5b82602086016020830137918201602001929092529392505050565b600060208284031215611d4c578081fd5b813561155f81612982565b600060208284031215611d68578081fd5b815161155f81612982565b60008060408385031215611d85578081fd5b8235611d9081612982565b91506020830135611da081612982565b809150509250929050565b600080600080600060a08688031215611dc2578081fd5b8535611dcd81612982565b94506020860135611ddd81612982565b935060408601356001600160401b0380821115611df8578283fd5b611e0489838a01611c70565b94506060880135915080821115611e19578283fd5b611e2589838a01611c70565b93506080880135915080821115611e3a578283fd5b50611e4788828901611ce4565b9150509295509295909350565b600080600080600060a08688031215611e6b578081fd5b8535611e7681612982565b94506020860135611e8681612982565b9350604086013592506060860135915060808601356001600160401b03811115611eae578182fd5b611e4788828901611ce4565b60008060408385031215611ecc578182fd5b8235611ed781612982565b91506020830135611da08161299a565b60008060408385031215611ef9578182fd5b8235611f0481612982565b946020939093013593505050565b60008060408385031215611f24578182fd5b82356001600160401b0380821115611f3a578384fd5b818501915085601f830112611f4d578384fd5b81356020611f5a8261276c565b604051611f67828261286f565b8381528281019150858301600585901b870184018b1015611f86578889fd5b8896505b84871015611fb1578035611f9d81612982565b835260019690960195918301918301611f8a565b5096505086013592505080821115611fc7578283fd5b50611fd485828601611c70565b9150509250929050565b600060208284031215611fef578081fd5b815161155f8161299a565b60006020828403121561200b578081fd5b813561155f816129a8565b600060208284031215612027578081fd5b815161155f816129a8565b600060208284031215612043578081fd5b81516001600160401b03811115612058578182fd5b8201601f81018413612068578182fd5b80516120738161278f565b604051612080828261286f565b828152866020848601011115612094578485fd5b6120a5836020830160208701612804565b9695505050505050565b6000806000606084860312156120c3578081fd5b83356001600160401b03808211156120d9578283fd5b6120e587838801611ce4565b945060208601359150808211156120fa578283fd5b61210687838801611ce4565b9350604086013591508082111561211b578283fd5b5061212886828701611ce4565b9150509250925092565b60008060008060808587031215612147578182fd5b84356001600160401b038082111561215d578384fd5b61216988838901611ce4565b9550602087013591508082111561217e578384fd5b61218a88838901611ce4565b9450604087013591508082111561219f578384fd5b506121ac87828801611ce4565b92505060608501356121bd81612982565b939692955090935050565b600080600080600060a086880312156121df578283fd5b85356001600160401b03808211156121f5578485fd5b61220189838a01611ce4565b96506020880135915080821115612216578485fd5b61222289838a01611ce4565b95506040880135915080821115612237578485fd5b61224389838a01611ce4565b94506060880135915080821115612258578283fd5b5061226588828901611ce4565b95989497509295608001359392505050565b600060208284031215612288578081fd5b5035919050565b6000602082840312156122a0578081fd5b5051919050565b600080604083850312156122b9578182fd5b8235915060208301356001600160401b038111156122d5578182fd5b611fd485828601611ce4565b6000806000606084860312156122f5578081fd5b505081359360208301359350604090920135919050565b6000815180845260208085019450808401835b8381101561233b5781518752958201959082019060010161231f565b509495945050505050565b6000815180845261235e816020860160208601612804565b601f01601f19169290920160200192915050565b8054600090600181811c908083168061238c57607f831692505b60208084108214156123ac57634e487b7160e01b86526022600452602486fd5b8180156123c057600181146123d1576123fe565b60ff198616895284890196506123fe565b60008881526020902060005b868110156123f65781548b8201529085019083016123dd565b505084890196505b50505050505092915050565b6000835161241c818460208801612804565b835190830190612430818360208801612804565b01949350505050565b6000835161244b818460208801612804565b61245781840185612372565b95945050505050565b83815260006124726020830185612372565b928352505060200192915050565b6001600160a01b0386811682528516602082015260a0604082018190526000906124ac9083018661230c565b82810360608401526124be818661230c565b905082810360808401526124d28185612346565b98975050505050505050565b6001600160a01b03868116825285166020820152604081018490526060810183905260a06080820181905260009061251890830184612346565b979650505050505050565b60208152600061155f602083018461230c565b604081526000612549604083018561230c565b8281036020840152612457818561230c565b60208152600061155f6020830184612346565b6060815260006125816060830186612346565b82810360208401526125938186612346565b905082810360408401526120a58185612346565b60a0815260006125ba60a0830188612346565b82810360208401526125cc8188612346565b905082810360408401526125e08187612346565b6001600160a01b039590951660608401525050608001529392505050565b60a08152600061261160a0830188612346565b82810360208401526126238188612346565b905082810360408401526126378187612346565b60608401959095525050608001529392505050565b60208082526028908201527f455243313135353a204552433131353552656365697665722072656a656374656040820152676420746f6b656e7360c01b606082015260800190565b60208082526025908201527f455243313135353a207472616e7366657220746f20746865207a65726f206164604082015264647265737360d81b606082015260800190565b6020808252602a908201527f455243313135353a20696e73756666696369656e742062616c616e636520666f60408201526939103a3930b739b332b960b11b606082015260800190565b6020808252600e908201526d6572722d656d7074792d6e616d6560901b604082015260600190565b8281526040602082015260006127646040830184612346565b949350505050565b60006001600160401b03821115612785576127856128cc565b5060051b60200190565b60006001600160401b038211156127a8576127a86128cc565b50601f01601f191660200190565b600082198211156127c9576127c96128b6565b500190565b60008160001904831182151516156127e8576127e86128b6565b500290565b6000828210156127ff576127ff6128b6565b500390565b60005b8381101561281f578181015183820152602001612807565b8381111561282e576000848401525b50505050565b600181811c9082168061284857607f821691505b6020821081141561286957634e487b7160e01b600052602260045260246000fd5b50919050565b601f8201601f191681016001600160401b0381118282101715612894576128946128cc565b6040525050565b60006000198214156128af576128af6128b6565b5060010190565b634e487b7160e01b600052601160045260246000fd5b634e487b7160e01b600052604160045260246000fd5b600060033d111561134c57600481823e5160e01c90565b600060443d10156129075790565b6040516003193d81016004833e81513d6001600160401b03816024840111818411171561293657505050505090565b828501915081518181111561294e5750505050505090565b843d87010160208285010111156129685750505050505090565b6129776020828601018761286f565b509095945050505050565b6001600160a01b038116811461299757600080fd5b50565b801515811461299757600080fd5b6001600160e01b03198116811461299757600080fdfea26469706673582212203cc3588bdcdcbe6a5acea588c2dede0bafc52e6f3cb0fb195a639f3fc401e61564736f6c63430008040033",
  "linkReferences": {},
  "deployedLinkReferences": {}
}